{
	"AIAirdrop.sol": {
		"AIAirdrop": {
			"abi": [
				{
					"inputs": [
						{
							"internalType": "address",
							"name": "_tokenToClaim",
							"type": "address"
						}
					],
					"stateMutability": "nonpayable",
					"type": "constructor"
				},
				{
					"inputs": [
						{
							"internalType": "uint256",
							"name": "lastTimeClaimed",
							"type": "uint256"
						},
						{
							"internalType": "uint256",
							"name": "userBalance",
							"type": "uint256"
						}
					],
					"name": "ClaimedAlready",
					"type": "error"
				},
				{
					"inputs": [],
					"name": "EnforcedPause",
					"type": "error"
				},
				{
					"inputs": [],
					"name": "ExpectedPause",
					"type": "error"
				},
				{
					"inputs": [
						{
							"internalType": "address",
							"name": "owner",
							"type": "address"
						}
					],
					"name": "OwnableInvalidOwner",
					"type": "error"
				},
				{
					"inputs": [
						{
							"internalType": "address",
							"name": "account",
							"type": "address"
						}
					],
					"name": "OwnableUnauthorizedAccount",
					"type": "error"
				},
				{
					"anonymous": false,
					"inputs": [
						{
							"indexed": true,
							"internalType": "address",
							"name": "addr",
							"type": "address"
						},
						{
							"indexed": false,
							"internalType": "uint256",
							"name": "claimedTime",
							"type": "uint256"
						}
					],
					"name": "Claimed",
					"type": "event"
				},
				{
					"anonymous": false,
					"inputs": [
						{
							"indexed": true,
							"internalType": "address",
							"name": "previousOwner",
							"type": "address"
						},
						{
							"indexed": true,
							"internalType": "address",
							"name": "newOwner",
							"type": "address"
						}
					],
					"name": "OwnershipTransferred",
					"type": "event"
				},
				{
					"anonymous": false,
					"inputs": [
						{
							"indexed": false,
							"internalType": "address",
							"name": "account",
							"type": "address"
						}
					],
					"name": "Paused",
					"type": "event"
				},
				{
					"anonymous": false,
					"inputs": [
						{
							"indexed": false,
							"internalType": "address",
							"name": "account",
							"type": "address"
						}
					],
					"name": "Unpaused",
					"type": "event"
				},
				{
					"anonymous": false,
					"inputs": [
						{
							"indexed": false,
							"internalType": "uint256",
							"name": "",
							"type": "uint256"
						}
					],
					"name": "amountToClaimUpdated",
					"type": "event"
				},
				{
					"anonymous": false,
					"inputs": [
						{
							"indexed": false,
							"internalType": "address",
							"name": "",
							"type": "address"
						}
					],
					"name": "tokenToClaimUpdated",
					"type": "event"
				},
				{
					"inputs": [],
					"name": "_claimCounter",
					"outputs": [
						{
							"internalType": "uint256",
							"name": "_value",
							"type": "uint256"
						}
					],
					"stateMutability": "view",
					"type": "function"
				},
				{
					"inputs": [],
					"name": "amountToClaim",
					"outputs": [
						{
							"internalType": "uint256",
							"name": "",
							"type": "uint256"
						}
					],
					"stateMutability": "view",
					"type": "function"
				},
				{
					"inputs": [
						{
							"internalType": "address",
							"name": "_wallet",
							"type": "address"
						}
					],
					"name": "claim",
					"outputs": [
						{
							"internalType": "bool",
							"name": "",
							"type": "bool"
						}
					],
					"stateMutability": "nonpayable",
					"type": "function"
				},
				{
					"inputs": [
						{
							"internalType": "address",
							"name": "",
							"type": "address"
						}
					],
					"name": "claimed",
					"outputs": [
						{
							"internalType": "uint256",
							"name": "",
							"type": "uint256"
						}
					],
					"stateMutability": "view",
					"type": "function"
				},
				{
					"inputs": [],
					"name": "getBalance",
					"outputs": [
						{
							"internalType": "uint256",
							"name": "",
							"type": "uint256"
						}
					],
					"stateMutability": "view",
					"type": "function"
				},
				{
					"inputs": [],
					"name": "owner",
					"outputs": [
						{
							"internalType": "address",
							"name": "",
							"type": "address"
						}
					],
					"stateMutability": "view",
					"type": "function"
				},
				{
					"inputs": [],
					"name": "pause",
					"outputs": [],
					"stateMutability": "nonpayable",
					"type": "function"
				},
				{
					"inputs": [],
					"name": "paused",
					"outputs": [
						{
							"internalType": "bool",
							"name": "",
							"type": "bool"
						}
					],
					"stateMutability": "view",
					"type": "function"
				},
				{
					"inputs": [],
					"name": "renounceOwnership",
					"outputs": [],
					"stateMutability": "nonpayable",
					"type": "function"
				},
				{
					"inputs": [],
					"name": "time",
					"outputs": [
						{
							"internalType": "uint256",
							"name": "",
							"type": "uint256"
						}
					],
					"stateMutability": "view",
					"type": "function"
				},
				{
					"inputs": [],
					"name": "tokenToClaim",
					"outputs": [
						{
							"internalType": "address",
							"name": "",
							"type": "address"
						}
					],
					"stateMutability": "view",
					"type": "function"
				},
				{
					"inputs": [
						{
							"internalType": "address payable",
							"name": "_to",
							"type": "address"
						},
						{
							"internalType": "uint256",
							"name": "_amount",
							"type": "uint256"
						}
					],
					"name": "transferBalance",
					"outputs": [],
					"stateMutability": "nonpayable",
					"type": "function"
				},
				{
					"inputs": [
						{
							"internalType": "address",
							"name": "newOwner",
							"type": "address"
						}
					],
					"name": "transferOwnership",
					"outputs": [],
					"stateMutability": "nonpayable",
					"type": "function"
				},
				{
					"inputs": [],
					"name": "unpause",
					"outputs": [],
					"stateMutability": "nonpayable",
					"type": "function"
				},
				{
					"inputs": [
						{
							"internalType": "uint256",
							"name": "_amount",
							"type": "uint256"
						}
					],
					"name": "updateAmountToClaim",
					"outputs": [
						{
							"internalType": "bool",
							"name": "",
							"type": "bool"
						}
					],
					"stateMutability": "nonpayable",
					"type": "function"
				},
				{
					"inputs": [
						{
							"internalType": "address",
							"name": "_token",
							"type": "address"
						}
					],
					"name": "updateTokenToClaim",
					"outputs": [
						{
							"internalType": "bool",
							"name": "",
							"type": "bool"
						}
					],
					"stateMutability": "nonpayable",
					"type": "function"
				},
				{
					"inputs": [],
					"name": "withdraw",
					"outputs": [],
					"stateMutability": "nonpayable",
					"type": "function"
				},
				{
					"inputs": [
						{
							"internalType": "address",
							"name": "_LSP7Token",
							"type": "address"
						},
						{
							"internalType": "address",
							"name": "_to",
							"type": "address"
						},
						{
							"internalType": "uint256",
							"name": "_amount",
							"type": "uint256"
						},
						{
							"internalType": "bool",
							"name": "_force",
							"type": "bool"
						},
						{
							"internalType": "bytes",
							"name": "_data",
							"type": "bytes"
						}
					],
					"name": "withdrawLSP7",
					"outputs": [],
					"stateMutability": "nonpayable",
					"type": "function"
				}
			],
			"devdoc": {
				"author": "Aratta Labs",
				"custom:emoji": "ðŸ¤–",
				"custom:security-contact": "atenyun@gmail.com",
				"details": "You will find the deployed contract addresses in the repo",
				"errors": {
					"EnforcedPause()": [
						{
							"details": "The operation failed because the contract is paused."
						}
					],
					"ExpectedPause()": [
						{
							"details": "The operation failed because the contract is not paused."
						}
					],
					"OwnableInvalidOwner(address)": [
						{
							"details": "The owner is not a valid owner account. (eg. `address(0)`)"
						}
					],
					"OwnableUnauthorizedAccount(address)": [
						{
							"details": "The caller account is not authorized to perform an operation."
						}
					]
				},
				"events": {
					"Paused(address)": {
						"details": "Emitted when the pause is triggered by `account`."
					},
					"Unpaused(address)": {
						"details": "Emitted when the pause is lifted by `account`."
					}
				},
				"kind": "dev",
				"methods": {
					"owner()": {
						"details": "Returns the address of the current owner."
					},
					"paused()": {
						"details": "Returns true if the contract is paused, and false otherwise."
					},
					"renounceOwnership()": {
						"details": "Leaves the contract without owner. It will not be possible to call `onlyOwner` functions. Can only be called by the current owner. NOTE: Renouncing ownership will leave the contract without an owner, thereby disabling any functionality that is only available to the owner."
					},
					"transferOwnership(address)": {
						"details": "Transfers ownership of the contract to a new account (`newOwner`). Can only be called by the current owner."
					}
				},
				"title": "Airdrop",
				"version": 1
			},
			"evm": {
				"assembly": "    /* \"AIAirdrop.sol\":616:3455  contract AIAirdrop is Ownable(msg.sender), Pausable {... */\n  mstore(0x40, 0x80)\n    /* \"AIAirdrop.sol\":822:833  5_000 ether */\n  0x010f0cf064dd59200000\n    /* \"AIAirdrop.sol\":791:833  uint256 public amountToClaim = 5_000 ether */\n  0x03\n  sstore\n    /* \"AIAirdrop.sol\":889:1018  constructor(address _tokenToClaim) {... */\n  callvalue\n  dup1\n  iszero\n  tag_1\n  jumpi\n  revert(0x00, 0x00)\ntag_1:\n  pop\n  mload(0x40)\n  sub(codesize, bytecodeSize)\n  dup1\n  bytecodeSize\n  dup4\n  codecopy\n  dup2\n  dup2\n  add\n  0x40\n  mstore\n  dup2\n  add\n  swap1\n  tag_2\n  swap2\n  swap1\n  tag_3\n  jump\t// in\ntag_2:\n    /* \"AIAirdrop.sol\":646:656  msg.sender */\n  caller\n    /* \"_ownable.sol\":1318:1319  0 */\n  0x00\n    /* \"_ownable.sol\":1294:1320  initialOwner == address(0) */\n  0xffffffffffffffffffffffffffffffffffffffff\n  and\n    /* \"_ownable.sol\":1294:1306  initialOwner */\n  dup2\n    /* \"_ownable.sol\":1294:1320  initialOwner == address(0) */\n  0xffffffffffffffffffffffffffffffffffffffff\n  and\n  sub\n    /* \"_ownable.sol\":1290:1385  if (initialOwner == address(0)) {... */\n  tag_8\n  jumpi\n    /* \"_ownable.sol\":1371:1372  0 */\n  0x00\n    /* \"_ownable.sol\":1343:1374  OwnableInvalidOwner(address(0)) */\n  mload(0x40)\n  0x1e4fbdf700000000000000000000000000000000000000000000000000000000\n  dup2\n  mstore\n  0x04\n  add\n  tag_9\n  swap2\n  swap1\n  tag_10\n  jump\t// in\ntag_9:\n  mload(0x40)\n  dup1\n  swap2\n  sub\n  swap1\n  revert\n    /* \"_ownable.sol\":1290:1385  if (initialOwner == address(0)) {... */\ntag_8:\n    /* \"_ownable.sol\":1394:1426  _transferOwnership(initialOwner) */\n  tag_11\n    /* \"_ownable.sol\":1413:1425  initialOwner */\n  dup2\n    /* \"_ownable.sol\":1394:1412  _transferOwnership */\n  shl(0x20, tag_12)\n    /* \"_ownable.sol\":1394:1426  _transferOwnership(initialOwner) */\n  0x20\n  shr\n  jump\t// in\ntag_11:\n    /* \"_ownable.sol\":1246:1433  constructor(address initialOwner) {... */\n  pop\n    /* \"_pausable.sol\":1262:1267  false */\n  0x00\n    /* \"_pausable.sol\":1252:1259  _paused */\n  0x00\n  0x14\n    /* \"_pausable.sol\":1252:1267  _paused = false */\n  0x0100\n  exp\n  dup2\n  sload\n  dup2\n  0xff\n  mul\n  not\n  and\n  swap1\n  dup4\n  iszero\n  iszero\n  mul\n  or\n  swap1\n  sstore\n  pop\n    /* \"AIAirdrop.sol\":949:962  _tokenToClaim */\n  dup1\n    /* \"AIAirdrop.sol\":934:946  tokenToClaim */\n  0x02\n  0x00\n    /* \"AIAirdrop.sol\":934:962  tokenToClaim = _tokenToClaim */\n  0x0100\n  exp\n  dup2\n  sload\n  dup2\n  0xffffffffffffffffffffffffffffffffffffffff\n  mul\n  not\n  and\n  swap1\n  dup4\n  0xffffffffffffffffffffffffffffffffffffffff\n  and\n  mul\n  or\n  swap1\n  sstore\n  pop\n    /* \"AIAirdrop.sol\":977:1011  tokenToClaimUpdated(_tokenToClaim) */\n  0xf9563f2ff8321c25ec4ee92f781a8d3ebc72f854daa4bf9177f3886b6ca1f7e1\n    /* \"AIAirdrop.sol\":997:1010  _tokenToClaim */\n  dup2\n    /* \"AIAirdrop.sol\":977:1011  tokenToClaimUpdated(_tokenToClaim) */\n  mload(0x40)\n  tag_15\n  swap2\n  swap1\n  tag_10\n  jump\t// in\ntag_15:\n  mload(0x40)\n  dup1\n  swap2\n  sub\n  swap1\n  log1\n    /* \"AIAirdrop.sol\":889:1018  constructor(address _tokenToClaim) {... */\n  pop\n    /* \"AIAirdrop.sol\":616:3455  contract AIAirdrop is Ownable(msg.sender), Pausable {... */\n  jump(tag_16)\n    /* \"_ownable.sol\":2933:3120  function _transferOwnership(address newOwner) internal virtual {... */\ntag_12:\n    /* \"_ownable.sol\":3006:3022  address oldOwner */\n  0x00\n    /* \"_ownable.sol\":3025:3031  _owner */\n  0x00\n  0x00\n  swap1\n  sload\n  swap1\n  0x0100\n  exp\n  swap1\n  div\n  0xffffffffffffffffffffffffffffffffffffffff\n  and\n    /* \"_ownable.sol\":3006:3031  address oldOwner = _owner */\n  swap1\n  pop\n    /* \"_ownable.sol\":3050:3058  newOwner */\n  dup2\n    /* \"_ownable.sol\":3041:3047  _owner */\n  0x00\n  0x00\n    /* \"_ownable.sol\":3041:3058  _owner = newOwner */\n  0x0100\n  exp\n  dup2\n  sload\n  dup2\n  0xffffffffffffffffffffffffffffffffffffffff\n  mul\n  not\n  and\n  swap1\n  dup4\n  0xffffffffffffffffffffffffffffffffffffffff\n  and\n  mul\n  or\n  swap1\n  sstore\n  pop\n    /* \"_ownable.sol\":3104:3112  newOwner */\n  dup2\n    /* \"_ownable.sol\":3073:3113  OwnershipTransferred(oldOwner, newOwner) */\n  0xffffffffffffffffffffffffffffffffffffffff\n  and\n    /* \"_ownable.sol\":3094:3102  oldOwner */\n  dup2\n    /* \"_ownable.sol\":3073:3113  OwnershipTransferred(oldOwner, newOwner) */\n  0xffffffffffffffffffffffffffffffffffffffff\n  and\n  0x8be0079c531659141344cd1fd0a4f28419497f9722a3daafe3b4186f6b6457e0\n  mload(0x40)\n  mload(0x40)\n  dup1\n  swap2\n  sub\n  swap1\n  log3\n    /* \"_ownable.sol\":2996:3120  {... */\n  pop\n    /* \"_ownable.sol\":2933:3120  function _transferOwnership(address newOwner) internal virtual {... */\n  pop\n  jump\t// out\n    /* \"#utility.yul\":88:205   */\ntag_19:\n    /* \"#utility.yul\":197:198   */\n  0x00\n    /* \"#utility.yul\":194:195   */\n  0x00\n    /* \"#utility.yul\":187:199   */\n  revert\n    /* \"#utility.yul\":334:460   */\ntag_21:\n    /* \"#utility.yul\":371:378   */\n  0x00\n    /* \"#utility.yul\":411:453   */\n  0xffffffffffffffffffffffffffffffffffffffff\n    /* \"#utility.yul\":404:409   */\n  dup3\n    /* \"#utility.yul\":400:454   */\n  and\n    /* \"#utility.yul\":389:454   */\n  swap1\n  pop\n    /* \"#utility.yul\":334:460   */\n  swap2\n  swap1\n  pop\n  jump\t// out\n    /* \"#utility.yul\":466:562   */\ntag_22:\n    /* \"#utility.yul\":503:510   */\n  0x00\n    /* \"#utility.yul\":532:556   */\n  tag_32\n    /* \"#utility.yul\":550:555   */\n  dup3\n    /* \"#utility.yul\":532:556   */\n  tag_21\n  jump\t// in\ntag_32:\n    /* \"#utility.yul\":521:556   */\n  swap1\n  pop\n    /* \"#utility.yul\":466:562   */\n  swap2\n  swap1\n  pop\n  jump\t// out\n    /* \"#utility.yul\":568:690   */\ntag_23:\n    /* \"#utility.yul\":641:665   */\n  tag_34\n    /* \"#utility.yul\":659:664   */\n  dup2\n    /* \"#utility.yul\":641:665   */\n  tag_22\n  jump\t// in\ntag_34:\n    /* \"#utility.yul\":634:639   */\n  dup2\n    /* \"#utility.yul\":631:666   */\n  eq\n    /* \"#utility.yul\":621:684   */\n  tag_35\n  jumpi\n    /* \"#utility.yul\":680:681   */\n  0x00\n    /* \"#utility.yul\":677:678   */\n  0x00\n    /* \"#utility.yul\":670:682   */\n  revert\n    /* \"#utility.yul\":621:684   */\ntag_35:\n    /* \"#utility.yul\":568:690   */\n  pop\n  jump\t// out\n    /* \"#utility.yul\":696:839   */\ntag_24:\n    /* \"#utility.yul\":753:758   */\n  0x00\n    /* \"#utility.yul\":784:790   */\n  dup2\n    /* \"#utility.yul\":778:791   */\n  mload\n    /* \"#utility.yul\":769:791   */\n  swap1\n  pop\n    /* \"#utility.yul\":800:833   */\n  tag_37\n    /* \"#utility.yul\":827:832   */\n  dup2\n    /* \"#utility.yul\":800:833   */\n  tag_23\n  jump\t// in\ntag_37:\n    /* \"#utility.yul\":696:839   */\n  swap3\n  swap2\n  pop\n  pop\n  jump\t// out\n    /* \"#utility.yul\":845:1196   */\ntag_3:\n    /* \"#utility.yul\":915:921   */\n  0x00\n    /* \"#utility.yul\":964:966   */\n  0x20\n    /* \"#utility.yul\":952:961   */\n  dup3\n    /* \"#utility.yul\":943:950   */\n  dup5\n    /* \"#utility.yul\":939:962   */\n  sub\n    /* \"#utility.yul\":935:967   */\n  slt\n    /* \"#utility.yul\":932:1051   */\n  iszero\n  tag_39\n  jumpi\n    /* \"#utility.yul\":970:1049   */\n  tag_40\n  tag_19\n  jump\t// in\ntag_40:\n    /* \"#utility.yul\":932:1051   */\ntag_39:\n    /* \"#utility.yul\":1090:1091   */\n  0x00\n    /* \"#utility.yul\":1115:1179   */\n  tag_41\n    /* \"#utility.yul\":1171:1178   */\n  dup5\n    /* \"#utility.yul\":1162:1168   */\n  dup3\n    /* \"#utility.yul\":1151:1160   */\n  dup6\n    /* \"#utility.yul\":1147:1169   */\n  add\n    /* \"#utility.yul\":1115:1179   */\n  tag_24\n  jump\t// in\ntag_41:\n    /* \"#utility.yul\":1105:1179   */\n  swap2\n  pop\n    /* \"#utility.yul\":1061:1189   */\n  pop\n    /* \"#utility.yul\":845:1196   */\n  swap3\n  swap2\n  pop\n  pop\n  jump\t// out\n    /* \"#utility.yul\":1202:1320   */\ntag_25:\n    /* \"#utility.yul\":1289:1313   */\n  tag_43\n    /* \"#utility.yul\":1307:1312   */\n  dup2\n    /* \"#utility.yul\":1289:1313   */\n  tag_22\n  jump\t// in\ntag_43:\n    /* \"#utility.yul\":1284:1287   */\n  dup3\n    /* \"#utility.yul\":1277:1314   */\n  mstore\n    /* \"#utility.yul\":1202:1320   */\n  pop\n  pop\n  jump\t// out\n    /* \"#utility.yul\":1326:1548   */\ntag_10:\n    /* \"#utility.yul\":1419:1423   */\n  0x00\n    /* \"#utility.yul\":1457:1459   */\n  0x20\n    /* \"#utility.yul\":1446:1455   */\n  dup3\n    /* \"#utility.yul\":1442:1460   */\n  add\n    /* \"#utility.yul\":1434:1460   */\n  swap1\n  pop\n    /* \"#utility.yul\":1470:1541   */\n  tag_45\n    /* \"#utility.yul\":1538:1539   */\n  0x00\n    /* \"#utility.yul\":1527:1536   */\n  dup4\n    /* \"#utility.yul\":1523:1540   */\n  add\n    /* \"#utility.yul\":1514:1520   */\n  dup5\n    /* \"#utility.yul\":1470:1541   */\n  tag_25\n  jump\t// in\ntag_45:\n    /* \"#utility.yul\":1326:1548   */\n  swap3\n  swap2\n  pop\n  pop\n  jump\t// out\n    /* \"AIAirdrop.sol\":616:3455  contract AIAirdrop is Ownable(msg.sender), Pausable {... */\ntag_16:\n  dataSize(sub_0)\n  dup1\n  dataOffset(sub_0)\n  0x00\n  codecopy\n  0x00\n  return\nstop\n\nsub_0: assembly {\n        /* \"AIAirdrop.sol\":616:3455  contract AIAirdrop is Ownable(msg.sender), Pausable {... */\n      mstore(0x40, 0x80)\n      callvalue\n      dup1\n      iszero\n      tag_1\n      jumpi\n      revert(0x00, 0x00)\n    tag_1:\n      pop\n      jumpi(tag_2, lt(calldatasize, 0x04))\n      shr(0xe0, calldataload(0x00))\n      dup1\n      0x5c975abb\n      gt\n      tag_21\n      jumpi\n      dup1\n      0xaf66ef65\n      gt\n      tag_22\n      jumpi\n      dup1\n      0xaf66ef65\n      eq\n      tag_16\n      jumpi\n      dup1\n      0xb8de4343\n      eq\n      tag_17\n      jumpi\n      dup1\n      0xc884ef83\n      eq\n      tag_18\n      jumpi\n      dup1\n      0xf2fde38b\n      eq\n      tag_19\n      jumpi\n      dup1\n      0xfb2228fe\n      eq\n      tag_20\n      jumpi\n      jump(tag_2)\n    tag_22:\n      dup1\n      0x5c975abb\n      eq\n      tag_12\n      jumpi\n      dup1\n      0x715018a6\n      eq\n      tag_13\n      jumpi\n      dup1\n      0x8456cb59\n      eq\n      tag_14\n      jumpi\n      dup1\n      0x8da5cb5b\n      eq\n      tag_15\n      jumpi\n      jump(tag_2)\n    tag_21:\n      dup1\n      0x3ccfd60b\n      gt\n      tag_23\n      jumpi\n      dup1\n      0x3ccfd60b\n      eq\n      tag_7\n      jumpi\n      dup1\n      0x3f4ba83a\n      eq\n      tag_8\n      jumpi\n      dup1\n      0x4875590a\n      eq\n      tag_9\n      jumpi\n      dup1\n      0x53a4cff4\n      eq\n      tag_10\n      jumpi\n      dup1\n      0x56a6d9ef\n      eq\n      tag_11\n      jumpi\n      jump(tag_2)\n    tag_23:\n      dup1\n      0x12065fe0\n      eq\n      tag_3\n      jumpi\n      dup1\n      0x16ada547\n      eq\n      tag_4\n      jumpi\n      dup1\n      0x1e83409a\n      eq\n      tag_5\n      jumpi\n      dup1\n      0x205306b4\n      eq\n      tag_6\n      jumpi\n    tag_2:\n      revert(0x00, 0x00)\n        /* \"AIAirdrop.sol\":3085:3182  function getBalance() public view returns (uint256) {... */\n    tag_3:\n      tag_24\n      tag_25\n      jump\t// in\n    tag_24:\n      mload(0x40)\n      tag_26\n      swap2\n      swap1\n      tag_27\n      jump\t// in\n    tag_26:\n      mload(0x40)\n      dup1\n      swap2\n      sub\n      swap1\n      return\n        /* \"AIAirdrop.sol\":3368:3453  function time() public view returns (uint256) {... */\n    tag_4:\n      tag_28\n      tag_29\n      jump\t// in\n    tag_28:\n      mload(0x40)\n      tag_30\n      swap2\n      swap1\n      tag_27\n      jump\t// in\n    tag_30:\n      mload(0x40)\n      dup1\n      swap2\n      sub\n      swap1\n      return\n        /* \"AIAirdrop.sol\":1070:1651  function claim(address _wallet) public onlyOwner whenNotPaused returns (bool) {... */\n    tag_5:\n      tag_31\n      0x04\n      dup1\n      calldatasize\n      sub\n      dup2\n      add\n      swap1\n      tag_32\n      swap2\n      swap1\n      tag_33\n      jump\t// in\n    tag_32:\n      tag_34\n      jump\t// in\n    tag_31:\n      mload(0x40)\n      tag_35\n      swap2\n      swap1\n      tag_36\n      jump\t// in\n    tag_35:\n      mload(0x40)\n      dup1\n      swap2\n      sub\n      swap1\n      return\n        /* \"AIAirdrop.sol\":791:833  uint256 public amountToClaim = 5_000 ether */\n    tag_6:\n      tag_37\n      tag_38\n      jump\t// in\n    tag_37:\n      mload(0x40)\n      tag_39\n      swap2\n      swap1\n      tag_27\n      jump\t// in\n    tag_39:\n      mload(0x40)\n      dup1\n      swap2\n      sub\n      swap1\n      return\n        /* \"AIAirdrop.sol\":2516:2704  function withdraw() public onlyOwner {... */\n    tag_7:\n      tag_40\n      tag_41\n      jump\t// in\n    tag_40:\n      stop\n        /* \"AIAirdrop.sol\":3299:3362  function unpause() public onlyOwner {... */\n    tag_8:\n      tag_42\n      tag_43\n      jump\t// in\n    tag_42:\n      stop\n        /* \"AIAirdrop.sol\":758:785  address public tokenToClaim */\n    tag_9:\n      tag_44\n      tag_45\n      jump\t// in\n    tag_44:\n      mload(0x40)\n      tag_46\n      swap2\n      swap1\n      tag_47\n      jump\t// in\n    tag_46:\n      mload(0x40)\n      dup1\n      swap2\n      sub\n      swap1\n      return\n        /* \"AIAirdrop.sol\":1698:1909  function updateAmountToClaim(uint256 _amount)... */\n    tag_10:\n      tag_48\n      0x04\n      dup1\n      calldatasize\n      sub\n      dup2\n      add\n      swap1\n      tag_49\n      swap2\n      swap1\n      tag_50\n      jump\t// in\n    tag_49:\n      tag_51\n      jump\t// in\n    tag_48:\n      mload(0x40)\n      tag_52\n      swap2\n      swap1\n      tag_36\n      jump\t// in\n    tag_52:\n      mload(0x40)\n      dup1\n      swap2\n      sub\n      swap1\n      return\n        /* \"AIAirdrop.sol\":2778:3027  function transferBalance(address payable _to, uint256 _amount)... */\n    tag_11:\n      tag_53\n      0x04\n      dup1\n      calldatasize\n      sub\n      dup2\n      add\n      swap1\n      tag_54\n      swap2\n      swap1\n      tag_55\n      jump\t// in\n    tag_54:\n      tag_56\n      jump\t// in\n    tag_53:\n      stop\n        /* \"_pausable.sol\":1871:1955  function paused() public view virtual returns (bool) {... */\n    tag_12:\n      tag_57\n      tag_58\n      jump\t// in\n    tag_57:\n      mload(0x40)\n      tag_59\n      swap2\n      swap1\n      tag_36\n      jump\t// in\n    tag_59:\n      mload(0x40)\n      dup1\n      swap2\n      sub\n      swap1\n      return\n        /* \"_ownable.sol\":2314:2415  function renounceOwnership() public virtual onlyOwner {... */\n    tag_13:\n      tag_60\n      tag_61\n      jump\t// in\n    tag_60:\n      stop\n        /* \"AIAirdrop.sol\":3210:3269  function pause() public onlyOwner {... */\n    tag_14:\n      tag_62\n      tag_63\n      jump\t// in\n    tag_62:\n      stop\n        /* \"_ownable.sol\":1659:1744  function owner() public view virtual returns (address) {... */\n    tag_15:\n      tag_64\n      tag_65\n      jump\t// in\n    tag_64:\n      mload(0x40)\n      tag_66\n      swap2\n      swap1\n      tag_47\n      jump\t// in\n    tag_66:\n      mload(0x40)\n      dup1\n      swap2\n      sub\n      swap1\n      return\n        /* \"AIAirdrop.sol\":1915:2120  function updateTokenToClaim(address _token)... */\n    tag_16:\n      tag_67\n      0x04\n      dup1\n      calldatasize\n      sub\n      dup2\n      add\n      swap1\n      tag_68\n      swap2\n      swap1\n      tag_33\n      jump\t// in\n    tag_68:\n      tag_69\n      jump\t// in\n    tag_67:\n      mload(0x40)\n      tag_70\n      swap2\n      swap1\n      tag_36\n      jump\t// in\n    tag_70:\n      mload(0x40)\n      dup1\n      swap2\n      sub\n      swap1\n      return\n        /* \"AIAirdrop.sol\":2161:2416  function withdrawLSP7(... */\n    tag_17:\n      tag_71\n      0x04\n      dup1\n      calldatasize\n      sub\n      dup2\n      add\n      swap1\n      tag_72\n      swap2\n      swap1\n      tag_73\n      jump\t// in\n    tag_72:\n      tag_74\n      jump\t// in\n    tag_71:\n      stop\n        /* \"AIAirdrop.sol\":840:882  mapping(address => uint256) public claimed */\n    tag_18:\n      tag_75\n      0x04\n      dup1\n      calldatasize\n      sub\n      dup2\n      add\n      swap1\n      tag_76\n      swap2\n      swap1\n      tag_33\n      jump\t// in\n    tag_76:\n      tag_77\n      jump\t// in\n    tag_75:\n      mload(0x40)\n      tag_78\n      swap2\n      swap1\n      tag_27\n      jump\t// in\n    tag_78:\n      mload(0x40)\n      dup1\n      swap2\n      sub\n      swap1\n      return\n        /* \"_ownable.sol\":2564:2779  function transferOwnership(address newOwner) public virtual onlyOwner {... */\n    tag_19:\n      tag_79\n      0x04\n      dup1\n      calldatasize\n      sub\n      dup2\n      add\n      swap1\n      tag_80\n      swap2\n      swap1\n      tag_33\n      jump\t// in\n    tag_80:\n      tag_81\n      jump\t// in\n    tag_79:\n      stop\n        /* \"AIAirdrop.sol\":715:752  Counters.Counter public _claimCounter */\n    tag_20:\n      tag_82\n      tag_83\n      jump\t// in\n    tag_82:\n      mload(0x40)\n      tag_84\n      swap2\n      swap1\n      tag_27\n      jump\t// in\n    tag_84:\n      mload(0x40)\n      dup1\n      swap2\n      sub\n      swap1\n      return\n        /* \"AIAirdrop.sol\":3085:3182  function getBalance() public view returns (uint256) {... */\n    tag_25:\n        /* \"AIAirdrop.sol\":3128:3135  uint256 */\n      0x00\n        /* \"AIAirdrop.sol\":3154:3175  address(this).balance */\n      selfbalance\n        /* \"AIAirdrop.sol\":3147:3175  return address(this).balance */\n      swap1\n      pop\n        /* \"AIAirdrop.sol\":3085:3182  function getBalance() public view returns (uint256) {... */\n      swap1\n      jump\t// out\n        /* \"AIAirdrop.sol\":3368:3453  function time() public view returns (uint256) {... */\n    tag_29:\n        /* \"AIAirdrop.sol\":3405:3412  uint256 */\n      0x00\n        /* \"AIAirdrop.sol\":3431:3446  block.timestamp */\n      timestamp\n        /* \"AIAirdrop.sol\":3424:3446  return block.timestamp */\n      swap1\n      pop\n        /* \"AIAirdrop.sol\":3368:3453  function time() public view returns (uint256) {... */\n      swap1\n      jump\t// out\n        /* \"AIAirdrop.sol\":1070:1651  function claim(address _wallet) public onlyOwner whenNotPaused returns (bool) {... */\n    tag_34:\n        /* \"AIAirdrop.sol\":1142:1146  bool */\n      0x00\n        /* \"_ownable.sol\":1552:1565  _checkOwner() */\n      tag_88\n        /* \"_ownable.sol\":1552:1563  _checkOwner */\n      tag_89\n        /* \"_ownable.sol\":1552:1565  _checkOwner() */\n      jump\t// in\n    tag_88:\n        /* \"_pausable.sol\":1495:1514  _requireNotPaused() */\n      tag_91\n        /* \"_pausable.sol\":1495:1512  _requireNotPaused */\n      tag_92\n        /* \"_pausable.sol\":1495:1514  _requireNotPaused() */\n      jump\t// in\n    tag_91:\n        /* \"AIAirdrop.sol\":1181:1182  0 */\n      0x00\n        /* \"AIAirdrop.sol\":1162:1169  claimed */\n      0x04\n        /* \"AIAirdrop.sol\":1162:1178  claimed[_wallet] */\n      0x00\n        /* \"AIAirdrop.sol\":1170:1177  _wallet */\n      dup5\n        /* \"AIAirdrop.sol\":1162:1178  claimed[_wallet] */\n      0xffffffffffffffffffffffffffffffffffffffff\n      and\n      0xffffffffffffffffffffffffffffffffffffffff\n      and\n      dup2\n      mstore\n      0x20\n      add\n      swap1\n      dup2\n      mstore\n      0x20\n      add\n      0x00\n      keccak256\n      sload\n        /* \"AIAirdrop.sol\":1162:1182  claimed[_wallet] > 0 */\n      gt\n        /* \"AIAirdrop.sol\":1158:1321  if (claimed[_wallet] > 0)... */\n      iszero\n      tag_94\n      jumpi\n        /* \"AIAirdrop.sol\":1235:1242  claimed */\n      0x04\n        /* \"AIAirdrop.sol\":1235:1251  claimed[_wallet] */\n      0x00\n        /* \"AIAirdrop.sol\":1243:1250  _wallet */\n      dup4\n        /* \"AIAirdrop.sol\":1235:1251  claimed[_wallet] */\n      0xffffffffffffffffffffffffffffffffffffffff\n      and\n      0xffffffffffffffffffffffffffffffffffffffff\n      and\n      dup2\n      mstore\n      0x20\n      add\n      swap1\n      dup2\n      mstore\n      0x20\n      add\n      0x00\n      keccak256\n      sload\n        /* \"AIAirdrop.sol\":1275:1287  tokenToClaim */\n      0x02\n      0x00\n      swap1\n      sload\n      swap1\n      0x0100\n      exp\n      swap1\n      div\n      0xffffffffffffffffffffffffffffffffffffffff\n      and\n        /* \"AIAirdrop.sol\":1269:1298  ILSP7(tokenToClaim).balanceOf */\n      0xffffffffffffffffffffffffffffffffffffffff\n      and\n      0x70a08231\n        /* \"AIAirdrop.sol\":1299:1306  _wallet */\n      dup5\n        /* \"AIAirdrop.sol\":1269:1307  ILSP7(tokenToClaim).balanceOf(_wallet) */\n      mload(0x40)\n      dup3\n      0xffffffff\n      and\n      0xe0\n      shl\n      dup2\n      mstore\n      0x04\n      add\n      tag_95\n      swap2\n      swap1\n      tag_47\n      jump\t// in\n    tag_95:\n      0x20\n      mload(0x40)\n      dup1\n      dup4\n      sub\n      dup2\n      dup7\n      gas\n      staticcall\n      iszero\n      dup1\n      iszero\n      tag_97\n      jumpi\n      returndatacopy(0x00, 0x00, returndatasize)\n      revert(0x00, returndatasize)\n    tag_97:\n      pop\n      pop\n      pop\n      pop\n      mload(0x40)\n      returndatasize\n      not(0x1f)\n      0x1f\n      dup3\n      add\n      and\n      dup3\n      add\n      dup1\n      0x40\n      mstore\n      pop\n      dup2\n      add\n      swap1\n      tag_98\n      swap2\n      swap1\n      tag_99\n      jump\t// in\n    tag_98:\n        /* \"AIAirdrop.sol\":1203:1321  ClaimedAlready(... */\n      mload(0x40)\n      0xbbae19e600000000000000000000000000000000000000000000000000000000\n      dup2\n      mstore\n      0x04\n      add\n      tag_100\n      swap3\n      swap2\n      swap1\n      tag_101\n      jump\t// in\n    tag_100:\n      mload(0x40)\n      dup1\n      swap2\n      sub\n      swap1\n      revert\n        /* \"AIAirdrop.sol\":1158:1321  if (claimed[_wallet] > 0)... */\n    tag_94:\n        /* \"AIAirdrop.sol\":1338:1350  tokenToClaim */\n      0x02\n      0x00\n      swap1\n      sload\n      swap1\n      0x0100\n      exp\n      swap1\n      div\n      0xffffffffffffffffffffffffffffffffffffffff\n      and\n        /* \"AIAirdrop.sol\":1332:1360  ILSP7(tokenToClaim).transfer */\n      0xffffffffffffffffffffffffffffffffffffffff\n      and\n      0x760d9bba\n        /* \"AIAirdrop.sol\":1382:1386  this */\n      address\n        /* \"AIAirdrop.sol\":1401:1408  _wallet */\n      dup5\n        /* \"AIAirdrop.sol\":1422:1435  amountToClaim */\n      sload(0x03)\n        /* \"AIAirdrop.sol\":1449:1453  true */\n      0x01\n        /* \"AIAirdrop.sol\":1332:1479  ILSP7(tokenToClaim).transfer(... */\n      mload(0x40)\n      dup6\n      0xffffffff\n      and\n      0xe0\n      shl\n      dup2\n      mstore\n      0x04\n      add\n      tag_102\n      swap5\n      swap4\n      swap3\n      swap2\n      swap1\n      tag_103\n      jump\t// in\n    tag_102:\n      0x00\n      mload(0x40)\n      dup1\n      dup4\n      sub\n      dup2\n      0x00\n      dup8\n      dup1\n      extcodesize\n      iszero\n      dup1\n      iszero\n      tag_104\n      jumpi\n      revert(0x00, 0x00)\n    tag_104:\n      pop\n      gas\n      call\n      iszero\n      dup1\n      iszero\n      tag_106\n      jumpi\n      returndatacopy(0x00, 0x00, returndatasize)\n      revert(0x00, returndatasize)\n    tag_106:\n      pop\n      pop\n      pop\n      pop\n        /* \"AIAirdrop.sol\":1489:1514  _claimCounter.increment() */\n      tag_107\n        /* \"AIAirdrop.sol\":1489:1502  _claimCounter */\n      0x01\n        /* \"AIAirdrop.sol\":1489:1512  _claimCounter.increment */\n      tag_108\n        /* \"AIAirdrop.sol\":1489:1514  _claimCounter.increment() */\n      jump\t// in\n    tag_107:\n        /* \"AIAirdrop.sol\":1543:1558  block.timestamp */\n      timestamp\n        /* \"AIAirdrop.sol\":1524:1531  claimed */\n      0x04\n        /* \"AIAirdrop.sol\":1524:1540  claimed[_wallet] */\n      0x00\n        /* \"AIAirdrop.sol\":1532:1539  _wallet */\n      dup5\n        /* \"AIAirdrop.sol\":1524:1540  claimed[_wallet] */\n      0xffffffffffffffffffffffffffffffffffffffff\n      and\n      0xffffffffffffffffffffffffffffffffffffffff\n      and\n      dup2\n      mstore\n      0x20\n      add\n      swap1\n      dup2\n      mstore\n      0x20\n      add\n      0x00\n      keccak256\n        /* \"AIAirdrop.sol\":1524:1558  claimed[_wallet] = block.timestamp */\n      dup2\n      swap1\n      sstore\n      pop\n        /* \"AIAirdrop.sol\":1597:1604  _wallet */\n      dup2\n        /* \"AIAirdrop.sol\":1589:1622  Claimed(_wallet, block.timestamp) */\n      0xffffffffffffffffffffffffffffffffffffffff\n      and\n      0xd8138f8a3f377c5259ca548e70e4c2de94f129f5a11036a15b69513cba2b426a\n        /* \"AIAirdrop.sol\":1606:1621  block.timestamp */\n      timestamp\n        /* \"AIAirdrop.sol\":1589:1622  Claimed(_wallet, block.timestamp) */\n      mload(0x40)\n      tag_109\n      swap2\n      swap1\n      tag_27\n      jump\t// in\n    tag_109:\n      mload(0x40)\n      dup1\n      swap2\n      sub\n      swap1\n      log2\n        /* \"AIAirdrop.sol\":1640:1644  true */\n      0x01\n        /* \"AIAirdrop.sol\":1633:1644  return true */\n      swap1\n      pop\n        /* \"AIAirdrop.sol\":1070:1651  function claim(address _wallet) public onlyOwner whenNotPaused returns (bool) {... */\n      swap2\n      swap1\n      pop\n      jump\t// out\n        /* \"AIAirdrop.sol\":791:833  uint256 public amountToClaim = 5_000 ether */\n    tag_38:\n      sload(0x03)\n      dup2\n      jump\t// out\n        /* \"AIAirdrop.sol\":2516:2704  function withdraw() public onlyOwner {... */\n    tag_41:\n        /* \"_ownable.sol\":1552:1565  _checkOwner() */\n      tag_111\n        /* \"_ownable.sol\":1552:1563  _checkOwner */\n      tag_89\n        /* \"_ownable.sol\":1552:1565  _checkOwner() */\n      jump\t// in\n    tag_111:\n        /* \"AIAirdrop.sol\":2563:2577  uint256 amount */\n      0x00\n        /* \"AIAirdrop.sol\":2580:2601  address(this).balance */\n      selfbalance\n        /* \"AIAirdrop.sol\":2563:2601  uint256 amount = address(this).balance */\n      swap1\n      pop\n        /* \"AIAirdrop.sol\":2612:2624  bool success */\n      0x00\n        /* \"AIAirdrop.sol\":2630:2637  owner() */\n      tag_113\n        /* \"AIAirdrop.sol\":2630:2635  owner */\n      tag_65\n        /* \"AIAirdrop.sol\":2630:2637  owner() */\n      jump\t// in\n    tag_113:\n        /* \"AIAirdrop.sol\":2630:2642  owner().call */\n      0xffffffffffffffffffffffffffffffffffffffff\n      and\n        /* \"AIAirdrop.sol\":2650:2656  amount */\n      dup3\n        /* \"AIAirdrop.sol\":2630:2661  owner().call{value: amount}(\"\") */\n      mload(0x40)\n      tag_114\n      swap1\n      tag_115\n      jump\t// in\n    tag_114:\n      0x00\n      mload(0x40)\n      dup1\n      dup4\n      sub\n      dup2\n      dup6\n      dup8\n      gas\n      call\n      swap3\n      pop\n      pop\n      pop\n      returndatasize\n      dup1\n      0x00\n      dup2\n      eq\n      tag_118\n      jumpi\n      mload(0x40)\n      swap2\n      pop\n      and(add(returndatasize, 0x3f), not(0x1f))\n      dup3\n      add\n      0x40\n      mstore\n      returndatasize\n      dup3\n      mstore\n      returndatasize\n      0x00\n      0x20\n      dup5\n      add\n      returndatacopy\n      jump(tag_117)\n    tag_118:\n      0x60\n      swap2\n      pop\n    tag_117:\n      pop\n        /* \"AIAirdrop.sol\":2611:2661  (bool success, ) = owner().call{value: amount}(\"\") */\n      pop\n      swap1\n      pop\n        /* \"AIAirdrop.sol\":2679:2686  success */\n      dup1\n        /* \"AIAirdrop.sol\":2671:2697  require(success, \"Failed\") */\n      tag_119\n      jumpi\n      mload(0x40)\n      0x08c379a000000000000000000000000000000000000000000000000000000000\n      dup2\n      mstore\n      0x04\n      add\n      tag_120\n      swap1\n      tag_121\n      jump\t// in\n    tag_120:\n      mload(0x40)\n      dup1\n      swap2\n      sub\n      swap1\n      revert\n    tag_119:\n        /* \"AIAirdrop.sol\":2553:2704  {... */\n      pop\n      pop\n        /* \"AIAirdrop.sol\":2516:2704  function withdraw() public onlyOwner {... */\n      jump\t// out\n        /* \"AIAirdrop.sol\":3299:3362  function unpause() public onlyOwner {... */\n    tag_43:\n        /* \"_ownable.sol\":1552:1565  _checkOwner() */\n      tag_123\n        /* \"_ownable.sol\":1552:1563  _checkOwner */\n      tag_89\n        /* \"_ownable.sol\":1552:1565  _checkOwner() */\n      jump\t// in\n    tag_123:\n        /* \"AIAirdrop.sol\":3345:3355  _unpause() */\n      tag_125\n        /* \"AIAirdrop.sol\":3345:3353  _unpause */\n      tag_126\n        /* \"AIAirdrop.sol\":3345:3355  _unpause() */\n      jump\t// in\n    tag_125:\n        /* \"AIAirdrop.sol\":3299:3362  function unpause() public onlyOwner {... */\n      jump\t// out\n        /* \"AIAirdrop.sol\":758:785  address public tokenToClaim */\n    tag_45:\n      0x02\n      0x00\n      swap1\n      sload\n      swap1\n      0x0100\n      exp\n      swap1\n      div\n      0xffffffffffffffffffffffffffffffffffffffff\n      and\n      dup2\n      jump\t// out\n        /* \"AIAirdrop.sol\":1698:1909  function updateAmountToClaim(uint256 _amount)... */\n    tag_51:\n        /* \"AIAirdrop.sol\":1794:1798  bool */\n      0x00\n        /* \"_ownable.sol\":1552:1565  _checkOwner() */\n      tag_128\n        /* \"_ownable.sol\":1552:1563  _checkOwner */\n      tag_89\n        /* \"_ownable.sol\":1552:1565  _checkOwner() */\n      jump\t// in\n    tag_128:\n        /* \"AIAirdrop.sol\":1830:1837  _amount */\n      dup2\n        /* \"AIAirdrop.sol\":1814:1827  amountToClaim */\n      0x03\n        /* \"AIAirdrop.sol\":1814:1837  amountToClaim = _amount */\n      dup2\n      swap1\n      sstore\n      pop\n        /* \"AIAirdrop.sol\":1852:1881  amountToClaimUpdated(_amount) */\n      0xccc2dc361dc3b02936a3d99c4cd064de1bbbb59a03aaad640d302e18f7aacdfb\n        /* \"AIAirdrop.sol\":1873:1880  _amount */\n      dup3\n        /* \"AIAirdrop.sol\":1852:1881  amountToClaimUpdated(_amount) */\n      mload(0x40)\n      tag_130\n      swap2\n      swap1\n      tag_27\n      jump\t// in\n    tag_130:\n      mload(0x40)\n      dup1\n      swap2\n      sub\n      swap1\n      log1\n        /* \"AIAirdrop.sol\":1898:1902  true */\n      0x01\n        /* \"AIAirdrop.sol\":1891:1902  return true */\n      swap1\n      pop\n        /* \"AIAirdrop.sol\":1698:1909  function updateAmountToClaim(uint256 _amount)... */\n      swap2\n      swap1\n      pop\n      jump\t// out\n        /* \"AIAirdrop.sol\":2778:3027  function transferBalance(address payable _to, uint256 _amount)... */\n    tag_56:\n        /* \"_ownable.sol\":1552:1565  _checkOwner() */\n      tag_132\n        /* \"_ownable.sol\":1552:1563  _checkOwner */\n      tag_89\n        /* \"_ownable.sol\":1552:1565  _checkOwner() */\n      jump\t// in\n    tag_132:\n        /* \"AIAirdrop.sol\":2938:2950  bool success */\n      0x00\n        /* \"AIAirdrop.sol\":2956:2959  _to */\n      dup3\n        /* \"AIAirdrop.sol\":2956:2964  _to.call */\n      0xffffffffffffffffffffffffffffffffffffffff\n      and\n        /* \"AIAirdrop.sol\":2972:2979  _amount */\n      dup3\n        /* \"AIAirdrop.sol\":2956:2984  _to.call{value: _amount}(\"\") */\n      mload(0x40)\n      tag_134\n      swap1\n      tag_115\n      jump\t// in\n    tag_134:\n      0x00\n      mload(0x40)\n      dup1\n      dup4\n      sub\n      dup2\n      dup6\n      dup8\n      gas\n      call\n      swap3\n      pop\n      pop\n      pop\n      returndatasize\n      dup1\n      0x00\n      dup2\n      eq\n      tag_137\n      jumpi\n      mload(0x40)\n      swap2\n      pop\n      and(add(returndatasize, 0x3f), not(0x1f))\n      dup3\n      add\n      0x40\n      mstore\n      returndatasize\n      dup3\n      mstore\n      returndatasize\n      0x00\n      0x20\n      dup5\n      add\n      returndatacopy\n      jump(tag_136)\n    tag_137:\n      0x60\n      swap2\n      pop\n    tag_136:\n      pop\n        /* \"AIAirdrop.sol\":2937:2984  (bool success, ) = _to.call{value: _amount}(\"\") */\n      pop\n      swap1\n      pop\n        /* \"AIAirdrop.sol\":3002:3009  success */\n      dup1\n        /* \"AIAirdrop.sol\":2994:3020  require(success, \"Failed\") */\n      tag_138\n      jumpi\n      mload(0x40)\n      0x08c379a000000000000000000000000000000000000000000000000000000000\n      dup2\n      mstore\n      0x04\n      add\n      tag_139\n      swap1\n      tag_121\n      jump\t// in\n    tag_139:\n      mload(0x40)\n      dup1\n      swap2\n      sub\n      swap1\n      revert\n    tag_138:\n        /* \"AIAirdrop.sol\":2878:3027  {... */\n      pop\n        /* \"AIAirdrop.sol\":2778:3027  function transferBalance(address payable _to, uint256 _amount)... */\n      pop\n      pop\n      jump\t// out\n        /* \"_pausable.sol\":1871:1955  function paused() public view virtual returns (bool) {... */\n    tag_58:\n        /* \"_pausable.sol\":1918:1922  bool */\n      0x00\n        /* \"_pausable.sol\":1941:1948  _paused */\n      0x00\n      0x14\n      swap1\n      sload\n      swap1\n      0x0100\n      exp\n      swap1\n      div\n      0xff\n      and\n        /* \"_pausable.sol\":1934:1948  return _paused */\n      swap1\n      pop\n        /* \"_pausable.sol\":1871:1955  function paused() public view virtual returns (bool) {... */\n      swap1\n      jump\t// out\n        /* \"_ownable.sol\":2314:2415  function renounceOwnership() public virtual onlyOwner {... */\n    tag_61:\n        /* \"_ownable.sol\":1552:1565  _checkOwner() */\n      tag_142\n        /* \"_ownable.sol\":1552:1563  _checkOwner */\n      tag_89\n        /* \"_ownable.sol\":1552:1565  _checkOwner() */\n      jump\t// in\n    tag_142:\n        /* \"_ownable.sol\":2378:2408  _transferOwnership(address(0)) */\n      tag_144\n        /* \"_ownable.sol\":2405:2406  0 */\n      0x00\n        /* \"_ownable.sol\":2378:2396  _transferOwnership */\n      tag_145\n        /* \"_ownable.sol\":2378:2408  _transferOwnership(address(0)) */\n      jump\t// in\n    tag_144:\n        /* \"_ownable.sol\":2314:2415  function renounceOwnership() public virtual onlyOwner {... */\n      jump\t// out\n        /* \"AIAirdrop.sol\":3210:3269  function pause() public onlyOwner {... */\n    tag_63:\n        /* \"_ownable.sol\":1552:1565  _checkOwner() */\n      tag_147\n        /* \"_ownable.sol\":1552:1563  _checkOwner */\n      tag_89\n        /* \"_ownable.sol\":1552:1565  _checkOwner() */\n      jump\t// in\n    tag_147:\n        /* \"AIAirdrop.sol\":3254:3262  _pause() */\n      tag_149\n        /* \"AIAirdrop.sol\":3254:3260  _pause */\n      tag_150\n        /* \"AIAirdrop.sol\":3254:3262  _pause() */\n      jump\t// in\n    tag_149:\n        /* \"AIAirdrop.sol\":3210:3269  function pause() public onlyOwner {... */\n      jump\t// out\n        /* \"_ownable.sol\":1659:1744  function owner() public view virtual returns (address) {... */\n    tag_65:\n        /* \"_ownable.sol\":1705:1712  address */\n      0x00\n        /* \"_ownable.sol\":1731:1737  _owner */\n      0x00\n      0x00\n      swap1\n      sload\n      swap1\n      0x0100\n      exp\n      swap1\n      div\n      0xffffffffffffffffffffffffffffffffffffffff\n      and\n        /* \"_ownable.sol\":1724:1737  return _owner */\n      swap1\n      pop\n        /* \"_ownable.sol\":1659:1744  function owner() public view virtual returns (address) {... */\n      swap1\n      jump\t// out\n        /* \"AIAirdrop.sol\":1915:2120  function updateTokenToClaim(address _token)... */\n    tag_69:\n        /* \"AIAirdrop.sol\":2009:2013  bool */\n      0x00\n        /* \"_ownable.sol\":1552:1565  _checkOwner() */\n      tag_153\n        /* \"_ownable.sol\":1552:1563  _checkOwner */\n      tag_89\n        /* \"_ownable.sol\":1552:1565  _checkOwner() */\n      jump\t// in\n    tag_153:\n        /* \"AIAirdrop.sol\":2044:2050  _token */\n      dup2\n        /* \"AIAirdrop.sol\":2029:2041  tokenToClaim */\n      0x02\n      0x00\n        /* \"AIAirdrop.sol\":2029:2050  tokenToClaim = _token */\n      0x0100\n      exp\n      dup2\n      sload\n      dup2\n      0xffffffffffffffffffffffffffffffffffffffff\n      mul\n      not\n      and\n      swap1\n      dup4\n      0xffffffffffffffffffffffffffffffffffffffff\n      and\n      mul\n      or\n      swap1\n      sstore\n      pop\n        /* \"AIAirdrop.sol\":2065:2092  tokenToClaimUpdated(_token) */\n      0xf9563f2ff8321c25ec4ee92f781a8d3ebc72f854daa4bf9177f3886b6ca1f7e1\n        /* \"AIAirdrop.sol\":2085:2091  _token */\n      dup3\n        /* \"AIAirdrop.sol\":2065:2092  tokenToClaimUpdated(_token) */\n      mload(0x40)\n      tag_155\n      swap2\n      swap1\n      tag_47\n      jump\t// in\n    tag_155:\n      mload(0x40)\n      dup1\n      swap2\n      sub\n      swap1\n      log1\n        /* \"AIAirdrop.sol\":2109:2113  true */\n      0x01\n        /* \"AIAirdrop.sol\":2102:2113  return true */\n      swap1\n      pop\n        /* \"AIAirdrop.sol\":1915:2120  function updateTokenToClaim(address _token)... */\n      swap2\n      swap1\n      pop\n      jump\t// out\n        /* \"AIAirdrop.sol\":2161:2416  function withdrawLSP7(... */\n    tag_74:\n        /* \"_ownable.sol\":1552:1565  _checkOwner() */\n      tag_157\n        /* \"_ownable.sol\":1552:1563  _checkOwner */\n      tag_89\n        /* \"_ownable.sol\":1552:1565  _checkOwner() */\n      jump\t// in\n    tag_157:\n        /* \"AIAirdrop.sol\":2345:2355  _LSP7Token */\n      dup5\n        /* \"AIAirdrop.sol\":2339:2365  ILSP7(_LSP7Token).transfer */\n      0xffffffffffffffffffffffffffffffffffffffff\n      and\n      0x760d9bba\n        /* \"AIAirdrop.sol\":2374:2378  this */\n      address\n        /* \"AIAirdrop.sol\":2381:2384  _to */\n      dup7\n        /* \"AIAirdrop.sol\":2386:2393  _amount */\n      dup7\n        /* \"AIAirdrop.sol\":2395:2401  _force */\n      dup7\n        /* \"AIAirdrop.sol\":2403:2408  _data */\n      dup7\n        /* \"AIAirdrop.sol\":2339:2409  ILSP7(_LSP7Token).transfer(address(this), _to, _amount, _force, _data) */\n      mload(0x40)\n      dup7\n      0xffffffff\n      and\n      0xe0\n      shl\n      dup2\n      mstore\n      0x04\n      add\n      tag_159\n      swap6\n      swap5\n      swap4\n      swap3\n      swap2\n      swap1\n      tag_160\n      jump\t// in\n    tag_159:\n      0x00\n      mload(0x40)\n      dup1\n      dup4\n      sub\n      dup2\n      0x00\n      dup8\n      dup1\n      extcodesize\n      iszero\n      dup1\n      iszero\n      tag_161\n      jumpi\n      revert(0x00, 0x00)\n    tag_161:\n      pop\n      gas\n      call\n      iszero\n      dup1\n      iszero\n      tag_163\n      jumpi\n      returndatacopy(0x00, 0x00, returndatasize)\n      revert(0x00, returndatasize)\n    tag_163:\n      pop\n      pop\n      pop\n      pop\n        /* \"AIAirdrop.sol\":2161:2416  function withdrawLSP7(... */\n      pop\n      pop\n      pop\n      pop\n      pop\n      jump\t// out\n        /* \"AIAirdrop.sol\":840:882  mapping(address => uint256) public claimed */\n    tag_77:\n      mstore(0x20, 0x04)\n      dup1\n      0x00\n      mstore\n      keccak256(0x00, 0x40)\n      0x00\n      swap2\n      pop\n      swap1\n      pop\n      sload\n      dup2\n      jump\t// out\n        /* \"_ownable.sol\":2564:2779  function transferOwnership(address newOwner) public virtual onlyOwner {... */\n    tag_81:\n        /* \"_ownable.sol\":1552:1565  _checkOwner() */\n      tag_165\n        /* \"_ownable.sol\":1552:1563  _checkOwner */\n      tag_89\n        /* \"_ownable.sol\":1552:1565  _checkOwner() */\n      jump\t// in\n    tag_165:\n        /* \"_ownable.sol\":2668:2669  0 */\n      0x00\n        /* \"_ownable.sol\":2648:2670  newOwner == address(0) */\n      0xffffffffffffffffffffffffffffffffffffffff\n      and\n        /* \"_ownable.sol\":2648:2656  newOwner */\n      dup2\n        /* \"_ownable.sol\":2648:2670  newOwner == address(0) */\n      0xffffffffffffffffffffffffffffffffffffffff\n      and\n      sub\n        /* \"_ownable.sol\":2644:2735  if (newOwner == address(0)) {... */\n      tag_167\n      jumpi\n        /* \"_ownable.sol\":2721:2722  0 */\n      0x00\n        /* \"_ownable.sol\":2693:2724  OwnableInvalidOwner(address(0)) */\n      mload(0x40)\n      0x1e4fbdf700000000000000000000000000000000000000000000000000000000\n      dup2\n      mstore\n      0x04\n      add\n      tag_168\n      swap2\n      swap1\n      tag_47\n      jump\t// in\n    tag_168:\n      mload(0x40)\n      dup1\n      swap2\n      sub\n      swap1\n      revert\n        /* \"_ownable.sol\":2644:2735  if (newOwner == address(0)) {... */\n    tag_167:\n        /* \"_ownable.sol\":2744:2772  _transferOwnership(newOwner) */\n      tag_169\n        /* \"_ownable.sol\":2763:2771  newOwner */\n      dup2\n        /* \"_ownable.sol\":2744:2762  _transferOwnership */\n      tag_145\n        /* \"_ownable.sol\":2744:2772  _transferOwnership(newOwner) */\n      jump\t// in\n    tag_169:\n        /* \"_ownable.sol\":2564:2779  function transferOwnership(address newOwner) public virtual onlyOwner {... */\n      pop\n      jump\t// out\n        /* \"AIAirdrop.sol\":715:752  Counters.Counter public _claimCounter */\n    tag_83:\n      0x01\n      dup1\n      0x00\n      add\n      sload\n      swap1\n      pop\n      dup2\n      jump\t// out\n        /* \"_ownable.sol\":1817:1979  function _checkOwner() internal view virtual {... */\n    tag_89:\n        /* \"_ownable.sol\":1887:1899  _msgSender() */\n      tag_171\n        /* \"_ownable.sol\":1887:1897  _msgSender */\n      tag_172\n        /* \"_ownable.sol\":1887:1899  _msgSender() */\n      jump\t// in\n    tag_171:\n        /* \"_ownable.sol\":1876:1899  owner() != _msgSender() */\n      0xffffffffffffffffffffffffffffffffffffffff\n      and\n        /* \"_ownable.sol\":1876:1883  owner() */\n      tag_173\n        /* \"_ownable.sol\":1876:1881  owner */\n      tag_65\n        /* \"_ownable.sol\":1876:1883  owner() */\n      jump\t// in\n    tag_173:\n        /* \"_ownable.sol\":1876:1899  owner() != _msgSender() */\n      0xffffffffffffffffffffffffffffffffffffffff\n      and\n      eq\n        /* \"_ownable.sol\":1872:1973  if (owner() != _msgSender()) {... */\n      tag_174\n      jumpi\n        /* \"_ownable.sol\":1949:1961  _msgSender() */\n      tag_175\n        /* \"_ownable.sol\":1949:1959  _msgSender */\n      tag_172\n        /* \"_ownable.sol\":1949:1961  _msgSender() */\n      jump\t// in\n    tag_175:\n        /* \"_ownable.sol\":1922:1962  OwnableUnauthorizedAccount(_msgSender()) */\n      mload(0x40)\n      0x118cdaa700000000000000000000000000000000000000000000000000000000\n      dup2\n      mstore\n      0x04\n      add\n      tag_176\n      swap2\n      swap1\n      tag_47\n      jump\t// in\n    tag_176:\n      mload(0x40)\n      dup1\n      swap2\n      sub\n      swap1\n      revert\n        /* \"_ownable.sol\":1872:1973  if (owner() != _msgSender()) {... */\n    tag_174:\n        /* \"_ownable.sol\":1817:1979  function _checkOwner() internal view virtual {... */\n      jump\t// out\n        /* \"_pausable.sol\":2023:2151  function _requireNotPaused() internal view virtual {... */\n    tag_92:\n        /* \"_pausable.sol\":2088:2096  paused() */\n      tag_178\n        /* \"_pausable.sol\":2088:2094  paused */\n      tag_58\n        /* \"_pausable.sol\":2088:2096  paused() */\n      jump\t// in\n    tag_178:\n        /* \"_pausable.sol\":2084:2145  if (paused()) {... */\n      iszero\n      tag_179\n      jumpi\n        /* \"_pausable.sol\":2119:2134  EnforcedPause() */\n      mload(0x40)\n      0xd93c066500000000000000000000000000000000000000000000000000000000\n      dup2\n      mstore\n      0x04\n      add\n      mload(0x40)\n      dup1\n      swap2\n      sub\n      swap1\n      revert\n        /* \"_pausable.sol\":2084:2145  if (paused()) {... */\n    tag_179:\n        /* \"_pausable.sol\":2023:2151  function _requireNotPaused() internal view virtual {... */\n      jump\t// out\n        /* \"@openzeppelin/contracts/utils/Counters.sol\":970:1097  function increment(Counter storage counter) internal {... */\n    tag_108:\n        /* \"@openzeppelin/contracts/utils/Counters.sol\":1077:1078  1 */\n      0x01\n        /* \"@openzeppelin/contracts/utils/Counters.sol\":1059:1066  counter */\n      dup2\n        /* \"@openzeppelin/contracts/utils/Counters.sol\":1059:1073  counter._value */\n      0x00\n      add\n      0x00\n        /* \"@openzeppelin/contracts/utils/Counters.sol\":1059:1078  counter._value += 1 */\n      dup3\n      dup3\n      sload\n      add\n      swap3\n      pop\n      pop\n      dup2\n      swap1\n      sstore\n      pop\n        /* \"@openzeppelin/contracts/utils/Counters.sol\":970:1097  function increment(Counter storage counter) internal {... */\n      pop\n      jump\t// out\n        /* \"_pausable.sol\":2731:2848  function _unpause() internal virtual whenPaused {... */\n    tag_126:\n        /* \"_pausable.sol\":1742:1758  _requirePaused() */\n      tag_182\n        /* \"_pausable.sol\":1742:1756  _requirePaused */\n      tag_183\n        /* \"_pausable.sol\":1742:1758  _requirePaused() */\n      jump\t// in\n    tag_182:\n        /* \"_pausable.sol\":2799:2804  false */\n      0x00\n        /* \"_pausable.sol\":2789:2796  _paused */\n      0x00\n      0x14\n        /* \"_pausable.sol\":2789:2804  _paused = false */\n      0x0100\n      exp\n      dup2\n      sload\n      dup2\n      0xff\n      mul\n      not\n      and\n      swap1\n      dup4\n      iszero\n      iszero\n      mul\n      or\n      swap1\n      sstore\n      pop\n        /* \"_pausable.sol\":2819:2841  Unpaused(_msgSender()) */\n      0x5db9ee0a495bf2e6ff9c91a7834c1ba4fdd244a5e8aa4e537bd38aeae4b073aa\n        /* \"_pausable.sol\":2828:2840  _msgSender() */\n      tag_185\n        /* \"_pausable.sol\":2828:2838  _msgSender */\n      tag_172\n        /* \"_pausable.sol\":2828:2840  _msgSender() */\n      jump\t// in\n    tag_185:\n        /* \"_pausable.sol\":2819:2841  Unpaused(_msgSender()) */\n      mload(0x40)\n      tag_186\n      swap2\n      swap1\n      tag_47\n      jump\t// in\n    tag_186:\n      mload(0x40)\n      dup1\n      swap2\n      sub\n      swap1\n      log1\n        /* \"_pausable.sol\":2731:2848  function _unpause() internal virtual whenPaused {... */\n      jump\t// out\n        /* \"_ownable.sol\":2933:3120  function _transferOwnership(address newOwner) internal virtual {... */\n    tag_145:\n        /* \"_ownable.sol\":3006:3022  address oldOwner */\n      0x00\n        /* \"_ownable.sol\":3025:3031  _owner */\n      0x00\n      0x00\n      swap1\n      sload\n      swap1\n      0x0100\n      exp\n      swap1\n      div\n      0xffffffffffffffffffffffffffffffffffffffff\n      and\n        /* \"_ownable.sol\":3006:3031  address oldOwner = _owner */\n      swap1\n      pop\n        /* \"_ownable.sol\":3050:3058  newOwner */\n      dup2\n        /* \"_ownable.sol\":3041:3047  _owner */\n      0x00\n      0x00\n        /* \"_ownable.sol\":3041:3058  _owner = newOwner */\n      0x0100\n      exp\n      dup2\n      sload\n      dup2\n      0xffffffffffffffffffffffffffffffffffffffff\n      mul\n      not\n      and\n      swap1\n      dup4\n      0xffffffffffffffffffffffffffffffffffffffff\n      and\n      mul\n      or\n      swap1\n      sstore\n      pop\n        /* \"_ownable.sol\":3104:3112  newOwner */\n      dup2\n        /* \"_ownable.sol\":3073:3113  OwnershipTransferred(oldOwner, newOwner) */\n      0xffffffffffffffffffffffffffffffffffffffff\n      and\n        /* \"_ownable.sol\":3094:3102  oldOwner */\n      dup2\n        /* \"_ownable.sol\":3073:3113  OwnershipTransferred(oldOwner, newOwner) */\n      0xffffffffffffffffffffffffffffffffffffffff\n      and\n      0x8be0079c531659141344cd1fd0a4f28419497f9722a3daafe3b4186f6b6457e0\n      mload(0x40)\n      mload(0x40)\n      dup1\n      swap2\n      sub\n      swap1\n      log3\n        /* \"_ownable.sol\":2996:3120  {... */\n      pop\n        /* \"_ownable.sol\":2933:3120  function _transferOwnership(address newOwner) internal virtual {... */\n      pop\n      jump\t// out\n        /* \"_pausable.sol\":2484:2599  function _pause() internal virtual whenNotPaused {... */\n    tag_150:\n        /* \"_pausable.sol\":1495:1514  _requireNotPaused() */\n      tag_189\n        /* \"_pausable.sol\":1495:1512  _requireNotPaused */\n      tag_92\n        /* \"_pausable.sol\":1495:1514  _requireNotPaused() */\n      jump\t// in\n    tag_189:\n        /* \"_pausable.sol\":2553:2557  true */\n      0x01\n        /* \"_pausable.sol\":2543:2550  _paused */\n      0x00\n      0x14\n        /* \"_pausable.sol\":2543:2557  _paused = true */\n      0x0100\n      exp\n      dup2\n      sload\n      dup2\n      0xff\n      mul\n      not\n      and\n      swap1\n      dup4\n      iszero\n      iszero\n      mul\n      or\n      swap1\n      sstore\n      pop\n        /* \"_pausable.sol\":2572:2592  Paused(_msgSender()) */\n      0x62e78cea01bee320cd4e420270b5ea74000d11b0c9f74754ebdbfc544b05a258\n        /* \"_pausable.sol\":2579:2591  _msgSender() */\n      tag_191\n        /* \"_pausable.sol\":2579:2589  _msgSender */\n      tag_172\n        /* \"_pausable.sol\":2579:2591  _msgSender() */\n      jump\t// in\n    tag_191:\n        /* \"_pausable.sol\":2572:2592  Paused(_msgSender()) */\n      mload(0x40)\n      tag_192\n      swap2\n      swap1\n      tag_47\n      jump\t// in\n    tag_192:\n      mload(0x40)\n      dup1\n      swap2\n      sub\n      swap1\n      log1\n        /* \"_pausable.sol\":2484:2599  function _pause() internal virtual whenNotPaused {... */\n      jump\t// out\n        /* \"@openzeppelin/contracts/utils/Context.sol\":656:752  function _msgSender() internal view virtual returns (address) {... */\n    tag_172:\n        /* \"@openzeppelin/contracts/utils/Context.sol\":709:716  address */\n      0x00\n        /* \"@openzeppelin/contracts/utils/Context.sol\":735:745  msg.sender */\n      caller\n        /* \"@openzeppelin/contracts/utils/Context.sol\":728:745  return msg.sender */\n      swap1\n      pop\n        /* \"@openzeppelin/contracts/utils/Context.sol\":656:752  function _msgSender() internal view virtual returns (address) {... */\n      swap1\n      jump\t// out\n        /* \"_pausable.sol\":2223:2349  function _requirePaused() internal view virtual {... */\n    tag_183:\n        /* \"_pausable.sol\":2286:2294  paused() */\n      tag_195\n        /* \"_pausable.sol\":2286:2292  paused */\n      tag_58\n        /* \"_pausable.sol\":2286:2294  paused() */\n      jump\t// in\n    tag_195:\n        /* \"_pausable.sol\":2281:2343  if (!paused()) {... */\n      tag_196\n      jumpi\n        /* \"_pausable.sol\":2317:2332  ExpectedPause() */\n      mload(0x40)\n      0x8dfc202b00000000000000000000000000000000000000000000000000000000\n      dup2\n      mstore\n      0x04\n      add\n      mload(0x40)\n      dup1\n      swap2\n      sub\n      swap1\n      revert\n        /* \"_pausable.sol\":2281:2343  if (!paused()) {... */\n    tag_196:\n        /* \"_pausable.sol\":2223:2349  function _requirePaused() internal view virtual {... */\n      jump\t// out\n        /* \"#utility.yul\":7:84   */\n    tag_197:\n        /* \"#utility.yul\":44:51   */\n      0x00\n        /* \"#utility.yul\":73:78   */\n      dup2\n        /* \"#utility.yul\":62:78   */\n      swap1\n      pop\n        /* \"#utility.yul\":7:84   */\n      swap2\n      swap1\n      pop\n      jump\t// out\n        /* \"#utility.yul\":90:208   */\n    tag_198:\n        /* \"#utility.yul\":177:201   */\n      tag_241\n        /* \"#utility.yul\":195:200   */\n      dup2\n        /* \"#utility.yul\":177:201   */\n      tag_197\n      jump\t// in\n    tag_241:\n        /* \"#utility.yul\":172:175   */\n      dup3\n        /* \"#utility.yul\":165:202   */\n      mstore\n        /* \"#utility.yul\":90:208   */\n      pop\n      pop\n      jump\t// out\n        /* \"#utility.yul\":214:436   */\n    tag_27:\n        /* \"#utility.yul\":307:311   */\n      0x00\n        /* \"#utility.yul\":345:347   */\n      0x20\n        /* \"#utility.yul\":334:343   */\n      dup3\n        /* \"#utility.yul\":330:348   */\n      add\n        /* \"#utility.yul\":322:348   */\n      swap1\n      pop\n        /* \"#utility.yul\":358:429   */\n      tag_243\n        /* \"#utility.yul\":426:427   */\n      0x00\n        /* \"#utility.yul\":415:424   */\n      dup4\n        /* \"#utility.yul\":411:428   */\n      add\n        /* \"#utility.yul\":402:408   */\n      dup5\n        /* \"#utility.yul\":358:429   */\n      tag_198\n      jump\t// in\n    tag_243:\n        /* \"#utility.yul\":214:436   */\n      swap3\n      swap2\n      pop\n      pop\n      jump\t// out\n        /* \"#utility.yul\":442:517   */\n    tag_199:\n        /* \"#utility.yul\":475:481   */\n      0x00\n        /* \"#utility.yul\":508:510   */\n      0x40\n        /* \"#utility.yul\":502:511   */\n      mload\n        /* \"#utility.yul\":492:511   */\n      swap1\n      pop\n        /* \"#utility.yul\":442:517   */\n      swap1\n      jump\t// out\n        /* \"#utility.yul\":523:640   */\n    tag_200:\n        /* \"#utility.yul\":632:633   */\n      0x00\n        /* \"#utility.yul\":629:630   */\n      0x00\n        /* \"#utility.yul\":622:634   */\n      revert\n        /* \"#utility.yul\":646:763   */\n    tag_201:\n        /* \"#utility.yul\":755:756   */\n      0x00\n        /* \"#utility.yul\":752:753   */\n      0x00\n        /* \"#utility.yul\":745:757   */\n      revert\n        /* \"#utility.yul\":769:895   */\n    tag_202:\n        /* \"#utility.yul\":806:813   */\n      0x00\n        /* \"#utility.yul\":846:888   */\n      0xffffffffffffffffffffffffffffffffffffffff\n        /* \"#utility.yul\":839:844   */\n      dup3\n        /* \"#utility.yul\":835:889   */\n      and\n        /* \"#utility.yul\":824:889   */\n      swap1\n      pop\n        /* \"#utility.yul\":769:895   */\n      swap2\n      swap1\n      pop\n      jump\t// out\n        /* \"#utility.yul\":901:997   */\n    tag_203:\n        /* \"#utility.yul\":938:945   */\n      0x00\n        /* \"#utility.yul\":967:991   */\n      tag_249\n        /* \"#utility.yul\":985:990   */\n      dup3\n        /* \"#utility.yul\":967:991   */\n      tag_202\n      jump\t// in\n    tag_249:\n        /* \"#utility.yul\":956:991   */\n      swap1\n      pop\n        /* \"#utility.yul\":901:997   */\n      swap2\n      swap1\n      pop\n      jump\t// out\n        /* \"#utility.yul\":1003:1125   */\n    tag_204:\n        /* \"#utility.yul\":1076:1100   */\n      tag_251\n        /* \"#utility.yul\":1094:1099   */\n      dup2\n        /* \"#utility.yul\":1076:1100   */\n      tag_203\n      jump\t// in\n    tag_251:\n        /* \"#utility.yul\":1069:1074   */\n      dup2\n        /* \"#utility.yul\":1066:1101   */\n      eq\n        /* \"#utility.yul\":1056:1119   */\n      tag_252\n      jumpi\n        /* \"#utility.yul\":1115:1116   */\n      0x00\n        /* \"#utility.yul\":1112:1113   */\n      0x00\n        /* \"#utility.yul\":1105:1117   */\n      revert\n        /* \"#utility.yul\":1056:1119   */\n    tag_252:\n        /* \"#utility.yul\":1003:1125   */\n      pop\n      jump\t// out\n        /* \"#utility.yul\":1131:1270   */\n    tag_205:\n        /* \"#utility.yul\":1177:1182   */\n      0x00\n        /* \"#utility.yul\":1215:1221   */\n      dup2\n        /* \"#utility.yul\":1202:1222   */\n      calldataload\n        /* \"#utility.yul\":1193:1222   */\n      swap1\n      pop\n        /* \"#utility.yul\":1231:1264   */\n      tag_254\n        /* \"#utility.yul\":1258:1263   */\n      dup2\n        /* \"#utility.yul\":1231:1264   */\n      tag_204\n      jump\t// in\n    tag_254:\n        /* \"#utility.yul\":1131:1270   */\n      swap3\n      swap2\n      pop\n      pop\n      jump\t// out\n        /* \"#utility.yul\":1276:1605   */\n    tag_33:\n        /* \"#utility.yul\":1335:1341   */\n      0x00\n        /* \"#utility.yul\":1384:1386   */\n      0x20\n        /* \"#utility.yul\":1372:1381   */\n      dup3\n        /* \"#utility.yul\":1363:1370   */\n      dup5\n        /* \"#utility.yul\":1359:1382   */\n      sub\n        /* \"#utility.yul\":1355:1387   */\n      slt\n        /* \"#utility.yul\":1352:1471   */\n      iszero\n      tag_256\n      jumpi\n        /* \"#utility.yul\":1390:1469   */\n      tag_257\n      tag_200\n      jump\t// in\n    tag_257:\n        /* \"#utility.yul\":1352:1471   */\n    tag_256:\n        /* \"#utility.yul\":1510:1511   */\n      0x00\n        /* \"#utility.yul\":1535:1588   */\n      tag_258\n        /* \"#utility.yul\":1580:1587   */\n      dup5\n        /* \"#utility.yul\":1571:1577   */\n      dup3\n        /* \"#utility.yul\":1560:1569   */\n      dup6\n        /* \"#utility.yul\":1556:1578   */\n      add\n        /* \"#utility.yul\":1535:1588   */\n      tag_205\n      jump\t// in\n    tag_258:\n        /* \"#utility.yul\":1525:1588   */\n      swap2\n      pop\n        /* \"#utility.yul\":1481:1598   */\n      pop\n        /* \"#utility.yul\":1276:1605   */\n      swap3\n      swap2\n      pop\n      pop\n      jump\t// out\n        /* \"#utility.yul\":1611:1701   */\n    tag_206:\n        /* \"#utility.yul\":1645:1652   */\n      0x00\n        /* \"#utility.yul\":1688:1693   */\n      dup2\n        /* \"#utility.yul\":1681:1694   */\n      iszero\n        /* \"#utility.yul\":1674:1695   */\n      iszero\n        /* \"#utility.yul\":1663:1695   */\n      swap1\n      pop\n        /* \"#utility.yul\":1611:1701   */\n      swap2\n      swap1\n      pop\n      jump\t// out\n        /* \"#utility.yul\":1707:1816   */\n    tag_207:\n        /* \"#utility.yul\":1788:1809   */\n      tag_261\n        /* \"#utility.yul\":1803:1808   */\n      dup2\n        /* \"#utility.yul\":1788:1809   */\n      tag_206\n      jump\t// in\n    tag_261:\n        /* \"#utility.yul\":1783:1786   */\n      dup3\n        /* \"#utility.yul\":1776:1810   */\n      mstore\n        /* \"#utility.yul\":1707:1816   */\n      pop\n      pop\n      jump\t// out\n        /* \"#utility.yul\":1822:2032   */\n    tag_36:\n        /* \"#utility.yul\":1909:1913   */\n      0x00\n        /* \"#utility.yul\":1947:1949   */\n      0x20\n        /* \"#utility.yul\":1936:1945   */\n      dup3\n        /* \"#utility.yul\":1932:1950   */\n      add\n        /* \"#utility.yul\":1924:1950   */\n      swap1\n      pop\n        /* \"#utility.yul\":1960:2025   */\n      tag_263\n        /* \"#utility.yul\":2022:2023   */\n      0x00\n        /* \"#utility.yul\":2011:2020   */\n      dup4\n        /* \"#utility.yul\":2007:2024   */\n      add\n        /* \"#utility.yul\":1998:2004   */\n      dup5\n        /* \"#utility.yul\":1960:2025   */\n      tag_207\n      jump\t// in\n    tag_263:\n        /* \"#utility.yul\":1822:2032   */\n      swap3\n      swap2\n      pop\n      pop\n      jump\t// out\n        /* \"#utility.yul\":2038:2156   */\n    tag_208:\n        /* \"#utility.yul\":2125:2149   */\n      tag_265\n        /* \"#utility.yul\":2143:2148   */\n      dup2\n        /* \"#utility.yul\":2125:2149   */\n      tag_203\n      jump\t// in\n    tag_265:\n        /* \"#utility.yul\":2120:2123   */\n      dup3\n        /* \"#utility.yul\":2113:2150   */\n      mstore\n        /* \"#utility.yul\":2038:2156   */\n      pop\n      pop\n      jump\t// out\n        /* \"#utility.yul\":2162:2384   */\n    tag_47:\n        /* \"#utility.yul\":2255:2259   */\n      0x00\n        /* \"#utility.yul\":2293:2295   */\n      0x20\n        /* \"#utility.yul\":2282:2291   */\n      dup3\n        /* \"#utility.yul\":2278:2296   */\n      add\n        /* \"#utility.yul\":2270:2296   */\n      swap1\n      pop\n        /* \"#utility.yul\":2306:2377   */\n      tag_267\n        /* \"#utility.yul\":2374:2375   */\n      0x00\n        /* \"#utility.yul\":2363:2372   */\n      dup4\n        /* \"#utility.yul\":2359:2376   */\n      add\n        /* \"#utility.yul\":2350:2356   */\n      dup5\n        /* \"#utility.yul\":2306:2377   */\n      tag_208\n      jump\t// in\n    tag_267:\n        /* \"#utility.yul\":2162:2384   */\n      swap3\n      swap2\n      pop\n      pop\n      jump\t// out\n        /* \"#utility.yul\":2390:2512   */\n    tag_209:\n        /* \"#utility.yul\":2463:2487   */\n      tag_269\n        /* \"#utility.yul\":2481:2486   */\n      dup2\n        /* \"#utility.yul\":2463:2487   */\n      tag_197\n      jump\t// in\n    tag_269:\n        /* \"#utility.yul\":2456:2461   */\n      dup2\n        /* \"#utility.yul\":2453:2488   */\n      eq\n        /* \"#utility.yul\":2443:2506   */\n      tag_270\n      jumpi\n        /* \"#utility.yul\":2502:2503   */\n      0x00\n        /* \"#utility.yul\":2499:2500   */\n      0x00\n        /* \"#utility.yul\":2492:2504   */\n      revert\n        /* \"#utility.yul\":2443:2506   */\n    tag_270:\n        /* \"#utility.yul\":2390:2512   */\n      pop\n      jump\t// out\n        /* \"#utility.yul\":2518:2657   */\n    tag_210:\n        /* \"#utility.yul\":2564:2569   */\n      0x00\n        /* \"#utility.yul\":2602:2608   */\n      dup2\n        /* \"#utility.yul\":2589:2609   */\n      calldataload\n        /* \"#utility.yul\":2580:2609   */\n      swap1\n      pop\n        /* \"#utility.yul\":2618:2651   */\n      tag_272\n        /* \"#utility.yul\":2645:2650   */\n      dup2\n        /* \"#utility.yul\":2618:2651   */\n      tag_209\n      jump\t// in\n    tag_272:\n        /* \"#utility.yul\":2518:2657   */\n      swap3\n      swap2\n      pop\n      pop\n      jump\t// out\n        /* \"#utility.yul\":2663:2992   */\n    tag_50:\n        /* \"#utility.yul\":2722:2728   */\n      0x00\n        /* \"#utility.yul\":2771:2773   */\n      0x20\n        /* \"#utility.yul\":2759:2768   */\n      dup3\n        /* \"#utility.yul\":2750:2757   */\n      dup5\n        /* \"#utility.yul\":2746:2769   */\n      sub\n        /* \"#utility.yul\":2742:2774   */\n      slt\n        /* \"#utility.yul\":2739:2858   */\n      iszero\n      tag_274\n      jumpi\n        /* \"#utility.yul\":2777:2856   */\n      tag_275\n      tag_200\n      jump\t// in\n    tag_275:\n        /* \"#utility.yul\":2739:2858   */\n    tag_274:\n        /* \"#utility.yul\":2897:2898   */\n      0x00\n        /* \"#utility.yul\":2922:2975   */\n      tag_276\n        /* \"#utility.yul\":2967:2974   */\n      dup5\n        /* \"#utility.yul\":2958:2964   */\n      dup3\n        /* \"#utility.yul\":2947:2956   */\n      dup6\n        /* \"#utility.yul\":2943:2965   */\n      add\n        /* \"#utility.yul\":2922:2975   */\n      tag_210\n      jump\t// in\n    tag_276:\n        /* \"#utility.yul\":2912:2975   */\n      swap2\n      pop\n        /* \"#utility.yul\":2868:2985   */\n      pop\n        /* \"#utility.yul\":2663:2992   */\n      swap3\n      swap2\n      pop\n      pop\n      jump\t// out\n        /* \"#utility.yul\":2998:3102   */\n    tag_211:\n        /* \"#utility.yul\":3043:3050   */\n      0x00\n        /* \"#utility.yul\":3072:3096   */\n      tag_278\n        /* \"#utility.yul\":3090:3095   */\n      dup3\n        /* \"#utility.yul\":3072:3096   */\n      tag_202\n      jump\t// in\n    tag_278:\n        /* \"#utility.yul\":3061:3096   */\n      swap1\n      pop\n        /* \"#utility.yul\":2998:3102   */\n      swap2\n      swap1\n      pop\n      jump\t// out\n        /* \"#utility.yul\":3108:3246   */\n    tag_212:\n        /* \"#utility.yul\":3189:3221   */\n      tag_280\n        /* \"#utility.yul\":3215:3220   */\n      dup2\n        /* \"#utility.yul\":3189:3221   */\n      tag_211\n      jump\t// in\n    tag_280:\n        /* \"#utility.yul\":3182:3187   */\n      dup2\n        /* \"#utility.yul\":3179:3222   */\n      eq\n        /* \"#utility.yul\":3169:3240   */\n      tag_281\n      jumpi\n        /* \"#utility.yul\":3236:3237   */\n      0x00\n        /* \"#utility.yul\":3233:3234   */\n      0x00\n        /* \"#utility.yul\":3226:3238   */\n      revert\n        /* \"#utility.yul\":3169:3240   */\n    tag_281:\n        /* \"#utility.yul\":3108:3246   */\n      pop\n      jump\t// out\n        /* \"#utility.yul\":3252:3407   */\n    tag_213:\n        /* \"#utility.yul\":3306:3311   */\n      0x00\n        /* \"#utility.yul\":3344:3350   */\n      dup2\n        /* \"#utility.yul\":3331:3351   */\n      calldataload\n        /* \"#utility.yul\":3322:3351   */\n      swap1\n      pop\n        /* \"#utility.yul\":3360:3401   */\n      tag_283\n        /* \"#utility.yul\":3395:3400   */\n      dup2\n        /* \"#utility.yul\":3360:3401   */\n      tag_212\n      jump\t// in\n    tag_283:\n        /* \"#utility.yul\":3252:3407   */\n      swap3\n      swap2\n      pop\n      pop\n      jump\t// out\n        /* \"#utility.yul\":3413:3903   */\n    tag_55:\n        /* \"#utility.yul\":3489:3495   */\n      0x00\n        /* \"#utility.yul\":3497:3503   */\n      0x00\n        /* \"#utility.yul\":3546:3548   */\n      0x40\n        /* \"#utility.yul\":3534:3543   */\n      dup4\n        /* \"#utility.yul\":3525:3532   */\n      dup6\n        /* \"#utility.yul\":3521:3544   */\n      sub\n        /* \"#utility.yul\":3517:3549   */\n      slt\n        /* \"#utility.yul\":3514:3633   */\n      iszero\n      tag_285\n      jumpi\n        /* \"#utility.yul\":3552:3631   */\n      tag_286\n      tag_200\n      jump\t// in\n    tag_286:\n        /* \"#utility.yul\":3514:3633   */\n    tag_285:\n        /* \"#utility.yul\":3672:3673   */\n      0x00\n        /* \"#utility.yul\":3697:3758   */\n      tag_287\n        /* \"#utility.yul\":3750:3757   */\n      dup6\n        /* \"#utility.yul\":3741:3747   */\n      dup3\n        /* \"#utility.yul\":3730:3739   */\n      dup7\n        /* \"#utility.yul\":3726:3748   */\n      add\n        /* \"#utility.yul\":3697:3758   */\n      tag_213\n      jump\t// in\n    tag_287:\n        /* \"#utility.yul\":3687:3758   */\n      swap3\n      pop\n        /* \"#utility.yul\":3643:3768   */\n      pop\n        /* \"#utility.yul\":3807:3809   */\n      0x20\n        /* \"#utility.yul\":3833:3886   */\n      tag_288\n        /* \"#utility.yul\":3878:3885   */\n      dup6\n        /* \"#utility.yul\":3869:3875   */\n      dup3\n        /* \"#utility.yul\":3858:3867   */\n      dup7\n        /* \"#utility.yul\":3854:3876   */\n      add\n        /* \"#utility.yul\":3833:3886   */\n      tag_210\n      jump\t// in\n    tag_288:\n        /* \"#utility.yul\":3823:3886   */\n      swap2\n      pop\n        /* \"#utility.yul\":3778:3896   */\n      pop\n        /* \"#utility.yul\":3413:3903   */\n      swap3\n      pop\n      swap3\n      swap1\n      pop\n      jump\t// out\n        /* \"#utility.yul\":3909:4025   */\n    tag_214:\n        /* \"#utility.yul\":3979:4000   */\n      tag_290\n        /* \"#utility.yul\":3994:3999   */\n      dup2\n        /* \"#utility.yul\":3979:4000   */\n      tag_206\n      jump\t// in\n    tag_290:\n        /* \"#utility.yul\":3972:3977   */\n      dup2\n        /* \"#utility.yul\":3969:4001   */\n      eq\n        /* \"#utility.yul\":3959:4019   */\n      tag_291\n      jumpi\n        /* \"#utility.yul\":4015:4016   */\n      0x00\n        /* \"#utility.yul\":4012:4013   */\n      0x00\n        /* \"#utility.yul\":4005:4017   */\n      revert\n        /* \"#utility.yul\":3959:4019   */\n    tag_291:\n        /* \"#utility.yul\":3909:4025   */\n      pop\n      jump\t// out\n        /* \"#utility.yul\":4031:4164   */\n    tag_215:\n        /* \"#utility.yul\":4074:4079   */\n      0x00\n        /* \"#utility.yul\":4112:4118   */\n      dup2\n        /* \"#utility.yul\":4099:4119   */\n      calldataload\n        /* \"#utility.yul\":4090:4119   */\n      swap1\n      pop\n        /* \"#utility.yul\":4128:4158   */\n      tag_293\n        /* \"#utility.yul\":4152:4157   */\n      dup2\n        /* \"#utility.yul\":4128:4158   */\n      tag_214\n      jump\t// in\n    tag_293:\n        /* \"#utility.yul\":4031:4164   */\n      swap3\n      swap2\n      pop\n      pop\n      jump\t// out\n        /* \"#utility.yul\":4170:4287   */\n    tag_216:\n        /* \"#utility.yul\":4279:4280   */\n      0x00\n        /* \"#utility.yul\":4276:4277   */\n      0x00\n        /* \"#utility.yul\":4269:4281   */\n      revert\n        /* \"#utility.yul\":4293:4410   */\n    tag_217:\n        /* \"#utility.yul\":4402:4403   */\n      0x00\n        /* \"#utility.yul\":4399:4400   */\n      0x00\n        /* \"#utility.yul\":4392:4404   */\n      revert\n        /* \"#utility.yul\":4416:4518   */\n    tag_218:\n        /* \"#utility.yul\":4457:4463   */\n      0x00\n        /* \"#utility.yul\":4508:4510   */\n      0x1f\n        /* \"#utility.yul\":4504:4511   */\n      not\n        /* \"#utility.yul\":4499:4501   */\n      0x1f\n        /* \"#utility.yul\":4492:4497   */\n      dup4\n        /* \"#utility.yul\":4488:4502   */\n      add\n        /* \"#utility.yul\":4484:4512   */\n      and\n        /* \"#utility.yul\":4474:4512   */\n      swap1\n      pop\n        /* \"#utility.yul\":4416:4518   */\n      swap2\n      swap1\n      pop\n      jump\t// out\n        /* \"#utility.yul\":4524:4704   */\n    tag_219:\n        /* \"#utility.yul\":4572:4649   */\n      0x4e487b7100000000000000000000000000000000000000000000000000000000\n        /* \"#utility.yul\":4569:4570   */\n      0x00\n        /* \"#utility.yul\":4562:4650   */\n      mstore\n        /* \"#utility.yul\":4669:4673   */\n      0x41\n        /* \"#utility.yul\":4666:4667   */\n      0x04\n        /* \"#utility.yul\":4659:4674   */\n      mstore\n        /* \"#utility.yul\":4693:4697   */\n      0x24\n        /* \"#utility.yul\":4690:4691   */\n      0x00\n        /* \"#utility.yul\":4683:4698   */\n      revert\n        /* \"#utility.yul\":4710:4991   */\n    tag_220:\n        /* \"#utility.yul\":4793:4820   */\n      tag_299\n        /* \"#utility.yul\":4815:4819   */\n      dup3\n        /* \"#utility.yul\":4793:4820   */\n      tag_218\n      jump\t// in\n    tag_299:\n        /* \"#utility.yul\":4785:4791   */\n      dup2\n        /* \"#utility.yul\":4781:4821   */\n      add\n        /* \"#utility.yul\":4923:4929   */\n      dup2\n        /* \"#utility.yul\":4911:4921   */\n      dup2\n        /* \"#utility.yul\":4908:4930   */\n      lt\n        /* \"#utility.yul\":4887:4905   */\n      0xffffffffffffffff\n        /* \"#utility.yul\":4875:4885   */\n      dup3\n        /* \"#utility.yul\":4872:4906   */\n      gt\n        /* \"#utility.yul\":4869:4931   */\n      or\n        /* \"#utility.yul\":4866:4954   */\n      iszero\n      tag_300\n      jumpi\n        /* \"#utility.yul\":4934:4952   */\n      tag_301\n      tag_219\n      jump\t// in\n    tag_301:\n        /* \"#utility.yul\":4866:4954   */\n    tag_300:\n        /* \"#utility.yul\":4974:4984   */\n      dup1\n        /* \"#utility.yul\":4970:4972   */\n      0x40\n        /* \"#utility.yul\":4963:4985   */\n      mstore\n        /* \"#utility.yul\":4753:4991   */\n      pop\n        /* \"#utility.yul\":4710:4991   */\n      pop\n      pop\n      jump\t// out\n        /* \"#utility.yul\":4997:5126   */\n    tag_221:\n        /* \"#utility.yul\":5031:5037   */\n      0x00\n        /* \"#utility.yul\":5058:5078   */\n      tag_303\n      tag_199\n      jump\t// in\n    tag_303:\n        /* \"#utility.yul\":5048:5078   */\n      swap1\n      pop\n        /* \"#utility.yul\":5087:5120   */\n      tag_304\n        /* \"#utility.yul\":5115:5119   */\n      dup3\n        /* \"#utility.yul\":5107:5113   */\n      dup3\n        /* \"#utility.yul\":5087:5120   */\n      tag_220\n      jump\t// in\n    tag_304:\n        /* \"#utility.yul\":4997:5126   */\n      swap2\n      swap1\n      pop\n      jump\t// out\n        /* \"#utility.yul\":5132:5439   */\n    tag_222:\n        /* \"#utility.yul\":5193:5197   */\n      0x00\n        /* \"#utility.yul\":5283:5301   */\n      0xffffffffffffffff\n        /* \"#utility.yul\":5275:5281   */\n      dup3\n        /* \"#utility.yul\":5272:5302   */\n      gt\n        /* \"#utility.yul\":5269:5325   */\n      iszero\n      tag_306\n      jumpi\n        /* \"#utility.yul\":5305:5323   */\n      tag_307\n      tag_219\n      jump\t// in\n    tag_307:\n        /* \"#utility.yul\":5269:5325   */\n    tag_306:\n        /* \"#utility.yul\":5343:5372   */\n      tag_308\n        /* \"#utility.yul\":5365:5371   */\n      dup3\n        /* \"#utility.yul\":5343:5372   */\n      tag_218\n      jump\t// in\n    tag_308:\n        /* \"#utility.yul\":5335:5372   */\n      swap1\n      pop\n        /* \"#utility.yul\":5427:5431   */\n      0x20\n        /* \"#utility.yul\":5421:5425   */\n      dup2\n        /* \"#utility.yul\":5417:5432   */\n      add\n        /* \"#utility.yul\":5409:5432   */\n      swap1\n      pop\n        /* \"#utility.yul\":5132:5439   */\n      swap2\n      swap1\n      pop\n      jump\t// out\n        /* \"#utility.yul\":5445:5593   */\n    tag_223:\n        /* \"#utility.yul\":5543:5549   */\n      dup3\n        /* \"#utility.yul\":5538:5541   */\n      dup2\n        /* \"#utility.yul\":5533:5536   */\n      dup4\n        /* \"#utility.yul\":5520:5550   */\n      calldatacopy\n        /* \"#utility.yul\":5584:5585   */\n      0x00\n        /* \"#utility.yul\":5575:5581   */\n      dup4\n        /* \"#utility.yul\":5570:5573   */\n      dup4\n        /* \"#utility.yul\":5566:5582   */\n      add\n        /* \"#utility.yul\":5559:5586   */\n      mstore\n        /* \"#utility.yul\":5445:5593   */\n      pop\n      pop\n      pop\n      jump\t// out\n        /* \"#utility.yul\":5599:6022   */\n    tag_224:\n        /* \"#utility.yul\":5676:5681   */\n      0x00\n        /* \"#utility.yul\":5701:5766   */\n      tag_311\n        /* \"#utility.yul\":5717:5765   */\n      tag_312\n        /* \"#utility.yul\":5758:5764   */\n      dup5\n        /* \"#utility.yul\":5717:5765   */\n      tag_222\n      jump\t// in\n    tag_312:\n        /* \"#utility.yul\":5701:5766   */\n      tag_221\n      jump\t// in\n    tag_311:\n        /* \"#utility.yul\":5692:5766   */\n      swap1\n      pop\n        /* \"#utility.yul\":5789:5795   */\n      dup3\n        /* \"#utility.yul\":5782:5787   */\n      dup2\n        /* \"#utility.yul\":5775:5796   */\n      mstore\n        /* \"#utility.yul\":5827:5831   */\n      0x20\n        /* \"#utility.yul\":5820:5825   */\n      dup2\n        /* \"#utility.yul\":5816:5832   */\n      add\n        /* \"#utility.yul\":5865:5868   */\n      dup5\n        /* \"#utility.yul\":5856:5862   */\n      dup5\n        /* \"#utility.yul\":5851:5854   */\n      dup5\n        /* \"#utility.yul\":5847:5863   */\n      add\n        /* \"#utility.yul\":5844:5869   */\n      gt\n        /* \"#utility.yul\":5841:5953   */\n      iszero\n      tag_313\n      jumpi\n        /* \"#utility.yul\":5872:5951   */\n      tag_314\n      tag_217\n      jump\t// in\n    tag_314:\n        /* \"#utility.yul\":5841:5953   */\n    tag_313:\n        /* \"#utility.yul\":5962:6016   */\n      tag_315\n        /* \"#utility.yul\":6009:6015   */\n      dup5\n        /* \"#utility.yul\":6004:6007   */\n      dup3\n        /* \"#utility.yul\":5999:6002   */\n      dup6\n        /* \"#utility.yul\":5962:6016   */\n      tag_223\n      jump\t// in\n    tag_315:\n        /* \"#utility.yul\":5682:6022   */\n      pop\n        /* \"#utility.yul\":5599:6022   */\n      swap4\n      swap3\n      pop\n      pop\n      pop\n      jump\t// out\n        /* \"#utility.yul\":6041:6379   */\n    tag_225:\n        /* \"#utility.yul\":6096:6101   */\n      0x00\n        /* \"#utility.yul\":6145:6148   */\n      dup3\n        /* \"#utility.yul\":6138:6142   */\n      0x1f\n        /* \"#utility.yul\":6130:6136   */\n      dup4\n        /* \"#utility.yul\":6126:6143   */\n      add\n        /* \"#utility.yul\":6122:6149   */\n      slt\n        /* \"#utility.yul\":6112:6234   */\n      tag_317\n      jumpi\n        /* \"#utility.yul\":6153:6232   */\n      tag_318\n      tag_216\n      jump\t// in\n    tag_318:\n        /* \"#utility.yul\":6112:6234   */\n    tag_317:\n        /* \"#utility.yul\":6270:6276   */\n      dup2\n        /* \"#utility.yul\":6257:6277   */\n      calldataload\n        /* \"#utility.yul\":6295:6373   */\n      tag_319\n        /* \"#utility.yul\":6369:6372   */\n      dup5\n        /* \"#utility.yul\":6361:6367   */\n      dup3\n        /* \"#utility.yul\":6354:6358   */\n      0x20\n        /* \"#utility.yul\":6346:6352   */\n      dup7\n        /* \"#utility.yul\":6342:6359   */\n      add\n        /* \"#utility.yul\":6295:6373   */\n      tag_224\n      jump\t// in\n    tag_319:\n        /* \"#utility.yul\":6286:6373   */\n      swap2\n      pop\n        /* \"#utility.yul\":6102:6379   */\n      pop\n        /* \"#utility.yul\":6041:6379   */\n      swap3\n      swap2\n      pop\n      pop\n      jump\t// out\n        /* \"#utility.yul\":6385:7468   */\n    tag_73:\n        /* \"#utility.yul\":6486:6492   */\n      0x00\n        /* \"#utility.yul\":6494:6500   */\n      0x00\n        /* \"#utility.yul\":6502:6508   */\n      0x00\n        /* \"#utility.yul\":6510:6516   */\n      0x00\n        /* \"#utility.yul\":6518:6524   */\n      0x00\n        /* \"#utility.yul\":6567:6570   */\n      0xa0\n        /* \"#utility.yul\":6555:6564   */\n      dup7\n        /* \"#utility.yul\":6546:6553   */\n      dup9\n        /* \"#utility.yul\":6542:6565   */\n      sub\n        /* \"#utility.yul\":6538:6571   */\n      slt\n        /* \"#utility.yul\":6535:6655   */\n      iszero\n      tag_321\n      jumpi\n        /* \"#utility.yul\":6574:6653   */\n      tag_322\n      tag_200\n      jump\t// in\n    tag_322:\n        /* \"#utility.yul\":6535:6655   */\n    tag_321:\n        /* \"#utility.yul\":6694:6695   */\n      0x00\n        /* \"#utility.yul\":6719:6772   */\n      tag_323\n        /* \"#utility.yul\":6764:6771   */\n      dup9\n        /* \"#utility.yul\":6755:6761   */\n      dup3\n        /* \"#utility.yul\":6744:6753   */\n      dup10\n        /* \"#utility.yul\":6740:6762   */\n      add\n        /* \"#utility.yul\":6719:6772   */\n      tag_205\n      jump\t// in\n    tag_323:\n        /* \"#utility.yul\":6709:6772   */\n      swap6\n      pop\n        /* \"#utility.yul\":6665:6782   */\n      pop\n        /* \"#utility.yul\":6821:6823   */\n      0x20\n        /* \"#utility.yul\":6847:6900   */\n      tag_324\n        /* \"#utility.yul\":6892:6899   */\n      dup9\n        /* \"#utility.yul\":6883:6889   */\n      dup3\n        /* \"#utility.yul\":6872:6881   */\n      dup10\n        /* \"#utility.yul\":6868:6890   */\n      add\n        /* \"#utility.yul\":6847:6900   */\n      tag_205\n      jump\t// in\n    tag_324:\n        /* \"#utility.yul\":6837:6900   */\n      swap5\n      pop\n        /* \"#utility.yul\":6792:6910   */\n      pop\n        /* \"#utility.yul\":6949:6951   */\n      0x40\n        /* \"#utility.yul\":6975:7028   */\n      tag_325\n        /* \"#utility.yul\":7020:7027   */\n      dup9\n        /* \"#utility.yul\":7011:7017   */\n      dup3\n        /* \"#utility.yul\":7000:7009   */\n      dup10\n        /* \"#utility.yul\":6996:7018   */\n      add\n        /* \"#utility.yul\":6975:7028   */\n      tag_210\n      jump\t// in\n    tag_325:\n        /* \"#utility.yul\":6965:7028   */\n      swap4\n      pop\n        /* \"#utility.yul\":6920:7038   */\n      pop\n        /* \"#utility.yul\":7077:7079   */\n      0x60\n        /* \"#utility.yul\":7103:7153   */\n      tag_326\n        /* \"#utility.yul\":7145:7152   */\n      dup9\n        /* \"#utility.yul\":7136:7142   */\n      dup3\n        /* \"#utility.yul\":7125:7134   */\n      dup10\n        /* \"#utility.yul\":7121:7143   */\n      add\n        /* \"#utility.yul\":7103:7153   */\n      tag_215\n      jump\t// in\n    tag_326:\n        /* \"#utility.yul\":7093:7153   */\n      swap3\n      pop\n        /* \"#utility.yul\":7048:7163   */\n      pop\n        /* \"#utility.yul\":7230:7233   */\n      0x80\n        /* \"#utility.yul\":7219:7228   */\n      dup7\n        /* \"#utility.yul\":7215:7234   */\n      add\n        /* \"#utility.yul\":7202:7235   */\n      calldataload\n        /* \"#utility.yul\":7262:7280   */\n      0xffffffffffffffff\n        /* \"#utility.yul\":7254:7260   */\n      dup2\n        /* \"#utility.yul\":7251:7281   */\n      gt\n        /* \"#utility.yul\":7248:7365   */\n      iszero\n      tag_327\n      jumpi\n        /* \"#utility.yul\":7284:7363   */\n      tag_328\n      tag_201\n      jump\t// in\n    tag_328:\n        /* \"#utility.yul\":7248:7365   */\n    tag_327:\n        /* \"#utility.yul\":7389:7451   */\n      tag_329\n        /* \"#utility.yul\":7443:7450   */\n      dup9\n        /* \"#utility.yul\":7434:7440   */\n      dup3\n        /* \"#utility.yul\":7423:7432   */\n      dup10\n        /* \"#utility.yul\":7419:7441   */\n      add\n        /* \"#utility.yul\":7389:7451   */\n      tag_225\n      jump\t// in\n    tag_329:\n        /* \"#utility.yul\":7379:7451   */\n      swap2\n      pop\n        /* \"#utility.yul\":7173:7461   */\n      pop\n        /* \"#utility.yul\":6385:7468   */\n      swap3\n      swap6\n      pop\n      swap3\n      swap6\n      swap1\n      swap4\n      pop\n      jump\t// out\n        /* \"#utility.yul\":7474:7617   */\n    tag_226:\n        /* \"#utility.yul\":7531:7536   */\n      0x00\n        /* \"#utility.yul\":7562:7568   */\n      dup2\n        /* \"#utility.yul\":7556:7569   */\n      mload\n        /* \"#utility.yul\":7547:7569   */\n      swap1\n      pop\n        /* \"#utility.yul\":7578:7611   */\n      tag_331\n        /* \"#utility.yul\":7605:7610   */\n      dup2\n        /* \"#utility.yul\":7578:7611   */\n      tag_209\n      jump\t// in\n    tag_331:\n        /* \"#utility.yul\":7474:7617   */\n      swap3\n      swap2\n      pop\n      pop\n      jump\t// out\n        /* \"#utility.yul\":7623:7974   */\n    tag_99:\n        /* \"#utility.yul\":7693:7699   */\n      0x00\n        /* \"#utility.yul\":7742:7744   */\n      0x20\n        /* \"#utility.yul\":7730:7739   */\n      dup3\n        /* \"#utility.yul\":7721:7728   */\n      dup5\n        /* \"#utility.yul\":7717:7740   */\n      sub\n        /* \"#utility.yul\":7713:7745   */\n      slt\n        /* \"#utility.yul\":7710:7829   */\n      iszero\n      tag_333\n      jumpi\n        /* \"#utility.yul\":7748:7827   */\n      tag_334\n      tag_200\n      jump\t// in\n    tag_334:\n        /* \"#utility.yul\":7710:7829   */\n    tag_333:\n        /* \"#utility.yul\":7868:7869   */\n      0x00\n        /* \"#utility.yul\":7893:7957   */\n      tag_335\n        /* \"#utility.yul\":7949:7956   */\n      dup5\n        /* \"#utility.yul\":7940:7946   */\n      dup3\n        /* \"#utility.yul\":7929:7938   */\n      dup6\n        /* \"#utility.yul\":7925:7947   */\n      add\n        /* \"#utility.yul\":7893:7957   */\n      tag_226\n      jump\t// in\n    tag_335:\n        /* \"#utility.yul\":7883:7957   */\n      swap2\n      pop\n        /* \"#utility.yul\":7839:7967   */\n      pop\n        /* \"#utility.yul\":7623:7974   */\n      swap3\n      swap2\n      pop\n      pop\n      jump\t// out\n        /* \"#utility.yul\":7980:8312   */\n    tag_101:\n        /* \"#utility.yul\":8101:8105   */\n      0x00\n        /* \"#utility.yul\":8139:8141   */\n      0x40\n        /* \"#utility.yul\":8128:8137   */\n      dup3\n        /* \"#utility.yul\":8124:8142   */\n      add\n        /* \"#utility.yul\":8116:8142   */\n      swap1\n      pop\n        /* \"#utility.yul\":8152:8223   */\n      tag_337\n        /* \"#utility.yul\":8220:8221   */\n      0x00\n        /* \"#utility.yul\":8209:8218   */\n      dup4\n        /* \"#utility.yul\":8205:8222   */\n      add\n        /* \"#utility.yul\":8196:8202   */\n      dup6\n        /* \"#utility.yul\":8152:8223   */\n      tag_198\n      jump\t// in\n    tag_337:\n        /* \"#utility.yul\":8233:8305   */\n      tag_338\n        /* \"#utility.yul\":8301:8303   */\n      0x20\n        /* \"#utility.yul\":8290:8299   */\n      dup4\n        /* \"#utility.yul\":8286:8304   */\n      add\n        /* \"#utility.yul\":8277:8283   */\n      dup5\n        /* \"#utility.yul\":8233:8305   */\n      tag_198\n      jump\t// in\n    tag_338:\n        /* \"#utility.yul\":7980:8312   */\n      swap4\n      swap3\n      pop\n      pop\n      pop\n      jump\t// out\n        /* \"#utility.yul\":8318:8486   */\n    tag_227:\n        /* \"#utility.yul\":8401:8412   */\n      0x00\n        /* \"#utility.yul\":8435:8441   */\n      dup3\n        /* \"#utility.yul\":8430:8433   */\n      dup3\n        /* \"#utility.yul\":8423:8442   */\n      mstore\n        /* \"#utility.yul\":8475:8479   */\n      0x20\n        /* \"#utility.yul\":8470:8473   */\n      dup3\n        /* \"#utility.yul\":8466:8480   */\n      add\n        /* \"#utility.yul\":8451:8480   */\n      swap1\n      pop\n        /* \"#utility.yul\":8318:8486   */\n      swap3\n      swap2\n      pop\n      pop\n      jump\t// out\n        /* \"#utility.yul\":8492:8606   */\n    tag_228:\n      pop\n      jump\t// out\n        /* \"#utility.yul\":8612:8974   */\n    tag_229:\n        /* \"#utility.yul\":8753:8756   */\n      0x00\n        /* \"#utility.yul\":8774:8839   */\n      tag_342\n        /* \"#utility.yul\":8837:8838   */\n      0x00\n        /* \"#utility.yul\":8832:8835   */\n      dup4\n        /* \"#utility.yul\":8774:8839   */\n      tag_227\n      jump\t// in\n    tag_342:\n        /* \"#utility.yul\":8767:8839   */\n      swap2\n      pop\n        /* \"#utility.yul\":8848:8941   */\n      tag_343\n        /* \"#utility.yul\":8937:8940   */\n      dup3\n        /* \"#utility.yul\":8848:8941   */\n      tag_228\n      jump\t// in\n    tag_343:\n        /* \"#utility.yul\":8966:8967   */\n      0x00\n        /* \"#utility.yul\":8961:8964   */\n      dup3\n        /* \"#utility.yul\":8957:8968   */\n      add\n        /* \"#utility.yul\":8950:8968   */\n      swap1\n      pop\n        /* \"#utility.yul\":8612:8974   */\n      swap2\n      swap1\n      pop\n      jump\t// out\n        /* \"#utility.yul\":8980:9827   */\n    tag_103:\n        /* \"#utility.yul\":9251:9255   */\n      0x00\n        /* \"#utility.yul\":9289:9292   */\n      0xa0\n        /* \"#utility.yul\":9278:9287   */\n      dup3\n        /* \"#utility.yul\":9274:9293   */\n      add\n        /* \"#utility.yul\":9266:9293   */\n      swap1\n      pop\n        /* \"#utility.yul\":9303:9374   */\n      tag_345\n        /* \"#utility.yul\":9371:9372   */\n      0x00\n        /* \"#utility.yul\":9360:9369   */\n      dup4\n        /* \"#utility.yul\":9356:9373   */\n      add\n        /* \"#utility.yul\":9347:9353   */\n      dup8\n        /* \"#utility.yul\":9303:9374   */\n      tag_208\n      jump\t// in\n    tag_345:\n        /* \"#utility.yul\":9384:9456   */\n      tag_346\n        /* \"#utility.yul\":9452:9454   */\n      0x20\n        /* \"#utility.yul\":9441:9450   */\n      dup4\n        /* \"#utility.yul\":9437:9455   */\n      add\n        /* \"#utility.yul\":9428:9434   */\n      dup7\n        /* \"#utility.yul\":9384:9456   */\n      tag_208\n      jump\t// in\n    tag_346:\n        /* \"#utility.yul\":9466:9538   */\n      tag_347\n        /* \"#utility.yul\":9534:9536   */\n      0x40\n        /* \"#utility.yul\":9523:9532   */\n      dup4\n        /* \"#utility.yul\":9519:9537   */\n      add\n        /* \"#utility.yul\":9510:9516   */\n      dup6\n        /* \"#utility.yul\":9466:9538   */\n      tag_198\n      jump\t// in\n    tag_347:\n        /* \"#utility.yul\":9548:9614   */\n      tag_348\n        /* \"#utility.yul\":9610:9612   */\n      0x60\n        /* \"#utility.yul\":9599:9608   */\n      dup4\n        /* \"#utility.yul\":9595:9613   */\n      add\n        /* \"#utility.yul\":9586:9592   */\n      dup5\n        /* \"#utility.yul\":9548:9614   */\n      tag_207\n      jump\t// in\n    tag_348:\n        /* \"#utility.yul\":9662:9671   */\n      dup2\n        /* \"#utility.yul\":9656:9660   */\n      dup2\n        /* \"#utility.yul\":9652:9672   */\n      sub\n        /* \"#utility.yul\":9646:9649   */\n      0x80\n        /* \"#utility.yul\":9635:9644   */\n      dup4\n        /* \"#utility.yul\":9631:9650   */\n      add\n        /* \"#utility.yul\":9624:9673   */\n      mstore\n        /* \"#utility.yul\":9690:9820   */\n      tag_349\n        /* \"#utility.yul\":9815:9819   */\n      dup2\n        /* \"#utility.yul\":9690:9820   */\n      tag_229\n      jump\t// in\n    tag_349:\n        /* \"#utility.yul\":9682:9820   */\n      swap1\n      pop\n        /* \"#utility.yul\":8980:9827   */\n      swap6\n      swap5\n      pop\n      pop\n      pop\n      pop\n      pop\n      jump\t// out\n        /* \"#utility.yul\":9833:9980   */\n    tag_230:\n        /* \"#utility.yul\":9934:9945   */\n      0x00\n        /* \"#utility.yul\":9971:9974   */\n      dup2\n        /* \"#utility.yul\":9956:9974   */\n      swap1\n      pop\n        /* \"#utility.yul\":9833:9980   */\n      swap3\n      swap2\n      pop\n      pop\n      jump\t// out\n        /* \"#utility.yul\":9986:10384   */\n    tag_231:\n        /* \"#utility.yul\":10145:10148   */\n      0x00\n        /* \"#utility.yul\":10166:10249   */\n      tag_352\n        /* \"#utility.yul\":10247:10248   */\n      0x00\n        /* \"#utility.yul\":10242:10245   */\n      dup4\n        /* \"#utility.yul\":10166:10249   */\n      tag_230\n      jump\t// in\n    tag_352:\n        /* \"#utility.yul\":10159:10249   */\n      swap2\n      pop\n        /* \"#utility.yul\":10258:10351   */\n      tag_353\n        /* \"#utility.yul\":10347:10350   */\n      dup3\n        /* \"#utility.yul\":10258:10351   */\n      tag_228\n      jump\t// in\n    tag_353:\n        /* \"#utility.yul\":10376:10377   */\n      0x00\n        /* \"#utility.yul\":10371:10374   */\n      dup3\n        /* \"#utility.yul\":10367:10378   */\n      add\n        /* \"#utility.yul\":10360:10378   */\n      swap1\n      pop\n        /* \"#utility.yul\":9986:10384   */\n      swap2\n      swap1\n      pop\n      jump\t// out\n        /* \"#utility.yul\":10390:10769   */\n    tag_115:\n        /* \"#utility.yul\":10574:10577   */\n      0x00\n        /* \"#utility.yul\":10596:10743   */\n      tag_355\n        /* \"#utility.yul\":10739:10742   */\n      dup3\n        /* \"#utility.yul\":10596:10743   */\n      tag_231\n      jump\t// in\n    tag_355:\n        /* \"#utility.yul\":10589:10743   */\n      swap2\n      pop\n        /* \"#utility.yul\":10760:10763   */\n      dup2\n        /* \"#utility.yul\":10753:10763   */\n      swap1\n      pop\n        /* \"#utility.yul\":10390:10769   */\n      swap2\n      swap1\n      pop\n      jump\t// out\n        /* \"#utility.yul\":10775:10944   */\n    tag_232:\n        /* \"#utility.yul\":10859:10870   */\n      0x00\n        /* \"#utility.yul\":10893:10899   */\n      dup3\n        /* \"#utility.yul\":10888:10891   */\n      dup3\n        /* \"#utility.yul\":10881:10900   */\n      mstore\n        /* \"#utility.yul\":10933:10937   */\n      0x20\n        /* \"#utility.yul\":10928:10931   */\n      dup3\n        /* \"#utility.yul\":10924:10938   */\n      add\n        /* \"#utility.yul\":10909:10938   */\n      swap1\n      pop\n        /* \"#utility.yul\":10775:10944   */\n      swap3\n      swap2\n      pop\n      pop\n      jump\t// out\n        /* \"#utility.yul\":10950:11106   */\n    tag_233:\n        /* \"#utility.yul\":11090:11098   */\n      0x4661696c65640000000000000000000000000000000000000000000000000000\n        /* \"#utility.yul\":11086:11087   */\n      0x00\n        /* \"#utility.yul\":11078:11084   */\n      dup3\n        /* \"#utility.yul\":11074:11088   */\n      add\n        /* \"#utility.yul\":11067:11099   */\n      mstore\n        /* \"#utility.yul\":10950:11106   */\n      pop\n      jump\t// out\n        /* \"#utility.yul\":11112:11477   */\n    tag_234:\n        /* \"#utility.yul\":11254:11257   */\n      0x00\n        /* \"#utility.yul\":11275:11341   */\n      tag_359\n        /* \"#utility.yul\":11339:11340   */\n      0x06\n        /* \"#utility.yul\":11334:11337   */\n      dup4\n        /* \"#utility.yul\":11275:11341   */\n      tag_232\n      jump\t// in\n    tag_359:\n        /* \"#utility.yul\":11268:11341   */\n      swap2\n      pop\n        /* \"#utility.yul\":11350:11443   */\n      tag_360\n        /* \"#utility.yul\":11439:11442   */\n      dup3\n        /* \"#utility.yul\":11350:11443   */\n      tag_233\n      jump\t// in\n    tag_360:\n        /* \"#utility.yul\":11468:11470   */\n      0x20\n        /* \"#utility.yul\":11463:11466   */\n      dup3\n        /* \"#utility.yul\":11459:11471   */\n      add\n        /* \"#utility.yul\":11452:11471   */\n      swap1\n      pop\n        /* \"#utility.yul\":11112:11477   */\n      swap2\n      swap1\n      pop\n      jump\t// out\n        /* \"#utility.yul\":11483:11902   */\n    tag_121:\n        /* \"#utility.yul\":11649:11653   */\n      0x00\n        /* \"#utility.yul\":11687:11689   */\n      0x20\n        /* \"#utility.yul\":11676:11685   */\n      dup3\n        /* \"#utility.yul\":11672:11690   */\n      add\n        /* \"#utility.yul\":11664:11690   */\n      swap1\n      pop\n        /* \"#utility.yul\":11736:11745   */\n      dup2\n        /* \"#utility.yul\":11730:11734   */\n      dup2\n        /* \"#utility.yul\":11726:11746   */\n      sub\n        /* \"#utility.yul\":11722:11723   */\n      0x00\n        /* \"#utility.yul\":11711:11720   */\n      dup4\n        /* \"#utility.yul\":11707:11724   */\n      add\n        /* \"#utility.yul\":11700:11747   */\n      mstore\n        /* \"#utility.yul\":11764:11895   */\n      tag_362\n        /* \"#utility.yul\":11890:11894   */\n      dup2\n        /* \"#utility.yul\":11764:11895   */\n      tag_234\n      jump\t// in\n    tag_362:\n        /* \"#utility.yul\":11756:11895   */\n      swap1\n      pop\n        /* \"#utility.yul\":11483:11902   */\n      swap2\n      swap1\n      pop\n      jump\t// out\n        /* \"#utility.yul\":11908:12006   */\n    tag_235:\n        /* \"#utility.yul\":11959:11965   */\n      0x00\n        /* \"#utility.yul\":11993:11998   */\n      dup2\n        /* \"#utility.yul\":11987:11999   */\n      mload\n        /* \"#utility.yul\":11977:11999   */\n      swap1\n      pop\n        /* \"#utility.yul\":11908:12006   */\n      swap2\n      swap1\n      pop\n      jump\t// out\n        /* \"#utility.yul\":12012:12151   */\n    tag_236:\n        /* \"#utility.yul\":12101:12107   */\n      dup3\n        /* \"#utility.yul\":12096:12099   */\n      dup2\n        /* \"#utility.yul\":12091:12094   */\n      dup4\n        /* \"#utility.yul\":12085:12108   */\n      mcopy\n        /* \"#utility.yul\":12142:12143   */\n      0x00\n        /* \"#utility.yul\":12133:12139   */\n      dup4\n        /* \"#utility.yul\":12128:12131   */\n      dup4\n        /* \"#utility.yul\":12124:12140   */\n      add\n        /* \"#utility.yul\":12117:12144   */\n      mstore\n        /* \"#utility.yul\":12012:12151   */\n      pop\n      pop\n      pop\n      jump\t// out\n        /* \"#utility.yul\":12157:12530   */\n    tag_237:\n        /* \"#utility.yul\":12243:12246   */\n      0x00\n        /* \"#utility.yul\":12271:12309   */\n      tag_366\n        /* \"#utility.yul\":12303:12308   */\n      dup3\n        /* \"#utility.yul\":12271:12309   */\n      tag_235\n      jump\t// in\n    tag_366:\n        /* \"#utility.yul\":12325:12395   */\n      tag_367\n        /* \"#utility.yul\":12388:12394   */\n      dup2\n        /* \"#utility.yul\":12383:12386   */\n      dup6\n        /* \"#utility.yul\":12325:12395   */\n      tag_227\n      jump\t// in\n    tag_367:\n        /* \"#utility.yul\":12318:12395   */\n      swap4\n      pop\n        /* \"#utility.yul\":12404:12469   */\n      tag_368\n        /* \"#utility.yul\":12462:12468   */\n      dup2\n        /* \"#utility.yul\":12457:12460   */\n      dup6\n        /* \"#utility.yul\":12450:12454   */\n      0x20\n        /* \"#utility.yul\":12443:12448   */\n      dup7\n        /* \"#utility.yul\":12439:12455   */\n      add\n        /* \"#utility.yul\":12404:12469   */\n      tag_236\n      jump\t// in\n    tag_368:\n        /* \"#utility.yul\":12494:12523   */\n      tag_369\n        /* \"#utility.yul\":12516:12522   */\n      dup2\n        /* \"#utility.yul\":12494:12523   */\n      tag_218\n      jump\t// in\n    tag_369:\n        /* \"#utility.yul\":12489:12492   */\n      dup5\n        /* \"#utility.yul\":12485:12524   */\n      add\n        /* \"#utility.yul\":12478:12524   */\n      swap2\n      pop\n        /* \"#utility.yul\":12247:12530   */\n      pop\n        /* \"#utility.yul\":12157:12530   */\n      swap3\n      swap2\n      pop\n      pop\n      jump\t// out\n        /* \"#utility.yul\":12536:13275   */\n    tag_160:\n        /* \"#utility.yul\":12753:12757   */\n      0x00\n        /* \"#utility.yul\":12791:12794   */\n      0xa0\n        /* \"#utility.yul\":12780:12789   */\n      dup3\n        /* \"#utility.yul\":12776:12795   */\n      add\n        /* \"#utility.yul\":12768:12795   */\n      swap1\n      pop\n        /* \"#utility.yul\":12805:12876   */\n      tag_371\n        /* \"#utility.yul\":12873:12874   */\n      0x00\n        /* \"#utility.yul\":12862:12871   */\n      dup4\n        /* \"#utility.yul\":12858:12875   */\n      add\n        /* \"#utility.yul\":12849:12855   */\n      dup9\n        /* \"#utility.yul\":12805:12876   */\n      tag_208\n      jump\t// in\n    tag_371:\n        /* \"#utility.yul\":12886:12958   */\n      tag_372\n        /* \"#utility.yul\":12954:12956   */\n      0x20\n        /* \"#utility.yul\":12943:12952   */\n      dup4\n        /* \"#utility.yul\":12939:12957   */\n      add\n        /* \"#utility.yul\":12930:12936   */\n      dup8\n        /* \"#utility.yul\":12886:12958   */\n      tag_208\n      jump\t// in\n    tag_372:\n        /* \"#utility.yul\":12968:13040   */\n      tag_373\n        /* \"#utility.yul\":13036:13038   */\n      0x40\n        /* \"#utility.yul\":13025:13034   */\n      dup4\n        /* \"#utility.yul\":13021:13039   */\n      add\n        /* \"#utility.yul\":13012:13018   */\n      dup7\n        /* \"#utility.yul\":12968:13040   */\n      tag_198\n      jump\t// in\n    tag_373:\n        /* \"#utility.yul\":13050:13116   */\n      tag_374\n        /* \"#utility.yul\":13112:13114   */\n      0x60\n        /* \"#utility.yul\":13101:13110   */\n      dup4\n        /* \"#utility.yul\":13097:13115   */\n      add\n        /* \"#utility.yul\":13088:13094   */\n      dup6\n        /* \"#utility.yul\":13050:13116   */\n      tag_207\n      jump\t// in\n    tag_374:\n        /* \"#utility.yul\":13164:13173   */\n      dup2\n        /* \"#utility.yul\":13158:13162   */\n      dup2\n        /* \"#utility.yul\":13154:13174   */\n      sub\n        /* \"#utility.yul\":13148:13151   */\n      0x80\n        /* \"#utility.yul\":13137:13146   */\n      dup4\n        /* \"#utility.yul\":13133:13152   */\n      add\n        /* \"#utility.yul\":13126:13175   */\n      mstore\n        /* \"#utility.yul\":13192:13268   */\n      tag_375\n        /* \"#utility.yul\":13263:13267   */\n      dup2\n        /* \"#utility.yul\":13254:13260   */\n      dup5\n        /* \"#utility.yul\":13192:13268   */\n      tag_237\n      jump\t// in\n    tag_375:\n        /* \"#utility.yul\":13184:13268   */\n      swap1\n      pop\n        /* \"#utility.yul\":12536:13275   */\n      swap7\n      swap6\n      pop\n      pop\n      pop\n      pop\n      pop\n      pop\n      jump\t// out\n\n    auxdata: 0xa2646970667358221220efc774138bd4e9619769e43d00e4c44c1c8f8f32088ceefac19347a2822e756064736f6c634300081c0033\n}\n",
				"bytecode": {
					"linkReferences": {},
					"object": "608060405269010f0cf064dd5920000060035534801561001d575f5ffd5b506040516115c53803806115c5833981810160405281019061003f9190610275565b335f73ffffffffffffffffffffffffffffffffffffffff168173ffffffffffffffffffffffffffffffffffffffff16036100b0575f6040517f1e4fbdf70000000000000000000000000000000000000000000000000000000081526004016100a791906102af565b60405180910390fd5b6100bf8161015660201b60201c565b505f5f60146101000a81548160ff0219169083151502179055508060025f6101000a81548173ffffffffffffffffffffffffffffffffffffffff021916908373ffffffffffffffffffffffffffffffffffffffff1602179055507ff9563f2ff8321c25ec4ee92f781a8d3ebc72f854daa4bf9177f3886b6ca1f7e18160405161014891906102af565b60405180910390a1506102c8565b5f5f5f9054906101000a900473ffffffffffffffffffffffffffffffffffffffff169050815f5f6101000a81548173ffffffffffffffffffffffffffffffffffffffff021916908373ffffffffffffffffffffffffffffffffffffffff1602179055508173ffffffffffffffffffffffffffffffffffffffff168173ffffffffffffffffffffffffffffffffffffffff167f8be0079c531659141344cd1fd0a4f28419497f9722a3daafe3b4186f6b6457e060405160405180910390a35050565b5f5ffd5b5f73ffffffffffffffffffffffffffffffffffffffff82169050919050565b5f6102448261021b565b9050919050565b6102548161023a565b811461025e575f5ffd5b50565b5f8151905061026f8161024b565b92915050565b5f6020828403121561028a57610289610217565b5b5f61029784828501610261565b91505092915050565b6102a98161023a565b82525050565b5f6020820190506102c25f8301846102a0565b92915050565b6112f0806102d55f395ff3fe608060405234801561000f575f5ffd5b5060043610610114575f3560e01c80635c975abb116100a0578063af66ef651161006f578063af66ef6514610270578063b8de4343146102a0578063c884ef83146102bc578063f2fde38b146102ec578063fb2228fe1461030857610114565b80635c975abb14610220578063715018a61461023e5780638456cb59146102485780638da5cb5b1461025257610114565b80633ccfd60b116100e75780633ccfd60b146101a25780633f4ba83a146101ac5780634875590a146101b657806353a4cff4146101d457806356a6d9ef1461020457610114565b806312065fe01461011857806316ada547146101365780631e83409a14610154578063205306b414610184575b5f5ffd5b610120610326565b60405161012d9190610c9c565b60405180910390f35b61013e61032d565b60405161014b9190610c9c565b60405180910390f35b61016e60048036038101906101699190610d20565b610334565b60405161017b9190610d65565b60405180910390f35b61018c6105d1565b6040516101999190610c9c565b60405180910390f35b6101aa6105d7565b005b6101b4610696565b005b6101be6106a8565b6040516101cb9190610d8d565b60405180910390f35b6101ee60048036038101906101e99190610dd0565b6106cd565b6040516101fb9190610d65565b60405180910390f35b61021e60048036038101906102199190610e36565b61071d565b005b6102286107d2565b6040516102359190610d65565b60405180910390f35b6102466107e7565b005b6102506107fa565b005b61025a61080c565b6040516102679190610d8d565b60405180910390f35b61028a60048036038101906102859190610d20565b610833565b6040516102979190610d65565b60405180910390f35b6102ba60048036038101906102b59190610fda565b6108bc565b005b6102d660048036038101906102d19190610d20565b610939565b6040516102e39190610c9c565b60405180910390f35b61030660048036038101906103019190610d20565b61094e565b005b6103106109d2565b60405161031d9190610c9c565b60405180910390f35b5f47905090565b5f42905090565b5f61033d6109dd565b610345610a64565b5f60045f8473ffffffffffffffffffffffffffffffffffffffff1673ffffffffffffffffffffffffffffffffffffffff1681526020019081526020015f2054111561049e5760045f8373ffffffffffffffffffffffffffffffffffffffff1673ffffffffffffffffffffffffffffffffffffffff1681526020019081526020015f205460025f9054906101000a900473ffffffffffffffffffffffffffffffffffffffff1673ffffffffffffffffffffffffffffffffffffffff166370a08231846040518263ffffffff1660e01b81526004016104229190610d8d565b602060405180830381865afa15801561043d573d5f5f3e3d5ffd5b505050506040513d601f19601f820116820180604052508101906104619190611081565b6040517fbbae19e60000000000000000000000000000000000000000000000000000000081526004016104959291906110ac565b60405180910390fd5b60025f9054906101000a900473ffffffffffffffffffffffffffffffffffffffff1673ffffffffffffffffffffffffffffffffffffffff1663760d9bba308460035460016040518563ffffffff1660e01b81526004016105019493929190611106565b5f604051808303815f87803b158015610518575f5ffd5b505af115801561052a573d5f5f3e3d5ffd5b505050506105386001610aa5565b4260045f8473ffffffffffffffffffffffffffffffffffffffff1673ffffffffffffffffffffffffffffffffffffffff1681526020019081526020015f20819055508173ffffffffffffffffffffffffffffffffffffffff167fd8138f8a3f377c5259ca548e70e4c2de94f129f5a11036a15b69513cba2b426a426040516105c09190610c9c565b60405180910390a260019050919050565b60035481565b6105df6109dd565b5f4790505f6105ec61080c565b73ffffffffffffffffffffffffffffffffffffffff168260405161060f90611186565b5f6040518083038185875af1925050503d805f8114610649576040519150601f19603f3d011682016040523d82523d5f602084013e61064e565b606091505b5050905080610692576040517f08c379a0000000000000000000000000000000000000000000000000000000008152600401610689906111f4565b60405180910390fd5b5050565b61069e6109dd565b6106a6610ab9565b565b60025f9054906101000a900473ffffffffffffffffffffffffffffffffffffffff1681565b5f6106d66109dd565b816003819055507fccc2dc361dc3b02936a3d99c4cd064de1bbbb59a03aaad640d302e18f7aacdfb8260405161070c9190610c9c565b60405180910390a160019050919050565b6107256109dd565b5f8273ffffffffffffffffffffffffffffffffffffffff168260405161074a90611186565b5f6040518083038185875af1925050503d805f8114610784576040519150601f19603f3d011682016040523d82523d5f602084013e610789565b606091505b50509050806107cd576040517f08c379a00000000000000000000000000000000000000000000000000000000081526004016107c4906111f4565b60405180910390fd5b505050565b5f5f60149054906101000a900460ff16905090565b6107ef6109dd565b6107f85f610b1a565b565b6108026109dd565b61080a610bdb565b565b5f5f5f9054906101000a900473ffffffffffffffffffffffffffffffffffffffff16905090565b5f61083c6109dd565b8160025f6101000a81548173ffffffffffffffffffffffffffffffffffffffff021916908373ffffffffffffffffffffffffffffffffffffffff1602179055507ff9563f2ff8321c25ec4ee92f781a8d3ebc72f854daa4bf9177f3886b6ca1f7e1826040516108ab9190610d8d565b60405180910390a160019050919050565b6108c46109dd565b8473ffffffffffffffffffffffffffffffffffffffff1663760d9bba30868686866040518663ffffffff1660e01b8152600401610905959493929190611262565b5f604051808303815f87803b15801561091c575f5ffd5b505af115801561092e573d5f5f3e3d5ffd5b505050505050505050565b6004602052805f5260405f205f915090505481565b6109566109dd565b5f73ffffffffffffffffffffffffffffffffffffffff168173ffffffffffffffffffffffffffffffffffffffff16036109c6575f6040517f1e4fbdf70000000000000000000000000000000000000000000000000000000081526004016109bd9190610d8d565b60405180910390fd5b6109cf81610b1a565b50565b6001805f0154905081565b6109e5610c3d565b73ffffffffffffffffffffffffffffffffffffffff16610a0361080c565b73ffffffffffffffffffffffffffffffffffffffff1614610a6257610a26610c3d565b6040517f118cdaa7000000000000000000000000000000000000000000000000000000008152600401610a599190610d8d565b60405180910390fd5b565b610a6c6107d2565b15610aa3576040517fd93c066500000000000000000000000000000000000000000000000000000000815260040160405180910390fd5b565b6001815f015f828254019250508190555050565b610ac1610c44565b5f5f60146101000a81548160ff0219169083151502179055507f5db9ee0a495bf2e6ff9c91a7834c1ba4fdd244a5e8aa4e537bd38aeae4b073aa610b03610c3d565b604051610b109190610d8d565b60405180910390a1565b5f5f5f9054906101000a900473ffffffffffffffffffffffffffffffffffffffff169050815f5f6101000a81548173ffffffffffffffffffffffffffffffffffffffff021916908373ffffffffffffffffffffffffffffffffffffffff1602179055508173ffffffffffffffffffffffffffffffffffffffff168173ffffffffffffffffffffffffffffffffffffffff167f8be0079c531659141344cd1fd0a4f28419497f9722a3daafe3b4186f6b6457e060405160405180910390a35050565b610be3610a64565b60015f60146101000a81548160ff0219169083151502179055507f62e78cea01bee320cd4e420270b5ea74000d11b0c9f74754ebdbfc544b05a258610c26610c3d565b604051610c339190610d8d565b60405180910390a1565b5f33905090565b610c4c6107d2565b610c82576040517f8dfc202b00000000000000000000000000000000000000000000000000000000815260040160405180910390fd5b565b5f819050919050565b610c9681610c84565b82525050565b5f602082019050610caf5f830184610c8d565b92915050565b5f604051905090565b5f5ffd5b5f5ffd5b5f73ffffffffffffffffffffffffffffffffffffffff82169050919050565b5f610cef82610cc6565b9050919050565b610cff81610ce5565b8114610d09575f5ffd5b50565b5f81359050610d1a81610cf6565b92915050565b5f60208284031215610d3557610d34610cbe565b5b5f610d4284828501610d0c565b91505092915050565b5f8115159050919050565b610d5f81610d4b565b82525050565b5f602082019050610d785f830184610d56565b92915050565b610d8781610ce5565b82525050565b5f602082019050610da05f830184610d7e565b92915050565b610daf81610c84565b8114610db9575f5ffd5b50565b5f81359050610dca81610da6565b92915050565b5f60208284031215610de557610de4610cbe565b5b5f610df284828501610dbc565b91505092915050565b5f610e0582610cc6565b9050919050565b610e1581610dfb565b8114610e1f575f5ffd5b50565b5f81359050610e3081610e0c565b92915050565b5f5f60408385031215610e4c57610e4b610cbe565b5b5f610e5985828601610e22565b9250506020610e6a85828601610dbc565b9150509250929050565b610e7d81610d4b565b8114610e87575f5ffd5b50565b5f81359050610e9881610e74565b92915050565b5f5ffd5b5f5ffd5b5f601f19601f8301169050919050565b7f4e487b71000000000000000000000000000000000000000000000000000000005f52604160045260245ffd5b610eec82610ea6565b810181811067ffffffffffffffff82111715610f0b57610f0a610eb6565b5b80604052505050565b5f610f1d610cb5565b9050610f298282610ee3565b919050565b5f67ffffffffffffffff821115610f4857610f47610eb6565b5b610f5182610ea6565b9050602081019050919050565b828183375f83830152505050565b5f610f7e610f7984610f2e565b610f14565b905082815260208101848484011115610f9a57610f99610ea2565b5b610fa5848285610f5e565b509392505050565b5f82601f830112610fc157610fc0610e9e565b5b8135610fd1848260208601610f6c565b91505092915050565b5f5f5f5f5f60a08688031215610ff357610ff2610cbe565b5b5f61100088828901610d0c565b955050602061101188828901610d0c565b945050604061102288828901610dbc565b935050606061103388828901610e8a565b925050608086013567ffffffffffffffff81111561105457611053610cc2565b5b61106088828901610fad565b9150509295509295909350565b5f8151905061107b81610da6565b92915050565b5f6020828403121561109657611095610cbe565b5b5f6110a38482850161106d565b91505092915050565b5f6040820190506110bf5f830185610c8d565b6110cc6020830184610c8d565b9392505050565b5f82825260208201905092915050565b50565b5f6110f15f836110d3565b91506110fc826110e3565b5f82019050919050565b5f60a0820190506111195f830187610d7e565b6111266020830186610d7e565b6111336040830185610c8d565b6111406060830184610d56565b8181036080830152611151816110e6565b905095945050505050565b5f81905092915050565b5f6111715f8361115c565b915061117c826110e3565b5f82019050919050565b5f61119082611166565b9150819050919050565b5f82825260208201905092915050565b7f4661696c656400000000000000000000000000000000000000000000000000005f82015250565b5f6111de60068361119a565b91506111e9826111aa565b602082019050919050565b5f6020820190508181035f83015261120b816111d2565b9050919050565b5f81519050919050565b8281835e5f83830152505050565b5f61123482611212565b61123e81856110d3565b935061124e81856020860161121c565b61125781610ea6565b840191505092915050565b5f60a0820190506112755f830188610d7e565b6112826020830187610d7e565b61128f6040830186610c8d565b61129c6060830185610d56565b81810360808301526112ae818461122a565b9050969550505050505056fea2646970667358221220efc774138bd4e9619769e43d00e4c44c1c8f8f32088ceefac19347a2822e756064736f6c634300081c0033",
					"opcodes": "PUSH1 0x80 PUSH1 0x40 MSTORE PUSH10 0x10F0CF064DD59200000 PUSH1 0x3 SSTORE CALLVALUE DUP1 ISZERO PUSH2 0x1D JUMPI PUSH0 PUSH0 REVERT JUMPDEST POP PUSH1 0x40 MLOAD PUSH2 0x15C5 CODESIZE SUB DUP1 PUSH2 0x15C5 DUP4 CODECOPY DUP2 DUP2 ADD PUSH1 0x40 MSTORE DUP2 ADD SWAP1 PUSH2 0x3F SWAP2 SWAP1 PUSH2 0x275 JUMP JUMPDEST CALLER PUSH0 PUSH20 0xFFFFFFFFFFFFFFFFFFFFFFFFFFFFFFFFFFFFFFFF AND DUP2 PUSH20 0xFFFFFFFFFFFFFFFFFFFFFFFFFFFFFFFFFFFFFFFF AND SUB PUSH2 0xB0 JUMPI PUSH0 PUSH1 0x40 MLOAD PUSH32 0x1E4FBDF700000000000000000000000000000000000000000000000000000000 DUP2 MSTORE PUSH1 0x4 ADD PUSH2 0xA7 SWAP2 SWAP1 PUSH2 0x2AF JUMP JUMPDEST PUSH1 0x40 MLOAD DUP1 SWAP2 SUB SWAP1 REVERT JUMPDEST PUSH2 0xBF DUP2 PUSH2 0x156 PUSH1 0x20 SHL PUSH1 0x20 SHR JUMP JUMPDEST POP PUSH0 PUSH0 PUSH1 0x14 PUSH2 0x100 EXP DUP2 SLOAD DUP2 PUSH1 0xFF MUL NOT AND SWAP1 DUP4 ISZERO ISZERO MUL OR SWAP1 SSTORE POP DUP1 PUSH1 0x2 PUSH0 PUSH2 0x100 EXP DUP2 SLOAD DUP2 PUSH20 0xFFFFFFFFFFFFFFFFFFFFFFFFFFFFFFFFFFFFFFFF MUL NOT AND SWAP1 DUP4 PUSH20 0xFFFFFFFFFFFFFFFFFFFFFFFFFFFFFFFFFFFFFFFF AND MUL OR SWAP1 SSTORE POP PUSH32 0xF9563F2FF8321C25EC4EE92F781A8D3EBC72F854DAA4BF9177F3886B6CA1F7E1 DUP2 PUSH1 0x40 MLOAD PUSH2 0x148 SWAP2 SWAP1 PUSH2 0x2AF JUMP JUMPDEST PUSH1 0x40 MLOAD DUP1 SWAP2 SUB SWAP1 LOG1 POP PUSH2 0x2C8 JUMP JUMPDEST PUSH0 PUSH0 PUSH0 SWAP1 SLOAD SWAP1 PUSH2 0x100 EXP SWAP1 DIV PUSH20 0xFFFFFFFFFFFFFFFFFFFFFFFFFFFFFFFFFFFFFFFF AND SWAP1 POP DUP2 PUSH0 PUSH0 PUSH2 0x100 EXP DUP2 SLOAD DUP2 PUSH20 0xFFFFFFFFFFFFFFFFFFFFFFFFFFFFFFFFFFFFFFFF MUL NOT AND SWAP1 DUP4 PUSH20 0xFFFFFFFFFFFFFFFFFFFFFFFFFFFFFFFFFFFFFFFF AND MUL OR SWAP1 SSTORE POP DUP2 PUSH20 0xFFFFFFFFFFFFFFFFFFFFFFFFFFFFFFFFFFFFFFFF AND DUP2 PUSH20 0xFFFFFFFFFFFFFFFFFFFFFFFFFFFFFFFFFFFFFFFF AND PUSH32 0x8BE0079C531659141344CD1FD0A4F28419497F9722A3DAAFE3B4186F6B6457E0 PUSH1 0x40 MLOAD PUSH1 0x40 MLOAD DUP1 SWAP2 SUB SWAP1 LOG3 POP POP JUMP JUMPDEST PUSH0 PUSH0 REVERT JUMPDEST PUSH0 PUSH20 0xFFFFFFFFFFFFFFFFFFFFFFFFFFFFFFFFFFFFFFFF DUP3 AND SWAP1 POP SWAP2 SWAP1 POP JUMP JUMPDEST PUSH0 PUSH2 0x244 DUP3 PUSH2 0x21B JUMP JUMPDEST SWAP1 POP SWAP2 SWAP1 POP JUMP JUMPDEST PUSH2 0x254 DUP2 PUSH2 0x23A JUMP JUMPDEST DUP2 EQ PUSH2 0x25E JUMPI PUSH0 PUSH0 REVERT JUMPDEST POP JUMP JUMPDEST PUSH0 DUP2 MLOAD SWAP1 POP PUSH2 0x26F DUP2 PUSH2 0x24B JUMP JUMPDEST SWAP3 SWAP2 POP POP JUMP JUMPDEST PUSH0 PUSH1 0x20 DUP3 DUP5 SUB SLT ISZERO PUSH2 0x28A JUMPI PUSH2 0x289 PUSH2 0x217 JUMP JUMPDEST JUMPDEST PUSH0 PUSH2 0x297 DUP5 DUP3 DUP6 ADD PUSH2 0x261 JUMP JUMPDEST SWAP2 POP POP SWAP3 SWAP2 POP POP JUMP JUMPDEST PUSH2 0x2A9 DUP2 PUSH2 0x23A JUMP JUMPDEST DUP3 MSTORE POP POP JUMP JUMPDEST PUSH0 PUSH1 0x20 DUP3 ADD SWAP1 POP PUSH2 0x2C2 PUSH0 DUP4 ADD DUP5 PUSH2 0x2A0 JUMP JUMPDEST SWAP3 SWAP2 POP POP JUMP JUMPDEST PUSH2 0x12F0 DUP1 PUSH2 0x2D5 PUSH0 CODECOPY PUSH0 RETURN INVALID PUSH1 0x80 PUSH1 0x40 MSTORE CALLVALUE DUP1 ISZERO PUSH2 0xF JUMPI PUSH0 PUSH0 REVERT JUMPDEST POP PUSH1 0x4 CALLDATASIZE LT PUSH2 0x114 JUMPI PUSH0 CALLDATALOAD PUSH1 0xE0 SHR DUP1 PUSH4 0x5C975ABB GT PUSH2 0xA0 JUMPI DUP1 PUSH4 0xAF66EF65 GT PUSH2 0x6F JUMPI DUP1 PUSH4 0xAF66EF65 EQ PUSH2 0x270 JUMPI DUP1 PUSH4 0xB8DE4343 EQ PUSH2 0x2A0 JUMPI DUP1 PUSH4 0xC884EF83 EQ PUSH2 0x2BC JUMPI DUP1 PUSH4 0xF2FDE38B EQ PUSH2 0x2EC JUMPI DUP1 PUSH4 0xFB2228FE EQ PUSH2 0x308 JUMPI PUSH2 0x114 JUMP JUMPDEST DUP1 PUSH4 0x5C975ABB EQ PUSH2 0x220 JUMPI DUP1 PUSH4 0x715018A6 EQ PUSH2 0x23E JUMPI DUP1 PUSH4 0x8456CB59 EQ PUSH2 0x248 JUMPI DUP1 PUSH4 0x8DA5CB5B EQ PUSH2 0x252 JUMPI PUSH2 0x114 JUMP JUMPDEST DUP1 PUSH4 0x3CCFD60B GT PUSH2 0xE7 JUMPI DUP1 PUSH4 0x3CCFD60B EQ PUSH2 0x1A2 JUMPI DUP1 PUSH4 0x3F4BA83A EQ PUSH2 0x1AC JUMPI DUP1 PUSH4 0x4875590A EQ PUSH2 0x1B6 JUMPI DUP1 PUSH4 0x53A4CFF4 EQ PUSH2 0x1D4 JUMPI DUP1 PUSH4 0x56A6D9EF EQ PUSH2 0x204 JUMPI PUSH2 0x114 JUMP JUMPDEST DUP1 PUSH4 0x12065FE0 EQ PUSH2 0x118 JUMPI DUP1 PUSH4 0x16ADA547 EQ PUSH2 0x136 JUMPI DUP1 PUSH4 0x1E83409A EQ PUSH2 0x154 JUMPI DUP1 PUSH4 0x205306B4 EQ PUSH2 0x184 JUMPI JUMPDEST PUSH0 PUSH0 REVERT JUMPDEST PUSH2 0x120 PUSH2 0x326 JUMP JUMPDEST PUSH1 0x40 MLOAD PUSH2 0x12D SWAP2 SWAP1 PUSH2 0xC9C JUMP JUMPDEST PUSH1 0x40 MLOAD DUP1 SWAP2 SUB SWAP1 RETURN JUMPDEST PUSH2 0x13E PUSH2 0x32D JUMP JUMPDEST PUSH1 0x40 MLOAD PUSH2 0x14B SWAP2 SWAP1 PUSH2 0xC9C JUMP JUMPDEST PUSH1 0x40 MLOAD DUP1 SWAP2 SUB SWAP1 RETURN JUMPDEST PUSH2 0x16E PUSH1 0x4 DUP1 CALLDATASIZE SUB DUP2 ADD SWAP1 PUSH2 0x169 SWAP2 SWAP1 PUSH2 0xD20 JUMP JUMPDEST PUSH2 0x334 JUMP JUMPDEST PUSH1 0x40 MLOAD PUSH2 0x17B SWAP2 SWAP1 PUSH2 0xD65 JUMP JUMPDEST PUSH1 0x40 MLOAD DUP1 SWAP2 SUB SWAP1 RETURN JUMPDEST PUSH2 0x18C PUSH2 0x5D1 JUMP JUMPDEST PUSH1 0x40 MLOAD PUSH2 0x199 SWAP2 SWAP1 PUSH2 0xC9C JUMP JUMPDEST PUSH1 0x40 MLOAD DUP1 SWAP2 SUB SWAP1 RETURN JUMPDEST PUSH2 0x1AA PUSH2 0x5D7 JUMP JUMPDEST STOP JUMPDEST PUSH2 0x1B4 PUSH2 0x696 JUMP JUMPDEST STOP JUMPDEST PUSH2 0x1BE PUSH2 0x6A8 JUMP JUMPDEST PUSH1 0x40 MLOAD PUSH2 0x1CB SWAP2 SWAP1 PUSH2 0xD8D JUMP JUMPDEST PUSH1 0x40 MLOAD DUP1 SWAP2 SUB SWAP1 RETURN JUMPDEST PUSH2 0x1EE PUSH1 0x4 DUP1 CALLDATASIZE SUB DUP2 ADD SWAP1 PUSH2 0x1E9 SWAP2 SWAP1 PUSH2 0xDD0 JUMP JUMPDEST PUSH2 0x6CD JUMP JUMPDEST PUSH1 0x40 MLOAD PUSH2 0x1FB SWAP2 SWAP1 PUSH2 0xD65 JUMP JUMPDEST PUSH1 0x40 MLOAD DUP1 SWAP2 SUB SWAP1 RETURN JUMPDEST PUSH2 0x21E PUSH1 0x4 DUP1 CALLDATASIZE SUB DUP2 ADD SWAP1 PUSH2 0x219 SWAP2 SWAP1 PUSH2 0xE36 JUMP JUMPDEST PUSH2 0x71D JUMP JUMPDEST STOP JUMPDEST PUSH2 0x228 PUSH2 0x7D2 JUMP JUMPDEST PUSH1 0x40 MLOAD PUSH2 0x235 SWAP2 SWAP1 PUSH2 0xD65 JUMP JUMPDEST PUSH1 0x40 MLOAD DUP1 SWAP2 SUB SWAP1 RETURN JUMPDEST PUSH2 0x246 PUSH2 0x7E7 JUMP JUMPDEST STOP JUMPDEST PUSH2 0x250 PUSH2 0x7FA JUMP JUMPDEST STOP JUMPDEST PUSH2 0x25A PUSH2 0x80C JUMP JUMPDEST PUSH1 0x40 MLOAD PUSH2 0x267 SWAP2 SWAP1 PUSH2 0xD8D JUMP JUMPDEST PUSH1 0x40 MLOAD DUP1 SWAP2 SUB SWAP1 RETURN JUMPDEST PUSH2 0x28A PUSH1 0x4 DUP1 CALLDATASIZE SUB DUP2 ADD SWAP1 PUSH2 0x285 SWAP2 SWAP1 PUSH2 0xD20 JUMP JUMPDEST PUSH2 0x833 JUMP JUMPDEST PUSH1 0x40 MLOAD PUSH2 0x297 SWAP2 SWAP1 PUSH2 0xD65 JUMP JUMPDEST PUSH1 0x40 MLOAD DUP1 SWAP2 SUB SWAP1 RETURN JUMPDEST PUSH2 0x2BA PUSH1 0x4 DUP1 CALLDATASIZE SUB DUP2 ADD SWAP1 PUSH2 0x2B5 SWAP2 SWAP1 PUSH2 0xFDA JUMP JUMPDEST PUSH2 0x8BC JUMP JUMPDEST STOP JUMPDEST PUSH2 0x2D6 PUSH1 0x4 DUP1 CALLDATASIZE SUB DUP2 ADD SWAP1 PUSH2 0x2D1 SWAP2 SWAP1 PUSH2 0xD20 JUMP JUMPDEST PUSH2 0x939 JUMP JUMPDEST PUSH1 0x40 MLOAD PUSH2 0x2E3 SWAP2 SWAP1 PUSH2 0xC9C JUMP JUMPDEST PUSH1 0x40 MLOAD DUP1 SWAP2 SUB SWAP1 RETURN JUMPDEST PUSH2 0x306 PUSH1 0x4 DUP1 CALLDATASIZE SUB DUP2 ADD SWAP1 PUSH2 0x301 SWAP2 SWAP1 PUSH2 0xD20 JUMP JUMPDEST PUSH2 0x94E JUMP JUMPDEST STOP JUMPDEST PUSH2 0x310 PUSH2 0x9D2 JUMP JUMPDEST PUSH1 0x40 MLOAD PUSH2 0x31D SWAP2 SWAP1 PUSH2 0xC9C JUMP JUMPDEST PUSH1 0x40 MLOAD DUP1 SWAP2 SUB SWAP1 RETURN JUMPDEST PUSH0 SELFBALANCE SWAP1 POP SWAP1 JUMP JUMPDEST PUSH0 TIMESTAMP SWAP1 POP SWAP1 JUMP JUMPDEST PUSH0 PUSH2 0x33D PUSH2 0x9DD JUMP JUMPDEST PUSH2 0x345 PUSH2 0xA64 JUMP JUMPDEST PUSH0 PUSH1 0x4 PUSH0 DUP5 PUSH20 0xFFFFFFFFFFFFFFFFFFFFFFFFFFFFFFFFFFFFFFFF AND PUSH20 0xFFFFFFFFFFFFFFFFFFFFFFFFFFFFFFFFFFFFFFFF AND DUP2 MSTORE PUSH1 0x20 ADD SWAP1 DUP2 MSTORE PUSH1 0x20 ADD PUSH0 KECCAK256 SLOAD GT ISZERO PUSH2 0x49E JUMPI PUSH1 0x4 PUSH0 DUP4 PUSH20 0xFFFFFFFFFFFFFFFFFFFFFFFFFFFFFFFFFFFFFFFF AND PUSH20 0xFFFFFFFFFFFFFFFFFFFFFFFFFFFFFFFFFFFFFFFF AND DUP2 MSTORE PUSH1 0x20 ADD SWAP1 DUP2 MSTORE PUSH1 0x20 ADD PUSH0 KECCAK256 SLOAD PUSH1 0x2 PUSH0 SWAP1 SLOAD SWAP1 PUSH2 0x100 EXP SWAP1 DIV PUSH20 0xFFFFFFFFFFFFFFFFFFFFFFFFFFFFFFFFFFFFFFFF AND PUSH20 0xFFFFFFFFFFFFFFFFFFFFFFFFFFFFFFFFFFFFFFFF AND PUSH4 0x70A08231 DUP5 PUSH1 0x40 MLOAD DUP3 PUSH4 0xFFFFFFFF AND PUSH1 0xE0 SHL DUP2 MSTORE PUSH1 0x4 ADD PUSH2 0x422 SWAP2 SWAP1 PUSH2 0xD8D JUMP JUMPDEST PUSH1 0x20 PUSH1 0x40 MLOAD DUP1 DUP4 SUB DUP2 DUP7 GAS STATICCALL ISZERO DUP1 ISZERO PUSH2 0x43D JUMPI RETURNDATASIZE PUSH0 PUSH0 RETURNDATACOPY RETURNDATASIZE PUSH0 REVERT JUMPDEST POP POP POP POP PUSH1 0x40 MLOAD RETURNDATASIZE PUSH1 0x1F NOT PUSH1 0x1F DUP3 ADD AND DUP3 ADD DUP1 PUSH1 0x40 MSTORE POP DUP2 ADD SWAP1 PUSH2 0x461 SWAP2 SWAP1 PUSH2 0x1081 JUMP JUMPDEST PUSH1 0x40 MLOAD PUSH32 0xBBAE19E600000000000000000000000000000000000000000000000000000000 DUP2 MSTORE PUSH1 0x4 ADD PUSH2 0x495 SWAP3 SWAP2 SWAP1 PUSH2 0x10AC JUMP JUMPDEST PUSH1 0x40 MLOAD DUP1 SWAP2 SUB SWAP1 REVERT JUMPDEST PUSH1 0x2 PUSH0 SWAP1 SLOAD SWAP1 PUSH2 0x100 EXP SWAP1 DIV PUSH20 0xFFFFFFFFFFFFFFFFFFFFFFFFFFFFFFFFFFFFFFFF AND PUSH20 0xFFFFFFFFFFFFFFFFFFFFFFFFFFFFFFFFFFFFFFFF AND PUSH4 0x760D9BBA ADDRESS DUP5 PUSH1 0x3 SLOAD PUSH1 0x1 PUSH1 0x40 MLOAD DUP6 PUSH4 0xFFFFFFFF AND PUSH1 0xE0 SHL DUP2 MSTORE PUSH1 0x4 ADD PUSH2 0x501 SWAP5 SWAP4 SWAP3 SWAP2 SWAP1 PUSH2 0x1106 JUMP JUMPDEST PUSH0 PUSH1 0x40 MLOAD DUP1 DUP4 SUB DUP2 PUSH0 DUP8 DUP1 EXTCODESIZE ISZERO DUP1 ISZERO PUSH2 0x518 JUMPI PUSH0 PUSH0 REVERT JUMPDEST POP GAS CALL ISZERO DUP1 ISZERO PUSH2 0x52A JUMPI RETURNDATASIZE PUSH0 PUSH0 RETURNDATACOPY RETURNDATASIZE PUSH0 REVERT JUMPDEST POP POP POP POP PUSH2 0x538 PUSH1 0x1 PUSH2 0xAA5 JUMP JUMPDEST TIMESTAMP PUSH1 0x4 PUSH0 DUP5 PUSH20 0xFFFFFFFFFFFFFFFFFFFFFFFFFFFFFFFFFFFFFFFF AND PUSH20 0xFFFFFFFFFFFFFFFFFFFFFFFFFFFFFFFFFFFFFFFF AND DUP2 MSTORE PUSH1 0x20 ADD SWAP1 DUP2 MSTORE PUSH1 0x20 ADD PUSH0 KECCAK256 DUP2 SWAP1 SSTORE POP DUP2 PUSH20 0xFFFFFFFFFFFFFFFFFFFFFFFFFFFFFFFFFFFFFFFF AND PUSH32 0xD8138F8A3F377C5259CA548E70E4C2DE94F129F5A11036A15B69513CBA2B426A TIMESTAMP PUSH1 0x40 MLOAD PUSH2 0x5C0 SWAP2 SWAP1 PUSH2 0xC9C JUMP JUMPDEST PUSH1 0x40 MLOAD DUP1 SWAP2 SUB SWAP1 LOG2 PUSH1 0x1 SWAP1 POP SWAP2 SWAP1 POP JUMP JUMPDEST PUSH1 0x3 SLOAD DUP2 JUMP JUMPDEST PUSH2 0x5DF PUSH2 0x9DD JUMP JUMPDEST PUSH0 SELFBALANCE SWAP1 POP PUSH0 PUSH2 0x5EC PUSH2 0x80C JUMP JUMPDEST PUSH20 0xFFFFFFFFFFFFFFFFFFFFFFFFFFFFFFFFFFFFFFFF AND DUP3 PUSH1 0x40 MLOAD PUSH2 0x60F SWAP1 PUSH2 0x1186 JUMP JUMPDEST PUSH0 PUSH1 0x40 MLOAD DUP1 DUP4 SUB DUP2 DUP6 DUP8 GAS CALL SWAP3 POP POP POP RETURNDATASIZE DUP1 PUSH0 DUP2 EQ PUSH2 0x649 JUMPI PUSH1 0x40 MLOAD SWAP2 POP PUSH1 0x1F NOT PUSH1 0x3F RETURNDATASIZE ADD AND DUP3 ADD PUSH1 0x40 MSTORE RETURNDATASIZE DUP3 MSTORE RETURNDATASIZE PUSH0 PUSH1 0x20 DUP5 ADD RETURNDATACOPY PUSH2 0x64E JUMP JUMPDEST PUSH1 0x60 SWAP2 POP JUMPDEST POP POP SWAP1 POP DUP1 PUSH2 0x692 JUMPI PUSH1 0x40 MLOAD PUSH32 0x8C379A000000000000000000000000000000000000000000000000000000000 DUP2 MSTORE PUSH1 0x4 ADD PUSH2 0x689 SWAP1 PUSH2 0x11F4 JUMP JUMPDEST PUSH1 0x40 MLOAD DUP1 SWAP2 SUB SWAP1 REVERT JUMPDEST POP POP JUMP JUMPDEST PUSH2 0x69E PUSH2 0x9DD JUMP JUMPDEST PUSH2 0x6A6 PUSH2 0xAB9 JUMP JUMPDEST JUMP JUMPDEST PUSH1 0x2 PUSH0 SWAP1 SLOAD SWAP1 PUSH2 0x100 EXP SWAP1 DIV PUSH20 0xFFFFFFFFFFFFFFFFFFFFFFFFFFFFFFFFFFFFFFFF AND DUP2 JUMP JUMPDEST PUSH0 PUSH2 0x6D6 PUSH2 0x9DD JUMP JUMPDEST DUP2 PUSH1 0x3 DUP2 SWAP1 SSTORE POP PUSH32 0xCCC2DC361DC3B02936A3D99C4CD064DE1BBBB59A03AAAD640D302E18F7AACDFB DUP3 PUSH1 0x40 MLOAD PUSH2 0x70C SWAP2 SWAP1 PUSH2 0xC9C JUMP JUMPDEST PUSH1 0x40 MLOAD DUP1 SWAP2 SUB SWAP1 LOG1 PUSH1 0x1 SWAP1 POP SWAP2 SWAP1 POP JUMP JUMPDEST PUSH2 0x725 PUSH2 0x9DD JUMP JUMPDEST PUSH0 DUP3 PUSH20 0xFFFFFFFFFFFFFFFFFFFFFFFFFFFFFFFFFFFFFFFF AND DUP3 PUSH1 0x40 MLOAD PUSH2 0x74A SWAP1 PUSH2 0x1186 JUMP JUMPDEST PUSH0 PUSH1 0x40 MLOAD DUP1 DUP4 SUB DUP2 DUP6 DUP8 GAS CALL SWAP3 POP POP POP RETURNDATASIZE DUP1 PUSH0 DUP2 EQ PUSH2 0x784 JUMPI PUSH1 0x40 MLOAD SWAP2 POP PUSH1 0x1F NOT PUSH1 0x3F RETURNDATASIZE ADD AND DUP3 ADD PUSH1 0x40 MSTORE RETURNDATASIZE DUP3 MSTORE RETURNDATASIZE PUSH0 PUSH1 0x20 DUP5 ADD RETURNDATACOPY PUSH2 0x789 JUMP JUMPDEST PUSH1 0x60 SWAP2 POP JUMPDEST POP POP SWAP1 POP DUP1 PUSH2 0x7CD JUMPI PUSH1 0x40 MLOAD PUSH32 0x8C379A000000000000000000000000000000000000000000000000000000000 DUP2 MSTORE PUSH1 0x4 ADD PUSH2 0x7C4 SWAP1 PUSH2 0x11F4 JUMP JUMPDEST PUSH1 0x40 MLOAD DUP1 SWAP2 SUB SWAP1 REVERT JUMPDEST POP POP POP JUMP JUMPDEST PUSH0 PUSH0 PUSH1 0x14 SWAP1 SLOAD SWAP1 PUSH2 0x100 EXP SWAP1 DIV PUSH1 0xFF AND SWAP1 POP SWAP1 JUMP JUMPDEST PUSH2 0x7EF PUSH2 0x9DD JUMP JUMPDEST PUSH2 0x7F8 PUSH0 PUSH2 0xB1A JUMP JUMPDEST JUMP JUMPDEST PUSH2 0x802 PUSH2 0x9DD JUMP JUMPDEST PUSH2 0x80A PUSH2 0xBDB JUMP JUMPDEST JUMP JUMPDEST PUSH0 PUSH0 PUSH0 SWAP1 SLOAD SWAP1 PUSH2 0x100 EXP SWAP1 DIV PUSH20 0xFFFFFFFFFFFFFFFFFFFFFFFFFFFFFFFFFFFFFFFF AND SWAP1 POP SWAP1 JUMP JUMPDEST PUSH0 PUSH2 0x83C PUSH2 0x9DD JUMP JUMPDEST DUP2 PUSH1 0x2 PUSH0 PUSH2 0x100 EXP DUP2 SLOAD DUP2 PUSH20 0xFFFFFFFFFFFFFFFFFFFFFFFFFFFFFFFFFFFFFFFF MUL NOT AND SWAP1 DUP4 PUSH20 0xFFFFFFFFFFFFFFFFFFFFFFFFFFFFFFFFFFFFFFFF AND MUL OR SWAP1 SSTORE POP PUSH32 0xF9563F2FF8321C25EC4EE92F781A8D3EBC72F854DAA4BF9177F3886B6CA1F7E1 DUP3 PUSH1 0x40 MLOAD PUSH2 0x8AB SWAP2 SWAP1 PUSH2 0xD8D JUMP JUMPDEST PUSH1 0x40 MLOAD DUP1 SWAP2 SUB SWAP1 LOG1 PUSH1 0x1 SWAP1 POP SWAP2 SWAP1 POP JUMP JUMPDEST PUSH2 0x8C4 PUSH2 0x9DD JUMP JUMPDEST DUP5 PUSH20 0xFFFFFFFFFFFFFFFFFFFFFFFFFFFFFFFFFFFFFFFF AND PUSH4 0x760D9BBA ADDRESS DUP7 DUP7 DUP7 DUP7 PUSH1 0x40 MLOAD DUP7 PUSH4 0xFFFFFFFF AND PUSH1 0xE0 SHL DUP2 MSTORE PUSH1 0x4 ADD PUSH2 0x905 SWAP6 SWAP5 SWAP4 SWAP3 SWAP2 SWAP1 PUSH2 0x1262 JUMP JUMPDEST PUSH0 PUSH1 0x40 MLOAD DUP1 DUP4 SUB DUP2 PUSH0 DUP8 DUP1 EXTCODESIZE ISZERO DUP1 ISZERO PUSH2 0x91C JUMPI PUSH0 PUSH0 REVERT JUMPDEST POP GAS CALL ISZERO DUP1 ISZERO PUSH2 0x92E JUMPI RETURNDATASIZE PUSH0 PUSH0 RETURNDATACOPY RETURNDATASIZE PUSH0 REVERT JUMPDEST POP POP POP POP POP POP POP POP POP JUMP JUMPDEST PUSH1 0x4 PUSH1 0x20 MSTORE DUP1 PUSH0 MSTORE PUSH1 0x40 PUSH0 KECCAK256 PUSH0 SWAP2 POP SWAP1 POP SLOAD DUP2 JUMP JUMPDEST PUSH2 0x956 PUSH2 0x9DD JUMP JUMPDEST PUSH0 PUSH20 0xFFFFFFFFFFFFFFFFFFFFFFFFFFFFFFFFFFFFFFFF AND DUP2 PUSH20 0xFFFFFFFFFFFFFFFFFFFFFFFFFFFFFFFFFFFFFFFF AND SUB PUSH2 0x9C6 JUMPI PUSH0 PUSH1 0x40 MLOAD PUSH32 0x1E4FBDF700000000000000000000000000000000000000000000000000000000 DUP2 MSTORE PUSH1 0x4 ADD PUSH2 0x9BD SWAP2 SWAP1 PUSH2 0xD8D JUMP JUMPDEST PUSH1 0x40 MLOAD DUP1 SWAP2 SUB SWAP1 REVERT JUMPDEST PUSH2 0x9CF DUP2 PUSH2 0xB1A JUMP JUMPDEST POP JUMP JUMPDEST PUSH1 0x1 DUP1 PUSH0 ADD SLOAD SWAP1 POP DUP2 JUMP JUMPDEST PUSH2 0x9E5 PUSH2 0xC3D JUMP JUMPDEST PUSH20 0xFFFFFFFFFFFFFFFFFFFFFFFFFFFFFFFFFFFFFFFF AND PUSH2 0xA03 PUSH2 0x80C JUMP JUMPDEST PUSH20 0xFFFFFFFFFFFFFFFFFFFFFFFFFFFFFFFFFFFFFFFF AND EQ PUSH2 0xA62 JUMPI PUSH2 0xA26 PUSH2 0xC3D JUMP JUMPDEST PUSH1 0x40 MLOAD PUSH32 0x118CDAA700000000000000000000000000000000000000000000000000000000 DUP2 MSTORE PUSH1 0x4 ADD PUSH2 0xA59 SWAP2 SWAP1 PUSH2 0xD8D JUMP JUMPDEST PUSH1 0x40 MLOAD DUP1 SWAP2 SUB SWAP1 REVERT JUMPDEST JUMP JUMPDEST PUSH2 0xA6C PUSH2 0x7D2 JUMP JUMPDEST ISZERO PUSH2 0xAA3 JUMPI PUSH1 0x40 MLOAD PUSH32 0xD93C066500000000000000000000000000000000000000000000000000000000 DUP2 MSTORE PUSH1 0x4 ADD PUSH1 0x40 MLOAD DUP1 SWAP2 SUB SWAP1 REVERT JUMPDEST JUMP JUMPDEST PUSH1 0x1 DUP2 PUSH0 ADD PUSH0 DUP3 DUP3 SLOAD ADD SWAP3 POP POP DUP2 SWAP1 SSTORE POP POP JUMP JUMPDEST PUSH2 0xAC1 PUSH2 0xC44 JUMP JUMPDEST PUSH0 PUSH0 PUSH1 0x14 PUSH2 0x100 EXP DUP2 SLOAD DUP2 PUSH1 0xFF MUL NOT AND SWAP1 DUP4 ISZERO ISZERO MUL OR SWAP1 SSTORE POP PUSH32 0x5DB9EE0A495BF2E6FF9C91A7834C1BA4FDD244A5E8AA4E537BD38AEAE4B073AA PUSH2 0xB03 PUSH2 0xC3D JUMP JUMPDEST PUSH1 0x40 MLOAD PUSH2 0xB10 SWAP2 SWAP1 PUSH2 0xD8D JUMP JUMPDEST PUSH1 0x40 MLOAD DUP1 SWAP2 SUB SWAP1 LOG1 JUMP JUMPDEST PUSH0 PUSH0 PUSH0 SWAP1 SLOAD SWAP1 PUSH2 0x100 EXP SWAP1 DIV PUSH20 0xFFFFFFFFFFFFFFFFFFFFFFFFFFFFFFFFFFFFFFFF AND SWAP1 POP DUP2 PUSH0 PUSH0 PUSH2 0x100 EXP DUP2 SLOAD DUP2 PUSH20 0xFFFFFFFFFFFFFFFFFFFFFFFFFFFFFFFFFFFFFFFF MUL NOT AND SWAP1 DUP4 PUSH20 0xFFFFFFFFFFFFFFFFFFFFFFFFFFFFFFFFFFFFFFFF AND MUL OR SWAP1 SSTORE POP DUP2 PUSH20 0xFFFFFFFFFFFFFFFFFFFFFFFFFFFFFFFFFFFFFFFF AND DUP2 PUSH20 0xFFFFFFFFFFFFFFFFFFFFFFFFFFFFFFFFFFFFFFFF AND PUSH32 0x8BE0079C531659141344CD1FD0A4F28419497F9722A3DAAFE3B4186F6B6457E0 PUSH1 0x40 MLOAD PUSH1 0x40 MLOAD DUP1 SWAP2 SUB SWAP1 LOG3 POP POP JUMP JUMPDEST PUSH2 0xBE3 PUSH2 0xA64 JUMP JUMPDEST PUSH1 0x1 PUSH0 PUSH1 0x14 PUSH2 0x100 EXP DUP2 SLOAD DUP2 PUSH1 0xFF MUL NOT AND SWAP1 DUP4 ISZERO ISZERO MUL OR SWAP1 SSTORE POP PUSH32 0x62E78CEA01BEE320CD4E420270B5EA74000D11B0C9F74754EBDBFC544B05A258 PUSH2 0xC26 PUSH2 0xC3D JUMP JUMPDEST PUSH1 0x40 MLOAD PUSH2 0xC33 SWAP2 SWAP1 PUSH2 0xD8D JUMP JUMPDEST PUSH1 0x40 MLOAD DUP1 SWAP2 SUB SWAP1 LOG1 JUMP JUMPDEST PUSH0 CALLER SWAP1 POP SWAP1 JUMP JUMPDEST PUSH2 0xC4C PUSH2 0x7D2 JUMP JUMPDEST PUSH2 0xC82 JUMPI PUSH1 0x40 MLOAD PUSH32 0x8DFC202B00000000000000000000000000000000000000000000000000000000 DUP2 MSTORE PUSH1 0x4 ADD PUSH1 0x40 MLOAD DUP1 SWAP2 SUB SWAP1 REVERT JUMPDEST JUMP JUMPDEST PUSH0 DUP2 SWAP1 POP SWAP2 SWAP1 POP JUMP JUMPDEST PUSH2 0xC96 DUP2 PUSH2 0xC84 JUMP JUMPDEST DUP3 MSTORE POP POP JUMP JUMPDEST PUSH0 PUSH1 0x20 DUP3 ADD SWAP1 POP PUSH2 0xCAF PUSH0 DUP4 ADD DUP5 PUSH2 0xC8D JUMP JUMPDEST SWAP3 SWAP2 POP POP JUMP JUMPDEST PUSH0 PUSH1 0x40 MLOAD SWAP1 POP SWAP1 JUMP JUMPDEST PUSH0 PUSH0 REVERT JUMPDEST PUSH0 PUSH0 REVERT JUMPDEST PUSH0 PUSH20 0xFFFFFFFFFFFFFFFFFFFFFFFFFFFFFFFFFFFFFFFF DUP3 AND SWAP1 POP SWAP2 SWAP1 POP JUMP JUMPDEST PUSH0 PUSH2 0xCEF DUP3 PUSH2 0xCC6 JUMP JUMPDEST SWAP1 POP SWAP2 SWAP1 POP JUMP JUMPDEST PUSH2 0xCFF DUP2 PUSH2 0xCE5 JUMP JUMPDEST DUP2 EQ PUSH2 0xD09 JUMPI PUSH0 PUSH0 REVERT JUMPDEST POP JUMP JUMPDEST PUSH0 DUP2 CALLDATALOAD SWAP1 POP PUSH2 0xD1A DUP2 PUSH2 0xCF6 JUMP JUMPDEST SWAP3 SWAP2 POP POP JUMP JUMPDEST PUSH0 PUSH1 0x20 DUP3 DUP5 SUB SLT ISZERO PUSH2 0xD35 JUMPI PUSH2 0xD34 PUSH2 0xCBE JUMP JUMPDEST JUMPDEST PUSH0 PUSH2 0xD42 DUP5 DUP3 DUP6 ADD PUSH2 0xD0C JUMP JUMPDEST SWAP2 POP POP SWAP3 SWAP2 POP POP JUMP JUMPDEST PUSH0 DUP2 ISZERO ISZERO SWAP1 POP SWAP2 SWAP1 POP JUMP JUMPDEST PUSH2 0xD5F DUP2 PUSH2 0xD4B JUMP JUMPDEST DUP3 MSTORE POP POP JUMP JUMPDEST PUSH0 PUSH1 0x20 DUP3 ADD SWAP1 POP PUSH2 0xD78 PUSH0 DUP4 ADD DUP5 PUSH2 0xD56 JUMP JUMPDEST SWAP3 SWAP2 POP POP JUMP JUMPDEST PUSH2 0xD87 DUP2 PUSH2 0xCE5 JUMP JUMPDEST DUP3 MSTORE POP POP JUMP JUMPDEST PUSH0 PUSH1 0x20 DUP3 ADD SWAP1 POP PUSH2 0xDA0 PUSH0 DUP4 ADD DUP5 PUSH2 0xD7E JUMP JUMPDEST SWAP3 SWAP2 POP POP JUMP JUMPDEST PUSH2 0xDAF DUP2 PUSH2 0xC84 JUMP JUMPDEST DUP2 EQ PUSH2 0xDB9 JUMPI PUSH0 PUSH0 REVERT JUMPDEST POP JUMP JUMPDEST PUSH0 DUP2 CALLDATALOAD SWAP1 POP PUSH2 0xDCA DUP2 PUSH2 0xDA6 JUMP JUMPDEST SWAP3 SWAP2 POP POP JUMP JUMPDEST PUSH0 PUSH1 0x20 DUP3 DUP5 SUB SLT ISZERO PUSH2 0xDE5 JUMPI PUSH2 0xDE4 PUSH2 0xCBE JUMP JUMPDEST JUMPDEST PUSH0 PUSH2 0xDF2 DUP5 DUP3 DUP6 ADD PUSH2 0xDBC JUMP JUMPDEST SWAP2 POP POP SWAP3 SWAP2 POP POP JUMP JUMPDEST PUSH0 PUSH2 0xE05 DUP3 PUSH2 0xCC6 JUMP JUMPDEST SWAP1 POP SWAP2 SWAP1 POP JUMP JUMPDEST PUSH2 0xE15 DUP2 PUSH2 0xDFB JUMP JUMPDEST DUP2 EQ PUSH2 0xE1F JUMPI PUSH0 PUSH0 REVERT JUMPDEST POP JUMP JUMPDEST PUSH0 DUP2 CALLDATALOAD SWAP1 POP PUSH2 0xE30 DUP2 PUSH2 0xE0C JUMP JUMPDEST SWAP3 SWAP2 POP POP JUMP JUMPDEST PUSH0 PUSH0 PUSH1 0x40 DUP4 DUP6 SUB SLT ISZERO PUSH2 0xE4C JUMPI PUSH2 0xE4B PUSH2 0xCBE JUMP JUMPDEST JUMPDEST PUSH0 PUSH2 0xE59 DUP6 DUP3 DUP7 ADD PUSH2 0xE22 JUMP JUMPDEST SWAP3 POP POP PUSH1 0x20 PUSH2 0xE6A DUP6 DUP3 DUP7 ADD PUSH2 0xDBC JUMP JUMPDEST SWAP2 POP POP SWAP3 POP SWAP3 SWAP1 POP JUMP JUMPDEST PUSH2 0xE7D DUP2 PUSH2 0xD4B JUMP JUMPDEST DUP2 EQ PUSH2 0xE87 JUMPI PUSH0 PUSH0 REVERT JUMPDEST POP JUMP JUMPDEST PUSH0 DUP2 CALLDATALOAD SWAP1 POP PUSH2 0xE98 DUP2 PUSH2 0xE74 JUMP JUMPDEST SWAP3 SWAP2 POP POP JUMP JUMPDEST PUSH0 PUSH0 REVERT JUMPDEST PUSH0 PUSH0 REVERT JUMPDEST PUSH0 PUSH1 0x1F NOT PUSH1 0x1F DUP4 ADD AND SWAP1 POP SWAP2 SWAP1 POP JUMP JUMPDEST PUSH32 0x4E487B7100000000000000000000000000000000000000000000000000000000 PUSH0 MSTORE PUSH1 0x41 PUSH1 0x4 MSTORE PUSH1 0x24 PUSH0 REVERT JUMPDEST PUSH2 0xEEC DUP3 PUSH2 0xEA6 JUMP JUMPDEST DUP2 ADD DUP2 DUP2 LT PUSH8 0xFFFFFFFFFFFFFFFF DUP3 GT OR ISZERO PUSH2 0xF0B JUMPI PUSH2 0xF0A PUSH2 0xEB6 JUMP JUMPDEST JUMPDEST DUP1 PUSH1 0x40 MSTORE POP POP POP JUMP JUMPDEST PUSH0 PUSH2 0xF1D PUSH2 0xCB5 JUMP JUMPDEST SWAP1 POP PUSH2 0xF29 DUP3 DUP3 PUSH2 0xEE3 JUMP JUMPDEST SWAP2 SWAP1 POP JUMP JUMPDEST PUSH0 PUSH8 0xFFFFFFFFFFFFFFFF DUP3 GT ISZERO PUSH2 0xF48 JUMPI PUSH2 0xF47 PUSH2 0xEB6 JUMP JUMPDEST JUMPDEST PUSH2 0xF51 DUP3 PUSH2 0xEA6 JUMP JUMPDEST SWAP1 POP PUSH1 0x20 DUP2 ADD SWAP1 POP SWAP2 SWAP1 POP JUMP JUMPDEST DUP3 DUP2 DUP4 CALLDATACOPY PUSH0 DUP4 DUP4 ADD MSTORE POP POP POP JUMP JUMPDEST PUSH0 PUSH2 0xF7E PUSH2 0xF79 DUP5 PUSH2 0xF2E JUMP JUMPDEST PUSH2 0xF14 JUMP JUMPDEST SWAP1 POP DUP3 DUP2 MSTORE PUSH1 0x20 DUP2 ADD DUP5 DUP5 DUP5 ADD GT ISZERO PUSH2 0xF9A JUMPI PUSH2 0xF99 PUSH2 0xEA2 JUMP JUMPDEST JUMPDEST PUSH2 0xFA5 DUP5 DUP3 DUP6 PUSH2 0xF5E JUMP JUMPDEST POP SWAP4 SWAP3 POP POP POP JUMP JUMPDEST PUSH0 DUP3 PUSH1 0x1F DUP4 ADD SLT PUSH2 0xFC1 JUMPI PUSH2 0xFC0 PUSH2 0xE9E JUMP JUMPDEST JUMPDEST DUP2 CALLDATALOAD PUSH2 0xFD1 DUP5 DUP3 PUSH1 0x20 DUP7 ADD PUSH2 0xF6C JUMP JUMPDEST SWAP2 POP POP SWAP3 SWAP2 POP POP JUMP JUMPDEST PUSH0 PUSH0 PUSH0 PUSH0 PUSH0 PUSH1 0xA0 DUP7 DUP9 SUB SLT ISZERO PUSH2 0xFF3 JUMPI PUSH2 0xFF2 PUSH2 0xCBE JUMP JUMPDEST JUMPDEST PUSH0 PUSH2 0x1000 DUP9 DUP3 DUP10 ADD PUSH2 0xD0C JUMP JUMPDEST SWAP6 POP POP PUSH1 0x20 PUSH2 0x1011 DUP9 DUP3 DUP10 ADD PUSH2 0xD0C JUMP JUMPDEST SWAP5 POP POP PUSH1 0x40 PUSH2 0x1022 DUP9 DUP3 DUP10 ADD PUSH2 0xDBC JUMP JUMPDEST SWAP4 POP POP PUSH1 0x60 PUSH2 0x1033 DUP9 DUP3 DUP10 ADD PUSH2 0xE8A JUMP JUMPDEST SWAP3 POP POP PUSH1 0x80 DUP7 ADD CALLDATALOAD PUSH8 0xFFFFFFFFFFFFFFFF DUP2 GT ISZERO PUSH2 0x1054 JUMPI PUSH2 0x1053 PUSH2 0xCC2 JUMP JUMPDEST JUMPDEST PUSH2 0x1060 DUP9 DUP3 DUP10 ADD PUSH2 0xFAD JUMP JUMPDEST SWAP2 POP POP SWAP3 SWAP6 POP SWAP3 SWAP6 SWAP1 SWAP4 POP JUMP JUMPDEST PUSH0 DUP2 MLOAD SWAP1 POP PUSH2 0x107B DUP2 PUSH2 0xDA6 JUMP JUMPDEST SWAP3 SWAP2 POP POP JUMP JUMPDEST PUSH0 PUSH1 0x20 DUP3 DUP5 SUB SLT ISZERO PUSH2 0x1096 JUMPI PUSH2 0x1095 PUSH2 0xCBE JUMP JUMPDEST JUMPDEST PUSH0 PUSH2 0x10A3 DUP5 DUP3 DUP6 ADD PUSH2 0x106D JUMP JUMPDEST SWAP2 POP POP SWAP3 SWAP2 POP POP JUMP JUMPDEST PUSH0 PUSH1 0x40 DUP3 ADD SWAP1 POP PUSH2 0x10BF PUSH0 DUP4 ADD DUP6 PUSH2 0xC8D JUMP JUMPDEST PUSH2 0x10CC PUSH1 0x20 DUP4 ADD DUP5 PUSH2 0xC8D JUMP JUMPDEST SWAP4 SWAP3 POP POP POP JUMP JUMPDEST PUSH0 DUP3 DUP3 MSTORE PUSH1 0x20 DUP3 ADD SWAP1 POP SWAP3 SWAP2 POP POP JUMP JUMPDEST POP JUMP JUMPDEST PUSH0 PUSH2 0x10F1 PUSH0 DUP4 PUSH2 0x10D3 JUMP JUMPDEST SWAP2 POP PUSH2 0x10FC DUP3 PUSH2 0x10E3 JUMP JUMPDEST PUSH0 DUP3 ADD SWAP1 POP SWAP2 SWAP1 POP JUMP JUMPDEST PUSH0 PUSH1 0xA0 DUP3 ADD SWAP1 POP PUSH2 0x1119 PUSH0 DUP4 ADD DUP8 PUSH2 0xD7E JUMP JUMPDEST PUSH2 0x1126 PUSH1 0x20 DUP4 ADD DUP7 PUSH2 0xD7E JUMP JUMPDEST PUSH2 0x1133 PUSH1 0x40 DUP4 ADD DUP6 PUSH2 0xC8D JUMP JUMPDEST PUSH2 0x1140 PUSH1 0x60 DUP4 ADD DUP5 PUSH2 0xD56 JUMP JUMPDEST DUP2 DUP2 SUB PUSH1 0x80 DUP4 ADD MSTORE PUSH2 0x1151 DUP2 PUSH2 0x10E6 JUMP JUMPDEST SWAP1 POP SWAP6 SWAP5 POP POP POP POP POP JUMP JUMPDEST PUSH0 DUP2 SWAP1 POP SWAP3 SWAP2 POP POP JUMP JUMPDEST PUSH0 PUSH2 0x1171 PUSH0 DUP4 PUSH2 0x115C JUMP JUMPDEST SWAP2 POP PUSH2 0x117C DUP3 PUSH2 0x10E3 JUMP JUMPDEST PUSH0 DUP3 ADD SWAP1 POP SWAP2 SWAP1 POP JUMP JUMPDEST PUSH0 PUSH2 0x1190 DUP3 PUSH2 0x1166 JUMP JUMPDEST SWAP2 POP DUP2 SWAP1 POP SWAP2 SWAP1 POP JUMP JUMPDEST PUSH0 DUP3 DUP3 MSTORE PUSH1 0x20 DUP3 ADD SWAP1 POP SWAP3 SWAP2 POP POP JUMP JUMPDEST PUSH32 0x4661696C65640000000000000000000000000000000000000000000000000000 PUSH0 DUP3 ADD MSTORE POP JUMP JUMPDEST PUSH0 PUSH2 0x11DE PUSH1 0x6 DUP4 PUSH2 0x119A JUMP JUMPDEST SWAP2 POP PUSH2 0x11E9 DUP3 PUSH2 0x11AA JUMP JUMPDEST PUSH1 0x20 DUP3 ADD SWAP1 POP SWAP2 SWAP1 POP JUMP JUMPDEST PUSH0 PUSH1 0x20 DUP3 ADD SWAP1 POP DUP2 DUP2 SUB PUSH0 DUP4 ADD MSTORE PUSH2 0x120B DUP2 PUSH2 0x11D2 JUMP JUMPDEST SWAP1 POP SWAP2 SWAP1 POP JUMP JUMPDEST PUSH0 DUP2 MLOAD SWAP1 POP SWAP2 SWAP1 POP JUMP JUMPDEST DUP3 DUP2 DUP4 MCOPY PUSH0 DUP4 DUP4 ADD MSTORE POP POP POP JUMP JUMPDEST PUSH0 PUSH2 0x1234 DUP3 PUSH2 0x1212 JUMP JUMPDEST PUSH2 0x123E DUP2 DUP6 PUSH2 0x10D3 JUMP JUMPDEST SWAP4 POP PUSH2 0x124E DUP2 DUP6 PUSH1 0x20 DUP7 ADD PUSH2 0x121C JUMP JUMPDEST PUSH2 0x1257 DUP2 PUSH2 0xEA6 JUMP JUMPDEST DUP5 ADD SWAP2 POP POP SWAP3 SWAP2 POP POP JUMP JUMPDEST PUSH0 PUSH1 0xA0 DUP3 ADD SWAP1 POP PUSH2 0x1275 PUSH0 DUP4 ADD DUP9 PUSH2 0xD7E JUMP JUMPDEST PUSH2 0x1282 PUSH1 0x20 DUP4 ADD DUP8 PUSH2 0xD7E JUMP JUMPDEST PUSH2 0x128F PUSH1 0x40 DUP4 ADD DUP7 PUSH2 0xC8D JUMP JUMPDEST PUSH2 0x129C PUSH1 0x60 DUP4 ADD DUP6 PUSH2 0xD56 JUMP JUMPDEST DUP2 DUP2 SUB PUSH1 0x80 DUP4 ADD MSTORE PUSH2 0x12AE DUP2 DUP5 PUSH2 0x122A JUMP JUMPDEST SWAP1 POP SWAP7 SWAP6 POP POP POP POP POP POP JUMP INVALID LOG2 PUSH5 0x6970667358 0x22 SLT KECCAK256 0xEF 0xC7 PUSH21 0x138BD4E9619769E43D00E4C44C1C8F8F32088CEEFA 0xC1 SWAP4 SELFBALANCE LOG2 DUP3 0x2E PUSH22 0x6064736F6C634300081C003300000000000000000000 "
				},
				"gasEstimates": {
					"creation": {
						"codeDepositCost": "969600",
						"executionCost": "infinite",
						"totalCost": "infinite"
					},
					"external": {
						"_claimCounter()": "2548",
						"amountToClaim()": "2515",
						"claim(address)": "infinite",
						"claimed(address)": "2868",
						"getBalance()": "358",
						"owner()": "2603",
						"pause()": "infinite",
						"paused()": "2546",
						"renounceOwnership()": "infinite",
						"time()": "377",
						"tokenToClaim()": "2575",
						"transferBalance(address,uint256)": "infinite",
						"transferOwnership(address)": "infinite",
						"unpause()": "infinite",
						"updateAmountToClaim(uint256)": "infinite",
						"updateTokenToClaim(address)": "infinite",
						"withdraw()": "infinite",
						"withdrawLSP7(address,address,uint256,bool,bytes)": "infinite"
					}
				},
				"methodIdentifiers": {
					"_claimCounter()": "fb2228fe",
					"amountToClaim()": "205306b4",
					"claim(address)": "1e83409a",
					"claimed(address)": "c884ef83",
					"getBalance()": "12065fe0",
					"owner()": "8da5cb5b",
					"pause()": "8456cb59",
					"paused()": "5c975abb",
					"renounceOwnership()": "715018a6",
					"time()": "16ada547",
					"tokenToClaim()": "4875590a",
					"transferBalance(address,uint256)": "56a6d9ef",
					"transferOwnership(address)": "f2fde38b",
					"unpause()": "3f4ba83a",
					"updateAmountToClaim(uint256)": "53a4cff4",
					"updateTokenToClaim(address)": "af66ef65",
					"withdraw()": "3ccfd60b",
					"withdrawLSP7(address,address,uint256,bool,bytes)": "b8de4343"
				}
			},
			"storageLayout": {
				"storage": [
					{
						"astId": 5432,
						"contract": "AIAirdrop.sol:AIAirdrop",
						"label": "_owner",
						"offset": 0,
						"slot": "0",
						"type": "t_address"
					},
					{
						"astId": 5580,
						"contract": "AIAirdrop.sol:AIAirdrop",
						"label": "_paused",
						"offset": 20,
						"slot": "0",
						"type": "t_bool"
					},
					{
						"astId": 5135,
						"contract": "AIAirdrop.sol:AIAirdrop",
						"label": "_claimCounter",
						"offset": 0,
						"slot": "1",
						"type": "t_struct(Counter)264_storage"
					},
					{
						"astId": 5137,
						"contract": "AIAirdrop.sol:AIAirdrop",
						"label": "tokenToClaim",
						"offset": 0,
						"slot": "2",
						"type": "t_address"
					},
					{
						"astId": 5140,
						"contract": "AIAirdrop.sol:AIAirdrop",
						"label": "amountToClaim",
						"offset": 0,
						"slot": "3",
						"type": "t_uint256"
					},
					{
						"astId": 5144,
						"contract": "AIAirdrop.sol:AIAirdrop",
						"label": "claimed",
						"offset": 0,
						"slot": "4",
						"type": "t_mapping(t_address,t_uint256)"
					}
				],
				"types": {
					"t_address": {
						"encoding": "inplace",
						"label": "address",
						"numberOfBytes": "20"
					},
					"t_bool": {
						"encoding": "inplace",
						"label": "bool",
						"numberOfBytes": "1"
					},
					"t_mapping(t_address,t_uint256)": {
						"encoding": "mapping",
						"key": "t_address",
						"label": "mapping(address => uint256)",
						"numberOfBytes": "32",
						"value": "t_uint256"
					},
					"t_struct(Counter)264_storage": {
						"encoding": "inplace",
						"label": "struct Counters.Counter",
						"members": [
							{
								"astId": 263,
								"contract": "AIAirdrop.sol:AIAirdrop",
								"label": "_value",
								"offset": 0,
								"slot": "0",
								"type": "t_uint256"
							}
						],
						"numberOfBytes": "32"
					},
					"t_uint256": {
						"encoding": "inplace",
						"label": "uint256",
						"numberOfBytes": "32"
					}
				}
			},
			"userdoc": {
				"kind": "user",
				"methods": {
					"claim(address)": {
						"notice": "Add wallet to the cliamed pool"
					},
					"getBalance()": {
						"notice": "Return the balance of this contract"
					},
					"pause()": {
						"notice": "Pause"
					},
					"transferBalance(address,uint256)": {
						"notice": "Transfer balance from this contract to input address"
					},
					"unpause()": {
						"notice": "Unpause"
					},
					"updateAmountToClaim(uint256)": {
						"notice": "Update token claim count"
					},
					"withdraw()": {
						"notice": "Withdraw the balance from this contract and transfer it to the owner's address"
					},
					"withdrawLSP7(address,address,uint256,bool,bytes)": {
						"notice": "Withdraw LSP7 token"
					}
				},
				"notice": "Airdroping LSP7 token by AI agent on LUKSO",
				"version": 1
			}
		}
	}
}