{
	"burnlsp7sample.sol": {
		"Burner": {
			"abi": [
				{
					"inputs": [
						{
							"internalType": "address",
							"name": "lsp7Token",
							"type": "address"
						},
						{
							"internalType": "address",
							"name": "from",
							"type": "address"
						},
						{
							"internalType": "uint256",
							"name": "amount",
							"type": "uint256"
						}
					],
					"name": "burnLSP7Tokens",
					"outputs": [],
					"stateMutability": "nonpayable",
					"type": "function"
				}
			],
			"devdoc": {
				"kind": "dev",
				"methods": {},
				"version": 1
			},
			"evm": {
				"assembly": "    /* \"burnlsp7sample.sol\":246:574  contract Burner {... */\n  mstore(0x40, 0x80)\n  callvalue\n  dup1\n  iszero\n  tag_1\n  jumpi\n  revert(0x00, 0x00)\ntag_1:\n  pop\n  dataSize(sub_0)\n  dup1\n  dataOffset(sub_0)\n  0x00\n  codecopy\n  0x00\n  return\nstop\n\nsub_0: assembly {\n        /* \"burnlsp7sample.sol\":246:574  contract Burner {... */\n      mstore(0x40, 0x80)\n      callvalue\n      dup1\n      iszero\n      tag_1\n      jumpi\n      revert(0x00, 0x00)\n    tag_1:\n      pop\n      jumpi(tag_2, lt(calldatasize, 0x04))\n      shr(0xe0, calldataload(0x00))\n      dup1\n      0x90d25601\n      eq\n      tag_3\n      jumpi\n    tag_2:\n      revert(0x00, 0x00)\n        /* \"burnlsp7sample.sol\":361:571  function burnLSP7Tokens(address lsp7Token, address from, uint256 amount) external {... */\n    tag_3:\n      tag_4\n      tag_5\n      calldatasize\n      0x04\n      tag_6\n      jump\t// in\n    tag_5:\n      tag_7\n      jump\t// in\n    tag_4:\n      stop\n    tag_7:\n        /* \"burnlsp7sample.sol\":516:563  ILSP7Burnable(lsp7Token).burn(from, amount, \"\") */\n      mload(0x40)\n      shl(0xe0, 0x44d17187)\n      dup2\n      mstore\n      sub(shl(0xa0, 0x01), 0x01)\n        /* \"#utility.yul\":782:814   */\n      dup4\n      dup2\n      and\n        /* \"burnlsp7sample.sol\":516:563  ILSP7Burnable(lsp7Token).burn(from, amount, \"\") */\n      0x04\n      dup4\n      add\n        /* \"#utility.yul\":764:815   */\n      mstore\n        /* \"#utility.yul\":831:849   */\n      0x24\n      dup3\n      add\n        /* \"#utility.yul\":824:858   */\n      dup4\n      swap1\n      mstore\n        /* \"#utility.yul\":894:896   */\n      0x60\n        /* \"#utility.yul\":874:892   */\n      0x44\n      dup4\n      add\n        /* \"#utility.yul\":867:897   */\n      mstore\n      0x00\n        /* \"#utility.yul\":913:931   */\n      0x64\n      dup4\n      add\n        /* \"#utility.yul\":906:935   */\n      mstore\n        /* \"burnlsp7sample.sol\":516:545  ILSP7Burnable(lsp7Token).burn */\n      dup5\n      and\n      swap1\n      0x44d17187\n      swap1\n        /* \"#utility.yul\":952:971   */\n      0x84\n      add\n        /* \"burnlsp7sample.sol\":516:563  ILSP7Burnable(lsp7Token).burn(from, amount, \"\") */\n      0x00\n      mload(0x40)\n      dup1\n      dup4\n      sub\n      dup2\n      0x00\n      dup8\n      dup1\n      extcodesize\n      iszero\n      dup1\n      iszero\n      tag_11\n      jumpi\n      revert(0x00, 0x00)\n    tag_11:\n      pop\n      gas\n      call\n      iszero\n      dup1\n      iszero\n      tag_13\n      jumpi\n      returndatacopy(0x00, 0x00, returndatasize)\n      revert(0x00, returndatasize)\n    tag_13:\n      pop\n      pop\n      pop\n      pop\n        /* \"burnlsp7sample.sol\":361:571  function burnLSP7Tokens(address lsp7Token, address from, uint256 amount) external {... */\n      pop\n      pop\n      pop\n      jump\t// out\n        /* \"#utility.yul\":14:187   */\n    tag_14:\n        /* \"#utility.yul\":82:102   */\n      dup1\n      calldataload\n      sub(shl(0xa0, 0x01), 0x01)\n        /* \"#utility.yul\":131:162   */\n      dup2\n      and\n        /* \"#utility.yul\":121:163   */\n      dup2\n      eq\n        /* \"#utility.yul\":111:181   */\n      tag_17\n      jumpi\n        /* \"#utility.yul\":177:178   */\n      0x00\n        /* \"#utility.yul\":174:175   */\n      0x00\n        /* \"#utility.yul\":167:179   */\n      revert\n        /* \"#utility.yul\":111:181   */\n    tag_17:\n        /* \"#utility.yul\":14:187   */\n      swap2\n      swap1\n      pop\n      jump\t// out\n        /* \"#utility.yul\":192:520   */\n    tag_6:\n        /* \"#utility.yul\":269:275   */\n      0x00\n        /* \"#utility.yul\":277:283   */\n      0x00\n        /* \"#utility.yul\":285:291   */\n      0x00\n        /* \"#utility.yul\":338:340   */\n      0x60\n        /* \"#utility.yul\":326:335   */\n      dup5\n        /* \"#utility.yul\":317:324   */\n      dup7\n        /* \"#utility.yul\":313:336   */\n      sub\n        /* \"#utility.yul\":309:341   */\n      slt\n        /* \"#utility.yul\":306:358   */\n      iszero\n      tag_19\n      jumpi\n        /* \"#utility.yul\":354:355   */\n      0x00\n        /* \"#utility.yul\":351:352   */\n      0x00\n        /* \"#utility.yul\":344:356   */\n      revert\n        /* \"#utility.yul\":306:358   */\n    tag_19:\n        /* \"#utility.yul\":377:406   */\n      tag_20\n        /* \"#utility.yul\":396:405   */\n      dup5\n        /* \"#utility.yul\":377:406   */\n      tag_14\n      jump\t// in\n    tag_20:\n        /* \"#utility.yul\":367:406   */\n      swap3\n      pop\n        /* \"#utility.yul\":425:463   */\n      tag_21\n        /* \"#utility.yul\":459:461   */\n      0x20\n        /* \"#utility.yul\":448:457   */\n      dup6\n        /* \"#utility.yul\":444:462   */\n      add\n        /* \"#utility.yul\":425:463   */\n      tag_14\n      jump\t// in\n    tag_21:\n        /* \"#utility.yul\":415:463   */\n      swap2\n      pop\n        /* \"#utility.yul\":510:512   */\n      0x40\n        /* \"#utility.yul\":499:508   */\n      dup5\n        /* \"#utility.yul\":495:513   */\n      add\n        /* \"#utility.yul\":482:514   */\n      calldataload\n        /* \"#utility.yul\":472:514   */\n      swap1\n      pop\n        /* \"#utility.yul\":192:520   */\n      swap3\n      pop\n      swap3\n      pop\n      swap3\n      jump\t// out\n\n    auxdata: 0xa2646970667358221220831dc0eef2ea9bfec7120246914d51881afeb3146cf7f63fb7b973256193610d64736f6c634300081e0033\n}\n",
				"bytecode": {
					"linkReferences": {},
					"object": "6080604052348015600e575f5ffd5b5061012c8061001c5f395ff3fe6080604052348015600e575f5ffd5b50600436106026575f3560e01c806390d2560114602a575b5f5ffd5b6039603536600460c2565b603b565b005b6040516344d1718760e01b81526001600160a01b03838116600483015260248201839052606060448301525f60648301528416906344d17187906084015f604051808303815f87803b158015608e575f5ffd5b505af1158015609f573d5f5f3e3d5ffd5b50505050505050565b80356001600160a01b038116811460bd575f5ffd5b919050565b5f5f5f6060848603121560d3575f5ffd5b60da8460a8565b925060e66020850160a8565b915060408401359050925092509256fea2646970667358221220831dc0eef2ea9bfec7120246914d51881afeb3146cf7f63fb7b973256193610d64736f6c634300081e0033",
					"opcodes": "PUSH1 0x80 PUSH1 0x40 MSTORE CALLVALUE DUP1 ISZERO PUSH1 0xE JUMPI PUSH0 PUSH0 REVERT JUMPDEST POP PUSH2 0x12C DUP1 PUSH2 0x1C PUSH0 CODECOPY PUSH0 RETURN INVALID PUSH1 0x80 PUSH1 0x40 MSTORE CALLVALUE DUP1 ISZERO PUSH1 0xE JUMPI PUSH0 PUSH0 REVERT JUMPDEST POP PUSH1 0x4 CALLDATASIZE LT PUSH1 0x26 JUMPI PUSH0 CALLDATALOAD PUSH1 0xE0 SHR DUP1 PUSH4 0x90D25601 EQ PUSH1 0x2A JUMPI JUMPDEST PUSH0 PUSH0 REVERT JUMPDEST PUSH1 0x39 PUSH1 0x35 CALLDATASIZE PUSH1 0x4 PUSH1 0xC2 JUMP JUMPDEST PUSH1 0x3B JUMP JUMPDEST STOP JUMPDEST PUSH1 0x40 MLOAD PUSH4 0x44D17187 PUSH1 0xE0 SHL DUP2 MSTORE PUSH1 0x1 PUSH1 0x1 PUSH1 0xA0 SHL SUB DUP4 DUP2 AND PUSH1 0x4 DUP4 ADD MSTORE PUSH1 0x24 DUP3 ADD DUP4 SWAP1 MSTORE PUSH1 0x60 PUSH1 0x44 DUP4 ADD MSTORE PUSH0 PUSH1 0x64 DUP4 ADD MSTORE DUP5 AND SWAP1 PUSH4 0x44D17187 SWAP1 PUSH1 0x84 ADD PUSH0 PUSH1 0x40 MLOAD DUP1 DUP4 SUB DUP2 PUSH0 DUP8 DUP1 EXTCODESIZE ISZERO DUP1 ISZERO PUSH1 0x8E JUMPI PUSH0 PUSH0 REVERT JUMPDEST POP GAS CALL ISZERO DUP1 ISZERO PUSH1 0x9F JUMPI RETURNDATASIZE PUSH0 PUSH0 RETURNDATACOPY RETURNDATASIZE PUSH0 REVERT JUMPDEST POP POP POP POP POP POP POP JUMP JUMPDEST DUP1 CALLDATALOAD PUSH1 0x1 PUSH1 0x1 PUSH1 0xA0 SHL SUB DUP2 AND DUP2 EQ PUSH1 0xBD JUMPI PUSH0 PUSH0 REVERT JUMPDEST SWAP2 SWAP1 POP JUMP JUMPDEST PUSH0 PUSH0 PUSH0 PUSH1 0x60 DUP5 DUP7 SUB SLT ISZERO PUSH1 0xD3 JUMPI PUSH0 PUSH0 REVERT JUMPDEST PUSH1 0xDA DUP5 PUSH1 0xA8 JUMP JUMPDEST SWAP3 POP PUSH1 0xE6 PUSH1 0x20 DUP6 ADD PUSH1 0xA8 JUMP JUMPDEST SWAP2 POP PUSH1 0x40 DUP5 ADD CALLDATALOAD SWAP1 POP SWAP3 POP SWAP3 POP SWAP3 JUMP INVALID LOG2 PUSH5 0x6970667358 0x22 SLT KECCAK256 DUP4 SAR 0xC0 RETURNCONTRACT 0xF2 0xEA SWAP12 INVALID 0xC7 SLT MUL CHAINID SWAP2 0x4D MLOAD DUP9 BYTE INVALID 0xB3 EQ PUSH13 0xF7F63FB7B973256193610D6473 PUSH16 0x6C634300081E00330000000000000000 "
				},
				"gasEstimates": {
					"creation": {
						"codeDepositCost": "60000",
						"executionCost": "109",
						"totalCost": "60109"
					},
					"external": {
						"burnLSP7Tokens(address,address,uint256)": "infinite"
					}
				},
				"methodIdentifiers": {
					"burnLSP7Tokens(address,address,uint256)": "90d25601"
				}
			},
			"storageLayout": {
				"storage": [],
				"types": null
			},
			"userdoc": {
				"kind": "user",
				"methods": {},
				"version": 1
			}
		}
	}
}