{
	"data": {
		"bytecode": {
			"linkReferences": {},
			"object": "6101206040526101f4601655348015610016575f5ffd5b506040516163103803806163108339810160408190526100359161072d565b60408051808201825260088152674c756b5365616c7360c01b6020808301919091528251808401909352600483526314d1505360e21b90830152903360025f848484848180610097576040516306b620db60e21b815260040160405180910390fd5b6100a081610235565b506040805180820190915260048152632936598960e21b60208201526100e7907feafec4d89fa9619884b60000a4d96624a38f7ac2d8d9a604ecf07c12c77e480c9061029f565b6101117fdeba1e292f8ba88238e10ab3c7f88bd4be4fac56cad5194b6ecceaf653468af18561029f565b61013b7f2f0a68ab07768e01943a599e73362a0e17a63a72e94dd2e384d2c1d4db9327568461029f565b6040805160208101839052610182917fe0261fa95db2eb3b5439bd033cda66d56b96f92f243a8228fd87550ed7bdfdb3910160408051601f1981840301815291905261029f565b505060408051602081018590526101cd93507ff675e9361af1c1664c1868cfa3eb97672d6b1a513aa5b81dec34c9ee330e818d92500160408051601f198184030181529190526102f3565b50506007805460ff1916905550506001600855506101ea82610301565b81516001600160a01b039081166080526020830151811660a0526040830151811660c0526060830151811660e052610120830151166101005261022e816001610459565b50506109b7565b5f546001600160a01b0382811691161461029c575f80546040516001600160a01b03808516939216917f8be0079c531659141344cd1fd0a4f28419497f9722a3daafe3b4186f6b6457e091a35f80546001600160a01b0319166001600160a01b0383161790555b50565b5f8281526001602052604090206102b682826108b4565b50817fece574603820d07bc9b91f2a932baadf4628aabcb8afba49776529c14a6104b2826040516102e7919061096e565b60405180910390a25050565b6102fd828261051e565b5050565b6103096105de565b8051600980546001600160a01b039283166001600160a01b031991821681179092556020840151600a805491851691831682179055604080860151600b8054918716918516821790556060870151600c80548289169087161790556080880151600d8054828a1690881617905560a0890151600e8054828b1690891617905560c08a0151600f8054828c16908a1617905560e08b015160108054828d16908b161790556101008c015160118054828e16908c161790556101208d0151601280549d82169d909b169c909c17909955955194999698977fd7ff29effced1b6a8b99ff16244c286af48221d90470a241c633bcc7c9dfd84d9761044e979596949593949293926001600160a01b03978816815295871660208701529386166040860152918516606085015284166080840152831660a083015290911660c082015260e00190565b60405180910390a450565b6104616105de565b5f5b8251811015610519575f83828151811061047f5761047f6109a3565b60209081029190910101519050826001600160a01b0382166104b45760405163e6c4247b60e01b815260040160405180910390fd5b6001600160a01b0382165f818152601c6020908152604091829020805460ff191660ff861690811790915591519182527f7ed18aa59a2962897d3e7ed3da887dfb6a03cca6c3cfe8d74e55130f631791c8910160405180910390a25050600101610463565b505050565b7f2145e1d6d074577dc71ef54c3807742b41b053a9352ae6b491331509acb9750f820161055e576040516385c169bd60e01b815260040160405180910390fd5b7fd0f59754f88971fe6bc5a6618cc9d5f1e859c58d16b22d1c7b2d3e2b246cd8aa820161059e57604051630eceab6760e31b815260040160405180910390fd5b7f1fd9e056a24d14c4abc642fcc325992a946906d0dbc57dd70278aaf12842024d820161029f57604051634ef6d7fb60e01b815260040160405180910390fd5b336105f05f546001600160a01b031690565b6001600160a01b03161461061d5760405163bf1169c560e01b815233600482015260240160405180910390fd5b565b634e487b7160e01b5f52604160045260245ffd5b60405161014081016001600160401b03811182821017156106565761065661061f565b60405290565b604051601f8201601f191681016001600160401b03811182821017156106845761068461061f565b604052919050565b80516001600160a01b03811681146106a2575f5ffd5b919050565b5f82601f8301126106b6575f5ffd5b81516001600160401b038111156106cf576106cf61061f565b8060051b6106df6020820161065c565b918252602081850181019290810190868411156106fa575f5ffd5b6020860192505b83831015610723576107128361068c565b825260209283019290910190610701565b9695505050505050565b5f5f828403610160811215610740575f5ffd5b61014081121561074e575f5ffd5b50610757610633565b6107608461068c565b815261076e6020850161068c565b602082015261077f6040850161068c565b60408201526107906060850161068c565b60608201526107a16080850161068c565b60808201526107b260a0850161068c565b60a08201526107c360c0850161068c565b60c08201526107d460e0850161068c565b60e08201526107e6610100850161068c565b6101008201526107f9610120850161068c565b6101208201526101408401519092506001600160401b0381111561081b575f5ffd5b610827858286016106a7565b9150509250929050565b600181811c9082168061084557607f821691505b60208210810361086357634e487b7160e01b5f52602260045260245ffd5b50919050565b601f82111561051957805f5260205f20601f840160051c8101602085101561088e5750805b601f840160051c820191505b818110156108ad575f815560010161089a565b5050505050565b81516001600160401b038111156108cd576108cd61061f565b6108e1816108db8454610831565b84610869565b6020601f821160018114610913575f83156108fc5750848201515b5f19600385901b1c1916600184901b1784556108ad565b5f84815260208120601f198516915b828110156109425787850151825560209485019460019092019101610922565b508482101561095f57868401515f19600387901b60f8161c191681555b50505050600190811b01905550565b602081525f82518060208401528060208501604085015e5f604082850101526040601f19601f83011684010191505092915050565b634e487b7160e01b5f52603260045260245ffd5b60805160a05160c05160e051610100516158c1610a4f5f395f81816113930152818161143a015281816114e1015281816115880152818161162f015281816116c9015281816117780152818161182701526118d601525f610f3a01525f610e8c01525f8181610dd6015261210d01525f8181610ff2015281816110ab015281816111640152818161121d01526112d601526158c15ff3fe6080604052600436106103bb575f3560e01c8063802c90c8116101f1578063be9f0e6f1161010c578063dedff9c61161009f578063f2fde38b1161006e578063f2fde38b14610be6578063fabf4b1614610c05578063ffa1ad7414610c24578063ffcff32c14610c5457610414565b8063dedff9c614610b54578063e1660bc814610b73578063e3bc1cc314610b92578063ecabdf7914610bbb57610414565b8063d764c173116100db578063d764c17314610ad3578063da8fbf2a14610af2578063dafe43f114610b06578063db8c966314610b3557610414565b8063be9f0e6f14610a10578063cb92337d14610a2f578063d34fbc9b14610a68578063d6c1407c14610ab457610414565b80639790242111610184578063ac7e032111610153578063ac7e03211461099f578063ac91e5a5146109be578063ae200322146109dd578063af6bb1e4146109f157610414565b8063979024211461090a57806398bdf6f51461091d5780639b19251a14610933578063a3b261f21461097357610414565b806386a10ddd116101c057806386a10ddd146108915780638da5cb5b146108b05780638e1f845c146108cc578063961183c4146108eb57610414565b8063802c90c81461082b5780638129fc1c1461084a57806383f63c971461085e578063853828b61461087d57610414565b806344ae035a116102e1578063605cb60111610274578063715018a611610243578063715018a6146107c657806372a591f0146107da5780637e87632c146107f95780637f23690c1461081857610414565b8063605cb60114610754578063678b2012146107735780636963d4381461078857806370a08231146107a757610414565b80635a1da9a4116102b05780635a1da9a4146106e05780635c975abb146106ff5780635cb42de1146107165780635fa3c36d1461073557610414565b806344ae035a1461065757806349a6078d14610676578063511b6952146106a257806354f6127f146106c157610414565b8063217b227011610359578063343c71fb11610328578063343c71fb146105db578063369596d2146105fa5780633c20f76d14610625578063403e6fa61461063857610414565b8063217b2270146105515780632a3654a4146105885780633087c08f146105a757806332cb6b0c146105c657610414565b8063158ef93e11610395578063158ef93e146104cc57806316e023b3146104e557806318160ddd146105115780631d26fce61461052557610414565b806301ffc9a71461045457806309edf481146104885780630e1b26c6146104a957610414565b3661041457345f036103fb5760405163e5099ee360e01b81526004016103f29060208082526004908201525f604082015260600190565b60405180910390fd5b6040516330fa4a2160e11b815260040160405180910390fd5b5f366060600482101561043e57828260405163e5099ee360e01b81526004016103f2929190614828565b6104488383610c73565b80519350602001915050f35b34801561045f575f5ffd5b5061047361046e366004614856565b610d62565b60405190151581526020015b60405180910390f35b348015610493575f5ffd5b506104a76104a236600461487d565b610d95565b005b3480156104b4575f5ffd5b506104be60145481565b60405190815260200161047f565b3480156104d7575f5ffd5b506015546104739060ff1681565b3480156104f0575f5ffd5b506105046104ff366004614894565b611abd565b60405161047f91906148e2565b34801561051c575f5ffd5b506002546104be565b348015610530575f5ffd5b5061054461053f3660046149ed565b611ad0565b60405161047f9190614a50565b34801561055c575f5ffd5b5061057061056b36600461487d565b611bb6565b6040516001600160a01b03909116815260200161047f565b348015610593575f5ffd5b506104736105a2366004614ace565b611bee565b3480156105b2575f5ffd5b506104a76105c1366004614af6565b611bf9565b3480156105d1575f5ffd5b506104be6108ae81565b3480156105e6575f5ffd5b506104a76105f5366004614c3a565b611d51565b348015610605575f5ffd5b506104be610614366004614c73565b60186020525f908152604090205481565b6104be610633366004614c3a565b611de6565b348015610643575f5ffd5b50600a54610570906001600160a01b031681565b348015610662575f5ffd5b506104a761067136600461487d565b612369565b348015610681575f5ffd5b5061069561069036600461487d565b612376565b60405161047f9190614c8c565b3480156106ad575f5ffd5b506104a76106bc366004614ce4565b612397565b3480156106cc575f5ffd5b506105046106db36600461487d565b6123db565b3480156106eb575f5ffd5b50600b54610570906001600160a01b031681565b34801561070a575f5ffd5b5060075460ff16610473565b348015610721575f5ffd5b50600d54610570906001600160a01b031681565b348015610740575f5ffd5b506104a761074f366004614d59565b6123e6565b34801561075f575f5ffd5b50600e54610570906001600160a01b031681565b34801561077e575f5ffd5b506104be60165481565b348015610793575f5ffd5b506105446107a2366004614da4565b61252e565b3480156107b2575f5ffd5b506104be6107c1366004614c73565b612658565b3480156107d1575f5ffd5b506104a7612678565b3480156107e5575f5ffd5b506104a76107f4366004614e23565b61268b565b348015610804575f5ffd5b506104a7610813366004614f99565b61274c565b6104a7610826366004614c3a565b61283a565b348015610836575f5ffd5b506104a7610845366004614ce4565b61286f565b348015610855575f5ffd5b506104a76128df565b348015610869575f5ffd5b50600f54610570906001600160a01b031681565b348015610888575f5ffd5b506104a7612f14565b34801561089c575f5ffd5b506104a76108ab36600461506a565b61302b565b3480156108bb575f5ffd5b505f546001600160a01b0316610570565b3480156108d7575f5ffd5b506104a76108e636600461487d565b6131a2565b3480156108f6575f5ffd5b50601054610570906001600160a01b031681565b6104a76109183660046150a6565b6131e5565b348015610928575f5ffd5b506013546104be9081565b34801561093e575f5ffd5b5061096161094d366004614c73565b601c6020525f908152604090205460ff1681565b60405160ff909116815260200161047f565b34801561097e575f5ffd5b5061099261098d366004614c73565b6132a3565b60405161047f91906150ff565b3480156109aa575f5ffd5b50601254610570906001600160a01b031681565b3480156109c9575f5ffd5b50601154610570906001600160a01b031681565b3480156109e8575f5ffd5b506104a76132c6565b3480156109fc575f5ffd5b50600c54610570906001600160a01b031681565b348015610a1b575f5ffd5b506104a7610a2a366004615136565b6132d6565b348015610a3a575f5ffd5b50610961610a49366004614ace565b601b60209081525f928352604080842090915290825290205460ff1681565b348015610a73575f5ffd5b50610a9d610a8236600461487d565b60196020525f90815260409020805460019091015460ff1682565b6040805192835260ff90911660208301520161047f565b348015610abf575f5ffd5b506104a7610ace366004614d59565b61339f565b348015610ade575f5ffd5b506104a7610aed3660046151b7565b6133b2565b348015610afd575f5ffd5b506104a7613482565b348015610b11575f5ffd5b50610b25610b2036600461487d565b613492565b60405161047f949392919061522f565b348015610b40575f5ffd5b506104a7610b4f366004615266565b61354a565b348015610b5f575f5ffd5b50610544610b6e3660046152cb565b61362b565b348015610b7e575f5ffd5b506104a7610b8d3660046152fc565b6136d4565b348015610b9d575f5ffd5b50610ba660de81565b60405163ffffffff909116815260200161047f565b348015610bc6575f5ffd5b506104be610bd5366004615346565b601a6020525f908152604090205481565b348015610bf1575f5ffd5b506104a7610c00366004614c73565b613794565b348015610c10575f5ffd5b506104a7610c1f366004614c3a565b6137cf565b348015610c2f575f5ffd5b50610504604051806040016040528060058152602001640312e302e360dc1b81525081565b348015610c5f575f5ffd5b50600954610570906001600160a01b031681565b60605f610c8a5f356001600160e01b03191661391e565b5090506001600160a01b038116610cc15760405163bb370b2b60e01b81526001600160e01b03195f351660048201526024016103f2565b5f5f826001600160a01b03163487873334604051602001610ce5949392919061535f565b60408051601f1981840301815290829052610cff9161538a565b5f6040518083038185875af1925050503d805f8114610d39576040519150601f19603f3d011682016040523d82523d5f602084013e610d3e565b606091505b50915091508115610d53579250610d5c915050565b80518060208301fd5b92915050565b5f6001600160e01b03198216631d138b8360e11b1480610d865750610d868261399a565b80610d5c5750610d5c826139be565b335f908152601860205260409020544290610db390620151806153b4565b1015610dd257604051631a64b87b60e31b815260040160405180910390fd5b5f807f00000000000000000000000000000000000000000000000000000000000000006001600160a01b03166370a08231336040516001600160e01b031960e084901b1681526001600160a01b039091166004820152602401602060405180830381865afa158015610e46573d5f5f3e3d5ffd5b505050506040513d601f19601f82011682018060405250810190610e6a91906153c7565b1115610e8157601654610e7e9060086153de565b90505b5f6001600160a01b037f0000000000000000000000000000000000000000000000000000000000000000166370a08231336040516001600160e01b031960e084901b1681526001600160a01b039091166004820152602401602060405180830381865afa158015610ef4573d5f5f3e3d5ffd5b505050506040513d601f19601f82011682018060405250810190610f1891906153c7565b1115610f2f57601654610f2c9060036153de565b90505b5f6001600160a01b037f0000000000000000000000000000000000000000000000000000000000000000166370a08231336040516001600160e01b031960e084901b1681526001600160a01b039091166004820152602401602060405180830381865afa158015610fa2573d5f5f3e3d5ffd5b505050506040513d601f19601f82011682018060405250810190610fc691906153c7565b1115610fdd57601654610fda9060036153de565b90505b69d3c21bcecceda10000006001600160a01b037f0000000000000000000000000000000000000000000000000000000000000000166370a08231336040516001600160e01b031960e084901b1681526001600160a01b039091166004820152602401602060405180830381865afa15801561105a573d5f5f3e3d5ffd5b505050506040513d601f19601f8201168201806040525081019061107e91906153c7565b1115611095576016546110929060026153de565b90505b6a027b46536c66c8e30000006001600160a01b037f0000000000000000000000000000000000000000000000000000000000000000166370a08231336040516001600160e01b031960e084901b1681526001600160a01b039091166004820152602401602060405180830381865afa158015611113573d5f5f3e3d5ffd5b505050506040513d601f19601f8201168201806040525081019061113791906153c7565b111561114e5760165461114b9060036153de565b90505b6a0422ca8b0a00a4250000006001600160a01b037f0000000000000000000000000000000000000000000000000000000000000000166370a08231336040516001600160e01b031960e084901b1681526001600160a01b039091166004820152602401602060405180830381865afa1580156111cc573d5f5f3e3d5ffd5b505050506040513d601f19601f820116820180604052508101906111f091906153c7565b1115611207576016546112049060056153de565b90505b6a05ca4ec2a79a7f670000006001600160a01b037f0000000000000000000000000000000000000000000000000000000000000000166370a08231336040516001600160e01b031960e084901b1681526001600160a01b039091166004820152602401602060405180830381865afa158015611285573d5f5f3e3d5ffd5b505050506040513d601f19601f820116820180604052508101906112a991906153c7565b11156112c0576016546112bd9060076153de565b90505b6a084595161401484a0000006001600160a01b037f0000000000000000000000000000000000000000000000000000000000000000166370a08231336040516001600160e01b031960e084901b1681526001600160a01b039091166004820152602401602060405180830381865afa15801561133e573d5f5f3e3d5ffd5b505050506040513d601f19601f8201168201806040525081019061136291906153c7565b11156113795760165461137690600a6153de565b90505b600e54604051634cf61d2160e11b81526001600160a01b037f00000000000000000000000000000000000000000000000000000000000000008116926399ec3a42926113cb92339216906004016153f5565b602060405180830381865afa1580156113e6573d5f5f3e3d5ffd5b505050506040513d601f19601f8201168201806040525081019061140a919061540f565b156114205760165461141d9060026153de565b90505b600f54604051634cf61d2160e11b81526001600160a01b037f00000000000000000000000000000000000000000000000000000000000000008116926399ec3a429261147292339216906004016153f5565b602060405180830381865afa15801561148d573d5f5f3e3d5ffd5b505050506040513d601f19601f820116820180604052508101906114b1919061540f565b156114c7576016546114c49060026153de565b90505b600d54604051634cf61d2160e11b81526001600160a01b037f00000000000000000000000000000000000000000000000000000000000000008116926399ec3a429261151992339216906004016153f5565b602060405180830381865afa158015611534573d5f5f3e3d5ffd5b505050506040513d601f19601f82011682018060405250810190611558919061540f565b1561156e5760165461156b9060016153de565b90505b601054604051634cf61d2160e11b81526001600160a01b037f00000000000000000000000000000000000000000000000000000000000000008116926399ec3a42926115c092339216906004016153f5565b602060405180830381865afa1580156115db573d5f5f3e3d5ffd5b505050506040513d601f19601f820116820180604052508101906115ff919061540f565b15611615576016546116129060016153de565b90505b601154604051634cf61d2160e11b81526001600160a01b037f00000000000000000000000000000000000000000000000000000000000000008116926399ec3a429261166792339216906004016153f5565b602060405180830381865afa158015611682573d5f5f3e3d5ffd5b505050506040513d601f19601f820116820180604052508101906116a6919061540f565b156116bc576016546116b99060016153de565b90505b600e546001600160a01b037f00000000000000000000000000000000000000000000000000000000000000008116916399ec3a4291166116f93390565b6040518363ffffffff1660e01b81526004016117169291906153f5565b602060405180830381865afa158015611731573d5f5f3e3d5ffd5b505050506040513d601f19601f82011682018060405250810190611755919061540f565b1561176b576016546117689060026153de565b90505b600f546001600160a01b037f00000000000000000000000000000000000000000000000000000000000000008116916399ec3a4291166117a83390565b6040518363ffffffff1660e01b81526004016117c59291906153f5565b602060405180830381865afa1580156117e0573d5f5f3e3d5ffd5b505050506040513d601f19601f82011682018060405250810190611804919061540f565b1561181a576016546118179060026153de565b90505b6011546001600160a01b037f00000000000000000000000000000000000000000000000000000000000000008116916399ec3a4291166118573390565b6040518363ffffffff1660e01b81526004016118749291906153f5565b602060405180830381865afa15801561188f573d5f5f3e3d5ffd5b505050506040513d601f19601f820116820180604052508101906118b3919061540f565b156118c9576016546118c69060046153de565b90505b600f546001600160a01b037f00000000000000000000000000000000000000000000000000000000000000008116916399ec3a4291166119063390565b6040518363ffffffff1660e01b81526004016119239291906153f5565b602060405180830381865afa15801561193e573d5f5f3e3d5ffd5b505050506040513d601f19601f82011682018060405250810190611962919061540f565b15611978576016546119759060016153de565b90505b600361198333612658565b10611999576016546119969060026153de565b90505b60056119a433612658565b106119ba576016546119b79060026153de565b90505b600a6119c533612658565b106119db576016546119d89060036153de565b90505b600f6119e633612658565b106119fc576016546119f99060036153de565b90505b6014611a0733612658565b10611a1d57601654611a1a9060056153de565b90505b6032611a2833612658565b10611a3e57601654611a3b90600a6153de565b90505b5f828152601960209081526040918290208251808401909352805480845260019091015460ff169183019190915282908290611a7b9083906153b4565b9052505f92835260196020908152604080852083518155928201516001909301805460ff191660ff909416939093179092553384526018905290912042905550565b6060611ac983836139f3565b9392505050565b60608151835114611af4576040516317d38eff60e11b815260040160405180910390fd5b82516001600160401b03811115611b0d57611b0d6148f4565b604051908082528060200260200182016040528015611b4057816020015b6060815260200190600190039081611b2b5790505b5090505f5b8351811015611baf57611b8a848281518110611b6357611b6361542a565b6020026020010151848381518110611b7d57611b7d61542a565b60200260200101516139f3565b828281518110611b9c57611b9c61542a565b6020908102919091010152600101611b45565b5092915050565b5f818152600360205260408120546001600160a01b031680610d5c57604051635747cd1b60e11b8152600481018490526024016103f2565b5f611ac98383613a9e565b611c01613ad9565b8051600980546001600160a01b039283166001600160a01b031991821681179092556020840151600a805491851691831682179055604080860151600b8054918716918516821790556060870151600c80548289169087161790556080880151600d8054828a1690881617905560a0890151600e8054828b1690891617905560c08a0151600f8054828c16908a1617905560e08b015160108054828d16908b161790556101008c015160118054828e16908c161790556101208d0151601280549d82169d909b169c909c17909955955194999698977fd7ff29effced1b6a8b99ff16244c286af48221d90470a241c633bcc7c9dfd84d97611d46979596949593949293926001600160a01b03978816815295871660208701529386166040860152918516606085015284166080840152831660a083015290911660c082015260e00190565b60405180910390a450565b5f828152601960205260408120600180820154919291611d74919060ff1661543e565b60018381015491925060ff90911611611da057604051634f82619560e11b815260040160405180910390fd5b611dcb847f9afb95cacc9f95858ec44aa8c3b685511002e30ae54415823f406128b85b238e85613b14565b600191909101805460ff191660ff9092169190911790555050565b5f611def613b75565b611df7613b9f565b6108ae611e0360135490565b10611e2157604051638a164f6360e01b815260040160405180910390fd5b8260145414611e43576040516321094a9b60e01b815260040160405180910390fd5b5f83815260176020526040808220815160808101909252805482908290611e6990615457565b80601f0160208091040260200160405190810160405280929190818152602001828054611e9590615457565b8015611ee05780601f10611eb757610100808354040283529160200191611ee0565b820191905f5260205f20905b815481529060010190602001808311611ec357829003601f168201915b5050509183525050600182015460208083019190915260028301546040808401919091526003909301546001600160a01b0316606092830152838101518484015192850151335f908152601b84528581208b825290935293909120549394509290919060ff168311611f6557604051634bcd7edd60e11b815260040160405180910390fd5b60408051808201909152600681526570686173653160d01b6020909101527f3db34eeeefd2a5000c181c2d5be61bc403042e9bb18dd26851e221bc976396d2870161204357335f908152601c602052604090205460ff16611fd957604051630b094f2760e31b815260040160405180910390fd5b60de611fe460025490565b106120025760405163342428eb60e01b815260040160405180910390fd5b335f908152601b602090815260408083208a845290915290205460ff16831161203e57604051633ce95f8560e11b815260040160405180910390fd5b61219c565b604080518082019091526006815265383430b9b29960d11b6020909101527fce00f28af6461ce48f3d0998a1034c969651d2b8df8a6d973d85c3d2ae3ae44887016120b15760de61209360025490565b1061203e5760405163342428eb60e01b815260040160405180910390fd5b60408051808201909152600681526570686173653360d01b6020909101527f6c81e26b43aa001367d6fead6e59c42c18fd7a333bb17db5dedd5a7e313230e5870161219c576040516370a0823160e01b81523360048201525f907f00000000000000000000000000000000000000000000000000000000000000006001600160a01b0316906370a0823190602401602060405180830381865afa15801561215a573d5f5f3e3d5ffd5b505050506040513d601f19601f8201168201806040525081019061217e91906153c7565b1161219c576040516346b8a0fd60e11b815260040160405180910390fd5b8115612240576001600160a01b0381166121df57813410156121da5760405163b99e2ab760e01b8152600481018390523460248201526044016103f2565b612240565b604051633b06cddd60e11b81526001600160a01b0382169063760d9bba9061221290339030908790600190600401615489565b5f604051808303815f87803b158015612229575f5ffd5b505af115801561223b573d5f5f3e3d5ffd5b505050505b61224e601380546001019055565b5f61225860135490565b90506122753382600160405180602001604052805f815250613bc3565b6122a0817f9afb95cacc9f95858ec44aa8c3b685511002e30ae54415823f406128b85b238e89613b14565b335f908152601b602090815260408083208b84529091529020546122c89060ff1660016154c0565b335f818152601b602090815260408083208d84528252808320805460ff96871660ff19918216179091558151808301835284815280840185815288865260198552948390209051815593516001949094018054949096169316929092179093555142815283927fa076a0e133eaaa7a0d2293663374c22b5572fc5a479274e17e00ac210fe2367b910160405180910390a3945050505050610d5c6001600855565b612371613ad9565b601455565b606061238182613d2c565b5f828152600560205260409020610d5c90613d63565b6123a13384613a9e565b6123c757604051631294d2a960e01b8152600481018490523360248201526044016103f2565b6123d48585858585613d6f565b5050505050565b6060610d5c82613f4b565b5f8381526019602052604090205415158061241357505f8381526019602052604090206001015460ff1615155b61244a5760405162461bcd60e51b8152602060048201526008602482015267139bc8195e1a5cdd60c21b60448201526064016103f2565b6009546001600160a01b03166344d171873361246e85670de0b6b3a76400006153de565b846040518463ffffffff1660e01b815260040161248d939291906154d9565b5f604051808303815f87803b1580156124a4575f5ffd5b505af11580156124b6573d5f5f3e3d5ffd5b5050505f848152601960209081526040918290208251808401909352805480845260019091015460ff1691830191909152909150839082906124f99083906153b4565b9052505f938452601960209081526040909420815181559301516001909301805460ff191660ff909416939093179092555050565b6060816001600160401b03811115612548576125486148f4565b60405190808252806020026020018201604052801561257b57816020015b60608152602001906001900390816125665790505b5090505f5b82811015611baf575f803086868581811061259d5761259d61542a565b90506020028101906125af9190615508565b6040516125bd929190615551565b5f60405180830381855af49150503d805f81146125f5576040519150601f19603f3d011682016040523d82523d5f602084013e6125fa565b606091505b509150915081612630578051156126145780518082602001fd5b60405163234eb81960e01b8152600481018490526024016103f2565b808484815181106126435761264361542a565b60209081029190910101525050600101612580565b6001600160a01b0381165f908152600460205260408120610d5c90613fea565b612680613ad9565b6126895f613ff3565b565b612693613ad9565b5f838152601960209081526040918290208251808401909352805480845260019091015460ff1691830191909152839082906126d09083906153b4565b90525060ff82811660208381018281525f888152601983526040908190208651815591516001909201805460ff191692909516919091179093558251878152908101869052918201527f129e06f7590300e51f74f004b0be10636d8d775ec7419a82351ab9d6d46fa7a59060600160405180910390a150505050565b845184518114158061275f575083518114155b8061276b575082518114155b80612777575081518114155b15612795576040516393a8311960e01b815260040160405180910390fd5b5f5b81811015612831576128298782815181106127b4576127b461542a565b60200260200101518783815181106127ce576127ce61542a565b60200260200101518784815181106127e8576127e861542a565b60200260200101518785815181106128025761280261542a565b602002602001015187868151811061281c5761281c61542a565b6020026020010151612397565b600101612797565b50505050505050565b612842613ad9565b34156128615760405163f36ba73760e01b815260040160405180910390fd5b61286b828261405e565b5050565b612877613ad9565b604051633b06cddd60e11b81526001600160a01b0386169063760d9bba906128ab9030908890889088908890600401615560565b5f604051808303815f87803b1580156128c2575f5ffd5b505af11580156128d4573d5f5f3e3d5ffd5b505050505050505050565b6128e7613ad9565b60155460ff16156129305760405162461bcd60e51b8152602060048201526013602482015272105b1c9958591e481a5b9a5d1a585b1a5e9959606a1b60448201526064016103f2565b6040805160c081018252600460808201908152637261726560e01b60a08301528152600260208083019190915269152d02c7e14af6800000828401526009546001600160a01b031660608301528251808401909352600683526570686173653160d01b928101929092527fc24cb111102d5afff3e7e3d2a419e43bfcfbd1644e722d97ae1dde43689c692e5f52601790915280517fa9aa1e8a189607e91597e27491857fbfc907ec595f9d9290325545157e2761589081906129f290826155de565b506020828101516001830155604080840151600280850191909155606094850151600390940180546001600160a01b0319166001600160a01b03958616179055815160c081018352600460808201908152637261726560e01b60a083015281528084019190915269152d02c7e14af6800000818301526009549093169383019390935282518084019093526006835265383430b9b29960d11b928101929092527f31ff0d7509b9e31b70c2f6675efcb36969ae2d4720759268c27a3c2d51c51bb85f52601790915280517f2aaa4e2f7466e5ef9c5d95bff4cb034a4c3d8b4e1e74b3e9921b58eef6acfa3c908190612aea90826155de565b5060208281015160018301556040808401516002840155606093840151600390930180546001600160a01b0319166001600160a01b0390941693909317909255815160c081018352600660808201818152651b9bdc9b585b60d21b60a08401528252606482840152676f05b59d3b200000828501525f948201859052835180850190945283526570686173653360d01b928201929092527f937e1d94bc55ffec9829015291a63bd3e70285ccc44e824a2122a581cecdcf1b909252601790915280517fa47a4634de08d2d08fb56b3d6c50d18cfd4f4bfb89127f63af8c8b5a73669892908190612bda90826155de565b5060208281015160018301556040808401516002840155606093840151600390930180546001600160a01b0319166001600160a01b0390941693909317909255815160c081018352600660808201818152651b9bdc9b585b60d21b60a084015282526103e882840152678ac7230489e80000828501525f94820185905283518085019094528352651c1a185cd94d60d21b928201929092527f4f02ff418b3ad3258827773457b6f51bf42ca59a1eda9cab03e6762a5c0cb47b909252601790915280517f814fcff2c1c99d07f608f518b5c99b7a7d8d558a375c21c8a44b26e7fb5322ad908190612ccb90826155de565b506020828101516001838101919091556040808501516002850155606090940151600390930180546001600160a01b0319166001600160a01b03909416939093179092558251808401909352600683526570686173653160d01b928101929092527fc24cb111102d5afff3e7e3d2a419e43bfcfbd1644e722d97ae1dde43689c692e601455601a909152686c6b935b8bbd4000007ff88cd8d612926ebb404e40725c01084b6e9b3ce0344cde068570342cbd448c615568878678326eac9000007f4c287b3e2c2cb129ae3ba596d613d760b15affdac7242e12903c37a886ea1c4f5568bdbc41e0348b3000007f4ac83fca211703e3ddb90093cd219714e5e3715bf0b4fd15b0441390534a24e25568d8d726b7177a8000007f06b28f262ad931a15c9e47271fc159a891b2bcb0da2659cac5bbfed4886cf26e5569010f0cf064dd592000007f82f07edc09f3a46c1925d02252613a7fcc7be7d03b538b0c268df85f2f13a7ab8190557fe7513fcd4f864b78baf560f46c15980b6aa41b90911efc4ce7454b83cce613b15569054b40b1f852bda000007f2247382acc746a936c6b9b694445e53b16ccce9ebaa44dd1ce1d5f0641b0797b8190557f687151c9c7964c905d515053234445b7256d6eb52f0f0fb698ac00a08a410abf55690a968163f0a57b4000007f3a9dcd6f76534b067931c1cc4a24cb9c117c7d95c716bce6d59bb4825bc6713355600a5f5269152d02c7e14af68000007fdbe7ff1220189de7e6173da9d377e212c5f94fd76a3505f188b6c362d3973d9d556015805460ff19169091179055565b612f1c613ad9565b4780612f575760405162461bcd60e51b815260206004820152600a6024820152694e6f2062616c616e636560b01b60448201526064016103f2565b5f80546040516001600160a01b039091169083908381818185875af1925050503d805f8114612fa1576040519150601f19603f3d011682016040523d82523d5f602084013e612fa6565b606091505b5050905080612fe05760405162461bcd60e51b815260206004820152600660248201526511985a5b195960d21b60448201526064016103f2565b5f54604080518481524260208201526001600160a01b03909216917fdf273cb619d95419a9cd0ec88123a0538c85064229baa6363788f743fff90deb91015b60405180910390a25050565b5f61303583611bb6565b90506001600160a01b038116331461307857604051632d938f5160e11b81526001600160a01b0382166004820152602481018490523360448201526064016103f2565b6001600160a01b03841661309f57604051639577b8b360e01b815260040160405180910390fd5b836001600160a01b0316816001600160a01b0316036130d1576040516344fed6b160e11b815260040160405180910390fd5b5f8381526005602052604081206130e890866140a8565b90508061311a576040516314ec4d6d60e31b81526001600160a01b0386166004820152602481018590526044016103f2565b83826001600160a01b0316866001600160a01b03167f1b1b58aa2ec0cec2228b2d37124556d41f5a1f7b12f089171f896cc2366712158660405161315e91906148e2565b60405180910390a45f338560018660405160200161317f9493929190615698565b604051602081830303815290604052905061319a86826140bc565b505050505050565b6131aa613ad9565b60168190556040518181527f816103aac16cacfe1ebffcbcab87297d7aad12d1af1046d79a83ad3cc2607a529060200160405180910390a150565b6131ed613ad9565b341561320c5760405163f36ba73760e01b815260040160405180910390fd5b805182511461322e57604051633bcc897960e01b815260040160405180910390fd5b81515f0361324f576040516397da5f9560e01b815260040160405180910390fd5b5f5b825181101561329e5761329683828151811061326f5761326f61542a565b60200260200101518383815181106132895761328961542a565b602002602001015161405e565b600101613251565b505050565b6001600160a01b0381165f908152600460205260409020606090610d5c90613d63565b6132ce613ad9565b6126896140e7565b6132de613ad9565b815183511415806132f157508051825114155b1561330f576040516317d38eff60e11b815260040160405180910390fd5b82515f03613330576040516380c9830560e01b815260040160405180910390fd5b5f5b8351811015613399576133918482815181106133505761335061542a565b602002602001015184838151811061336a5761336a61542a565b60200260200101518484815181106133845761338461542a565b6020026020010151613b14565b600101613332565b50505050565b6133a7613ad9565b61329e838383613b14565b6133ba613ad9565b6040805160808101825285815260208082018690528183018590526001600160a01b03841660608301525f888152601790915291909120815181906133ff90826155de565b50602082015160018201556040808301516002830155606090920151600390910180546001600160a01b0319166001600160a01b039092169190911790555185907f77c929eb8d84e64bd596235f9c891fdd7bfdab5c78b3e9ffe8ab7d933b5815fb9061347390879087908790879061522f565b60405180910390a25050505050565b61348a613ad9565b612689614139565b60176020525f90815260409020805481906134ac90615457565b80601f01602080910402602001604051908101604052809291908181526020018280546134d890615457565b80156135235780601f106134fa57610100808354040283529160200191613523565b820191905f5260205f20905b81548152906001019060200180831161350657829003601f168201915b5050505060018301546002840154600390940154929390929091506001600160a01b031684565b5f61355484611bb6565b9050336001600160a01b038216146135a7576001600160a01b03851633146135a75760405163760b5acd60e01b81523360048201526001600160a01b0382166024820152604481018590526064016103f2565b6001600160a01b0385166135ce57604051639577b8b360e01b815260040160405180910390fd5b846001600160a01b0316816001600160a01b031603613600576040516344fed6b160e11b815260040160405180910390fd5b61360d8582868686614176565b82156123d4575f81855f8560405160200161317f9493929190615698565b606081516001600160401b03811115613646576136466148f4565b60405190808252806020026020018201604052801561367957816020015b60608152602001906001900390816136645790505b5090505f5b82518110156136ce576136a983828151811061369c5761369c61542a565b6020026020010151613f4b565b8282815181106136bb576136bb61542a565b602090810291909101015260010161367e565b50919050565b6136dc613ad9565b5f5b825181101561329e575f8382815181106136fa576136fa61542a565b60209081029190910101519050826001600160a01b03821661372f5760405163e6c4247b60e01b815260040160405180910390fd5b6001600160a01b0382165f818152601c6020908152604091829020805460ff191660ff861690811790915591519182527f7ed18aa59a2962897d3e7ed3da887dfb6a03cca6c3cfe8d74e55130f631791c8910160405180910390a250506001016136de565b61379c613ad9565b6001600160a01b0381166137c3576040516306b620db60e21b815260040160405180910390fd5b6137cc81613ff3565b50565b5f8281526019602052604081206001808201549192916137f49160ff909116906154c0565b9050600a8160ff16111561381b5760405163921c7d5f60e01b815260040160405180910390fd5b60ff81165f908152601a60205260409020548254818082101561385a5760405163dd100b9360e01b8152600481019290925260248201526044016103f2565b50506009546001600160a01b031663760d9bba33308460016040518563ffffffff1660e01b81526004016138919493929190615489565b5f604051808303815f87803b1580156138a8575f5ffd5b505af11580156138ba573d5f5f3e3d5ffd5b505050506138eb857f9afb95cacc9f95858ec44aa8c3b685511002e30ae54415823f406128b85b238e5f1b86613b14565b80835f015f8282546138fd91906156d0565b909155505050600191909101805460ff191660ff9092169190911790555050565b5f8080613942696773c5a04a6d4300884b60b11b6001600160e01b03198616614215565b90505f61394e82613f4b565b905080516014141580156139625750805115155b1561398257806040516342bfe79f60e01b81526004016103f291906148e2565b61398b816156e3565b60601c95600195509350505050565b5f6001600160e01b0319821663a918fa6b60e01b1480610d5c5750610d5c82614268565b5f806139d06301ffc9a760e01b61391e565b5090506001600160a01b0381166139e957505f92915050565b611ac9818461429c565b5f8281526006602090815260408083208484529091529020805460609190613a1a90615457565b80601f0160208091040260200160405190810160405280929190818152602001828054613a4690615457565b8015613a915780601f10613a6857610100808354040283529160200191613a91565b820191905f5260205f20905b815481529060010190602001808311613a7457829003601f168201915b5050505050905092915050565b5f613aa882611bb6565b6001600160a01b0316836001600160a01b03161480611ac957505f828152600560205260409020611ac99084614322565b33613aeb5f546001600160a01b031690565b6001600160a01b0316146126895760405163bf1169c560e01b81523360048201526024016103f2565b5f8381526006602090815260408083208584529091529020613b3682826155de565b5081837fa6e4251f855f750545fe414f120db91c76b88def14d120969e5bb2d3f05debbb83604051613b6891906148e2565b60405180910390a3505050565b600260085403613b9857604051633ee5aeb560e01b815260040160405180910390fd5b6002600855565b60075460ff16156126895760405163d93c066560e01b815260040160405180910390fd5b6001600160a01b038416613bea576040516324ecef4d60e01b815260040160405180910390fd5b5f838152600360205260409020546001600160a01b031615613c22576040516334c7b51160e01b8152600481018490526024016103f2565b5f838152600360205260409020546001600160a01b031615613c5a576040516334c7b51160e01b8152600481018490526024016103f2565b60025f8154613c6890615731565b909155506001600160a01b0384165f908152600460205260409020613c8d9084614343565b505f8381526003602052604080822080546001600160a01b0319166001600160a01b03881690811790915590518592907fb333c813a7426a7a11e2b190cad52c44119421594b47f6f32ace6d8c7207b2bf90613cee90339088908890615749565b60405180910390a45f335f868685604051602001613d10959493929190615774565b60405160208183030381529060405290506123d485848361434e565b5f818152600360205260409020546001600160a01b03166137cc57604051635747cd1b60e11b8152600481018290526024016103f2565b60605f611ac983614451565b5f613d7984611bb6565b9050856001600160a01b0316816001600160a01b031614613dc757604051632d938f5160e11b81526001600160a01b03808316600483015260248201869052871660448201526064016103f2565b6001600160a01b038516613dee576040516324ecef4d60e01b815260040160405180910390fd5b5f613df885611bb6565b9050806001600160a01b0316826001600160a01b031614613e4657604051635a9c31d360e01b8152600481018690526001600160a01b038084166024830152821660448201526064016103f2565b613e5087866144a9565b6001600160a01b0387165f908152600460205260409020613e7190866144fc565b506001600160a01b0386165f908152600460205260409020613e939086614343565b505f858152600360205260409081902080546001600160a01b0319166001600160a01b0389811691821790925591518792918a16907fb333c813a7426a7a11e2b190cad52c44119421594b47f6f32ace6d8c7207b2bf90613ef99033908a908a90615749565b60405180910390a45f3388888887604051602001613f1b959493929190615774565b6040516020818303038152906040529050613f368882614507565b613f4187868361434e565b5050505050505050565b5f818152600160205260409020805460609190613f6790615457565b80601f0160208091040260200160405190810160405280929190818152602001828054613f9390615457565b8015613fde5780601f10613fb557610100808354040283529160200191613fde565b820191905f5260205f20905b815481529060010190602001808311613fc157829003601f168201915b50505050509050919050565b5f610d5c825490565b5f546001600160a01b038281169116146137cc575f80546040516001600160a01b03808516939216917f8be0079c531659141344cd1fd0a4f28419497f9722a3daafe3b4186f6b6457e091a35f80546001600160a01b0383166001600160a01b031990911617905550565b7f098a16c9e50e3e99b3e797305c146898d294e5aec55a47e213cb3611ccf17e73820161409e57604051631b32400560e11b815260040160405180910390fd5b61286b8282614532565b5f611ac9836001600160a01b03841661453c565b61286b827f8a1c15a8799f71b547e08e2bcb2e85257e81b0a07eee2ce6712549eef1f0097083614588565b6140ef6145d5565b6007805460ff191690557f5db9ee0a495bf2e6ff9c91a7834c1ba4fdd244a5e8aa4e537bd38aeae4b073aa335b6040516001600160a01b03909116815260200160405180910390a1565b614141613b9f565b6007805460ff191660011790557f62e78cea01bee320cd4e420270b5ea74000d11b0c9f74754ebdbfc544b05a25861411c3390565b5f83815260056020526040812061418d90876145f8565b9050806141bf576040516312a8c6a360e21b81526001600160a01b0387166004820152602481018590526044016103f2565b83856001600160a01b0316876001600160a01b03167fc78cd419d6136f9f1c1c6aec1d3fae098cffaf8bc86314a8f2685e32fe574e3c86866040516142059291906157ae565b60405180910390a4505050505050565b604080516001600160b01b0319841660208201525f602a82018190526001600160601b03198416602c83015291829101604051602081830303815290604052905080614260906157c8565b949350505050565b5f6001600160e01b031982166318a6a9a560e21b1480610d5c57506301ffc9a760e01b6001600160e01b0319831614610d5c565b6040516001600160e01b0319821660248201525f90819060440160408051601f19818403018152919052602080820180516001600160e01b03166301ffc9a760e01b17815282519293505f9283928392909183918a617530fa92503d91505f51905082801561430c575060208210155b801561431757505f81115b979650505050505050565b6001600160a01b0381165f9081526001830160205260408120541515611ac9565b5f611ac9838361453c565b61435f83631aed5a8560e21b61429c565b156143f457604051631aed5a8560e21b81526001600160a01b03841690636bb56a14906143b2907f0b084a55ebf70fd3c06fd755269dac2212c4d3f0f4d09079780bfa50c1b2984d9085906004016157eb565b5f604051808303815f875af11580156143cd573d5f5f3e3d5ffd5b505050506040513d5f823e601f3d908101601f191682016040526133999190810190615803565b8161329e576001600160a01b0383163b1561442d57604051634349776d60e01b81526001600160a01b03841660048201526024016103f2565b604051630317313760e01b81526001600160a01b03841660048201526024016103f2565b6060815f01805480602002602001604051908101604052809291908181526020018280548015613fde57602002820191905f5260205f20905b81548152602001906001019080831161448a5750505050509050919050565b5f818152600560205260408120906144c082613fea565b90505f5f5b8281101561319a576144d7845f61460c565b91506144f48287875f60405180602001604052805f815250614176565b6001016144c5565b5f611ac98383614617565b61286b827fb23eae7e6d1564b295b4c3e3be402d9a2f0776c57bdf365903496f6fa481ab0083614588565b61286b82826146fa565b5f81815260018301602052604081205461458157508154600181810184555f848152602080822090930184905584548482528286019093526040902091909155610d5c565b505f610d5c565b6145a26001600160a01b038416631aed5a8560e21b61429c565b1561329e57604051631aed5a8560e21b81526001600160a01b03841690636bb56a14906143b290859085906004016157eb565b60075460ff1661268957604051638dfc202b60e01b815260040160405180910390fd5b5f611ac9836001600160a01b038416614617565b5f611ac98383614802565b5f81815260018301602052604081205480156146f1575f6146396001836156d0565b85549091505f9061464c906001906156d0565b90508082146146ab575f865f01828154811061466a5761466a61542a565b905f5260205f200154905080875f01848154811061468a5761468a61542a565b5f918252602080832090910192909255918252600188019052604090208390555b85548690806146bc576146bc615877565b600190038181905f5260205f20015f90559055856001015f8681526020019081526020015f205f905560019350505050610d5c565b5f915050610d5c565b7f2145e1d6d074577dc71ef54c3807742b41b053a9352ae6b491331509acb9750f820161473a576040516385c169bd60e01b815260040160405180910390fd5b7fd0f59754f88971fe6bc5a6618cc9d5f1e859c58d16b22d1c7b2d3e2b246cd8aa820161477a57604051630eceab6760e31b815260040160405180910390fd5b7f1fd9e056a24d14c4abc642fcc325992a946906d0dbc57dd70278aaf12842024d82016147ba57604051634ef6d7fb60e01b815260040160405180910390fd5b5f8281526001602052604090206147d182826155de565b50817fece574603820d07bc9b91f2a932baadf4628aabcb8afba49776529c14a6104b28260405161301f91906148e2565b5f825f0182815481106148175761481761542a565b905f5260205f200154905092915050565b60208152816020820152818360408301375f818301604090810191909152601f909201601f19160101919050565b5f60208284031215614866575f5ffd5b81356001600160e01b031981168114611ac9575f5ffd5b5f6020828403121561488d575f5ffd5b5035919050565b5f5f604083850312156148a5575f5ffd5b50508035926020909101359150565b5f81518084528060208401602086015e5f602082860101526020601f19601f83011685010191505092915050565b602081525f611ac960208301846148b4565b634e487b7160e01b5f52604160045260245ffd5b60405161014081016001600160401b038111828210171561492b5761492b6148f4565b60405290565b604051601f8201601f191681016001600160401b0381118282101715614959576149596148f4565b604052919050565b5f6001600160401b03821115614979576149796148f4565b5060051b60200190565b5f82601f830112614992575f5ffd5b81356149a56149a082614961565b614931565b8082825260208201915060208360051b8601019250858311156149c6575f5ffd5b602085015b838110156149e35780358352602092830192016149cb565b5095945050505050565b5f5f604083850312156149fe575f5ffd5b82356001600160401b03811115614a13575f5ffd5b614a1f85828601614983565b92505060208301356001600160401b03811115614a3a575f5ffd5b614a4685828601614983565b9150509250929050565b5f602082016020835280845180835260408501915060408160051b8601019250602086015f5b82811015614aa757603f19878603018452614a928583516148b4565b94506020938401939190910190600101614a76565b50929695505050505050565b80356001600160a01b0381168114614ac9575f5ffd5b919050565b5f5f60408385031215614adf575f5ffd5b614ae883614ab3565b946020939093013593505050565b5f610140828403128015614b08575f5ffd5b50614b11614908565b614b1a83614ab3565b8152614b2860208401614ab3565b6020820152614b3960408401614ab3565b6040820152614b4a60608401614ab3565b6060820152614b5b60808401614ab3565b6080820152614b6c60a08401614ab3565b60a0820152614b7d60c08401614ab3565b60c0820152614b8e60e08401614ab3565b60e0820152614ba06101008401614ab3565b610100820152614bb36101208401614ab3565b6101208201529392505050565b5f6001600160401b03821115614bd857614bd86148f4565b50601f01601f191660200190565b5f614bf36149a084614bc0565b9050828152838383011115614c06575f5ffd5b828260208301375f602084830101529392505050565b5f82601f830112614c2b575f5ffd5b611ac983833560208501614be6565b5f5f60408385031215614c4b575f5ffd5b8235915060208301356001600160401b03811115614c67575f5ffd5b614a4685828601614c1c565b5f60208284031215614c83575f5ffd5b611ac982614ab3565b602080825282518282018190525f918401906040840190835b81811015614ccc5783516001600160a01b0316835260209384019390920191600101614ca5565b509095945050505050565b80151581146137cc575f5ffd5b5f5f5f5f5f60a08688031215614cf8575f5ffd5b614d0186614ab3565b9450614d0f60208701614ab3565b9350604086013592506060860135614d2681614cd7565b915060808601356001600160401b03811115614d40575f5ffd5b614d4c88828901614c1c565b9150509295509295909350565b5f5f5f60608486031215614d6b575f5ffd5b833592506020840135915060408401356001600160401b03811115614d8e575f5ffd5b614d9a86828701614c1c565b9150509250925092565b5f5f60208385031215614db5575f5ffd5b82356001600160401b03811115614dca575f5ffd5b8301601f81018513614dda575f5ffd5b80356001600160401b03811115614def575f5ffd5b8560208260051b8401011115614e03575f5ffd5b6020919091019590945092505050565b803560ff81168114614ac9575f5ffd5b5f5f5f60608486031215614e35575f5ffd5b8335925060208401359150614e4c60408501614e13565b90509250925092565b5f82601f830112614e64575f5ffd5b8135614e726149a082614961565b8082825260208201915060208360051b860101925085831115614e93575f5ffd5b602085015b838110156149e357614ea981614ab3565b835260209283019201614e98565b5f82601f830112614ec6575f5ffd5b8135614ed46149a082614961565b8082825260208201915060208360051b860101925085831115614ef5575f5ffd5b602085015b838110156149e3578035614f0d81614cd7565b835260209283019201614efa565b5f82601f830112614f2a575f5ffd5b8135614f386149a082614961565b8082825260208201915060208360051b860101925085831115614f59575f5ffd5b602085015b838110156149e35780356001600160401b03811115614f7b575f5ffd5b614f8a886020838a0101614c1c565b84525060209283019201614f5e565b5f5f5f5f5f60a08688031215614fad575f5ffd5b85356001600160401b03811115614fc2575f5ffd5b614fce88828901614e55565b95505060208601356001600160401b03811115614fe9575f5ffd5b614ff588828901614e55565b94505060408601356001600160401b03811115615010575f5ffd5b61501c88828901614983565b93505060608601356001600160401b03811115615037575f5ffd5b61504388828901614eb7565b92505060808601356001600160401b0381111561505e575f5ffd5b614d4c88828901614f1b565b5f5f5f6060848603121561507c575f5ffd5b61508584614ab3565b92506020840135915060408401356001600160401b03811115614d8e575f5ffd5b5f5f604083850312156150b7575f5ffd5b82356001600160401b038111156150cc575f5ffd5b6150d885828601614983565b92505060208301356001600160401b038111156150f3575f5ffd5b614a4685828601614f1b565b602080825282518282018190525f918401906040840190835b81811015614ccc578351835260209384019390920191600101615118565b5f5f5f60608486031215615148575f5ffd5b83356001600160401b0381111561515d575f5ffd5b61516986828701614983565b93505060208401356001600160401b03811115615184575f5ffd5b61519086828701614983565b92505060408401356001600160401b038111156151ab575f5ffd5b614d9a86828701614f1b565b5f5f5f5f5f60a086880312156151cb575f5ffd5b8535945060208601356001600160401b038111156151e7575f5ffd5b8601601f810188136151f7575f5ffd5b61520688823560208401614be6565b945050604086013592506060860135915061522360808701614ab3565b90509295509295909350565b608081525f61524160808301876148b4565b60208301959095525060408101929092526001600160a01b0316606090910152919050565b5f5f5f5f60808587031215615279575f5ffd5b61528285614ab3565b935060208501359250604085013561529981614cd7565b915060608501356001600160401b038111156152b3575f5ffd5b6152bf87828801614c1c565b91505092959194509250565b5f602082840312156152db575f5ffd5b81356001600160401b038111156152f0575f5ffd5b61426084828501614983565b5f5f6040838503121561530d575f5ffd5b82356001600160401b03811115615322575f5ffd5b61532e85828601614e55565b92505061533d60208401614e13565b90509250929050565b5f60208284031215615356575f5ffd5b611ac982614e13565b8385823760609290921b6001600160601b031916919092019081526014810191909152603401919050565b5f82518060208501845e5f920191825250919050565b634e487b7160e01b5f52601160045260245ffd5b80820180821115610d5c57610d5c6153a0565b5f602082840312156153d7575f5ffd5b5051919050565b8082028115828204841417610d5c57610d5c6153a0565b6001600160a01b0392831681529116602082015260400190565b5f6020828403121561541f575f5ffd5b8151611ac981614cd7565b634e487b7160e01b5f52603260045260245ffd5b60ff8281168282160390811115610d5c57610d5c6153a0565b600181811c9082168061546b57607f821691505b6020821081036136ce57634e487b7160e01b5f52602260045260245ffd5b6001600160a01b0394851681529290931660208301526040820152901515606082015260a0608082018190525f9082015260c00190565b60ff8181168382160190811115610d5c57610d5c6153a0565b60018060a01b0384168152826020820152606060408201525f6154ff60608301846148b4565b95945050505050565b5f5f8335601e1984360301811261551d575f5ffd5b8301803591506001600160401b03821115615536575f5ffd5b60200191503681900382131561554a575f5ffd5b9250929050565b818382375f9101908152919050565b6001600160a01b0386811682528516602082015260408101849052821515606082015260a0608082018190525f90614317908301846148b4565b601f82111561329e57805f5260205f20601f840160051c810160208510156155bf5750805b601f840160051c820191505b818110156123d4575f81556001016155cb565b81516001600160401b038111156155f7576155f76148f4565b61560b816156058454615457565b8461559a565b6020601f82116001811461563d575f83156156265750848201515b5f19600385901b1c1916600184901b1784556123d4565b5f84815260208120601f198516915b8281101561566c578785015182556020948501946001909201910161564c565b508482101561568957868401515f19600387901b60f8161c191681555b50505050600190811b01905550565b60018060a01b03851681528360208201528215156040820152608060608201525f6156c660808301846148b4565b9695505050505050565b81810381811115610d5c57610d5c6153a0565b805160208201516001600160601b031981169190601482101561572a576bffffffffffffffffffffffff196bffffffffffffffffffffffff198360140360031b1b82161692505b5050919050565b5f60018201615742576157426153a0565b5060010190565b6001600160a01b038416815282151560208201526060604082018190525f906154ff908301846148b4565b6001600160a01b0386811682528581166020830152841660408201526060810183905260a0608082018190525f90614317908301846148b4565b8215158152604060208201525f61426060408301846148b4565b805160208083015191908110156136ce575f1960209190910360031b1b16919050565b828152604060208201525f61426060408301846148b4565b5f60208284031215615813575f5ffd5b81516001600160401b03811115615828575f5ffd5b8201601f81018413615838575f5ffd5b80516158466149a082614bc0565b81815285602083850101111561585a575f5ffd5b8160208401602083015e5f91810160200191909152949350505050565b634e487b7160e01b5f52603160045260245ffdfea26469706673582212207b2d020a6a1286cb42f87b9c25036a34004db2e2661150cbc9d42bb8393a08d464736f6c634300081e0033",
			"opcodes": "PUSH2 0x120 PUSH1 0x40 MSTORE PUSH2 0x1F4 PUSH1 0x16 SSTORE CALLVALUE DUP1 ISZERO PUSH2 0x16 JUMPI PUSH0 PUSH0 REVERT JUMPDEST POP PUSH1 0x40 MLOAD PUSH2 0x6310 CODESIZE SUB DUP1 PUSH2 0x6310 DUP4 CODECOPY DUP2 ADD PUSH1 0x40 DUP2 SWAP1 MSTORE PUSH2 0x35 SWAP2 PUSH2 0x72D JUMP JUMPDEST PUSH1 0x40 DUP1 MLOAD DUP1 DUP3 ADD DUP3 MSTORE PUSH1 0x8 DUP2 MSTORE PUSH8 0x4C756B5365616C73 PUSH1 0xC0 SHL PUSH1 0x20 DUP1 DUP4 ADD SWAP2 SWAP1 SWAP2 MSTORE DUP3 MLOAD DUP1 DUP5 ADD SWAP1 SWAP4 MSTORE PUSH1 0x4 DUP4 MSTORE PUSH4 0x14D15053 PUSH1 0xE2 SHL SWAP1 DUP4 ADD MSTORE SWAP1 CALLER PUSH1 0x2 PUSH0 DUP5 DUP5 DUP5 DUP5 DUP2 DUP1 PUSH2 0x97 JUMPI PUSH1 0x40 MLOAD PUSH4 0x6B620DB PUSH1 0xE2 SHL DUP2 MSTORE PUSH1 0x4 ADD PUSH1 0x40 MLOAD DUP1 SWAP2 SUB SWAP1 REVERT JUMPDEST PUSH2 0xA0 DUP2 PUSH2 0x235 JUMP JUMPDEST POP PUSH1 0x40 DUP1 MLOAD DUP1 DUP3 ADD SWAP1 SWAP2 MSTORE PUSH1 0x4 DUP2 MSTORE PUSH4 0x29365989 PUSH1 0xE2 SHL PUSH1 0x20 DUP3 ADD MSTORE PUSH2 0xE7 SWAP1 PUSH32 0xEAFEC4D89FA9619884B60000A4D96624A38F7AC2D8D9A604ECF07C12C77E480C SWAP1 PUSH2 0x29F JUMP JUMPDEST PUSH2 0x111 PUSH32 0xDEBA1E292F8BA88238E10AB3C7F88BD4BE4FAC56CAD5194B6ECCEAF653468AF1 DUP6 PUSH2 0x29F JUMP JUMPDEST PUSH2 0x13B PUSH32 0x2F0A68AB07768E01943A599E73362A0E17A63A72E94DD2E384D2C1D4DB932756 DUP5 PUSH2 0x29F JUMP JUMPDEST PUSH1 0x40 DUP1 MLOAD PUSH1 0x20 DUP2 ADD DUP4 SWAP1 MSTORE PUSH2 0x182 SWAP2 PUSH32 0xE0261FA95DB2EB3B5439BD033CDA66D56B96F92F243A8228FD87550ED7BDFDB3 SWAP2 ADD PUSH1 0x40 DUP1 MLOAD PUSH1 0x1F NOT DUP2 DUP5 SUB ADD DUP2 MSTORE SWAP2 SWAP1 MSTORE PUSH2 0x29F JUMP JUMPDEST POP POP PUSH1 0x40 DUP1 MLOAD PUSH1 0x20 DUP2 ADD DUP6 SWAP1 MSTORE PUSH2 0x1CD SWAP4 POP PUSH32 0xF675E9361AF1C1664C1868CFA3EB97672D6B1A513AA5B81DEC34C9EE330E818D SWAP3 POP ADD PUSH1 0x40 DUP1 MLOAD PUSH1 0x1F NOT DUP2 DUP5 SUB ADD DUP2 MSTORE SWAP2 SWAP1 MSTORE PUSH2 0x2F3 JUMP JUMPDEST POP POP PUSH1 0x7 DUP1 SLOAD PUSH1 0xFF NOT AND SWAP1 SSTORE POP POP PUSH1 0x1 PUSH1 0x8 SSTORE POP PUSH2 0x1EA DUP3 PUSH2 0x301 JUMP JUMPDEST DUP2 MLOAD PUSH1 0x1 PUSH1 0x1 PUSH1 0xA0 SHL SUB SWAP1 DUP2 AND PUSH1 0x80 MSTORE PUSH1 0x20 DUP4 ADD MLOAD DUP2 AND PUSH1 0xA0 MSTORE PUSH1 0x40 DUP4 ADD MLOAD DUP2 AND PUSH1 0xC0 MSTORE PUSH1 0x60 DUP4 ADD MLOAD DUP2 AND PUSH1 0xE0 MSTORE PUSH2 0x120 DUP4 ADD MLOAD AND PUSH2 0x100 MSTORE PUSH2 0x22E DUP2 PUSH1 0x1 PUSH2 0x459 JUMP JUMPDEST POP POP PUSH2 0x9B7 JUMP JUMPDEST PUSH0 SLOAD PUSH1 0x1 PUSH1 0x1 PUSH1 0xA0 SHL SUB DUP3 DUP2 AND SWAP2 AND EQ PUSH2 0x29C JUMPI PUSH0 DUP1 SLOAD PUSH1 0x40 MLOAD PUSH1 0x1 PUSH1 0x1 PUSH1 0xA0 SHL SUB DUP1 DUP6 AND SWAP4 SWAP3 AND SWAP2 PUSH32 0x8BE0079C531659141344CD1FD0A4F28419497F9722A3DAAFE3B4186F6B6457E0 SWAP2 LOG3 PUSH0 DUP1 SLOAD PUSH1 0x1 PUSH1 0x1 PUSH1 0xA0 SHL SUB NOT AND PUSH1 0x1 PUSH1 0x1 PUSH1 0xA0 SHL SUB DUP4 AND OR SWAP1 SSTORE JUMPDEST POP JUMP JUMPDEST PUSH0 DUP3 DUP2 MSTORE PUSH1 0x1 PUSH1 0x20 MSTORE PUSH1 0x40 SWAP1 KECCAK256 PUSH2 0x2B6 DUP3 DUP3 PUSH2 0x8B4 JUMP JUMPDEST POP DUP2 PUSH32 0xECE574603820D07BC9B91F2A932BAADF4628AABCB8AFBA49776529C14A6104B2 DUP3 PUSH1 0x40 MLOAD PUSH2 0x2E7 SWAP2 SWAP1 PUSH2 0x96E JUMP JUMPDEST PUSH1 0x40 MLOAD DUP1 SWAP2 SUB SWAP1 LOG2 POP POP JUMP JUMPDEST PUSH2 0x2FD DUP3 DUP3 PUSH2 0x51E JUMP JUMPDEST POP POP JUMP JUMPDEST PUSH2 0x309 PUSH2 0x5DE JUMP JUMPDEST DUP1 MLOAD PUSH1 0x9 DUP1 SLOAD PUSH1 0x1 PUSH1 0x1 PUSH1 0xA0 SHL SUB SWAP3 DUP4 AND PUSH1 0x1 PUSH1 0x1 PUSH1 0xA0 SHL SUB NOT SWAP2 DUP3 AND DUP2 OR SWAP1 SWAP3 SSTORE PUSH1 0x20 DUP5 ADD MLOAD PUSH1 0xA DUP1 SLOAD SWAP2 DUP6 AND SWAP2 DUP4 AND DUP3 OR SWAP1 SSTORE PUSH1 0x40 DUP1 DUP7 ADD MLOAD PUSH1 0xB DUP1 SLOAD SWAP2 DUP8 AND SWAP2 DUP6 AND DUP3 OR SWAP1 SSTORE PUSH1 0x60 DUP8 ADD MLOAD PUSH1 0xC DUP1 SLOAD DUP3 DUP10 AND SWAP1 DUP8 AND OR SWAP1 SSTORE PUSH1 0x80 DUP9 ADD MLOAD PUSH1 0xD DUP1 SLOAD DUP3 DUP11 AND SWAP1 DUP9 AND OR SWAP1 SSTORE PUSH1 0xA0 DUP10 ADD MLOAD PUSH1 0xE DUP1 SLOAD DUP3 DUP12 AND SWAP1 DUP10 AND OR SWAP1 SSTORE PUSH1 0xC0 DUP11 ADD MLOAD PUSH1 0xF DUP1 SLOAD DUP3 DUP13 AND SWAP1 DUP11 AND OR SWAP1 SSTORE PUSH1 0xE0 DUP12 ADD MLOAD PUSH1 0x10 DUP1 SLOAD DUP3 DUP14 AND SWAP1 DUP12 AND OR SWAP1 SSTORE PUSH2 0x100 DUP13 ADD MLOAD PUSH1 0x11 DUP1 SLOAD DUP3 DUP15 AND SWAP1 DUP13 AND OR SWAP1 SSTORE PUSH2 0x120 DUP14 ADD MLOAD PUSH1 0x12 DUP1 SLOAD SWAP14 DUP3 AND SWAP14 SWAP1 SWAP12 AND SWAP13 SWAP1 SWAP13 OR SWAP1 SWAP10 SSTORE SWAP6 MLOAD SWAP5 SWAP10 SWAP7 SWAP9 SWAP8 PUSH32 0xD7FF29EFFCED1B6A8B99FF16244C286AF48221D90470A241C633BCC7C9DFD84D SWAP8 PUSH2 0x44E SWAP8 SWAP6 SWAP7 SWAP5 SWAP6 SWAP4 SWAP5 SWAP3 SWAP4 SWAP3 PUSH1 0x1 PUSH1 0x1 PUSH1 0xA0 SHL SUB SWAP8 DUP9 AND DUP2 MSTORE SWAP6 DUP8 AND PUSH1 0x20 DUP8 ADD MSTORE SWAP4 DUP7 AND PUSH1 0x40 DUP7 ADD MSTORE SWAP2 DUP6 AND PUSH1 0x60 DUP6 ADD MSTORE DUP5 AND PUSH1 0x80 DUP5 ADD MSTORE DUP4 AND PUSH1 0xA0 DUP4 ADD MSTORE SWAP1 SWAP2 AND PUSH1 0xC0 DUP3 ADD MSTORE PUSH1 0xE0 ADD SWAP1 JUMP JUMPDEST PUSH1 0x40 MLOAD DUP1 SWAP2 SUB SWAP1 LOG4 POP JUMP JUMPDEST PUSH2 0x461 PUSH2 0x5DE JUMP JUMPDEST PUSH0 JUMPDEST DUP3 MLOAD DUP2 LT ISZERO PUSH2 0x519 JUMPI PUSH0 DUP4 DUP3 DUP2 MLOAD DUP2 LT PUSH2 0x47F JUMPI PUSH2 0x47F PUSH2 0x9A3 JUMP JUMPDEST PUSH1 0x20 SWAP1 DUP2 MUL SWAP2 SWAP1 SWAP2 ADD ADD MLOAD SWAP1 POP DUP3 PUSH1 0x1 PUSH1 0x1 PUSH1 0xA0 SHL SUB DUP3 AND PUSH2 0x4B4 JUMPI PUSH1 0x40 MLOAD PUSH4 0xE6C4247B PUSH1 0xE0 SHL DUP2 MSTORE PUSH1 0x4 ADD PUSH1 0x40 MLOAD DUP1 SWAP2 SUB SWAP1 REVERT JUMPDEST PUSH1 0x1 PUSH1 0x1 PUSH1 0xA0 SHL SUB DUP3 AND PUSH0 DUP2 DUP2 MSTORE PUSH1 0x1C PUSH1 0x20 SWAP1 DUP2 MSTORE PUSH1 0x40 SWAP2 DUP3 SWAP1 KECCAK256 DUP1 SLOAD PUSH1 0xFF NOT AND PUSH1 0xFF DUP7 AND SWAP1 DUP2 OR SWAP1 SWAP2 SSTORE SWAP2 MLOAD SWAP2 DUP3 MSTORE PUSH32 0x7ED18AA59A2962897D3E7ED3DA887DFB6A03CCA6C3CFE8D74E55130F631791C8 SWAP2 ADD PUSH1 0x40 MLOAD DUP1 SWAP2 SUB SWAP1 LOG2 POP POP PUSH1 0x1 ADD PUSH2 0x463 JUMP JUMPDEST POP POP POP JUMP JUMPDEST PUSH32 0x2145E1D6D074577DC71EF54C3807742B41B053A9352AE6B491331509ACB9750F DUP3 ADD PUSH2 0x55E JUMPI PUSH1 0x40 MLOAD PUSH4 0x85C169BD PUSH1 0xE0 SHL DUP2 MSTORE PUSH1 0x4 ADD PUSH1 0x40 MLOAD DUP1 SWAP2 SUB SWAP1 REVERT JUMPDEST PUSH32 0xD0F59754F88971FE6BC5A6618CC9D5F1E859C58D16B22D1C7B2D3E2B246CD8AA DUP3 ADD PUSH2 0x59E JUMPI PUSH1 0x40 MLOAD PUSH4 0xECEAB67 PUSH1 0xE3 SHL DUP2 MSTORE PUSH1 0x4 ADD PUSH1 0x40 MLOAD DUP1 SWAP2 SUB SWAP1 REVERT JUMPDEST PUSH32 0x1FD9E056A24D14C4ABC642FCC325992A946906D0DBC57DD70278AAF12842024D DUP3 ADD PUSH2 0x29F JUMPI PUSH1 0x40 MLOAD PUSH4 0x4EF6D7FB PUSH1 0xE0 SHL DUP2 MSTORE PUSH1 0x4 ADD PUSH1 0x40 MLOAD DUP1 SWAP2 SUB SWAP1 REVERT JUMPDEST CALLER PUSH2 0x5F0 PUSH0 SLOAD PUSH1 0x1 PUSH1 0x1 PUSH1 0xA0 SHL SUB AND SWAP1 JUMP JUMPDEST PUSH1 0x1 PUSH1 0x1 PUSH1 0xA0 SHL SUB AND EQ PUSH2 0x61D JUMPI PUSH1 0x40 MLOAD PUSH4 0xBF1169C5 PUSH1 0xE0 SHL DUP2 MSTORE CALLER PUSH1 0x4 DUP3 ADD MSTORE PUSH1 0x24 ADD PUSH1 0x40 MLOAD DUP1 SWAP2 SUB SWAP1 REVERT JUMPDEST JUMP JUMPDEST PUSH4 0x4E487B71 PUSH1 0xE0 SHL PUSH0 MSTORE PUSH1 0x41 PUSH1 0x4 MSTORE PUSH1 0x24 PUSH0 REVERT JUMPDEST PUSH1 0x40 MLOAD PUSH2 0x140 DUP2 ADD PUSH1 0x1 PUSH1 0x1 PUSH1 0x40 SHL SUB DUP2 GT DUP3 DUP3 LT OR ISZERO PUSH2 0x656 JUMPI PUSH2 0x656 PUSH2 0x61F JUMP JUMPDEST PUSH1 0x40 MSTORE SWAP1 JUMP JUMPDEST PUSH1 0x40 MLOAD PUSH1 0x1F DUP3 ADD PUSH1 0x1F NOT AND DUP2 ADD PUSH1 0x1 PUSH1 0x1 PUSH1 0x40 SHL SUB DUP2 GT DUP3 DUP3 LT OR ISZERO PUSH2 0x684 JUMPI PUSH2 0x684 PUSH2 0x61F JUMP JUMPDEST PUSH1 0x40 MSTORE SWAP2 SWAP1 POP JUMP JUMPDEST DUP1 MLOAD PUSH1 0x1 PUSH1 0x1 PUSH1 0xA0 SHL SUB DUP2 AND DUP2 EQ PUSH2 0x6A2 JUMPI PUSH0 PUSH0 REVERT JUMPDEST SWAP2 SWAP1 POP JUMP JUMPDEST PUSH0 DUP3 PUSH1 0x1F DUP4 ADD SLT PUSH2 0x6B6 JUMPI PUSH0 PUSH0 REVERT JUMPDEST DUP2 MLOAD PUSH1 0x1 PUSH1 0x1 PUSH1 0x40 SHL SUB DUP2 GT ISZERO PUSH2 0x6CF JUMPI PUSH2 0x6CF PUSH2 0x61F JUMP JUMPDEST DUP1 PUSH1 0x5 SHL PUSH2 0x6DF PUSH1 0x20 DUP3 ADD PUSH2 0x65C JUMP JUMPDEST SWAP2 DUP3 MSTORE PUSH1 0x20 DUP2 DUP6 ADD DUP2 ADD SWAP3 SWAP1 DUP2 ADD SWAP1 DUP7 DUP5 GT ISZERO PUSH2 0x6FA JUMPI PUSH0 PUSH0 REVERT JUMPDEST PUSH1 0x20 DUP7 ADD SWAP3 POP JUMPDEST DUP4 DUP4 LT ISZERO PUSH2 0x723 JUMPI PUSH2 0x712 DUP4 PUSH2 0x68C JUMP JUMPDEST DUP3 MSTORE PUSH1 0x20 SWAP3 DUP4 ADD SWAP3 SWAP1 SWAP2 ADD SWAP1 PUSH2 0x701 JUMP JUMPDEST SWAP7 SWAP6 POP POP POP POP POP POP JUMP JUMPDEST PUSH0 PUSH0 DUP3 DUP5 SUB PUSH2 0x160 DUP2 SLT ISZERO PUSH2 0x740 JUMPI PUSH0 PUSH0 REVERT JUMPDEST PUSH2 0x140 DUP2 SLT ISZERO PUSH2 0x74E JUMPI PUSH0 PUSH0 REVERT JUMPDEST POP PUSH2 0x757 PUSH2 0x633 JUMP JUMPDEST PUSH2 0x760 DUP5 PUSH2 0x68C JUMP JUMPDEST DUP2 MSTORE PUSH2 0x76E PUSH1 0x20 DUP6 ADD PUSH2 0x68C JUMP JUMPDEST PUSH1 0x20 DUP3 ADD MSTORE PUSH2 0x77F PUSH1 0x40 DUP6 ADD PUSH2 0x68C JUMP JUMPDEST PUSH1 0x40 DUP3 ADD MSTORE PUSH2 0x790 PUSH1 0x60 DUP6 ADD PUSH2 0x68C JUMP JUMPDEST PUSH1 0x60 DUP3 ADD MSTORE PUSH2 0x7A1 PUSH1 0x80 DUP6 ADD PUSH2 0x68C JUMP JUMPDEST PUSH1 0x80 DUP3 ADD MSTORE PUSH2 0x7B2 PUSH1 0xA0 DUP6 ADD PUSH2 0x68C JUMP JUMPDEST PUSH1 0xA0 DUP3 ADD MSTORE PUSH2 0x7C3 PUSH1 0xC0 DUP6 ADD PUSH2 0x68C JUMP JUMPDEST PUSH1 0xC0 DUP3 ADD MSTORE PUSH2 0x7D4 PUSH1 0xE0 DUP6 ADD PUSH2 0x68C JUMP JUMPDEST PUSH1 0xE0 DUP3 ADD MSTORE PUSH2 0x7E6 PUSH2 0x100 DUP6 ADD PUSH2 0x68C JUMP JUMPDEST PUSH2 0x100 DUP3 ADD MSTORE PUSH2 0x7F9 PUSH2 0x120 DUP6 ADD PUSH2 0x68C JUMP JUMPDEST PUSH2 0x120 DUP3 ADD MSTORE PUSH2 0x140 DUP5 ADD MLOAD SWAP1 SWAP3 POP PUSH1 0x1 PUSH1 0x1 PUSH1 0x40 SHL SUB DUP2 GT ISZERO PUSH2 0x81B JUMPI PUSH0 PUSH0 REVERT JUMPDEST PUSH2 0x827 DUP6 DUP3 DUP7 ADD PUSH2 0x6A7 JUMP JUMPDEST SWAP2 POP POP SWAP3 POP SWAP3 SWAP1 POP JUMP JUMPDEST PUSH1 0x1 DUP2 DUP2 SHR SWAP1 DUP3 AND DUP1 PUSH2 0x845 JUMPI PUSH1 0x7F DUP3 AND SWAP2 POP JUMPDEST PUSH1 0x20 DUP3 LT DUP2 SUB PUSH2 0x863 JUMPI PUSH4 0x4E487B71 PUSH1 0xE0 SHL PUSH0 MSTORE PUSH1 0x22 PUSH1 0x4 MSTORE PUSH1 0x24 PUSH0 REVERT JUMPDEST POP SWAP2 SWAP1 POP JUMP JUMPDEST PUSH1 0x1F DUP3 GT ISZERO PUSH2 0x519 JUMPI DUP1 PUSH0 MSTORE PUSH1 0x20 PUSH0 KECCAK256 PUSH1 0x1F DUP5 ADD PUSH1 0x5 SHR DUP2 ADD PUSH1 0x20 DUP6 LT ISZERO PUSH2 0x88E JUMPI POP DUP1 JUMPDEST PUSH1 0x1F DUP5 ADD PUSH1 0x5 SHR DUP3 ADD SWAP2 POP JUMPDEST DUP2 DUP2 LT ISZERO PUSH2 0x8AD JUMPI PUSH0 DUP2 SSTORE PUSH1 0x1 ADD PUSH2 0x89A JUMP JUMPDEST POP POP POP POP POP JUMP JUMPDEST DUP2 MLOAD PUSH1 0x1 PUSH1 0x1 PUSH1 0x40 SHL SUB DUP2 GT ISZERO PUSH2 0x8CD JUMPI PUSH2 0x8CD PUSH2 0x61F JUMP JUMPDEST PUSH2 0x8E1 DUP2 PUSH2 0x8DB DUP5 SLOAD PUSH2 0x831 JUMP JUMPDEST DUP5 PUSH2 0x869 JUMP JUMPDEST PUSH1 0x20 PUSH1 0x1F DUP3 GT PUSH1 0x1 DUP2 EQ PUSH2 0x913 JUMPI PUSH0 DUP4 ISZERO PUSH2 0x8FC JUMPI POP DUP5 DUP3 ADD MLOAD JUMPDEST PUSH0 NOT PUSH1 0x3 DUP6 SWAP1 SHL SHR NOT AND PUSH1 0x1 DUP5 SWAP1 SHL OR DUP5 SSTORE PUSH2 0x8AD JUMP JUMPDEST PUSH0 DUP5 DUP2 MSTORE PUSH1 0x20 DUP2 KECCAK256 PUSH1 0x1F NOT DUP6 AND SWAP2 JUMPDEST DUP3 DUP2 LT ISZERO PUSH2 0x942 JUMPI DUP8 DUP6 ADD MLOAD DUP3 SSTORE PUSH1 0x20 SWAP5 DUP6 ADD SWAP5 PUSH1 0x1 SWAP1 SWAP3 ADD SWAP2 ADD PUSH2 0x922 JUMP JUMPDEST POP DUP5 DUP3 LT ISZERO PUSH2 0x95F JUMPI DUP7 DUP5 ADD MLOAD PUSH0 NOT PUSH1 0x3 DUP8 SWAP1 SHL PUSH1 0xF8 AND SHR NOT AND DUP2 SSTORE JUMPDEST POP POP POP POP PUSH1 0x1 SWAP1 DUP2 SHL ADD SWAP1 SSTORE POP JUMP JUMPDEST PUSH1 0x20 DUP2 MSTORE PUSH0 DUP3 MLOAD DUP1 PUSH1 0x20 DUP5 ADD MSTORE DUP1 PUSH1 0x20 DUP6 ADD PUSH1 0x40 DUP6 ADD MCOPY PUSH0 PUSH1 0x40 DUP3 DUP6 ADD ADD MSTORE PUSH1 0x40 PUSH1 0x1F NOT PUSH1 0x1F DUP4 ADD AND DUP5 ADD ADD SWAP2 POP POP SWAP3 SWAP2 POP POP JUMP JUMPDEST PUSH4 0x4E487B71 PUSH1 0xE0 SHL PUSH0 MSTORE PUSH1 0x32 PUSH1 0x4 MSTORE PUSH1 0x24 PUSH0 REVERT JUMPDEST PUSH1 0x80 MLOAD PUSH1 0xA0 MLOAD PUSH1 0xC0 MLOAD PUSH1 0xE0 MLOAD PUSH2 0x100 MLOAD PUSH2 0x58C1 PUSH2 0xA4F PUSH0 CODECOPY PUSH0 DUP2 DUP2 PUSH2 0x1393 ADD MSTORE DUP2 DUP2 PUSH2 0x143A ADD MSTORE DUP2 DUP2 PUSH2 0x14E1 ADD MSTORE DUP2 DUP2 PUSH2 0x1588 ADD MSTORE DUP2 DUP2 PUSH2 0x162F ADD MSTORE DUP2 DUP2 PUSH2 0x16C9 ADD MSTORE DUP2 DUP2 PUSH2 0x1778 ADD MSTORE DUP2 DUP2 PUSH2 0x1827 ADD MSTORE PUSH2 0x18D6 ADD MSTORE PUSH0 PUSH2 0xF3A ADD MSTORE PUSH0 PUSH2 0xE8C ADD MSTORE PUSH0 DUP2 DUP2 PUSH2 0xDD6 ADD MSTORE PUSH2 0x210D ADD MSTORE PUSH0 DUP2 DUP2 PUSH2 0xFF2 ADD MSTORE DUP2 DUP2 PUSH2 0x10AB ADD MSTORE DUP2 DUP2 PUSH2 0x1164 ADD MSTORE DUP2 DUP2 PUSH2 0x121D ADD MSTORE PUSH2 0x12D6 ADD MSTORE PUSH2 0x58C1 PUSH0 RETURN INVALID PUSH1 0x80 PUSH1 0x40 MSTORE PUSH1 0x4 CALLDATASIZE LT PUSH2 0x3BB JUMPI PUSH0 CALLDATALOAD PUSH1 0xE0 SHR DUP1 PUSH4 0x802C90C8 GT PUSH2 0x1F1 JUMPI DUP1 PUSH4 0xBE9F0E6F GT PUSH2 0x10C JUMPI DUP1 PUSH4 0xDEDFF9C6 GT PUSH2 0x9F JUMPI DUP1 PUSH4 0xF2FDE38B GT PUSH2 0x6E JUMPI DUP1 PUSH4 0xF2FDE38B EQ PUSH2 0xBE6 JUMPI DUP1 PUSH4 0xFABF4B16 EQ PUSH2 0xC05 JUMPI DUP1 PUSH4 0xFFA1AD74 EQ PUSH2 0xC24 JUMPI DUP1 PUSH4 0xFFCFF32C EQ PUSH2 0xC54 JUMPI PUSH2 0x414 JUMP JUMPDEST DUP1 PUSH4 0xDEDFF9C6 EQ PUSH2 0xB54 JUMPI DUP1 PUSH4 0xE1660BC8 EQ PUSH2 0xB73 JUMPI DUP1 PUSH4 0xE3BC1CC3 EQ PUSH2 0xB92 JUMPI DUP1 PUSH4 0xECABDF79 EQ PUSH2 0xBBB JUMPI PUSH2 0x414 JUMP JUMPDEST DUP1 PUSH4 0xD764C173 GT PUSH2 0xDB JUMPI DUP1 PUSH4 0xD764C173 EQ PUSH2 0xAD3 JUMPI DUP1 PUSH4 0xDA8FBF2A EQ PUSH2 0xAF2 JUMPI DUP1 PUSH4 0xDAFE43F1 EQ PUSH2 0xB06 JUMPI DUP1 PUSH4 0xDB8C9663 EQ PUSH2 0xB35 JUMPI PUSH2 0x414 JUMP JUMPDEST DUP1 PUSH4 0xBE9F0E6F EQ PUSH2 0xA10 JUMPI DUP1 PUSH4 0xCB92337D EQ PUSH2 0xA2F JUMPI DUP1 PUSH4 0xD34FBC9B EQ PUSH2 0xA68 JUMPI DUP1 PUSH4 0xD6C1407C EQ PUSH2 0xAB4 JUMPI PUSH2 0x414 JUMP JUMPDEST DUP1 PUSH4 0x97902421 GT PUSH2 0x184 JUMPI DUP1 PUSH4 0xAC7E0321 GT PUSH2 0x153 JUMPI DUP1 PUSH4 0xAC7E0321 EQ PUSH2 0x99F JUMPI DUP1 PUSH4 0xAC91E5A5 EQ PUSH2 0x9BE JUMPI DUP1 PUSH4 0xAE200322 EQ PUSH2 0x9DD JUMPI DUP1 PUSH4 0xAF6BB1E4 EQ PUSH2 0x9F1 JUMPI PUSH2 0x414 JUMP JUMPDEST DUP1 PUSH4 0x97902421 EQ PUSH2 0x90A JUMPI DUP1 PUSH4 0x98BDF6F5 EQ PUSH2 0x91D JUMPI DUP1 PUSH4 0x9B19251A EQ PUSH2 0x933 JUMPI DUP1 PUSH4 0xA3B261F2 EQ PUSH2 0x973 JUMPI PUSH2 0x414 JUMP JUMPDEST DUP1 PUSH4 0x86A10DDD GT PUSH2 0x1C0 JUMPI DUP1 PUSH4 0x86A10DDD EQ PUSH2 0x891 JUMPI DUP1 PUSH4 0x8DA5CB5B EQ PUSH2 0x8B0 JUMPI DUP1 PUSH4 0x8E1F845C EQ PUSH2 0x8CC JUMPI DUP1 PUSH4 0x961183C4 EQ PUSH2 0x8EB JUMPI PUSH2 0x414 JUMP JUMPDEST DUP1 PUSH4 0x802C90C8 EQ PUSH2 0x82B JUMPI DUP1 PUSH4 0x8129FC1C EQ PUSH2 0x84A JUMPI DUP1 PUSH4 0x83F63C97 EQ PUSH2 0x85E JUMPI DUP1 PUSH4 0x853828B6 EQ PUSH2 0x87D JUMPI PUSH2 0x414 JUMP JUMPDEST DUP1 PUSH4 0x44AE035A GT PUSH2 0x2E1 JUMPI DUP1 PUSH4 0x605CB601 GT PUSH2 0x274 JUMPI DUP1 PUSH4 0x715018A6 GT PUSH2 0x243 JUMPI DUP1 PUSH4 0x715018A6 EQ PUSH2 0x7C6 JUMPI DUP1 PUSH4 0x72A591F0 EQ PUSH2 0x7DA JUMPI DUP1 PUSH4 0x7E87632C EQ PUSH2 0x7F9 JUMPI DUP1 PUSH4 0x7F23690C EQ PUSH2 0x818 JUMPI PUSH2 0x414 JUMP JUMPDEST DUP1 PUSH4 0x605CB601 EQ PUSH2 0x754 JUMPI DUP1 PUSH4 0x678B2012 EQ PUSH2 0x773 JUMPI DUP1 PUSH4 0x6963D438 EQ PUSH2 0x788 JUMPI DUP1 PUSH4 0x70A08231 EQ PUSH2 0x7A7 JUMPI PUSH2 0x414 JUMP JUMPDEST DUP1 PUSH4 0x5A1DA9A4 GT PUSH2 0x2B0 JUMPI DUP1 PUSH4 0x5A1DA9A4 EQ PUSH2 0x6E0 JUMPI DUP1 PUSH4 0x5C975ABB EQ PUSH2 0x6FF JUMPI DUP1 PUSH4 0x5CB42DE1 EQ PUSH2 0x716 JUMPI DUP1 PUSH4 0x5FA3C36D EQ PUSH2 0x735 JUMPI PUSH2 0x414 JUMP JUMPDEST DUP1 PUSH4 0x44AE035A EQ PUSH2 0x657 JUMPI DUP1 PUSH4 0x49A6078D EQ PUSH2 0x676 JUMPI DUP1 PUSH4 0x511B6952 EQ PUSH2 0x6A2 JUMPI DUP1 PUSH4 0x54F6127F EQ PUSH2 0x6C1 JUMPI PUSH2 0x414 JUMP JUMPDEST DUP1 PUSH4 0x217B2270 GT PUSH2 0x359 JUMPI DUP1 PUSH4 0x343C71FB GT PUSH2 0x328 JUMPI DUP1 PUSH4 0x343C71FB EQ PUSH2 0x5DB JUMPI DUP1 PUSH4 0x369596D2 EQ PUSH2 0x5FA JUMPI DUP1 PUSH4 0x3C20F76D EQ PUSH2 0x625 JUMPI DUP1 PUSH4 0x403E6FA6 EQ PUSH2 0x638 JUMPI PUSH2 0x414 JUMP JUMPDEST DUP1 PUSH4 0x217B2270 EQ PUSH2 0x551 JUMPI DUP1 PUSH4 0x2A3654A4 EQ PUSH2 0x588 JUMPI DUP1 PUSH4 0x3087C08F EQ PUSH2 0x5A7 JUMPI DUP1 PUSH4 0x32CB6B0C EQ PUSH2 0x5C6 JUMPI PUSH2 0x414 JUMP JUMPDEST DUP1 PUSH4 0x158EF93E GT PUSH2 0x395 JUMPI DUP1 PUSH4 0x158EF93E EQ PUSH2 0x4CC JUMPI DUP1 PUSH4 0x16E023B3 EQ PUSH2 0x4E5 JUMPI DUP1 PUSH4 0x18160DDD EQ PUSH2 0x511 JUMPI DUP1 PUSH4 0x1D26FCE6 EQ PUSH2 0x525 JUMPI PUSH2 0x414 JUMP JUMPDEST DUP1 PUSH4 0x1FFC9A7 EQ PUSH2 0x454 JUMPI DUP1 PUSH4 0x9EDF481 EQ PUSH2 0x488 JUMPI DUP1 PUSH4 0xE1B26C6 EQ PUSH2 0x4A9 JUMPI PUSH2 0x414 JUMP JUMPDEST CALLDATASIZE PUSH2 0x414 JUMPI CALLVALUE PUSH0 SUB PUSH2 0x3FB JUMPI PUSH1 0x40 MLOAD PUSH4 0xE5099EE3 PUSH1 0xE0 SHL DUP2 MSTORE PUSH1 0x4 ADD PUSH2 0x3F2 SWAP1 PUSH1 0x20 DUP1 DUP3 MSTORE PUSH1 0x4 SWAP1 DUP3 ADD MSTORE PUSH0 PUSH1 0x40 DUP3 ADD MSTORE PUSH1 0x60 ADD SWAP1 JUMP JUMPDEST PUSH1 0x40 MLOAD DUP1 SWAP2 SUB SWAP1 REVERT JUMPDEST PUSH1 0x40 MLOAD PUSH4 0x30FA4A21 PUSH1 0xE1 SHL DUP2 MSTORE PUSH1 0x4 ADD PUSH1 0x40 MLOAD DUP1 SWAP2 SUB SWAP1 REVERT JUMPDEST PUSH0 CALLDATASIZE PUSH1 0x60 PUSH1 0x4 DUP3 LT ISZERO PUSH2 0x43E JUMPI DUP3 DUP3 PUSH1 0x40 MLOAD PUSH4 0xE5099EE3 PUSH1 0xE0 SHL DUP2 MSTORE PUSH1 0x4 ADD PUSH2 0x3F2 SWAP3 SWAP2 SWAP1 PUSH2 0x4828 JUMP JUMPDEST PUSH2 0x448 DUP4 DUP4 PUSH2 0xC73 JUMP JUMPDEST DUP1 MLOAD SWAP4 POP PUSH1 0x20 ADD SWAP2 POP POP RETURN JUMPDEST CALLVALUE DUP1 ISZERO PUSH2 0x45F JUMPI PUSH0 PUSH0 REVERT JUMPDEST POP PUSH2 0x473 PUSH2 0x46E CALLDATASIZE PUSH1 0x4 PUSH2 0x4856 JUMP JUMPDEST PUSH2 0xD62 JUMP JUMPDEST PUSH1 0x40 MLOAD SWAP1 ISZERO ISZERO DUP2 MSTORE PUSH1 0x20 ADD JUMPDEST PUSH1 0x40 MLOAD DUP1 SWAP2 SUB SWAP1 RETURN JUMPDEST CALLVALUE DUP1 ISZERO PUSH2 0x493 JUMPI PUSH0 PUSH0 REVERT JUMPDEST POP PUSH2 0x4A7 PUSH2 0x4A2 CALLDATASIZE PUSH1 0x4 PUSH2 0x487D JUMP JUMPDEST PUSH2 0xD95 JUMP JUMPDEST STOP JUMPDEST CALLVALUE DUP1 ISZERO PUSH2 0x4B4 JUMPI PUSH0 PUSH0 REVERT JUMPDEST POP PUSH2 0x4BE PUSH1 0x14 SLOAD DUP2 JUMP JUMPDEST PUSH1 0x40 MLOAD SWAP1 DUP2 MSTORE PUSH1 0x20 ADD PUSH2 0x47F JUMP JUMPDEST CALLVALUE DUP1 ISZERO PUSH2 0x4D7 JUMPI PUSH0 PUSH0 REVERT JUMPDEST POP PUSH1 0x15 SLOAD PUSH2 0x473 SWAP1 PUSH1 0xFF AND DUP2 JUMP JUMPDEST CALLVALUE DUP1 ISZERO PUSH2 0x4F0 JUMPI PUSH0 PUSH0 REVERT JUMPDEST POP PUSH2 0x504 PUSH2 0x4FF CALLDATASIZE PUSH1 0x4 PUSH2 0x4894 JUMP JUMPDEST PUSH2 0x1ABD JUMP JUMPDEST PUSH1 0x40 MLOAD PUSH2 0x47F SWAP2 SWAP1 PUSH2 0x48E2 JUMP JUMPDEST CALLVALUE DUP1 ISZERO PUSH2 0x51C JUMPI PUSH0 PUSH0 REVERT JUMPDEST POP PUSH1 0x2 SLOAD PUSH2 0x4BE JUMP JUMPDEST CALLVALUE DUP1 ISZERO PUSH2 0x530 JUMPI PUSH0 PUSH0 REVERT JUMPDEST POP PUSH2 0x544 PUSH2 0x53F CALLDATASIZE PUSH1 0x4 PUSH2 0x49ED JUMP JUMPDEST PUSH2 0x1AD0 JUMP JUMPDEST PUSH1 0x40 MLOAD PUSH2 0x47F SWAP2 SWAP1 PUSH2 0x4A50 JUMP JUMPDEST CALLVALUE DUP1 ISZERO PUSH2 0x55C JUMPI PUSH0 PUSH0 REVERT JUMPDEST POP PUSH2 0x570 PUSH2 0x56B CALLDATASIZE PUSH1 0x4 PUSH2 0x487D JUMP JUMPDEST PUSH2 0x1BB6 JUMP JUMPDEST PUSH1 0x40 MLOAD PUSH1 0x1 PUSH1 0x1 PUSH1 0xA0 SHL SUB SWAP1 SWAP2 AND DUP2 MSTORE PUSH1 0x20 ADD PUSH2 0x47F JUMP JUMPDEST CALLVALUE DUP1 ISZERO PUSH2 0x593 JUMPI PUSH0 PUSH0 REVERT JUMPDEST POP PUSH2 0x473 PUSH2 0x5A2 CALLDATASIZE PUSH1 0x4 PUSH2 0x4ACE JUMP JUMPDEST PUSH2 0x1BEE JUMP JUMPDEST CALLVALUE DUP1 ISZERO PUSH2 0x5B2 JUMPI PUSH0 PUSH0 REVERT JUMPDEST POP PUSH2 0x4A7 PUSH2 0x5C1 CALLDATASIZE PUSH1 0x4 PUSH2 0x4AF6 JUMP JUMPDEST PUSH2 0x1BF9 JUMP JUMPDEST CALLVALUE DUP1 ISZERO PUSH2 0x5D1 JUMPI PUSH0 PUSH0 REVERT JUMPDEST POP PUSH2 0x4BE PUSH2 0x8AE DUP2 JUMP JUMPDEST CALLVALUE DUP1 ISZERO PUSH2 0x5E6 JUMPI PUSH0 PUSH0 REVERT JUMPDEST POP PUSH2 0x4A7 PUSH2 0x5F5 CALLDATASIZE PUSH1 0x4 PUSH2 0x4C3A JUMP JUMPDEST PUSH2 0x1D51 JUMP JUMPDEST CALLVALUE DUP1 ISZERO PUSH2 0x605 JUMPI PUSH0 PUSH0 REVERT JUMPDEST POP PUSH2 0x4BE PUSH2 0x614 CALLDATASIZE PUSH1 0x4 PUSH2 0x4C73 JUMP JUMPDEST PUSH1 0x18 PUSH1 0x20 MSTORE PUSH0 SWAP1 DUP2 MSTORE PUSH1 0x40 SWAP1 KECCAK256 SLOAD DUP2 JUMP JUMPDEST PUSH2 0x4BE PUSH2 0x633 CALLDATASIZE PUSH1 0x4 PUSH2 0x4C3A JUMP JUMPDEST PUSH2 0x1DE6 JUMP JUMPDEST CALLVALUE DUP1 ISZERO PUSH2 0x643 JUMPI PUSH0 PUSH0 REVERT JUMPDEST POP PUSH1 0xA SLOAD PUSH2 0x570 SWAP1 PUSH1 0x1 PUSH1 0x1 PUSH1 0xA0 SHL SUB AND DUP2 JUMP JUMPDEST CALLVALUE DUP1 ISZERO PUSH2 0x662 JUMPI PUSH0 PUSH0 REVERT JUMPDEST POP PUSH2 0x4A7 PUSH2 0x671 CALLDATASIZE PUSH1 0x4 PUSH2 0x487D JUMP JUMPDEST PUSH2 0x2369 JUMP JUMPDEST CALLVALUE DUP1 ISZERO PUSH2 0x681 JUMPI PUSH0 PUSH0 REVERT JUMPDEST POP PUSH2 0x695 PUSH2 0x690 CALLDATASIZE PUSH1 0x4 PUSH2 0x487D JUMP JUMPDEST PUSH2 0x2376 JUMP JUMPDEST PUSH1 0x40 MLOAD PUSH2 0x47F SWAP2 SWAP1 PUSH2 0x4C8C JUMP JUMPDEST CALLVALUE DUP1 ISZERO PUSH2 0x6AD JUMPI PUSH0 PUSH0 REVERT JUMPDEST POP PUSH2 0x4A7 PUSH2 0x6BC CALLDATASIZE PUSH1 0x4 PUSH2 0x4CE4 JUMP JUMPDEST PUSH2 0x2397 JUMP JUMPDEST CALLVALUE DUP1 ISZERO PUSH2 0x6CC JUMPI PUSH0 PUSH0 REVERT JUMPDEST POP PUSH2 0x504 PUSH2 0x6DB CALLDATASIZE PUSH1 0x4 PUSH2 0x487D JUMP JUMPDEST PUSH2 0x23DB JUMP JUMPDEST CALLVALUE DUP1 ISZERO PUSH2 0x6EB JUMPI PUSH0 PUSH0 REVERT JUMPDEST POP PUSH1 0xB SLOAD PUSH2 0x570 SWAP1 PUSH1 0x1 PUSH1 0x1 PUSH1 0xA0 SHL SUB AND DUP2 JUMP JUMPDEST CALLVALUE DUP1 ISZERO PUSH2 0x70A JUMPI PUSH0 PUSH0 REVERT JUMPDEST POP PUSH1 0x7 SLOAD PUSH1 0xFF AND PUSH2 0x473 JUMP JUMPDEST CALLVALUE DUP1 ISZERO PUSH2 0x721 JUMPI PUSH0 PUSH0 REVERT JUMPDEST POP PUSH1 0xD SLOAD PUSH2 0x570 SWAP1 PUSH1 0x1 PUSH1 0x1 PUSH1 0xA0 SHL SUB AND DUP2 JUMP JUMPDEST CALLVALUE DUP1 ISZERO PUSH2 0x740 JUMPI PUSH0 PUSH0 REVERT JUMPDEST POP PUSH2 0x4A7 PUSH2 0x74F CALLDATASIZE PUSH1 0x4 PUSH2 0x4D59 JUMP JUMPDEST PUSH2 0x23E6 JUMP JUMPDEST CALLVALUE DUP1 ISZERO PUSH2 0x75F JUMPI PUSH0 PUSH0 REVERT JUMPDEST POP PUSH1 0xE SLOAD PUSH2 0x570 SWAP1 PUSH1 0x1 PUSH1 0x1 PUSH1 0xA0 SHL SUB AND DUP2 JUMP JUMPDEST CALLVALUE DUP1 ISZERO PUSH2 0x77E JUMPI PUSH0 PUSH0 REVERT JUMPDEST POP PUSH2 0x4BE PUSH1 0x16 SLOAD DUP2 JUMP JUMPDEST CALLVALUE DUP1 ISZERO PUSH2 0x793 JUMPI PUSH0 PUSH0 REVERT JUMPDEST POP PUSH2 0x544 PUSH2 0x7A2 CALLDATASIZE PUSH1 0x4 PUSH2 0x4DA4 JUMP JUMPDEST PUSH2 0x252E JUMP JUMPDEST CALLVALUE DUP1 ISZERO PUSH2 0x7B2 JUMPI PUSH0 PUSH0 REVERT JUMPDEST POP PUSH2 0x4BE PUSH2 0x7C1 CALLDATASIZE PUSH1 0x4 PUSH2 0x4C73 JUMP JUMPDEST PUSH2 0x2658 JUMP JUMPDEST CALLVALUE DUP1 ISZERO PUSH2 0x7D1 JUMPI PUSH0 PUSH0 REVERT JUMPDEST POP PUSH2 0x4A7 PUSH2 0x2678 JUMP JUMPDEST CALLVALUE DUP1 ISZERO PUSH2 0x7E5 JUMPI PUSH0 PUSH0 REVERT JUMPDEST POP PUSH2 0x4A7 PUSH2 0x7F4 CALLDATASIZE PUSH1 0x4 PUSH2 0x4E23 JUMP JUMPDEST PUSH2 0x268B JUMP JUMPDEST CALLVALUE DUP1 ISZERO PUSH2 0x804 JUMPI PUSH0 PUSH0 REVERT JUMPDEST POP PUSH2 0x4A7 PUSH2 0x813 CALLDATASIZE PUSH1 0x4 PUSH2 0x4F99 JUMP JUMPDEST PUSH2 0x274C JUMP JUMPDEST PUSH2 0x4A7 PUSH2 0x826 CALLDATASIZE PUSH1 0x4 PUSH2 0x4C3A JUMP JUMPDEST PUSH2 0x283A JUMP JUMPDEST CALLVALUE DUP1 ISZERO PUSH2 0x836 JUMPI PUSH0 PUSH0 REVERT JUMPDEST POP PUSH2 0x4A7 PUSH2 0x845 CALLDATASIZE PUSH1 0x4 PUSH2 0x4CE4 JUMP JUMPDEST PUSH2 0x286F JUMP JUMPDEST CALLVALUE DUP1 ISZERO PUSH2 0x855 JUMPI PUSH0 PUSH0 REVERT JUMPDEST POP PUSH2 0x4A7 PUSH2 0x28DF JUMP JUMPDEST CALLVALUE DUP1 ISZERO PUSH2 0x869 JUMPI PUSH0 PUSH0 REVERT JUMPDEST POP PUSH1 0xF SLOAD PUSH2 0x570 SWAP1 PUSH1 0x1 PUSH1 0x1 PUSH1 0xA0 SHL SUB AND DUP2 JUMP JUMPDEST CALLVALUE DUP1 ISZERO PUSH2 0x888 JUMPI PUSH0 PUSH0 REVERT JUMPDEST POP PUSH2 0x4A7 PUSH2 0x2F14 JUMP JUMPDEST CALLVALUE DUP1 ISZERO PUSH2 0x89C JUMPI PUSH0 PUSH0 REVERT JUMPDEST POP PUSH2 0x4A7 PUSH2 0x8AB CALLDATASIZE PUSH1 0x4 PUSH2 0x506A JUMP JUMPDEST PUSH2 0x302B JUMP JUMPDEST CALLVALUE DUP1 ISZERO PUSH2 0x8BB JUMPI PUSH0 PUSH0 REVERT JUMPDEST POP PUSH0 SLOAD PUSH1 0x1 PUSH1 0x1 PUSH1 0xA0 SHL SUB AND PUSH2 0x570 JUMP JUMPDEST CALLVALUE DUP1 ISZERO PUSH2 0x8D7 JUMPI PUSH0 PUSH0 REVERT JUMPDEST POP PUSH2 0x4A7 PUSH2 0x8E6 CALLDATASIZE PUSH1 0x4 PUSH2 0x487D JUMP JUMPDEST PUSH2 0x31A2 JUMP JUMPDEST CALLVALUE DUP1 ISZERO PUSH2 0x8F6 JUMPI PUSH0 PUSH0 REVERT JUMPDEST POP PUSH1 0x10 SLOAD PUSH2 0x570 SWAP1 PUSH1 0x1 PUSH1 0x1 PUSH1 0xA0 SHL SUB AND DUP2 JUMP JUMPDEST PUSH2 0x4A7 PUSH2 0x918 CALLDATASIZE PUSH1 0x4 PUSH2 0x50A6 JUMP JUMPDEST PUSH2 0x31E5 JUMP JUMPDEST CALLVALUE DUP1 ISZERO PUSH2 0x928 JUMPI PUSH0 PUSH0 REVERT JUMPDEST POP PUSH1 0x13 SLOAD PUSH2 0x4BE SWAP1 DUP2 JUMP JUMPDEST CALLVALUE DUP1 ISZERO PUSH2 0x93E JUMPI PUSH0 PUSH0 REVERT JUMPDEST POP PUSH2 0x961 PUSH2 0x94D CALLDATASIZE PUSH1 0x4 PUSH2 0x4C73 JUMP JUMPDEST PUSH1 0x1C PUSH1 0x20 MSTORE PUSH0 SWAP1 DUP2 MSTORE PUSH1 0x40 SWAP1 KECCAK256 SLOAD PUSH1 0xFF AND DUP2 JUMP JUMPDEST PUSH1 0x40 MLOAD PUSH1 0xFF SWAP1 SWAP2 AND DUP2 MSTORE PUSH1 0x20 ADD PUSH2 0x47F JUMP JUMPDEST CALLVALUE DUP1 ISZERO PUSH2 0x97E JUMPI PUSH0 PUSH0 REVERT JUMPDEST POP PUSH2 0x992 PUSH2 0x98D CALLDATASIZE PUSH1 0x4 PUSH2 0x4C73 JUMP JUMPDEST PUSH2 0x32A3 JUMP JUMPDEST PUSH1 0x40 MLOAD PUSH2 0x47F SWAP2 SWAP1 PUSH2 0x50FF JUMP JUMPDEST CALLVALUE DUP1 ISZERO PUSH2 0x9AA JUMPI PUSH0 PUSH0 REVERT JUMPDEST POP PUSH1 0x12 SLOAD PUSH2 0x570 SWAP1 PUSH1 0x1 PUSH1 0x1 PUSH1 0xA0 SHL SUB AND DUP2 JUMP JUMPDEST CALLVALUE DUP1 ISZERO PUSH2 0x9C9 JUMPI PUSH0 PUSH0 REVERT JUMPDEST POP PUSH1 0x11 SLOAD PUSH2 0x570 SWAP1 PUSH1 0x1 PUSH1 0x1 PUSH1 0xA0 SHL SUB AND DUP2 JUMP JUMPDEST CALLVALUE DUP1 ISZERO PUSH2 0x9E8 JUMPI PUSH0 PUSH0 REVERT JUMPDEST POP PUSH2 0x4A7 PUSH2 0x32C6 JUMP JUMPDEST CALLVALUE DUP1 ISZERO PUSH2 0x9FC JUMPI PUSH0 PUSH0 REVERT JUMPDEST POP PUSH1 0xC SLOAD PUSH2 0x570 SWAP1 PUSH1 0x1 PUSH1 0x1 PUSH1 0xA0 SHL SUB AND DUP2 JUMP JUMPDEST CALLVALUE DUP1 ISZERO PUSH2 0xA1B JUMPI PUSH0 PUSH0 REVERT JUMPDEST POP PUSH2 0x4A7 PUSH2 0xA2A CALLDATASIZE PUSH1 0x4 PUSH2 0x5136 JUMP JUMPDEST PUSH2 0x32D6 JUMP JUMPDEST CALLVALUE DUP1 ISZERO PUSH2 0xA3A JUMPI PUSH0 PUSH0 REVERT JUMPDEST POP PUSH2 0x961 PUSH2 0xA49 CALLDATASIZE PUSH1 0x4 PUSH2 0x4ACE JUMP JUMPDEST PUSH1 0x1B PUSH1 0x20 SWAP1 DUP2 MSTORE PUSH0 SWAP3 DUP4 MSTORE PUSH1 0x40 DUP1 DUP5 KECCAK256 SWAP1 SWAP2 MSTORE SWAP1 DUP3 MSTORE SWAP1 KECCAK256 SLOAD PUSH1 0xFF AND DUP2 JUMP JUMPDEST CALLVALUE DUP1 ISZERO PUSH2 0xA73 JUMPI PUSH0 PUSH0 REVERT JUMPDEST POP PUSH2 0xA9D PUSH2 0xA82 CALLDATASIZE PUSH1 0x4 PUSH2 0x487D JUMP JUMPDEST PUSH1 0x19 PUSH1 0x20 MSTORE PUSH0 SWAP1 DUP2 MSTORE PUSH1 0x40 SWAP1 KECCAK256 DUP1 SLOAD PUSH1 0x1 SWAP1 SWAP2 ADD SLOAD PUSH1 0xFF AND DUP3 JUMP JUMPDEST PUSH1 0x40 DUP1 MLOAD SWAP3 DUP4 MSTORE PUSH1 0xFF SWAP1 SWAP2 AND PUSH1 0x20 DUP4 ADD MSTORE ADD PUSH2 0x47F JUMP JUMPDEST CALLVALUE DUP1 ISZERO PUSH2 0xABF JUMPI PUSH0 PUSH0 REVERT JUMPDEST POP PUSH2 0x4A7 PUSH2 0xACE CALLDATASIZE PUSH1 0x4 PUSH2 0x4D59 JUMP JUMPDEST PUSH2 0x339F JUMP JUMPDEST CALLVALUE DUP1 ISZERO PUSH2 0xADE JUMPI PUSH0 PUSH0 REVERT JUMPDEST POP PUSH2 0x4A7 PUSH2 0xAED CALLDATASIZE PUSH1 0x4 PUSH2 0x51B7 JUMP JUMPDEST PUSH2 0x33B2 JUMP JUMPDEST CALLVALUE DUP1 ISZERO PUSH2 0xAFD JUMPI PUSH0 PUSH0 REVERT JUMPDEST POP PUSH2 0x4A7 PUSH2 0x3482 JUMP JUMPDEST CALLVALUE DUP1 ISZERO PUSH2 0xB11 JUMPI PUSH0 PUSH0 REVERT JUMPDEST POP PUSH2 0xB25 PUSH2 0xB20 CALLDATASIZE PUSH1 0x4 PUSH2 0x487D JUMP JUMPDEST PUSH2 0x3492 JUMP JUMPDEST PUSH1 0x40 MLOAD PUSH2 0x47F SWAP5 SWAP4 SWAP3 SWAP2 SWAP1 PUSH2 0x522F JUMP JUMPDEST CALLVALUE DUP1 ISZERO PUSH2 0xB40 JUMPI PUSH0 PUSH0 REVERT JUMPDEST POP PUSH2 0x4A7 PUSH2 0xB4F CALLDATASIZE PUSH1 0x4 PUSH2 0x5266 JUMP JUMPDEST PUSH2 0x354A JUMP JUMPDEST CALLVALUE DUP1 ISZERO PUSH2 0xB5F JUMPI PUSH0 PUSH0 REVERT JUMPDEST POP PUSH2 0x544 PUSH2 0xB6E CALLDATASIZE PUSH1 0x4 PUSH2 0x52CB JUMP JUMPDEST PUSH2 0x362B JUMP JUMPDEST CALLVALUE DUP1 ISZERO PUSH2 0xB7E JUMPI PUSH0 PUSH0 REVERT JUMPDEST POP PUSH2 0x4A7 PUSH2 0xB8D CALLDATASIZE PUSH1 0x4 PUSH2 0x52FC JUMP JUMPDEST PUSH2 0x36D4 JUMP JUMPDEST CALLVALUE DUP1 ISZERO PUSH2 0xB9D JUMPI PUSH0 PUSH0 REVERT JUMPDEST POP PUSH2 0xBA6 PUSH1 0xDE DUP2 JUMP JUMPDEST PUSH1 0x40 MLOAD PUSH4 0xFFFFFFFF SWAP1 SWAP2 AND DUP2 MSTORE PUSH1 0x20 ADD PUSH2 0x47F JUMP JUMPDEST CALLVALUE DUP1 ISZERO PUSH2 0xBC6 JUMPI PUSH0 PUSH0 REVERT JUMPDEST POP PUSH2 0x4BE PUSH2 0xBD5 CALLDATASIZE PUSH1 0x4 PUSH2 0x5346 JUMP JUMPDEST PUSH1 0x1A PUSH1 0x20 MSTORE PUSH0 SWAP1 DUP2 MSTORE PUSH1 0x40 SWAP1 KECCAK256 SLOAD DUP2 JUMP JUMPDEST CALLVALUE DUP1 ISZERO PUSH2 0xBF1 JUMPI PUSH0 PUSH0 REVERT JUMPDEST POP PUSH2 0x4A7 PUSH2 0xC00 CALLDATASIZE PUSH1 0x4 PUSH2 0x4C73 JUMP JUMPDEST PUSH2 0x3794 JUMP JUMPDEST CALLVALUE DUP1 ISZERO PUSH2 0xC10 JUMPI PUSH0 PUSH0 REVERT JUMPDEST POP PUSH2 0x4A7 PUSH2 0xC1F CALLDATASIZE PUSH1 0x4 PUSH2 0x4C3A JUMP JUMPDEST PUSH2 0x37CF JUMP JUMPDEST CALLVALUE DUP1 ISZERO PUSH2 0xC2F JUMPI PUSH0 PUSH0 REVERT JUMPDEST POP PUSH2 0x504 PUSH1 0x40 MLOAD DUP1 PUSH1 0x40 ADD PUSH1 0x40 MSTORE DUP1 PUSH1 0x5 DUP2 MSTORE PUSH1 0x20 ADD PUSH5 0x312E302E3 PUSH1 0xDC SHL DUP2 MSTORE POP DUP2 JUMP JUMPDEST CALLVALUE DUP1 ISZERO PUSH2 0xC5F JUMPI PUSH0 PUSH0 REVERT JUMPDEST POP PUSH1 0x9 SLOAD PUSH2 0x570 SWAP1 PUSH1 0x1 PUSH1 0x1 PUSH1 0xA0 SHL SUB AND DUP2 JUMP JUMPDEST PUSH1 0x60 PUSH0 PUSH2 0xC8A PUSH0 CALLDATALOAD PUSH1 0x1 PUSH1 0x1 PUSH1 0xE0 SHL SUB NOT AND PUSH2 0x391E JUMP JUMPDEST POP SWAP1 POP PUSH1 0x1 PUSH1 0x1 PUSH1 0xA0 SHL SUB DUP2 AND PUSH2 0xCC1 JUMPI PUSH1 0x40 MLOAD PUSH4 0xBB370B2B PUSH1 0xE0 SHL DUP2 MSTORE PUSH1 0x1 PUSH1 0x1 PUSH1 0xE0 SHL SUB NOT PUSH0 CALLDATALOAD AND PUSH1 0x4 DUP3 ADD MSTORE PUSH1 0x24 ADD PUSH2 0x3F2 JUMP JUMPDEST PUSH0 PUSH0 DUP3 PUSH1 0x1 PUSH1 0x1 PUSH1 0xA0 SHL SUB AND CALLVALUE DUP8 DUP8 CALLER CALLVALUE PUSH1 0x40 MLOAD PUSH1 0x20 ADD PUSH2 0xCE5 SWAP5 SWAP4 SWAP3 SWAP2 SWAP1 PUSH2 0x535F JUMP JUMPDEST PUSH1 0x40 DUP1 MLOAD PUSH1 0x1F NOT DUP2 DUP5 SUB ADD DUP2 MSTORE SWAP1 DUP3 SWAP1 MSTORE PUSH2 0xCFF SWAP2 PUSH2 0x538A JUMP JUMPDEST PUSH0 PUSH1 0x40 MLOAD DUP1 DUP4 SUB DUP2 DUP6 DUP8 GAS CALL SWAP3 POP POP POP RETURNDATASIZE DUP1 PUSH0 DUP2 EQ PUSH2 0xD39 JUMPI PUSH1 0x40 MLOAD SWAP2 POP PUSH1 0x1F NOT PUSH1 0x3F RETURNDATASIZE ADD AND DUP3 ADD PUSH1 0x40 MSTORE RETURNDATASIZE DUP3 MSTORE RETURNDATASIZE PUSH0 PUSH1 0x20 DUP5 ADD RETURNDATACOPY PUSH2 0xD3E JUMP JUMPDEST PUSH1 0x60 SWAP2 POP JUMPDEST POP SWAP2 POP SWAP2 POP DUP2 ISZERO PUSH2 0xD53 JUMPI SWAP3 POP PUSH2 0xD5C SWAP2 POP POP JUMP JUMPDEST DUP1 MLOAD DUP1 PUSH1 0x20 DUP4 ADD REVERT JUMPDEST SWAP3 SWAP2 POP POP JUMP JUMPDEST PUSH0 PUSH1 0x1 PUSH1 0x1 PUSH1 0xE0 SHL SUB NOT DUP3 AND PUSH4 0x1D138B83 PUSH1 0xE1 SHL EQ DUP1 PUSH2 0xD86 JUMPI POP PUSH2 0xD86 DUP3 PUSH2 0x399A JUMP JUMPDEST DUP1 PUSH2 0xD5C JUMPI POP PUSH2 0xD5C DUP3 PUSH2 0x39BE JUMP JUMPDEST CALLER PUSH0 SWAP1 DUP2 MSTORE PUSH1 0x18 PUSH1 0x20 MSTORE PUSH1 0x40 SWAP1 KECCAK256 SLOAD TIMESTAMP SWAP1 PUSH2 0xDB3 SWAP1 PUSH3 0x15180 PUSH2 0x53B4 JUMP JUMPDEST LT ISZERO PUSH2 0xDD2 JUMPI PUSH1 0x40 MLOAD PUSH4 0x1A64B87B PUSH1 0xE3 SHL DUP2 MSTORE PUSH1 0x4 ADD PUSH1 0x40 MLOAD DUP1 SWAP2 SUB SWAP1 REVERT JUMPDEST PUSH0 DUP1 PUSH32 0x0 PUSH1 0x1 PUSH1 0x1 PUSH1 0xA0 SHL SUB AND PUSH4 0x70A08231 CALLER PUSH1 0x40 MLOAD PUSH1 0x1 PUSH1 0x1 PUSH1 0xE0 SHL SUB NOT PUSH1 0xE0 DUP5 SWAP1 SHL AND DUP2 MSTORE PUSH1 0x1 PUSH1 0x1 PUSH1 0xA0 SHL SUB SWAP1 SWAP2 AND PUSH1 0x4 DUP3 ADD MSTORE PUSH1 0x24 ADD PUSH1 0x20 PUSH1 0x40 MLOAD DUP1 DUP4 SUB DUP2 DUP7 GAS STATICCALL ISZERO DUP1 ISZERO PUSH2 0xE46 JUMPI RETURNDATASIZE PUSH0 PUSH0 RETURNDATACOPY RETURNDATASIZE PUSH0 REVERT JUMPDEST POP POP POP POP PUSH1 0x40 MLOAD RETURNDATASIZE PUSH1 0x1F NOT PUSH1 0x1F DUP3 ADD AND DUP3 ADD DUP1 PUSH1 0x40 MSTORE POP DUP2 ADD SWAP1 PUSH2 0xE6A SWAP2 SWAP1 PUSH2 0x53C7 JUMP JUMPDEST GT ISZERO PUSH2 0xE81 JUMPI PUSH1 0x16 SLOAD PUSH2 0xE7E SWAP1 PUSH1 0x8 PUSH2 0x53DE JUMP JUMPDEST SWAP1 POP JUMPDEST PUSH0 PUSH1 0x1 PUSH1 0x1 PUSH1 0xA0 SHL SUB PUSH32 0x0 AND PUSH4 0x70A08231 CALLER PUSH1 0x40 MLOAD PUSH1 0x1 PUSH1 0x1 PUSH1 0xE0 SHL SUB NOT PUSH1 0xE0 DUP5 SWAP1 SHL AND DUP2 MSTORE PUSH1 0x1 PUSH1 0x1 PUSH1 0xA0 SHL SUB SWAP1 SWAP2 AND PUSH1 0x4 DUP3 ADD MSTORE PUSH1 0x24 ADD PUSH1 0x20 PUSH1 0x40 MLOAD DUP1 DUP4 SUB DUP2 DUP7 GAS STATICCALL ISZERO DUP1 ISZERO PUSH2 0xEF4 JUMPI RETURNDATASIZE PUSH0 PUSH0 RETURNDATACOPY RETURNDATASIZE PUSH0 REVERT JUMPDEST POP POP POP POP PUSH1 0x40 MLOAD RETURNDATASIZE PUSH1 0x1F NOT PUSH1 0x1F DUP3 ADD AND DUP3 ADD DUP1 PUSH1 0x40 MSTORE POP DUP2 ADD SWAP1 PUSH2 0xF18 SWAP2 SWAP1 PUSH2 0x53C7 JUMP JUMPDEST GT ISZERO PUSH2 0xF2F JUMPI PUSH1 0x16 SLOAD PUSH2 0xF2C SWAP1 PUSH1 0x3 PUSH2 0x53DE JUMP JUMPDEST SWAP1 POP JUMPDEST PUSH0 PUSH1 0x1 PUSH1 0x1 PUSH1 0xA0 SHL SUB PUSH32 0x0 AND PUSH4 0x70A08231 CALLER PUSH1 0x40 MLOAD PUSH1 0x1 PUSH1 0x1 PUSH1 0xE0 SHL SUB NOT PUSH1 0xE0 DUP5 SWAP1 SHL AND DUP2 MSTORE PUSH1 0x1 PUSH1 0x1 PUSH1 0xA0 SHL SUB SWAP1 SWAP2 AND PUSH1 0x4 DUP3 ADD MSTORE PUSH1 0x24 ADD PUSH1 0x20 PUSH1 0x40 MLOAD DUP1 DUP4 SUB DUP2 DUP7 GAS STATICCALL ISZERO DUP1 ISZERO PUSH2 0xFA2 JUMPI RETURNDATASIZE PUSH0 PUSH0 RETURNDATACOPY RETURNDATASIZE PUSH0 REVERT JUMPDEST POP POP POP POP PUSH1 0x40 MLOAD RETURNDATASIZE PUSH1 0x1F NOT PUSH1 0x1F DUP3 ADD AND DUP3 ADD DUP1 PUSH1 0x40 MSTORE POP DUP2 ADD SWAP1 PUSH2 0xFC6 SWAP2 SWAP1 PUSH2 0x53C7 JUMP JUMPDEST GT ISZERO PUSH2 0xFDD JUMPI PUSH1 0x16 SLOAD PUSH2 0xFDA SWAP1 PUSH1 0x3 PUSH2 0x53DE JUMP JUMPDEST SWAP1 POP JUMPDEST PUSH10 0xD3C21BCECCEDA1000000 PUSH1 0x1 PUSH1 0x1 PUSH1 0xA0 SHL SUB PUSH32 0x0 AND PUSH4 0x70A08231 CALLER PUSH1 0x40 MLOAD PUSH1 0x1 PUSH1 0x1 PUSH1 0xE0 SHL SUB NOT PUSH1 0xE0 DUP5 SWAP1 SHL AND DUP2 MSTORE PUSH1 0x1 PUSH1 0x1 PUSH1 0xA0 SHL SUB SWAP1 SWAP2 AND PUSH1 0x4 DUP3 ADD MSTORE PUSH1 0x24 ADD PUSH1 0x20 PUSH1 0x40 MLOAD DUP1 DUP4 SUB DUP2 DUP7 GAS STATICCALL ISZERO DUP1 ISZERO PUSH2 0x105A JUMPI RETURNDATASIZE PUSH0 PUSH0 RETURNDATACOPY RETURNDATASIZE PUSH0 REVERT JUMPDEST POP POP POP POP PUSH1 0x40 MLOAD RETURNDATASIZE PUSH1 0x1F NOT PUSH1 0x1F DUP3 ADD AND DUP3 ADD DUP1 PUSH1 0x40 MSTORE POP DUP2 ADD SWAP1 PUSH2 0x107E SWAP2 SWAP1 PUSH2 0x53C7 JUMP JUMPDEST GT ISZERO PUSH2 0x1095 JUMPI PUSH1 0x16 SLOAD PUSH2 0x1092 SWAP1 PUSH1 0x2 PUSH2 0x53DE JUMP JUMPDEST SWAP1 POP JUMPDEST PUSH11 0x27B46536C66C8E3000000 PUSH1 0x1 PUSH1 0x1 PUSH1 0xA0 SHL SUB PUSH32 0x0 AND PUSH4 0x70A08231 CALLER PUSH1 0x40 MLOAD PUSH1 0x1 PUSH1 0x1 PUSH1 0xE0 SHL SUB NOT PUSH1 0xE0 DUP5 SWAP1 SHL AND DUP2 MSTORE PUSH1 0x1 PUSH1 0x1 PUSH1 0xA0 SHL SUB SWAP1 SWAP2 AND PUSH1 0x4 DUP3 ADD MSTORE PUSH1 0x24 ADD PUSH1 0x20 PUSH1 0x40 MLOAD DUP1 DUP4 SUB DUP2 DUP7 GAS STATICCALL ISZERO DUP1 ISZERO PUSH2 0x1113 JUMPI RETURNDATASIZE PUSH0 PUSH0 RETURNDATACOPY RETURNDATASIZE PUSH0 REVERT JUMPDEST POP POP POP POP PUSH1 0x40 MLOAD RETURNDATASIZE PUSH1 0x1F NOT PUSH1 0x1F DUP3 ADD AND DUP3 ADD DUP1 PUSH1 0x40 MSTORE POP DUP2 ADD SWAP1 PUSH2 0x1137 SWAP2 SWAP1 PUSH2 0x53C7 JUMP JUMPDEST GT ISZERO PUSH2 0x114E JUMPI PUSH1 0x16 SLOAD PUSH2 0x114B SWAP1 PUSH1 0x3 PUSH2 0x53DE JUMP JUMPDEST SWAP1 POP JUMPDEST PUSH11 0x422CA8B0A00A425000000 PUSH1 0x1 PUSH1 0x1 PUSH1 0xA0 SHL SUB PUSH32 0x0 AND PUSH4 0x70A08231 CALLER PUSH1 0x40 MLOAD PUSH1 0x1 PUSH1 0x1 PUSH1 0xE0 SHL SUB NOT PUSH1 0xE0 DUP5 SWAP1 SHL AND DUP2 MSTORE PUSH1 0x1 PUSH1 0x1 PUSH1 0xA0 SHL SUB SWAP1 SWAP2 AND PUSH1 0x4 DUP3 ADD MSTORE PUSH1 0x24 ADD PUSH1 0x20 PUSH1 0x40 MLOAD DUP1 DUP4 SUB DUP2 DUP7 GAS STATICCALL ISZERO DUP1 ISZERO PUSH2 0x11CC JUMPI RETURNDATASIZE PUSH0 PUSH0 RETURNDATACOPY RETURNDATASIZE PUSH0 REVERT JUMPDEST POP POP POP POP PUSH1 0x40 MLOAD RETURNDATASIZE PUSH1 0x1F NOT PUSH1 0x1F DUP3 ADD AND DUP3 ADD DUP1 PUSH1 0x40 MSTORE POP DUP2 ADD SWAP1 PUSH2 0x11F0 SWAP2 SWAP1 PUSH2 0x53C7 JUMP JUMPDEST GT ISZERO PUSH2 0x1207 JUMPI PUSH1 0x16 SLOAD PUSH2 0x1204 SWAP1 PUSH1 0x5 PUSH2 0x53DE JUMP JUMPDEST SWAP1 POP JUMPDEST PUSH11 0x5CA4EC2A79A7F67000000 PUSH1 0x1 PUSH1 0x1 PUSH1 0xA0 SHL SUB PUSH32 0x0 AND PUSH4 0x70A08231 CALLER PUSH1 0x40 MLOAD PUSH1 0x1 PUSH1 0x1 PUSH1 0xE0 SHL SUB NOT PUSH1 0xE0 DUP5 SWAP1 SHL AND DUP2 MSTORE PUSH1 0x1 PUSH1 0x1 PUSH1 0xA0 SHL SUB SWAP1 SWAP2 AND PUSH1 0x4 DUP3 ADD MSTORE PUSH1 0x24 ADD PUSH1 0x20 PUSH1 0x40 MLOAD DUP1 DUP4 SUB DUP2 DUP7 GAS STATICCALL ISZERO DUP1 ISZERO PUSH2 0x1285 JUMPI RETURNDATASIZE PUSH0 PUSH0 RETURNDATACOPY RETURNDATASIZE PUSH0 REVERT JUMPDEST POP POP POP POP PUSH1 0x40 MLOAD RETURNDATASIZE PUSH1 0x1F NOT PUSH1 0x1F DUP3 ADD AND DUP3 ADD DUP1 PUSH1 0x40 MSTORE POP DUP2 ADD SWAP1 PUSH2 0x12A9 SWAP2 SWAP1 PUSH2 0x53C7 JUMP JUMPDEST GT ISZERO PUSH2 0x12C0 JUMPI PUSH1 0x16 SLOAD PUSH2 0x12BD SWAP1 PUSH1 0x7 PUSH2 0x53DE JUMP JUMPDEST SWAP1 POP JUMPDEST PUSH11 0x84595161401484A000000 PUSH1 0x1 PUSH1 0x1 PUSH1 0xA0 SHL SUB PUSH32 0x0 AND PUSH4 0x70A08231 CALLER PUSH1 0x40 MLOAD PUSH1 0x1 PUSH1 0x1 PUSH1 0xE0 SHL SUB NOT PUSH1 0xE0 DUP5 SWAP1 SHL AND DUP2 MSTORE PUSH1 0x1 PUSH1 0x1 PUSH1 0xA0 SHL SUB SWAP1 SWAP2 AND PUSH1 0x4 DUP3 ADD MSTORE PUSH1 0x24 ADD PUSH1 0x20 PUSH1 0x40 MLOAD DUP1 DUP4 SUB DUP2 DUP7 GAS STATICCALL ISZERO DUP1 ISZERO PUSH2 0x133E JUMPI RETURNDATASIZE PUSH0 PUSH0 RETURNDATACOPY RETURNDATASIZE PUSH0 REVERT JUMPDEST POP POP POP POP PUSH1 0x40 MLOAD RETURNDATASIZE PUSH1 0x1F NOT PUSH1 0x1F DUP3 ADD AND DUP3 ADD DUP1 PUSH1 0x40 MSTORE POP DUP2 ADD SWAP1 PUSH2 0x1362 SWAP2 SWAP1 PUSH2 0x53C7 JUMP JUMPDEST GT ISZERO PUSH2 0x1379 JUMPI PUSH1 0x16 SLOAD PUSH2 0x1376 SWAP1 PUSH1 0xA PUSH2 0x53DE JUMP JUMPDEST SWAP1 POP JUMPDEST PUSH1 0xE SLOAD PUSH1 0x40 MLOAD PUSH4 0x4CF61D21 PUSH1 0xE1 SHL DUP2 MSTORE PUSH1 0x1 PUSH1 0x1 PUSH1 0xA0 SHL SUB PUSH32 0x0 DUP2 AND SWAP3 PUSH4 0x99EC3A42 SWAP3 PUSH2 0x13CB SWAP3 CALLER SWAP3 AND SWAP1 PUSH1 0x4 ADD PUSH2 0x53F5 JUMP JUMPDEST PUSH1 0x20 PUSH1 0x40 MLOAD DUP1 DUP4 SUB DUP2 DUP7 GAS STATICCALL ISZERO DUP1 ISZERO PUSH2 0x13E6 JUMPI RETURNDATASIZE PUSH0 PUSH0 RETURNDATACOPY RETURNDATASIZE PUSH0 REVERT JUMPDEST POP POP POP POP PUSH1 0x40 MLOAD RETURNDATASIZE PUSH1 0x1F NOT PUSH1 0x1F DUP3 ADD AND DUP3 ADD DUP1 PUSH1 0x40 MSTORE POP DUP2 ADD SWAP1 PUSH2 0x140A SWAP2 SWAP1 PUSH2 0x540F JUMP JUMPDEST ISZERO PUSH2 0x1420 JUMPI PUSH1 0x16 SLOAD PUSH2 0x141D SWAP1 PUSH1 0x2 PUSH2 0x53DE JUMP JUMPDEST SWAP1 POP JUMPDEST PUSH1 0xF SLOAD PUSH1 0x40 MLOAD PUSH4 0x4CF61D21 PUSH1 0xE1 SHL DUP2 MSTORE PUSH1 0x1 PUSH1 0x1 PUSH1 0xA0 SHL SUB PUSH32 0x0 DUP2 AND SWAP3 PUSH4 0x99EC3A42 SWAP3 PUSH2 0x1472 SWAP3 CALLER SWAP3 AND SWAP1 PUSH1 0x4 ADD PUSH2 0x53F5 JUMP JUMPDEST PUSH1 0x20 PUSH1 0x40 MLOAD DUP1 DUP4 SUB DUP2 DUP7 GAS STATICCALL ISZERO DUP1 ISZERO PUSH2 0x148D JUMPI RETURNDATASIZE PUSH0 PUSH0 RETURNDATACOPY RETURNDATASIZE PUSH0 REVERT JUMPDEST POP POP POP POP PUSH1 0x40 MLOAD RETURNDATASIZE PUSH1 0x1F NOT PUSH1 0x1F DUP3 ADD AND DUP3 ADD DUP1 PUSH1 0x40 MSTORE POP DUP2 ADD SWAP1 PUSH2 0x14B1 SWAP2 SWAP1 PUSH2 0x540F JUMP JUMPDEST ISZERO PUSH2 0x14C7 JUMPI PUSH1 0x16 SLOAD PUSH2 0x14C4 SWAP1 PUSH1 0x2 PUSH2 0x53DE JUMP JUMPDEST SWAP1 POP JUMPDEST PUSH1 0xD SLOAD PUSH1 0x40 MLOAD PUSH4 0x4CF61D21 PUSH1 0xE1 SHL DUP2 MSTORE PUSH1 0x1 PUSH1 0x1 PUSH1 0xA0 SHL SUB PUSH32 0x0 DUP2 AND SWAP3 PUSH4 0x99EC3A42 SWAP3 PUSH2 0x1519 SWAP3 CALLER SWAP3 AND SWAP1 PUSH1 0x4 ADD PUSH2 0x53F5 JUMP JUMPDEST PUSH1 0x20 PUSH1 0x40 MLOAD DUP1 DUP4 SUB DUP2 DUP7 GAS STATICCALL ISZERO DUP1 ISZERO PUSH2 0x1534 JUMPI RETURNDATASIZE PUSH0 PUSH0 RETURNDATACOPY RETURNDATASIZE PUSH0 REVERT JUMPDEST POP POP POP POP PUSH1 0x40 MLOAD RETURNDATASIZE PUSH1 0x1F NOT PUSH1 0x1F DUP3 ADD AND DUP3 ADD DUP1 PUSH1 0x40 MSTORE POP DUP2 ADD SWAP1 PUSH2 0x1558 SWAP2 SWAP1 PUSH2 0x540F JUMP JUMPDEST ISZERO PUSH2 0x156E JUMPI PUSH1 0x16 SLOAD PUSH2 0x156B SWAP1 PUSH1 0x1 PUSH2 0x53DE JUMP JUMPDEST SWAP1 POP JUMPDEST PUSH1 0x10 SLOAD PUSH1 0x40 MLOAD PUSH4 0x4CF61D21 PUSH1 0xE1 SHL DUP2 MSTORE PUSH1 0x1 PUSH1 0x1 PUSH1 0xA0 SHL SUB PUSH32 0x0 DUP2 AND SWAP3 PUSH4 0x99EC3A42 SWAP3 PUSH2 0x15C0 SWAP3 CALLER SWAP3 AND SWAP1 PUSH1 0x4 ADD PUSH2 0x53F5 JUMP JUMPDEST PUSH1 0x20 PUSH1 0x40 MLOAD DUP1 DUP4 SUB DUP2 DUP7 GAS STATICCALL ISZERO DUP1 ISZERO PUSH2 0x15DB JUMPI RETURNDATASIZE PUSH0 PUSH0 RETURNDATACOPY RETURNDATASIZE PUSH0 REVERT JUMPDEST POP POP POP POP PUSH1 0x40 MLOAD RETURNDATASIZE PUSH1 0x1F NOT PUSH1 0x1F DUP3 ADD AND DUP3 ADD DUP1 PUSH1 0x40 MSTORE POP DUP2 ADD SWAP1 PUSH2 0x15FF SWAP2 SWAP1 PUSH2 0x540F JUMP JUMPDEST ISZERO PUSH2 0x1615 JUMPI PUSH1 0x16 SLOAD PUSH2 0x1612 SWAP1 PUSH1 0x1 PUSH2 0x53DE JUMP JUMPDEST SWAP1 POP JUMPDEST PUSH1 0x11 SLOAD PUSH1 0x40 MLOAD PUSH4 0x4CF61D21 PUSH1 0xE1 SHL DUP2 MSTORE PUSH1 0x1 PUSH1 0x1 PUSH1 0xA0 SHL SUB PUSH32 0x0 DUP2 AND SWAP3 PUSH4 0x99EC3A42 SWAP3 PUSH2 0x1667 SWAP3 CALLER SWAP3 AND SWAP1 PUSH1 0x4 ADD PUSH2 0x53F5 JUMP JUMPDEST PUSH1 0x20 PUSH1 0x40 MLOAD DUP1 DUP4 SUB DUP2 DUP7 GAS STATICCALL ISZERO DUP1 ISZERO PUSH2 0x1682 JUMPI RETURNDATASIZE PUSH0 PUSH0 RETURNDATACOPY RETURNDATASIZE PUSH0 REVERT JUMPDEST POP POP POP POP PUSH1 0x40 MLOAD RETURNDATASIZE PUSH1 0x1F NOT PUSH1 0x1F DUP3 ADD AND DUP3 ADD DUP1 PUSH1 0x40 MSTORE POP DUP2 ADD SWAP1 PUSH2 0x16A6 SWAP2 SWAP1 PUSH2 0x540F JUMP JUMPDEST ISZERO PUSH2 0x16BC JUMPI PUSH1 0x16 SLOAD PUSH2 0x16B9 SWAP1 PUSH1 0x1 PUSH2 0x53DE JUMP JUMPDEST SWAP1 POP JUMPDEST PUSH1 0xE SLOAD PUSH1 0x1 PUSH1 0x1 PUSH1 0xA0 SHL SUB PUSH32 0x0 DUP2 AND SWAP2 PUSH4 0x99EC3A42 SWAP2 AND PUSH2 0x16F9 CALLER SWAP1 JUMP JUMPDEST PUSH1 0x40 MLOAD DUP4 PUSH4 0xFFFFFFFF AND PUSH1 0xE0 SHL DUP2 MSTORE PUSH1 0x4 ADD PUSH2 0x1716 SWAP3 SWAP2 SWAP1 PUSH2 0x53F5 JUMP JUMPDEST PUSH1 0x20 PUSH1 0x40 MLOAD DUP1 DUP4 SUB DUP2 DUP7 GAS STATICCALL ISZERO DUP1 ISZERO PUSH2 0x1731 JUMPI RETURNDATASIZE PUSH0 PUSH0 RETURNDATACOPY RETURNDATASIZE PUSH0 REVERT JUMPDEST POP POP POP POP PUSH1 0x40 MLOAD RETURNDATASIZE PUSH1 0x1F NOT PUSH1 0x1F DUP3 ADD AND DUP3 ADD DUP1 PUSH1 0x40 MSTORE POP DUP2 ADD SWAP1 PUSH2 0x1755 SWAP2 SWAP1 PUSH2 0x540F JUMP JUMPDEST ISZERO PUSH2 0x176B JUMPI PUSH1 0x16 SLOAD PUSH2 0x1768 SWAP1 PUSH1 0x2 PUSH2 0x53DE JUMP JUMPDEST SWAP1 POP JUMPDEST PUSH1 0xF SLOAD PUSH1 0x1 PUSH1 0x1 PUSH1 0xA0 SHL SUB PUSH32 0x0 DUP2 AND SWAP2 PUSH4 0x99EC3A42 SWAP2 AND PUSH2 0x17A8 CALLER SWAP1 JUMP JUMPDEST PUSH1 0x40 MLOAD DUP4 PUSH4 0xFFFFFFFF AND PUSH1 0xE0 SHL DUP2 MSTORE PUSH1 0x4 ADD PUSH2 0x17C5 SWAP3 SWAP2 SWAP1 PUSH2 0x53F5 JUMP JUMPDEST PUSH1 0x20 PUSH1 0x40 MLOAD DUP1 DUP4 SUB DUP2 DUP7 GAS STATICCALL ISZERO DUP1 ISZERO PUSH2 0x17E0 JUMPI RETURNDATASIZE PUSH0 PUSH0 RETURNDATACOPY RETURNDATASIZE PUSH0 REVERT JUMPDEST POP POP POP POP PUSH1 0x40 MLOAD RETURNDATASIZE PUSH1 0x1F NOT PUSH1 0x1F DUP3 ADD AND DUP3 ADD DUP1 PUSH1 0x40 MSTORE POP DUP2 ADD SWAP1 PUSH2 0x1804 SWAP2 SWAP1 PUSH2 0x540F JUMP JUMPDEST ISZERO PUSH2 0x181A JUMPI PUSH1 0x16 SLOAD PUSH2 0x1817 SWAP1 PUSH1 0x2 PUSH2 0x53DE JUMP JUMPDEST SWAP1 POP JUMPDEST PUSH1 0x11 SLOAD PUSH1 0x1 PUSH1 0x1 PUSH1 0xA0 SHL SUB PUSH32 0x0 DUP2 AND SWAP2 PUSH4 0x99EC3A42 SWAP2 AND PUSH2 0x1857 CALLER SWAP1 JUMP JUMPDEST PUSH1 0x40 MLOAD DUP4 PUSH4 0xFFFFFFFF AND PUSH1 0xE0 SHL DUP2 MSTORE PUSH1 0x4 ADD PUSH2 0x1874 SWAP3 SWAP2 SWAP1 PUSH2 0x53F5 JUMP JUMPDEST PUSH1 0x20 PUSH1 0x40 MLOAD DUP1 DUP4 SUB DUP2 DUP7 GAS STATICCALL ISZERO DUP1 ISZERO PUSH2 0x188F JUMPI RETURNDATASIZE PUSH0 PUSH0 RETURNDATACOPY RETURNDATASIZE PUSH0 REVERT JUMPDEST POP POP POP POP PUSH1 0x40 MLOAD RETURNDATASIZE PUSH1 0x1F NOT PUSH1 0x1F DUP3 ADD AND DUP3 ADD DUP1 PUSH1 0x40 MSTORE POP DUP2 ADD SWAP1 PUSH2 0x18B3 SWAP2 SWAP1 PUSH2 0x540F JUMP JUMPDEST ISZERO PUSH2 0x18C9 JUMPI PUSH1 0x16 SLOAD PUSH2 0x18C6 SWAP1 PUSH1 0x4 PUSH2 0x53DE JUMP JUMPDEST SWAP1 POP JUMPDEST PUSH1 0xF SLOAD PUSH1 0x1 PUSH1 0x1 PUSH1 0xA0 SHL SUB PUSH32 0x0 DUP2 AND SWAP2 PUSH4 0x99EC3A42 SWAP2 AND PUSH2 0x1906 CALLER SWAP1 JUMP JUMPDEST PUSH1 0x40 MLOAD DUP4 PUSH4 0xFFFFFFFF AND PUSH1 0xE0 SHL DUP2 MSTORE PUSH1 0x4 ADD PUSH2 0x1923 SWAP3 SWAP2 SWAP1 PUSH2 0x53F5 JUMP JUMPDEST PUSH1 0x20 PUSH1 0x40 MLOAD DUP1 DUP4 SUB DUP2 DUP7 GAS STATICCALL ISZERO DUP1 ISZERO PUSH2 0x193E JUMPI RETURNDATASIZE PUSH0 PUSH0 RETURNDATACOPY RETURNDATASIZE PUSH0 REVERT JUMPDEST POP POP POP POP PUSH1 0x40 MLOAD RETURNDATASIZE PUSH1 0x1F NOT PUSH1 0x1F DUP3 ADD AND DUP3 ADD DUP1 PUSH1 0x40 MSTORE POP DUP2 ADD SWAP1 PUSH2 0x1962 SWAP2 SWAP1 PUSH2 0x540F JUMP JUMPDEST ISZERO PUSH2 0x1978 JUMPI PUSH1 0x16 SLOAD PUSH2 0x1975 SWAP1 PUSH1 0x1 PUSH2 0x53DE JUMP JUMPDEST SWAP1 POP JUMPDEST PUSH1 0x3 PUSH2 0x1983 CALLER PUSH2 0x2658 JUMP JUMPDEST LT PUSH2 0x1999 JUMPI PUSH1 0x16 SLOAD PUSH2 0x1996 SWAP1 PUSH1 0x2 PUSH2 0x53DE JUMP JUMPDEST SWAP1 POP JUMPDEST PUSH1 0x5 PUSH2 0x19A4 CALLER PUSH2 0x2658 JUMP JUMPDEST LT PUSH2 0x19BA JUMPI PUSH1 0x16 SLOAD PUSH2 0x19B7 SWAP1 PUSH1 0x2 PUSH2 0x53DE JUMP JUMPDEST SWAP1 POP JUMPDEST PUSH1 0xA PUSH2 0x19C5 CALLER PUSH2 0x2658 JUMP JUMPDEST LT PUSH2 0x19DB JUMPI PUSH1 0x16 SLOAD PUSH2 0x19D8 SWAP1 PUSH1 0x3 PUSH2 0x53DE JUMP JUMPDEST SWAP1 POP JUMPDEST PUSH1 0xF PUSH2 0x19E6 CALLER PUSH2 0x2658 JUMP JUMPDEST LT PUSH2 0x19FC JUMPI PUSH1 0x16 SLOAD PUSH2 0x19F9 SWAP1 PUSH1 0x3 PUSH2 0x53DE JUMP JUMPDEST SWAP1 POP JUMPDEST PUSH1 0x14 PUSH2 0x1A07 CALLER PUSH2 0x2658 JUMP JUMPDEST LT PUSH2 0x1A1D JUMPI PUSH1 0x16 SLOAD PUSH2 0x1A1A SWAP1 PUSH1 0x5 PUSH2 0x53DE JUMP JUMPDEST SWAP1 POP JUMPDEST PUSH1 0x32 PUSH2 0x1A28 CALLER PUSH2 0x2658 JUMP JUMPDEST LT PUSH2 0x1A3E JUMPI PUSH1 0x16 SLOAD PUSH2 0x1A3B SWAP1 PUSH1 0xA PUSH2 0x53DE JUMP JUMPDEST SWAP1 POP JUMPDEST PUSH0 DUP3 DUP2 MSTORE PUSH1 0x19 PUSH1 0x20 SWAP1 DUP2 MSTORE PUSH1 0x40 SWAP2 DUP3 SWAP1 KECCAK256 DUP3 MLOAD DUP1 DUP5 ADD SWAP1 SWAP4 MSTORE DUP1 SLOAD DUP1 DUP5 MSTORE PUSH1 0x1 SWAP1 SWAP2 ADD SLOAD PUSH1 0xFF AND SWAP2 DUP4 ADD SWAP2 SWAP1 SWAP2 MSTORE DUP3 SWAP1 DUP3 SWAP1 PUSH2 0x1A7B SWAP1 DUP4 SWAP1 PUSH2 0x53B4 JUMP JUMPDEST SWAP1 MSTORE POP PUSH0 SWAP3 DUP4 MSTORE PUSH1 0x19 PUSH1 0x20 SWAP1 DUP2 MSTORE PUSH1 0x40 DUP1 DUP6 KECCAK256 DUP4 MLOAD DUP2 SSTORE SWAP3 DUP3 ADD MLOAD PUSH1 0x1 SWAP1 SWAP4 ADD DUP1 SLOAD PUSH1 0xFF NOT AND PUSH1 0xFF SWAP1 SWAP5 AND SWAP4 SWAP1 SWAP4 OR SWAP1 SWAP3 SSTORE CALLER DUP5 MSTORE PUSH1 0x18 SWAP1 MSTORE SWAP1 SWAP2 KECCAK256 TIMESTAMP SWAP1 SSTORE POP JUMP JUMPDEST PUSH1 0x60 PUSH2 0x1AC9 DUP4 DUP4 PUSH2 0x39F3 JUMP JUMPDEST SWAP4 SWAP3 POP POP POP JUMP JUMPDEST PUSH1 0x60 DUP2 MLOAD DUP4 MLOAD EQ PUSH2 0x1AF4 JUMPI PUSH1 0x40 MLOAD PUSH4 0x17D38EFF PUSH1 0xE1 SHL DUP2 MSTORE PUSH1 0x4 ADD PUSH1 0x40 MLOAD DUP1 SWAP2 SUB SWAP1 REVERT JUMPDEST DUP3 MLOAD PUSH1 0x1 PUSH1 0x1 PUSH1 0x40 SHL SUB DUP2 GT ISZERO PUSH2 0x1B0D JUMPI PUSH2 0x1B0D PUSH2 0x48F4 JUMP JUMPDEST PUSH1 0x40 MLOAD SWAP1 DUP1 DUP3 MSTORE DUP1 PUSH1 0x20 MUL PUSH1 0x20 ADD DUP3 ADD PUSH1 0x40 MSTORE DUP1 ISZERO PUSH2 0x1B40 JUMPI DUP2 PUSH1 0x20 ADD JUMPDEST PUSH1 0x60 DUP2 MSTORE PUSH1 0x20 ADD SWAP1 PUSH1 0x1 SWAP1 SUB SWAP1 DUP2 PUSH2 0x1B2B JUMPI SWAP1 POP JUMPDEST POP SWAP1 POP PUSH0 JUMPDEST DUP4 MLOAD DUP2 LT ISZERO PUSH2 0x1BAF JUMPI PUSH2 0x1B8A DUP5 DUP3 DUP2 MLOAD DUP2 LT PUSH2 0x1B63 JUMPI PUSH2 0x1B63 PUSH2 0x542A JUMP JUMPDEST PUSH1 0x20 MUL PUSH1 0x20 ADD ADD MLOAD DUP5 DUP4 DUP2 MLOAD DUP2 LT PUSH2 0x1B7D JUMPI PUSH2 0x1B7D PUSH2 0x542A JUMP JUMPDEST PUSH1 0x20 MUL PUSH1 0x20 ADD ADD MLOAD PUSH2 0x39F3 JUMP JUMPDEST DUP3 DUP3 DUP2 MLOAD DUP2 LT PUSH2 0x1B9C JUMPI PUSH2 0x1B9C PUSH2 0x542A JUMP JUMPDEST PUSH1 0x20 SWAP1 DUP2 MUL SWAP2 SWAP1 SWAP2 ADD ADD MSTORE PUSH1 0x1 ADD PUSH2 0x1B45 JUMP JUMPDEST POP SWAP3 SWAP2 POP POP JUMP JUMPDEST PUSH0 DUP2 DUP2 MSTORE PUSH1 0x3 PUSH1 0x20 MSTORE PUSH1 0x40 DUP2 KECCAK256 SLOAD PUSH1 0x1 PUSH1 0x1 PUSH1 0xA0 SHL SUB AND DUP1 PUSH2 0xD5C JUMPI PUSH1 0x40 MLOAD PUSH4 0x5747CD1B PUSH1 0xE1 SHL DUP2 MSTORE PUSH1 0x4 DUP2 ADD DUP5 SWAP1 MSTORE PUSH1 0x24 ADD PUSH2 0x3F2 JUMP JUMPDEST PUSH0 PUSH2 0x1AC9 DUP4 DUP4 PUSH2 0x3A9E JUMP JUMPDEST PUSH2 0x1C01 PUSH2 0x3AD9 JUMP JUMPDEST DUP1 MLOAD PUSH1 0x9 DUP1 SLOAD PUSH1 0x1 PUSH1 0x1 PUSH1 0xA0 SHL SUB SWAP3 DUP4 AND PUSH1 0x1 PUSH1 0x1 PUSH1 0xA0 SHL SUB NOT SWAP2 DUP3 AND DUP2 OR SWAP1 SWAP3 SSTORE PUSH1 0x20 DUP5 ADD MLOAD PUSH1 0xA DUP1 SLOAD SWAP2 DUP6 AND SWAP2 DUP4 AND DUP3 OR SWAP1 SSTORE PUSH1 0x40 DUP1 DUP7 ADD MLOAD PUSH1 0xB DUP1 SLOAD SWAP2 DUP8 AND SWAP2 DUP6 AND DUP3 OR SWAP1 SSTORE PUSH1 0x60 DUP8 ADD MLOAD PUSH1 0xC DUP1 SLOAD DUP3 DUP10 AND SWAP1 DUP8 AND OR SWAP1 SSTORE PUSH1 0x80 DUP9 ADD MLOAD PUSH1 0xD DUP1 SLOAD DUP3 DUP11 AND SWAP1 DUP9 AND OR SWAP1 SSTORE PUSH1 0xA0 DUP10 ADD MLOAD PUSH1 0xE DUP1 SLOAD DUP3 DUP12 AND SWAP1 DUP10 AND OR SWAP1 SSTORE PUSH1 0xC0 DUP11 ADD MLOAD PUSH1 0xF DUP1 SLOAD DUP3 DUP13 AND SWAP1 DUP11 AND OR SWAP1 SSTORE PUSH1 0xE0 DUP12 ADD MLOAD PUSH1 0x10 DUP1 SLOAD DUP3 DUP14 AND SWAP1 DUP12 AND OR SWAP1 SSTORE PUSH2 0x100 DUP13 ADD MLOAD PUSH1 0x11 DUP1 SLOAD DUP3 DUP15 AND SWAP1 DUP13 AND OR SWAP1 SSTORE PUSH2 0x120 DUP14 ADD MLOAD PUSH1 0x12 DUP1 SLOAD SWAP14 DUP3 AND SWAP14 SWAP1 SWAP12 AND SWAP13 SWAP1 SWAP13 OR SWAP1 SWAP10 SSTORE SWAP6 MLOAD SWAP5 SWAP10 SWAP7 SWAP9 SWAP8 PUSH32 0xD7FF29EFFCED1B6A8B99FF16244C286AF48221D90470A241C633BCC7C9DFD84D SWAP8 PUSH2 0x1D46 SWAP8 SWAP6 SWAP7 SWAP5 SWAP6 SWAP4 SWAP5 SWAP3 SWAP4 SWAP3 PUSH1 0x1 PUSH1 0x1 PUSH1 0xA0 SHL SUB SWAP8 DUP9 AND DUP2 MSTORE SWAP6 DUP8 AND PUSH1 0x20 DUP8 ADD MSTORE SWAP4 DUP7 AND PUSH1 0x40 DUP7 ADD MSTORE SWAP2 DUP6 AND PUSH1 0x60 DUP6 ADD MSTORE DUP5 AND PUSH1 0x80 DUP5 ADD MSTORE DUP4 AND PUSH1 0xA0 DUP4 ADD MSTORE SWAP1 SWAP2 AND PUSH1 0xC0 DUP3 ADD MSTORE PUSH1 0xE0 ADD SWAP1 JUMP JUMPDEST PUSH1 0x40 MLOAD DUP1 SWAP2 SUB SWAP1 LOG4 POP JUMP JUMPDEST PUSH0 DUP3 DUP2 MSTORE PUSH1 0x19 PUSH1 0x20 MSTORE PUSH1 0x40 DUP2 KECCAK256 PUSH1 0x1 DUP1 DUP3 ADD SLOAD SWAP2 SWAP3 SWAP2 PUSH2 0x1D74 SWAP2 SWAP1 PUSH1 0xFF AND PUSH2 0x543E JUMP JUMPDEST PUSH1 0x1 DUP4 DUP2 ADD SLOAD SWAP2 SWAP3 POP PUSH1 0xFF SWAP1 SWAP2 AND GT PUSH2 0x1DA0 JUMPI PUSH1 0x40 MLOAD PUSH4 0x4F826195 PUSH1 0xE1 SHL DUP2 MSTORE PUSH1 0x4 ADD PUSH1 0x40 MLOAD DUP1 SWAP2 SUB SWAP1 REVERT JUMPDEST PUSH2 0x1DCB DUP5 PUSH32 0x9AFB95CACC9F95858EC44AA8C3B685511002E30AE54415823F406128B85B238E DUP6 PUSH2 0x3B14 JUMP JUMPDEST PUSH1 0x1 SWAP2 SWAP1 SWAP2 ADD DUP1 SLOAD PUSH1 0xFF NOT AND PUSH1 0xFF SWAP1 SWAP3 AND SWAP2 SWAP1 SWAP2 OR SWAP1 SSTORE POP POP JUMP JUMPDEST PUSH0 PUSH2 0x1DEF PUSH2 0x3B75 JUMP JUMPDEST PUSH2 0x1DF7 PUSH2 0x3B9F JUMP JUMPDEST PUSH2 0x8AE PUSH2 0x1E03 PUSH1 0x13 SLOAD SWAP1 JUMP JUMPDEST LT PUSH2 0x1E21 JUMPI PUSH1 0x40 MLOAD PUSH4 0x8A164F63 PUSH1 0xE0 SHL DUP2 MSTORE PUSH1 0x4 ADD PUSH1 0x40 MLOAD DUP1 SWAP2 SUB SWAP1 REVERT JUMPDEST DUP3 PUSH1 0x14 SLOAD EQ PUSH2 0x1E43 JUMPI PUSH1 0x40 MLOAD PUSH4 0x21094A9B PUSH1 0xE0 SHL DUP2 MSTORE PUSH1 0x4 ADD PUSH1 0x40 MLOAD DUP1 SWAP2 SUB SWAP1 REVERT JUMPDEST PUSH0 DUP4 DUP2 MSTORE PUSH1 0x17 PUSH1 0x20 MSTORE PUSH1 0x40 DUP1 DUP3 KECCAK256 DUP2 MLOAD PUSH1 0x80 DUP2 ADD SWAP1 SWAP3 MSTORE DUP1 SLOAD DUP3 SWAP1 DUP3 SWAP1 PUSH2 0x1E69 SWAP1 PUSH2 0x5457 JUMP JUMPDEST DUP1 PUSH1 0x1F ADD PUSH1 0x20 DUP1 SWAP2 DIV MUL PUSH1 0x20 ADD PUSH1 0x40 MLOAD SWAP1 DUP2 ADD PUSH1 0x40 MSTORE DUP1 SWAP3 SWAP2 SWAP1 DUP2 DUP2 MSTORE PUSH1 0x20 ADD DUP3 DUP1 SLOAD PUSH2 0x1E95 SWAP1 PUSH2 0x5457 JUMP JUMPDEST DUP1 ISZERO PUSH2 0x1EE0 JUMPI DUP1 PUSH1 0x1F LT PUSH2 0x1EB7 JUMPI PUSH2 0x100 DUP1 DUP4 SLOAD DIV MUL DUP4 MSTORE SWAP2 PUSH1 0x20 ADD SWAP2 PUSH2 0x1EE0 JUMP JUMPDEST DUP3 ADD SWAP2 SWAP1 PUSH0 MSTORE PUSH1 0x20 PUSH0 KECCAK256 SWAP1 JUMPDEST DUP2 SLOAD DUP2 MSTORE SWAP1 PUSH1 0x1 ADD SWAP1 PUSH1 0x20 ADD DUP1 DUP4 GT PUSH2 0x1EC3 JUMPI DUP3 SWAP1 SUB PUSH1 0x1F AND DUP3 ADD SWAP2 JUMPDEST POP POP POP SWAP2 DUP4 MSTORE POP POP PUSH1 0x1 DUP3 ADD SLOAD PUSH1 0x20 DUP1 DUP4 ADD SWAP2 SWAP1 SWAP2 MSTORE PUSH1 0x2 DUP4 ADD SLOAD PUSH1 0x40 DUP1 DUP5 ADD SWAP2 SWAP1 SWAP2 MSTORE PUSH1 0x3 SWAP1 SWAP4 ADD SLOAD PUSH1 0x1 PUSH1 0x1 PUSH1 0xA0 SHL SUB AND PUSH1 0x60 SWAP3 DUP4 ADD MSTORE DUP4 DUP2 ADD MLOAD DUP5 DUP5 ADD MLOAD SWAP3 DUP6 ADD MLOAD CALLER PUSH0 SWAP1 DUP2 MSTORE PUSH1 0x1B DUP5 MSTORE DUP6 DUP2 KECCAK256 DUP12 DUP3 MSTORE SWAP1 SWAP4 MSTORE SWAP4 SWAP1 SWAP2 KECCAK256 SLOAD SWAP4 SWAP5 POP SWAP3 SWAP1 SWAP2 SWAP1 PUSH1 0xFF AND DUP4 GT PUSH2 0x1F65 JUMPI PUSH1 0x40 MLOAD PUSH4 0x4BCD7EDD PUSH1 0xE1 SHL DUP2 MSTORE PUSH1 0x4 ADD PUSH1 0x40 MLOAD DUP1 SWAP2 SUB SWAP1 REVERT JUMPDEST PUSH1 0x40 DUP1 MLOAD DUP1 DUP3 ADD SWAP1 SWAP2 MSTORE PUSH1 0x6 DUP2 MSTORE PUSH6 0x706861736531 PUSH1 0xD0 SHL PUSH1 0x20 SWAP1 SWAP2 ADD MSTORE PUSH32 0x3DB34EEEEFD2A5000C181C2D5BE61BC403042E9BB18DD26851E221BC976396D2 DUP8 ADD PUSH2 0x2043 JUMPI CALLER PUSH0 SWAP1 DUP2 MSTORE PUSH1 0x1C PUSH1 0x20 MSTORE PUSH1 0x40 SWAP1 KECCAK256 SLOAD PUSH1 0xFF AND PUSH2 0x1FD9 JUMPI PUSH1 0x40 MLOAD PUSH4 0xB094F27 PUSH1 0xE3 SHL DUP2 MSTORE PUSH1 0x4 ADD PUSH1 0x40 MLOAD DUP1 SWAP2 SUB SWAP1 REVERT JUMPDEST PUSH1 0xDE PUSH2 0x1FE4 PUSH1 0x2 SLOAD SWAP1 JUMP JUMPDEST LT PUSH2 0x2002 JUMPI PUSH1 0x40 MLOAD PUSH4 0x342428EB PUSH1 0xE0 SHL DUP2 MSTORE PUSH1 0x4 ADD PUSH1 0x40 MLOAD DUP1 SWAP2 SUB SWAP1 REVERT JUMPDEST CALLER PUSH0 SWAP1 DUP2 MSTORE PUSH1 0x1B PUSH1 0x20 SWAP1 DUP2 MSTORE PUSH1 0x40 DUP1 DUP4 KECCAK256 DUP11 DUP5 MSTORE SWAP1 SWAP2 MSTORE SWAP1 KECCAK256 SLOAD PUSH1 0xFF AND DUP4 GT PUSH2 0x203E JUMPI PUSH1 0x40 MLOAD PUSH4 0x3CE95F85 PUSH1 0xE1 SHL DUP2 MSTORE PUSH1 0x4 ADD PUSH1 0x40 MLOAD DUP1 SWAP2 SUB SWAP1 REVERT JUMPDEST PUSH2 0x219C JUMP JUMPDEST PUSH1 0x40 DUP1 MLOAD DUP1 DUP3 ADD SWAP1 SWAP2 MSTORE PUSH1 0x6 DUP2 MSTORE PUSH6 0x383430B9B299 PUSH1 0xD1 SHL PUSH1 0x20 SWAP1 SWAP2 ADD MSTORE PUSH32 0xCE00F28AF6461CE48F3D0998A1034C969651D2B8DF8A6D973D85C3D2AE3AE448 DUP8 ADD PUSH2 0x20B1 JUMPI PUSH1 0xDE PUSH2 0x2093 PUSH1 0x2 SLOAD SWAP1 JUMP JUMPDEST LT PUSH2 0x203E JUMPI PUSH1 0x40 MLOAD PUSH4 0x342428EB PUSH1 0xE0 SHL DUP2 MSTORE PUSH1 0x4 ADD PUSH1 0x40 MLOAD DUP1 SWAP2 SUB SWAP1 REVERT JUMPDEST PUSH1 0x40 DUP1 MLOAD DUP1 DUP3 ADD SWAP1 SWAP2 MSTORE PUSH1 0x6 DUP2 MSTORE PUSH6 0x706861736533 PUSH1 0xD0 SHL PUSH1 0x20 SWAP1 SWAP2 ADD MSTORE PUSH32 0x6C81E26B43AA001367D6FEAD6E59C42C18FD7A333BB17DB5DEDD5A7E313230E5 DUP8 ADD PUSH2 0x219C JUMPI PUSH1 0x40 MLOAD PUSH4 0x70A08231 PUSH1 0xE0 SHL DUP2 MSTORE CALLER PUSH1 0x4 DUP3 ADD MSTORE PUSH0 SWAP1 PUSH32 0x0 PUSH1 0x1 PUSH1 0x1 PUSH1 0xA0 SHL SUB AND SWAP1 PUSH4 0x70A08231 SWAP1 PUSH1 0x24 ADD PUSH1 0x20 PUSH1 0x40 MLOAD DUP1 DUP4 SUB DUP2 DUP7 GAS STATICCALL ISZERO DUP1 ISZERO PUSH2 0x215A JUMPI RETURNDATASIZE PUSH0 PUSH0 RETURNDATACOPY RETURNDATASIZE PUSH0 REVERT JUMPDEST POP POP POP POP PUSH1 0x40 MLOAD RETURNDATASIZE PUSH1 0x1F NOT PUSH1 0x1F DUP3 ADD AND DUP3 ADD DUP1 PUSH1 0x40 MSTORE POP DUP2 ADD SWAP1 PUSH2 0x217E SWAP2 SWAP1 PUSH2 0x53C7 JUMP JUMPDEST GT PUSH2 0x219C JUMPI PUSH1 0x40 MLOAD PUSH4 0x46B8A0FD PUSH1 0xE1 SHL DUP2 MSTORE PUSH1 0x4 ADD PUSH1 0x40 MLOAD DUP1 SWAP2 SUB SWAP1 REVERT JUMPDEST DUP2 ISZERO PUSH2 0x2240 JUMPI PUSH1 0x1 PUSH1 0x1 PUSH1 0xA0 SHL SUB DUP2 AND PUSH2 0x21DF JUMPI DUP2 CALLVALUE LT ISZERO PUSH2 0x21DA JUMPI PUSH1 0x40 MLOAD PUSH4 0xB99E2AB7 PUSH1 0xE0 SHL DUP2 MSTORE PUSH1 0x4 DUP2 ADD DUP4 SWAP1 MSTORE CALLVALUE PUSH1 0x24 DUP3 ADD MSTORE PUSH1 0x44 ADD PUSH2 0x3F2 JUMP JUMPDEST PUSH2 0x2240 JUMP JUMPDEST PUSH1 0x40 MLOAD PUSH4 0x3B06CDDD PUSH1 0xE1 SHL DUP2 MSTORE PUSH1 0x1 PUSH1 0x1 PUSH1 0xA0 SHL SUB DUP3 AND SWAP1 PUSH4 0x760D9BBA SWAP1 PUSH2 0x2212 SWAP1 CALLER SWAP1 ADDRESS SWAP1 DUP8 SWAP1 PUSH1 0x1 SWAP1 PUSH1 0x4 ADD PUSH2 0x5489 JUMP JUMPDEST PUSH0 PUSH1 0x40 MLOAD DUP1 DUP4 SUB DUP2 PUSH0 DUP8 DUP1 EXTCODESIZE ISZERO DUP1 ISZERO PUSH2 0x2229 JUMPI PUSH0 PUSH0 REVERT JUMPDEST POP GAS CALL ISZERO DUP1 ISZERO PUSH2 0x223B JUMPI RETURNDATASIZE PUSH0 PUSH0 RETURNDATACOPY RETURNDATASIZE PUSH0 REVERT JUMPDEST POP POP POP POP JUMPDEST PUSH2 0x224E PUSH1 0x13 DUP1 SLOAD PUSH1 0x1 ADD SWAP1 SSTORE JUMP JUMPDEST PUSH0 PUSH2 0x2258 PUSH1 0x13 SLOAD SWAP1 JUMP JUMPDEST SWAP1 POP PUSH2 0x2275 CALLER DUP3 PUSH1 0x1 PUSH1 0x40 MLOAD DUP1 PUSH1 0x20 ADD PUSH1 0x40 MSTORE DUP1 PUSH0 DUP2 MSTORE POP PUSH2 0x3BC3 JUMP JUMPDEST PUSH2 0x22A0 DUP2 PUSH32 0x9AFB95CACC9F95858EC44AA8C3B685511002E30AE54415823F406128B85B238E DUP10 PUSH2 0x3B14 JUMP JUMPDEST CALLER PUSH0 SWAP1 DUP2 MSTORE PUSH1 0x1B PUSH1 0x20 SWAP1 DUP2 MSTORE PUSH1 0x40 DUP1 DUP4 KECCAK256 DUP12 DUP5 MSTORE SWAP1 SWAP2 MSTORE SWAP1 KECCAK256 SLOAD PUSH2 0x22C8 SWAP1 PUSH1 0xFF AND PUSH1 0x1 PUSH2 0x54C0 JUMP JUMPDEST CALLER PUSH0 DUP2 DUP2 MSTORE PUSH1 0x1B PUSH1 0x20 SWAP1 DUP2 MSTORE PUSH1 0x40 DUP1 DUP4 KECCAK256 DUP14 DUP5 MSTORE DUP3 MSTORE DUP1 DUP4 KECCAK256 DUP1 SLOAD PUSH1 0xFF SWAP7 DUP8 AND PUSH1 0xFF NOT SWAP2 DUP3 AND OR SWAP1 SWAP2 SSTORE DUP2 MLOAD DUP1 DUP4 ADD DUP4 MSTORE DUP5 DUP2 MSTORE DUP1 DUP5 ADD DUP6 DUP2 MSTORE DUP9 DUP7 MSTORE PUSH1 0x19 DUP6 MSTORE SWAP5 DUP4 SWAP1 KECCAK256 SWAP1 MLOAD DUP2 SSTORE SWAP4 MLOAD PUSH1 0x1 SWAP5 SWAP1 SWAP5 ADD DUP1 SLOAD SWAP5 SWAP1 SWAP7 AND SWAP4 AND SWAP3 SWAP1 SWAP3 OR SWAP1 SWAP4 SSTORE MLOAD TIMESTAMP DUP2 MSTORE DUP4 SWAP3 PUSH32 0xA076A0E133EAAA7A0D2293663374C22B5572FC5A479274E17E00AC210FE2367B SWAP2 ADD PUSH1 0x40 MLOAD DUP1 SWAP2 SUB SWAP1 LOG3 SWAP5 POP POP POP POP POP PUSH2 0xD5C PUSH1 0x1 PUSH1 0x8 SSTORE JUMP JUMPDEST PUSH2 0x2371 PUSH2 0x3AD9 JUMP JUMPDEST PUSH1 0x14 SSTORE JUMP JUMPDEST PUSH1 0x60 PUSH2 0x2381 DUP3 PUSH2 0x3D2C JUMP JUMPDEST PUSH0 DUP3 DUP2 MSTORE PUSH1 0x5 PUSH1 0x20 MSTORE PUSH1 0x40 SWAP1 KECCAK256 PUSH2 0xD5C SWAP1 PUSH2 0x3D63 JUMP JUMPDEST PUSH2 0x23A1 CALLER DUP5 PUSH2 0x3A9E JUMP JUMPDEST PUSH2 0x23C7 JUMPI PUSH1 0x40 MLOAD PUSH4 0x1294D2A9 PUSH1 0xE0 SHL DUP2 MSTORE PUSH1 0x4 DUP2 ADD DUP5 SWAP1 MSTORE CALLER PUSH1 0x24 DUP3 ADD MSTORE PUSH1 0x44 ADD PUSH2 0x3F2 JUMP JUMPDEST PUSH2 0x23D4 DUP6 DUP6 DUP6 DUP6 DUP6 PUSH2 0x3D6F JUMP JUMPDEST POP POP POP POP POP JUMP JUMPDEST PUSH1 0x60 PUSH2 0xD5C DUP3 PUSH2 0x3F4B JUMP JUMPDEST PUSH0 DUP4 DUP2 MSTORE PUSH1 0x19 PUSH1 0x20 MSTORE PUSH1 0x40 SWAP1 KECCAK256 SLOAD ISZERO ISZERO DUP1 PUSH2 0x2413 JUMPI POP PUSH0 DUP4 DUP2 MSTORE PUSH1 0x19 PUSH1 0x20 MSTORE PUSH1 0x40 SWAP1 KECCAK256 PUSH1 0x1 ADD SLOAD PUSH1 0xFF AND ISZERO ISZERO JUMPDEST PUSH2 0x244A JUMPI PUSH1 0x40 MLOAD PUSH3 0x461BCD PUSH1 0xE5 SHL DUP2 MSTORE PUSH1 0x20 PUSH1 0x4 DUP3 ADD MSTORE PUSH1 0x8 PUSH1 0x24 DUP3 ADD MSTORE PUSH8 0x139BC8195E1A5CDD PUSH1 0xC2 SHL PUSH1 0x44 DUP3 ADD MSTORE PUSH1 0x64 ADD PUSH2 0x3F2 JUMP JUMPDEST PUSH1 0x9 SLOAD PUSH1 0x1 PUSH1 0x1 PUSH1 0xA0 SHL SUB AND PUSH4 0x44D17187 CALLER PUSH2 0x246E DUP6 PUSH8 0xDE0B6B3A7640000 PUSH2 0x53DE JUMP JUMPDEST DUP5 PUSH1 0x40 MLOAD DUP5 PUSH4 0xFFFFFFFF AND PUSH1 0xE0 SHL DUP2 MSTORE PUSH1 0x4 ADD PUSH2 0x248D SWAP4 SWAP3 SWAP2 SWAP1 PUSH2 0x54D9 JUMP JUMPDEST PUSH0 PUSH1 0x40 MLOAD DUP1 DUP4 SUB DUP2 PUSH0 DUP8 DUP1 EXTCODESIZE ISZERO DUP1 ISZERO PUSH2 0x24A4 JUMPI PUSH0 PUSH0 REVERT JUMPDEST POP GAS CALL ISZERO DUP1 ISZERO PUSH2 0x24B6 JUMPI RETURNDATASIZE PUSH0 PUSH0 RETURNDATACOPY RETURNDATASIZE PUSH0 REVERT JUMPDEST POP POP POP PUSH0 DUP5 DUP2 MSTORE PUSH1 0x19 PUSH1 0x20 SWAP1 DUP2 MSTORE PUSH1 0x40 SWAP2 DUP3 SWAP1 KECCAK256 DUP3 MLOAD DUP1 DUP5 ADD SWAP1 SWAP4 MSTORE DUP1 SLOAD DUP1 DUP5 MSTORE PUSH1 0x1 SWAP1 SWAP2 ADD SLOAD PUSH1 0xFF AND SWAP2 DUP4 ADD SWAP2 SWAP1 SWAP2 MSTORE SWAP1 SWAP2 POP DUP4 SWAP1 DUP3 SWAP1 PUSH2 0x24F9 SWAP1 DUP4 SWAP1 PUSH2 0x53B4 JUMP JUMPDEST SWAP1 MSTORE POP PUSH0 SWAP4 DUP5 MSTORE PUSH1 0x19 PUSH1 0x20 SWAP1 DUP2 MSTORE PUSH1 0x40 SWAP1 SWAP5 KECCAK256 DUP2 MLOAD DUP2 SSTORE SWAP4 ADD MLOAD PUSH1 0x1 SWAP1 SWAP4 ADD DUP1 SLOAD PUSH1 0xFF NOT AND PUSH1 0xFF SWAP1 SWAP5 AND SWAP4 SWAP1 SWAP4 OR SWAP1 SWAP3 SSTORE POP POP JUMP JUMPDEST PUSH1 0x60 DUP2 PUSH1 0x1 PUSH1 0x1 PUSH1 0x40 SHL SUB DUP2 GT ISZERO PUSH2 0x2548 JUMPI PUSH2 0x2548 PUSH2 0x48F4 JUMP JUMPDEST PUSH1 0x40 MLOAD SWAP1 DUP1 DUP3 MSTORE DUP1 PUSH1 0x20 MUL PUSH1 0x20 ADD DUP3 ADD PUSH1 0x40 MSTORE DUP1 ISZERO PUSH2 0x257B JUMPI DUP2 PUSH1 0x20 ADD JUMPDEST PUSH1 0x60 DUP2 MSTORE PUSH1 0x20 ADD SWAP1 PUSH1 0x1 SWAP1 SUB SWAP1 DUP2 PUSH2 0x2566 JUMPI SWAP1 POP JUMPDEST POP SWAP1 POP PUSH0 JUMPDEST DUP3 DUP2 LT ISZERO PUSH2 0x1BAF JUMPI PUSH0 DUP1 ADDRESS DUP7 DUP7 DUP6 DUP2 DUP2 LT PUSH2 0x259D JUMPI PUSH2 0x259D PUSH2 0x542A JUMP JUMPDEST SWAP1 POP PUSH1 0x20 MUL DUP2 ADD SWAP1 PUSH2 0x25AF SWAP2 SWAP1 PUSH2 0x5508 JUMP JUMPDEST PUSH1 0x40 MLOAD PUSH2 0x25BD SWAP3 SWAP2 SWAP1 PUSH2 0x5551 JUMP JUMPDEST PUSH0 PUSH1 0x40 MLOAD DUP1 DUP4 SUB DUP2 DUP6 GAS DELEGATECALL SWAP2 POP POP RETURNDATASIZE DUP1 PUSH0 DUP2 EQ PUSH2 0x25F5 JUMPI PUSH1 0x40 MLOAD SWAP2 POP PUSH1 0x1F NOT PUSH1 0x3F RETURNDATASIZE ADD AND DUP3 ADD PUSH1 0x40 MSTORE RETURNDATASIZE DUP3 MSTORE RETURNDATASIZE PUSH0 PUSH1 0x20 DUP5 ADD RETURNDATACOPY PUSH2 0x25FA JUMP JUMPDEST PUSH1 0x60 SWAP2 POP JUMPDEST POP SWAP2 POP SWAP2 POP DUP2 PUSH2 0x2630 JUMPI DUP1 MLOAD ISZERO PUSH2 0x2614 JUMPI DUP1 MLOAD DUP1 DUP3 PUSH1 0x20 ADD REVERT JUMPDEST PUSH1 0x40 MLOAD PUSH4 0x234EB819 PUSH1 0xE0 SHL DUP2 MSTORE PUSH1 0x4 DUP2 ADD DUP5 SWAP1 MSTORE PUSH1 0x24 ADD PUSH2 0x3F2 JUMP JUMPDEST DUP1 DUP5 DUP5 DUP2 MLOAD DUP2 LT PUSH2 0x2643 JUMPI PUSH2 0x2643 PUSH2 0x542A JUMP JUMPDEST PUSH1 0x20 SWAP1 DUP2 MUL SWAP2 SWAP1 SWAP2 ADD ADD MSTORE POP POP PUSH1 0x1 ADD PUSH2 0x2580 JUMP JUMPDEST PUSH1 0x1 PUSH1 0x1 PUSH1 0xA0 SHL SUB DUP2 AND PUSH0 SWAP1 DUP2 MSTORE PUSH1 0x4 PUSH1 0x20 MSTORE PUSH1 0x40 DUP2 KECCAK256 PUSH2 0xD5C SWAP1 PUSH2 0x3FEA JUMP JUMPDEST PUSH2 0x2680 PUSH2 0x3AD9 JUMP JUMPDEST PUSH2 0x2689 PUSH0 PUSH2 0x3FF3 JUMP JUMPDEST JUMP JUMPDEST PUSH2 0x2693 PUSH2 0x3AD9 JUMP JUMPDEST PUSH0 DUP4 DUP2 MSTORE PUSH1 0x19 PUSH1 0x20 SWAP1 DUP2 MSTORE PUSH1 0x40 SWAP2 DUP3 SWAP1 KECCAK256 DUP3 MLOAD DUP1 DUP5 ADD SWAP1 SWAP4 MSTORE DUP1 SLOAD DUP1 DUP5 MSTORE PUSH1 0x1 SWAP1 SWAP2 ADD SLOAD PUSH1 0xFF AND SWAP2 DUP4 ADD SWAP2 SWAP1 SWAP2 MSTORE DUP4 SWAP1 DUP3 SWAP1 PUSH2 0x26D0 SWAP1 DUP4 SWAP1 PUSH2 0x53B4 JUMP JUMPDEST SWAP1 MSTORE POP PUSH1 0xFF DUP3 DUP2 AND PUSH1 0x20 DUP4 DUP2 ADD DUP3 DUP2 MSTORE PUSH0 DUP9 DUP2 MSTORE PUSH1 0x19 DUP4 MSTORE PUSH1 0x40 SWAP1 DUP2 SWAP1 KECCAK256 DUP7 MLOAD DUP2 SSTORE SWAP2 MLOAD PUSH1 0x1 SWAP1 SWAP3 ADD DUP1 SLOAD PUSH1 0xFF NOT AND SWAP3 SWAP1 SWAP6 AND SWAP2 SWAP1 SWAP2 OR SWAP1 SWAP4 SSTORE DUP3 MLOAD DUP8 DUP2 MSTORE SWAP1 DUP2 ADD DUP7 SWAP1 MSTORE SWAP2 DUP3 ADD MSTORE PUSH32 0x129E06F7590300E51F74F004B0BE10636D8D775EC7419A82351AB9D6D46FA7A5 SWAP1 PUSH1 0x60 ADD PUSH1 0x40 MLOAD DUP1 SWAP2 SUB SWAP1 LOG1 POP POP POP POP JUMP JUMPDEST DUP5 MLOAD DUP5 MLOAD DUP2 EQ ISZERO DUP1 PUSH2 0x275F JUMPI POP DUP4 MLOAD DUP2 EQ ISZERO JUMPDEST DUP1 PUSH2 0x276B JUMPI POP DUP3 MLOAD DUP2 EQ ISZERO JUMPDEST DUP1 PUSH2 0x2777 JUMPI POP DUP2 MLOAD DUP2 EQ ISZERO JUMPDEST ISZERO PUSH2 0x2795 JUMPI PUSH1 0x40 MLOAD PUSH4 0x93A83119 PUSH1 0xE0 SHL DUP2 MSTORE PUSH1 0x4 ADD PUSH1 0x40 MLOAD DUP1 SWAP2 SUB SWAP1 REVERT JUMPDEST PUSH0 JUMPDEST DUP2 DUP2 LT ISZERO PUSH2 0x2831 JUMPI PUSH2 0x2829 DUP8 DUP3 DUP2 MLOAD DUP2 LT PUSH2 0x27B4 JUMPI PUSH2 0x27B4 PUSH2 0x542A JUMP JUMPDEST PUSH1 0x20 MUL PUSH1 0x20 ADD ADD MLOAD DUP8 DUP4 DUP2 MLOAD DUP2 LT PUSH2 0x27CE JUMPI PUSH2 0x27CE PUSH2 0x542A JUMP JUMPDEST PUSH1 0x20 MUL PUSH1 0x20 ADD ADD MLOAD DUP8 DUP5 DUP2 MLOAD DUP2 LT PUSH2 0x27E8 JUMPI PUSH2 0x27E8 PUSH2 0x542A JUMP JUMPDEST PUSH1 0x20 MUL PUSH1 0x20 ADD ADD MLOAD DUP8 DUP6 DUP2 MLOAD DUP2 LT PUSH2 0x2802 JUMPI PUSH2 0x2802 PUSH2 0x542A JUMP JUMPDEST PUSH1 0x20 MUL PUSH1 0x20 ADD ADD MLOAD DUP8 DUP7 DUP2 MLOAD DUP2 LT PUSH2 0x281C JUMPI PUSH2 0x281C PUSH2 0x542A JUMP JUMPDEST PUSH1 0x20 MUL PUSH1 0x20 ADD ADD MLOAD PUSH2 0x2397 JUMP JUMPDEST PUSH1 0x1 ADD PUSH2 0x2797 JUMP JUMPDEST POP POP POP POP POP POP POP JUMP JUMPDEST PUSH2 0x2842 PUSH2 0x3AD9 JUMP JUMPDEST CALLVALUE ISZERO PUSH2 0x2861 JUMPI PUSH1 0x40 MLOAD PUSH4 0xF36BA737 PUSH1 0xE0 SHL DUP2 MSTORE PUSH1 0x4 ADD PUSH1 0x40 MLOAD DUP1 SWAP2 SUB SWAP1 REVERT JUMPDEST PUSH2 0x286B DUP3 DUP3 PUSH2 0x405E JUMP JUMPDEST POP POP JUMP JUMPDEST PUSH2 0x2877 PUSH2 0x3AD9 JUMP JUMPDEST PUSH1 0x40 MLOAD PUSH4 0x3B06CDDD PUSH1 0xE1 SHL DUP2 MSTORE PUSH1 0x1 PUSH1 0x1 PUSH1 0xA0 SHL SUB DUP7 AND SWAP1 PUSH4 0x760D9BBA SWAP1 PUSH2 0x28AB SWAP1 ADDRESS SWAP1 DUP9 SWAP1 DUP9 SWAP1 DUP9 SWAP1 DUP9 SWAP1 PUSH1 0x4 ADD PUSH2 0x5560 JUMP JUMPDEST PUSH0 PUSH1 0x40 MLOAD DUP1 DUP4 SUB DUP2 PUSH0 DUP8 DUP1 EXTCODESIZE ISZERO DUP1 ISZERO PUSH2 0x28C2 JUMPI PUSH0 PUSH0 REVERT JUMPDEST POP GAS CALL ISZERO DUP1 ISZERO PUSH2 0x28D4 JUMPI RETURNDATASIZE PUSH0 PUSH0 RETURNDATACOPY RETURNDATASIZE PUSH0 REVERT JUMPDEST POP POP POP POP POP POP POP POP POP JUMP JUMPDEST PUSH2 0x28E7 PUSH2 0x3AD9 JUMP JUMPDEST PUSH1 0x15 SLOAD PUSH1 0xFF AND ISZERO PUSH2 0x2930 JUMPI PUSH1 0x40 MLOAD PUSH3 0x461BCD PUSH1 0xE5 SHL DUP2 MSTORE PUSH1 0x20 PUSH1 0x4 DUP3 ADD MSTORE PUSH1 0x13 PUSH1 0x24 DUP3 ADD MSTORE PUSH19 0x105B1C9958591E481A5B9A5D1A585B1A5E9959 PUSH1 0x6A SHL PUSH1 0x44 DUP3 ADD MSTORE PUSH1 0x64 ADD PUSH2 0x3F2 JUMP JUMPDEST PUSH1 0x40 DUP1 MLOAD PUSH1 0xC0 DUP2 ADD DUP3 MSTORE PUSH1 0x4 PUSH1 0x80 DUP3 ADD SWAP1 DUP2 MSTORE PUSH4 0x72617265 PUSH1 0xE0 SHL PUSH1 0xA0 DUP4 ADD MSTORE DUP2 MSTORE PUSH1 0x2 PUSH1 0x20 DUP1 DUP4 ADD SWAP2 SWAP1 SWAP2 MSTORE PUSH10 0x152D02C7E14AF6800000 DUP3 DUP5 ADD MSTORE PUSH1 0x9 SLOAD PUSH1 0x1 PUSH1 0x1 PUSH1 0xA0 SHL SUB AND PUSH1 0x60 DUP4 ADD MSTORE DUP3 MLOAD DUP1 DUP5 ADD SWAP1 SWAP4 MSTORE PUSH1 0x6 DUP4 MSTORE PUSH6 0x706861736531 PUSH1 0xD0 SHL SWAP3 DUP2 ADD SWAP3 SWAP1 SWAP3 MSTORE PUSH32 0xC24CB111102D5AFFF3E7E3D2A419E43BFCFBD1644E722D97AE1DDE43689C692E PUSH0 MSTORE PUSH1 0x17 SWAP1 SWAP2 MSTORE DUP1 MLOAD PUSH32 0xA9AA1E8A189607E91597E27491857FBFC907EC595F9D9290325545157E276158 SWAP1 DUP2 SWAP1 PUSH2 0x29F2 SWAP1 DUP3 PUSH2 0x55DE JUMP JUMPDEST POP PUSH1 0x20 DUP3 DUP2 ADD MLOAD PUSH1 0x1 DUP4 ADD SSTORE PUSH1 0x40 DUP1 DUP5 ADD MLOAD PUSH1 0x2 DUP1 DUP6 ADD SWAP2 SWAP1 SWAP2 SSTORE PUSH1 0x60 SWAP5 DUP6 ADD MLOAD PUSH1 0x3 SWAP1 SWAP5 ADD DUP1 SLOAD PUSH1 0x1 PUSH1 0x1 PUSH1 0xA0 SHL SUB NOT AND PUSH1 0x1 PUSH1 0x1 PUSH1 0xA0 SHL SUB SWAP6 DUP7 AND OR SWAP1 SSTORE DUP2 MLOAD PUSH1 0xC0 DUP2 ADD DUP4 MSTORE PUSH1 0x4 PUSH1 0x80 DUP3 ADD SWAP1 DUP2 MSTORE PUSH4 0x72617265 PUSH1 0xE0 SHL PUSH1 0xA0 DUP4 ADD MSTORE DUP2 MSTORE DUP1 DUP5 ADD SWAP2 SWAP1 SWAP2 MSTORE PUSH10 0x152D02C7E14AF6800000 DUP2 DUP4 ADD MSTORE PUSH1 0x9 SLOAD SWAP1 SWAP4 AND SWAP4 DUP4 ADD SWAP4 SWAP1 SWAP4 MSTORE DUP3 MLOAD DUP1 DUP5 ADD SWAP1 SWAP4 MSTORE PUSH1 0x6 DUP4 MSTORE PUSH6 0x383430B9B299 PUSH1 0xD1 SHL SWAP3 DUP2 ADD SWAP3 SWAP1 SWAP3 MSTORE PUSH32 0x31FF0D7509B9E31B70C2F6675EFCB36969AE2D4720759268C27A3C2D51C51BB8 PUSH0 MSTORE PUSH1 0x17 SWAP1 SWAP2 MSTORE DUP1 MLOAD PUSH32 0x2AAA4E2F7466E5EF9C5D95BFF4CB034A4C3D8B4E1E74B3E9921B58EEF6ACFA3C SWAP1 DUP2 SWAP1 PUSH2 0x2AEA SWAP1 DUP3 PUSH2 0x55DE JUMP JUMPDEST POP PUSH1 0x20 DUP3 DUP2 ADD MLOAD PUSH1 0x1 DUP4 ADD SSTORE PUSH1 0x40 DUP1 DUP5 ADD MLOAD PUSH1 0x2 DUP5 ADD SSTORE PUSH1 0x60 SWAP4 DUP5 ADD MLOAD PUSH1 0x3 SWAP1 SWAP4 ADD DUP1 SLOAD PUSH1 0x1 PUSH1 0x1 PUSH1 0xA0 SHL SUB NOT AND PUSH1 0x1 PUSH1 0x1 PUSH1 0xA0 SHL SUB SWAP1 SWAP5 AND SWAP4 SWAP1 SWAP4 OR SWAP1 SWAP3 SSTORE DUP2 MLOAD PUSH1 0xC0 DUP2 ADD DUP4 MSTORE PUSH1 0x6 PUSH1 0x80 DUP3 ADD DUP2 DUP2 MSTORE PUSH6 0x1B9BDC9B585B PUSH1 0xD2 SHL PUSH1 0xA0 DUP5 ADD MSTORE DUP3 MSTORE PUSH1 0x64 DUP3 DUP5 ADD MSTORE PUSH8 0x6F05B59D3B200000 DUP3 DUP6 ADD MSTORE PUSH0 SWAP5 DUP3 ADD DUP6 SWAP1 MSTORE DUP4 MLOAD DUP1 DUP6 ADD SWAP1 SWAP5 MSTORE DUP4 MSTORE PUSH6 0x706861736533 PUSH1 0xD0 SHL SWAP3 DUP3 ADD SWAP3 SWAP1 SWAP3 MSTORE PUSH32 0x937E1D94BC55FFEC9829015291A63BD3E70285CCC44E824A2122A581CECDCF1B SWAP1 SWAP3 MSTORE PUSH1 0x17 SWAP1 SWAP2 MSTORE DUP1 MLOAD PUSH32 0xA47A4634DE08D2D08FB56B3D6C50D18CFD4F4BFB89127F63AF8C8B5A73669892 SWAP1 DUP2 SWAP1 PUSH2 0x2BDA SWAP1 DUP3 PUSH2 0x55DE JUMP JUMPDEST POP PUSH1 0x20 DUP3 DUP2 ADD MLOAD PUSH1 0x1 DUP4 ADD SSTORE PUSH1 0x40 DUP1 DUP5 ADD MLOAD PUSH1 0x2 DUP5 ADD SSTORE PUSH1 0x60 SWAP4 DUP5 ADD MLOAD PUSH1 0x3 SWAP1 SWAP4 ADD DUP1 SLOAD PUSH1 0x1 PUSH1 0x1 PUSH1 0xA0 SHL SUB NOT AND PUSH1 0x1 PUSH1 0x1 PUSH1 0xA0 SHL SUB SWAP1 SWAP5 AND SWAP4 SWAP1 SWAP4 OR SWAP1 SWAP3 SSTORE DUP2 MLOAD PUSH1 0xC0 DUP2 ADD DUP4 MSTORE PUSH1 0x6 PUSH1 0x80 DUP3 ADD DUP2 DUP2 MSTORE PUSH6 0x1B9BDC9B585B PUSH1 0xD2 SHL PUSH1 0xA0 DUP5 ADD MSTORE DUP3 MSTORE PUSH2 0x3E8 DUP3 DUP5 ADD MSTORE PUSH8 0x8AC7230489E80000 DUP3 DUP6 ADD MSTORE PUSH0 SWAP5 DUP3 ADD DUP6 SWAP1 MSTORE DUP4 MLOAD DUP1 DUP6 ADD SWAP1 SWAP5 MSTORE DUP4 MSTORE PUSH6 0x1C1A185CD94D PUSH1 0xD2 SHL SWAP3 DUP3 ADD SWAP3 SWAP1 SWAP3 MSTORE PUSH32 0x4F02FF418B3AD3258827773457B6F51BF42CA59A1EDA9CAB03E6762A5C0CB47B SWAP1 SWAP3 MSTORE PUSH1 0x17 SWAP1 SWAP2 MSTORE DUP1 MLOAD PUSH32 0x814FCFF2C1C99D07F608F518B5C99B7A7D8D558A375C21C8A44B26E7FB5322AD SWAP1 DUP2 SWAP1 PUSH2 0x2CCB SWAP1 DUP3 PUSH2 0x55DE JUMP JUMPDEST POP PUSH1 0x20 DUP3 DUP2 ADD MLOAD PUSH1 0x1 DUP4 DUP2 ADD SWAP2 SWAP1 SWAP2 SSTORE PUSH1 0x40 DUP1 DUP6 ADD MLOAD PUSH1 0x2 DUP6 ADD SSTORE PUSH1 0x60 SWAP1 SWAP5 ADD MLOAD PUSH1 0x3 SWAP1 SWAP4 ADD DUP1 SLOAD PUSH1 0x1 PUSH1 0x1 PUSH1 0xA0 SHL SUB NOT AND PUSH1 0x1 PUSH1 0x1 PUSH1 0xA0 SHL SUB SWAP1 SWAP5 AND SWAP4 SWAP1 SWAP4 OR SWAP1 SWAP3 SSTORE DUP3 MLOAD DUP1 DUP5 ADD SWAP1 SWAP4 MSTORE PUSH1 0x6 DUP4 MSTORE PUSH6 0x706861736531 PUSH1 0xD0 SHL SWAP3 DUP2 ADD SWAP3 SWAP1 SWAP3 MSTORE PUSH32 0xC24CB111102D5AFFF3E7E3D2A419E43BFCFBD1644E722D97AE1DDE43689C692E PUSH1 0x14 SSTORE PUSH1 0x1A SWAP1 SWAP2 MSTORE PUSH9 0x6C6B935B8BBD400000 PUSH32 0xF88CD8D612926EBB404E40725C01084B6E9B3CE0344CDE068570342CBD448C61 SSTORE PUSH9 0x878678326EAC900000 PUSH32 0x4C287B3E2C2CB129AE3BA596D613D760B15AFFDAC7242E12903C37A886EA1C4F SSTORE PUSH9 0xBDBC41E0348B300000 PUSH32 0x4AC83FCA211703E3DDB90093CD219714E5E3715BF0B4FD15B0441390534A24E2 SSTORE PUSH9 0xD8D726B7177A800000 PUSH32 0x6B28F262AD931A15C9E47271FC159A891B2BCB0DA2659CAC5BBFED4886CF26E SSTORE PUSH10 0x10F0CF064DD59200000 PUSH32 0x82F07EDC09F3A46C1925D02252613A7FCC7BE7D03B538B0C268DF85F2F13A7AB DUP2 SWAP1 SSTORE PUSH32 0xE7513FCD4F864B78BAF560F46C15980B6AA41B90911EFC4CE7454B83CCE613B1 SSTORE PUSH10 0x54B40B1F852BDA00000 PUSH32 0x2247382ACC746A936C6B9B694445E53B16CCCE9EBAA44DD1CE1D5F0641B0797B DUP2 SWAP1 SSTORE PUSH32 0x687151C9C7964C905D515053234445B7256D6EB52F0F0FB698AC00A08A410ABF SSTORE PUSH10 0xA968163F0A57B400000 PUSH32 0x3A9DCD6F76534B067931C1CC4A24CB9C117C7D95C716BCE6D59BB4825BC67133 SSTORE PUSH1 0xA PUSH0 MSTORE PUSH10 0x152D02C7E14AF6800000 PUSH32 0xDBE7FF1220189DE7E6173DA9D377E212C5F94FD76A3505F188B6C362D3973D9D SSTORE PUSH1 0x15 DUP1 SLOAD PUSH1 0xFF NOT AND SWAP1 SWAP2 OR SWAP1 SSTORE JUMP JUMPDEST PUSH2 0x2F1C PUSH2 0x3AD9 JUMP JUMPDEST SELFBALANCE DUP1 PUSH2 0x2F57 JUMPI PUSH1 0x40 MLOAD PUSH3 0x461BCD PUSH1 0xE5 SHL DUP2 MSTORE PUSH1 0x20 PUSH1 0x4 DUP3 ADD MSTORE PUSH1 0xA PUSH1 0x24 DUP3 ADD MSTORE PUSH10 0x4E6F2062616C616E6365 PUSH1 0xB0 SHL PUSH1 0x44 DUP3 ADD MSTORE PUSH1 0x64 ADD PUSH2 0x3F2 JUMP JUMPDEST PUSH0 DUP1 SLOAD PUSH1 0x40 MLOAD PUSH1 0x1 PUSH1 0x1 PUSH1 0xA0 SHL SUB SWAP1 SWAP2 AND SWAP1 DUP4 SWAP1 DUP4 DUP2 DUP2 DUP2 DUP6 DUP8 GAS CALL SWAP3 POP POP POP RETURNDATASIZE DUP1 PUSH0 DUP2 EQ PUSH2 0x2FA1 JUMPI PUSH1 0x40 MLOAD SWAP2 POP PUSH1 0x1F NOT PUSH1 0x3F RETURNDATASIZE ADD AND DUP3 ADD PUSH1 0x40 MSTORE RETURNDATASIZE DUP3 MSTORE RETURNDATASIZE PUSH0 PUSH1 0x20 DUP5 ADD RETURNDATACOPY PUSH2 0x2FA6 JUMP JUMPDEST PUSH1 0x60 SWAP2 POP JUMPDEST POP POP SWAP1 POP DUP1 PUSH2 0x2FE0 JUMPI PUSH1 0x40 MLOAD PUSH3 0x461BCD PUSH1 0xE5 SHL DUP2 MSTORE PUSH1 0x20 PUSH1 0x4 DUP3 ADD MSTORE PUSH1 0x6 PUSH1 0x24 DUP3 ADD MSTORE PUSH6 0x11985A5B1959 PUSH1 0xD2 SHL PUSH1 0x44 DUP3 ADD MSTORE PUSH1 0x64 ADD PUSH2 0x3F2 JUMP JUMPDEST PUSH0 SLOAD PUSH1 0x40 DUP1 MLOAD DUP5 DUP2 MSTORE TIMESTAMP PUSH1 0x20 DUP3 ADD MSTORE PUSH1 0x1 PUSH1 0x1 PUSH1 0xA0 SHL SUB SWAP1 SWAP3 AND SWAP2 PUSH32 0xDF273CB619D95419A9CD0EC88123A0538C85064229BAA6363788F743FFF90DEB SWAP2 ADD JUMPDEST PUSH1 0x40 MLOAD DUP1 SWAP2 SUB SWAP1 LOG2 POP POP JUMP JUMPDEST PUSH0 PUSH2 0x3035 DUP4 PUSH2 0x1BB6 JUMP JUMPDEST SWAP1 POP PUSH1 0x1 PUSH1 0x1 PUSH1 0xA0 SHL SUB DUP2 AND CALLER EQ PUSH2 0x3078 JUMPI PUSH1 0x40 MLOAD PUSH4 0x2D938F51 PUSH1 0xE1 SHL DUP2 MSTORE PUSH1 0x1 PUSH1 0x1 PUSH1 0xA0 SHL SUB DUP3 AND PUSH1 0x4 DUP3 ADD MSTORE PUSH1 0x24 DUP2 ADD DUP5 SWAP1 MSTORE CALLER PUSH1 0x44 DUP3 ADD MSTORE PUSH1 0x64 ADD PUSH2 0x3F2 JUMP JUMPDEST PUSH1 0x1 PUSH1 0x1 PUSH1 0xA0 SHL SUB DUP5 AND PUSH2 0x309F JUMPI PUSH1 0x40 MLOAD PUSH4 0x9577B8B3 PUSH1 0xE0 SHL DUP2 MSTORE PUSH1 0x4 ADD PUSH1 0x40 MLOAD DUP1 SWAP2 SUB SWAP1 REVERT JUMPDEST DUP4 PUSH1 0x1 PUSH1 0x1 PUSH1 0xA0 SHL SUB AND DUP2 PUSH1 0x1 PUSH1 0x1 PUSH1 0xA0 SHL SUB AND SUB PUSH2 0x30D1 JUMPI PUSH1 0x40 MLOAD PUSH4 0x44FED6B1 PUSH1 0xE1 SHL DUP2 MSTORE PUSH1 0x4 ADD PUSH1 0x40 MLOAD DUP1 SWAP2 SUB SWAP1 REVERT JUMPDEST PUSH0 DUP4 DUP2 MSTORE PUSH1 0x5 PUSH1 0x20 MSTORE PUSH1 0x40 DUP2 KECCAK256 PUSH2 0x30E8 SWAP1 DUP7 PUSH2 0x40A8 JUMP JUMPDEST SWAP1 POP DUP1 PUSH2 0x311A JUMPI PUSH1 0x40 MLOAD PUSH4 0x14EC4D6D PUSH1 0xE3 SHL DUP2 MSTORE PUSH1 0x1 PUSH1 0x1 PUSH1 0xA0 SHL SUB DUP7 AND PUSH1 0x4 DUP3 ADD MSTORE PUSH1 0x24 DUP2 ADD DUP6 SWAP1 MSTORE PUSH1 0x44 ADD PUSH2 0x3F2 JUMP JUMPDEST DUP4 DUP3 PUSH1 0x1 PUSH1 0x1 PUSH1 0xA0 SHL SUB AND DUP7 PUSH1 0x1 PUSH1 0x1 PUSH1 0xA0 SHL SUB AND PUSH32 0x1B1B58AA2EC0CEC2228B2D37124556D41F5A1F7B12F089171F896CC236671215 DUP7 PUSH1 0x40 MLOAD PUSH2 0x315E SWAP2 SWAP1 PUSH2 0x48E2 JUMP JUMPDEST PUSH1 0x40 MLOAD DUP1 SWAP2 SUB SWAP1 LOG4 PUSH0 CALLER DUP6 PUSH1 0x1 DUP7 PUSH1 0x40 MLOAD PUSH1 0x20 ADD PUSH2 0x317F SWAP5 SWAP4 SWAP3 SWAP2 SWAP1 PUSH2 0x5698 JUMP JUMPDEST PUSH1 0x40 MLOAD PUSH1 0x20 DUP2 DUP4 SUB SUB DUP2 MSTORE SWAP1 PUSH1 0x40 MSTORE SWAP1 POP PUSH2 0x319A DUP7 DUP3 PUSH2 0x40BC JUMP JUMPDEST POP POP POP POP POP POP JUMP JUMPDEST PUSH2 0x31AA PUSH2 0x3AD9 JUMP JUMPDEST PUSH1 0x16 DUP2 SWAP1 SSTORE PUSH1 0x40 MLOAD DUP2 DUP2 MSTORE PUSH32 0x816103AAC16CACFE1EBFFCBCAB87297D7AAD12D1AF1046D79A83AD3CC2607A52 SWAP1 PUSH1 0x20 ADD PUSH1 0x40 MLOAD DUP1 SWAP2 SUB SWAP1 LOG1 POP JUMP JUMPDEST PUSH2 0x31ED PUSH2 0x3AD9 JUMP JUMPDEST CALLVALUE ISZERO PUSH2 0x320C JUMPI PUSH1 0x40 MLOAD PUSH4 0xF36BA737 PUSH1 0xE0 SHL DUP2 MSTORE PUSH1 0x4 ADD PUSH1 0x40 MLOAD DUP1 SWAP2 SUB SWAP1 REVERT JUMPDEST DUP1 MLOAD DUP3 MLOAD EQ PUSH2 0x322E JUMPI PUSH1 0x40 MLOAD PUSH4 0x3BCC8979 PUSH1 0xE0 SHL DUP2 MSTORE PUSH1 0x4 ADD PUSH1 0x40 MLOAD DUP1 SWAP2 SUB SWAP1 REVERT JUMPDEST DUP2 MLOAD PUSH0 SUB PUSH2 0x324F JUMPI PUSH1 0x40 MLOAD PUSH4 0x97DA5F95 PUSH1 0xE0 SHL DUP2 MSTORE PUSH1 0x4 ADD PUSH1 0x40 MLOAD DUP1 SWAP2 SUB SWAP1 REVERT JUMPDEST PUSH0 JUMPDEST DUP3 MLOAD DUP2 LT ISZERO PUSH2 0x329E JUMPI PUSH2 0x3296 DUP4 DUP3 DUP2 MLOAD DUP2 LT PUSH2 0x326F JUMPI PUSH2 0x326F PUSH2 0x542A JUMP JUMPDEST PUSH1 0x20 MUL PUSH1 0x20 ADD ADD MLOAD DUP4 DUP4 DUP2 MLOAD DUP2 LT PUSH2 0x3289 JUMPI PUSH2 0x3289 PUSH2 0x542A JUMP JUMPDEST PUSH1 0x20 MUL PUSH1 0x20 ADD ADD MLOAD PUSH2 0x405E JUMP JUMPDEST PUSH1 0x1 ADD PUSH2 0x3251 JUMP JUMPDEST POP POP POP JUMP JUMPDEST PUSH1 0x1 PUSH1 0x1 PUSH1 0xA0 SHL SUB DUP2 AND PUSH0 SWAP1 DUP2 MSTORE PUSH1 0x4 PUSH1 0x20 MSTORE PUSH1 0x40 SWAP1 KECCAK256 PUSH1 0x60 SWAP1 PUSH2 0xD5C SWAP1 PUSH2 0x3D63 JUMP JUMPDEST PUSH2 0x32CE PUSH2 0x3AD9 JUMP JUMPDEST PUSH2 0x2689 PUSH2 0x40E7 JUMP JUMPDEST PUSH2 0x32DE PUSH2 0x3AD9 JUMP JUMPDEST DUP2 MLOAD DUP4 MLOAD EQ ISZERO DUP1 PUSH2 0x32F1 JUMPI POP DUP1 MLOAD DUP3 MLOAD EQ ISZERO JUMPDEST ISZERO PUSH2 0x330F JUMPI PUSH1 0x40 MLOAD PUSH4 0x17D38EFF PUSH1 0xE1 SHL DUP2 MSTORE PUSH1 0x4 ADD PUSH1 0x40 MLOAD DUP1 SWAP2 SUB SWAP1 REVERT JUMPDEST DUP3 MLOAD PUSH0 SUB PUSH2 0x3330 JUMPI PUSH1 0x40 MLOAD PUSH4 0x80C98305 PUSH1 0xE0 SHL DUP2 MSTORE PUSH1 0x4 ADD PUSH1 0x40 MLOAD DUP1 SWAP2 SUB SWAP1 REVERT JUMPDEST PUSH0 JUMPDEST DUP4 MLOAD DUP2 LT ISZERO PUSH2 0x3399 JUMPI PUSH2 0x3391 DUP5 DUP3 DUP2 MLOAD DUP2 LT PUSH2 0x3350 JUMPI PUSH2 0x3350 PUSH2 0x542A JUMP JUMPDEST PUSH1 0x20 MUL PUSH1 0x20 ADD ADD MLOAD DUP5 DUP4 DUP2 MLOAD DUP2 LT PUSH2 0x336A JUMPI PUSH2 0x336A PUSH2 0x542A JUMP JUMPDEST PUSH1 0x20 MUL PUSH1 0x20 ADD ADD MLOAD DUP5 DUP5 DUP2 MLOAD DUP2 LT PUSH2 0x3384 JUMPI PUSH2 0x3384 PUSH2 0x542A JUMP JUMPDEST PUSH1 0x20 MUL PUSH1 0x20 ADD ADD MLOAD PUSH2 0x3B14 JUMP JUMPDEST PUSH1 0x1 ADD PUSH2 0x3332 JUMP JUMPDEST POP POP POP POP JUMP JUMPDEST PUSH2 0x33A7 PUSH2 0x3AD9 JUMP JUMPDEST PUSH2 0x329E DUP4 DUP4 DUP4 PUSH2 0x3B14 JUMP JUMPDEST PUSH2 0x33BA PUSH2 0x3AD9 JUMP JUMPDEST PUSH1 0x40 DUP1 MLOAD PUSH1 0x80 DUP2 ADD DUP3 MSTORE DUP6 DUP2 MSTORE PUSH1 0x20 DUP1 DUP3 ADD DUP7 SWAP1 MSTORE DUP2 DUP4 ADD DUP6 SWAP1 MSTORE PUSH1 0x1 PUSH1 0x1 PUSH1 0xA0 SHL SUB DUP5 AND PUSH1 0x60 DUP4 ADD MSTORE PUSH0 DUP9 DUP2 MSTORE PUSH1 0x17 SWAP1 SWAP2 MSTORE SWAP2 SWAP1 SWAP2 KECCAK256 DUP2 MLOAD DUP2 SWAP1 PUSH2 0x33FF SWAP1 DUP3 PUSH2 0x55DE JUMP JUMPDEST POP PUSH1 0x20 DUP3 ADD MLOAD PUSH1 0x1 DUP3 ADD SSTORE PUSH1 0x40 DUP1 DUP4 ADD MLOAD PUSH1 0x2 DUP4 ADD SSTORE PUSH1 0x60 SWAP1 SWAP3 ADD MLOAD PUSH1 0x3 SWAP1 SWAP2 ADD DUP1 SLOAD PUSH1 0x1 PUSH1 0x1 PUSH1 0xA0 SHL SUB NOT AND PUSH1 0x1 PUSH1 0x1 PUSH1 0xA0 SHL SUB SWAP1 SWAP3 AND SWAP2 SWAP1 SWAP2 OR SWAP1 SSTORE MLOAD DUP6 SWAP1 PUSH32 0x77C929EB8D84E64BD596235F9C891FDD7BFDAB5C78B3E9FFE8AB7D933B5815FB SWAP1 PUSH2 0x3473 SWAP1 DUP8 SWAP1 DUP8 SWAP1 DUP8 SWAP1 DUP8 SWAP1 PUSH2 0x522F JUMP JUMPDEST PUSH1 0x40 MLOAD DUP1 SWAP2 SUB SWAP1 LOG2 POP POP POP POP POP JUMP JUMPDEST PUSH2 0x348A PUSH2 0x3AD9 JUMP JUMPDEST PUSH2 0x2689 PUSH2 0x4139 JUMP JUMPDEST PUSH1 0x17 PUSH1 0x20 MSTORE PUSH0 SWAP1 DUP2 MSTORE PUSH1 0x40 SWAP1 KECCAK256 DUP1 SLOAD DUP2 SWAP1 PUSH2 0x34AC SWAP1 PUSH2 0x5457 JUMP JUMPDEST DUP1 PUSH1 0x1F ADD PUSH1 0x20 DUP1 SWAP2 DIV MUL PUSH1 0x20 ADD PUSH1 0x40 MLOAD SWAP1 DUP2 ADD PUSH1 0x40 MSTORE DUP1 SWAP3 SWAP2 SWAP1 DUP2 DUP2 MSTORE PUSH1 0x20 ADD DUP3 DUP1 SLOAD PUSH2 0x34D8 SWAP1 PUSH2 0x5457 JUMP JUMPDEST DUP1 ISZERO PUSH2 0x3523 JUMPI DUP1 PUSH1 0x1F LT PUSH2 0x34FA JUMPI PUSH2 0x100 DUP1 DUP4 SLOAD DIV MUL DUP4 MSTORE SWAP2 PUSH1 0x20 ADD SWAP2 PUSH2 0x3523 JUMP JUMPDEST DUP3 ADD SWAP2 SWAP1 PUSH0 MSTORE PUSH1 0x20 PUSH0 KECCAK256 SWAP1 JUMPDEST DUP2 SLOAD DUP2 MSTORE SWAP1 PUSH1 0x1 ADD SWAP1 PUSH1 0x20 ADD DUP1 DUP4 GT PUSH2 0x3506 JUMPI DUP3 SWAP1 SUB PUSH1 0x1F AND DUP3 ADD SWAP2 JUMPDEST POP POP POP POP PUSH1 0x1 DUP4 ADD SLOAD PUSH1 0x2 DUP5 ADD SLOAD PUSH1 0x3 SWAP1 SWAP5 ADD SLOAD SWAP3 SWAP4 SWAP1 SWAP3 SWAP1 SWAP2 POP PUSH1 0x1 PUSH1 0x1 PUSH1 0xA0 SHL SUB AND DUP5 JUMP JUMPDEST PUSH0 PUSH2 0x3554 DUP5 PUSH2 0x1BB6 JUMP JUMPDEST SWAP1 POP CALLER PUSH1 0x1 PUSH1 0x1 PUSH1 0xA0 SHL SUB DUP3 AND EQ PUSH2 0x35A7 JUMPI PUSH1 0x1 PUSH1 0x1 PUSH1 0xA0 SHL SUB DUP6 AND CALLER EQ PUSH2 0x35A7 JUMPI PUSH1 0x40 MLOAD PUSH4 0x760B5ACD PUSH1 0xE0 SHL DUP2 MSTORE CALLER PUSH1 0x4 DUP3 ADD MSTORE PUSH1 0x1 PUSH1 0x1 PUSH1 0xA0 SHL SUB DUP3 AND PUSH1 0x24 DUP3 ADD MSTORE PUSH1 0x44 DUP2 ADD DUP6 SWAP1 MSTORE PUSH1 0x64 ADD PUSH2 0x3F2 JUMP JUMPDEST PUSH1 0x1 PUSH1 0x1 PUSH1 0xA0 SHL SUB DUP6 AND PUSH2 0x35CE JUMPI PUSH1 0x40 MLOAD PUSH4 0x9577B8B3 PUSH1 0xE0 SHL DUP2 MSTORE PUSH1 0x4 ADD PUSH1 0x40 MLOAD DUP1 SWAP2 SUB SWAP1 REVERT JUMPDEST DUP5 PUSH1 0x1 PUSH1 0x1 PUSH1 0xA0 SHL SUB AND DUP2 PUSH1 0x1 PUSH1 0x1 PUSH1 0xA0 SHL SUB AND SUB PUSH2 0x3600 JUMPI PUSH1 0x40 MLOAD PUSH4 0x44FED6B1 PUSH1 0xE1 SHL DUP2 MSTORE PUSH1 0x4 ADD PUSH1 0x40 MLOAD DUP1 SWAP2 SUB SWAP1 REVERT JUMPDEST PUSH2 0x360D DUP6 DUP3 DUP7 DUP7 DUP7 PUSH2 0x4176 JUMP JUMPDEST DUP3 ISZERO PUSH2 0x23D4 JUMPI PUSH0 DUP2 DUP6 PUSH0 DUP6 PUSH1 0x40 MLOAD PUSH1 0x20 ADD PUSH2 0x317F SWAP5 SWAP4 SWAP3 SWAP2 SWAP1 PUSH2 0x5698 JUMP JUMPDEST PUSH1 0x60 DUP2 MLOAD PUSH1 0x1 PUSH1 0x1 PUSH1 0x40 SHL SUB DUP2 GT ISZERO PUSH2 0x3646 JUMPI PUSH2 0x3646 PUSH2 0x48F4 JUMP JUMPDEST PUSH1 0x40 MLOAD SWAP1 DUP1 DUP3 MSTORE DUP1 PUSH1 0x20 MUL PUSH1 0x20 ADD DUP3 ADD PUSH1 0x40 MSTORE DUP1 ISZERO PUSH2 0x3679 JUMPI DUP2 PUSH1 0x20 ADD JUMPDEST PUSH1 0x60 DUP2 MSTORE PUSH1 0x20 ADD SWAP1 PUSH1 0x1 SWAP1 SUB SWAP1 DUP2 PUSH2 0x3664 JUMPI SWAP1 POP JUMPDEST POP SWAP1 POP PUSH0 JUMPDEST DUP3 MLOAD DUP2 LT ISZERO PUSH2 0x36CE JUMPI PUSH2 0x36A9 DUP4 DUP3 DUP2 MLOAD DUP2 LT PUSH2 0x369C JUMPI PUSH2 0x369C PUSH2 0x542A JUMP JUMPDEST PUSH1 0x20 MUL PUSH1 0x20 ADD ADD MLOAD PUSH2 0x3F4B JUMP JUMPDEST DUP3 DUP3 DUP2 MLOAD DUP2 LT PUSH2 0x36BB JUMPI PUSH2 0x36BB PUSH2 0x542A JUMP JUMPDEST PUSH1 0x20 SWAP1 DUP2 MUL SWAP2 SWAP1 SWAP2 ADD ADD MSTORE PUSH1 0x1 ADD PUSH2 0x367E JUMP JUMPDEST POP SWAP2 SWAP1 POP JUMP JUMPDEST PUSH2 0x36DC PUSH2 0x3AD9 JUMP JUMPDEST PUSH0 JUMPDEST DUP3 MLOAD DUP2 LT ISZERO PUSH2 0x329E JUMPI PUSH0 DUP4 DUP3 DUP2 MLOAD DUP2 LT PUSH2 0x36FA JUMPI PUSH2 0x36FA PUSH2 0x542A JUMP JUMPDEST PUSH1 0x20 SWAP1 DUP2 MUL SWAP2 SWAP1 SWAP2 ADD ADD MLOAD SWAP1 POP DUP3 PUSH1 0x1 PUSH1 0x1 PUSH1 0xA0 SHL SUB DUP3 AND PUSH2 0x372F JUMPI PUSH1 0x40 MLOAD PUSH4 0xE6C4247B PUSH1 0xE0 SHL DUP2 MSTORE PUSH1 0x4 ADD PUSH1 0x40 MLOAD DUP1 SWAP2 SUB SWAP1 REVERT JUMPDEST PUSH1 0x1 PUSH1 0x1 PUSH1 0xA0 SHL SUB DUP3 AND PUSH0 DUP2 DUP2 MSTORE PUSH1 0x1C PUSH1 0x20 SWAP1 DUP2 MSTORE PUSH1 0x40 SWAP2 DUP3 SWAP1 KECCAK256 DUP1 SLOAD PUSH1 0xFF NOT AND PUSH1 0xFF DUP7 AND SWAP1 DUP2 OR SWAP1 SWAP2 SSTORE SWAP2 MLOAD SWAP2 DUP3 MSTORE PUSH32 0x7ED18AA59A2962897D3E7ED3DA887DFB6A03CCA6C3CFE8D74E55130F631791C8 SWAP2 ADD PUSH1 0x40 MLOAD DUP1 SWAP2 SUB SWAP1 LOG2 POP POP PUSH1 0x1 ADD PUSH2 0x36DE JUMP JUMPDEST PUSH2 0x379C PUSH2 0x3AD9 JUMP JUMPDEST PUSH1 0x1 PUSH1 0x1 PUSH1 0xA0 SHL SUB DUP2 AND PUSH2 0x37C3 JUMPI PUSH1 0x40 MLOAD PUSH4 0x6B620DB PUSH1 0xE2 SHL DUP2 MSTORE PUSH1 0x4 ADD PUSH1 0x40 MLOAD DUP1 SWAP2 SUB SWAP1 REVERT JUMPDEST PUSH2 0x37CC DUP2 PUSH2 0x3FF3 JUMP JUMPDEST POP JUMP JUMPDEST PUSH0 DUP3 DUP2 MSTORE PUSH1 0x19 PUSH1 0x20 MSTORE PUSH1 0x40 DUP2 KECCAK256 PUSH1 0x1 DUP1 DUP3 ADD SLOAD SWAP2 SWAP3 SWAP2 PUSH2 0x37F4 SWAP2 PUSH1 0xFF SWAP1 SWAP2 AND SWAP1 PUSH2 0x54C0 JUMP JUMPDEST SWAP1 POP PUSH1 0xA DUP2 PUSH1 0xFF AND GT ISZERO PUSH2 0x381B JUMPI PUSH1 0x40 MLOAD PUSH4 0x921C7D5F PUSH1 0xE0 SHL DUP2 MSTORE PUSH1 0x4 ADD PUSH1 0x40 MLOAD DUP1 SWAP2 SUB SWAP1 REVERT JUMPDEST PUSH1 0xFF DUP2 AND PUSH0 SWAP1 DUP2 MSTORE PUSH1 0x1A PUSH1 0x20 MSTORE PUSH1 0x40 SWAP1 KECCAK256 SLOAD DUP3 SLOAD DUP2 DUP1 DUP3 LT ISZERO PUSH2 0x385A JUMPI PUSH1 0x40 MLOAD PUSH4 0xDD100B93 PUSH1 0xE0 SHL DUP2 MSTORE PUSH1 0x4 DUP2 ADD SWAP3 SWAP1 SWAP3 MSTORE PUSH1 0x24 DUP3 ADD MSTORE PUSH1 0x44 ADD PUSH2 0x3F2 JUMP JUMPDEST POP POP PUSH1 0x9 SLOAD PUSH1 0x1 PUSH1 0x1 PUSH1 0xA0 SHL SUB AND PUSH4 0x760D9BBA CALLER ADDRESS DUP5 PUSH1 0x1 PUSH1 0x40 MLOAD DUP6 PUSH4 0xFFFFFFFF AND PUSH1 0xE0 SHL DUP2 MSTORE PUSH1 0x4 ADD PUSH2 0x3891 SWAP5 SWAP4 SWAP3 SWAP2 SWAP1 PUSH2 0x5489 JUMP JUMPDEST PUSH0 PUSH1 0x40 MLOAD DUP1 DUP4 SUB DUP2 PUSH0 DUP8 DUP1 EXTCODESIZE ISZERO DUP1 ISZERO PUSH2 0x38A8 JUMPI PUSH0 PUSH0 REVERT JUMPDEST POP GAS CALL ISZERO DUP1 ISZERO PUSH2 0x38BA JUMPI RETURNDATASIZE PUSH0 PUSH0 RETURNDATACOPY RETURNDATASIZE PUSH0 REVERT JUMPDEST POP POP POP POP PUSH2 0x38EB DUP6 PUSH32 0x9AFB95CACC9F95858EC44AA8C3B685511002E30AE54415823F406128B85B238E PUSH0 SHL DUP7 PUSH2 0x3B14 JUMP JUMPDEST DUP1 DUP4 PUSH0 ADD PUSH0 DUP3 DUP3 SLOAD PUSH2 0x38FD SWAP2 SWAP1 PUSH2 0x56D0 JUMP JUMPDEST SWAP1 SWAP2 SSTORE POP POP POP PUSH1 0x1 SWAP2 SWAP1 SWAP2 ADD DUP1 SLOAD PUSH1 0xFF NOT AND PUSH1 0xFF SWAP1 SWAP3 AND SWAP2 SWAP1 SWAP2 OR SWAP1 SSTORE POP POP JUMP JUMPDEST PUSH0 DUP1 DUP1 PUSH2 0x3942 PUSH10 0x6773C5A04A6D4300884B PUSH1 0xB1 SHL PUSH1 0x1 PUSH1 0x1 PUSH1 0xE0 SHL SUB NOT DUP7 AND PUSH2 0x4215 JUMP JUMPDEST SWAP1 POP PUSH0 PUSH2 0x394E DUP3 PUSH2 0x3F4B JUMP JUMPDEST SWAP1 POP DUP1 MLOAD PUSH1 0x14 EQ ISZERO DUP1 ISZERO PUSH2 0x3962 JUMPI POP DUP1 MLOAD ISZERO ISZERO JUMPDEST ISZERO PUSH2 0x3982 JUMPI DUP1 PUSH1 0x40 MLOAD PUSH4 0x42BFE79F PUSH1 0xE0 SHL DUP2 MSTORE PUSH1 0x4 ADD PUSH2 0x3F2 SWAP2 SWAP1 PUSH2 0x48E2 JUMP JUMPDEST PUSH2 0x398B DUP2 PUSH2 0x56E3 JUMP JUMPDEST PUSH1 0x60 SHR SWAP6 PUSH1 0x1 SWAP6 POP SWAP4 POP POP POP POP JUMP JUMPDEST PUSH0 PUSH1 0x1 PUSH1 0x1 PUSH1 0xE0 SHL SUB NOT DUP3 AND PUSH4 0xA918FA6B PUSH1 0xE0 SHL EQ DUP1 PUSH2 0xD5C JUMPI POP PUSH2 0xD5C DUP3 PUSH2 0x4268 JUMP JUMPDEST PUSH0 DUP1 PUSH2 0x39D0 PUSH4 0x1FFC9A7 PUSH1 0xE0 SHL PUSH2 0x391E JUMP JUMPDEST POP SWAP1 POP PUSH1 0x1 PUSH1 0x1 PUSH1 0xA0 SHL SUB DUP2 AND PUSH2 0x39E9 JUMPI POP PUSH0 SWAP3 SWAP2 POP POP JUMP JUMPDEST PUSH2 0x1AC9 DUP2 DUP5 PUSH2 0x429C JUMP JUMPDEST PUSH0 DUP3 DUP2 MSTORE PUSH1 0x6 PUSH1 0x20 SWAP1 DUP2 MSTORE PUSH1 0x40 DUP1 DUP4 KECCAK256 DUP5 DUP5 MSTORE SWAP1 SWAP2 MSTORE SWAP1 KECCAK256 DUP1 SLOAD PUSH1 0x60 SWAP2 SWAP1 PUSH2 0x3A1A SWAP1 PUSH2 0x5457 JUMP JUMPDEST DUP1 PUSH1 0x1F ADD PUSH1 0x20 DUP1 SWAP2 DIV MUL PUSH1 0x20 ADD PUSH1 0x40 MLOAD SWAP1 DUP2 ADD PUSH1 0x40 MSTORE DUP1 SWAP3 SWAP2 SWAP1 DUP2 DUP2 MSTORE PUSH1 0x20 ADD DUP3 DUP1 SLOAD PUSH2 0x3A46 SWAP1 PUSH2 0x5457 JUMP JUMPDEST DUP1 ISZERO PUSH2 0x3A91 JUMPI DUP1 PUSH1 0x1F LT PUSH2 0x3A68 JUMPI PUSH2 0x100 DUP1 DUP4 SLOAD DIV MUL DUP4 MSTORE SWAP2 PUSH1 0x20 ADD SWAP2 PUSH2 0x3A91 JUMP JUMPDEST DUP3 ADD SWAP2 SWAP1 PUSH0 MSTORE PUSH1 0x20 PUSH0 KECCAK256 SWAP1 JUMPDEST DUP2 SLOAD DUP2 MSTORE SWAP1 PUSH1 0x1 ADD SWAP1 PUSH1 0x20 ADD DUP1 DUP4 GT PUSH2 0x3A74 JUMPI DUP3 SWAP1 SUB PUSH1 0x1F AND DUP3 ADD SWAP2 JUMPDEST POP POP POP POP POP SWAP1 POP SWAP3 SWAP2 POP POP JUMP JUMPDEST PUSH0 PUSH2 0x3AA8 DUP3 PUSH2 0x1BB6 JUMP JUMPDEST PUSH1 0x1 PUSH1 0x1 PUSH1 0xA0 SHL SUB AND DUP4 PUSH1 0x1 PUSH1 0x1 PUSH1 0xA0 SHL SUB AND EQ DUP1 PUSH2 0x1AC9 JUMPI POP PUSH0 DUP3 DUP2 MSTORE PUSH1 0x5 PUSH1 0x20 MSTORE PUSH1 0x40 SWAP1 KECCAK256 PUSH2 0x1AC9 SWAP1 DUP5 PUSH2 0x4322 JUMP JUMPDEST CALLER PUSH2 0x3AEB PUSH0 SLOAD PUSH1 0x1 PUSH1 0x1 PUSH1 0xA0 SHL SUB AND SWAP1 JUMP JUMPDEST PUSH1 0x1 PUSH1 0x1 PUSH1 0xA0 SHL SUB AND EQ PUSH2 0x2689 JUMPI PUSH1 0x40 MLOAD PUSH4 0xBF1169C5 PUSH1 0xE0 SHL DUP2 MSTORE CALLER PUSH1 0x4 DUP3 ADD MSTORE PUSH1 0x24 ADD PUSH2 0x3F2 JUMP JUMPDEST PUSH0 DUP4 DUP2 MSTORE PUSH1 0x6 PUSH1 0x20 SWAP1 DUP2 MSTORE PUSH1 0x40 DUP1 DUP4 KECCAK256 DUP6 DUP5 MSTORE SWAP1 SWAP2 MSTORE SWAP1 KECCAK256 PUSH2 0x3B36 DUP3 DUP3 PUSH2 0x55DE JUMP JUMPDEST POP DUP2 DUP4 PUSH32 0xA6E4251F855F750545FE414F120DB91C76B88DEF14D120969E5BB2D3F05DEBBB DUP4 PUSH1 0x40 MLOAD PUSH2 0x3B68 SWAP2 SWAP1 PUSH2 0x48E2 JUMP JUMPDEST PUSH1 0x40 MLOAD DUP1 SWAP2 SUB SWAP1 LOG3 POP POP POP JUMP JUMPDEST PUSH1 0x2 PUSH1 0x8 SLOAD SUB PUSH2 0x3B98 JUMPI PUSH1 0x40 MLOAD PUSH4 0x3EE5AEB5 PUSH1 0xE0 SHL DUP2 MSTORE PUSH1 0x4 ADD PUSH1 0x40 MLOAD DUP1 SWAP2 SUB SWAP1 REVERT JUMPDEST PUSH1 0x2 PUSH1 0x8 SSTORE JUMP JUMPDEST PUSH1 0x7 SLOAD PUSH1 0xFF AND ISZERO PUSH2 0x2689 JUMPI PUSH1 0x40 MLOAD PUSH4 0xD93C0665 PUSH1 0xE0 SHL DUP2 MSTORE PUSH1 0x4 ADD PUSH1 0x40 MLOAD DUP1 SWAP2 SUB SWAP1 REVERT JUMPDEST PUSH1 0x1 PUSH1 0x1 PUSH1 0xA0 SHL SUB DUP5 AND PUSH2 0x3BEA JUMPI PUSH1 0x40 MLOAD PUSH4 0x24ECEF4D PUSH1 0xE0 SHL DUP2 MSTORE PUSH1 0x4 ADD PUSH1 0x40 MLOAD DUP1 SWAP2 SUB SWAP1 REVERT JUMPDEST PUSH0 DUP4 DUP2 MSTORE PUSH1 0x3 PUSH1 0x20 MSTORE PUSH1 0x40 SWAP1 KECCAK256 SLOAD PUSH1 0x1 PUSH1 0x1 PUSH1 0xA0 SHL SUB AND ISZERO PUSH2 0x3C22 JUMPI PUSH1 0x40 MLOAD PUSH4 0x34C7B511 PUSH1 0xE0 SHL DUP2 MSTORE PUSH1 0x4 DUP2 ADD DUP5 SWAP1 MSTORE PUSH1 0x24 ADD PUSH2 0x3F2 JUMP JUMPDEST PUSH0 DUP4 DUP2 MSTORE PUSH1 0x3 PUSH1 0x20 MSTORE PUSH1 0x40 SWAP1 KECCAK256 SLOAD PUSH1 0x1 PUSH1 0x1 PUSH1 0xA0 SHL SUB AND ISZERO PUSH2 0x3C5A JUMPI PUSH1 0x40 MLOAD PUSH4 0x34C7B511 PUSH1 0xE0 SHL DUP2 MSTORE PUSH1 0x4 DUP2 ADD DUP5 SWAP1 MSTORE PUSH1 0x24 ADD PUSH2 0x3F2 JUMP JUMPDEST PUSH1 0x2 PUSH0 DUP2 SLOAD PUSH2 0x3C68 SWAP1 PUSH2 0x5731 JUMP JUMPDEST SWAP1 SWAP2 SSTORE POP PUSH1 0x1 PUSH1 0x1 PUSH1 0xA0 SHL SUB DUP5 AND PUSH0 SWAP1 DUP2 MSTORE PUSH1 0x4 PUSH1 0x20 MSTORE PUSH1 0x40 SWAP1 KECCAK256 PUSH2 0x3C8D SWAP1 DUP5 PUSH2 0x4343 JUMP JUMPDEST POP PUSH0 DUP4 DUP2 MSTORE PUSH1 0x3 PUSH1 0x20 MSTORE PUSH1 0x40 DUP1 DUP3 KECCAK256 DUP1 SLOAD PUSH1 0x1 PUSH1 0x1 PUSH1 0xA0 SHL SUB NOT AND PUSH1 0x1 PUSH1 0x1 PUSH1 0xA0 SHL SUB DUP9 AND SWAP1 DUP2 OR SWAP1 SWAP2 SSTORE SWAP1 MLOAD DUP6 SWAP3 SWAP1 PUSH32 0xB333C813A7426A7A11E2B190CAD52C44119421594B47F6F32ACE6D8C7207B2BF SWAP1 PUSH2 0x3CEE SWAP1 CALLER SWAP1 DUP9 SWAP1 DUP9 SWAP1 PUSH2 0x5749 JUMP JUMPDEST PUSH1 0x40 MLOAD DUP1 SWAP2 SUB SWAP1 LOG4 PUSH0 CALLER PUSH0 DUP7 DUP7 DUP6 PUSH1 0x40 MLOAD PUSH1 0x20 ADD PUSH2 0x3D10 SWAP6 SWAP5 SWAP4 SWAP3 SWAP2 SWAP1 PUSH2 0x5774 JUMP JUMPDEST PUSH1 0x40 MLOAD PUSH1 0x20 DUP2 DUP4 SUB SUB DUP2 MSTORE SWAP1 PUSH1 0x40 MSTORE SWAP1 POP PUSH2 0x23D4 DUP6 DUP5 DUP4 PUSH2 0x434E JUMP JUMPDEST PUSH0 DUP2 DUP2 MSTORE PUSH1 0x3 PUSH1 0x20 MSTORE PUSH1 0x40 SWAP1 KECCAK256 SLOAD PUSH1 0x1 PUSH1 0x1 PUSH1 0xA0 SHL SUB AND PUSH2 0x37CC JUMPI PUSH1 0x40 MLOAD PUSH4 0x5747CD1B PUSH1 0xE1 SHL DUP2 MSTORE PUSH1 0x4 DUP2 ADD DUP3 SWAP1 MSTORE PUSH1 0x24 ADD PUSH2 0x3F2 JUMP JUMPDEST PUSH1 0x60 PUSH0 PUSH2 0x1AC9 DUP4 PUSH2 0x4451 JUMP JUMPDEST PUSH0 PUSH2 0x3D79 DUP5 PUSH2 0x1BB6 JUMP JUMPDEST SWAP1 POP DUP6 PUSH1 0x1 PUSH1 0x1 PUSH1 0xA0 SHL SUB AND DUP2 PUSH1 0x1 PUSH1 0x1 PUSH1 0xA0 SHL SUB AND EQ PUSH2 0x3DC7 JUMPI PUSH1 0x40 MLOAD PUSH4 0x2D938F51 PUSH1 0xE1 SHL DUP2 MSTORE PUSH1 0x1 PUSH1 0x1 PUSH1 0xA0 SHL SUB DUP1 DUP4 AND PUSH1 0x4 DUP4 ADD MSTORE PUSH1 0x24 DUP3 ADD DUP7 SWAP1 MSTORE DUP8 AND PUSH1 0x44 DUP3 ADD MSTORE PUSH1 0x64 ADD PUSH2 0x3F2 JUMP JUMPDEST PUSH1 0x1 PUSH1 0x1 PUSH1 0xA0 SHL SUB DUP6 AND PUSH2 0x3DEE JUMPI PUSH1 0x40 MLOAD PUSH4 0x24ECEF4D PUSH1 0xE0 SHL DUP2 MSTORE PUSH1 0x4 ADD PUSH1 0x40 MLOAD DUP1 SWAP2 SUB SWAP1 REVERT JUMPDEST PUSH0 PUSH2 0x3DF8 DUP6 PUSH2 0x1BB6 JUMP JUMPDEST SWAP1 POP DUP1 PUSH1 0x1 PUSH1 0x1 PUSH1 0xA0 SHL SUB AND DUP3 PUSH1 0x1 PUSH1 0x1 PUSH1 0xA0 SHL SUB AND EQ PUSH2 0x3E46 JUMPI PUSH1 0x40 MLOAD PUSH4 0x5A9C31D3 PUSH1 0xE0 SHL DUP2 MSTORE PUSH1 0x4 DUP2 ADD DUP7 SWAP1 MSTORE PUSH1 0x1 PUSH1 0x1 PUSH1 0xA0 SHL SUB DUP1 DUP5 AND PUSH1 0x24 DUP4 ADD MSTORE DUP3 AND PUSH1 0x44 DUP3 ADD MSTORE PUSH1 0x64 ADD PUSH2 0x3F2 JUMP JUMPDEST PUSH2 0x3E50 DUP8 DUP7 PUSH2 0x44A9 JUMP JUMPDEST PUSH1 0x1 PUSH1 0x1 PUSH1 0xA0 SHL SUB DUP8 AND PUSH0 SWAP1 DUP2 MSTORE PUSH1 0x4 PUSH1 0x20 MSTORE PUSH1 0x40 SWAP1 KECCAK256 PUSH2 0x3E71 SWAP1 DUP7 PUSH2 0x44FC JUMP JUMPDEST POP PUSH1 0x1 PUSH1 0x1 PUSH1 0xA0 SHL SUB DUP7 AND PUSH0 SWAP1 DUP2 MSTORE PUSH1 0x4 PUSH1 0x20 MSTORE PUSH1 0x40 SWAP1 KECCAK256 PUSH2 0x3E93 SWAP1 DUP7 PUSH2 0x4343 JUMP JUMPDEST POP PUSH0 DUP6 DUP2 MSTORE PUSH1 0x3 PUSH1 0x20 MSTORE PUSH1 0x40 SWAP1 DUP2 SWAP1 KECCAK256 DUP1 SLOAD PUSH1 0x1 PUSH1 0x1 PUSH1 0xA0 SHL SUB NOT AND PUSH1 0x1 PUSH1 0x1 PUSH1 0xA0 SHL SUB DUP10 DUP2 AND SWAP2 DUP3 OR SWAP1 SWAP3 SSTORE SWAP2 MLOAD DUP8 SWAP3 SWAP2 DUP11 AND SWAP1 PUSH32 0xB333C813A7426A7A11E2B190CAD52C44119421594B47F6F32ACE6D8C7207B2BF SWAP1 PUSH2 0x3EF9 SWAP1 CALLER SWAP1 DUP11 SWAP1 DUP11 SWAP1 PUSH2 0x5749 JUMP JUMPDEST PUSH1 0x40 MLOAD DUP1 SWAP2 SUB SWAP1 LOG4 PUSH0 CALLER DUP9 DUP9 DUP9 DUP8 PUSH1 0x40 MLOAD PUSH1 0x20 ADD PUSH2 0x3F1B SWAP6 SWAP5 SWAP4 SWAP3 SWAP2 SWAP1 PUSH2 0x5774 JUMP JUMPDEST PUSH1 0x40 MLOAD PUSH1 0x20 DUP2 DUP4 SUB SUB DUP2 MSTORE SWAP1 PUSH1 0x40 MSTORE SWAP1 POP PUSH2 0x3F36 DUP9 DUP3 PUSH2 0x4507 JUMP JUMPDEST PUSH2 0x3F41 DUP8 DUP7 DUP4 PUSH2 0x434E JUMP JUMPDEST POP POP POP POP POP POP POP POP JUMP JUMPDEST PUSH0 DUP2 DUP2 MSTORE PUSH1 0x1 PUSH1 0x20 MSTORE PUSH1 0x40 SWAP1 KECCAK256 DUP1 SLOAD PUSH1 0x60 SWAP2 SWAP1 PUSH2 0x3F67 SWAP1 PUSH2 0x5457 JUMP JUMPDEST DUP1 PUSH1 0x1F ADD PUSH1 0x20 DUP1 SWAP2 DIV MUL PUSH1 0x20 ADD PUSH1 0x40 MLOAD SWAP1 DUP2 ADD PUSH1 0x40 MSTORE DUP1 SWAP3 SWAP2 SWAP1 DUP2 DUP2 MSTORE PUSH1 0x20 ADD DUP3 DUP1 SLOAD PUSH2 0x3F93 SWAP1 PUSH2 0x5457 JUMP JUMPDEST DUP1 ISZERO PUSH2 0x3FDE JUMPI DUP1 PUSH1 0x1F LT PUSH2 0x3FB5 JUMPI PUSH2 0x100 DUP1 DUP4 SLOAD DIV MUL DUP4 MSTORE SWAP2 PUSH1 0x20 ADD SWAP2 PUSH2 0x3FDE JUMP JUMPDEST DUP3 ADD SWAP2 SWAP1 PUSH0 MSTORE PUSH1 0x20 PUSH0 KECCAK256 SWAP1 JUMPDEST DUP2 SLOAD DUP2 MSTORE SWAP1 PUSH1 0x1 ADD SWAP1 PUSH1 0x20 ADD DUP1 DUP4 GT PUSH2 0x3FC1 JUMPI DUP3 SWAP1 SUB PUSH1 0x1F AND DUP3 ADD SWAP2 JUMPDEST POP POP POP POP POP SWAP1 POP SWAP2 SWAP1 POP JUMP JUMPDEST PUSH0 PUSH2 0xD5C DUP3 SLOAD SWAP1 JUMP JUMPDEST PUSH0 SLOAD PUSH1 0x1 PUSH1 0x1 PUSH1 0xA0 SHL SUB DUP3 DUP2 AND SWAP2 AND EQ PUSH2 0x37CC JUMPI PUSH0 DUP1 SLOAD PUSH1 0x40 MLOAD PUSH1 0x1 PUSH1 0x1 PUSH1 0xA0 SHL SUB DUP1 DUP6 AND SWAP4 SWAP3 AND SWAP2 PUSH32 0x8BE0079C531659141344CD1FD0A4F28419497F9722A3DAAFE3B4186F6B6457E0 SWAP2 LOG3 PUSH0 DUP1 SLOAD PUSH1 0x1 PUSH1 0x1 PUSH1 0xA0 SHL SUB DUP4 AND PUSH1 0x1 PUSH1 0x1 PUSH1 0xA0 SHL SUB NOT SWAP1 SWAP2 AND OR SWAP1 SSTORE POP JUMP JUMPDEST PUSH32 0x98A16C9E50E3E99B3E797305C146898D294E5AEC55A47E213CB3611CCF17E73 DUP3 ADD PUSH2 0x409E JUMPI PUSH1 0x40 MLOAD PUSH4 0x1B324005 PUSH1 0xE1 SHL DUP2 MSTORE PUSH1 0x4 ADD PUSH1 0x40 MLOAD DUP1 SWAP2 SUB SWAP1 REVERT JUMPDEST PUSH2 0x286B DUP3 DUP3 PUSH2 0x4532 JUMP JUMPDEST PUSH0 PUSH2 0x1AC9 DUP4 PUSH1 0x1 PUSH1 0x1 PUSH1 0xA0 SHL SUB DUP5 AND PUSH2 0x453C JUMP JUMPDEST PUSH2 0x286B DUP3 PUSH32 0x8A1C15A8799F71B547E08E2BCB2E85257E81B0A07EEE2CE6712549EEF1F00970 DUP4 PUSH2 0x4588 JUMP JUMPDEST PUSH2 0x40EF PUSH2 0x45D5 JUMP JUMPDEST PUSH1 0x7 DUP1 SLOAD PUSH1 0xFF NOT AND SWAP1 SSTORE PUSH32 0x5DB9EE0A495BF2E6FF9C91A7834C1BA4FDD244A5E8AA4E537BD38AEAE4B073AA CALLER JUMPDEST PUSH1 0x40 MLOAD PUSH1 0x1 PUSH1 0x1 PUSH1 0xA0 SHL SUB SWAP1 SWAP2 AND DUP2 MSTORE PUSH1 0x20 ADD PUSH1 0x40 MLOAD DUP1 SWAP2 SUB SWAP1 LOG1 JUMP JUMPDEST PUSH2 0x4141 PUSH2 0x3B9F JUMP JUMPDEST PUSH1 0x7 DUP1 SLOAD PUSH1 0xFF NOT AND PUSH1 0x1 OR SWAP1 SSTORE PUSH32 0x62E78CEA01BEE320CD4E420270B5EA74000D11B0C9F74754EBDBFC544B05A258 PUSH2 0x411C CALLER SWAP1 JUMP JUMPDEST PUSH0 DUP4 DUP2 MSTORE PUSH1 0x5 PUSH1 0x20 MSTORE PUSH1 0x40 DUP2 KECCAK256 PUSH2 0x418D SWAP1 DUP8 PUSH2 0x45F8 JUMP JUMPDEST SWAP1 POP DUP1 PUSH2 0x41BF JUMPI PUSH1 0x40 MLOAD PUSH4 0x12A8C6A3 PUSH1 0xE2 SHL DUP2 MSTORE PUSH1 0x1 PUSH1 0x1 PUSH1 0xA0 SHL SUB DUP8 AND PUSH1 0x4 DUP3 ADD MSTORE PUSH1 0x24 DUP2 ADD DUP6 SWAP1 MSTORE PUSH1 0x44 ADD PUSH2 0x3F2 JUMP JUMPDEST DUP4 DUP6 PUSH1 0x1 PUSH1 0x1 PUSH1 0xA0 SHL SUB AND DUP8 PUSH1 0x1 PUSH1 0x1 PUSH1 0xA0 SHL SUB AND PUSH32 0xC78CD419D6136F9F1C1C6AEC1D3FAE098CFFAF8BC86314A8F2685E32FE574E3C DUP7 DUP7 PUSH1 0x40 MLOAD PUSH2 0x4205 SWAP3 SWAP2 SWAP1 PUSH2 0x57AE JUMP JUMPDEST PUSH1 0x40 MLOAD DUP1 SWAP2 SUB SWAP1 LOG4 POP POP POP POP POP POP JUMP JUMPDEST PUSH1 0x40 DUP1 MLOAD PUSH1 0x1 PUSH1 0x1 PUSH1 0xB0 SHL SUB NOT DUP5 AND PUSH1 0x20 DUP3 ADD MSTORE PUSH0 PUSH1 0x2A DUP3 ADD DUP2 SWAP1 MSTORE PUSH1 0x1 PUSH1 0x1 PUSH1 0x60 SHL SUB NOT DUP5 AND PUSH1 0x2C DUP4 ADD MSTORE SWAP2 DUP3 SWAP2 ADD PUSH1 0x40 MLOAD PUSH1 0x20 DUP2 DUP4 SUB SUB DUP2 MSTORE SWAP1 PUSH1 0x40 MSTORE SWAP1 POP DUP1 PUSH2 0x4260 SWAP1 PUSH2 0x57C8 JUMP JUMPDEST SWAP5 SWAP4 POP POP POP POP JUMP JUMPDEST PUSH0 PUSH1 0x1 PUSH1 0x1 PUSH1 0xE0 SHL SUB NOT DUP3 AND PUSH4 0x18A6A9A5 PUSH1 0xE2 SHL EQ DUP1 PUSH2 0xD5C JUMPI POP PUSH4 0x1FFC9A7 PUSH1 0xE0 SHL PUSH1 0x1 PUSH1 0x1 PUSH1 0xE0 SHL SUB NOT DUP4 AND EQ PUSH2 0xD5C JUMP JUMPDEST PUSH1 0x40 MLOAD PUSH1 0x1 PUSH1 0x1 PUSH1 0xE0 SHL SUB NOT DUP3 AND PUSH1 0x24 DUP3 ADD MSTORE PUSH0 SWAP1 DUP2 SWAP1 PUSH1 0x44 ADD PUSH1 0x40 DUP1 MLOAD PUSH1 0x1F NOT DUP2 DUP5 SUB ADD DUP2 MSTORE SWAP2 SWAP1 MSTORE PUSH1 0x20 DUP1 DUP3 ADD DUP1 MLOAD PUSH1 0x1 PUSH1 0x1 PUSH1 0xE0 SHL SUB AND PUSH4 0x1FFC9A7 PUSH1 0xE0 SHL OR DUP2 MSTORE DUP3 MLOAD SWAP3 SWAP4 POP PUSH0 SWAP3 DUP4 SWAP3 DUP4 SWAP3 SWAP1 SWAP2 DUP4 SWAP2 DUP11 PUSH2 0x7530 STATICCALL SWAP3 POP RETURNDATASIZE SWAP2 POP PUSH0 MLOAD SWAP1 POP DUP3 DUP1 ISZERO PUSH2 0x430C JUMPI POP PUSH1 0x20 DUP3 LT ISZERO JUMPDEST DUP1 ISZERO PUSH2 0x4317 JUMPI POP PUSH0 DUP2 GT JUMPDEST SWAP8 SWAP7 POP POP POP POP POP POP POP JUMP JUMPDEST PUSH1 0x1 PUSH1 0x1 PUSH1 0xA0 SHL SUB DUP2 AND PUSH0 SWAP1 DUP2 MSTORE PUSH1 0x1 DUP4 ADD PUSH1 0x20 MSTORE PUSH1 0x40 DUP2 KECCAK256 SLOAD ISZERO ISZERO PUSH2 0x1AC9 JUMP JUMPDEST PUSH0 PUSH2 0x1AC9 DUP4 DUP4 PUSH2 0x453C JUMP JUMPDEST PUSH2 0x435F DUP4 PUSH4 0x1AED5A85 PUSH1 0xE2 SHL PUSH2 0x429C JUMP JUMPDEST ISZERO PUSH2 0x43F4 JUMPI PUSH1 0x40 MLOAD PUSH4 0x1AED5A85 PUSH1 0xE2 SHL DUP2 MSTORE PUSH1 0x1 PUSH1 0x1 PUSH1 0xA0 SHL SUB DUP5 AND SWAP1 PUSH4 0x6BB56A14 SWAP1 PUSH2 0x43B2 SWAP1 PUSH32 0xB084A55EBF70FD3C06FD755269DAC2212C4D3F0F4D09079780BFA50C1B2984D SWAP1 DUP6 SWAP1 PUSH1 0x4 ADD PUSH2 0x57EB JUMP JUMPDEST PUSH0 PUSH1 0x40 MLOAD DUP1 DUP4 SUB DUP2 PUSH0 DUP8 GAS CALL ISZERO DUP1 ISZERO PUSH2 0x43CD JUMPI RETURNDATASIZE PUSH0 PUSH0 RETURNDATACOPY RETURNDATASIZE PUSH0 REVERT JUMPDEST POP POP POP POP PUSH1 0x40 MLOAD RETURNDATASIZE PUSH0 DUP3 RETURNDATACOPY PUSH1 0x1F RETURNDATASIZE SWAP1 DUP2 ADD PUSH1 0x1F NOT AND DUP3 ADD PUSH1 0x40 MSTORE PUSH2 0x3399 SWAP2 SWAP1 DUP2 ADD SWAP1 PUSH2 0x5803 JUMP JUMPDEST DUP2 PUSH2 0x329E JUMPI PUSH1 0x1 PUSH1 0x1 PUSH1 0xA0 SHL SUB DUP4 AND EXTCODESIZE ISZERO PUSH2 0x442D JUMPI PUSH1 0x40 MLOAD PUSH4 0x4349776D PUSH1 0xE0 SHL DUP2 MSTORE PUSH1 0x1 PUSH1 0x1 PUSH1 0xA0 SHL SUB DUP5 AND PUSH1 0x4 DUP3 ADD MSTORE PUSH1 0x24 ADD PUSH2 0x3F2 JUMP JUMPDEST PUSH1 0x40 MLOAD PUSH4 0x3173137 PUSH1 0xE0 SHL DUP2 MSTORE PUSH1 0x1 PUSH1 0x1 PUSH1 0xA0 SHL SUB DUP5 AND PUSH1 0x4 DUP3 ADD MSTORE PUSH1 0x24 ADD PUSH2 0x3F2 JUMP JUMPDEST PUSH1 0x60 DUP2 PUSH0 ADD DUP1 SLOAD DUP1 PUSH1 0x20 MUL PUSH1 0x20 ADD PUSH1 0x40 MLOAD SWAP1 DUP2 ADD PUSH1 0x40 MSTORE DUP1 SWAP3 SWAP2 SWAP1 DUP2 DUP2 MSTORE PUSH1 0x20 ADD DUP3 DUP1 SLOAD DUP1 ISZERO PUSH2 0x3FDE JUMPI PUSH1 0x20 MUL DUP3 ADD SWAP2 SWAP1 PUSH0 MSTORE PUSH1 0x20 PUSH0 KECCAK256 SWAP1 JUMPDEST DUP2 SLOAD DUP2 MSTORE PUSH1 0x20 ADD SWAP1 PUSH1 0x1 ADD SWAP1 DUP1 DUP4 GT PUSH2 0x448A JUMPI POP POP POP POP POP SWAP1 POP SWAP2 SWAP1 POP JUMP JUMPDEST PUSH0 DUP2 DUP2 MSTORE PUSH1 0x5 PUSH1 0x20 MSTORE PUSH1 0x40 DUP2 KECCAK256 SWAP1 PUSH2 0x44C0 DUP3 PUSH2 0x3FEA JUMP JUMPDEST SWAP1 POP PUSH0 PUSH0 JUMPDEST DUP3 DUP2 LT ISZERO PUSH2 0x319A JUMPI PUSH2 0x44D7 DUP5 PUSH0 PUSH2 0x460C JUMP JUMPDEST SWAP2 POP PUSH2 0x44F4 DUP3 DUP8 DUP8 PUSH0 PUSH1 0x40 MLOAD DUP1 PUSH1 0x20 ADD PUSH1 0x40 MSTORE DUP1 PUSH0 DUP2 MSTORE POP PUSH2 0x4176 JUMP JUMPDEST PUSH1 0x1 ADD PUSH2 0x44C5 JUMP JUMPDEST PUSH0 PUSH2 0x1AC9 DUP4 DUP4 PUSH2 0x4617 JUMP JUMPDEST PUSH2 0x286B DUP3 PUSH32 0xB23EAE7E6D1564B295B4C3E3BE402D9A2F0776C57BDF365903496F6FA481AB00 DUP4 PUSH2 0x4588 JUMP JUMPDEST PUSH2 0x286B DUP3 DUP3 PUSH2 0x46FA JUMP JUMPDEST PUSH0 DUP2 DUP2 MSTORE PUSH1 0x1 DUP4 ADD PUSH1 0x20 MSTORE PUSH1 0x40 DUP2 KECCAK256 SLOAD PUSH2 0x4581 JUMPI POP DUP2 SLOAD PUSH1 0x1 DUP2 DUP2 ADD DUP5 SSTORE PUSH0 DUP5 DUP2 MSTORE PUSH1 0x20 DUP1 DUP3 KECCAK256 SWAP1 SWAP4 ADD DUP5 SWAP1 SSTORE DUP5 SLOAD DUP5 DUP3 MSTORE DUP3 DUP7 ADD SWAP1 SWAP4 MSTORE PUSH1 0x40 SWAP1 KECCAK256 SWAP2 SWAP1 SWAP2 SSTORE PUSH2 0xD5C JUMP JUMPDEST POP PUSH0 PUSH2 0xD5C JUMP JUMPDEST PUSH2 0x45A2 PUSH1 0x1 PUSH1 0x1 PUSH1 0xA0 SHL SUB DUP5 AND PUSH4 0x1AED5A85 PUSH1 0xE2 SHL PUSH2 0x429C JUMP JUMPDEST ISZERO PUSH2 0x329E JUMPI PUSH1 0x40 MLOAD PUSH4 0x1AED5A85 PUSH1 0xE2 SHL DUP2 MSTORE PUSH1 0x1 PUSH1 0x1 PUSH1 0xA0 SHL SUB DUP5 AND SWAP1 PUSH4 0x6BB56A14 SWAP1 PUSH2 0x43B2 SWAP1 DUP6 SWAP1 DUP6 SWAP1 PUSH1 0x4 ADD PUSH2 0x57EB JUMP JUMPDEST PUSH1 0x7 SLOAD PUSH1 0xFF AND PUSH2 0x2689 JUMPI PUSH1 0x40 MLOAD PUSH4 0x8DFC202B PUSH1 0xE0 SHL DUP2 MSTORE PUSH1 0x4 ADD PUSH1 0x40 MLOAD DUP1 SWAP2 SUB SWAP1 REVERT JUMPDEST PUSH0 PUSH2 0x1AC9 DUP4 PUSH1 0x1 PUSH1 0x1 PUSH1 0xA0 SHL SUB DUP5 AND PUSH2 0x4617 JUMP JUMPDEST PUSH0 PUSH2 0x1AC9 DUP4 DUP4 PUSH2 0x4802 JUMP JUMPDEST PUSH0 DUP2 DUP2 MSTORE PUSH1 0x1 DUP4 ADD PUSH1 0x20 MSTORE PUSH1 0x40 DUP2 KECCAK256 SLOAD DUP1 ISZERO PUSH2 0x46F1 JUMPI PUSH0 PUSH2 0x4639 PUSH1 0x1 DUP4 PUSH2 0x56D0 JUMP JUMPDEST DUP6 SLOAD SWAP1 SWAP2 POP PUSH0 SWAP1 PUSH2 0x464C SWAP1 PUSH1 0x1 SWAP1 PUSH2 0x56D0 JUMP JUMPDEST SWAP1 POP DUP1 DUP3 EQ PUSH2 0x46AB JUMPI PUSH0 DUP7 PUSH0 ADD DUP3 DUP2 SLOAD DUP2 LT PUSH2 0x466A JUMPI PUSH2 0x466A PUSH2 0x542A JUMP JUMPDEST SWAP1 PUSH0 MSTORE PUSH1 0x20 PUSH0 KECCAK256 ADD SLOAD SWAP1 POP DUP1 DUP8 PUSH0 ADD DUP5 DUP2 SLOAD DUP2 LT PUSH2 0x468A JUMPI PUSH2 0x468A PUSH2 0x542A JUMP JUMPDEST PUSH0 SWAP2 DUP3 MSTORE PUSH1 0x20 DUP1 DUP4 KECCAK256 SWAP1 SWAP2 ADD SWAP3 SWAP1 SWAP3 SSTORE SWAP2 DUP3 MSTORE PUSH1 0x1 DUP9 ADD SWAP1 MSTORE PUSH1 0x40 SWAP1 KECCAK256 DUP4 SWAP1 SSTORE JUMPDEST DUP6 SLOAD DUP7 SWAP1 DUP1 PUSH2 0x46BC JUMPI PUSH2 0x46BC PUSH2 0x5877 JUMP JUMPDEST PUSH1 0x1 SWAP1 SUB DUP2 DUP2 SWAP1 PUSH0 MSTORE PUSH1 0x20 PUSH0 KECCAK256 ADD PUSH0 SWAP1 SSTORE SWAP1 SSTORE DUP6 PUSH1 0x1 ADD PUSH0 DUP7 DUP2 MSTORE PUSH1 0x20 ADD SWAP1 DUP2 MSTORE PUSH1 0x20 ADD PUSH0 KECCAK256 PUSH0 SWAP1 SSTORE PUSH1 0x1 SWAP4 POP POP POP POP PUSH2 0xD5C JUMP JUMPDEST PUSH0 SWAP2 POP POP PUSH2 0xD5C JUMP JUMPDEST PUSH32 0x2145E1D6D074577DC71EF54C3807742B41B053A9352AE6B491331509ACB9750F DUP3 ADD PUSH2 0x473A JUMPI PUSH1 0x40 MLOAD PUSH4 0x85C169BD PUSH1 0xE0 SHL DUP2 MSTORE PUSH1 0x4 ADD PUSH1 0x40 MLOAD DUP1 SWAP2 SUB SWAP1 REVERT JUMPDEST PUSH32 0xD0F59754F88971FE6BC5A6618CC9D5F1E859C58D16B22D1C7B2D3E2B246CD8AA DUP3 ADD PUSH2 0x477A JUMPI PUSH1 0x40 MLOAD PUSH4 0xECEAB67 PUSH1 0xE3 SHL DUP2 MSTORE PUSH1 0x4 ADD PUSH1 0x40 MLOAD DUP1 SWAP2 SUB SWAP1 REVERT JUMPDEST PUSH32 0x1FD9E056A24D14C4ABC642FCC325992A946906D0DBC57DD70278AAF12842024D DUP3 ADD PUSH2 0x47BA JUMPI PUSH1 0x40 MLOAD PUSH4 0x4EF6D7FB PUSH1 0xE0 SHL DUP2 MSTORE PUSH1 0x4 ADD PUSH1 0x40 MLOAD DUP1 SWAP2 SUB SWAP1 REVERT JUMPDEST PUSH0 DUP3 DUP2 MSTORE PUSH1 0x1 PUSH1 0x20 MSTORE PUSH1 0x40 SWAP1 KECCAK256 PUSH2 0x47D1 DUP3 DUP3 PUSH2 0x55DE JUMP JUMPDEST POP DUP2 PUSH32 0xECE574603820D07BC9B91F2A932BAADF4628AABCB8AFBA49776529C14A6104B2 DUP3 PUSH1 0x40 MLOAD PUSH2 0x301F SWAP2 SWAP1 PUSH2 0x48E2 JUMP JUMPDEST PUSH0 DUP3 PUSH0 ADD DUP3 DUP2 SLOAD DUP2 LT PUSH2 0x4817 JUMPI PUSH2 0x4817 PUSH2 0x542A JUMP JUMPDEST SWAP1 PUSH0 MSTORE PUSH1 0x20 PUSH0 KECCAK256 ADD SLOAD SWAP1 POP SWAP3 SWAP2 POP POP JUMP JUMPDEST PUSH1 0x20 DUP2 MSTORE DUP2 PUSH1 0x20 DUP3 ADD MSTORE DUP2 DUP4 PUSH1 0x40 DUP4 ADD CALLDATACOPY PUSH0 DUP2 DUP4 ADD PUSH1 0x40 SWAP1 DUP2 ADD SWAP2 SWAP1 SWAP2 MSTORE PUSH1 0x1F SWAP1 SWAP3 ADD PUSH1 0x1F NOT AND ADD ADD SWAP2 SWAP1 POP JUMP JUMPDEST PUSH0 PUSH1 0x20 DUP3 DUP5 SUB SLT ISZERO PUSH2 0x4866 JUMPI PUSH0 PUSH0 REVERT JUMPDEST DUP2 CALLDATALOAD PUSH1 0x1 PUSH1 0x1 PUSH1 0xE0 SHL SUB NOT DUP2 AND DUP2 EQ PUSH2 0x1AC9 JUMPI PUSH0 PUSH0 REVERT JUMPDEST PUSH0 PUSH1 0x20 DUP3 DUP5 SUB SLT ISZERO PUSH2 0x488D JUMPI PUSH0 PUSH0 REVERT JUMPDEST POP CALLDATALOAD SWAP2 SWAP1 POP JUMP JUMPDEST PUSH0 PUSH0 PUSH1 0x40 DUP4 DUP6 SUB SLT ISZERO PUSH2 0x48A5 JUMPI PUSH0 PUSH0 REVERT JUMPDEST POP POP DUP1 CALLDATALOAD SWAP3 PUSH1 0x20 SWAP1 SWAP2 ADD CALLDATALOAD SWAP2 POP JUMP JUMPDEST PUSH0 DUP2 MLOAD DUP1 DUP5 MSTORE DUP1 PUSH1 0x20 DUP5 ADD PUSH1 0x20 DUP7 ADD MCOPY PUSH0 PUSH1 0x20 DUP3 DUP7 ADD ADD MSTORE PUSH1 0x20 PUSH1 0x1F NOT PUSH1 0x1F DUP4 ADD AND DUP6 ADD ADD SWAP2 POP POP SWAP3 SWAP2 POP POP JUMP JUMPDEST PUSH1 0x20 DUP2 MSTORE PUSH0 PUSH2 0x1AC9 PUSH1 0x20 DUP4 ADD DUP5 PUSH2 0x48B4 JUMP JUMPDEST PUSH4 0x4E487B71 PUSH1 0xE0 SHL PUSH0 MSTORE PUSH1 0x41 PUSH1 0x4 MSTORE PUSH1 0x24 PUSH0 REVERT JUMPDEST PUSH1 0x40 MLOAD PUSH2 0x140 DUP2 ADD PUSH1 0x1 PUSH1 0x1 PUSH1 0x40 SHL SUB DUP2 GT DUP3 DUP3 LT OR ISZERO PUSH2 0x492B JUMPI PUSH2 0x492B PUSH2 0x48F4 JUMP JUMPDEST PUSH1 0x40 MSTORE SWAP1 JUMP JUMPDEST PUSH1 0x40 MLOAD PUSH1 0x1F DUP3 ADD PUSH1 0x1F NOT AND DUP2 ADD PUSH1 0x1 PUSH1 0x1 PUSH1 0x40 SHL SUB DUP2 GT DUP3 DUP3 LT OR ISZERO PUSH2 0x4959 JUMPI PUSH2 0x4959 PUSH2 0x48F4 JUMP JUMPDEST PUSH1 0x40 MSTORE SWAP2 SWAP1 POP JUMP JUMPDEST PUSH0 PUSH1 0x1 PUSH1 0x1 PUSH1 0x40 SHL SUB DUP3 GT ISZERO PUSH2 0x4979 JUMPI PUSH2 0x4979 PUSH2 0x48F4 JUMP JUMPDEST POP PUSH1 0x5 SHL PUSH1 0x20 ADD SWAP1 JUMP JUMPDEST PUSH0 DUP3 PUSH1 0x1F DUP4 ADD SLT PUSH2 0x4992 JUMPI PUSH0 PUSH0 REVERT JUMPDEST DUP2 CALLDATALOAD PUSH2 0x49A5 PUSH2 0x49A0 DUP3 PUSH2 0x4961 JUMP JUMPDEST PUSH2 0x4931 JUMP JUMPDEST DUP1 DUP3 DUP3 MSTORE PUSH1 0x20 DUP3 ADD SWAP2 POP PUSH1 0x20 DUP4 PUSH1 0x5 SHL DUP7 ADD ADD SWAP3 POP DUP6 DUP4 GT ISZERO PUSH2 0x49C6 JUMPI PUSH0 PUSH0 REVERT JUMPDEST PUSH1 0x20 DUP6 ADD JUMPDEST DUP4 DUP2 LT ISZERO PUSH2 0x49E3 JUMPI DUP1 CALLDATALOAD DUP4 MSTORE PUSH1 0x20 SWAP3 DUP4 ADD SWAP3 ADD PUSH2 0x49CB JUMP JUMPDEST POP SWAP6 SWAP5 POP POP POP POP POP JUMP JUMPDEST PUSH0 PUSH0 PUSH1 0x40 DUP4 DUP6 SUB SLT ISZERO PUSH2 0x49FE JUMPI PUSH0 PUSH0 REVERT JUMPDEST DUP3 CALLDATALOAD PUSH1 0x1 PUSH1 0x1 PUSH1 0x40 SHL SUB DUP2 GT ISZERO PUSH2 0x4A13 JUMPI PUSH0 PUSH0 REVERT JUMPDEST PUSH2 0x4A1F DUP6 DUP3 DUP7 ADD PUSH2 0x4983 JUMP JUMPDEST SWAP3 POP POP PUSH1 0x20 DUP4 ADD CALLDATALOAD PUSH1 0x1 PUSH1 0x1 PUSH1 0x40 SHL SUB DUP2 GT ISZERO PUSH2 0x4A3A JUMPI PUSH0 PUSH0 REVERT JUMPDEST PUSH2 0x4A46 DUP6 DUP3 DUP7 ADD PUSH2 0x4983 JUMP JUMPDEST SWAP2 POP POP SWAP3 POP SWAP3 SWAP1 POP JUMP JUMPDEST PUSH0 PUSH1 0x20 DUP3 ADD PUSH1 0x20 DUP4 MSTORE DUP1 DUP5 MLOAD DUP1 DUP4 MSTORE PUSH1 0x40 DUP6 ADD SWAP2 POP PUSH1 0x40 DUP2 PUSH1 0x5 SHL DUP7 ADD ADD SWAP3 POP PUSH1 0x20 DUP7 ADD PUSH0 JUMPDEST DUP3 DUP2 LT ISZERO PUSH2 0x4AA7 JUMPI PUSH1 0x3F NOT DUP8 DUP7 SUB ADD DUP5 MSTORE PUSH2 0x4A92 DUP6 DUP4 MLOAD PUSH2 0x48B4 JUMP JUMPDEST SWAP5 POP PUSH1 0x20 SWAP4 DUP5 ADD SWAP4 SWAP2 SWAP1 SWAP2 ADD SWAP1 PUSH1 0x1 ADD PUSH2 0x4A76 JUMP JUMPDEST POP SWAP3 SWAP7 SWAP6 POP POP POP POP POP POP JUMP JUMPDEST DUP1 CALLDATALOAD PUSH1 0x1 PUSH1 0x1 PUSH1 0xA0 SHL SUB DUP2 AND DUP2 EQ PUSH2 0x4AC9 JUMPI PUSH0 PUSH0 REVERT JUMPDEST SWAP2 SWAP1 POP JUMP JUMPDEST PUSH0 PUSH0 PUSH1 0x40 DUP4 DUP6 SUB SLT ISZERO PUSH2 0x4ADF JUMPI PUSH0 PUSH0 REVERT JUMPDEST PUSH2 0x4AE8 DUP4 PUSH2 0x4AB3 JUMP JUMPDEST SWAP5 PUSH1 0x20 SWAP4 SWAP1 SWAP4 ADD CALLDATALOAD SWAP4 POP POP POP JUMP JUMPDEST PUSH0 PUSH2 0x140 DUP3 DUP5 SUB SLT DUP1 ISZERO PUSH2 0x4B08 JUMPI PUSH0 PUSH0 REVERT JUMPDEST POP PUSH2 0x4B11 PUSH2 0x4908 JUMP JUMPDEST PUSH2 0x4B1A DUP4 PUSH2 0x4AB3 JUMP JUMPDEST DUP2 MSTORE PUSH2 0x4B28 PUSH1 0x20 DUP5 ADD PUSH2 0x4AB3 JUMP JUMPDEST PUSH1 0x20 DUP3 ADD MSTORE PUSH2 0x4B39 PUSH1 0x40 DUP5 ADD PUSH2 0x4AB3 JUMP JUMPDEST PUSH1 0x40 DUP3 ADD MSTORE PUSH2 0x4B4A PUSH1 0x60 DUP5 ADD PUSH2 0x4AB3 JUMP JUMPDEST PUSH1 0x60 DUP3 ADD MSTORE PUSH2 0x4B5B PUSH1 0x80 DUP5 ADD PUSH2 0x4AB3 JUMP JUMPDEST PUSH1 0x80 DUP3 ADD MSTORE PUSH2 0x4B6C PUSH1 0xA0 DUP5 ADD PUSH2 0x4AB3 JUMP JUMPDEST PUSH1 0xA0 DUP3 ADD MSTORE PUSH2 0x4B7D PUSH1 0xC0 DUP5 ADD PUSH2 0x4AB3 JUMP JUMPDEST PUSH1 0xC0 DUP3 ADD MSTORE PUSH2 0x4B8E PUSH1 0xE0 DUP5 ADD PUSH2 0x4AB3 JUMP JUMPDEST PUSH1 0xE0 DUP3 ADD MSTORE PUSH2 0x4BA0 PUSH2 0x100 DUP5 ADD PUSH2 0x4AB3 JUMP JUMPDEST PUSH2 0x100 DUP3 ADD MSTORE PUSH2 0x4BB3 PUSH2 0x120 DUP5 ADD PUSH2 0x4AB3 JUMP JUMPDEST PUSH2 0x120 DUP3 ADD MSTORE SWAP4 SWAP3 POP POP POP JUMP JUMPDEST PUSH0 PUSH1 0x1 PUSH1 0x1 PUSH1 0x40 SHL SUB DUP3 GT ISZERO PUSH2 0x4BD8 JUMPI PUSH2 0x4BD8 PUSH2 0x48F4 JUMP JUMPDEST POP PUSH1 0x1F ADD PUSH1 0x1F NOT AND PUSH1 0x20 ADD SWAP1 JUMP JUMPDEST PUSH0 PUSH2 0x4BF3 PUSH2 0x49A0 DUP5 PUSH2 0x4BC0 JUMP JUMPDEST SWAP1 POP DUP3 DUP2 MSTORE DUP4 DUP4 DUP4 ADD GT ISZERO PUSH2 0x4C06 JUMPI PUSH0 PUSH0 REVERT JUMPDEST DUP3 DUP3 PUSH1 0x20 DUP4 ADD CALLDATACOPY PUSH0 PUSH1 0x20 DUP5 DUP4 ADD ADD MSTORE SWAP4 SWAP3 POP POP POP JUMP JUMPDEST PUSH0 DUP3 PUSH1 0x1F DUP4 ADD SLT PUSH2 0x4C2B JUMPI PUSH0 PUSH0 REVERT JUMPDEST PUSH2 0x1AC9 DUP4 DUP4 CALLDATALOAD PUSH1 0x20 DUP6 ADD PUSH2 0x4BE6 JUMP JUMPDEST PUSH0 PUSH0 PUSH1 0x40 DUP4 DUP6 SUB SLT ISZERO PUSH2 0x4C4B JUMPI PUSH0 PUSH0 REVERT JUMPDEST DUP3 CALLDATALOAD SWAP2 POP PUSH1 0x20 DUP4 ADD CALLDATALOAD PUSH1 0x1 PUSH1 0x1 PUSH1 0x40 SHL SUB DUP2 GT ISZERO PUSH2 0x4C67 JUMPI PUSH0 PUSH0 REVERT JUMPDEST PUSH2 0x4A46 DUP6 DUP3 DUP7 ADD PUSH2 0x4C1C JUMP JUMPDEST PUSH0 PUSH1 0x20 DUP3 DUP5 SUB SLT ISZERO PUSH2 0x4C83 JUMPI PUSH0 PUSH0 REVERT JUMPDEST PUSH2 0x1AC9 DUP3 PUSH2 0x4AB3 JUMP JUMPDEST PUSH1 0x20 DUP1 DUP3 MSTORE DUP3 MLOAD DUP3 DUP3 ADD DUP2 SWAP1 MSTORE PUSH0 SWAP2 DUP5 ADD SWAP1 PUSH1 0x40 DUP5 ADD SWAP1 DUP4 JUMPDEST DUP2 DUP2 LT ISZERO PUSH2 0x4CCC JUMPI DUP4 MLOAD PUSH1 0x1 PUSH1 0x1 PUSH1 0xA0 SHL SUB AND DUP4 MSTORE PUSH1 0x20 SWAP4 DUP5 ADD SWAP4 SWAP1 SWAP3 ADD SWAP2 PUSH1 0x1 ADD PUSH2 0x4CA5 JUMP JUMPDEST POP SWAP1 SWAP6 SWAP5 POP POP POP POP POP JUMP JUMPDEST DUP1 ISZERO ISZERO DUP2 EQ PUSH2 0x37CC JUMPI PUSH0 PUSH0 REVERT JUMPDEST PUSH0 PUSH0 PUSH0 PUSH0 PUSH0 PUSH1 0xA0 DUP7 DUP9 SUB SLT ISZERO PUSH2 0x4CF8 JUMPI PUSH0 PUSH0 REVERT JUMPDEST PUSH2 0x4D01 DUP7 PUSH2 0x4AB3 JUMP JUMPDEST SWAP5 POP PUSH2 0x4D0F PUSH1 0x20 DUP8 ADD PUSH2 0x4AB3 JUMP JUMPDEST SWAP4 POP PUSH1 0x40 DUP7 ADD CALLDATALOAD SWAP3 POP PUSH1 0x60 DUP7 ADD CALLDATALOAD PUSH2 0x4D26 DUP2 PUSH2 0x4CD7 JUMP JUMPDEST SWAP2 POP PUSH1 0x80 DUP7 ADD CALLDATALOAD PUSH1 0x1 PUSH1 0x1 PUSH1 0x40 SHL SUB DUP2 GT ISZERO PUSH2 0x4D40 JUMPI PUSH0 PUSH0 REVERT JUMPDEST PUSH2 0x4D4C DUP9 DUP3 DUP10 ADD PUSH2 0x4C1C JUMP JUMPDEST SWAP2 POP POP SWAP3 SWAP6 POP SWAP3 SWAP6 SWAP1 SWAP4 POP JUMP JUMPDEST PUSH0 PUSH0 PUSH0 PUSH1 0x60 DUP5 DUP7 SUB SLT ISZERO PUSH2 0x4D6B JUMPI PUSH0 PUSH0 REVERT JUMPDEST DUP4 CALLDATALOAD SWAP3 POP PUSH1 0x20 DUP5 ADD CALLDATALOAD SWAP2 POP PUSH1 0x40 DUP5 ADD CALLDATALOAD PUSH1 0x1 PUSH1 0x1 PUSH1 0x40 SHL SUB DUP2 GT ISZERO PUSH2 0x4D8E JUMPI PUSH0 PUSH0 REVERT JUMPDEST PUSH2 0x4D9A DUP7 DUP3 DUP8 ADD PUSH2 0x4C1C JUMP JUMPDEST SWAP2 POP POP SWAP3 POP SWAP3 POP SWAP3 JUMP JUMPDEST PUSH0 PUSH0 PUSH1 0x20 DUP4 DUP6 SUB SLT ISZERO PUSH2 0x4DB5 JUMPI PUSH0 PUSH0 REVERT JUMPDEST DUP3 CALLDATALOAD PUSH1 0x1 PUSH1 0x1 PUSH1 0x40 SHL SUB DUP2 GT ISZERO PUSH2 0x4DCA JUMPI PUSH0 PUSH0 REVERT JUMPDEST DUP4 ADD PUSH1 0x1F DUP2 ADD DUP6 SGT PUSH2 0x4DDA JUMPI PUSH0 PUSH0 REVERT JUMPDEST DUP1 CALLDATALOAD PUSH1 0x1 PUSH1 0x1 PUSH1 0x40 SHL SUB DUP2 GT ISZERO PUSH2 0x4DEF JUMPI PUSH0 PUSH0 REVERT JUMPDEST DUP6 PUSH1 0x20 DUP3 PUSH1 0x5 SHL DUP5 ADD ADD GT ISZERO PUSH2 0x4E03 JUMPI PUSH0 PUSH0 REVERT JUMPDEST PUSH1 0x20 SWAP2 SWAP1 SWAP2 ADD SWAP6 SWAP1 SWAP5 POP SWAP3 POP POP POP JUMP JUMPDEST DUP1 CALLDATALOAD PUSH1 0xFF DUP2 AND DUP2 EQ PUSH2 0x4AC9 JUMPI PUSH0 PUSH0 REVERT JUMPDEST PUSH0 PUSH0 PUSH0 PUSH1 0x60 DUP5 DUP7 SUB SLT ISZERO PUSH2 0x4E35 JUMPI PUSH0 PUSH0 REVERT JUMPDEST DUP4 CALLDATALOAD SWAP3 POP PUSH1 0x20 DUP5 ADD CALLDATALOAD SWAP2 POP PUSH2 0x4E4C PUSH1 0x40 DUP6 ADD PUSH2 0x4E13 JUMP JUMPDEST SWAP1 POP SWAP3 POP SWAP3 POP SWAP3 JUMP JUMPDEST PUSH0 DUP3 PUSH1 0x1F DUP4 ADD SLT PUSH2 0x4E64 JUMPI PUSH0 PUSH0 REVERT JUMPDEST DUP2 CALLDATALOAD PUSH2 0x4E72 PUSH2 0x49A0 DUP3 PUSH2 0x4961 JUMP JUMPDEST DUP1 DUP3 DUP3 MSTORE PUSH1 0x20 DUP3 ADD SWAP2 POP PUSH1 0x20 DUP4 PUSH1 0x5 SHL DUP7 ADD ADD SWAP3 POP DUP6 DUP4 GT ISZERO PUSH2 0x4E93 JUMPI PUSH0 PUSH0 REVERT JUMPDEST PUSH1 0x20 DUP6 ADD JUMPDEST DUP4 DUP2 LT ISZERO PUSH2 0x49E3 JUMPI PUSH2 0x4EA9 DUP2 PUSH2 0x4AB3 JUMP JUMPDEST DUP4 MSTORE PUSH1 0x20 SWAP3 DUP4 ADD SWAP3 ADD PUSH2 0x4E98 JUMP JUMPDEST PUSH0 DUP3 PUSH1 0x1F DUP4 ADD SLT PUSH2 0x4EC6 JUMPI PUSH0 PUSH0 REVERT JUMPDEST DUP2 CALLDATALOAD PUSH2 0x4ED4 PUSH2 0x49A0 DUP3 PUSH2 0x4961 JUMP JUMPDEST DUP1 DUP3 DUP3 MSTORE PUSH1 0x20 DUP3 ADD SWAP2 POP PUSH1 0x20 DUP4 PUSH1 0x5 SHL DUP7 ADD ADD SWAP3 POP DUP6 DUP4 GT ISZERO PUSH2 0x4EF5 JUMPI PUSH0 PUSH0 REVERT JUMPDEST PUSH1 0x20 DUP6 ADD JUMPDEST DUP4 DUP2 LT ISZERO PUSH2 0x49E3 JUMPI DUP1 CALLDATALOAD PUSH2 0x4F0D DUP2 PUSH2 0x4CD7 JUMP JUMPDEST DUP4 MSTORE PUSH1 0x20 SWAP3 DUP4 ADD SWAP3 ADD PUSH2 0x4EFA JUMP JUMPDEST PUSH0 DUP3 PUSH1 0x1F DUP4 ADD SLT PUSH2 0x4F2A JUMPI PUSH0 PUSH0 REVERT JUMPDEST DUP2 CALLDATALOAD PUSH2 0x4F38 PUSH2 0x49A0 DUP3 PUSH2 0x4961 JUMP JUMPDEST DUP1 DUP3 DUP3 MSTORE PUSH1 0x20 DUP3 ADD SWAP2 POP PUSH1 0x20 DUP4 PUSH1 0x5 SHL DUP7 ADD ADD SWAP3 POP DUP6 DUP4 GT ISZERO PUSH2 0x4F59 JUMPI PUSH0 PUSH0 REVERT JUMPDEST PUSH1 0x20 DUP6 ADD JUMPDEST DUP4 DUP2 LT ISZERO PUSH2 0x49E3 JUMPI DUP1 CALLDATALOAD PUSH1 0x1 PUSH1 0x1 PUSH1 0x40 SHL SUB DUP2 GT ISZERO PUSH2 0x4F7B JUMPI PUSH0 PUSH0 REVERT JUMPDEST PUSH2 0x4F8A DUP9 PUSH1 0x20 DUP4 DUP11 ADD ADD PUSH2 0x4C1C JUMP JUMPDEST DUP5 MSTORE POP PUSH1 0x20 SWAP3 DUP4 ADD SWAP3 ADD PUSH2 0x4F5E JUMP JUMPDEST PUSH0 PUSH0 PUSH0 PUSH0 PUSH0 PUSH1 0xA0 DUP7 DUP9 SUB SLT ISZERO PUSH2 0x4FAD JUMPI PUSH0 PUSH0 REVERT JUMPDEST DUP6 CALLDATALOAD PUSH1 0x1 PUSH1 0x1 PUSH1 0x40 SHL SUB DUP2 GT ISZERO PUSH2 0x4FC2 JUMPI PUSH0 PUSH0 REVERT JUMPDEST PUSH2 0x4FCE DUP9 DUP3 DUP10 ADD PUSH2 0x4E55 JUMP JUMPDEST SWAP6 POP POP PUSH1 0x20 DUP7 ADD CALLDATALOAD PUSH1 0x1 PUSH1 0x1 PUSH1 0x40 SHL SUB DUP2 GT ISZERO PUSH2 0x4FE9 JUMPI PUSH0 PUSH0 REVERT JUMPDEST PUSH2 0x4FF5 DUP9 DUP3 DUP10 ADD PUSH2 0x4E55 JUMP JUMPDEST SWAP5 POP POP PUSH1 0x40 DUP7 ADD CALLDATALOAD PUSH1 0x1 PUSH1 0x1 PUSH1 0x40 SHL SUB DUP2 GT ISZERO PUSH2 0x5010 JUMPI PUSH0 PUSH0 REVERT JUMPDEST PUSH2 0x501C DUP9 DUP3 DUP10 ADD PUSH2 0x4983 JUMP JUMPDEST SWAP4 POP POP PUSH1 0x60 DUP7 ADD CALLDATALOAD PUSH1 0x1 PUSH1 0x1 PUSH1 0x40 SHL SUB DUP2 GT ISZERO PUSH2 0x5037 JUMPI PUSH0 PUSH0 REVERT JUMPDEST PUSH2 0x5043 DUP9 DUP3 DUP10 ADD PUSH2 0x4EB7 JUMP JUMPDEST SWAP3 POP POP PUSH1 0x80 DUP7 ADD CALLDATALOAD PUSH1 0x1 PUSH1 0x1 PUSH1 0x40 SHL SUB DUP2 GT ISZERO PUSH2 0x505E JUMPI PUSH0 PUSH0 REVERT JUMPDEST PUSH2 0x4D4C DUP9 DUP3 DUP10 ADD PUSH2 0x4F1B JUMP JUMPDEST PUSH0 PUSH0 PUSH0 PUSH1 0x60 DUP5 DUP7 SUB SLT ISZERO PUSH2 0x507C JUMPI PUSH0 PUSH0 REVERT JUMPDEST PUSH2 0x5085 DUP5 PUSH2 0x4AB3 JUMP JUMPDEST SWAP3 POP PUSH1 0x20 DUP5 ADD CALLDATALOAD SWAP2 POP PUSH1 0x40 DUP5 ADD CALLDATALOAD PUSH1 0x1 PUSH1 0x1 PUSH1 0x40 SHL SUB DUP2 GT ISZERO PUSH2 0x4D8E JUMPI PUSH0 PUSH0 REVERT JUMPDEST PUSH0 PUSH0 PUSH1 0x40 DUP4 DUP6 SUB SLT ISZERO PUSH2 0x50B7 JUMPI PUSH0 PUSH0 REVERT JUMPDEST DUP3 CALLDATALOAD PUSH1 0x1 PUSH1 0x1 PUSH1 0x40 SHL SUB DUP2 GT ISZERO PUSH2 0x50CC JUMPI PUSH0 PUSH0 REVERT JUMPDEST PUSH2 0x50D8 DUP6 DUP3 DUP7 ADD PUSH2 0x4983 JUMP JUMPDEST SWAP3 POP POP PUSH1 0x20 DUP4 ADD CALLDATALOAD PUSH1 0x1 PUSH1 0x1 PUSH1 0x40 SHL SUB DUP2 GT ISZERO PUSH2 0x50F3 JUMPI PUSH0 PUSH0 REVERT JUMPDEST PUSH2 0x4A46 DUP6 DUP3 DUP7 ADD PUSH2 0x4F1B JUMP JUMPDEST PUSH1 0x20 DUP1 DUP3 MSTORE DUP3 MLOAD DUP3 DUP3 ADD DUP2 SWAP1 MSTORE PUSH0 SWAP2 DUP5 ADD SWAP1 PUSH1 0x40 DUP5 ADD SWAP1 DUP4 JUMPDEST DUP2 DUP2 LT ISZERO PUSH2 0x4CCC JUMPI DUP4 MLOAD DUP4 MSTORE PUSH1 0x20 SWAP4 DUP5 ADD SWAP4 SWAP1 SWAP3 ADD SWAP2 PUSH1 0x1 ADD PUSH2 0x5118 JUMP JUMPDEST PUSH0 PUSH0 PUSH0 PUSH1 0x60 DUP5 DUP7 SUB SLT ISZERO PUSH2 0x5148 JUMPI PUSH0 PUSH0 REVERT JUMPDEST DUP4 CALLDATALOAD PUSH1 0x1 PUSH1 0x1 PUSH1 0x40 SHL SUB DUP2 GT ISZERO PUSH2 0x515D JUMPI PUSH0 PUSH0 REVERT JUMPDEST PUSH2 0x5169 DUP7 DUP3 DUP8 ADD PUSH2 0x4983 JUMP JUMPDEST SWAP4 POP POP PUSH1 0x20 DUP5 ADD CALLDATALOAD PUSH1 0x1 PUSH1 0x1 PUSH1 0x40 SHL SUB DUP2 GT ISZERO PUSH2 0x5184 JUMPI PUSH0 PUSH0 REVERT JUMPDEST PUSH2 0x5190 DUP7 DUP3 DUP8 ADD PUSH2 0x4983 JUMP JUMPDEST SWAP3 POP POP PUSH1 0x40 DUP5 ADD CALLDATALOAD PUSH1 0x1 PUSH1 0x1 PUSH1 0x40 SHL SUB DUP2 GT ISZERO PUSH2 0x51AB JUMPI PUSH0 PUSH0 REVERT JUMPDEST PUSH2 0x4D9A DUP7 DUP3 DUP8 ADD PUSH2 0x4F1B JUMP JUMPDEST PUSH0 PUSH0 PUSH0 PUSH0 PUSH0 PUSH1 0xA0 DUP7 DUP9 SUB SLT ISZERO PUSH2 0x51CB JUMPI PUSH0 PUSH0 REVERT JUMPDEST DUP6 CALLDATALOAD SWAP5 POP PUSH1 0x20 DUP7 ADD CALLDATALOAD PUSH1 0x1 PUSH1 0x1 PUSH1 0x40 SHL SUB DUP2 GT ISZERO PUSH2 0x51E7 JUMPI PUSH0 PUSH0 REVERT JUMPDEST DUP7 ADD PUSH1 0x1F DUP2 ADD DUP9 SGT PUSH2 0x51F7 JUMPI PUSH0 PUSH0 REVERT JUMPDEST PUSH2 0x5206 DUP9 DUP3 CALLDATALOAD PUSH1 0x20 DUP5 ADD PUSH2 0x4BE6 JUMP JUMPDEST SWAP5 POP POP PUSH1 0x40 DUP7 ADD CALLDATALOAD SWAP3 POP PUSH1 0x60 DUP7 ADD CALLDATALOAD SWAP2 POP PUSH2 0x5223 PUSH1 0x80 DUP8 ADD PUSH2 0x4AB3 JUMP JUMPDEST SWAP1 POP SWAP3 SWAP6 POP SWAP3 SWAP6 SWAP1 SWAP4 POP JUMP JUMPDEST PUSH1 0x80 DUP2 MSTORE PUSH0 PUSH2 0x5241 PUSH1 0x80 DUP4 ADD DUP8 PUSH2 0x48B4 JUMP JUMPDEST PUSH1 0x20 DUP4 ADD SWAP6 SWAP1 SWAP6 MSTORE POP PUSH1 0x40 DUP2 ADD SWAP3 SWAP1 SWAP3 MSTORE PUSH1 0x1 PUSH1 0x1 PUSH1 0xA0 SHL SUB AND PUSH1 0x60 SWAP1 SWAP2 ADD MSTORE SWAP2 SWAP1 POP JUMP JUMPDEST PUSH0 PUSH0 PUSH0 PUSH0 PUSH1 0x80 DUP6 DUP8 SUB SLT ISZERO PUSH2 0x5279 JUMPI PUSH0 PUSH0 REVERT JUMPDEST PUSH2 0x5282 DUP6 PUSH2 0x4AB3 JUMP JUMPDEST SWAP4 POP PUSH1 0x20 DUP6 ADD CALLDATALOAD SWAP3 POP PUSH1 0x40 DUP6 ADD CALLDATALOAD PUSH2 0x5299 DUP2 PUSH2 0x4CD7 JUMP JUMPDEST SWAP2 POP PUSH1 0x60 DUP6 ADD CALLDATALOAD PUSH1 0x1 PUSH1 0x1 PUSH1 0x40 SHL SUB DUP2 GT ISZERO PUSH2 0x52B3 JUMPI PUSH0 PUSH0 REVERT JUMPDEST PUSH2 0x52BF DUP8 DUP3 DUP9 ADD PUSH2 0x4C1C JUMP JUMPDEST SWAP2 POP POP SWAP3 SWAP6 SWAP2 SWAP5 POP SWAP3 POP JUMP JUMPDEST PUSH0 PUSH1 0x20 DUP3 DUP5 SUB SLT ISZERO PUSH2 0x52DB JUMPI PUSH0 PUSH0 REVERT JUMPDEST DUP2 CALLDATALOAD PUSH1 0x1 PUSH1 0x1 PUSH1 0x40 SHL SUB DUP2 GT ISZERO PUSH2 0x52F0 JUMPI PUSH0 PUSH0 REVERT JUMPDEST PUSH2 0x4260 DUP5 DUP3 DUP6 ADD PUSH2 0x4983 JUMP JUMPDEST PUSH0 PUSH0 PUSH1 0x40 DUP4 DUP6 SUB SLT ISZERO PUSH2 0x530D JUMPI PUSH0 PUSH0 REVERT JUMPDEST DUP3 CALLDATALOAD PUSH1 0x1 PUSH1 0x1 PUSH1 0x40 SHL SUB DUP2 GT ISZERO PUSH2 0x5322 JUMPI PUSH0 PUSH0 REVERT JUMPDEST PUSH2 0x532E DUP6 DUP3 DUP7 ADD PUSH2 0x4E55 JUMP JUMPDEST SWAP3 POP POP PUSH2 0x533D PUSH1 0x20 DUP5 ADD PUSH2 0x4E13 JUMP JUMPDEST SWAP1 POP SWAP3 POP SWAP3 SWAP1 POP JUMP JUMPDEST PUSH0 PUSH1 0x20 DUP3 DUP5 SUB SLT ISZERO PUSH2 0x5356 JUMPI PUSH0 PUSH0 REVERT JUMPDEST PUSH2 0x1AC9 DUP3 PUSH2 0x4E13 JUMP JUMPDEST DUP4 DUP6 DUP3 CALLDATACOPY PUSH1 0x60 SWAP3 SWAP1 SWAP3 SHL PUSH1 0x1 PUSH1 0x1 PUSH1 0x60 SHL SUB NOT AND SWAP2 SWAP1 SWAP3 ADD SWAP1 DUP2 MSTORE PUSH1 0x14 DUP2 ADD SWAP2 SWAP1 SWAP2 MSTORE PUSH1 0x34 ADD SWAP2 SWAP1 POP JUMP JUMPDEST PUSH0 DUP3 MLOAD DUP1 PUSH1 0x20 DUP6 ADD DUP5 MCOPY PUSH0 SWAP3 ADD SWAP2 DUP3 MSTORE POP SWAP2 SWAP1 POP JUMP JUMPDEST PUSH4 0x4E487B71 PUSH1 0xE0 SHL PUSH0 MSTORE PUSH1 0x11 PUSH1 0x4 MSTORE PUSH1 0x24 PUSH0 REVERT JUMPDEST DUP1 DUP3 ADD DUP1 DUP3 GT ISZERO PUSH2 0xD5C JUMPI PUSH2 0xD5C PUSH2 0x53A0 JUMP JUMPDEST PUSH0 PUSH1 0x20 DUP3 DUP5 SUB SLT ISZERO PUSH2 0x53D7 JUMPI PUSH0 PUSH0 REVERT JUMPDEST POP MLOAD SWAP2 SWAP1 POP JUMP JUMPDEST DUP1 DUP3 MUL DUP2 ISZERO DUP3 DUP3 DIV DUP5 EQ OR PUSH2 0xD5C JUMPI PUSH2 0xD5C PUSH2 0x53A0 JUMP JUMPDEST PUSH1 0x1 PUSH1 0x1 PUSH1 0xA0 SHL SUB SWAP3 DUP4 AND DUP2 MSTORE SWAP2 AND PUSH1 0x20 DUP3 ADD MSTORE PUSH1 0x40 ADD SWAP1 JUMP JUMPDEST PUSH0 PUSH1 0x20 DUP3 DUP5 SUB SLT ISZERO PUSH2 0x541F JUMPI PUSH0 PUSH0 REVERT JUMPDEST DUP2 MLOAD PUSH2 0x1AC9 DUP2 PUSH2 0x4CD7 JUMP JUMPDEST PUSH4 0x4E487B71 PUSH1 0xE0 SHL PUSH0 MSTORE PUSH1 0x32 PUSH1 0x4 MSTORE PUSH1 0x24 PUSH0 REVERT JUMPDEST PUSH1 0xFF DUP3 DUP2 AND DUP3 DUP3 AND SUB SWAP1 DUP2 GT ISZERO PUSH2 0xD5C JUMPI PUSH2 0xD5C PUSH2 0x53A0 JUMP JUMPDEST PUSH1 0x1 DUP2 DUP2 SHR SWAP1 DUP3 AND DUP1 PUSH2 0x546B JUMPI PUSH1 0x7F DUP3 AND SWAP2 POP JUMPDEST PUSH1 0x20 DUP3 LT DUP2 SUB PUSH2 0x36CE JUMPI PUSH4 0x4E487B71 PUSH1 0xE0 SHL PUSH0 MSTORE PUSH1 0x22 PUSH1 0x4 MSTORE PUSH1 0x24 PUSH0 REVERT JUMPDEST PUSH1 0x1 PUSH1 0x1 PUSH1 0xA0 SHL SUB SWAP5 DUP6 AND DUP2 MSTORE SWAP3 SWAP1 SWAP4 AND PUSH1 0x20 DUP4 ADD MSTORE PUSH1 0x40 DUP3 ADD MSTORE SWAP1 ISZERO ISZERO PUSH1 0x60 DUP3 ADD MSTORE PUSH1 0xA0 PUSH1 0x80 DUP3 ADD DUP2 SWAP1 MSTORE PUSH0 SWAP1 DUP3 ADD MSTORE PUSH1 0xC0 ADD SWAP1 JUMP JUMPDEST PUSH1 0xFF DUP2 DUP2 AND DUP4 DUP3 AND ADD SWAP1 DUP2 GT ISZERO PUSH2 0xD5C JUMPI PUSH2 0xD5C PUSH2 0x53A0 JUMP JUMPDEST PUSH1 0x1 DUP1 PUSH1 0xA0 SHL SUB DUP5 AND DUP2 MSTORE DUP3 PUSH1 0x20 DUP3 ADD MSTORE PUSH1 0x60 PUSH1 0x40 DUP3 ADD MSTORE PUSH0 PUSH2 0x54FF PUSH1 0x60 DUP4 ADD DUP5 PUSH2 0x48B4 JUMP JUMPDEST SWAP6 SWAP5 POP POP POP POP POP JUMP JUMPDEST PUSH0 PUSH0 DUP4 CALLDATALOAD PUSH1 0x1E NOT DUP5 CALLDATASIZE SUB ADD DUP2 SLT PUSH2 0x551D JUMPI PUSH0 PUSH0 REVERT JUMPDEST DUP4 ADD DUP1 CALLDATALOAD SWAP2 POP PUSH1 0x1 PUSH1 0x1 PUSH1 0x40 SHL SUB DUP3 GT ISZERO PUSH2 0x5536 JUMPI PUSH0 PUSH0 REVERT JUMPDEST PUSH1 0x20 ADD SWAP2 POP CALLDATASIZE DUP2 SWAP1 SUB DUP3 SGT ISZERO PUSH2 0x554A JUMPI PUSH0 PUSH0 REVERT JUMPDEST SWAP3 POP SWAP3 SWAP1 POP JUMP JUMPDEST DUP2 DUP4 DUP3 CALLDATACOPY PUSH0 SWAP2 ADD SWAP1 DUP2 MSTORE SWAP2 SWAP1 POP JUMP JUMPDEST PUSH1 0x1 PUSH1 0x1 PUSH1 0xA0 SHL SUB DUP7 DUP2 AND DUP3 MSTORE DUP6 AND PUSH1 0x20 DUP3 ADD MSTORE PUSH1 0x40 DUP2 ADD DUP5 SWAP1 MSTORE DUP3 ISZERO ISZERO PUSH1 0x60 DUP3 ADD MSTORE PUSH1 0xA0 PUSH1 0x80 DUP3 ADD DUP2 SWAP1 MSTORE PUSH0 SWAP1 PUSH2 0x4317 SWAP1 DUP4 ADD DUP5 PUSH2 0x48B4 JUMP JUMPDEST PUSH1 0x1F DUP3 GT ISZERO PUSH2 0x329E JUMPI DUP1 PUSH0 MSTORE PUSH1 0x20 PUSH0 KECCAK256 PUSH1 0x1F DUP5 ADD PUSH1 0x5 SHR DUP2 ADD PUSH1 0x20 DUP6 LT ISZERO PUSH2 0x55BF JUMPI POP DUP1 JUMPDEST PUSH1 0x1F DUP5 ADD PUSH1 0x5 SHR DUP3 ADD SWAP2 POP JUMPDEST DUP2 DUP2 LT ISZERO PUSH2 0x23D4 JUMPI PUSH0 DUP2 SSTORE PUSH1 0x1 ADD PUSH2 0x55CB JUMP JUMPDEST DUP2 MLOAD PUSH1 0x1 PUSH1 0x1 PUSH1 0x40 SHL SUB DUP2 GT ISZERO PUSH2 0x55F7 JUMPI PUSH2 0x55F7 PUSH2 0x48F4 JUMP JUMPDEST PUSH2 0x560B DUP2 PUSH2 0x5605 DUP5 SLOAD PUSH2 0x5457 JUMP JUMPDEST DUP5 PUSH2 0x559A JUMP JUMPDEST PUSH1 0x20 PUSH1 0x1F DUP3 GT PUSH1 0x1 DUP2 EQ PUSH2 0x563D JUMPI PUSH0 DUP4 ISZERO PUSH2 0x5626 JUMPI POP DUP5 DUP3 ADD MLOAD JUMPDEST PUSH0 NOT PUSH1 0x3 DUP6 SWAP1 SHL SHR NOT AND PUSH1 0x1 DUP5 SWAP1 SHL OR DUP5 SSTORE PUSH2 0x23D4 JUMP JUMPDEST PUSH0 DUP5 DUP2 MSTORE PUSH1 0x20 DUP2 KECCAK256 PUSH1 0x1F NOT DUP6 AND SWAP2 JUMPDEST DUP3 DUP2 LT ISZERO PUSH2 0x566C JUMPI DUP8 DUP6 ADD MLOAD DUP3 SSTORE PUSH1 0x20 SWAP5 DUP6 ADD SWAP5 PUSH1 0x1 SWAP1 SWAP3 ADD SWAP2 ADD PUSH2 0x564C JUMP JUMPDEST POP DUP5 DUP3 LT ISZERO PUSH2 0x5689 JUMPI DUP7 DUP5 ADD MLOAD PUSH0 NOT PUSH1 0x3 DUP8 SWAP1 SHL PUSH1 0xF8 AND SHR NOT AND DUP2 SSTORE JUMPDEST POP POP POP POP PUSH1 0x1 SWAP1 DUP2 SHL ADD SWAP1 SSTORE POP JUMP JUMPDEST PUSH1 0x1 DUP1 PUSH1 0xA0 SHL SUB DUP6 AND DUP2 MSTORE DUP4 PUSH1 0x20 DUP3 ADD MSTORE DUP3 ISZERO ISZERO PUSH1 0x40 DUP3 ADD MSTORE PUSH1 0x80 PUSH1 0x60 DUP3 ADD MSTORE PUSH0 PUSH2 0x56C6 PUSH1 0x80 DUP4 ADD DUP5 PUSH2 0x48B4 JUMP JUMPDEST SWAP7 SWAP6 POP POP POP POP POP POP JUMP JUMPDEST DUP2 DUP2 SUB DUP2 DUP2 GT ISZERO PUSH2 0xD5C JUMPI PUSH2 0xD5C PUSH2 0x53A0 JUMP JUMPDEST DUP1 MLOAD PUSH1 0x20 DUP3 ADD MLOAD PUSH1 0x1 PUSH1 0x1 PUSH1 0x60 SHL SUB NOT DUP2 AND SWAP2 SWAP1 PUSH1 0x14 DUP3 LT ISZERO PUSH2 0x572A JUMPI PUSH12 0xFFFFFFFFFFFFFFFFFFFFFFFF NOT PUSH12 0xFFFFFFFFFFFFFFFFFFFFFFFF NOT DUP4 PUSH1 0x14 SUB PUSH1 0x3 SHL SHL DUP3 AND AND SWAP3 POP JUMPDEST POP POP SWAP2 SWAP1 POP JUMP JUMPDEST PUSH0 PUSH1 0x1 DUP3 ADD PUSH2 0x5742 JUMPI PUSH2 0x5742 PUSH2 0x53A0 JUMP JUMPDEST POP PUSH1 0x1 ADD SWAP1 JUMP JUMPDEST PUSH1 0x1 PUSH1 0x1 PUSH1 0xA0 SHL SUB DUP5 AND DUP2 MSTORE DUP3 ISZERO ISZERO PUSH1 0x20 DUP3 ADD MSTORE PUSH1 0x60 PUSH1 0x40 DUP3 ADD DUP2 SWAP1 MSTORE PUSH0 SWAP1 PUSH2 0x54FF SWAP1 DUP4 ADD DUP5 PUSH2 0x48B4 JUMP JUMPDEST PUSH1 0x1 PUSH1 0x1 PUSH1 0xA0 SHL SUB DUP7 DUP2 AND DUP3 MSTORE DUP6 DUP2 AND PUSH1 0x20 DUP4 ADD MSTORE DUP5 AND PUSH1 0x40 DUP3 ADD MSTORE PUSH1 0x60 DUP2 ADD DUP4 SWAP1 MSTORE PUSH1 0xA0 PUSH1 0x80 DUP3 ADD DUP2 SWAP1 MSTORE PUSH0 SWAP1 PUSH2 0x4317 SWAP1 DUP4 ADD DUP5 PUSH2 0x48B4 JUMP JUMPDEST DUP3 ISZERO ISZERO DUP2 MSTORE PUSH1 0x40 PUSH1 0x20 DUP3 ADD MSTORE PUSH0 PUSH2 0x4260 PUSH1 0x40 DUP4 ADD DUP5 PUSH2 0x48B4 JUMP JUMPDEST DUP1 MLOAD PUSH1 0x20 DUP1 DUP4 ADD MLOAD SWAP2 SWAP1 DUP2 LT ISZERO PUSH2 0x36CE JUMPI PUSH0 NOT PUSH1 0x20 SWAP2 SWAP1 SWAP2 SUB PUSH1 0x3 SHL SHL AND SWAP2 SWAP1 POP JUMP JUMPDEST DUP3 DUP2 MSTORE PUSH1 0x40 PUSH1 0x20 DUP3 ADD MSTORE PUSH0 PUSH2 0x4260 PUSH1 0x40 DUP4 ADD DUP5 PUSH2 0x48B4 JUMP JUMPDEST PUSH0 PUSH1 0x20 DUP3 DUP5 SUB SLT ISZERO PUSH2 0x5813 JUMPI PUSH0 PUSH0 REVERT JUMPDEST DUP2 MLOAD PUSH1 0x1 PUSH1 0x1 PUSH1 0x40 SHL SUB DUP2 GT ISZERO PUSH2 0x5828 JUMPI PUSH0 PUSH0 REVERT JUMPDEST DUP3 ADD PUSH1 0x1F DUP2 ADD DUP5 SGT PUSH2 0x5838 JUMPI PUSH0 PUSH0 REVERT JUMPDEST DUP1 MLOAD PUSH2 0x5846 PUSH2 0x49A0 DUP3 PUSH2 0x4BC0 JUMP JUMPDEST DUP2 DUP2 MSTORE DUP6 PUSH1 0x20 DUP4 DUP6 ADD ADD GT ISZERO PUSH2 0x585A JUMPI PUSH0 PUSH0 REVERT JUMPDEST DUP2 PUSH1 0x20 DUP5 ADD PUSH1 0x20 DUP4 ADD MCOPY PUSH0 SWAP2 DUP2 ADD PUSH1 0x20 ADD SWAP2 SWAP1 SWAP2 MSTORE SWAP5 SWAP4 POP POP POP POP JUMP JUMPDEST PUSH4 0x4E487B71 PUSH1 0xE0 SHL PUSH0 MSTORE PUSH1 0x31 PUSH1 0x4 MSTORE PUSH1 0x24 PUSH0 REVERT INVALID LOG2 PUSH5 0x6970667358 0x22 SLT KECCAK256 PUSH28 0x2D020A6A1286CB42F87B9C25036A34004DB2E2661150CBC9D42BB839 GASPRICE ADDMOD 0xD4 PUSH5 0x736F6C6343 STOP ADDMOD 0x1E STOP CALLER "
		},
		"gasEstimates": {
			"creation": {
				"codeDepositCost": "4544200",
				"executionCost": "infinite",
				"totalCost": "infinite"
			},
			"external": {
				"": "infinite",
				"ARATTALABS()": "2448",
				"ARFI()": "2425",
				"DACHRIZ()": "2470",
				"FISH()": "2468",
				"FISHCAN()": "2469",
				"FOLLOWING()": "2403",
				"LUKSEALS()": "2404",
				"MADSKI()": "2449",
				"MAX_SUPPLY()": "329",
				"MEMBER_CARD()": "2470",
				"PHASE_ONE_TWO_SUPPLY_CAP()": "314",
				"PPT()": "2384",
				"RICH()": "2404",
				"VERSION()": "infinite",
				"activePhase()": "2408",
				"authorizeOperator(address,bytes32,bytes)": "infinite",
				"balanceOf(address)": "infinite",
				"batchCalls(bytes[])": "infinite",
				"burnFish(bytes32,uint256,bytes)": "infinite",
				"getData(bytes32)": "infinite",
				"getDataBatch(bytes32[])": "infinite",
				"getDataBatchForTokenIds(bytes32[],bytes32[])": "infinite",
				"getDataForTokenId(bytes32,bytes32)": "infinite",
				"getOperatorsOf(bytes32)": "infinite",
				"initialize()": "infinite",
				"initialized()": "2367",
				"isOperatorFor(address,bytes32)": "infinite",
				"lastTap(address)": "2606",
				"level(bytes32)": "4695",
				"levelDown(bytes32,bytes)": "infinite",
				"levelPrice(uint8)": "2637",
				"levelUp(bytes32,bytes)": "infinite",
				"mintCount(address,bytes32)": "2713",
				"mintWithMetadata(bytes32,bytes)": "infinite",
				"owner()": "2419",
				"pauseMinting()": "infinite",
				"paused()": "2382",
				"phases(bytes32)": "infinite",
				"renounceOwnership()": "infinite",
				"revokeOperator(address,bytes32,bool,bytes)": "infinite",
				"setData(bytes32,bytes)": "infinite",
				"setDataBatch(bytes32[],bytes[])": "infinite",
				"setDataBatchForTokenIds(bytes32[],bytes32[],bytes[])": "infinite",
				"setDataForTokenId(bytes32,bytes32,bytes)": "infinite",
				"supportsInterface(bytes4)": "infinite",
				"tapIt(bytes32)": "infinite",
				"tokenIdCounter()": "2387",
				"tokenIdsOf(address)": "infinite",
				"tokenOwnerOf(bytes32)": "2579",
				"totalSupply()": "2404",
				"transfer(address,address,bytes32,bool,bytes)": "infinite",
				"transferBatch(address[],address[],bytes32[],bool[],bytes[])": "infinite",
				"transferLSP7Token(address,address,uint256,bool,bytes)": "infinite",
				"transferOwnership(address)": "32688",
				"unpauseMinting()": "infinite",
				"updateActivePhase(bytes32)": "24587",
				"updateAddresses((address,address,address,address,address,address,address,address,address,address))": "infinite",
				"updatePPT(uint256)": "25695",
				"updatePhase(bytes32,string,uint256,uint256,address)": "infinite",
				"updatePoint(bytes32,uint256,uint8)": "55165",
				"updateWhitelist(address[],uint8)": "infinite",
				"whitelist(address)": "2643",
				"withdrawAll()": "infinite"
			}
		},
		"methodIdentifiers": {
			"ARATTALABS()": "5cb42de1",
			"ARFI()": "ac91e5a5",
			"DACHRIZ()": "961183c4",
			"FISH()": "ffcff32c",
			"FISHCAN()": "af6bb1e4",
			"FOLLOWING()": "ac7e0321",
			"LUKSEALS()": "605cb601",
			"MADSKI()": "83f63c97",
			"MAX_SUPPLY()": "32cb6b0c",
			"MEMBER_CARD()": "403e6fa6",
			"PHASE_ONE_TWO_SUPPLY_CAP()": "e3bc1cc3",
			"PPT()": "678b2012",
			"RICH()": "5a1da9a4",
			"VERSION()": "ffa1ad74",
			"activePhase()": "0e1b26c6",
			"authorizeOperator(address,bytes32,bytes)": "86a10ddd",
			"balanceOf(address)": "70a08231",
			"batchCalls(bytes[])": "6963d438",
			"burnFish(bytes32,uint256,bytes)": "5fa3c36d",
			"getData(bytes32)": "54f6127f",
			"getDataBatch(bytes32[])": "dedff9c6",
			"getDataBatchForTokenIds(bytes32[],bytes32[])": "1d26fce6",
			"getDataForTokenId(bytes32,bytes32)": "16e023b3",
			"getOperatorsOf(bytes32)": "49a6078d",
			"initialize()": "8129fc1c",
			"initialized()": "158ef93e",
			"isOperatorFor(address,bytes32)": "2a3654a4",
			"lastTap(address)": "369596d2",
			"level(bytes32)": "d34fbc9b",
			"levelDown(bytes32,bytes)": "343c71fb",
			"levelPrice(uint8)": "ecabdf79",
			"levelUp(bytes32,bytes)": "fabf4b16",
			"mintCount(address,bytes32)": "cb92337d",
			"mintWithMetadata(bytes32,bytes)": "3c20f76d",
			"owner()": "8da5cb5b",
			"pauseMinting()": "da8fbf2a",
			"paused()": "5c975abb",
			"phases(bytes32)": "dafe43f1",
			"renounceOwnership()": "715018a6",
			"revokeOperator(address,bytes32,bool,bytes)": "db8c9663",
			"setData(bytes32,bytes)": "7f23690c",
			"setDataBatch(bytes32[],bytes[])": "97902421",
			"setDataBatchForTokenIds(bytes32[],bytes32[],bytes[])": "be9f0e6f",
			"setDataForTokenId(bytes32,bytes32,bytes)": "d6c1407c",
			"supportsInterface(bytes4)": "01ffc9a7",
			"tapIt(bytes32)": "09edf481",
			"tokenIdCounter()": "98bdf6f5",
			"tokenIdsOf(address)": "a3b261f2",
			"tokenOwnerOf(bytes32)": "217b2270",
			"totalSupply()": "18160ddd",
			"transfer(address,address,bytes32,bool,bytes)": "511b6952",
			"transferBatch(address[],address[],bytes32[],bool[],bytes[])": "7e87632c",
			"transferLSP7Token(address,address,uint256,bool,bytes)": "802c90c8",
			"transferOwnership(address)": "f2fde38b",
			"unpauseMinting()": "ae200322",
			"updateActivePhase(bytes32)": "44ae035a",
			"updateAddresses((address,address,address,address,address,address,address,address,address,address))": "3087c08f",
			"updatePPT(uint256)": "8e1f845c",
			"updatePhase(bytes32,string,uint256,uint256,address)": "d764c173",
			"updatePoint(bytes32,uint256,uint8)": "72a591f0",
			"updateWhitelist(address[],uint8)": "e1660bc8",
			"whitelist(address)": "9b19251a",
			"withdrawAll()": "853828b6"
		}
	},
	"abi": [
		{
			"inputs": [
				{
					"components": [
						{
							"internalType": "address",
							"name": "fish",
							"type": "address"
						},
						{
							"internalType": "address",
							"name": "memberCard",
							"type": "address"
						},
						{
							"internalType": "address",
							"name": "rich",
							"type": "address"
						},
						{
							"internalType": "address",
							"name": "fishcan",
							"type": "address"
						},
						{
							"internalType": "address",
							"name": "arattalabs",
							"type": "address"
						},
						{
							"internalType": "address",
							"name": "lukseals",
							"type": "address"
						},
						{
							"internalType": "address",
							"name": "madski",
							"type": "address"
						},
						{
							"internalType": "address",
							"name": "dachriz",
							"type": "address"
						},
						{
							"internalType": "address",
							"name": "arfi",
							"type": "address"
						},
						{
							"internalType": "address",
							"name": "following",
							"type": "address"
						}
					],
					"internalType": "struct LukSeals.ContractAddresses",
					"name": "_defaultAddresses",
					"type": "tuple"
				},
				{
					"internalType": "address[]",
					"name": "_whitelistedAddrs",
					"type": "address[]"
				}
			],
			"stateMutability": "nonpayable",
			"type": "constructor"
		},
		{
			"inputs": [],
			"name": "AlreadyAtMinLevel",
			"type": "error"
		},
		{
			"inputs": [],
			"name": "CooldownPeriodNotPassed",
			"type": "error"
		},
		{
			"inputs": [],
			"name": "ERC725Y_DataKeysValuesEmptyArray",
			"type": "error"
		},
		{
			"inputs": [],
			"name": "ERC725Y_DataKeysValuesLengthMismatch",
			"type": "error"
		},
		{
			"inputs": [],
			"name": "ERC725Y_MsgValueDisallowed",
			"type": "error"
		},
		{
			"inputs": [],
			"name": "EnforcedPause",
			"type": "error"
		},
		{
			"inputs": [],
			"name": "ExpectedPause",
			"type": "error"
		},
		{
			"inputs": [
				{
					"internalType": "uint256",
					"name": "required",
					"type": "uint256"
				},
				{
					"internalType": "uint256",
					"name": "sent",
					"type": "uint256"
				}
			],
			"name": "InsufficientPayment",
			"type": "error"
		},
		{
			"inputs": [],
			"name": "InvalidAddress",
			"type": "error"
		},
		{
			"inputs": [
				{
					"internalType": "bytes",
					"name": "storedData",
					"type": "bytes"
				}
			],
			"name": "InvalidExtensionAddress",
			"type": "error"
		},
		{
			"inputs": [
				{
					"internalType": "bytes",
					"name": "data",
					"type": "bytes"
				}
			],
			"name": "InvalidFunctionSelector",
			"type": "error"
		},
		{
			"inputs": [],
			"name": "LSP4TokenNameNotEditable",
			"type": "error"
		},
		{
			"inputs": [],
			"name": "LSP4TokenSymbolNotEditable",
			"type": "error"
		},
		{
			"inputs": [],
			"name": "LSP4TokenTypeNotEditable",
			"type": "error"
		},
		{
			"inputs": [
				{
					"internalType": "uint256",
					"name": "callIndex",
					"type": "uint256"
				}
			],
			"name": "LSP8BatchCallFailed",
			"type": "error"
		},
		{
			"inputs": [],
			"name": "LSP8CannotSendToAddressZero",
			"type": "error"
		},
		{
			"inputs": [],
			"name": "LSP8CannotUseAddressZeroAsOperator",
			"type": "error"
		},
		{
			"inputs": [],
			"name": "LSP8InvalidTransferBatch",
			"type": "error"
		},
		{
			"inputs": [
				{
					"internalType": "bytes32",
					"name": "tokenId",
					"type": "bytes32"
				}
			],
			"name": "LSP8NonExistentTokenId",
			"type": "error"
		},
		{
			"inputs": [
				{
					"internalType": "address",
					"name": "operator",
					"type": "address"
				},
				{
					"internalType": "bytes32",
					"name": "tokenId",
					"type": "bytes32"
				}
			],
			"name": "LSP8NonExistingOperator",
			"type": "error"
		},
		{
			"inputs": [
				{
					"internalType": "bytes32",
					"name": "tokenId",
					"type": "bytes32"
				},
				{
					"internalType": "address",
					"name": "caller",
					"type": "address"
				}
			],
			"name": "LSP8NotTokenOperator",
			"type": "error"
		},
		{
			"inputs": [
				{
					"internalType": "address",
					"name": "tokenOwner",
					"type": "address"
				},
				{
					"internalType": "bytes32",
					"name": "tokenId",
					"type": "bytes32"
				},
				{
					"internalType": "address",
					"name": "caller",
					"type": "address"
				}
			],
			"name": "LSP8NotTokenOwner",
			"type": "error"
		},
		{
			"inputs": [
				{
					"internalType": "address",
					"name": "tokenReceiver",
					"type": "address"
				}
			],
			"name": "LSP8NotifyTokenReceiverContractMissingLSP1Interface",
			"type": "error"
		},
		{
			"inputs": [
				{
					"internalType": "address",
					"name": "tokenReceiver",
					"type": "address"
				}
			],
			"name": "LSP8NotifyTokenReceiverIsEOA",
			"type": "error"
		},
		{
			"inputs": [
				{
					"internalType": "address",
					"name": "operator",
					"type": "address"
				},
				{
					"internalType": "bytes32",
					"name": "tokenId",
					"type": "bytes32"
				}
			],
			"name": "LSP8OperatorAlreadyAuthorized",
			"type": "error"
		},
		{
			"inputs": [
				{
					"internalType": "address",
					"name": "caller",
					"type": "address"
				},
				{
					"internalType": "address",
					"name": "tokenOwner",
					"type": "address"
				},
				{
					"internalType": "bytes32",
					"name": "tokenId",
					"type": "bytes32"
				}
			],
			"name": "LSP8RevokeOperatorNotAuthorized",
			"type": "error"
		},
		{
			"inputs": [],
			"name": "LSP8TokenContractCannotHoldValue",
			"type": "error"
		},
		{
			"inputs": [
				{
					"internalType": "bytes32",
					"name": "tokenId",
					"type": "bytes32"
				}
			],
			"name": "LSP8TokenIdAlreadyMinted",
			"type": "error"
		},
		{
			"inputs": [],
			"name": "LSP8TokenIdFormatNotEditable",
			"type": "error"
		},
		{
			"inputs": [],
			"name": "LSP8TokenIdsDataEmptyArray",
			"type": "error"
		},
		{
			"inputs": [],
			"name": "LSP8TokenIdsDataLengthMismatch",
			"type": "error"
		},
		{
			"inputs": [],
			"name": "LSP8TokenOwnerCannotBeOperator",
			"type": "error"
		},
		{
			"inputs": [
				{
					"internalType": "bytes32",
					"name": "tokenId",
					"type": "bytes32"
				},
				{
					"internalType": "address",
					"name": "oldOwner",
					"type": "address"
				},
				{
					"internalType": "address",
					"name": "newOwner",
					"type": "address"
				}
			],
			"name": "LSP8TokenOwnerChanged",
			"type": "error"
		},
		{
			"inputs": [],
			"name": "MaxLevelReached",
			"type": "error"
		},
		{
			"inputs": [],
			"name": "MaxMintExceeded",
			"type": "error"
		},
		{
			"inputs": [],
			"name": "MaxMintPerWalletExceeded",
			"type": "error"
		},
		{
			"inputs": [],
			"name": "MaxSupplyExceeded",
			"type": "error"
		},
		{
			"inputs": [
				{
					"internalType": "bytes4",
					"name": "functionSelector",
					"type": "bytes4"
				}
			],
			"name": "NoExtensionFoundForFunctionSelector",
			"type": "error"
		},
		{
			"inputs": [],
			"name": "NotAMemberCardHolder",
			"type": "error"
		},
		{
			"inputs": [
				{
					"internalType": "uint256",
					"name": "requiredXP",
					"type": "uint256"
				},
				{
					"internalType": "uint256",
					"name": "currentXP",
					"type": "uint256"
				}
			],
			"name": "NotEnoughXP",
			"type": "error"
		},
		{
			"inputs": [],
			"name": "NotWhitelisted",
			"type": "error"
		},
		{
			"inputs": [
				{
					"internalType": "address",
					"name": "callerAddress",
					"type": "address"
				}
			],
			"name": "OwnableCallerNotTheOwner",
			"type": "error"
		},
		{
			"inputs": [],
			"name": "OwnableCannotSetZeroAddressAsOwner",
			"type": "error"
		},
		{
			"inputs": [],
			"name": "PhaseNotActive",
			"type": "error"
		},
		{
			"inputs": [],
			"name": "PhaseSupplyExceeded",
			"type": "error"
		},
		{
			"inputs": [],
			"name": "ReentrancyGuardReentrantCall",
			"type": "error"
		},
		{
			"anonymous": false,
			"inputs": [
				{
					"indexed": true,
					"internalType": "address",
					"name": "fish",
					"type": "address"
				},
				{
					"indexed": true,
					"internalType": "address",
					"name": "memberCard",
					"type": "address"
				},
				{
					"indexed": true,
					"internalType": "address",
					"name": "rich",
					"type": "address"
				},
				{
					"indexed": false,
					"internalType": "address",
					"name": "fishcan",
					"type": "address"
				},
				{
					"indexed": false,
					"internalType": "address",
					"name": "arattalabs",
					"type": "address"
				},
				{
					"indexed": false,
					"internalType": "address",
					"name": "lukseals",
					"type": "address"
				},
				{
					"indexed": false,
					"internalType": "address",
					"name": "madski",
					"type": "address"
				},
				{
					"indexed": false,
					"internalType": "address",
					"name": "dachriz",
					"type": "address"
				},
				{
					"indexed": false,
					"internalType": "address",
					"name": "arfi",
					"type": "address"
				},
				{
					"indexed": false,
					"internalType": "address",
					"name": "following",
					"type": "address"
				}
			],
			"name": "AddressesUpdated",
			"type": "event"
		},
		{
			"anonymous": false,
			"inputs": [
				{
					"indexed": true,
					"internalType": "bytes32",
					"name": "dataKey",
					"type": "bytes32"
				},
				{
					"indexed": false,
					"internalType": "bytes",
					"name": "dataValue",
					"type": "bytes"
				}
			],
			"name": "DataChanged",
			"type": "event"
		},
		{
			"anonymous": false,
			"inputs": [
				{
					"indexed": false,
					"internalType": "bytes32",
					"name": "_tokenId",
					"type": "bytes32"
				},
				{
					"indexed": false,
					"internalType": "uint256",
					"name": "_point",
					"type": "uint256"
				},
				{
					"indexed": false,
					"internalType": "uint8",
					"name": "_level",
					"type": "uint8"
				}
			],
			"name": "LevelUpdated",
			"type": "event"
		},
		{
			"anonymous": false,
			"inputs": [
				{
					"indexed": true,
					"internalType": "address",
					"name": "recipient",
					"type": "address"
				},
				{
					"indexed": true,
					"internalType": "bytes32",
					"name": "tokenId",
					"type": "bytes32"
				},
				{
					"indexed": false,
					"internalType": "uint256",
					"name": "timestamp",
					"type": "uint256"
				}
			],
			"name": "Minted",
			"type": "event"
		},
		{
			"anonymous": false,
			"inputs": [
				{
					"indexed": true,
					"internalType": "address",
					"name": "operator",
					"type": "address"
				},
				{
					"indexed": true,
					"internalType": "address",
					"name": "tokenOwner",
					"type": "address"
				},
				{
					"indexed": true,
					"internalType": "bytes32",
					"name": "tokenId",
					"type": "bytes32"
				},
				{
					"indexed": false,
					"internalType": "bytes",
					"name": "operatorNotificationData",
					"type": "bytes"
				}
			],
			"name": "OperatorAuthorizationChanged",
			"type": "event"
		},
		{
			"anonymous": false,
			"inputs": [
				{
					"indexed": true,
					"internalType": "address",
					"name": "operator",
					"type": "address"
				},
				{
					"indexed": true,
					"internalType": "address",
					"name": "tokenOwner",
					"type": "address"
				},
				{
					"indexed": true,
					"internalType": "bytes32",
					"name": "tokenId",
					"type": "bytes32"
				},
				{
					"indexed": false,
					"internalType": "bool",
					"name": "notified",
					"type": "bool"
				},
				{
					"indexed": false,
					"internalType": "bytes",
					"name": "operatorNotificationData",
					"type": "bytes"
				}
			],
			"name": "OperatorRevoked",
			"type": "event"
		},
		{
			"anonymous": false,
			"inputs": [
				{
					"indexed": true,
					"internalType": "address",
					"name": "previousOwner",
					"type": "address"
				},
				{
					"indexed": true,
					"internalType": "address",
					"name": "newOwner",
					"type": "address"
				}
			],
			"name": "OwnershipTransferred",
			"type": "event"
		},
		{
			"anonymous": false,
			"inputs": [
				{
					"indexed": false,
					"internalType": "uint256",
					"name": "newValue",
					"type": "uint256"
				}
			],
			"name": "PPTUpdated",
			"type": "event"
		},
		{
			"anonymous": false,
			"inputs": [
				{
					"indexed": false,
					"internalType": "address",
					"name": "account",
					"type": "address"
				}
			],
			"name": "Paused",
			"type": "event"
		},
		{
			"anonymous": false,
			"inputs": [
				{
					"indexed": true,
					"internalType": "bytes32",
					"name": "phaseName",
					"type": "bytes32"
				},
				{
					"indexed": false,
					"internalType": "string",
					"name": "newBackground",
					"type": "string"
				},
				{
					"indexed": false,
					"internalType": "uint256",
					"name": "newMaxMint",
					"type": "uint256"
				},
				{
					"indexed": false,
					"internalType": "uint256",
					"name": "newPrice",
					"type": "uint256"
				},
				{
					"indexed": false,
					"internalType": "address",
					"name": "newTokenAddress",
					"type": "address"
				}
			],
			"name": "PhaseUpdated",
			"type": "event"
		},
		{
			"anonymous": false,
			"inputs": [
				{
					"indexed": true,
					"internalType": "bytes32",
					"name": "tokenId",
					"type": "bytes32"
				},
				{
					"indexed": true,
					"internalType": "bytes32",
					"name": "dataKey",
					"type": "bytes32"
				},
				{
					"indexed": false,
					"internalType": "bytes",
					"name": "dataValue",
					"type": "bytes"
				}
			],
			"name": "TokenIdDataChanged",
			"type": "event"
		},
		{
			"anonymous": false,
			"inputs": [
				{
					"indexed": false,
					"internalType": "address",
					"name": "operator",
					"type": "address"
				},
				{
					"indexed": true,
					"internalType": "address",
					"name": "from",
					"type": "address"
				},
				{
					"indexed": true,
					"internalType": "address",
					"name": "to",
					"type": "address"
				},
				{
					"indexed": true,
					"internalType": "bytes32",
					"name": "tokenId",
					"type": "bytes32"
				},
				{
					"indexed": false,
					"internalType": "bool",
					"name": "force",
					"type": "bool"
				},
				{
					"indexed": false,
					"internalType": "bytes",
					"name": "data",
					"type": "bytes"
				}
			],
			"name": "Transfer",
			"type": "event"
		},
		{
			"anonymous": false,
			"inputs": [
				{
					"indexed": false,
					"internalType": "address",
					"name": "account",
					"type": "address"
				}
			],
			"name": "Unpaused",
			"type": "event"
		},
		{
			"anonymous": false,
			"inputs": [
				{
					"indexed": true,
					"internalType": "address",
					"name": "whitelistedAddress",
					"type": "address"
				},
				{
					"indexed": false,
					"internalType": "uint8",
					"name": "newCount",
					"type": "uint8"
				}
			],
			"name": "WhitelistUpdated",
			"type": "event"
		},
		{
			"anonymous": false,
			"inputs": [
				{
					"indexed": true,
					"internalType": "address",
					"name": "recipient",
					"type": "address"
				},
				{
					"indexed": false,
					"internalType": "uint256",
					"name": "amount",
					"type": "uint256"
				},
				{
					"indexed": false,
					"internalType": "uint256",
					"name": "timestamp",
					"type": "uint256"
				}
			],
			"name": "Withdrawal",
			"type": "event"
		},
		{
			"stateMutability": "payable",
			"type": "fallback"
		},
		{
			"inputs": [],
			"name": "ARATTALABS",
			"outputs": [
				{
					"internalType": "address",
					"name": "",
					"type": "address"
				}
			],
			"stateMutability": "view",
			"type": "function"
		},
		{
			"inputs": [],
			"name": "ARFI",
			"outputs": [
				{
					"internalType": "address",
					"name": "",
					"type": "address"
				}
			],
			"stateMutability": "view",
			"type": "function"
		},
		{
			"inputs": [],
			"name": "DACHRIZ",
			"outputs": [
				{
					"internalType": "address",
					"name": "",
					"type": "address"
				}
			],
			"stateMutability": "view",
			"type": "function"
		},
		{
			"inputs": [],
			"name": "FISH",
			"outputs": [
				{
					"internalType": "address",
					"name": "",
					"type": "address"
				}
			],
			"stateMutability": "view",
			"type": "function"
		},
		{
			"inputs": [],
			"name": "FISHCAN",
			"outputs": [
				{
					"internalType": "address",
					"name": "",
					"type": "address"
				}
			],
			"stateMutability": "view",
			"type": "function"
		},
		{
			"inputs": [],
			"name": "FOLLOWING",
			"outputs": [
				{
					"internalType": "address",
					"name": "",
					"type": "address"
				}
			],
			"stateMutability": "view",
			"type": "function"
		},
		{
			"inputs": [],
			"name": "LUKSEALS",
			"outputs": [
				{
					"internalType": "address",
					"name": "",
					"type": "address"
				}
			],
			"stateMutability": "view",
			"type": "function"
		},
		{
			"inputs": [],
			"name": "MADSKI",
			"outputs": [
				{
					"internalType": "address",
					"name": "",
					"type": "address"
				}
			],
			"stateMutability": "view",
			"type": "function"
		},
		{
			"inputs": [],
			"name": "MAX_SUPPLY",
			"outputs": [
				{
					"internalType": "uint256",
					"name": "",
					"type": "uint256"
				}
			],
			"stateMutability": "view",
			"type": "function"
		},
		{
			"inputs": [],
			"name": "MEMBER_CARD",
			"outputs": [
				{
					"internalType": "address",
					"name": "",
					"type": "address"
				}
			],
			"stateMutability": "view",
			"type": "function"
		},
		{
			"inputs": [],
			"name": "PHASE_ONE_TWO_SUPPLY_CAP",
			"outputs": [
				{
					"internalType": "uint32",
					"name": "",
					"type": "uint32"
				}
			],
			"stateMutability": "view",
			"type": "function"
		},
		{
			"inputs": [],
			"name": "PPT",
			"outputs": [
				{
					"internalType": "uint256",
					"name": "",
					"type": "uint256"
				}
			],
			"stateMutability": "view",
			"type": "function"
		},
		{
			"inputs": [],
			"name": "RICH",
			"outputs": [
				{
					"internalType": "address",
					"name": "",
					"type": "address"
				}
			],
			"stateMutability": "view",
			"type": "function"
		},
		{
			"inputs": [],
			"name": "VERSION",
			"outputs": [
				{
					"internalType": "bytes",
					"name": "",
					"type": "bytes"
				}
			],
			"stateMutability": "view",
			"type": "function"
		},
		{
			"inputs": [],
			"name": "activePhase",
			"outputs": [
				{
					"internalType": "bytes32",
					"name": "",
					"type": "bytes32"
				}
			],
			"stateMutability": "view",
			"type": "function"
		},
		{
			"inputs": [
				{
					"internalType": "address",
					"name": "operator",
					"type": "address"
				},
				{
					"internalType": "bytes32",
					"name": "tokenId",
					"type": "bytes32"
				},
				{
					"internalType": "bytes",
					"name": "operatorNotificationData",
					"type": "bytes"
				}
			],
			"name": "authorizeOperator",
			"outputs": [],
			"stateMutability": "nonpayable",
			"type": "function"
		},
		{
			"inputs": [
				{
					"internalType": "address",
					"name": "tokenOwner",
					"type": "address"
				}
			],
			"name": "balanceOf",
			"outputs": [
				{
					"internalType": "uint256",
					"name": "",
					"type": "uint256"
				}
			],
			"stateMutability": "view",
			"type": "function"
		},
		{
			"inputs": [
				{
					"internalType": "bytes[]",
					"name": "data",
					"type": "bytes[]"
				}
			],
			"name": "batchCalls",
			"outputs": [
				{
					"internalType": "bytes[]",
					"name": "results",
					"type": "bytes[]"
				}
			],
			"stateMutability": "nonpayable",
			"type": "function"
		},
		{
			"inputs": [
				{
					"internalType": "bytes32",
					"name": "_tokenId",
					"type": "bytes32"
				},
				{
					"internalType": "uint256",
					"name": "_amount",
					"type": "uint256"
				},
				{
					"internalType": "bytes",
					"name": "_data",
					"type": "bytes"
				}
			],
			"name": "burnFish",
			"outputs": [],
			"stateMutability": "nonpayable",
			"type": "function"
		},
		{
			"inputs": [
				{
					"internalType": "bytes32",
					"name": "dataKey",
					"type": "bytes32"
				}
			],
			"name": "getData",
			"outputs": [
				{
					"internalType": "bytes",
					"name": "dataValue",
					"type": "bytes"
				}
			],
			"stateMutability": "view",
			"type": "function"
		},
		{
			"inputs": [
				{
					"internalType": "bytes32[]",
					"name": "dataKeys",
					"type": "bytes32[]"
				}
			],
			"name": "getDataBatch",
			"outputs": [
				{
					"internalType": "bytes[]",
					"name": "dataValues",
					"type": "bytes[]"
				}
			],
			"stateMutability": "view",
			"type": "function"
		},
		{
			"inputs": [
				{
					"internalType": "bytes32[]",
					"name": "tokenIds",
					"type": "bytes32[]"
				},
				{
					"internalType": "bytes32[]",
					"name": "dataKeys",
					"type": "bytes32[]"
				}
			],
			"name": "getDataBatchForTokenIds",
			"outputs": [
				{
					"internalType": "bytes[]",
					"name": "dataValues",
					"type": "bytes[]"
				}
			],
			"stateMutability": "view",
			"type": "function"
		},
		{
			"inputs": [
				{
					"internalType": "bytes32",
					"name": "tokenId",
					"type": "bytes32"
				},
				{
					"internalType": "bytes32",
					"name": "dataKey",
					"type": "bytes32"
				}
			],
			"name": "getDataForTokenId",
			"outputs": [
				{
					"internalType": "bytes",
					"name": "dataValue",
					"type": "bytes"
				}
			],
			"stateMutability": "view",
			"type": "function"
		},
		{
			"inputs": [
				{
					"internalType": "bytes32",
					"name": "tokenId",
					"type": "bytes32"
				}
			],
			"name": "getOperatorsOf",
			"outputs": [
				{
					"internalType": "address[]",
					"name": "",
					"type": "address[]"
				}
			],
			"stateMutability": "view",
			"type": "function"
		},
		{
			"inputs": [],
			"name": "initialize",
			"outputs": [],
			"stateMutability": "nonpayable",
			"type": "function"
		},
		{
			"inputs": [],
			"name": "initialized",
			"outputs": [
				{
					"internalType": "bool",
					"name": "",
					"type": "bool"
				}
			],
			"stateMutability": "view",
			"type": "function"
		},
		{
			"inputs": [
				{
					"internalType": "address",
					"name": "operator",
					"type": "address"
				},
				{
					"internalType": "bytes32",
					"name": "tokenId",
					"type": "bytes32"
				}
			],
			"name": "isOperatorFor",
			"outputs": [
				{
					"internalType": "bool",
					"name": "",
					"type": "bool"
				}
			],
			"stateMutability": "view",
			"type": "function"
		},
		{
			"inputs": [
				{
					"internalType": "address",
					"name": "",
					"type": "address"
				}
			],
			"name": "lastTap",
			"outputs": [
				{
					"internalType": "uint256",
					"name": "",
					"type": "uint256"
				}
			],
			"stateMutability": "view",
			"type": "function"
		},
		{
			"inputs": [
				{
					"internalType": "bytes32",
					"name": "",
					"type": "bytes32"
				}
			],
			"name": "level",
			"outputs": [
				{
					"internalType": "uint256",
					"name": "xp",
					"type": "uint256"
				},
				{
					"internalType": "uint8",
					"name": "level",
					"type": "uint8"
				}
			],
			"stateMutability": "view",
			"type": "function"
		},
		{
			"inputs": [
				{
					"internalType": "bytes32",
					"name": "_tokenId",
					"type": "bytes32"
				},
				{
					"internalType": "bytes",
					"name": "_metadata",
					"type": "bytes"
				}
			],
			"name": "levelDown",
			"outputs": [],
			"stateMutability": "nonpayable",
			"type": "function"
		},
		{
			"inputs": [
				{
					"internalType": "uint8",
					"name": "",
					"type": "uint8"
				}
			],
			"name": "levelPrice",
			"outputs": [
				{
					"internalType": "uint256",
					"name": "",
					"type": "uint256"
				}
			],
			"stateMutability": "view",
			"type": "function"
		},
		{
			"inputs": [
				{
					"internalType": "bytes32",
					"name": "_tokenId",
					"type": "bytes32"
				},
				{
					"internalType": "bytes",
					"name": "_metadata",
					"type": "bytes"
				}
			],
			"name": "levelUp",
			"outputs": [],
			"stateMutability": "nonpayable",
			"type": "function"
		},
		{
			"inputs": [
				{
					"internalType": "address",
					"name": "",
					"type": "address"
				},
				{
					"internalType": "bytes32",
					"name": "",
					"type": "bytes32"
				}
			],
			"name": "mintCount",
			"outputs": [
				{
					"internalType": "uint8",
					"name": "",
					"type": "uint8"
				}
			],
			"stateMutability": "view",
			"type": "function"
		},
		{
			"inputs": [
				{
					"internalType": "bytes32",
					"name": "_phaseName",
					"type": "bytes32"
				},
				{
					"internalType": "bytes",
					"name": "_metadata",
					"type": "bytes"
				}
			],
			"name": "mintWithMetadata",
			"outputs": [
				{
					"internalType": "bytes32",
					"name": "",
					"type": "bytes32"
				}
			],
			"stateMutability": "payable",
			"type": "function"
		},
		{
			"inputs": [],
			"name": "owner",
			"outputs": [
				{
					"internalType": "address",
					"name": "",
					"type": "address"
				}
			],
			"stateMutability": "view",
			"type": "function"
		},
		{
			"inputs": [],
			"name": "pauseMinting",
			"outputs": [],
			"stateMutability": "nonpayable",
			"type": "function"
		},
		{
			"inputs": [],
			"name": "paused",
			"outputs": [
				{
					"internalType": "bool",
					"name": "",
					"type": "bool"
				}
			],
			"stateMutability": "view",
			"type": "function"
		},
		{
			"inputs": [
				{
					"internalType": "bytes32",
					"name": "",
					"type": "bytes32"
				}
			],
			"name": "phases",
			"outputs": [
				{
					"internalType": "string",
					"name": "background",
					"type": "string"
				},
				{
					"internalType": "uint256",
					"name": "maxMintPerWallet",
					"type": "uint256"
				},
				{
					"internalType": "uint256",
					"name": "price",
					"type": "uint256"
				},
				{
					"internalType": "address",
					"name": "tokenAddress",
					"type": "address"
				}
			],
			"stateMutability": "view",
			"type": "function"
		},
		{
			"inputs": [],
			"name": "renounceOwnership",
			"outputs": [],
			"stateMutability": "nonpayable",
			"type": "function"
		},
		{
			"inputs": [
				{
					"internalType": "address",
					"name": "operator",
					"type": "address"
				},
				{
					"internalType": "bytes32",
					"name": "tokenId",
					"type": "bytes32"
				},
				{
					"internalType": "bool",
					"name": "notify",
					"type": "bool"
				},
				{
					"internalType": "bytes",
					"name": "operatorNotificationData",
					"type": "bytes"
				}
			],
			"name": "revokeOperator",
			"outputs": [],
			"stateMutability": "nonpayable",
			"type": "function"
		},
		{
			"inputs": [
				{
					"internalType": "bytes32",
					"name": "dataKey",
					"type": "bytes32"
				},
				{
					"internalType": "bytes",
					"name": "dataValue",
					"type": "bytes"
				}
			],
			"name": "setData",
			"outputs": [],
			"stateMutability": "payable",
			"type": "function"
		},
		{
			"inputs": [
				{
					"internalType": "bytes32[]",
					"name": "dataKeys",
					"type": "bytes32[]"
				},
				{
					"internalType": "bytes[]",
					"name": "dataValues",
					"type": "bytes[]"
				}
			],
			"name": "setDataBatch",
			"outputs": [],
			"stateMutability": "payable",
			"type": "function"
		},
		{
			"inputs": [
				{
					"internalType": "bytes32[]",
					"name": "tokenIds",
					"type": "bytes32[]"
				},
				{
					"internalType": "bytes32[]",
					"name": "dataKeys",
					"type": "bytes32[]"
				},
				{
					"internalType": "bytes[]",
					"name": "dataValues",
					"type": "bytes[]"
				}
			],
			"name": "setDataBatchForTokenIds",
			"outputs": [],
			"stateMutability": "nonpayable",
			"type": "function"
		},
		{
			"inputs": [
				{
					"internalType": "bytes32",
					"name": "tokenId",
					"type": "bytes32"
				},
				{
					"internalType": "bytes32",
					"name": "dataKey",
					"type": "bytes32"
				},
				{
					"internalType": "bytes",
					"name": "dataValue",
					"type": "bytes"
				}
			],
			"name": "setDataForTokenId",
			"outputs": [],
			"stateMutability": "nonpayable",
			"type": "function"
		},
		{
			"inputs": [
				{
					"internalType": "bytes4",
					"name": "interfaceId",
					"type": "bytes4"
				}
			],
			"name": "supportsInterface",
			"outputs": [
				{
					"internalType": "bool",
					"name": "",
					"type": "bool"
				}
			],
			"stateMutability": "view",
			"type": "function"
		},
		{
			"inputs": [
				{
					"internalType": "bytes32",
					"name": "_tokenId",
					"type": "bytes32"
				}
			],
			"name": "tapIt",
			"outputs": [],
			"stateMutability": "nonpayable",
			"type": "function"
		},
		{
			"inputs": [],
			"name": "tokenIdCounter",
			"outputs": [
				{
					"internalType": "uint256",
					"name": "_value",
					"type": "uint256"
				}
			],
			"stateMutability": "view",
			"type": "function"
		},
		{
			"inputs": [
				{
					"internalType": "address",
					"name": "tokenOwner",
					"type": "address"
				}
			],
			"name": "tokenIdsOf",
			"outputs": [
				{
					"internalType": "bytes32[]",
					"name": "",
					"type": "bytes32[]"
				}
			],
			"stateMutability": "view",
			"type": "function"
		},
		{
			"inputs": [
				{
					"internalType": "bytes32",
					"name": "tokenId",
					"type": "bytes32"
				}
			],
			"name": "tokenOwnerOf",
			"outputs": [
				{
					"internalType": "address",
					"name": "",
					"type": "address"
				}
			],
			"stateMutability": "view",
			"type": "function"
		},
		{
			"inputs": [],
			"name": "totalSupply",
			"outputs": [
				{
					"internalType": "uint256",
					"name": "",
					"type": "uint256"
				}
			],
			"stateMutability": "view",
			"type": "function"
		},
		{
			"inputs": [
				{
					"internalType": "address",
					"name": "from",
					"type": "address"
				},
				{
					"internalType": "address",
					"name": "to",
					"type": "address"
				},
				{
					"internalType": "bytes32",
					"name": "tokenId",
					"type": "bytes32"
				},
				{
					"internalType": "bool",
					"name": "force",
					"type": "bool"
				},
				{
					"internalType": "bytes",
					"name": "data",
					"type": "bytes"
				}
			],
			"name": "transfer",
			"outputs": [],
			"stateMutability": "nonpayable",
			"type": "function"
		},
		{
			"inputs": [
				{
					"internalType": "address[]",
					"name": "from",
					"type": "address[]"
				},
				{
					"internalType": "address[]",
					"name": "to",
					"type": "address[]"
				},
				{
					"internalType": "bytes32[]",
					"name": "tokenId",
					"type": "bytes32[]"
				},
				{
					"internalType": "bool[]",
					"name": "force",
					"type": "bool[]"
				},
				{
					"internalType": "bytes[]",
					"name": "data",
					"type": "bytes[]"
				}
			],
			"name": "transferBatch",
			"outputs": [],
			"stateMutability": "nonpayable",
			"type": "function"
		},
		{
			"inputs": [
				{
					"internalType": "address",
					"name": "_LSP7Token",
					"type": "address"
				},
				{
					"internalType": "address",
					"name": "_to",
					"type": "address"
				},
				{
					"internalType": "uint256",
					"name": "_amount",
					"type": "uint256"
				},
				{
					"internalType": "bool",
					"name": "_force",
					"type": "bool"
				},
				{
					"internalType": "bytes",
					"name": "_data",
					"type": "bytes"
				}
			],
			"name": "transferLSP7Token",
			"outputs": [],
			"stateMutability": "nonpayable",
			"type": "function"
		},
		{
			"inputs": [
				{
					"internalType": "address",
					"name": "newOwner",
					"type": "address"
				}
			],
			"name": "transferOwnership",
			"outputs": [],
			"stateMutability": "nonpayable",
			"type": "function"
		},
		{
			"inputs": [],
			"name": "unpauseMinting",
			"outputs": [],
			"stateMutability": "nonpayable",
			"type": "function"
		},
		{
			"inputs": [
				{
					"internalType": "bytes32",
					"name": "_phaseName",
					"type": "bytes32"
				}
			],
			"name": "updateActivePhase",
			"outputs": [],
			"stateMutability": "nonpayable",
			"type": "function"
		},
		{
			"inputs": [
				{
					"components": [
						{
							"internalType": "address",
							"name": "fish",
							"type": "address"
						},
						{
							"internalType": "address",
							"name": "memberCard",
							"type": "address"
						},
						{
							"internalType": "address",
							"name": "rich",
							"type": "address"
						},
						{
							"internalType": "address",
							"name": "fishcan",
							"type": "address"
						},
						{
							"internalType": "address",
							"name": "arattalabs",
							"type": "address"
						},
						{
							"internalType": "address",
							"name": "lukseals",
							"type": "address"
						},
						{
							"internalType": "address",
							"name": "madski",
							"type": "address"
						},
						{
							"internalType": "address",
							"name": "dachriz",
							"type": "address"
						},
						{
							"internalType": "address",
							"name": "arfi",
							"type": "address"
						},
						{
							"internalType": "address",
							"name": "following",
							"type": "address"
						}
					],
					"internalType": "struct LukSeals.ContractAddresses",
					"name": "_newAddresses",
					"type": "tuple"
				}
			],
			"name": "updateAddresses",
			"outputs": [],
			"stateMutability": "nonpayable",
			"type": "function"
		},
		{
			"inputs": [
				{
					"internalType": "uint256",
					"name": "_newValue",
					"type": "uint256"
				}
			],
			"name": "updatePPT",
			"outputs": [],
			"stateMutability": "nonpayable",
			"type": "function"
		},
		{
			"inputs": [
				{
					"internalType": "bytes32",
					"name": "_phaseName",
					"type": "bytes32"
				},
				{
					"internalType": "string",
					"name": "_background",
					"type": "string"
				},
				{
					"internalType": "uint256",
					"name": "_maxMintPerWallet",
					"type": "uint256"
				},
				{
					"internalType": "uint256",
					"name": "_price",
					"type": "uint256"
				},
				{
					"internalType": "address",
					"name": "_tokenAddress",
					"type": "address"
				}
			],
			"name": "updatePhase",
			"outputs": [],
			"stateMutability": "nonpayable",
			"type": "function"
		},
		{
			"inputs": [
				{
					"internalType": "bytes32",
					"name": "_tokenId",
					"type": "bytes32"
				},
				{
					"internalType": "uint256",
					"name": "_point",
					"type": "uint256"
				},
				{
					"internalType": "uint8",
					"name": "_level",
					"type": "uint8"
				}
			],
			"name": "updatePoint",
			"outputs": [],
			"stateMutability": "nonpayable",
			"type": "function"
		},
		{
			"inputs": [
				{
					"internalType": "address[]",
					"name": "_addrs",
					"type": "address[]"
				},
				{
					"internalType": "uint8",
					"name": "_count",
					"type": "uint8"
				}
			],
			"name": "updateWhitelist",
			"outputs": [],
			"stateMutability": "nonpayable",
			"type": "function"
		},
		{
			"inputs": [
				{
					"internalType": "address",
					"name": "",
					"type": "address"
				}
			],
			"name": "whitelist",
			"outputs": [
				{
					"internalType": "uint8",
					"name": "",
					"type": "uint8"
				}
			],
			"stateMutability": "view",
			"type": "function"
		},
		{
			"inputs": [],
			"name": "withdrawAll",
			"outputs": [],
			"stateMutability": "nonpayable",
			"type": "function"
		},
		{
			"stateMutability": "payable",
			"type": "receive"
		}
	]
}