{
	"data": {
		"bytecode": {
			"linkReferences": {},
			"object": "6101206040526101f4601655348015610016575f5ffd5b506040516163ba3803806163ba8339810160408190526100359161072d565b60408051808201825260088152674c756b5365616c7360c01b6020808301919091528251808401909352600483526314d1505360e21b90830152903360025f848484848180610097576040516306b620db60e21b815260040160405180910390fd5b6100a081610235565b506040805180820190915260048152632936598960e21b60208201526100e7907feafec4d89fa9619884b60000a4d96624a38f7ac2d8d9a604ecf07c12c77e480c9061029f565b6101117fdeba1e292f8ba88238e10ab3c7f88bd4be4fac56cad5194b6ecceaf653468af18561029f565b61013b7f2f0a68ab07768e01943a599e73362a0e17a63a72e94dd2e384d2c1d4db9327568461029f565b6040805160208101839052610182917fe0261fa95db2eb3b5439bd033cda66d56b96f92f243a8228fd87550ed7bdfdb3910160408051601f1981840301815291905261029f565b505060408051602081018590526101cd93507ff675e9361af1c1664c1868cfa3eb97672d6b1a513aa5b81dec34c9ee330e818d92500160408051601f198184030181529190526102f3565b50506007805460ff1916905550506001600855506101ea82610301565b81516001600160a01b039081166080526020830151811660a0526040830151811660c0526060830151811660e052610120830151166101005261022e816001610459565b50506109b7565b5f546001600160a01b0382811691161461029c575f80546040516001600160a01b03808516939216917f8be0079c531659141344cd1fd0a4f28419497f9722a3daafe3b4186f6b6457e091a35f80546001600160a01b0319166001600160a01b0383161790555b50565b5f8281526001602052604090206102b682826108b4565b50817fece574603820d07bc9b91f2a932baadf4628aabcb8afba49776529c14a6104b2826040516102e7919061096e565b60405180910390a25050565b6102fd828261051e565b5050565b6103096105de565b8051600980546001600160a01b039283166001600160a01b031991821681179092556020840151600a805491851691831682179055604080860151600b8054918716918516821790556060870151600c80548289169087161790556080880151600d8054828a1690881617905560a0890151600e8054828b1690891617905560c08a0151600f8054828c16908a1617905560e08b015160108054828d16908b161790556101008c015160118054828e16908c161790556101208d0151601280549d82169d909b169c909c17909955955194999698977fd7ff29effced1b6a8b99ff16244c286af48221d90470a241c633bcc7c9dfd84d9761044e979596949593949293926001600160a01b03978816815295871660208701529386166040860152918516606085015284166080840152831660a083015290911660c082015260e00190565b60405180910390a450565b6104616105de565b5f5b8251811015610519575f83828151811061047f5761047f6109a3565b60209081029190910101519050826001600160a01b0382166104b45760405163e6c4247b60e01b815260040160405180910390fd5b6001600160a01b0382165f818152601c6020908152604091829020805460ff191660ff861690811790915591519182527f7ed18aa59a2962897d3e7ed3da887dfb6a03cca6c3cfe8d74e55130f631791c8910160405180910390a25050600101610463565b505050565b7f2145e1d6d074577dc71ef54c3807742b41b053a9352ae6b491331509acb9750f820161055e576040516385c169bd60e01b815260040160405180910390fd5b7fd0f59754f88971fe6bc5a6618cc9d5f1e859c58d16b22d1c7b2d3e2b246cd8aa820161059e57604051630eceab6760e31b815260040160405180910390fd5b7f1fd9e056a24d14c4abc642fcc325992a946906d0dbc57dd70278aaf12842024d820161029f57604051634ef6d7fb60e01b815260040160405180910390fd5b336105f05f546001600160a01b031690565b6001600160a01b03161461061d5760405163bf1169c560e01b815233600482015260240160405180910390fd5b565b634e487b7160e01b5f52604160045260245ffd5b60405161014081016001600160401b03811182821017156106565761065661061f565b60405290565b604051601f8201601f191681016001600160401b03811182821017156106845761068461061f565b604052919050565b80516001600160a01b03811681146106a2575f5ffd5b919050565b5f82601f8301126106b6575f5ffd5b81516001600160401b038111156106cf576106cf61061f565b8060051b6106df6020820161065c565b918252602081850181019290810190868411156106fa575f5ffd5b6020860192505b83831015610723576107128361068c565b825260209283019290910190610701565b9695505050505050565b5f5f828403610160811215610740575f5ffd5b61014081121561074e575f5ffd5b50610757610633565b6107608461068c565b815261076e6020850161068c565b602082015261077f6040850161068c565b60408201526107906060850161068c565b60608201526107a16080850161068c565b60808201526107b260a0850161068c565b60a08201526107c360c0850161068c565b60c08201526107d460e0850161068c565b60e08201526107e6610100850161068c565b6101008201526107f9610120850161068c565b6101208201526101408401519092506001600160401b0381111561081b575f5ffd5b610827858286016106a7565b9150509250929050565b600181811c9082168061084557607f821691505b60208210810361086357634e487b7160e01b5f52602260045260245ffd5b50919050565b601f82111561051957805f5260205f20601f840160051c8101602085101561088e5750805b601f840160051c820191505b818110156108ad575f815560010161089a565b5050505050565b81516001600160401b038111156108cd576108cd61061f565b6108e1816108db8454610831565b84610869565b6020601f821160018114610913575f83156108fc5750848201515b5f19600385901b1c1916600184901b1784556108ad565b5f84815260208120601f198516915b828110156109425787850151825560209485019460019092019101610922565b508482101561095f57868401515f19600387901b60f8161c191681555b50505050600190811b01905550565b602081525f82518060208401528060208501604085015e5f604082850101526040601f19601f83011684010191505092915050565b634e487b7160e01b5f52603260045260245ffd5b60805160a05160c05160e0516101005161596b610a4f5f395f81816113e20152818161149301528181611544015281816115f5015281816116a60152818161174a01528181611803015281816118bc015261197501525f610f4d01525f610e9501525f8181610dd501526121f201525f818161100f015281816110d20152818161119501528181611258015261131b015261596b5ff3fe6080604052600436106103bb575f3560e01c8063802c90c8116101f1578063be9f0e6f1161010c578063dedff9c61161009f578063f2fde38b1161006e578063f2fde38b14610be6578063fabf4b1614610c05578063ffa1ad7414610c24578063ffcff32c14610c5457610414565b8063dedff9c614610b54578063e1660bc814610b73578063e3bc1cc314610b92578063ecabdf7914610bbb57610414565b8063d764c173116100db578063d764c17314610ad3578063da8fbf2a14610af2578063dafe43f114610b06578063db8c966314610b3557610414565b8063be9f0e6f14610a10578063cb92337d14610a2f578063d34fbc9b14610a68578063d6c1407c14610ab457610414565b80639790242111610184578063ac7e032111610153578063ac7e03211461099f578063ac91e5a5146109be578063ae200322146109dd578063af6bb1e4146109f157610414565b8063979024211461090a57806398bdf6f51461091d5780639b19251a14610933578063a3b261f21461097357610414565b806386a10ddd116101c057806386a10ddd146108915780638da5cb5b146108b05780638e1f845c146108cc578063961183c4146108eb57610414565b8063802c90c81461082b5780638129fc1c1461084a57806383f63c971461085e578063853828b61461087d57610414565b806344ae035a116102e1578063605cb60111610274578063715018a611610243578063715018a6146107c657806372a591f0146107da5780637e87632c146107f95780637f23690c1461081857610414565b8063605cb60114610754578063678b2012146107735780636963d4381461078857806370a08231146107a757610414565b80635a1da9a4116102b05780635a1da9a4146106e05780635c975abb146106ff5780635cb42de1146107165780635fa3c36d1461073557610414565b806344ae035a1461065757806349a6078d14610676578063511b6952146106a257806354f6127f146106c157610414565b8063217b227011610359578063343c71fb11610328578063343c71fb146105db578063369596d2146105fa5780633c20f76d14610625578063403e6fa61461063857610414565b8063217b2270146105515780632a3654a4146105885780633087c08f146105a757806332cb6b0c146105c657610414565b8063158ef93e11610395578063158ef93e146104cc57806316e023b3146104e557806318160ddd146105115780631d26fce61461052557610414565b806301ffc9a71461045457806309edf481146104885780630e1b26c6146104a957610414565b3661041457345f036103fb5760405163e5099ee360e01b81526004016103f29060208082526004908201525f604082015260600190565b60405180910390fd5b6040516330fa4a2160e11b815260040160405180910390fd5b5f366060600482101561043e57828260405163e5099ee360e01b81526004016103f29291906148d2565b6104488383610c73565b80519350602001915050f35b34801561045f575f5ffd5b5061047361046e366004614900565b610d62565b60405190151581526020015b60405180910390f35b348015610493575f5ffd5b506104a76104a2366004614927565b610d95565b005b3480156104b4575f5ffd5b506104be60145481565b60405190815260200161047f565b3480156104d7575f5ffd5b506015546104739060ff1681565b3480156104f0575f5ffd5b506105046104ff36600461493e565b611ba2565b60405161047f919061498c565b34801561051c575f5ffd5b506002546104be565b348015610530575f5ffd5b5061054461053f366004614a97565b611bb5565b60405161047f9190614afa565b34801561055c575f5ffd5b5061057061056b366004614927565b611c9b565b6040516001600160a01b03909116815260200161047f565b348015610593575f5ffd5b506104736105a2366004614b78565b611cd3565b3480156105b2575f5ffd5b506104a76105c1366004614ba0565b611cde565b3480156105d1575f5ffd5b506104be6108ae81565b3480156105e6575f5ffd5b506104a76105f5366004614ce4565b611e36565b348015610605575f5ffd5b506104be610614366004614d1d565b60186020525f908152604090205481565b6104be610633366004614ce4565b611ecb565b348015610643575f5ffd5b50600a54610570906001600160a01b031681565b348015610662575f5ffd5b506104a7610671366004614927565b61244e565b348015610681575f5ffd5b50610695610690366004614927565b61245b565b60405161047f9190614d36565b3480156106ad575f5ffd5b506104a76106bc366004614d8e565b61247c565b3480156106cc575f5ffd5b506105046106db366004614927565b6124c0565b3480156106eb575f5ffd5b50600b54610570906001600160a01b031681565b34801561070a575f5ffd5b5060075460ff16610473565b348015610721575f5ffd5b50600d54610570906001600160a01b031681565b348015610740575f5ffd5b506104a761074f366004614e03565b6124cb565b34801561075f575f5ffd5b50600e54610570906001600160a01b031681565b34801561077e575f5ffd5b506104be60165481565b348015610793575f5ffd5b506105446107a2366004614e4e565b612613565b3480156107b2575f5ffd5b506104be6107c1366004614d1d565b61273d565b3480156107d1575f5ffd5b506104a761275d565b3480156107e5575f5ffd5b506104a76107f4366004614ecd565b612770565b348015610804575f5ffd5b506104a7610813366004615043565b612831565b6104a7610826366004614ce4565b61291f565b348015610836575f5ffd5b506104a7610845366004614d8e565b612954565b348015610855575f5ffd5b506104a76129c4565b348015610869575f5ffd5b50600f54610570906001600160a01b031681565b348015610888575f5ffd5b506104a7612fbe565b34801561089c575f5ffd5b506104a76108ab366004615114565b6130d5565b3480156108bb575f5ffd5b505f546001600160a01b0316610570565b3480156108d7575f5ffd5b506104a76108e6366004614927565b61324c565b3480156108f6575f5ffd5b50601054610570906001600160a01b031681565b6104a7610918366004615150565b61328f565b348015610928575f5ffd5b506013546104be9081565b34801561093e575f5ffd5b5061096161094d366004614d1d565b601c6020525f908152604090205460ff1681565b60405160ff909116815260200161047f565b34801561097e575f5ffd5b5061099261098d366004614d1d565b61334d565b60405161047f91906151a9565b3480156109aa575f5ffd5b50601254610570906001600160a01b031681565b3480156109c9575f5ffd5b50601154610570906001600160a01b031681565b3480156109e8575f5ffd5b506104a7613370565b3480156109fc575f5ffd5b50600c54610570906001600160a01b031681565b348015610a1b575f5ffd5b506104a7610a2a3660046151e0565b613380565b348015610a3a575f5ffd5b50610961610a49366004614b78565b601b60209081525f928352604080842090915290825290205460ff1681565b348015610a73575f5ffd5b50610a9d610a82366004614927565b60196020525f90815260409020805460019091015460ff1682565b6040805192835260ff90911660208301520161047f565b348015610abf575f5ffd5b506104a7610ace366004614e03565b613449565b348015610ade575f5ffd5b506104a7610aed366004615261565b61345c565b348015610afd575f5ffd5b506104a761352c565b348015610b11575f5ffd5b50610b25610b20366004614927565b61353c565b60405161047f94939291906152d9565b348015610b40575f5ffd5b506104a7610b4f366004615310565b6135f4565b348015610b5f575f5ffd5b50610544610b6e366004615375565b6136d5565b348015610b7e575f5ffd5b506104a7610b8d3660046153a6565b61377e565b348015610b9d575f5ffd5b50610ba660de81565b60405163ffffffff909116815260200161047f565b348015610bc6575f5ffd5b506104be610bd53660046153f0565b601a6020525f908152604090205481565b348015610bf1575f5ffd5b506104a7610c00366004614d1d565b61383e565b348015610c10575f5ffd5b506104a7610c1f366004614ce4565b613879565b348015610c2f575f5ffd5b50610504604051806040016040528060058152602001640312e302e360dc1b81525081565b348015610c5f575f5ffd5b50600954610570906001600160a01b031681565b60605f610c8a5f356001600160e01b0319166139c8565b5090506001600160a01b038116610cc15760405163bb370b2b60e01b81526001600160e01b03195f351660048201526024016103f2565b5f5f826001600160a01b03163487873334604051602001610ce59493929190615409565b60408051601f1981840301815290829052610cff91615434565b5f6040518083038185875af1925050503d805f8114610d39576040519150601f19603f3d011682016040523d82523d5f602084013e610d3e565b606091505b50915091508115610d53579250610d5c915050565b80518060208301fd5b92915050565b5f6001600160e01b03198216631d138b8360e11b1480610d865750610d8682613a44565b80610d5c5750610d5c82613a68565b335f908152601860205260409020544290610db3906201518061545e565b10610dd157604051631a64b87b60e31b815260040160405180910390fd5b5f807f00000000000000000000000000000000000000000000000000000000000000006001600160a01b03166370a08231336040516001600160e01b031960e084901b1681526001600160a01b039091166004820152602401602060405180830381865afa158015610e45573d5f5f3e3d5ffd5b505050506040513d601f19601f82011682018060405250810190610e699190615471565b1115610e8a57601654610e7d906008615488565b610e87908261545e565b90505b5f6001600160a01b037f0000000000000000000000000000000000000000000000000000000000000000166370a08231336040516001600160e01b031960e084901b1681526001600160a01b039091166004820152602401602060405180830381865afa158015610efd573d5f5f3e3d5ffd5b505050506040513d601f19601f82011682018060405250810190610f219190615471565b1115610f4257601654610f35906003615488565b610f3f908261545e565b90505b5f6001600160a01b037f0000000000000000000000000000000000000000000000000000000000000000166370a08231336040516001600160e01b031960e084901b1681526001600160a01b039091166004820152602401602060405180830381865afa158015610fb5573d5f5f3e3d5ffd5b505050506040513d601f19601f82011682018060405250810190610fd99190615471565b1115610ffa57601654610fed906003615488565b610ff7908261545e565b90505b69d3c21bcecceda10000006001600160a01b037f0000000000000000000000000000000000000000000000000000000000000000166370a08231336040516001600160e01b031960e084901b1681526001600160a01b039091166004820152602401602060405180830381865afa158015611077573d5f5f3e3d5ffd5b505050506040513d601f19601f8201168201806040525081019061109b9190615471565b11156110bc576016546110af906002615488565b6110b9908261545e565b90505b6a027b46536c66c8e30000006001600160a01b037f0000000000000000000000000000000000000000000000000000000000000000166370a08231336040516001600160e01b031960e084901b1681526001600160a01b039091166004820152602401602060405180830381865afa15801561113a573d5f5f3e3d5ffd5b505050506040513d601f19601f8201168201806040525081019061115e9190615471565b111561117f57601654611172906003615488565b61117c908261545e565b90505b6a0422ca8b0a00a4250000006001600160a01b037f0000000000000000000000000000000000000000000000000000000000000000166370a08231336040516001600160e01b031960e084901b1681526001600160a01b039091166004820152602401602060405180830381865afa1580156111fd573d5f5f3e3d5ffd5b505050506040513d601f19601f820116820180604052508101906112219190615471565b111561124257601654611235906005615488565b61123f908261545e565b90505b6a05ca4ec2a79a7f670000006001600160a01b037f0000000000000000000000000000000000000000000000000000000000000000166370a08231336040516001600160e01b031960e084901b1681526001600160a01b039091166004820152602401602060405180830381865afa1580156112c0573d5f5f3e3d5ffd5b505050506040513d601f19601f820116820180604052508101906112e49190615471565b1115611305576016546112f8906007615488565b611302908261545e565b90505b6a084595161401484a0000006001600160a01b037f0000000000000000000000000000000000000000000000000000000000000000166370a08231336040516001600160e01b031960e084901b1681526001600160a01b039091166004820152602401602060405180830381865afa158015611383573d5f5f3e3d5ffd5b505050506040513d601f19601f820116820180604052508101906113a79190615471565b11156113c8576016546113bb90600a615488565b6113c5908261545e565b90505b600e54604051634cf61d2160e11b81526001600160a01b037f00000000000000000000000000000000000000000000000000000000000000008116926399ec3a429261141a923392169060040161549f565b602060405180830381865afa158015611435573d5f5f3e3d5ffd5b505050506040513d601f19601f8201168201806040525081019061145991906154b9565b156114795760165461146c906002615488565b611476908261545e565b90505b600f54604051634cf61d2160e11b81526001600160a01b037f00000000000000000000000000000000000000000000000000000000000000008116926399ec3a42926114cb923392169060040161549f565b602060405180830381865afa1580156114e6573d5f5f3e3d5ffd5b505050506040513d601f19601f8201168201806040525081019061150a91906154b9565b1561152a5760165461151d906002615488565b611527908261545e565b90505b600d54604051634cf61d2160e11b81526001600160a01b037f00000000000000000000000000000000000000000000000000000000000000008116926399ec3a429261157c923392169060040161549f565b602060405180830381865afa158015611597573d5f5f3e3d5ffd5b505050506040513d601f19601f820116820180604052508101906115bb91906154b9565b156115db576016546115ce906001615488565b6115d8908261545e565b90505b601054604051634cf61d2160e11b81526001600160a01b037f00000000000000000000000000000000000000000000000000000000000000008116926399ec3a429261162d923392169060040161549f565b602060405180830381865afa158015611648573d5f5f3e3d5ffd5b505050506040513d601f19601f8201168201806040525081019061166c91906154b9565b1561168c5760165461167f906001615488565b611689908261545e565b90505b601154604051634cf61d2160e11b81526001600160a01b037f00000000000000000000000000000000000000000000000000000000000000008116926399ec3a42926116de923392169060040161549f565b602060405180830381865afa1580156116f9573d5f5f3e3d5ffd5b505050506040513d601f19601f8201168201806040525081019061171d91906154b9565b1561173d57601654611730906001615488565b61173a908261545e565b90505b600e546001600160a01b037f00000000000000000000000000000000000000000000000000000000000000008116916399ec3a42911661177a3390565b6040518363ffffffff1660e01b815260040161179792919061549f565b602060405180830381865afa1580156117b2573d5f5f3e3d5ffd5b505050506040513d601f19601f820116820180604052508101906117d691906154b9565b156117f6576016546117e9906002615488565b6117f3908261545e565b90505b600f546001600160a01b037f00000000000000000000000000000000000000000000000000000000000000008116916399ec3a4291166118333390565b6040518363ffffffff1660e01b815260040161185092919061549f565b602060405180830381865afa15801561186b573d5f5f3e3d5ffd5b505050506040513d601f19601f8201168201806040525081019061188f91906154b9565b156118af576016546118a2906002615488565b6118ac908261545e565b90505b6011546001600160a01b037f00000000000000000000000000000000000000000000000000000000000000008116916399ec3a4291166118ec3390565b6040518363ffffffff1660e01b815260040161190992919061549f565b602060405180830381865afa158015611924573d5f5f3e3d5ffd5b505050506040513d601f19601f8201168201806040525081019061194891906154b9565b156119685760165461195b906004615488565b611965908261545e565b90505b600f546001600160a01b037f00000000000000000000000000000000000000000000000000000000000000008116916399ec3a4291166119a53390565b6040518363ffffffff1660e01b81526004016119c292919061549f565b602060405180830381865afa1580156119dd573d5f5f3e3d5ffd5b505050506040513d601f19601f82011682018060405250810190611a0191906154b9565b15611a2157601654611a14906001615488565b611a1e908261545e565b90505b6003611a2c3361273d565b10611a4c57601654611a3f906002615488565b611a49908261545e565b90505b6005611a573361273d565b10611a7757601654611a6a906002615488565b611a74908261545e565b90505b600a611a823361273d565b10611aa257601654611a95906003615488565b611a9f908261545e565b90505b600f611aad3361273d565b10611acd57601654611ac0906003615488565b611aca908261545e565b90505b6014611ad83361273d565b10611af857601654611aeb906005615488565b611af5908261545e565b90505b6032611b033361273d565b10611b2357601654611b1690600a615488565b611b20908261545e565b90505b5f828152601960209081526040918290208251808401909352805480845260019091015460ff169183019190915282908290611b6090839061545e565b9052505f92835260196020908152604080852083518155928201516001909301805460ff191660ff909416939093179092553384526018905290912042905550565b6060611bae8383613a9d565b9392505050565b60608151835114611bd9576040516317d38eff60e11b815260040160405180910390fd5b82516001600160401b03811115611bf257611bf261499e565b604051908082528060200260200182016040528015611c2557816020015b6060815260200190600190039081611c105790505b5090505f5b8351811015611c9457611c6f848281518110611c4857611c486154d4565b6020026020010151848381518110611c6257611c626154d4565b6020026020010151613a9d565b828281518110611c8157611c816154d4565b6020908102919091010152600101611c2a565b5092915050565b5f818152600360205260408120546001600160a01b031680610d5c57604051635747cd1b60e11b8152600481018490526024016103f2565b5f611bae8383613b48565b611ce6613b83565b8051600980546001600160a01b039283166001600160a01b031991821681179092556020840151600a805491851691831682179055604080860151600b8054918716918516821790556060870151600c80548289169087161790556080880151600d8054828a1690881617905560a0890151600e8054828b1690891617905560c08a0151600f8054828c16908a1617905560e08b015160108054828d16908b161790556101008c015160118054828e16908c161790556101208d0151601280549d82169d909b169c909c17909955955194999698977fd7ff29effced1b6a8b99ff16244c286af48221d90470a241c633bcc7c9dfd84d97611e2b979596949593949293926001600160a01b03978816815295871660208701529386166040860152918516606085015284166080840152831660a083015290911660c082015260e00190565b60405180910390a450565b5f828152601960205260408120600180820154919291611e59919060ff166154e8565b60018381015491925060ff90911611611e8557604051634f82619560e11b815260040160405180910390fd5b611eb0847f9afb95cacc9f95858ec44aa8c3b685511002e30ae54415823f406128b85b238e85613bbe565b600191909101805460ff191660ff9092169190911790555050565b5f611ed4613c1f565b611edc613c49565b6108ae611ee860135490565b10611f0657604051638a164f6360e01b815260040160405180910390fd5b8260145414611f28576040516321094a9b60e01b815260040160405180910390fd5b5f83815260176020526040808220815160808101909252805482908290611f4e90615501565b80601f0160208091040260200160405190810160405280929190818152602001828054611f7a90615501565b8015611fc55780601f10611f9c57610100808354040283529160200191611fc5565b820191905f5260205f20905b815481529060010190602001808311611fa857829003601f168201915b5050509183525050600182015460208083019190915260028301546040808401919091526003909301546001600160a01b0316606092830152838101518484015192850151335f908152601b84528581208b825290935293909120549394509290919060ff16831161204a57604051634bcd7edd60e11b815260040160405180910390fd5b60408051808201909152600681526570686173653160d01b6020909101527f3db34eeeefd2a5000c181c2d5be61bc403042e9bb18dd26851e221bc976396d2870161212857335f908152601c602052604090205460ff166120be57604051630b094f2760e31b815260040160405180910390fd5b60de6120c960025490565b106120e75760405163342428eb60e01b815260040160405180910390fd5b335f908152601b602090815260408083208a845290915290205460ff16831161212357604051633ce95f8560e11b815260040160405180910390fd5b612281565b604080518082019091526006815265383430b9b29960d11b6020909101527fce00f28af6461ce48f3d0998a1034c969651d2b8df8a6d973d85c3d2ae3ae44887016121965760de61217860025490565b106121235760405163342428eb60e01b815260040160405180910390fd5b60408051808201909152600681526570686173653360d01b6020909101527f6c81e26b43aa001367d6fead6e59c42c18fd7a333bb17db5dedd5a7e313230e58701612281576040516370a0823160e01b81523360048201525f907f00000000000000000000000000000000000000000000000000000000000000006001600160a01b0316906370a0823190602401602060405180830381865afa15801561223f573d5f5f3e3d5ffd5b505050506040513d601f19601f820116820180604052508101906122639190615471565b11612281576040516346b8a0fd60e11b815260040160405180910390fd5b8115612325576001600160a01b0381166122c457813410156122bf5760405163b99e2ab760e01b8152600481018390523460248201526044016103f2565b612325565b604051633b06cddd60e11b81526001600160a01b0382169063760d9bba906122f790339030908790600190600401615533565b5f604051808303815f87803b15801561230e575f5ffd5b505af1158015612320573d5f5f3e3d5ffd5b505050505b612333601380546001019055565b5f61233d60135490565b905061235a3382600160405180602001604052805f815250613c6d565b612385817f9afb95cacc9f95858ec44aa8c3b685511002e30ae54415823f406128b85b238e89613bbe565b335f908152601b602090815260408083208b84529091529020546123ad9060ff16600161556a565b335f818152601b602090815260408083208d84528252808320805460ff96871660ff19918216179091558151808301835284815280840185815288865260198552948390209051815593516001949094018054949096169316929092179093555142815283927fa076a0e133eaaa7a0d2293663374c22b5572fc5a479274e17e00ac210fe2367b910160405180910390a3945050505050610d5c6001600855565b612456613b83565b601455565b606061246682613dd6565b5f828152600560205260409020610d5c90613e0d565b6124863384613b48565b6124ac57604051631294d2a960e01b8152600481018490523360248201526044016103f2565b6124b98585858585613e19565b5050505050565b6060610d5c82613ff5565b5f838152601960205260409020541515806124f857505f8381526019602052604090206001015460ff1615155b61252f5760405162461bcd60e51b8152602060048201526008602482015267139bc8195e1a5cdd60c21b60448201526064016103f2565b6009546001600160a01b03166344d171873361255385670de0b6b3a7640000615488565b846040518463ffffffff1660e01b815260040161257293929190615583565b5f604051808303815f87803b158015612589575f5ffd5b505af115801561259b573d5f5f3e3d5ffd5b5050505f848152601960209081526040918290208251808401909352805480845260019091015460ff1691830191909152909150839082906125de90839061545e565b9052505f938452601960209081526040909420815181559301516001909301805460ff191660ff909416939093179092555050565b6060816001600160401b0381111561262d5761262d61499e565b60405190808252806020026020018201604052801561266057816020015b606081526020019060019003908161264b5790505b5090505f5b82811015611c94575f8030868685818110612682576126826154d4565b905060200281019061269491906155b2565b6040516126a29291906155fb565b5f60405180830381855af49150503d805f81146126da576040519150601f19603f3d011682016040523d82523d5f602084013e6126df565b606091505b509150915081612715578051156126f95780518082602001fd5b60405163234eb81960e01b8152600481018490526024016103f2565b80848481518110612728576127286154d4565b60209081029190910101525050600101612665565b6001600160a01b0381165f908152600460205260408120610d5c90614094565b612765613b83565b61276e5f61409d565b565b612778613b83565b5f838152601960209081526040918290208251808401909352805480845260019091015460ff1691830191909152839082906127b590839061545e565b90525060ff82811660208381018281525f888152601983526040908190208651815591516001909201805460ff191692909516919091179093558251878152908101869052918201527f129e06f7590300e51f74f004b0be10636d8d775ec7419a82351ab9d6d46fa7a59060600160405180910390a150505050565b8451845181141580612844575083518114155b80612850575082518114155b8061285c575081518114155b1561287a576040516393a8311960e01b815260040160405180910390fd5b5f5b818110156129165761290e878281518110612899576128996154d4565b60200260200101518783815181106128b3576128b36154d4565b60200260200101518784815181106128cd576128cd6154d4565b60200260200101518785815181106128e7576128e76154d4565b6020026020010151878681518110612901576129016154d4565b602002602001015161247c565b60010161287c565b50505050505050565b612927613b83565b34156129465760405163f36ba73760e01b815260040160405180910390fd5b6129508282614108565b5050565b61295c613b83565b604051633b06cddd60e11b81526001600160a01b0386169063760d9bba90612990903090889088908890889060040161560a565b5f604051808303815f87803b1580156129a7575f5ffd5b505af11580156129b9573d5f5f3e3d5ffd5b505050505050505050565b6129cc613b83565b60155460ff1615612a155760405162461bcd60e51b8152602060048201526013602482015272105b1c9958591e481a5b9a5d1a585b1a5e9959606a1b60448201526064016103f2565b6040805160c081018252600460808201908152637261726560e01b60a08301528152600260208083019190915269152d02c7e14af6800000828401526009546001600160a01b031660608301528251808401909352600683526570686173653160d01b928101929092527fc24cb111102d5afff3e7e3d2a419e43bfcfbd1644e722d97ae1dde43689c692e5f52601790915280517fa9aa1e8a189607e91597e27491857fbfc907ec595f9d9290325545157e276158908190612ad79082615688565b506020828101516001830155604080840151600280850191909155606094850151600390940180546001600160a01b0319166001600160a01b03958616179055815160c081018352600460808201908152637261726560e01b60a083015281528084019190915269152d02c7e14af6800000818301526009549093169383019390935282518084019093526006835265383430b9b29960d11b928101929092527f31ff0d7509b9e31b70c2f6675efcb36969ae2d4720759268c27a3c2d51c51bb85f52601790915280517f2aaa4e2f7466e5ef9c5d95bff4cb034a4c3d8b4e1e74b3e9921b58eef6acfa3c908190612bcf9082615688565b5060208281015160018301556040808401516002840155606093840151600390930180546001600160a01b0319166001600160a01b0390941693909317909255815160c081018352600660808201818152651b9bdc9b585b60d21b60a08401528252606482840152676f05b59d3b200000828501525f948201859052835180850190945283526570686173653360d01b928201929092527f937e1d94bc55ffec9829015291a63bd3e70285ccc44e824a2122a581cecdcf1b909252601790915280517fa47a4634de08d2d08fb56b3d6c50d18cfd4f4bfb89127f63af8c8b5a73669892908190612cbf9082615688565b5060208281015160018301556040808401516002840155606093840151600390930180546001600160a01b0319166001600160a01b0390941693909317909255815160c081018352600660808201818152651b9bdc9b585b60d21b60a084015282526103e882840152678ac7230489e80000828501525f94820185905283518085019094528352651c1a185cd94d60d21b928201929092527f4f02ff418b3ad3258827773457b6f51bf42ca59a1eda9cab03e6762a5c0cb47b909252601790915280517f814fcff2c1c99d07f608f518b5c99b7a7d8d558a375c21c8a44b26e7fb5322ad908190612db09082615688565b506020828101516001838101919091556040808501516002850155606090940151600390930180546001600160a01b0319166001600160a01b03909416939093179092558251808401909352600683526570686173653160d01b928101929092527fc24cb111102d5afff3e7e3d2a419e43bfcfbd1644e722d97ae1dde43689c692e601455601a9091526107d07ff88cd8d612926ebb404e40725c01084b6e9b3ce0344cde068570342cbd448c61556109c47f4c287b3e2c2cb129ae3ba596d613d760b15affdac7242e12903c37a886ea1c4f55610dac7f4ac83fca211703e3ddb90093cd219714e5e3715bf0b4fd15b0441390534a24e255610fa07f06b28f262ad931a15c9e47271fc159a891b2bcb0da2659cac5bbfed4886cf26e556113887f82f07edc09f3a46c1925d02252613a7fcc7be7d03b538b0c268df85f2f13a7ab8190557fe7513fcd4f864b78baf560f46c15980b6aa41b90911efc4ce7454b83cce613b1556161a87f2247382acc746a936c6b9b694445e53b16ccce9ebaa44dd1ce1d5f0641b0797b8190557f687151c9c7964c905d515053234445b7256d6eb52f0f0fb698ac00a08a410abf5561c3507f3a9dcd6f76534b067931c1cc4a24cb9c117c7d95c716bce6d59bb4825bc6713355600a5f52620186a07fdbe7ff1220189de7e6173da9d377e212c5f94fd76a3505f188b6c362d3973d9d556015805460ff19169091179055565b612fc6613b83565b47806130015760405162461bcd60e51b815260206004820152600a6024820152694e6f2062616c616e636560b01b60448201526064016103f2565b5f80546040516001600160a01b039091169083908381818185875af1925050503d805f811461304b576040519150601f19603f3d011682016040523d82523d5f602084013e613050565b606091505b505090508061308a5760405162461bcd60e51b815260206004820152600660248201526511985a5b195960d21b60448201526064016103f2565b5f54604080518481524260208201526001600160a01b03909216917fdf273cb619d95419a9cd0ec88123a0538c85064229baa6363788f743fff90deb91015b60405180910390a25050565b5f6130df83611c9b565b90506001600160a01b038116331461312257604051632d938f5160e11b81526001600160a01b0382166004820152602481018490523360448201526064016103f2565b6001600160a01b03841661314957604051639577b8b360e01b815260040160405180910390fd5b836001600160a01b0316816001600160a01b03160361317b576040516344fed6b160e11b815260040160405180910390fd5b5f8381526005602052604081206131929086614152565b9050806131c4576040516314ec4d6d60e31b81526001600160a01b0386166004820152602481018590526044016103f2565b83826001600160a01b0316866001600160a01b03167f1b1b58aa2ec0cec2228b2d37124556d41f5a1f7b12f089171f896cc23667121586604051613208919061498c565b60405180910390a45f33856001866040516020016132299493929190615742565b60405160208183030381529060405290506132448682614166565b505050505050565b613254613b83565b60168190556040518181527f816103aac16cacfe1ebffcbcab87297d7aad12d1af1046d79a83ad3cc2607a529060200160405180910390a150565b613297613b83565b34156132b65760405163f36ba73760e01b815260040160405180910390fd5b80518251146132d857604051633bcc897960e01b815260040160405180910390fd5b81515f036132f9576040516397da5f9560e01b815260040160405180910390fd5b5f5b825181101561334857613340838281518110613319576133196154d4565b6020026020010151838381518110613333576133336154d4565b6020026020010151614108565b6001016132fb565b505050565b6001600160a01b0381165f908152600460205260409020606090610d5c90613e0d565b613378613b83565b61276e614191565b613388613b83565b8151835114158061339b57508051825114155b156133b9576040516317d38eff60e11b815260040160405180910390fd5b82515f036133da576040516380c9830560e01b815260040160405180910390fd5b5f5b83518110156134435761343b8482815181106133fa576133fa6154d4565b6020026020010151848381518110613414576134146154d4565b602002602001015184848151811061342e5761342e6154d4565b6020026020010151613bbe565b6001016133dc565b50505050565b613451613b83565b613348838383613bbe565b613464613b83565b6040805160808101825285815260208082018690528183018590526001600160a01b03841660608301525f888152601790915291909120815181906134a99082615688565b50602082015160018201556040808301516002830155606090920151600390910180546001600160a01b0319166001600160a01b039092169190911790555185907f77c929eb8d84e64bd596235f9c891fdd7bfdab5c78b3e9ffe8ab7d933b5815fb9061351d9087908790879087906152d9565b60405180910390a25050505050565b613534613b83565b61276e6141e3565b60176020525f908152604090208054819061355690615501565b80601f016020809104026020016040519081016040528092919081815260200182805461358290615501565b80156135cd5780601f106135a4576101008083540402835291602001916135cd565b820191905f5260205f20905b8154815290600101906020018083116135b057829003601f168201915b5050505060018301546002840154600390940154929390929091506001600160a01b031684565b5f6135fe84611c9b565b9050336001600160a01b03821614613651576001600160a01b03851633146136515760405163760b5acd60e01b81523360048201526001600160a01b0382166024820152604481018590526064016103f2565b6001600160a01b03851661367857604051639577b8b360e01b815260040160405180910390fd5b846001600160a01b0316816001600160a01b0316036136aa576040516344fed6b160e11b815260040160405180910390fd5b6136b78582868686614220565b82156124b9575f81855f856040516020016132299493929190615742565b606081516001600160401b038111156136f0576136f061499e565b60405190808252806020026020018201604052801561372357816020015b606081526020019060019003908161370e5790505b5090505f5b825181101561377857613753838281518110613746576137466154d4565b6020026020010151613ff5565b828281518110613765576137656154d4565b6020908102919091010152600101613728565b50919050565b613786613b83565b5f5b8251811015613348575f8382815181106137a4576137a46154d4565b60209081029190910101519050826001600160a01b0382166137d95760405163e6c4247b60e01b815260040160405180910390fd5b6001600160a01b0382165f818152601c6020908152604091829020805460ff191660ff861690811790915591519182527f7ed18aa59a2962897d3e7ed3da887dfb6a03cca6c3cfe8d74e55130f631791c8910160405180910390a25050600101613788565b613846613b83565b6001600160a01b03811661386d576040516306b620db60e21b815260040160405180910390fd5b6138768161409d565b50565b5f82815260196020526040812060018082015491929161389e9160ff9091169061556a565b9050600a8160ff1611156138c55760405163921c7d5f60e01b815260040160405180910390fd5b60ff81165f908152601a6020526040902054825481808210156139045760405163dd100b9360e01b8152600481019290925260248201526044016103f2565b50506009546001600160a01b031663760d9bba33308460016040518563ffffffff1660e01b815260040161393b9493929190615533565b5f604051808303815f87803b158015613952575f5ffd5b505af1158015613964573d5f5f3e3d5ffd5b50505050613995857f9afb95cacc9f95858ec44aa8c3b685511002e30ae54415823f406128b85b238e5f1b86613bbe565b80835f015f8282546139a7919061577a565b909155505050600191909101805460ff191660ff9092169190911790555050565b5f80806139ec696773c5a04a6d4300884b60b11b6001600160e01b031986166142bf565b90505f6139f882613ff5565b90508051601414158015613a0c5750805115155b15613a2c57806040516342bfe79f60e01b81526004016103f2919061498c565b613a358161578d565b60601c95600195509350505050565b5f6001600160e01b0319821663a918fa6b60e01b1480610d5c5750610d5c82614312565b5f80613a7a6301ffc9a760e01b6139c8565b5090506001600160a01b038116613a9357505f92915050565b611bae8184614346565b5f8281526006602090815260408083208484529091529020805460609190613ac490615501565b80601f0160208091040260200160405190810160405280929190818152602001828054613af090615501565b8015613b3b5780601f10613b1257610100808354040283529160200191613b3b565b820191905f5260205f20905b815481529060010190602001808311613b1e57829003601f168201915b5050505050905092915050565b5f613b5282611c9b565b6001600160a01b0316836001600160a01b03161480611bae57505f828152600560205260409020611bae90846143cc565b33613b955f546001600160a01b031690565b6001600160a01b03161461276e5760405163bf1169c560e01b81523360048201526024016103f2565b5f8381526006602090815260408083208584529091529020613be08282615688565b5081837fa6e4251f855f750545fe414f120db91c76b88def14d120969e5bb2d3f05debbb83604051613c12919061498c565b60405180910390a3505050565b600260085403613c4257604051633ee5aeb560e01b815260040160405180910390fd5b6002600855565b60075460ff161561276e5760405163d93c066560e01b815260040160405180910390fd5b6001600160a01b038416613c94576040516324ecef4d60e01b815260040160405180910390fd5b5f838152600360205260409020546001600160a01b031615613ccc576040516334c7b51160e01b8152600481018490526024016103f2565b5f838152600360205260409020546001600160a01b031615613d04576040516334c7b51160e01b8152600481018490526024016103f2565b60025f8154613d12906157db565b909155506001600160a01b0384165f908152600460205260409020613d3790846143ed565b505f8381526003602052604080822080546001600160a01b0319166001600160a01b03881690811790915590518592907fb333c813a7426a7a11e2b190cad52c44119421594b47f6f32ace6d8c7207b2bf90613d98903390889088906157f3565b60405180910390a45f335f868685604051602001613dba95949392919061581e565b60405160208183030381529060405290506124b98584836143f8565b5f818152600360205260409020546001600160a01b031661387657604051635747cd1b60e11b8152600481018290526024016103f2565b60605f611bae836144fb565b5f613e2384611c9b565b9050856001600160a01b0316816001600160a01b031614613e7157604051632d938f5160e11b81526001600160a01b03808316600483015260248201869052871660448201526064016103f2565b6001600160a01b038516613e98576040516324ecef4d60e01b815260040160405180910390fd5b5f613ea285611c9b565b9050806001600160a01b0316826001600160a01b031614613ef057604051635a9c31d360e01b8152600481018690526001600160a01b038084166024830152821660448201526064016103f2565b613efa8786614553565b6001600160a01b0387165f908152600460205260409020613f1b90866145a6565b506001600160a01b0386165f908152600460205260409020613f3d90866143ed565b505f858152600360205260409081902080546001600160a01b0319166001600160a01b0389811691821790925591518792918a16907fb333c813a7426a7a11e2b190cad52c44119421594b47f6f32ace6d8c7207b2bf90613fa39033908a908a906157f3565b60405180910390a45f3388888887604051602001613fc595949392919061581e565b6040516020818303038152906040529050613fe088826145b1565b613feb8786836143f8565b5050505050505050565b5f81815260016020526040902080546060919061401190615501565b80601f016020809104026020016040519081016040528092919081815260200182805461403d90615501565b80156140885780601f1061405f57610100808354040283529160200191614088565b820191905f5260205f20905b81548152906001019060200180831161406b57829003601f168201915b50505050509050919050565b5f610d5c825490565b5f546001600160a01b03828116911614613876575f80546040516001600160a01b03808516939216917f8be0079c531659141344cd1fd0a4f28419497f9722a3daafe3b4186f6b6457e091a35f80546001600160a01b0383166001600160a01b031990911617905550565b7f098a16c9e50e3e99b3e797305c146898d294e5aec55a47e213cb3611ccf17e73820161414857604051631b32400560e11b815260040160405180910390fd5b61295082826145dc565b5f611bae836001600160a01b0384166145e6565b612950827f8a1c15a8799f71b547e08e2bcb2e85257e81b0a07eee2ce6712549eef1f0097083614632565b61419961467f565b6007805460ff191690557f5db9ee0a495bf2e6ff9c91a7834c1ba4fdd244a5e8aa4e537bd38aeae4b073aa335b6040516001600160a01b03909116815260200160405180910390a1565b6141eb613c49565b6007805460ff191660011790557f62e78cea01bee320cd4e420270b5ea74000d11b0c9f74754ebdbfc544b05a2586141c63390565b5f83815260056020526040812061423790876146a2565b905080614269576040516312a8c6a360e21b81526001600160a01b0387166004820152602481018590526044016103f2565b83856001600160a01b0316876001600160a01b03167fc78cd419d6136f9f1c1c6aec1d3fae098cffaf8bc86314a8f2685e32fe574e3c86866040516142af929190615858565b60405180910390a4505050505050565b604080516001600160b01b0319841660208201525f602a82018190526001600160601b03198416602c8301529182910160405160208183030381529060405290508061430a90615872565b949350505050565b5f6001600160e01b031982166318a6a9a560e21b1480610d5c57506301ffc9a760e01b6001600160e01b0319831614610d5c565b6040516001600160e01b0319821660248201525f90819060440160408051601f19818403018152919052602080820180516001600160e01b03166301ffc9a760e01b17815282519293505f9283928392909183918a617530fa92503d91505f5190508280156143b6575060208210155b80156143c157505f81115b979650505050505050565b6001600160a01b0381165f9081526001830160205260408120541515611bae565b5f611bae83836145e6565b61440983631aed5a8560e21b614346565b1561449e57604051631aed5a8560e21b81526001600160a01b03841690636bb56a149061445c907f0b084a55ebf70fd3c06fd755269dac2212c4d3f0f4d09079780bfa50c1b2984d908590600401615895565b5f604051808303815f875af1158015614477573d5f5f3e3d5ffd5b505050506040513d5f823e601f3d908101601f1916820160405261344391908101906158ad565b81613348576001600160a01b0383163b156144d757604051634349776d60e01b81526001600160a01b03841660048201526024016103f2565b604051630317313760e01b81526001600160a01b03841660048201526024016103f2565b6060815f0180548060200260200160405190810160405280929190818152602001828054801561408857602002820191905f5260205f20905b8154815260200190600101908083116145345750505050509050919050565b5f8181526005602052604081209061456a82614094565b90505f5f5b8281101561324457614581845f6146b6565b915061459e8287875f60405180602001604052805f815250614220565b60010161456f565b5f611bae83836146c1565b612950827fb23eae7e6d1564b295b4c3e3be402d9a2f0776c57bdf365903496f6fa481ab0083614632565b61295082826147a4565b5f81815260018301602052604081205461462b57508154600181810184555f848152602080822090930184905584548482528286019093526040902091909155610d5c565b505f610d5c565b61464c6001600160a01b038416631aed5a8560e21b614346565b1561334857604051631aed5a8560e21b81526001600160a01b03841690636bb56a149061445c9085908590600401615895565b60075460ff1661276e57604051638dfc202b60e01b815260040160405180910390fd5b5f611bae836001600160a01b0384166146c1565b5f611bae83836148ac565b5f818152600183016020526040812054801561479b575f6146e360018361577a565b85549091505f906146f69060019061577a565b9050808214614755575f865f018281548110614714576147146154d4565b905f5260205f200154905080875f018481548110614734576147346154d4565b5f918252602080832090910192909255918252600188019052604090208390555b855486908061476657614766615921565b600190038181905f5260205f20015f90559055856001015f8681526020019081526020015f205f905560019350505050610d5c565b5f915050610d5c565b7f2145e1d6d074577dc71ef54c3807742b41b053a9352ae6b491331509acb9750f82016147e4576040516385c169bd60e01b815260040160405180910390fd5b7fd0f59754f88971fe6bc5a6618cc9d5f1e859c58d16b22d1c7b2d3e2b246cd8aa820161482457604051630eceab6760e31b815260040160405180910390fd5b7f1fd9e056a24d14c4abc642fcc325992a946906d0dbc57dd70278aaf12842024d820161486457604051634ef6d7fb60e01b815260040160405180910390fd5b5f82815260016020526040902061487b8282615688565b50817fece574603820d07bc9b91f2a932baadf4628aabcb8afba49776529c14a6104b2826040516130c9919061498c565b5f825f0182815481106148c1576148c16154d4565b905f5260205f200154905092915050565b60208152816020820152818360408301375f818301604090810191909152601f909201601f19160101919050565b5f60208284031215614910575f5ffd5b81356001600160e01b031981168114611bae575f5ffd5b5f60208284031215614937575f5ffd5b5035919050565b5f5f6040838503121561494f575f5ffd5b50508035926020909101359150565b5f81518084528060208401602086015e5f602082860101526020601f19601f83011685010191505092915050565b602081525f611bae602083018461495e565b634e487b7160e01b5f52604160045260245ffd5b60405161014081016001600160401b03811182821017156149d5576149d561499e565b60405290565b604051601f8201601f191681016001600160401b0381118282101715614a0357614a0361499e565b604052919050565b5f6001600160401b03821115614a2357614a2361499e565b5060051b60200190565b5f82601f830112614a3c575f5ffd5b8135614a4f614a4a82614a0b565b6149db565b8082825260208201915060208360051b860101925085831115614a70575f5ffd5b602085015b83811015614a8d578035835260209283019201614a75565b5095945050505050565b5f5f60408385031215614aa8575f5ffd5b82356001600160401b03811115614abd575f5ffd5b614ac985828601614a2d565b92505060208301356001600160401b03811115614ae4575f5ffd5b614af085828601614a2d565b9150509250929050565b5f602082016020835280845180835260408501915060408160051b8601019250602086015f5b82811015614b5157603f19878603018452614b3c85835161495e565b94506020938401939190910190600101614b20565b50929695505050505050565b80356001600160a01b0381168114614b73575f5ffd5b919050565b5f5f60408385031215614b89575f5ffd5b614b9283614b5d565b946020939093013593505050565b5f610140828403128015614bb2575f5ffd5b50614bbb6149b2565b614bc483614b5d565b8152614bd260208401614b5d565b6020820152614be360408401614b5d565b6040820152614bf460608401614b5d565b6060820152614c0560808401614b5d565b6080820152614c1660a08401614b5d565b60a0820152614c2760c08401614b5d565b60c0820152614c3860e08401614b5d565b60e0820152614c4a6101008401614b5d565b610100820152614c5d6101208401614b5d565b6101208201529392505050565b5f6001600160401b03821115614c8257614c8261499e565b50601f01601f191660200190565b5f614c9d614a4a84614c6a565b9050828152838383011115614cb0575f5ffd5b828260208301375f602084830101529392505050565b5f82601f830112614cd5575f5ffd5b611bae83833560208501614c90565b5f5f60408385031215614cf5575f5ffd5b8235915060208301356001600160401b03811115614d11575f5ffd5b614af085828601614cc6565b5f60208284031215614d2d575f5ffd5b611bae82614b5d565b602080825282518282018190525f918401906040840190835b81811015614d765783516001600160a01b0316835260209384019390920191600101614d4f565b509095945050505050565b8015158114613876575f5ffd5b5f5f5f5f5f60a08688031215614da2575f5ffd5b614dab86614b5d565b9450614db960208701614b5d565b9350604086013592506060860135614dd081614d81565b915060808601356001600160401b03811115614dea575f5ffd5b614df688828901614cc6565b9150509295509295909350565b5f5f5f60608486031215614e15575f5ffd5b833592506020840135915060408401356001600160401b03811115614e38575f5ffd5b614e4486828701614cc6565b9150509250925092565b5f5f60208385031215614e5f575f5ffd5b82356001600160401b03811115614e74575f5ffd5b8301601f81018513614e84575f5ffd5b80356001600160401b03811115614e99575f5ffd5b8560208260051b8401011115614ead575f5ffd5b6020919091019590945092505050565b803560ff81168114614b73575f5ffd5b5f5f5f60608486031215614edf575f5ffd5b8335925060208401359150614ef660408501614ebd565b90509250925092565b5f82601f830112614f0e575f5ffd5b8135614f1c614a4a82614a0b565b8082825260208201915060208360051b860101925085831115614f3d575f5ffd5b602085015b83811015614a8d57614f5381614b5d565b835260209283019201614f42565b5f82601f830112614f70575f5ffd5b8135614f7e614a4a82614a0b565b8082825260208201915060208360051b860101925085831115614f9f575f5ffd5b602085015b83811015614a8d578035614fb781614d81565b835260209283019201614fa4565b5f82601f830112614fd4575f5ffd5b8135614fe2614a4a82614a0b565b8082825260208201915060208360051b860101925085831115615003575f5ffd5b602085015b83811015614a8d5780356001600160401b03811115615025575f5ffd5b615034886020838a0101614cc6565b84525060209283019201615008565b5f5f5f5f5f60a08688031215615057575f5ffd5b85356001600160401b0381111561506c575f5ffd5b61507888828901614eff565b95505060208601356001600160401b03811115615093575f5ffd5b61509f88828901614eff565b94505060408601356001600160401b038111156150ba575f5ffd5b6150c688828901614a2d565b93505060608601356001600160401b038111156150e1575f5ffd5b6150ed88828901614f61565b92505060808601356001600160401b03811115615108575f5ffd5b614df688828901614fc5565b5f5f5f60608486031215615126575f5ffd5b61512f84614b5d565b92506020840135915060408401356001600160401b03811115614e38575f5ffd5b5f5f60408385031215615161575f5ffd5b82356001600160401b03811115615176575f5ffd5b61518285828601614a2d565b92505060208301356001600160401b0381111561519d575f5ffd5b614af085828601614fc5565b602080825282518282018190525f918401906040840190835b81811015614d765783518352602093840193909201916001016151c2565b5f5f5f606084860312156151f2575f5ffd5b83356001600160401b03811115615207575f5ffd5b61521386828701614a2d565b93505060208401356001600160401b0381111561522e575f5ffd5b61523a86828701614a2d565b92505060408401356001600160401b03811115615255575f5ffd5b614e4486828701614fc5565b5f5f5f5f5f60a08688031215615275575f5ffd5b8535945060208601356001600160401b03811115615291575f5ffd5b8601601f810188136152a1575f5ffd5b6152b088823560208401614c90565b94505060408601359250606086013591506152cd60808701614b5d565b90509295509295909350565b608081525f6152eb608083018761495e565b60208301959095525060408101929092526001600160a01b0316606090910152919050565b5f5f5f5f60808587031215615323575f5ffd5b61532c85614b5d565b935060208501359250604085013561534381614d81565b915060608501356001600160401b0381111561535d575f5ffd5b61536987828801614cc6565b91505092959194509250565b5f60208284031215615385575f5ffd5b81356001600160401b0381111561539a575f5ffd5b61430a84828501614a2d565b5f5f604083850312156153b7575f5ffd5b82356001600160401b038111156153cc575f5ffd5b6153d885828601614eff565b9250506153e760208401614ebd565b90509250929050565b5f60208284031215615400575f5ffd5b611bae82614ebd565b8385823760609290921b6001600160601b031916919092019081526014810191909152603401919050565b5f82518060208501845e5f920191825250919050565b634e487b7160e01b5f52601160045260245ffd5b80820180821115610d5c57610d5c61544a565b5f60208284031215615481575f5ffd5b5051919050565b8082028115828204841417610d5c57610d5c61544a565b6001600160a01b0392831681529116602082015260400190565b5f602082840312156154c9575f5ffd5b8151611bae81614d81565b634e487b7160e01b5f52603260045260245ffd5b60ff8281168282160390811115610d5c57610d5c61544a565b600181811c9082168061551557607f821691505b60208210810361377857634e487b7160e01b5f52602260045260245ffd5b6001600160a01b0394851681529290931660208301526040820152901515606082015260a0608082018190525f9082015260c00190565b60ff8181168382160190811115610d5c57610d5c61544a565b60018060a01b0384168152826020820152606060408201525f6155a9606083018461495e565b95945050505050565b5f5f8335601e198436030181126155c7575f5ffd5b8301803591506001600160401b038211156155e0575f5ffd5b6020019150368190038213156155f4575f5ffd5b9250929050565b818382375f9101908152919050565b6001600160a01b0386811682528516602082015260408101849052821515606082015260a0608082018190525f906143c19083018461495e565b601f82111561334857805f5260205f20601f840160051c810160208510156156695750805b601f840160051c820191505b818110156124b9575f8155600101615675565b81516001600160401b038111156156a1576156a161499e565b6156b5816156af8454615501565b84615644565b6020601f8211600181146156e7575f83156156d05750848201515b5f19600385901b1c1916600184901b1784556124b9565b5f84815260208120601f198516915b8281101561571657878501518255602094850194600190920191016156f6565b508482101561573357868401515f19600387901b60f8161c191681555b50505050600190811b01905550565b60018060a01b03851681528360208201528215156040820152608060608201525f615770608083018461495e565b9695505050505050565b81810381811115610d5c57610d5c61544a565b805160208201516001600160601b03198116919060148210156157d4576bffffffffffffffffffffffff196bffffffffffffffffffffffff198360140360031b1b82161692505b5050919050565b5f600182016157ec576157ec61544a565b5060010190565b6001600160a01b038416815282151560208201526060604082018190525f906155a99083018461495e565b6001600160a01b0386811682528581166020830152841660408201526060810183905260a0608082018190525f906143c19083018461495e565b8215158152604060208201525f61430a604083018461495e565b80516020808301519190811015613778575f1960209190910360031b1b16919050565b828152604060208201525f61430a604083018461495e565b5f602082840312156158bd575f5ffd5b81516001600160401b038111156158d2575f5ffd5b8201601f810184136158e2575f5ffd5b80516158f0614a4a82614c6a565b818152856020838501011115615904575f5ffd5b8160208401602083015e5f91810160200191909152949350505050565b634e487b7160e01b5f52603160045260245ffdfea264697066735822122022ab8c39d737f1b5d073e276eef9a35dbfca70a5f7b13e12309401e4f741b94a64736f6c634300081e0033",
			"opcodes": "PUSH2 0x120 PUSH1 0x40 MSTORE PUSH2 0x1F4 PUSH1 0x16 SSTORE CALLVALUE DUP1 ISZERO PUSH2 0x16 JUMPI PUSH0 PUSH0 REVERT JUMPDEST POP PUSH1 0x40 MLOAD PUSH2 0x63BA CODESIZE SUB DUP1 PUSH2 0x63BA DUP4 CODECOPY DUP2 ADD PUSH1 0x40 DUP2 SWAP1 MSTORE PUSH2 0x35 SWAP2 PUSH2 0x72D JUMP JUMPDEST PUSH1 0x40 DUP1 MLOAD DUP1 DUP3 ADD DUP3 MSTORE PUSH1 0x8 DUP2 MSTORE PUSH8 0x4C756B5365616C73 PUSH1 0xC0 SHL PUSH1 0x20 DUP1 DUP4 ADD SWAP2 SWAP1 SWAP2 MSTORE DUP3 MLOAD DUP1 DUP5 ADD SWAP1 SWAP4 MSTORE PUSH1 0x4 DUP4 MSTORE PUSH4 0x14D15053 PUSH1 0xE2 SHL SWAP1 DUP4 ADD MSTORE SWAP1 CALLER PUSH1 0x2 PUSH0 DUP5 DUP5 DUP5 DUP5 DUP2 DUP1 PUSH2 0x97 JUMPI PUSH1 0x40 MLOAD PUSH4 0x6B620DB PUSH1 0xE2 SHL DUP2 MSTORE PUSH1 0x4 ADD PUSH1 0x40 MLOAD DUP1 SWAP2 SUB SWAP1 REVERT JUMPDEST PUSH2 0xA0 DUP2 PUSH2 0x235 JUMP JUMPDEST POP PUSH1 0x40 DUP1 MLOAD DUP1 DUP3 ADD SWAP1 SWAP2 MSTORE PUSH1 0x4 DUP2 MSTORE PUSH4 0x29365989 PUSH1 0xE2 SHL PUSH1 0x20 DUP3 ADD MSTORE PUSH2 0xE7 SWAP1 PUSH32 0xEAFEC4D89FA9619884B60000A4D96624A38F7AC2D8D9A604ECF07C12C77E480C SWAP1 PUSH2 0x29F JUMP JUMPDEST PUSH2 0x111 PUSH32 0xDEBA1E292F8BA88238E10AB3C7F88BD4BE4FAC56CAD5194B6ECCEAF653468AF1 DUP6 PUSH2 0x29F JUMP JUMPDEST PUSH2 0x13B PUSH32 0x2F0A68AB07768E01943A599E73362A0E17A63A72E94DD2E384D2C1D4DB932756 DUP5 PUSH2 0x29F JUMP JUMPDEST PUSH1 0x40 DUP1 MLOAD PUSH1 0x20 DUP2 ADD DUP4 SWAP1 MSTORE PUSH2 0x182 SWAP2 PUSH32 0xE0261FA95DB2EB3B5439BD033CDA66D56B96F92F243A8228FD87550ED7BDFDB3 SWAP2 ADD PUSH1 0x40 DUP1 MLOAD PUSH1 0x1F NOT DUP2 DUP5 SUB ADD DUP2 MSTORE SWAP2 SWAP1 MSTORE PUSH2 0x29F JUMP JUMPDEST POP POP PUSH1 0x40 DUP1 MLOAD PUSH1 0x20 DUP2 ADD DUP6 SWAP1 MSTORE PUSH2 0x1CD SWAP4 POP PUSH32 0xF675E9361AF1C1664C1868CFA3EB97672D6B1A513AA5B81DEC34C9EE330E818D SWAP3 POP ADD PUSH1 0x40 DUP1 MLOAD PUSH1 0x1F NOT DUP2 DUP5 SUB ADD DUP2 MSTORE SWAP2 SWAP1 MSTORE PUSH2 0x2F3 JUMP JUMPDEST POP POP PUSH1 0x7 DUP1 SLOAD PUSH1 0xFF NOT AND SWAP1 SSTORE POP POP PUSH1 0x1 PUSH1 0x8 SSTORE POP PUSH2 0x1EA DUP3 PUSH2 0x301 JUMP JUMPDEST DUP2 MLOAD PUSH1 0x1 PUSH1 0x1 PUSH1 0xA0 SHL SUB SWAP1 DUP2 AND PUSH1 0x80 MSTORE PUSH1 0x20 DUP4 ADD MLOAD DUP2 AND PUSH1 0xA0 MSTORE PUSH1 0x40 DUP4 ADD MLOAD DUP2 AND PUSH1 0xC0 MSTORE PUSH1 0x60 DUP4 ADD MLOAD DUP2 AND PUSH1 0xE0 MSTORE PUSH2 0x120 DUP4 ADD MLOAD AND PUSH2 0x100 MSTORE PUSH2 0x22E DUP2 PUSH1 0x1 PUSH2 0x459 JUMP JUMPDEST POP POP PUSH2 0x9B7 JUMP JUMPDEST PUSH0 SLOAD PUSH1 0x1 PUSH1 0x1 PUSH1 0xA0 SHL SUB DUP3 DUP2 AND SWAP2 AND EQ PUSH2 0x29C JUMPI PUSH0 DUP1 SLOAD PUSH1 0x40 MLOAD PUSH1 0x1 PUSH1 0x1 PUSH1 0xA0 SHL SUB DUP1 DUP6 AND SWAP4 SWAP3 AND SWAP2 PUSH32 0x8BE0079C531659141344CD1FD0A4F28419497F9722A3DAAFE3B4186F6B6457E0 SWAP2 LOG3 PUSH0 DUP1 SLOAD PUSH1 0x1 PUSH1 0x1 PUSH1 0xA0 SHL SUB NOT AND PUSH1 0x1 PUSH1 0x1 PUSH1 0xA0 SHL SUB DUP4 AND OR SWAP1 SSTORE JUMPDEST POP JUMP JUMPDEST PUSH0 DUP3 DUP2 MSTORE PUSH1 0x1 PUSH1 0x20 MSTORE PUSH1 0x40 SWAP1 KECCAK256 PUSH2 0x2B6 DUP3 DUP3 PUSH2 0x8B4 JUMP JUMPDEST POP DUP2 PUSH32 0xECE574603820D07BC9B91F2A932BAADF4628AABCB8AFBA49776529C14A6104B2 DUP3 PUSH1 0x40 MLOAD PUSH2 0x2E7 SWAP2 SWAP1 PUSH2 0x96E JUMP JUMPDEST PUSH1 0x40 MLOAD DUP1 SWAP2 SUB SWAP1 LOG2 POP POP JUMP JUMPDEST PUSH2 0x2FD DUP3 DUP3 PUSH2 0x51E JUMP JUMPDEST POP POP JUMP JUMPDEST PUSH2 0x309 PUSH2 0x5DE JUMP JUMPDEST DUP1 MLOAD PUSH1 0x9 DUP1 SLOAD PUSH1 0x1 PUSH1 0x1 PUSH1 0xA0 SHL SUB SWAP3 DUP4 AND PUSH1 0x1 PUSH1 0x1 PUSH1 0xA0 SHL SUB NOT SWAP2 DUP3 AND DUP2 OR SWAP1 SWAP3 SSTORE PUSH1 0x20 DUP5 ADD MLOAD PUSH1 0xA DUP1 SLOAD SWAP2 DUP6 AND SWAP2 DUP4 AND DUP3 OR SWAP1 SSTORE PUSH1 0x40 DUP1 DUP7 ADD MLOAD PUSH1 0xB DUP1 SLOAD SWAP2 DUP8 AND SWAP2 DUP6 AND DUP3 OR SWAP1 SSTORE PUSH1 0x60 DUP8 ADD MLOAD PUSH1 0xC DUP1 SLOAD DUP3 DUP10 AND SWAP1 DUP8 AND OR SWAP1 SSTORE PUSH1 0x80 DUP9 ADD MLOAD PUSH1 0xD DUP1 SLOAD DUP3 DUP11 AND SWAP1 DUP9 AND OR SWAP1 SSTORE PUSH1 0xA0 DUP10 ADD MLOAD PUSH1 0xE DUP1 SLOAD DUP3 DUP12 AND SWAP1 DUP10 AND OR SWAP1 SSTORE PUSH1 0xC0 DUP11 ADD MLOAD PUSH1 0xF DUP1 SLOAD DUP3 DUP13 AND SWAP1 DUP11 AND OR SWAP1 SSTORE PUSH1 0xE0 DUP12 ADD MLOAD PUSH1 0x10 DUP1 SLOAD DUP3 DUP14 AND SWAP1 DUP12 AND OR SWAP1 SSTORE PUSH2 0x100 DUP13 ADD MLOAD PUSH1 0x11 DUP1 SLOAD DUP3 DUP15 AND SWAP1 DUP13 AND OR SWAP1 SSTORE PUSH2 0x120 DUP14 ADD MLOAD PUSH1 0x12 DUP1 SLOAD SWAP14 DUP3 AND SWAP14 SWAP1 SWAP12 AND SWAP13 SWAP1 SWAP13 OR SWAP1 SWAP10 SSTORE SWAP6 MLOAD SWAP5 SWAP10 SWAP7 SWAP9 SWAP8 PUSH32 0xD7FF29EFFCED1B6A8B99FF16244C286AF48221D90470A241C633BCC7C9DFD84D SWAP8 PUSH2 0x44E SWAP8 SWAP6 SWAP7 SWAP5 SWAP6 SWAP4 SWAP5 SWAP3 SWAP4 SWAP3 PUSH1 0x1 PUSH1 0x1 PUSH1 0xA0 SHL SUB SWAP8 DUP9 AND DUP2 MSTORE SWAP6 DUP8 AND PUSH1 0x20 DUP8 ADD MSTORE SWAP4 DUP7 AND PUSH1 0x40 DUP7 ADD MSTORE SWAP2 DUP6 AND PUSH1 0x60 DUP6 ADD MSTORE DUP5 AND PUSH1 0x80 DUP5 ADD MSTORE DUP4 AND PUSH1 0xA0 DUP4 ADD MSTORE SWAP1 SWAP2 AND PUSH1 0xC0 DUP3 ADD MSTORE PUSH1 0xE0 ADD SWAP1 JUMP JUMPDEST PUSH1 0x40 MLOAD DUP1 SWAP2 SUB SWAP1 LOG4 POP JUMP JUMPDEST PUSH2 0x461 PUSH2 0x5DE JUMP JUMPDEST PUSH0 JUMPDEST DUP3 MLOAD DUP2 LT ISZERO PUSH2 0x519 JUMPI PUSH0 DUP4 DUP3 DUP2 MLOAD DUP2 LT PUSH2 0x47F JUMPI PUSH2 0x47F PUSH2 0x9A3 JUMP JUMPDEST PUSH1 0x20 SWAP1 DUP2 MUL SWAP2 SWAP1 SWAP2 ADD ADD MLOAD SWAP1 POP DUP3 PUSH1 0x1 PUSH1 0x1 PUSH1 0xA0 SHL SUB DUP3 AND PUSH2 0x4B4 JUMPI PUSH1 0x40 MLOAD PUSH4 0xE6C4247B PUSH1 0xE0 SHL DUP2 MSTORE PUSH1 0x4 ADD PUSH1 0x40 MLOAD DUP1 SWAP2 SUB SWAP1 REVERT JUMPDEST PUSH1 0x1 PUSH1 0x1 PUSH1 0xA0 SHL SUB DUP3 AND PUSH0 DUP2 DUP2 MSTORE PUSH1 0x1C PUSH1 0x20 SWAP1 DUP2 MSTORE PUSH1 0x40 SWAP2 DUP3 SWAP1 KECCAK256 DUP1 SLOAD PUSH1 0xFF NOT AND PUSH1 0xFF DUP7 AND SWAP1 DUP2 OR SWAP1 SWAP2 SSTORE SWAP2 MLOAD SWAP2 DUP3 MSTORE PUSH32 0x7ED18AA59A2962897D3E7ED3DA887DFB6A03CCA6C3CFE8D74E55130F631791C8 SWAP2 ADD PUSH1 0x40 MLOAD DUP1 SWAP2 SUB SWAP1 LOG2 POP POP PUSH1 0x1 ADD PUSH2 0x463 JUMP JUMPDEST POP POP POP JUMP JUMPDEST PUSH32 0x2145E1D6D074577DC71EF54C3807742B41B053A9352AE6B491331509ACB9750F DUP3 ADD PUSH2 0x55E JUMPI PUSH1 0x40 MLOAD PUSH4 0x85C169BD PUSH1 0xE0 SHL DUP2 MSTORE PUSH1 0x4 ADD PUSH1 0x40 MLOAD DUP1 SWAP2 SUB SWAP1 REVERT JUMPDEST PUSH32 0xD0F59754F88971FE6BC5A6618CC9D5F1E859C58D16B22D1C7B2D3E2B246CD8AA DUP3 ADD PUSH2 0x59E JUMPI PUSH1 0x40 MLOAD PUSH4 0xECEAB67 PUSH1 0xE3 SHL DUP2 MSTORE PUSH1 0x4 ADD PUSH1 0x40 MLOAD DUP1 SWAP2 SUB SWAP1 REVERT JUMPDEST PUSH32 0x1FD9E056A24D14C4ABC642FCC325992A946906D0DBC57DD70278AAF12842024D DUP3 ADD PUSH2 0x29F JUMPI PUSH1 0x40 MLOAD PUSH4 0x4EF6D7FB PUSH1 0xE0 SHL DUP2 MSTORE PUSH1 0x4 ADD PUSH1 0x40 MLOAD DUP1 SWAP2 SUB SWAP1 REVERT JUMPDEST CALLER PUSH2 0x5F0 PUSH0 SLOAD PUSH1 0x1 PUSH1 0x1 PUSH1 0xA0 SHL SUB AND SWAP1 JUMP JUMPDEST PUSH1 0x1 PUSH1 0x1 PUSH1 0xA0 SHL SUB AND EQ PUSH2 0x61D JUMPI PUSH1 0x40 MLOAD PUSH4 0xBF1169C5 PUSH1 0xE0 SHL DUP2 MSTORE CALLER PUSH1 0x4 DUP3 ADD MSTORE PUSH1 0x24 ADD PUSH1 0x40 MLOAD DUP1 SWAP2 SUB SWAP1 REVERT JUMPDEST JUMP JUMPDEST PUSH4 0x4E487B71 PUSH1 0xE0 SHL PUSH0 MSTORE PUSH1 0x41 PUSH1 0x4 MSTORE PUSH1 0x24 PUSH0 REVERT JUMPDEST PUSH1 0x40 MLOAD PUSH2 0x140 DUP2 ADD PUSH1 0x1 PUSH1 0x1 PUSH1 0x40 SHL SUB DUP2 GT DUP3 DUP3 LT OR ISZERO PUSH2 0x656 JUMPI PUSH2 0x656 PUSH2 0x61F JUMP JUMPDEST PUSH1 0x40 MSTORE SWAP1 JUMP JUMPDEST PUSH1 0x40 MLOAD PUSH1 0x1F DUP3 ADD PUSH1 0x1F NOT AND DUP2 ADD PUSH1 0x1 PUSH1 0x1 PUSH1 0x40 SHL SUB DUP2 GT DUP3 DUP3 LT OR ISZERO PUSH2 0x684 JUMPI PUSH2 0x684 PUSH2 0x61F JUMP JUMPDEST PUSH1 0x40 MSTORE SWAP2 SWAP1 POP JUMP JUMPDEST DUP1 MLOAD PUSH1 0x1 PUSH1 0x1 PUSH1 0xA0 SHL SUB DUP2 AND DUP2 EQ PUSH2 0x6A2 JUMPI PUSH0 PUSH0 REVERT JUMPDEST SWAP2 SWAP1 POP JUMP JUMPDEST PUSH0 DUP3 PUSH1 0x1F DUP4 ADD SLT PUSH2 0x6B6 JUMPI PUSH0 PUSH0 REVERT JUMPDEST DUP2 MLOAD PUSH1 0x1 PUSH1 0x1 PUSH1 0x40 SHL SUB DUP2 GT ISZERO PUSH2 0x6CF JUMPI PUSH2 0x6CF PUSH2 0x61F JUMP JUMPDEST DUP1 PUSH1 0x5 SHL PUSH2 0x6DF PUSH1 0x20 DUP3 ADD PUSH2 0x65C JUMP JUMPDEST SWAP2 DUP3 MSTORE PUSH1 0x20 DUP2 DUP6 ADD DUP2 ADD SWAP3 SWAP1 DUP2 ADD SWAP1 DUP7 DUP5 GT ISZERO PUSH2 0x6FA JUMPI PUSH0 PUSH0 REVERT JUMPDEST PUSH1 0x20 DUP7 ADD SWAP3 POP JUMPDEST DUP4 DUP4 LT ISZERO PUSH2 0x723 JUMPI PUSH2 0x712 DUP4 PUSH2 0x68C JUMP JUMPDEST DUP3 MSTORE PUSH1 0x20 SWAP3 DUP4 ADD SWAP3 SWAP1 SWAP2 ADD SWAP1 PUSH2 0x701 JUMP JUMPDEST SWAP7 SWAP6 POP POP POP POP POP POP JUMP JUMPDEST PUSH0 PUSH0 DUP3 DUP5 SUB PUSH2 0x160 DUP2 SLT ISZERO PUSH2 0x740 JUMPI PUSH0 PUSH0 REVERT JUMPDEST PUSH2 0x140 DUP2 SLT ISZERO PUSH2 0x74E JUMPI PUSH0 PUSH0 REVERT JUMPDEST POP PUSH2 0x757 PUSH2 0x633 JUMP JUMPDEST PUSH2 0x760 DUP5 PUSH2 0x68C JUMP JUMPDEST DUP2 MSTORE PUSH2 0x76E PUSH1 0x20 DUP6 ADD PUSH2 0x68C JUMP JUMPDEST PUSH1 0x20 DUP3 ADD MSTORE PUSH2 0x77F PUSH1 0x40 DUP6 ADD PUSH2 0x68C JUMP JUMPDEST PUSH1 0x40 DUP3 ADD MSTORE PUSH2 0x790 PUSH1 0x60 DUP6 ADD PUSH2 0x68C JUMP JUMPDEST PUSH1 0x60 DUP3 ADD MSTORE PUSH2 0x7A1 PUSH1 0x80 DUP6 ADD PUSH2 0x68C JUMP JUMPDEST PUSH1 0x80 DUP3 ADD MSTORE PUSH2 0x7B2 PUSH1 0xA0 DUP6 ADD PUSH2 0x68C JUMP JUMPDEST PUSH1 0xA0 DUP3 ADD MSTORE PUSH2 0x7C3 PUSH1 0xC0 DUP6 ADD PUSH2 0x68C JUMP JUMPDEST PUSH1 0xC0 DUP3 ADD MSTORE PUSH2 0x7D4 PUSH1 0xE0 DUP6 ADD PUSH2 0x68C JUMP JUMPDEST PUSH1 0xE0 DUP3 ADD MSTORE PUSH2 0x7E6 PUSH2 0x100 DUP6 ADD PUSH2 0x68C JUMP JUMPDEST PUSH2 0x100 DUP3 ADD MSTORE PUSH2 0x7F9 PUSH2 0x120 DUP6 ADD PUSH2 0x68C JUMP JUMPDEST PUSH2 0x120 DUP3 ADD MSTORE PUSH2 0x140 DUP5 ADD MLOAD SWAP1 SWAP3 POP PUSH1 0x1 PUSH1 0x1 PUSH1 0x40 SHL SUB DUP2 GT ISZERO PUSH2 0x81B JUMPI PUSH0 PUSH0 REVERT JUMPDEST PUSH2 0x827 DUP6 DUP3 DUP7 ADD PUSH2 0x6A7 JUMP JUMPDEST SWAP2 POP POP SWAP3 POP SWAP3 SWAP1 POP JUMP JUMPDEST PUSH1 0x1 DUP2 DUP2 SHR SWAP1 DUP3 AND DUP1 PUSH2 0x845 JUMPI PUSH1 0x7F DUP3 AND SWAP2 POP JUMPDEST PUSH1 0x20 DUP3 LT DUP2 SUB PUSH2 0x863 JUMPI PUSH4 0x4E487B71 PUSH1 0xE0 SHL PUSH0 MSTORE PUSH1 0x22 PUSH1 0x4 MSTORE PUSH1 0x24 PUSH0 REVERT JUMPDEST POP SWAP2 SWAP1 POP JUMP JUMPDEST PUSH1 0x1F DUP3 GT ISZERO PUSH2 0x519 JUMPI DUP1 PUSH0 MSTORE PUSH1 0x20 PUSH0 KECCAK256 PUSH1 0x1F DUP5 ADD PUSH1 0x5 SHR DUP2 ADD PUSH1 0x20 DUP6 LT ISZERO PUSH2 0x88E JUMPI POP DUP1 JUMPDEST PUSH1 0x1F DUP5 ADD PUSH1 0x5 SHR DUP3 ADD SWAP2 POP JUMPDEST DUP2 DUP2 LT ISZERO PUSH2 0x8AD JUMPI PUSH0 DUP2 SSTORE PUSH1 0x1 ADD PUSH2 0x89A JUMP JUMPDEST POP POP POP POP POP JUMP JUMPDEST DUP2 MLOAD PUSH1 0x1 PUSH1 0x1 PUSH1 0x40 SHL SUB DUP2 GT ISZERO PUSH2 0x8CD JUMPI PUSH2 0x8CD PUSH2 0x61F JUMP JUMPDEST PUSH2 0x8E1 DUP2 PUSH2 0x8DB DUP5 SLOAD PUSH2 0x831 JUMP JUMPDEST DUP5 PUSH2 0x869 JUMP JUMPDEST PUSH1 0x20 PUSH1 0x1F DUP3 GT PUSH1 0x1 DUP2 EQ PUSH2 0x913 JUMPI PUSH0 DUP4 ISZERO PUSH2 0x8FC JUMPI POP DUP5 DUP3 ADD MLOAD JUMPDEST PUSH0 NOT PUSH1 0x3 DUP6 SWAP1 SHL SHR NOT AND PUSH1 0x1 DUP5 SWAP1 SHL OR DUP5 SSTORE PUSH2 0x8AD JUMP JUMPDEST PUSH0 DUP5 DUP2 MSTORE PUSH1 0x20 DUP2 KECCAK256 PUSH1 0x1F NOT DUP6 AND SWAP2 JUMPDEST DUP3 DUP2 LT ISZERO PUSH2 0x942 JUMPI DUP8 DUP6 ADD MLOAD DUP3 SSTORE PUSH1 0x20 SWAP5 DUP6 ADD SWAP5 PUSH1 0x1 SWAP1 SWAP3 ADD SWAP2 ADD PUSH2 0x922 JUMP JUMPDEST POP DUP5 DUP3 LT ISZERO PUSH2 0x95F JUMPI DUP7 DUP5 ADD MLOAD PUSH0 NOT PUSH1 0x3 DUP8 SWAP1 SHL PUSH1 0xF8 AND SHR NOT AND DUP2 SSTORE JUMPDEST POP POP POP POP PUSH1 0x1 SWAP1 DUP2 SHL ADD SWAP1 SSTORE POP JUMP JUMPDEST PUSH1 0x20 DUP2 MSTORE PUSH0 DUP3 MLOAD DUP1 PUSH1 0x20 DUP5 ADD MSTORE DUP1 PUSH1 0x20 DUP6 ADD PUSH1 0x40 DUP6 ADD MCOPY PUSH0 PUSH1 0x40 DUP3 DUP6 ADD ADD MSTORE PUSH1 0x40 PUSH1 0x1F NOT PUSH1 0x1F DUP4 ADD AND DUP5 ADD ADD SWAP2 POP POP SWAP3 SWAP2 POP POP JUMP JUMPDEST PUSH4 0x4E487B71 PUSH1 0xE0 SHL PUSH0 MSTORE PUSH1 0x32 PUSH1 0x4 MSTORE PUSH1 0x24 PUSH0 REVERT JUMPDEST PUSH1 0x80 MLOAD PUSH1 0xA0 MLOAD PUSH1 0xC0 MLOAD PUSH1 0xE0 MLOAD PUSH2 0x100 MLOAD PUSH2 0x596B PUSH2 0xA4F PUSH0 CODECOPY PUSH0 DUP2 DUP2 PUSH2 0x13E2 ADD MSTORE DUP2 DUP2 PUSH2 0x1493 ADD MSTORE DUP2 DUP2 PUSH2 0x1544 ADD MSTORE DUP2 DUP2 PUSH2 0x15F5 ADD MSTORE DUP2 DUP2 PUSH2 0x16A6 ADD MSTORE DUP2 DUP2 PUSH2 0x174A ADD MSTORE DUP2 DUP2 PUSH2 0x1803 ADD MSTORE DUP2 DUP2 PUSH2 0x18BC ADD MSTORE PUSH2 0x1975 ADD MSTORE PUSH0 PUSH2 0xF4D ADD MSTORE PUSH0 PUSH2 0xE95 ADD MSTORE PUSH0 DUP2 DUP2 PUSH2 0xDD5 ADD MSTORE PUSH2 0x21F2 ADD MSTORE PUSH0 DUP2 DUP2 PUSH2 0x100F ADD MSTORE DUP2 DUP2 PUSH2 0x10D2 ADD MSTORE DUP2 DUP2 PUSH2 0x1195 ADD MSTORE DUP2 DUP2 PUSH2 0x1258 ADD MSTORE PUSH2 0x131B ADD MSTORE PUSH2 0x596B PUSH0 RETURN INVALID PUSH1 0x80 PUSH1 0x40 MSTORE PUSH1 0x4 CALLDATASIZE LT PUSH2 0x3BB JUMPI PUSH0 CALLDATALOAD PUSH1 0xE0 SHR DUP1 PUSH4 0x802C90C8 GT PUSH2 0x1F1 JUMPI DUP1 PUSH4 0xBE9F0E6F GT PUSH2 0x10C JUMPI DUP1 PUSH4 0xDEDFF9C6 GT PUSH2 0x9F JUMPI DUP1 PUSH4 0xF2FDE38B GT PUSH2 0x6E JUMPI DUP1 PUSH4 0xF2FDE38B EQ PUSH2 0xBE6 JUMPI DUP1 PUSH4 0xFABF4B16 EQ PUSH2 0xC05 JUMPI DUP1 PUSH4 0xFFA1AD74 EQ PUSH2 0xC24 JUMPI DUP1 PUSH4 0xFFCFF32C EQ PUSH2 0xC54 JUMPI PUSH2 0x414 JUMP JUMPDEST DUP1 PUSH4 0xDEDFF9C6 EQ PUSH2 0xB54 JUMPI DUP1 PUSH4 0xE1660BC8 EQ PUSH2 0xB73 JUMPI DUP1 PUSH4 0xE3BC1CC3 EQ PUSH2 0xB92 JUMPI DUP1 PUSH4 0xECABDF79 EQ PUSH2 0xBBB JUMPI PUSH2 0x414 JUMP JUMPDEST DUP1 PUSH4 0xD764C173 GT PUSH2 0xDB JUMPI DUP1 PUSH4 0xD764C173 EQ PUSH2 0xAD3 JUMPI DUP1 PUSH4 0xDA8FBF2A EQ PUSH2 0xAF2 JUMPI DUP1 PUSH4 0xDAFE43F1 EQ PUSH2 0xB06 JUMPI DUP1 PUSH4 0xDB8C9663 EQ PUSH2 0xB35 JUMPI PUSH2 0x414 JUMP JUMPDEST DUP1 PUSH4 0xBE9F0E6F EQ PUSH2 0xA10 JUMPI DUP1 PUSH4 0xCB92337D EQ PUSH2 0xA2F JUMPI DUP1 PUSH4 0xD34FBC9B EQ PUSH2 0xA68 JUMPI DUP1 PUSH4 0xD6C1407C EQ PUSH2 0xAB4 JUMPI PUSH2 0x414 JUMP JUMPDEST DUP1 PUSH4 0x97902421 GT PUSH2 0x184 JUMPI DUP1 PUSH4 0xAC7E0321 GT PUSH2 0x153 JUMPI DUP1 PUSH4 0xAC7E0321 EQ PUSH2 0x99F JUMPI DUP1 PUSH4 0xAC91E5A5 EQ PUSH2 0x9BE JUMPI DUP1 PUSH4 0xAE200322 EQ PUSH2 0x9DD JUMPI DUP1 PUSH4 0xAF6BB1E4 EQ PUSH2 0x9F1 JUMPI PUSH2 0x414 JUMP JUMPDEST DUP1 PUSH4 0x97902421 EQ PUSH2 0x90A JUMPI DUP1 PUSH4 0x98BDF6F5 EQ PUSH2 0x91D JUMPI DUP1 PUSH4 0x9B19251A EQ PUSH2 0x933 JUMPI DUP1 PUSH4 0xA3B261F2 EQ PUSH2 0x973 JUMPI PUSH2 0x414 JUMP JUMPDEST DUP1 PUSH4 0x86A10DDD GT PUSH2 0x1C0 JUMPI DUP1 PUSH4 0x86A10DDD EQ PUSH2 0x891 JUMPI DUP1 PUSH4 0x8DA5CB5B EQ PUSH2 0x8B0 JUMPI DUP1 PUSH4 0x8E1F845C EQ PUSH2 0x8CC JUMPI DUP1 PUSH4 0x961183C4 EQ PUSH2 0x8EB JUMPI PUSH2 0x414 JUMP JUMPDEST DUP1 PUSH4 0x802C90C8 EQ PUSH2 0x82B JUMPI DUP1 PUSH4 0x8129FC1C EQ PUSH2 0x84A JUMPI DUP1 PUSH4 0x83F63C97 EQ PUSH2 0x85E JUMPI DUP1 PUSH4 0x853828B6 EQ PUSH2 0x87D JUMPI PUSH2 0x414 JUMP JUMPDEST DUP1 PUSH4 0x44AE035A GT PUSH2 0x2E1 JUMPI DUP1 PUSH4 0x605CB601 GT PUSH2 0x274 JUMPI DUP1 PUSH4 0x715018A6 GT PUSH2 0x243 JUMPI DUP1 PUSH4 0x715018A6 EQ PUSH2 0x7C6 JUMPI DUP1 PUSH4 0x72A591F0 EQ PUSH2 0x7DA JUMPI DUP1 PUSH4 0x7E87632C EQ PUSH2 0x7F9 JUMPI DUP1 PUSH4 0x7F23690C EQ PUSH2 0x818 JUMPI PUSH2 0x414 JUMP JUMPDEST DUP1 PUSH4 0x605CB601 EQ PUSH2 0x754 JUMPI DUP1 PUSH4 0x678B2012 EQ PUSH2 0x773 JUMPI DUP1 PUSH4 0x6963D438 EQ PUSH2 0x788 JUMPI DUP1 PUSH4 0x70A08231 EQ PUSH2 0x7A7 JUMPI PUSH2 0x414 JUMP JUMPDEST DUP1 PUSH4 0x5A1DA9A4 GT PUSH2 0x2B0 JUMPI DUP1 PUSH4 0x5A1DA9A4 EQ PUSH2 0x6E0 JUMPI DUP1 PUSH4 0x5C975ABB EQ PUSH2 0x6FF JUMPI DUP1 PUSH4 0x5CB42DE1 EQ PUSH2 0x716 JUMPI DUP1 PUSH4 0x5FA3C36D EQ PUSH2 0x735 JUMPI PUSH2 0x414 JUMP JUMPDEST DUP1 PUSH4 0x44AE035A EQ PUSH2 0x657 JUMPI DUP1 PUSH4 0x49A6078D EQ PUSH2 0x676 JUMPI DUP1 PUSH4 0x511B6952 EQ PUSH2 0x6A2 JUMPI DUP1 PUSH4 0x54F6127F EQ PUSH2 0x6C1 JUMPI PUSH2 0x414 JUMP JUMPDEST DUP1 PUSH4 0x217B2270 GT PUSH2 0x359 JUMPI DUP1 PUSH4 0x343C71FB GT PUSH2 0x328 JUMPI DUP1 PUSH4 0x343C71FB EQ PUSH2 0x5DB JUMPI DUP1 PUSH4 0x369596D2 EQ PUSH2 0x5FA JUMPI DUP1 PUSH4 0x3C20F76D EQ PUSH2 0x625 JUMPI DUP1 PUSH4 0x403E6FA6 EQ PUSH2 0x638 JUMPI PUSH2 0x414 JUMP JUMPDEST DUP1 PUSH4 0x217B2270 EQ PUSH2 0x551 JUMPI DUP1 PUSH4 0x2A3654A4 EQ PUSH2 0x588 JUMPI DUP1 PUSH4 0x3087C08F EQ PUSH2 0x5A7 JUMPI DUP1 PUSH4 0x32CB6B0C EQ PUSH2 0x5C6 JUMPI PUSH2 0x414 JUMP JUMPDEST DUP1 PUSH4 0x158EF93E GT PUSH2 0x395 JUMPI DUP1 PUSH4 0x158EF93E EQ PUSH2 0x4CC JUMPI DUP1 PUSH4 0x16E023B3 EQ PUSH2 0x4E5 JUMPI DUP1 PUSH4 0x18160DDD EQ PUSH2 0x511 JUMPI DUP1 PUSH4 0x1D26FCE6 EQ PUSH2 0x525 JUMPI PUSH2 0x414 JUMP JUMPDEST DUP1 PUSH4 0x1FFC9A7 EQ PUSH2 0x454 JUMPI DUP1 PUSH4 0x9EDF481 EQ PUSH2 0x488 JUMPI DUP1 PUSH4 0xE1B26C6 EQ PUSH2 0x4A9 JUMPI PUSH2 0x414 JUMP JUMPDEST CALLDATASIZE PUSH2 0x414 JUMPI CALLVALUE PUSH0 SUB PUSH2 0x3FB JUMPI PUSH1 0x40 MLOAD PUSH4 0xE5099EE3 PUSH1 0xE0 SHL DUP2 MSTORE PUSH1 0x4 ADD PUSH2 0x3F2 SWAP1 PUSH1 0x20 DUP1 DUP3 MSTORE PUSH1 0x4 SWAP1 DUP3 ADD MSTORE PUSH0 PUSH1 0x40 DUP3 ADD MSTORE PUSH1 0x60 ADD SWAP1 JUMP JUMPDEST PUSH1 0x40 MLOAD DUP1 SWAP2 SUB SWAP1 REVERT JUMPDEST PUSH1 0x40 MLOAD PUSH4 0x30FA4A21 PUSH1 0xE1 SHL DUP2 MSTORE PUSH1 0x4 ADD PUSH1 0x40 MLOAD DUP1 SWAP2 SUB SWAP1 REVERT JUMPDEST PUSH0 CALLDATASIZE PUSH1 0x60 PUSH1 0x4 DUP3 LT ISZERO PUSH2 0x43E JUMPI DUP3 DUP3 PUSH1 0x40 MLOAD PUSH4 0xE5099EE3 PUSH1 0xE0 SHL DUP2 MSTORE PUSH1 0x4 ADD PUSH2 0x3F2 SWAP3 SWAP2 SWAP1 PUSH2 0x48D2 JUMP JUMPDEST PUSH2 0x448 DUP4 DUP4 PUSH2 0xC73 JUMP JUMPDEST DUP1 MLOAD SWAP4 POP PUSH1 0x20 ADD SWAP2 POP POP RETURN JUMPDEST CALLVALUE DUP1 ISZERO PUSH2 0x45F JUMPI PUSH0 PUSH0 REVERT JUMPDEST POP PUSH2 0x473 PUSH2 0x46E CALLDATASIZE PUSH1 0x4 PUSH2 0x4900 JUMP JUMPDEST PUSH2 0xD62 JUMP JUMPDEST PUSH1 0x40 MLOAD SWAP1 ISZERO ISZERO DUP2 MSTORE PUSH1 0x20 ADD JUMPDEST PUSH1 0x40 MLOAD DUP1 SWAP2 SUB SWAP1 RETURN JUMPDEST CALLVALUE DUP1 ISZERO PUSH2 0x493 JUMPI PUSH0 PUSH0 REVERT JUMPDEST POP PUSH2 0x4A7 PUSH2 0x4A2 CALLDATASIZE PUSH1 0x4 PUSH2 0x4927 JUMP JUMPDEST PUSH2 0xD95 JUMP JUMPDEST STOP JUMPDEST CALLVALUE DUP1 ISZERO PUSH2 0x4B4 JUMPI PUSH0 PUSH0 REVERT JUMPDEST POP PUSH2 0x4BE PUSH1 0x14 SLOAD DUP2 JUMP JUMPDEST PUSH1 0x40 MLOAD SWAP1 DUP2 MSTORE PUSH1 0x20 ADD PUSH2 0x47F JUMP JUMPDEST CALLVALUE DUP1 ISZERO PUSH2 0x4D7 JUMPI PUSH0 PUSH0 REVERT JUMPDEST POP PUSH1 0x15 SLOAD PUSH2 0x473 SWAP1 PUSH1 0xFF AND DUP2 JUMP JUMPDEST CALLVALUE DUP1 ISZERO PUSH2 0x4F0 JUMPI PUSH0 PUSH0 REVERT JUMPDEST POP PUSH2 0x504 PUSH2 0x4FF CALLDATASIZE PUSH1 0x4 PUSH2 0x493E JUMP JUMPDEST PUSH2 0x1BA2 JUMP JUMPDEST PUSH1 0x40 MLOAD PUSH2 0x47F SWAP2 SWAP1 PUSH2 0x498C JUMP JUMPDEST CALLVALUE DUP1 ISZERO PUSH2 0x51C JUMPI PUSH0 PUSH0 REVERT JUMPDEST POP PUSH1 0x2 SLOAD PUSH2 0x4BE JUMP JUMPDEST CALLVALUE DUP1 ISZERO PUSH2 0x530 JUMPI PUSH0 PUSH0 REVERT JUMPDEST POP PUSH2 0x544 PUSH2 0x53F CALLDATASIZE PUSH1 0x4 PUSH2 0x4A97 JUMP JUMPDEST PUSH2 0x1BB5 JUMP JUMPDEST PUSH1 0x40 MLOAD PUSH2 0x47F SWAP2 SWAP1 PUSH2 0x4AFA JUMP JUMPDEST CALLVALUE DUP1 ISZERO PUSH2 0x55C JUMPI PUSH0 PUSH0 REVERT JUMPDEST POP PUSH2 0x570 PUSH2 0x56B CALLDATASIZE PUSH1 0x4 PUSH2 0x4927 JUMP JUMPDEST PUSH2 0x1C9B JUMP JUMPDEST PUSH1 0x40 MLOAD PUSH1 0x1 PUSH1 0x1 PUSH1 0xA0 SHL SUB SWAP1 SWAP2 AND DUP2 MSTORE PUSH1 0x20 ADD PUSH2 0x47F JUMP JUMPDEST CALLVALUE DUP1 ISZERO PUSH2 0x593 JUMPI PUSH0 PUSH0 REVERT JUMPDEST POP PUSH2 0x473 PUSH2 0x5A2 CALLDATASIZE PUSH1 0x4 PUSH2 0x4B78 JUMP JUMPDEST PUSH2 0x1CD3 JUMP JUMPDEST CALLVALUE DUP1 ISZERO PUSH2 0x5B2 JUMPI PUSH0 PUSH0 REVERT JUMPDEST POP PUSH2 0x4A7 PUSH2 0x5C1 CALLDATASIZE PUSH1 0x4 PUSH2 0x4BA0 JUMP JUMPDEST PUSH2 0x1CDE JUMP JUMPDEST CALLVALUE DUP1 ISZERO PUSH2 0x5D1 JUMPI PUSH0 PUSH0 REVERT JUMPDEST POP PUSH2 0x4BE PUSH2 0x8AE DUP2 JUMP JUMPDEST CALLVALUE DUP1 ISZERO PUSH2 0x5E6 JUMPI PUSH0 PUSH0 REVERT JUMPDEST POP PUSH2 0x4A7 PUSH2 0x5F5 CALLDATASIZE PUSH1 0x4 PUSH2 0x4CE4 JUMP JUMPDEST PUSH2 0x1E36 JUMP JUMPDEST CALLVALUE DUP1 ISZERO PUSH2 0x605 JUMPI PUSH0 PUSH0 REVERT JUMPDEST POP PUSH2 0x4BE PUSH2 0x614 CALLDATASIZE PUSH1 0x4 PUSH2 0x4D1D JUMP JUMPDEST PUSH1 0x18 PUSH1 0x20 MSTORE PUSH0 SWAP1 DUP2 MSTORE PUSH1 0x40 SWAP1 KECCAK256 SLOAD DUP2 JUMP JUMPDEST PUSH2 0x4BE PUSH2 0x633 CALLDATASIZE PUSH1 0x4 PUSH2 0x4CE4 JUMP JUMPDEST PUSH2 0x1ECB JUMP JUMPDEST CALLVALUE DUP1 ISZERO PUSH2 0x643 JUMPI PUSH0 PUSH0 REVERT JUMPDEST POP PUSH1 0xA SLOAD PUSH2 0x570 SWAP1 PUSH1 0x1 PUSH1 0x1 PUSH1 0xA0 SHL SUB AND DUP2 JUMP JUMPDEST CALLVALUE DUP1 ISZERO PUSH2 0x662 JUMPI PUSH0 PUSH0 REVERT JUMPDEST POP PUSH2 0x4A7 PUSH2 0x671 CALLDATASIZE PUSH1 0x4 PUSH2 0x4927 JUMP JUMPDEST PUSH2 0x244E JUMP JUMPDEST CALLVALUE DUP1 ISZERO PUSH2 0x681 JUMPI PUSH0 PUSH0 REVERT JUMPDEST POP PUSH2 0x695 PUSH2 0x690 CALLDATASIZE PUSH1 0x4 PUSH2 0x4927 JUMP JUMPDEST PUSH2 0x245B JUMP JUMPDEST PUSH1 0x40 MLOAD PUSH2 0x47F SWAP2 SWAP1 PUSH2 0x4D36 JUMP JUMPDEST CALLVALUE DUP1 ISZERO PUSH2 0x6AD JUMPI PUSH0 PUSH0 REVERT JUMPDEST POP PUSH2 0x4A7 PUSH2 0x6BC CALLDATASIZE PUSH1 0x4 PUSH2 0x4D8E JUMP JUMPDEST PUSH2 0x247C JUMP JUMPDEST CALLVALUE DUP1 ISZERO PUSH2 0x6CC JUMPI PUSH0 PUSH0 REVERT JUMPDEST POP PUSH2 0x504 PUSH2 0x6DB CALLDATASIZE PUSH1 0x4 PUSH2 0x4927 JUMP JUMPDEST PUSH2 0x24C0 JUMP JUMPDEST CALLVALUE DUP1 ISZERO PUSH2 0x6EB JUMPI PUSH0 PUSH0 REVERT JUMPDEST POP PUSH1 0xB SLOAD PUSH2 0x570 SWAP1 PUSH1 0x1 PUSH1 0x1 PUSH1 0xA0 SHL SUB AND DUP2 JUMP JUMPDEST CALLVALUE DUP1 ISZERO PUSH2 0x70A JUMPI PUSH0 PUSH0 REVERT JUMPDEST POP PUSH1 0x7 SLOAD PUSH1 0xFF AND PUSH2 0x473 JUMP JUMPDEST CALLVALUE DUP1 ISZERO PUSH2 0x721 JUMPI PUSH0 PUSH0 REVERT JUMPDEST POP PUSH1 0xD SLOAD PUSH2 0x570 SWAP1 PUSH1 0x1 PUSH1 0x1 PUSH1 0xA0 SHL SUB AND DUP2 JUMP JUMPDEST CALLVALUE DUP1 ISZERO PUSH2 0x740 JUMPI PUSH0 PUSH0 REVERT JUMPDEST POP PUSH2 0x4A7 PUSH2 0x74F CALLDATASIZE PUSH1 0x4 PUSH2 0x4E03 JUMP JUMPDEST PUSH2 0x24CB JUMP JUMPDEST CALLVALUE DUP1 ISZERO PUSH2 0x75F JUMPI PUSH0 PUSH0 REVERT JUMPDEST POP PUSH1 0xE SLOAD PUSH2 0x570 SWAP1 PUSH1 0x1 PUSH1 0x1 PUSH1 0xA0 SHL SUB AND DUP2 JUMP JUMPDEST CALLVALUE DUP1 ISZERO PUSH2 0x77E JUMPI PUSH0 PUSH0 REVERT JUMPDEST POP PUSH2 0x4BE PUSH1 0x16 SLOAD DUP2 JUMP JUMPDEST CALLVALUE DUP1 ISZERO PUSH2 0x793 JUMPI PUSH0 PUSH0 REVERT JUMPDEST POP PUSH2 0x544 PUSH2 0x7A2 CALLDATASIZE PUSH1 0x4 PUSH2 0x4E4E JUMP JUMPDEST PUSH2 0x2613 JUMP JUMPDEST CALLVALUE DUP1 ISZERO PUSH2 0x7B2 JUMPI PUSH0 PUSH0 REVERT JUMPDEST POP PUSH2 0x4BE PUSH2 0x7C1 CALLDATASIZE PUSH1 0x4 PUSH2 0x4D1D JUMP JUMPDEST PUSH2 0x273D JUMP JUMPDEST CALLVALUE DUP1 ISZERO PUSH2 0x7D1 JUMPI PUSH0 PUSH0 REVERT JUMPDEST POP PUSH2 0x4A7 PUSH2 0x275D JUMP JUMPDEST CALLVALUE DUP1 ISZERO PUSH2 0x7E5 JUMPI PUSH0 PUSH0 REVERT JUMPDEST POP PUSH2 0x4A7 PUSH2 0x7F4 CALLDATASIZE PUSH1 0x4 PUSH2 0x4ECD JUMP JUMPDEST PUSH2 0x2770 JUMP JUMPDEST CALLVALUE DUP1 ISZERO PUSH2 0x804 JUMPI PUSH0 PUSH0 REVERT JUMPDEST POP PUSH2 0x4A7 PUSH2 0x813 CALLDATASIZE PUSH1 0x4 PUSH2 0x5043 JUMP JUMPDEST PUSH2 0x2831 JUMP JUMPDEST PUSH2 0x4A7 PUSH2 0x826 CALLDATASIZE PUSH1 0x4 PUSH2 0x4CE4 JUMP JUMPDEST PUSH2 0x291F JUMP JUMPDEST CALLVALUE DUP1 ISZERO PUSH2 0x836 JUMPI PUSH0 PUSH0 REVERT JUMPDEST POP PUSH2 0x4A7 PUSH2 0x845 CALLDATASIZE PUSH1 0x4 PUSH2 0x4D8E JUMP JUMPDEST PUSH2 0x2954 JUMP JUMPDEST CALLVALUE DUP1 ISZERO PUSH2 0x855 JUMPI PUSH0 PUSH0 REVERT JUMPDEST POP PUSH2 0x4A7 PUSH2 0x29C4 JUMP JUMPDEST CALLVALUE DUP1 ISZERO PUSH2 0x869 JUMPI PUSH0 PUSH0 REVERT JUMPDEST POP PUSH1 0xF SLOAD PUSH2 0x570 SWAP1 PUSH1 0x1 PUSH1 0x1 PUSH1 0xA0 SHL SUB AND DUP2 JUMP JUMPDEST CALLVALUE DUP1 ISZERO PUSH2 0x888 JUMPI PUSH0 PUSH0 REVERT JUMPDEST POP PUSH2 0x4A7 PUSH2 0x2FBE JUMP JUMPDEST CALLVALUE DUP1 ISZERO PUSH2 0x89C JUMPI PUSH0 PUSH0 REVERT JUMPDEST POP PUSH2 0x4A7 PUSH2 0x8AB CALLDATASIZE PUSH1 0x4 PUSH2 0x5114 JUMP JUMPDEST PUSH2 0x30D5 JUMP JUMPDEST CALLVALUE DUP1 ISZERO PUSH2 0x8BB JUMPI PUSH0 PUSH0 REVERT JUMPDEST POP PUSH0 SLOAD PUSH1 0x1 PUSH1 0x1 PUSH1 0xA0 SHL SUB AND PUSH2 0x570 JUMP JUMPDEST CALLVALUE DUP1 ISZERO PUSH2 0x8D7 JUMPI PUSH0 PUSH0 REVERT JUMPDEST POP PUSH2 0x4A7 PUSH2 0x8E6 CALLDATASIZE PUSH1 0x4 PUSH2 0x4927 JUMP JUMPDEST PUSH2 0x324C JUMP JUMPDEST CALLVALUE DUP1 ISZERO PUSH2 0x8F6 JUMPI PUSH0 PUSH0 REVERT JUMPDEST POP PUSH1 0x10 SLOAD PUSH2 0x570 SWAP1 PUSH1 0x1 PUSH1 0x1 PUSH1 0xA0 SHL SUB AND DUP2 JUMP JUMPDEST PUSH2 0x4A7 PUSH2 0x918 CALLDATASIZE PUSH1 0x4 PUSH2 0x5150 JUMP JUMPDEST PUSH2 0x328F JUMP JUMPDEST CALLVALUE DUP1 ISZERO PUSH2 0x928 JUMPI PUSH0 PUSH0 REVERT JUMPDEST POP PUSH1 0x13 SLOAD PUSH2 0x4BE SWAP1 DUP2 JUMP JUMPDEST CALLVALUE DUP1 ISZERO PUSH2 0x93E JUMPI PUSH0 PUSH0 REVERT JUMPDEST POP PUSH2 0x961 PUSH2 0x94D CALLDATASIZE PUSH1 0x4 PUSH2 0x4D1D JUMP JUMPDEST PUSH1 0x1C PUSH1 0x20 MSTORE PUSH0 SWAP1 DUP2 MSTORE PUSH1 0x40 SWAP1 KECCAK256 SLOAD PUSH1 0xFF AND DUP2 JUMP JUMPDEST PUSH1 0x40 MLOAD PUSH1 0xFF SWAP1 SWAP2 AND DUP2 MSTORE PUSH1 0x20 ADD PUSH2 0x47F JUMP JUMPDEST CALLVALUE DUP1 ISZERO PUSH2 0x97E JUMPI PUSH0 PUSH0 REVERT JUMPDEST POP PUSH2 0x992 PUSH2 0x98D CALLDATASIZE PUSH1 0x4 PUSH2 0x4D1D JUMP JUMPDEST PUSH2 0x334D JUMP JUMPDEST PUSH1 0x40 MLOAD PUSH2 0x47F SWAP2 SWAP1 PUSH2 0x51A9 JUMP JUMPDEST CALLVALUE DUP1 ISZERO PUSH2 0x9AA JUMPI PUSH0 PUSH0 REVERT JUMPDEST POP PUSH1 0x12 SLOAD PUSH2 0x570 SWAP1 PUSH1 0x1 PUSH1 0x1 PUSH1 0xA0 SHL SUB AND DUP2 JUMP JUMPDEST CALLVALUE DUP1 ISZERO PUSH2 0x9C9 JUMPI PUSH0 PUSH0 REVERT JUMPDEST POP PUSH1 0x11 SLOAD PUSH2 0x570 SWAP1 PUSH1 0x1 PUSH1 0x1 PUSH1 0xA0 SHL SUB AND DUP2 JUMP JUMPDEST CALLVALUE DUP1 ISZERO PUSH2 0x9E8 JUMPI PUSH0 PUSH0 REVERT JUMPDEST POP PUSH2 0x4A7 PUSH2 0x3370 JUMP JUMPDEST CALLVALUE DUP1 ISZERO PUSH2 0x9FC JUMPI PUSH0 PUSH0 REVERT JUMPDEST POP PUSH1 0xC SLOAD PUSH2 0x570 SWAP1 PUSH1 0x1 PUSH1 0x1 PUSH1 0xA0 SHL SUB AND DUP2 JUMP JUMPDEST CALLVALUE DUP1 ISZERO PUSH2 0xA1B JUMPI PUSH0 PUSH0 REVERT JUMPDEST POP PUSH2 0x4A7 PUSH2 0xA2A CALLDATASIZE PUSH1 0x4 PUSH2 0x51E0 JUMP JUMPDEST PUSH2 0x3380 JUMP JUMPDEST CALLVALUE DUP1 ISZERO PUSH2 0xA3A JUMPI PUSH0 PUSH0 REVERT JUMPDEST POP PUSH2 0x961 PUSH2 0xA49 CALLDATASIZE PUSH1 0x4 PUSH2 0x4B78 JUMP JUMPDEST PUSH1 0x1B PUSH1 0x20 SWAP1 DUP2 MSTORE PUSH0 SWAP3 DUP4 MSTORE PUSH1 0x40 DUP1 DUP5 KECCAK256 SWAP1 SWAP2 MSTORE SWAP1 DUP3 MSTORE SWAP1 KECCAK256 SLOAD PUSH1 0xFF AND DUP2 JUMP JUMPDEST CALLVALUE DUP1 ISZERO PUSH2 0xA73 JUMPI PUSH0 PUSH0 REVERT JUMPDEST POP PUSH2 0xA9D PUSH2 0xA82 CALLDATASIZE PUSH1 0x4 PUSH2 0x4927 JUMP JUMPDEST PUSH1 0x19 PUSH1 0x20 MSTORE PUSH0 SWAP1 DUP2 MSTORE PUSH1 0x40 SWAP1 KECCAK256 DUP1 SLOAD PUSH1 0x1 SWAP1 SWAP2 ADD SLOAD PUSH1 0xFF AND DUP3 JUMP JUMPDEST PUSH1 0x40 DUP1 MLOAD SWAP3 DUP4 MSTORE PUSH1 0xFF SWAP1 SWAP2 AND PUSH1 0x20 DUP4 ADD MSTORE ADD PUSH2 0x47F JUMP JUMPDEST CALLVALUE DUP1 ISZERO PUSH2 0xABF JUMPI PUSH0 PUSH0 REVERT JUMPDEST POP PUSH2 0x4A7 PUSH2 0xACE CALLDATASIZE PUSH1 0x4 PUSH2 0x4E03 JUMP JUMPDEST PUSH2 0x3449 JUMP JUMPDEST CALLVALUE DUP1 ISZERO PUSH2 0xADE JUMPI PUSH0 PUSH0 REVERT JUMPDEST POP PUSH2 0x4A7 PUSH2 0xAED CALLDATASIZE PUSH1 0x4 PUSH2 0x5261 JUMP JUMPDEST PUSH2 0x345C JUMP JUMPDEST CALLVALUE DUP1 ISZERO PUSH2 0xAFD JUMPI PUSH0 PUSH0 REVERT JUMPDEST POP PUSH2 0x4A7 PUSH2 0x352C JUMP JUMPDEST CALLVALUE DUP1 ISZERO PUSH2 0xB11 JUMPI PUSH0 PUSH0 REVERT JUMPDEST POP PUSH2 0xB25 PUSH2 0xB20 CALLDATASIZE PUSH1 0x4 PUSH2 0x4927 JUMP JUMPDEST PUSH2 0x353C JUMP JUMPDEST PUSH1 0x40 MLOAD PUSH2 0x47F SWAP5 SWAP4 SWAP3 SWAP2 SWAP1 PUSH2 0x52D9 JUMP JUMPDEST CALLVALUE DUP1 ISZERO PUSH2 0xB40 JUMPI PUSH0 PUSH0 REVERT JUMPDEST POP PUSH2 0x4A7 PUSH2 0xB4F CALLDATASIZE PUSH1 0x4 PUSH2 0x5310 JUMP JUMPDEST PUSH2 0x35F4 JUMP JUMPDEST CALLVALUE DUP1 ISZERO PUSH2 0xB5F JUMPI PUSH0 PUSH0 REVERT JUMPDEST POP PUSH2 0x544 PUSH2 0xB6E CALLDATASIZE PUSH1 0x4 PUSH2 0x5375 JUMP JUMPDEST PUSH2 0x36D5 JUMP JUMPDEST CALLVALUE DUP1 ISZERO PUSH2 0xB7E JUMPI PUSH0 PUSH0 REVERT JUMPDEST POP PUSH2 0x4A7 PUSH2 0xB8D CALLDATASIZE PUSH1 0x4 PUSH2 0x53A6 JUMP JUMPDEST PUSH2 0x377E JUMP JUMPDEST CALLVALUE DUP1 ISZERO PUSH2 0xB9D JUMPI PUSH0 PUSH0 REVERT JUMPDEST POP PUSH2 0xBA6 PUSH1 0xDE DUP2 JUMP JUMPDEST PUSH1 0x40 MLOAD PUSH4 0xFFFFFFFF SWAP1 SWAP2 AND DUP2 MSTORE PUSH1 0x20 ADD PUSH2 0x47F JUMP JUMPDEST CALLVALUE DUP1 ISZERO PUSH2 0xBC6 JUMPI PUSH0 PUSH0 REVERT JUMPDEST POP PUSH2 0x4BE PUSH2 0xBD5 CALLDATASIZE PUSH1 0x4 PUSH2 0x53F0 JUMP JUMPDEST PUSH1 0x1A PUSH1 0x20 MSTORE PUSH0 SWAP1 DUP2 MSTORE PUSH1 0x40 SWAP1 KECCAK256 SLOAD DUP2 JUMP JUMPDEST CALLVALUE DUP1 ISZERO PUSH2 0xBF1 JUMPI PUSH0 PUSH0 REVERT JUMPDEST POP PUSH2 0x4A7 PUSH2 0xC00 CALLDATASIZE PUSH1 0x4 PUSH2 0x4D1D JUMP JUMPDEST PUSH2 0x383E JUMP JUMPDEST CALLVALUE DUP1 ISZERO PUSH2 0xC10 JUMPI PUSH0 PUSH0 REVERT JUMPDEST POP PUSH2 0x4A7 PUSH2 0xC1F CALLDATASIZE PUSH1 0x4 PUSH2 0x4CE4 JUMP JUMPDEST PUSH2 0x3879 JUMP JUMPDEST CALLVALUE DUP1 ISZERO PUSH2 0xC2F JUMPI PUSH0 PUSH0 REVERT JUMPDEST POP PUSH2 0x504 PUSH1 0x40 MLOAD DUP1 PUSH1 0x40 ADD PUSH1 0x40 MSTORE DUP1 PUSH1 0x5 DUP2 MSTORE PUSH1 0x20 ADD PUSH5 0x312E302E3 PUSH1 0xDC SHL DUP2 MSTORE POP DUP2 JUMP JUMPDEST CALLVALUE DUP1 ISZERO PUSH2 0xC5F JUMPI PUSH0 PUSH0 REVERT JUMPDEST POP PUSH1 0x9 SLOAD PUSH2 0x570 SWAP1 PUSH1 0x1 PUSH1 0x1 PUSH1 0xA0 SHL SUB AND DUP2 JUMP JUMPDEST PUSH1 0x60 PUSH0 PUSH2 0xC8A PUSH0 CALLDATALOAD PUSH1 0x1 PUSH1 0x1 PUSH1 0xE0 SHL SUB NOT AND PUSH2 0x39C8 JUMP JUMPDEST POP SWAP1 POP PUSH1 0x1 PUSH1 0x1 PUSH1 0xA0 SHL SUB DUP2 AND PUSH2 0xCC1 JUMPI PUSH1 0x40 MLOAD PUSH4 0xBB370B2B PUSH1 0xE0 SHL DUP2 MSTORE PUSH1 0x1 PUSH1 0x1 PUSH1 0xE0 SHL SUB NOT PUSH0 CALLDATALOAD AND PUSH1 0x4 DUP3 ADD MSTORE PUSH1 0x24 ADD PUSH2 0x3F2 JUMP JUMPDEST PUSH0 PUSH0 DUP3 PUSH1 0x1 PUSH1 0x1 PUSH1 0xA0 SHL SUB AND CALLVALUE DUP8 DUP8 CALLER CALLVALUE PUSH1 0x40 MLOAD PUSH1 0x20 ADD PUSH2 0xCE5 SWAP5 SWAP4 SWAP3 SWAP2 SWAP1 PUSH2 0x5409 JUMP JUMPDEST PUSH1 0x40 DUP1 MLOAD PUSH1 0x1F NOT DUP2 DUP5 SUB ADD DUP2 MSTORE SWAP1 DUP3 SWAP1 MSTORE PUSH2 0xCFF SWAP2 PUSH2 0x5434 JUMP JUMPDEST PUSH0 PUSH1 0x40 MLOAD DUP1 DUP4 SUB DUP2 DUP6 DUP8 GAS CALL SWAP3 POP POP POP RETURNDATASIZE DUP1 PUSH0 DUP2 EQ PUSH2 0xD39 JUMPI PUSH1 0x40 MLOAD SWAP2 POP PUSH1 0x1F NOT PUSH1 0x3F RETURNDATASIZE ADD AND DUP3 ADD PUSH1 0x40 MSTORE RETURNDATASIZE DUP3 MSTORE RETURNDATASIZE PUSH0 PUSH1 0x20 DUP5 ADD RETURNDATACOPY PUSH2 0xD3E JUMP JUMPDEST PUSH1 0x60 SWAP2 POP JUMPDEST POP SWAP2 POP SWAP2 POP DUP2 ISZERO PUSH2 0xD53 JUMPI SWAP3 POP PUSH2 0xD5C SWAP2 POP POP JUMP JUMPDEST DUP1 MLOAD DUP1 PUSH1 0x20 DUP4 ADD REVERT JUMPDEST SWAP3 SWAP2 POP POP JUMP JUMPDEST PUSH0 PUSH1 0x1 PUSH1 0x1 PUSH1 0xE0 SHL SUB NOT DUP3 AND PUSH4 0x1D138B83 PUSH1 0xE1 SHL EQ DUP1 PUSH2 0xD86 JUMPI POP PUSH2 0xD86 DUP3 PUSH2 0x3A44 JUMP JUMPDEST DUP1 PUSH2 0xD5C JUMPI POP PUSH2 0xD5C DUP3 PUSH2 0x3A68 JUMP JUMPDEST CALLER PUSH0 SWAP1 DUP2 MSTORE PUSH1 0x18 PUSH1 0x20 MSTORE PUSH1 0x40 SWAP1 KECCAK256 SLOAD TIMESTAMP SWAP1 PUSH2 0xDB3 SWAP1 PUSH3 0x15180 PUSH2 0x545E JUMP JUMPDEST LT PUSH2 0xDD1 JUMPI PUSH1 0x40 MLOAD PUSH4 0x1A64B87B PUSH1 0xE3 SHL DUP2 MSTORE PUSH1 0x4 ADD PUSH1 0x40 MLOAD DUP1 SWAP2 SUB SWAP1 REVERT JUMPDEST PUSH0 DUP1 PUSH32 0x0 PUSH1 0x1 PUSH1 0x1 PUSH1 0xA0 SHL SUB AND PUSH4 0x70A08231 CALLER PUSH1 0x40 MLOAD PUSH1 0x1 PUSH1 0x1 PUSH1 0xE0 SHL SUB NOT PUSH1 0xE0 DUP5 SWAP1 SHL AND DUP2 MSTORE PUSH1 0x1 PUSH1 0x1 PUSH1 0xA0 SHL SUB SWAP1 SWAP2 AND PUSH1 0x4 DUP3 ADD MSTORE PUSH1 0x24 ADD PUSH1 0x20 PUSH1 0x40 MLOAD DUP1 DUP4 SUB DUP2 DUP7 GAS STATICCALL ISZERO DUP1 ISZERO PUSH2 0xE45 JUMPI RETURNDATASIZE PUSH0 PUSH0 RETURNDATACOPY RETURNDATASIZE PUSH0 REVERT JUMPDEST POP POP POP POP PUSH1 0x40 MLOAD RETURNDATASIZE PUSH1 0x1F NOT PUSH1 0x1F DUP3 ADD AND DUP3 ADD DUP1 PUSH1 0x40 MSTORE POP DUP2 ADD SWAP1 PUSH2 0xE69 SWAP2 SWAP1 PUSH2 0x5471 JUMP JUMPDEST GT ISZERO PUSH2 0xE8A JUMPI PUSH1 0x16 SLOAD PUSH2 0xE7D SWAP1 PUSH1 0x8 PUSH2 0x5488 JUMP JUMPDEST PUSH2 0xE87 SWAP1 DUP3 PUSH2 0x545E JUMP JUMPDEST SWAP1 POP JUMPDEST PUSH0 PUSH1 0x1 PUSH1 0x1 PUSH1 0xA0 SHL SUB PUSH32 0x0 AND PUSH4 0x70A08231 CALLER PUSH1 0x40 MLOAD PUSH1 0x1 PUSH1 0x1 PUSH1 0xE0 SHL SUB NOT PUSH1 0xE0 DUP5 SWAP1 SHL AND DUP2 MSTORE PUSH1 0x1 PUSH1 0x1 PUSH1 0xA0 SHL SUB SWAP1 SWAP2 AND PUSH1 0x4 DUP3 ADD MSTORE PUSH1 0x24 ADD PUSH1 0x20 PUSH1 0x40 MLOAD DUP1 DUP4 SUB DUP2 DUP7 GAS STATICCALL ISZERO DUP1 ISZERO PUSH2 0xEFD JUMPI RETURNDATASIZE PUSH0 PUSH0 RETURNDATACOPY RETURNDATASIZE PUSH0 REVERT JUMPDEST POP POP POP POP PUSH1 0x40 MLOAD RETURNDATASIZE PUSH1 0x1F NOT PUSH1 0x1F DUP3 ADD AND DUP3 ADD DUP1 PUSH1 0x40 MSTORE POP DUP2 ADD SWAP1 PUSH2 0xF21 SWAP2 SWAP1 PUSH2 0x5471 JUMP JUMPDEST GT ISZERO PUSH2 0xF42 JUMPI PUSH1 0x16 SLOAD PUSH2 0xF35 SWAP1 PUSH1 0x3 PUSH2 0x5488 JUMP JUMPDEST PUSH2 0xF3F SWAP1 DUP3 PUSH2 0x545E JUMP JUMPDEST SWAP1 POP JUMPDEST PUSH0 PUSH1 0x1 PUSH1 0x1 PUSH1 0xA0 SHL SUB PUSH32 0x0 AND PUSH4 0x70A08231 CALLER PUSH1 0x40 MLOAD PUSH1 0x1 PUSH1 0x1 PUSH1 0xE0 SHL SUB NOT PUSH1 0xE0 DUP5 SWAP1 SHL AND DUP2 MSTORE PUSH1 0x1 PUSH1 0x1 PUSH1 0xA0 SHL SUB SWAP1 SWAP2 AND PUSH1 0x4 DUP3 ADD MSTORE PUSH1 0x24 ADD PUSH1 0x20 PUSH1 0x40 MLOAD DUP1 DUP4 SUB DUP2 DUP7 GAS STATICCALL ISZERO DUP1 ISZERO PUSH2 0xFB5 JUMPI RETURNDATASIZE PUSH0 PUSH0 RETURNDATACOPY RETURNDATASIZE PUSH0 REVERT JUMPDEST POP POP POP POP PUSH1 0x40 MLOAD RETURNDATASIZE PUSH1 0x1F NOT PUSH1 0x1F DUP3 ADD AND DUP3 ADD DUP1 PUSH1 0x40 MSTORE POP DUP2 ADD SWAP1 PUSH2 0xFD9 SWAP2 SWAP1 PUSH2 0x5471 JUMP JUMPDEST GT ISZERO PUSH2 0xFFA JUMPI PUSH1 0x16 SLOAD PUSH2 0xFED SWAP1 PUSH1 0x3 PUSH2 0x5488 JUMP JUMPDEST PUSH2 0xFF7 SWAP1 DUP3 PUSH2 0x545E JUMP JUMPDEST SWAP1 POP JUMPDEST PUSH10 0xD3C21BCECCEDA1000000 PUSH1 0x1 PUSH1 0x1 PUSH1 0xA0 SHL SUB PUSH32 0x0 AND PUSH4 0x70A08231 CALLER PUSH1 0x40 MLOAD PUSH1 0x1 PUSH1 0x1 PUSH1 0xE0 SHL SUB NOT PUSH1 0xE0 DUP5 SWAP1 SHL AND DUP2 MSTORE PUSH1 0x1 PUSH1 0x1 PUSH1 0xA0 SHL SUB SWAP1 SWAP2 AND PUSH1 0x4 DUP3 ADD MSTORE PUSH1 0x24 ADD PUSH1 0x20 PUSH1 0x40 MLOAD DUP1 DUP4 SUB DUP2 DUP7 GAS STATICCALL ISZERO DUP1 ISZERO PUSH2 0x1077 JUMPI RETURNDATASIZE PUSH0 PUSH0 RETURNDATACOPY RETURNDATASIZE PUSH0 REVERT JUMPDEST POP POP POP POP PUSH1 0x40 MLOAD RETURNDATASIZE PUSH1 0x1F NOT PUSH1 0x1F DUP3 ADD AND DUP3 ADD DUP1 PUSH1 0x40 MSTORE POP DUP2 ADD SWAP1 PUSH2 0x109B SWAP2 SWAP1 PUSH2 0x5471 JUMP JUMPDEST GT ISZERO PUSH2 0x10BC JUMPI PUSH1 0x16 SLOAD PUSH2 0x10AF SWAP1 PUSH1 0x2 PUSH2 0x5488 JUMP JUMPDEST PUSH2 0x10B9 SWAP1 DUP3 PUSH2 0x545E JUMP JUMPDEST SWAP1 POP JUMPDEST PUSH11 0x27B46536C66C8E3000000 PUSH1 0x1 PUSH1 0x1 PUSH1 0xA0 SHL SUB PUSH32 0x0 AND PUSH4 0x70A08231 CALLER PUSH1 0x40 MLOAD PUSH1 0x1 PUSH1 0x1 PUSH1 0xE0 SHL SUB NOT PUSH1 0xE0 DUP5 SWAP1 SHL AND DUP2 MSTORE PUSH1 0x1 PUSH1 0x1 PUSH1 0xA0 SHL SUB SWAP1 SWAP2 AND PUSH1 0x4 DUP3 ADD MSTORE PUSH1 0x24 ADD PUSH1 0x20 PUSH1 0x40 MLOAD DUP1 DUP4 SUB DUP2 DUP7 GAS STATICCALL ISZERO DUP1 ISZERO PUSH2 0x113A JUMPI RETURNDATASIZE PUSH0 PUSH0 RETURNDATACOPY RETURNDATASIZE PUSH0 REVERT JUMPDEST POP POP POP POP PUSH1 0x40 MLOAD RETURNDATASIZE PUSH1 0x1F NOT PUSH1 0x1F DUP3 ADD AND DUP3 ADD DUP1 PUSH1 0x40 MSTORE POP DUP2 ADD SWAP1 PUSH2 0x115E SWAP2 SWAP1 PUSH2 0x5471 JUMP JUMPDEST GT ISZERO PUSH2 0x117F JUMPI PUSH1 0x16 SLOAD PUSH2 0x1172 SWAP1 PUSH1 0x3 PUSH2 0x5488 JUMP JUMPDEST PUSH2 0x117C SWAP1 DUP3 PUSH2 0x545E JUMP JUMPDEST SWAP1 POP JUMPDEST PUSH11 0x422CA8B0A00A425000000 PUSH1 0x1 PUSH1 0x1 PUSH1 0xA0 SHL SUB PUSH32 0x0 AND PUSH4 0x70A08231 CALLER PUSH1 0x40 MLOAD PUSH1 0x1 PUSH1 0x1 PUSH1 0xE0 SHL SUB NOT PUSH1 0xE0 DUP5 SWAP1 SHL AND DUP2 MSTORE PUSH1 0x1 PUSH1 0x1 PUSH1 0xA0 SHL SUB SWAP1 SWAP2 AND PUSH1 0x4 DUP3 ADD MSTORE PUSH1 0x24 ADD PUSH1 0x20 PUSH1 0x40 MLOAD DUP1 DUP4 SUB DUP2 DUP7 GAS STATICCALL ISZERO DUP1 ISZERO PUSH2 0x11FD JUMPI RETURNDATASIZE PUSH0 PUSH0 RETURNDATACOPY RETURNDATASIZE PUSH0 REVERT JUMPDEST POP POP POP POP PUSH1 0x40 MLOAD RETURNDATASIZE PUSH1 0x1F NOT PUSH1 0x1F DUP3 ADD AND DUP3 ADD DUP1 PUSH1 0x40 MSTORE POP DUP2 ADD SWAP1 PUSH2 0x1221 SWAP2 SWAP1 PUSH2 0x5471 JUMP JUMPDEST GT ISZERO PUSH2 0x1242 JUMPI PUSH1 0x16 SLOAD PUSH2 0x1235 SWAP1 PUSH1 0x5 PUSH2 0x5488 JUMP JUMPDEST PUSH2 0x123F SWAP1 DUP3 PUSH2 0x545E JUMP JUMPDEST SWAP1 POP JUMPDEST PUSH11 0x5CA4EC2A79A7F67000000 PUSH1 0x1 PUSH1 0x1 PUSH1 0xA0 SHL SUB PUSH32 0x0 AND PUSH4 0x70A08231 CALLER PUSH1 0x40 MLOAD PUSH1 0x1 PUSH1 0x1 PUSH1 0xE0 SHL SUB NOT PUSH1 0xE0 DUP5 SWAP1 SHL AND DUP2 MSTORE PUSH1 0x1 PUSH1 0x1 PUSH1 0xA0 SHL SUB SWAP1 SWAP2 AND PUSH1 0x4 DUP3 ADD MSTORE PUSH1 0x24 ADD PUSH1 0x20 PUSH1 0x40 MLOAD DUP1 DUP4 SUB DUP2 DUP7 GAS STATICCALL ISZERO DUP1 ISZERO PUSH2 0x12C0 JUMPI RETURNDATASIZE PUSH0 PUSH0 RETURNDATACOPY RETURNDATASIZE PUSH0 REVERT JUMPDEST POP POP POP POP PUSH1 0x40 MLOAD RETURNDATASIZE PUSH1 0x1F NOT PUSH1 0x1F DUP3 ADD AND DUP3 ADD DUP1 PUSH1 0x40 MSTORE POP DUP2 ADD SWAP1 PUSH2 0x12E4 SWAP2 SWAP1 PUSH2 0x5471 JUMP JUMPDEST GT ISZERO PUSH2 0x1305 JUMPI PUSH1 0x16 SLOAD PUSH2 0x12F8 SWAP1 PUSH1 0x7 PUSH2 0x5488 JUMP JUMPDEST PUSH2 0x1302 SWAP1 DUP3 PUSH2 0x545E JUMP JUMPDEST SWAP1 POP JUMPDEST PUSH11 0x84595161401484A000000 PUSH1 0x1 PUSH1 0x1 PUSH1 0xA0 SHL SUB PUSH32 0x0 AND PUSH4 0x70A08231 CALLER PUSH1 0x40 MLOAD PUSH1 0x1 PUSH1 0x1 PUSH1 0xE0 SHL SUB NOT PUSH1 0xE0 DUP5 SWAP1 SHL AND DUP2 MSTORE PUSH1 0x1 PUSH1 0x1 PUSH1 0xA0 SHL SUB SWAP1 SWAP2 AND PUSH1 0x4 DUP3 ADD MSTORE PUSH1 0x24 ADD PUSH1 0x20 PUSH1 0x40 MLOAD DUP1 DUP4 SUB DUP2 DUP7 GAS STATICCALL ISZERO DUP1 ISZERO PUSH2 0x1383 JUMPI RETURNDATASIZE PUSH0 PUSH0 RETURNDATACOPY RETURNDATASIZE PUSH0 REVERT JUMPDEST POP POP POP POP PUSH1 0x40 MLOAD RETURNDATASIZE PUSH1 0x1F NOT PUSH1 0x1F DUP3 ADD AND DUP3 ADD DUP1 PUSH1 0x40 MSTORE POP DUP2 ADD SWAP1 PUSH2 0x13A7 SWAP2 SWAP1 PUSH2 0x5471 JUMP JUMPDEST GT ISZERO PUSH2 0x13C8 JUMPI PUSH1 0x16 SLOAD PUSH2 0x13BB SWAP1 PUSH1 0xA PUSH2 0x5488 JUMP JUMPDEST PUSH2 0x13C5 SWAP1 DUP3 PUSH2 0x545E JUMP JUMPDEST SWAP1 POP JUMPDEST PUSH1 0xE SLOAD PUSH1 0x40 MLOAD PUSH4 0x4CF61D21 PUSH1 0xE1 SHL DUP2 MSTORE PUSH1 0x1 PUSH1 0x1 PUSH1 0xA0 SHL SUB PUSH32 0x0 DUP2 AND SWAP3 PUSH4 0x99EC3A42 SWAP3 PUSH2 0x141A SWAP3 CALLER SWAP3 AND SWAP1 PUSH1 0x4 ADD PUSH2 0x549F JUMP JUMPDEST PUSH1 0x20 PUSH1 0x40 MLOAD DUP1 DUP4 SUB DUP2 DUP7 GAS STATICCALL ISZERO DUP1 ISZERO PUSH2 0x1435 JUMPI RETURNDATASIZE PUSH0 PUSH0 RETURNDATACOPY RETURNDATASIZE PUSH0 REVERT JUMPDEST POP POP POP POP PUSH1 0x40 MLOAD RETURNDATASIZE PUSH1 0x1F NOT PUSH1 0x1F DUP3 ADD AND DUP3 ADD DUP1 PUSH1 0x40 MSTORE POP DUP2 ADD SWAP1 PUSH2 0x1459 SWAP2 SWAP1 PUSH2 0x54B9 JUMP JUMPDEST ISZERO PUSH2 0x1479 JUMPI PUSH1 0x16 SLOAD PUSH2 0x146C SWAP1 PUSH1 0x2 PUSH2 0x5488 JUMP JUMPDEST PUSH2 0x1476 SWAP1 DUP3 PUSH2 0x545E JUMP JUMPDEST SWAP1 POP JUMPDEST PUSH1 0xF SLOAD PUSH1 0x40 MLOAD PUSH4 0x4CF61D21 PUSH1 0xE1 SHL DUP2 MSTORE PUSH1 0x1 PUSH1 0x1 PUSH1 0xA0 SHL SUB PUSH32 0x0 DUP2 AND SWAP3 PUSH4 0x99EC3A42 SWAP3 PUSH2 0x14CB SWAP3 CALLER SWAP3 AND SWAP1 PUSH1 0x4 ADD PUSH2 0x549F JUMP JUMPDEST PUSH1 0x20 PUSH1 0x40 MLOAD DUP1 DUP4 SUB DUP2 DUP7 GAS STATICCALL ISZERO DUP1 ISZERO PUSH2 0x14E6 JUMPI RETURNDATASIZE PUSH0 PUSH0 RETURNDATACOPY RETURNDATASIZE PUSH0 REVERT JUMPDEST POP POP POP POP PUSH1 0x40 MLOAD RETURNDATASIZE PUSH1 0x1F NOT PUSH1 0x1F DUP3 ADD AND DUP3 ADD DUP1 PUSH1 0x40 MSTORE POP DUP2 ADD SWAP1 PUSH2 0x150A SWAP2 SWAP1 PUSH2 0x54B9 JUMP JUMPDEST ISZERO PUSH2 0x152A JUMPI PUSH1 0x16 SLOAD PUSH2 0x151D SWAP1 PUSH1 0x2 PUSH2 0x5488 JUMP JUMPDEST PUSH2 0x1527 SWAP1 DUP3 PUSH2 0x545E JUMP JUMPDEST SWAP1 POP JUMPDEST PUSH1 0xD SLOAD PUSH1 0x40 MLOAD PUSH4 0x4CF61D21 PUSH1 0xE1 SHL DUP2 MSTORE PUSH1 0x1 PUSH1 0x1 PUSH1 0xA0 SHL SUB PUSH32 0x0 DUP2 AND SWAP3 PUSH4 0x99EC3A42 SWAP3 PUSH2 0x157C SWAP3 CALLER SWAP3 AND SWAP1 PUSH1 0x4 ADD PUSH2 0x549F JUMP JUMPDEST PUSH1 0x20 PUSH1 0x40 MLOAD DUP1 DUP4 SUB DUP2 DUP7 GAS STATICCALL ISZERO DUP1 ISZERO PUSH2 0x1597 JUMPI RETURNDATASIZE PUSH0 PUSH0 RETURNDATACOPY RETURNDATASIZE PUSH0 REVERT JUMPDEST POP POP POP POP PUSH1 0x40 MLOAD RETURNDATASIZE PUSH1 0x1F NOT PUSH1 0x1F DUP3 ADD AND DUP3 ADD DUP1 PUSH1 0x40 MSTORE POP DUP2 ADD SWAP1 PUSH2 0x15BB SWAP2 SWAP1 PUSH2 0x54B9 JUMP JUMPDEST ISZERO PUSH2 0x15DB JUMPI PUSH1 0x16 SLOAD PUSH2 0x15CE SWAP1 PUSH1 0x1 PUSH2 0x5488 JUMP JUMPDEST PUSH2 0x15D8 SWAP1 DUP3 PUSH2 0x545E JUMP JUMPDEST SWAP1 POP JUMPDEST PUSH1 0x10 SLOAD PUSH1 0x40 MLOAD PUSH4 0x4CF61D21 PUSH1 0xE1 SHL DUP2 MSTORE PUSH1 0x1 PUSH1 0x1 PUSH1 0xA0 SHL SUB PUSH32 0x0 DUP2 AND SWAP3 PUSH4 0x99EC3A42 SWAP3 PUSH2 0x162D SWAP3 CALLER SWAP3 AND SWAP1 PUSH1 0x4 ADD PUSH2 0x549F JUMP JUMPDEST PUSH1 0x20 PUSH1 0x40 MLOAD DUP1 DUP4 SUB DUP2 DUP7 GAS STATICCALL ISZERO DUP1 ISZERO PUSH2 0x1648 JUMPI RETURNDATASIZE PUSH0 PUSH0 RETURNDATACOPY RETURNDATASIZE PUSH0 REVERT JUMPDEST POP POP POP POP PUSH1 0x40 MLOAD RETURNDATASIZE PUSH1 0x1F NOT PUSH1 0x1F DUP3 ADD AND DUP3 ADD DUP1 PUSH1 0x40 MSTORE POP DUP2 ADD SWAP1 PUSH2 0x166C SWAP2 SWAP1 PUSH2 0x54B9 JUMP JUMPDEST ISZERO PUSH2 0x168C JUMPI PUSH1 0x16 SLOAD PUSH2 0x167F SWAP1 PUSH1 0x1 PUSH2 0x5488 JUMP JUMPDEST PUSH2 0x1689 SWAP1 DUP3 PUSH2 0x545E JUMP JUMPDEST SWAP1 POP JUMPDEST PUSH1 0x11 SLOAD PUSH1 0x40 MLOAD PUSH4 0x4CF61D21 PUSH1 0xE1 SHL DUP2 MSTORE PUSH1 0x1 PUSH1 0x1 PUSH1 0xA0 SHL SUB PUSH32 0x0 DUP2 AND SWAP3 PUSH4 0x99EC3A42 SWAP3 PUSH2 0x16DE SWAP3 CALLER SWAP3 AND SWAP1 PUSH1 0x4 ADD PUSH2 0x549F JUMP JUMPDEST PUSH1 0x20 PUSH1 0x40 MLOAD DUP1 DUP4 SUB DUP2 DUP7 GAS STATICCALL ISZERO DUP1 ISZERO PUSH2 0x16F9 JUMPI RETURNDATASIZE PUSH0 PUSH0 RETURNDATACOPY RETURNDATASIZE PUSH0 REVERT JUMPDEST POP POP POP POP PUSH1 0x40 MLOAD RETURNDATASIZE PUSH1 0x1F NOT PUSH1 0x1F DUP3 ADD AND DUP3 ADD DUP1 PUSH1 0x40 MSTORE POP DUP2 ADD SWAP1 PUSH2 0x171D SWAP2 SWAP1 PUSH2 0x54B9 JUMP JUMPDEST ISZERO PUSH2 0x173D JUMPI PUSH1 0x16 SLOAD PUSH2 0x1730 SWAP1 PUSH1 0x1 PUSH2 0x5488 JUMP JUMPDEST PUSH2 0x173A SWAP1 DUP3 PUSH2 0x545E JUMP JUMPDEST SWAP1 POP JUMPDEST PUSH1 0xE SLOAD PUSH1 0x1 PUSH1 0x1 PUSH1 0xA0 SHL SUB PUSH32 0x0 DUP2 AND SWAP2 PUSH4 0x99EC3A42 SWAP2 AND PUSH2 0x177A CALLER SWAP1 JUMP JUMPDEST PUSH1 0x40 MLOAD DUP4 PUSH4 0xFFFFFFFF AND PUSH1 0xE0 SHL DUP2 MSTORE PUSH1 0x4 ADD PUSH2 0x1797 SWAP3 SWAP2 SWAP1 PUSH2 0x549F JUMP JUMPDEST PUSH1 0x20 PUSH1 0x40 MLOAD DUP1 DUP4 SUB DUP2 DUP7 GAS STATICCALL ISZERO DUP1 ISZERO PUSH2 0x17B2 JUMPI RETURNDATASIZE PUSH0 PUSH0 RETURNDATACOPY RETURNDATASIZE PUSH0 REVERT JUMPDEST POP POP POP POP PUSH1 0x40 MLOAD RETURNDATASIZE PUSH1 0x1F NOT PUSH1 0x1F DUP3 ADD AND DUP3 ADD DUP1 PUSH1 0x40 MSTORE POP DUP2 ADD SWAP1 PUSH2 0x17D6 SWAP2 SWAP1 PUSH2 0x54B9 JUMP JUMPDEST ISZERO PUSH2 0x17F6 JUMPI PUSH1 0x16 SLOAD PUSH2 0x17E9 SWAP1 PUSH1 0x2 PUSH2 0x5488 JUMP JUMPDEST PUSH2 0x17F3 SWAP1 DUP3 PUSH2 0x545E JUMP JUMPDEST SWAP1 POP JUMPDEST PUSH1 0xF SLOAD PUSH1 0x1 PUSH1 0x1 PUSH1 0xA0 SHL SUB PUSH32 0x0 DUP2 AND SWAP2 PUSH4 0x99EC3A42 SWAP2 AND PUSH2 0x1833 CALLER SWAP1 JUMP JUMPDEST PUSH1 0x40 MLOAD DUP4 PUSH4 0xFFFFFFFF AND PUSH1 0xE0 SHL DUP2 MSTORE PUSH1 0x4 ADD PUSH2 0x1850 SWAP3 SWAP2 SWAP1 PUSH2 0x549F JUMP JUMPDEST PUSH1 0x20 PUSH1 0x40 MLOAD DUP1 DUP4 SUB DUP2 DUP7 GAS STATICCALL ISZERO DUP1 ISZERO PUSH2 0x186B JUMPI RETURNDATASIZE PUSH0 PUSH0 RETURNDATACOPY RETURNDATASIZE PUSH0 REVERT JUMPDEST POP POP POP POP PUSH1 0x40 MLOAD RETURNDATASIZE PUSH1 0x1F NOT PUSH1 0x1F DUP3 ADD AND DUP3 ADD DUP1 PUSH1 0x40 MSTORE POP DUP2 ADD SWAP1 PUSH2 0x188F SWAP2 SWAP1 PUSH2 0x54B9 JUMP JUMPDEST ISZERO PUSH2 0x18AF JUMPI PUSH1 0x16 SLOAD PUSH2 0x18A2 SWAP1 PUSH1 0x2 PUSH2 0x5488 JUMP JUMPDEST PUSH2 0x18AC SWAP1 DUP3 PUSH2 0x545E JUMP JUMPDEST SWAP1 POP JUMPDEST PUSH1 0x11 SLOAD PUSH1 0x1 PUSH1 0x1 PUSH1 0xA0 SHL SUB PUSH32 0x0 DUP2 AND SWAP2 PUSH4 0x99EC3A42 SWAP2 AND PUSH2 0x18EC CALLER SWAP1 JUMP JUMPDEST PUSH1 0x40 MLOAD DUP4 PUSH4 0xFFFFFFFF AND PUSH1 0xE0 SHL DUP2 MSTORE PUSH1 0x4 ADD PUSH2 0x1909 SWAP3 SWAP2 SWAP1 PUSH2 0x549F JUMP JUMPDEST PUSH1 0x20 PUSH1 0x40 MLOAD DUP1 DUP4 SUB DUP2 DUP7 GAS STATICCALL ISZERO DUP1 ISZERO PUSH2 0x1924 JUMPI RETURNDATASIZE PUSH0 PUSH0 RETURNDATACOPY RETURNDATASIZE PUSH0 REVERT JUMPDEST POP POP POP POP PUSH1 0x40 MLOAD RETURNDATASIZE PUSH1 0x1F NOT PUSH1 0x1F DUP3 ADD AND DUP3 ADD DUP1 PUSH1 0x40 MSTORE POP DUP2 ADD SWAP1 PUSH2 0x1948 SWAP2 SWAP1 PUSH2 0x54B9 JUMP JUMPDEST ISZERO PUSH2 0x1968 JUMPI PUSH1 0x16 SLOAD PUSH2 0x195B SWAP1 PUSH1 0x4 PUSH2 0x5488 JUMP JUMPDEST PUSH2 0x1965 SWAP1 DUP3 PUSH2 0x545E JUMP JUMPDEST SWAP1 POP JUMPDEST PUSH1 0xF SLOAD PUSH1 0x1 PUSH1 0x1 PUSH1 0xA0 SHL SUB PUSH32 0x0 DUP2 AND SWAP2 PUSH4 0x99EC3A42 SWAP2 AND PUSH2 0x19A5 CALLER SWAP1 JUMP JUMPDEST PUSH1 0x40 MLOAD DUP4 PUSH4 0xFFFFFFFF AND PUSH1 0xE0 SHL DUP2 MSTORE PUSH1 0x4 ADD PUSH2 0x19C2 SWAP3 SWAP2 SWAP1 PUSH2 0x549F JUMP JUMPDEST PUSH1 0x20 PUSH1 0x40 MLOAD DUP1 DUP4 SUB DUP2 DUP7 GAS STATICCALL ISZERO DUP1 ISZERO PUSH2 0x19DD JUMPI RETURNDATASIZE PUSH0 PUSH0 RETURNDATACOPY RETURNDATASIZE PUSH0 REVERT JUMPDEST POP POP POP POP PUSH1 0x40 MLOAD RETURNDATASIZE PUSH1 0x1F NOT PUSH1 0x1F DUP3 ADD AND DUP3 ADD DUP1 PUSH1 0x40 MSTORE POP DUP2 ADD SWAP1 PUSH2 0x1A01 SWAP2 SWAP1 PUSH2 0x54B9 JUMP JUMPDEST ISZERO PUSH2 0x1A21 JUMPI PUSH1 0x16 SLOAD PUSH2 0x1A14 SWAP1 PUSH1 0x1 PUSH2 0x5488 JUMP JUMPDEST PUSH2 0x1A1E SWAP1 DUP3 PUSH2 0x545E JUMP JUMPDEST SWAP1 POP JUMPDEST PUSH1 0x3 PUSH2 0x1A2C CALLER PUSH2 0x273D JUMP JUMPDEST LT PUSH2 0x1A4C JUMPI PUSH1 0x16 SLOAD PUSH2 0x1A3F SWAP1 PUSH1 0x2 PUSH2 0x5488 JUMP JUMPDEST PUSH2 0x1A49 SWAP1 DUP3 PUSH2 0x545E JUMP JUMPDEST SWAP1 POP JUMPDEST PUSH1 0x5 PUSH2 0x1A57 CALLER PUSH2 0x273D JUMP JUMPDEST LT PUSH2 0x1A77 JUMPI PUSH1 0x16 SLOAD PUSH2 0x1A6A SWAP1 PUSH1 0x2 PUSH2 0x5488 JUMP JUMPDEST PUSH2 0x1A74 SWAP1 DUP3 PUSH2 0x545E JUMP JUMPDEST SWAP1 POP JUMPDEST PUSH1 0xA PUSH2 0x1A82 CALLER PUSH2 0x273D JUMP JUMPDEST LT PUSH2 0x1AA2 JUMPI PUSH1 0x16 SLOAD PUSH2 0x1A95 SWAP1 PUSH1 0x3 PUSH2 0x5488 JUMP JUMPDEST PUSH2 0x1A9F SWAP1 DUP3 PUSH2 0x545E JUMP JUMPDEST SWAP1 POP JUMPDEST PUSH1 0xF PUSH2 0x1AAD CALLER PUSH2 0x273D JUMP JUMPDEST LT PUSH2 0x1ACD JUMPI PUSH1 0x16 SLOAD PUSH2 0x1AC0 SWAP1 PUSH1 0x3 PUSH2 0x5488 JUMP JUMPDEST PUSH2 0x1ACA SWAP1 DUP3 PUSH2 0x545E JUMP JUMPDEST SWAP1 POP JUMPDEST PUSH1 0x14 PUSH2 0x1AD8 CALLER PUSH2 0x273D JUMP JUMPDEST LT PUSH2 0x1AF8 JUMPI PUSH1 0x16 SLOAD PUSH2 0x1AEB SWAP1 PUSH1 0x5 PUSH2 0x5488 JUMP JUMPDEST PUSH2 0x1AF5 SWAP1 DUP3 PUSH2 0x545E JUMP JUMPDEST SWAP1 POP JUMPDEST PUSH1 0x32 PUSH2 0x1B03 CALLER PUSH2 0x273D JUMP JUMPDEST LT PUSH2 0x1B23 JUMPI PUSH1 0x16 SLOAD PUSH2 0x1B16 SWAP1 PUSH1 0xA PUSH2 0x5488 JUMP JUMPDEST PUSH2 0x1B20 SWAP1 DUP3 PUSH2 0x545E JUMP JUMPDEST SWAP1 POP JUMPDEST PUSH0 DUP3 DUP2 MSTORE PUSH1 0x19 PUSH1 0x20 SWAP1 DUP2 MSTORE PUSH1 0x40 SWAP2 DUP3 SWAP1 KECCAK256 DUP3 MLOAD DUP1 DUP5 ADD SWAP1 SWAP4 MSTORE DUP1 SLOAD DUP1 DUP5 MSTORE PUSH1 0x1 SWAP1 SWAP2 ADD SLOAD PUSH1 0xFF AND SWAP2 DUP4 ADD SWAP2 SWAP1 SWAP2 MSTORE DUP3 SWAP1 DUP3 SWAP1 PUSH2 0x1B60 SWAP1 DUP4 SWAP1 PUSH2 0x545E JUMP JUMPDEST SWAP1 MSTORE POP PUSH0 SWAP3 DUP4 MSTORE PUSH1 0x19 PUSH1 0x20 SWAP1 DUP2 MSTORE PUSH1 0x40 DUP1 DUP6 KECCAK256 DUP4 MLOAD DUP2 SSTORE SWAP3 DUP3 ADD MLOAD PUSH1 0x1 SWAP1 SWAP4 ADD DUP1 SLOAD PUSH1 0xFF NOT AND PUSH1 0xFF SWAP1 SWAP5 AND SWAP4 SWAP1 SWAP4 OR SWAP1 SWAP3 SSTORE CALLER DUP5 MSTORE PUSH1 0x18 SWAP1 MSTORE SWAP1 SWAP2 KECCAK256 TIMESTAMP SWAP1 SSTORE POP JUMP JUMPDEST PUSH1 0x60 PUSH2 0x1BAE DUP4 DUP4 PUSH2 0x3A9D JUMP JUMPDEST SWAP4 SWAP3 POP POP POP JUMP JUMPDEST PUSH1 0x60 DUP2 MLOAD DUP4 MLOAD EQ PUSH2 0x1BD9 JUMPI PUSH1 0x40 MLOAD PUSH4 0x17D38EFF PUSH1 0xE1 SHL DUP2 MSTORE PUSH1 0x4 ADD PUSH1 0x40 MLOAD DUP1 SWAP2 SUB SWAP1 REVERT JUMPDEST DUP3 MLOAD PUSH1 0x1 PUSH1 0x1 PUSH1 0x40 SHL SUB DUP2 GT ISZERO PUSH2 0x1BF2 JUMPI PUSH2 0x1BF2 PUSH2 0x499E JUMP JUMPDEST PUSH1 0x40 MLOAD SWAP1 DUP1 DUP3 MSTORE DUP1 PUSH1 0x20 MUL PUSH1 0x20 ADD DUP3 ADD PUSH1 0x40 MSTORE DUP1 ISZERO PUSH2 0x1C25 JUMPI DUP2 PUSH1 0x20 ADD JUMPDEST PUSH1 0x60 DUP2 MSTORE PUSH1 0x20 ADD SWAP1 PUSH1 0x1 SWAP1 SUB SWAP1 DUP2 PUSH2 0x1C10 JUMPI SWAP1 POP JUMPDEST POP SWAP1 POP PUSH0 JUMPDEST DUP4 MLOAD DUP2 LT ISZERO PUSH2 0x1C94 JUMPI PUSH2 0x1C6F DUP5 DUP3 DUP2 MLOAD DUP2 LT PUSH2 0x1C48 JUMPI PUSH2 0x1C48 PUSH2 0x54D4 JUMP JUMPDEST PUSH1 0x20 MUL PUSH1 0x20 ADD ADD MLOAD DUP5 DUP4 DUP2 MLOAD DUP2 LT PUSH2 0x1C62 JUMPI PUSH2 0x1C62 PUSH2 0x54D4 JUMP JUMPDEST PUSH1 0x20 MUL PUSH1 0x20 ADD ADD MLOAD PUSH2 0x3A9D JUMP JUMPDEST DUP3 DUP3 DUP2 MLOAD DUP2 LT PUSH2 0x1C81 JUMPI PUSH2 0x1C81 PUSH2 0x54D4 JUMP JUMPDEST PUSH1 0x20 SWAP1 DUP2 MUL SWAP2 SWAP1 SWAP2 ADD ADD MSTORE PUSH1 0x1 ADD PUSH2 0x1C2A JUMP JUMPDEST POP SWAP3 SWAP2 POP POP JUMP JUMPDEST PUSH0 DUP2 DUP2 MSTORE PUSH1 0x3 PUSH1 0x20 MSTORE PUSH1 0x40 DUP2 KECCAK256 SLOAD PUSH1 0x1 PUSH1 0x1 PUSH1 0xA0 SHL SUB AND DUP1 PUSH2 0xD5C JUMPI PUSH1 0x40 MLOAD PUSH4 0x5747CD1B PUSH1 0xE1 SHL DUP2 MSTORE PUSH1 0x4 DUP2 ADD DUP5 SWAP1 MSTORE PUSH1 0x24 ADD PUSH2 0x3F2 JUMP JUMPDEST PUSH0 PUSH2 0x1BAE DUP4 DUP4 PUSH2 0x3B48 JUMP JUMPDEST PUSH2 0x1CE6 PUSH2 0x3B83 JUMP JUMPDEST DUP1 MLOAD PUSH1 0x9 DUP1 SLOAD PUSH1 0x1 PUSH1 0x1 PUSH1 0xA0 SHL SUB SWAP3 DUP4 AND PUSH1 0x1 PUSH1 0x1 PUSH1 0xA0 SHL SUB NOT SWAP2 DUP3 AND DUP2 OR SWAP1 SWAP3 SSTORE PUSH1 0x20 DUP5 ADD MLOAD PUSH1 0xA DUP1 SLOAD SWAP2 DUP6 AND SWAP2 DUP4 AND DUP3 OR SWAP1 SSTORE PUSH1 0x40 DUP1 DUP7 ADD MLOAD PUSH1 0xB DUP1 SLOAD SWAP2 DUP8 AND SWAP2 DUP6 AND DUP3 OR SWAP1 SSTORE PUSH1 0x60 DUP8 ADD MLOAD PUSH1 0xC DUP1 SLOAD DUP3 DUP10 AND SWAP1 DUP8 AND OR SWAP1 SSTORE PUSH1 0x80 DUP9 ADD MLOAD PUSH1 0xD DUP1 SLOAD DUP3 DUP11 AND SWAP1 DUP9 AND OR SWAP1 SSTORE PUSH1 0xA0 DUP10 ADD MLOAD PUSH1 0xE DUP1 SLOAD DUP3 DUP12 AND SWAP1 DUP10 AND OR SWAP1 SSTORE PUSH1 0xC0 DUP11 ADD MLOAD PUSH1 0xF DUP1 SLOAD DUP3 DUP13 AND SWAP1 DUP11 AND OR SWAP1 SSTORE PUSH1 0xE0 DUP12 ADD MLOAD PUSH1 0x10 DUP1 SLOAD DUP3 DUP14 AND SWAP1 DUP12 AND OR SWAP1 SSTORE PUSH2 0x100 DUP13 ADD MLOAD PUSH1 0x11 DUP1 SLOAD DUP3 DUP15 AND SWAP1 DUP13 AND OR SWAP1 SSTORE PUSH2 0x120 DUP14 ADD MLOAD PUSH1 0x12 DUP1 SLOAD SWAP14 DUP3 AND SWAP14 SWAP1 SWAP12 AND SWAP13 SWAP1 SWAP13 OR SWAP1 SWAP10 SSTORE SWAP6 MLOAD SWAP5 SWAP10 SWAP7 SWAP9 SWAP8 PUSH32 0xD7FF29EFFCED1B6A8B99FF16244C286AF48221D90470A241C633BCC7C9DFD84D SWAP8 PUSH2 0x1E2B SWAP8 SWAP6 SWAP7 SWAP5 SWAP6 SWAP4 SWAP5 SWAP3 SWAP4 SWAP3 PUSH1 0x1 PUSH1 0x1 PUSH1 0xA0 SHL SUB SWAP8 DUP9 AND DUP2 MSTORE SWAP6 DUP8 AND PUSH1 0x20 DUP8 ADD MSTORE SWAP4 DUP7 AND PUSH1 0x40 DUP7 ADD MSTORE SWAP2 DUP6 AND PUSH1 0x60 DUP6 ADD MSTORE DUP5 AND PUSH1 0x80 DUP5 ADD MSTORE DUP4 AND PUSH1 0xA0 DUP4 ADD MSTORE SWAP1 SWAP2 AND PUSH1 0xC0 DUP3 ADD MSTORE PUSH1 0xE0 ADD SWAP1 JUMP JUMPDEST PUSH1 0x40 MLOAD DUP1 SWAP2 SUB SWAP1 LOG4 POP JUMP JUMPDEST PUSH0 DUP3 DUP2 MSTORE PUSH1 0x19 PUSH1 0x20 MSTORE PUSH1 0x40 DUP2 KECCAK256 PUSH1 0x1 DUP1 DUP3 ADD SLOAD SWAP2 SWAP3 SWAP2 PUSH2 0x1E59 SWAP2 SWAP1 PUSH1 0xFF AND PUSH2 0x54E8 JUMP JUMPDEST PUSH1 0x1 DUP4 DUP2 ADD SLOAD SWAP2 SWAP3 POP PUSH1 0xFF SWAP1 SWAP2 AND GT PUSH2 0x1E85 JUMPI PUSH1 0x40 MLOAD PUSH4 0x4F826195 PUSH1 0xE1 SHL DUP2 MSTORE PUSH1 0x4 ADD PUSH1 0x40 MLOAD DUP1 SWAP2 SUB SWAP1 REVERT JUMPDEST PUSH2 0x1EB0 DUP5 PUSH32 0x9AFB95CACC9F95858EC44AA8C3B685511002E30AE54415823F406128B85B238E DUP6 PUSH2 0x3BBE JUMP JUMPDEST PUSH1 0x1 SWAP2 SWAP1 SWAP2 ADD DUP1 SLOAD PUSH1 0xFF NOT AND PUSH1 0xFF SWAP1 SWAP3 AND SWAP2 SWAP1 SWAP2 OR SWAP1 SSTORE POP POP JUMP JUMPDEST PUSH0 PUSH2 0x1ED4 PUSH2 0x3C1F JUMP JUMPDEST PUSH2 0x1EDC PUSH2 0x3C49 JUMP JUMPDEST PUSH2 0x8AE PUSH2 0x1EE8 PUSH1 0x13 SLOAD SWAP1 JUMP JUMPDEST LT PUSH2 0x1F06 JUMPI PUSH1 0x40 MLOAD PUSH4 0x8A164F63 PUSH1 0xE0 SHL DUP2 MSTORE PUSH1 0x4 ADD PUSH1 0x40 MLOAD DUP1 SWAP2 SUB SWAP1 REVERT JUMPDEST DUP3 PUSH1 0x14 SLOAD EQ PUSH2 0x1F28 JUMPI PUSH1 0x40 MLOAD PUSH4 0x21094A9B PUSH1 0xE0 SHL DUP2 MSTORE PUSH1 0x4 ADD PUSH1 0x40 MLOAD DUP1 SWAP2 SUB SWAP1 REVERT JUMPDEST PUSH0 DUP4 DUP2 MSTORE PUSH1 0x17 PUSH1 0x20 MSTORE PUSH1 0x40 DUP1 DUP3 KECCAK256 DUP2 MLOAD PUSH1 0x80 DUP2 ADD SWAP1 SWAP3 MSTORE DUP1 SLOAD DUP3 SWAP1 DUP3 SWAP1 PUSH2 0x1F4E SWAP1 PUSH2 0x5501 JUMP JUMPDEST DUP1 PUSH1 0x1F ADD PUSH1 0x20 DUP1 SWAP2 DIV MUL PUSH1 0x20 ADD PUSH1 0x40 MLOAD SWAP1 DUP2 ADD PUSH1 0x40 MSTORE DUP1 SWAP3 SWAP2 SWAP1 DUP2 DUP2 MSTORE PUSH1 0x20 ADD DUP3 DUP1 SLOAD PUSH2 0x1F7A SWAP1 PUSH2 0x5501 JUMP JUMPDEST DUP1 ISZERO PUSH2 0x1FC5 JUMPI DUP1 PUSH1 0x1F LT PUSH2 0x1F9C JUMPI PUSH2 0x100 DUP1 DUP4 SLOAD DIV MUL DUP4 MSTORE SWAP2 PUSH1 0x20 ADD SWAP2 PUSH2 0x1FC5 JUMP JUMPDEST DUP3 ADD SWAP2 SWAP1 PUSH0 MSTORE PUSH1 0x20 PUSH0 KECCAK256 SWAP1 JUMPDEST DUP2 SLOAD DUP2 MSTORE SWAP1 PUSH1 0x1 ADD SWAP1 PUSH1 0x20 ADD DUP1 DUP4 GT PUSH2 0x1FA8 JUMPI DUP3 SWAP1 SUB PUSH1 0x1F AND DUP3 ADD SWAP2 JUMPDEST POP POP POP SWAP2 DUP4 MSTORE POP POP PUSH1 0x1 DUP3 ADD SLOAD PUSH1 0x20 DUP1 DUP4 ADD SWAP2 SWAP1 SWAP2 MSTORE PUSH1 0x2 DUP4 ADD SLOAD PUSH1 0x40 DUP1 DUP5 ADD SWAP2 SWAP1 SWAP2 MSTORE PUSH1 0x3 SWAP1 SWAP4 ADD SLOAD PUSH1 0x1 PUSH1 0x1 PUSH1 0xA0 SHL SUB AND PUSH1 0x60 SWAP3 DUP4 ADD MSTORE DUP4 DUP2 ADD MLOAD DUP5 DUP5 ADD MLOAD SWAP3 DUP6 ADD MLOAD CALLER PUSH0 SWAP1 DUP2 MSTORE PUSH1 0x1B DUP5 MSTORE DUP6 DUP2 KECCAK256 DUP12 DUP3 MSTORE SWAP1 SWAP4 MSTORE SWAP4 SWAP1 SWAP2 KECCAK256 SLOAD SWAP4 SWAP5 POP SWAP3 SWAP1 SWAP2 SWAP1 PUSH1 0xFF AND DUP4 GT PUSH2 0x204A JUMPI PUSH1 0x40 MLOAD PUSH4 0x4BCD7EDD PUSH1 0xE1 SHL DUP2 MSTORE PUSH1 0x4 ADD PUSH1 0x40 MLOAD DUP1 SWAP2 SUB SWAP1 REVERT JUMPDEST PUSH1 0x40 DUP1 MLOAD DUP1 DUP3 ADD SWAP1 SWAP2 MSTORE PUSH1 0x6 DUP2 MSTORE PUSH6 0x706861736531 PUSH1 0xD0 SHL PUSH1 0x20 SWAP1 SWAP2 ADD MSTORE PUSH32 0x3DB34EEEEFD2A5000C181C2D5BE61BC403042E9BB18DD26851E221BC976396D2 DUP8 ADD PUSH2 0x2128 JUMPI CALLER PUSH0 SWAP1 DUP2 MSTORE PUSH1 0x1C PUSH1 0x20 MSTORE PUSH1 0x40 SWAP1 KECCAK256 SLOAD PUSH1 0xFF AND PUSH2 0x20BE JUMPI PUSH1 0x40 MLOAD PUSH4 0xB094F27 PUSH1 0xE3 SHL DUP2 MSTORE PUSH1 0x4 ADD PUSH1 0x40 MLOAD DUP1 SWAP2 SUB SWAP1 REVERT JUMPDEST PUSH1 0xDE PUSH2 0x20C9 PUSH1 0x2 SLOAD SWAP1 JUMP JUMPDEST LT PUSH2 0x20E7 JUMPI PUSH1 0x40 MLOAD PUSH4 0x342428EB PUSH1 0xE0 SHL DUP2 MSTORE PUSH1 0x4 ADD PUSH1 0x40 MLOAD DUP1 SWAP2 SUB SWAP1 REVERT JUMPDEST CALLER PUSH0 SWAP1 DUP2 MSTORE PUSH1 0x1B PUSH1 0x20 SWAP1 DUP2 MSTORE PUSH1 0x40 DUP1 DUP4 KECCAK256 DUP11 DUP5 MSTORE SWAP1 SWAP2 MSTORE SWAP1 KECCAK256 SLOAD PUSH1 0xFF AND DUP4 GT PUSH2 0x2123 JUMPI PUSH1 0x40 MLOAD PUSH4 0x3CE95F85 PUSH1 0xE1 SHL DUP2 MSTORE PUSH1 0x4 ADD PUSH1 0x40 MLOAD DUP1 SWAP2 SUB SWAP1 REVERT JUMPDEST PUSH2 0x2281 JUMP JUMPDEST PUSH1 0x40 DUP1 MLOAD DUP1 DUP3 ADD SWAP1 SWAP2 MSTORE PUSH1 0x6 DUP2 MSTORE PUSH6 0x383430B9B299 PUSH1 0xD1 SHL PUSH1 0x20 SWAP1 SWAP2 ADD MSTORE PUSH32 0xCE00F28AF6461CE48F3D0998A1034C969651D2B8DF8A6D973D85C3D2AE3AE448 DUP8 ADD PUSH2 0x2196 JUMPI PUSH1 0xDE PUSH2 0x2178 PUSH1 0x2 SLOAD SWAP1 JUMP JUMPDEST LT PUSH2 0x2123 JUMPI PUSH1 0x40 MLOAD PUSH4 0x342428EB PUSH1 0xE0 SHL DUP2 MSTORE PUSH1 0x4 ADD PUSH1 0x40 MLOAD DUP1 SWAP2 SUB SWAP1 REVERT JUMPDEST PUSH1 0x40 DUP1 MLOAD DUP1 DUP3 ADD SWAP1 SWAP2 MSTORE PUSH1 0x6 DUP2 MSTORE PUSH6 0x706861736533 PUSH1 0xD0 SHL PUSH1 0x20 SWAP1 SWAP2 ADD MSTORE PUSH32 0x6C81E26B43AA001367D6FEAD6E59C42C18FD7A333BB17DB5DEDD5A7E313230E5 DUP8 ADD PUSH2 0x2281 JUMPI PUSH1 0x40 MLOAD PUSH4 0x70A08231 PUSH1 0xE0 SHL DUP2 MSTORE CALLER PUSH1 0x4 DUP3 ADD MSTORE PUSH0 SWAP1 PUSH32 0x0 PUSH1 0x1 PUSH1 0x1 PUSH1 0xA0 SHL SUB AND SWAP1 PUSH4 0x70A08231 SWAP1 PUSH1 0x24 ADD PUSH1 0x20 PUSH1 0x40 MLOAD DUP1 DUP4 SUB DUP2 DUP7 GAS STATICCALL ISZERO DUP1 ISZERO PUSH2 0x223F JUMPI RETURNDATASIZE PUSH0 PUSH0 RETURNDATACOPY RETURNDATASIZE PUSH0 REVERT JUMPDEST POP POP POP POP PUSH1 0x40 MLOAD RETURNDATASIZE PUSH1 0x1F NOT PUSH1 0x1F DUP3 ADD AND DUP3 ADD DUP1 PUSH1 0x40 MSTORE POP DUP2 ADD SWAP1 PUSH2 0x2263 SWAP2 SWAP1 PUSH2 0x5471 JUMP JUMPDEST GT PUSH2 0x2281 JUMPI PUSH1 0x40 MLOAD PUSH4 0x46B8A0FD PUSH1 0xE1 SHL DUP2 MSTORE PUSH1 0x4 ADD PUSH1 0x40 MLOAD DUP1 SWAP2 SUB SWAP1 REVERT JUMPDEST DUP2 ISZERO PUSH2 0x2325 JUMPI PUSH1 0x1 PUSH1 0x1 PUSH1 0xA0 SHL SUB DUP2 AND PUSH2 0x22C4 JUMPI DUP2 CALLVALUE LT ISZERO PUSH2 0x22BF JUMPI PUSH1 0x40 MLOAD PUSH4 0xB99E2AB7 PUSH1 0xE0 SHL DUP2 MSTORE PUSH1 0x4 DUP2 ADD DUP4 SWAP1 MSTORE CALLVALUE PUSH1 0x24 DUP3 ADD MSTORE PUSH1 0x44 ADD PUSH2 0x3F2 JUMP JUMPDEST PUSH2 0x2325 JUMP JUMPDEST PUSH1 0x40 MLOAD PUSH4 0x3B06CDDD PUSH1 0xE1 SHL DUP2 MSTORE PUSH1 0x1 PUSH1 0x1 PUSH1 0xA0 SHL SUB DUP3 AND SWAP1 PUSH4 0x760D9BBA SWAP1 PUSH2 0x22F7 SWAP1 CALLER SWAP1 ADDRESS SWAP1 DUP8 SWAP1 PUSH1 0x1 SWAP1 PUSH1 0x4 ADD PUSH2 0x5533 JUMP JUMPDEST PUSH0 PUSH1 0x40 MLOAD DUP1 DUP4 SUB DUP2 PUSH0 DUP8 DUP1 EXTCODESIZE ISZERO DUP1 ISZERO PUSH2 0x230E JUMPI PUSH0 PUSH0 REVERT JUMPDEST POP GAS CALL ISZERO DUP1 ISZERO PUSH2 0x2320 JUMPI RETURNDATASIZE PUSH0 PUSH0 RETURNDATACOPY RETURNDATASIZE PUSH0 REVERT JUMPDEST POP POP POP POP JUMPDEST PUSH2 0x2333 PUSH1 0x13 DUP1 SLOAD PUSH1 0x1 ADD SWAP1 SSTORE JUMP JUMPDEST PUSH0 PUSH2 0x233D PUSH1 0x13 SLOAD SWAP1 JUMP JUMPDEST SWAP1 POP PUSH2 0x235A CALLER DUP3 PUSH1 0x1 PUSH1 0x40 MLOAD DUP1 PUSH1 0x20 ADD PUSH1 0x40 MSTORE DUP1 PUSH0 DUP2 MSTORE POP PUSH2 0x3C6D JUMP JUMPDEST PUSH2 0x2385 DUP2 PUSH32 0x9AFB95CACC9F95858EC44AA8C3B685511002E30AE54415823F406128B85B238E DUP10 PUSH2 0x3BBE JUMP JUMPDEST CALLER PUSH0 SWAP1 DUP2 MSTORE PUSH1 0x1B PUSH1 0x20 SWAP1 DUP2 MSTORE PUSH1 0x40 DUP1 DUP4 KECCAK256 DUP12 DUP5 MSTORE SWAP1 SWAP2 MSTORE SWAP1 KECCAK256 SLOAD PUSH2 0x23AD SWAP1 PUSH1 0xFF AND PUSH1 0x1 PUSH2 0x556A JUMP JUMPDEST CALLER PUSH0 DUP2 DUP2 MSTORE PUSH1 0x1B PUSH1 0x20 SWAP1 DUP2 MSTORE PUSH1 0x40 DUP1 DUP4 KECCAK256 DUP14 DUP5 MSTORE DUP3 MSTORE DUP1 DUP4 KECCAK256 DUP1 SLOAD PUSH1 0xFF SWAP7 DUP8 AND PUSH1 0xFF NOT SWAP2 DUP3 AND OR SWAP1 SWAP2 SSTORE DUP2 MLOAD DUP1 DUP4 ADD DUP4 MSTORE DUP5 DUP2 MSTORE DUP1 DUP5 ADD DUP6 DUP2 MSTORE DUP9 DUP7 MSTORE PUSH1 0x19 DUP6 MSTORE SWAP5 DUP4 SWAP1 KECCAK256 SWAP1 MLOAD DUP2 SSTORE SWAP4 MLOAD PUSH1 0x1 SWAP5 SWAP1 SWAP5 ADD DUP1 SLOAD SWAP5 SWAP1 SWAP7 AND SWAP4 AND SWAP3 SWAP1 SWAP3 OR SWAP1 SWAP4 SSTORE MLOAD TIMESTAMP DUP2 MSTORE DUP4 SWAP3 PUSH32 0xA076A0E133EAAA7A0D2293663374C22B5572FC5A479274E17E00AC210FE2367B SWAP2 ADD PUSH1 0x40 MLOAD DUP1 SWAP2 SUB SWAP1 LOG3 SWAP5 POP POP POP POP POP PUSH2 0xD5C PUSH1 0x1 PUSH1 0x8 SSTORE JUMP JUMPDEST PUSH2 0x2456 PUSH2 0x3B83 JUMP JUMPDEST PUSH1 0x14 SSTORE JUMP JUMPDEST PUSH1 0x60 PUSH2 0x2466 DUP3 PUSH2 0x3DD6 JUMP JUMPDEST PUSH0 DUP3 DUP2 MSTORE PUSH1 0x5 PUSH1 0x20 MSTORE PUSH1 0x40 SWAP1 KECCAK256 PUSH2 0xD5C SWAP1 PUSH2 0x3E0D JUMP JUMPDEST PUSH2 0x2486 CALLER DUP5 PUSH2 0x3B48 JUMP JUMPDEST PUSH2 0x24AC JUMPI PUSH1 0x40 MLOAD PUSH4 0x1294D2A9 PUSH1 0xE0 SHL DUP2 MSTORE PUSH1 0x4 DUP2 ADD DUP5 SWAP1 MSTORE CALLER PUSH1 0x24 DUP3 ADD MSTORE PUSH1 0x44 ADD PUSH2 0x3F2 JUMP JUMPDEST PUSH2 0x24B9 DUP6 DUP6 DUP6 DUP6 DUP6 PUSH2 0x3E19 JUMP JUMPDEST POP POP POP POP POP JUMP JUMPDEST PUSH1 0x60 PUSH2 0xD5C DUP3 PUSH2 0x3FF5 JUMP JUMPDEST PUSH0 DUP4 DUP2 MSTORE PUSH1 0x19 PUSH1 0x20 MSTORE PUSH1 0x40 SWAP1 KECCAK256 SLOAD ISZERO ISZERO DUP1 PUSH2 0x24F8 JUMPI POP PUSH0 DUP4 DUP2 MSTORE PUSH1 0x19 PUSH1 0x20 MSTORE PUSH1 0x40 SWAP1 KECCAK256 PUSH1 0x1 ADD SLOAD PUSH1 0xFF AND ISZERO ISZERO JUMPDEST PUSH2 0x252F JUMPI PUSH1 0x40 MLOAD PUSH3 0x461BCD PUSH1 0xE5 SHL DUP2 MSTORE PUSH1 0x20 PUSH1 0x4 DUP3 ADD MSTORE PUSH1 0x8 PUSH1 0x24 DUP3 ADD MSTORE PUSH8 0x139BC8195E1A5CDD PUSH1 0xC2 SHL PUSH1 0x44 DUP3 ADD MSTORE PUSH1 0x64 ADD PUSH2 0x3F2 JUMP JUMPDEST PUSH1 0x9 SLOAD PUSH1 0x1 PUSH1 0x1 PUSH1 0xA0 SHL SUB AND PUSH4 0x44D17187 CALLER PUSH2 0x2553 DUP6 PUSH8 0xDE0B6B3A7640000 PUSH2 0x5488 JUMP JUMPDEST DUP5 PUSH1 0x40 MLOAD DUP5 PUSH4 0xFFFFFFFF AND PUSH1 0xE0 SHL DUP2 MSTORE PUSH1 0x4 ADD PUSH2 0x2572 SWAP4 SWAP3 SWAP2 SWAP1 PUSH2 0x5583 JUMP JUMPDEST PUSH0 PUSH1 0x40 MLOAD DUP1 DUP4 SUB DUP2 PUSH0 DUP8 DUP1 EXTCODESIZE ISZERO DUP1 ISZERO PUSH2 0x2589 JUMPI PUSH0 PUSH0 REVERT JUMPDEST POP GAS CALL ISZERO DUP1 ISZERO PUSH2 0x259B JUMPI RETURNDATASIZE PUSH0 PUSH0 RETURNDATACOPY RETURNDATASIZE PUSH0 REVERT JUMPDEST POP POP POP PUSH0 DUP5 DUP2 MSTORE PUSH1 0x19 PUSH1 0x20 SWAP1 DUP2 MSTORE PUSH1 0x40 SWAP2 DUP3 SWAP1 KECCAK256 DUP3 MLOAD DUP1 DUP5 ADD SWAP1 SWAP4 MSTORE DUP1 SLOAD DUP1 DUP5 MSTORE PUSH1 0x1 SWAP1 SWAP2 ADD SLOAD PUSH1 0xFF AND SWAP2 DUP4 ADD SWAP2 SWAP1 SWAP2 MSTORE SWAP1 SWAP2 POP DUP4 SWAP1 DUP3 SWAP1 PUSH2 0x25DE SWAP1 DUP4 SWAP1 PUSH2 0x545E JUMP JUMPDEST SWAP1 MSTORE POP PUSH0 SWAP4 DUP5 MSTORE PUSH1 0x19 PUSH1 0x20 SWAP1 DUP2 MSTORE PUSH1 0x40 SWAP1 SWAP5 KECCAK256 DUP2 MLOAD DUP2 SSTORE SWAP4 ADD MLOAD PUSH1 0x1 SWAP1 SWAP4 ADD DUP1 SLOAD PUSH1 0xFF NOT AND PUSH1 0xFF SWAP1 SWAP5 AND SWAP4 SWAP1 SWAP4 OR SWAP1 SWAP3 SSTORE POP POP JUMP JUMPDEST PUSH1 0x60 DUP2 PUSH1 0x1 PUSH1 0x1 PUSH1 0x40 SHL SUB DUP2 GT ISZERO PUSH2 0x262D JUMPI PUSH2 0x262D PUSH2 0x499E JUMP JUMPDEST PUSH1 0x40 MLOAD SWAP1 DUP1 DUP3 MSTORE DUP1 PUSH1 0x20 MUL PUSH1 0x20 ADD DUP3 ADD PUSH1 0x40 MSTORE DUP1 ISZERO PUSH2 0x2660 JUMPI DUP2 PUSH1 0x20 ADD JUMPDEST PUSH1 0x60 DUP2 MSTORE PUSH1 0x20 ADD SWAP1 PUSH1 0x1 SWAP1 SUB SWAP1 DUP2 PUSH2 0x264B JUMPI SWAP1 POP JUMPDEST POP SWAP1 POP PUSH0 JUMPDEST DUP3 DUP2 LT ISZERO PUSH2 0x1C94 JUMPI PUSH0 DUP1 ADDRESS DUP7 DUP7 DUP6 DUP2 DUP2 LT PUSH2 0x2682 JUMPI PUSH2 0x2682 PUSH2 0x54D4 JUMP JUMPDEST SWAP1 POP PUSH1 0x20 MUL DUP2 ADD SWAP1 PUSH2 0x2694 SWAP2 SWAP1 PUSH2 0x55B2 JUMP JUMPDEST PUSH1 0x40 MLOAD PUSH2 0x26A2 SWAP3 SWAP2 SWAP1 PUSH2 0x55FB JUMP JUMPDEST PUSH0 PUSH1 0x40 MLOAD DUP1 DUP4 SUB DUP2 DUP6 GAS DELEGATECALL SWAP2 POP POP RETURNDATASIZE DUP1 PUSH0 DUP2 EQ PUSH2 0x26DA JUMPI PUSH1 0x40 MLOAD SWAP2 POP PUSH1 0x1F NOT PUSH1 0x3F RETURNDATASIZE ADD AND DUP3 ADD PUSH1 0x40 MSTORE RETURNDATASIZE DUP3 MSTORE RETURNDATASIZE PUSH0 PUSH1 0x20 DUP5 ADD RETURNDATACOPY PUSH2 0x26DF JUMP JUMPDEST PUSH1 0x60 SWAP2 POP JUMPDEST POP SWAP2 POP SWAP2 POP DUP2 PUSH2 0x2715 JUMPI DUP1 MLOAD ISZERO PUSH2 0x26F9 JUMPI DUP1 MLOAD DUP1 DUP3 PUSH1 0x20 ADD REVERT JUMPDEST PUSH1 0x40 MLOAD PUSH4 0x234EB819 PUSH1 0xE0 SHL DUP2 MSTORE PUSH1 0x4 DUP2 ADD DUP5 SWAP1 MSTORE PUSH1 0x24 ADD PUSH2 0x3F2 JUMP JUMPDEST DUP1 DUP5 DUP5 DUP2 MLOAD DUP2 LT PUSH2 0x2728 JUMPI PUSH2 0x2728 PUSH2 0x54D4 JUMP JUMPDEST PUSH1 0x20 SWAP1 DUP2 MUL SWAP2 SWAP1 SWAP2 ADD ADD MSTORE POP POP PUSH1 0x1 ADD PUSH2 0x2665 JUMP JUMPDEST PUSH1 0x1 PUSH1 0x1 PUSH1 0xA0 SHL SUB DUP2 AND PUSH0 SWAP1 DUP2 MSTORE PUSH1 0x4 PUSH1 0x20 MSTORE PUSH1 0x40 DUP2 KECCAK256 PUSH2 0xD5C SWAP1 PUSH2 0x4094 JUMP JUMPDEST PUSH2 0x2765 PUSH2 0x3B83 JUMP JUMPDEST PUSH2 0x276E PUSH0 PUSH2 0x409D JUMP JUMPDEST JUMP JUMPDEST PUSH2 0x2778 PUSH2 0x3B83 JUMP JUMPDEST PUSH0 DUP4 DUP2 MSTORE PUSH1 0x19 PUSH1 0x20 SWAP1 DUP2 MSTORE PUSH1 0x40 SWAP2 DUP3 SWAP1 KECCAK256 DUP3 MLOAD DUP1 DUP5 ADD SWAP1 SWAP4 MSTORE DUP1 SLOAD DUP1 DUP5 MSTORE PUSH1 0x1 SWAP1 SWAP2 ADD SLOAD PUSH1 0xFF AND SWAP2 DUP4 ADD SWAP2 SWAP1 SWAP2 MSTORE DUP4 SWAP1 DUP3 SWAP1 PUSH2 0x27B5 SWAP1 DUP4 SWAP1 PUSH2 0x545E JUMP JUMPDEST SWAP1 MSTORE POP PUSH1 0xFF DUP3 DUP2 AND PUSH1 0x20 DUP4 DUP2 ADD DUP3 DUP2 MSTORE PUSH0 DUP9 DUP2 MSTORE PUSH1 0x19 DUP4 MSTORE PUSH1 0x40 SWAP1 DUP2 SWAP1 KECCAK256 DUP7 MLOAD DUP2 SSTORE SWAP2 MLOAD PUSH1 0x1 SWAP1 SWAP3 ADD DUP1 SLOAD PUSH1 0xFF NOT AND SWAP3 SWAP1 SWAP6 AND SWAP2 SWAP1 SWAP2 OR SWAP1 SWAP4 SSTORE DUP3 MLOAD DUP8 DUP2 MSTORE SWAP1 DUP2 ADD DUP7 SWAP1 MSTORE SWAP2 DUP3 ADD MSTORE PUSH32 0x129E06F7590300E51F74F004B0BE10636D8D775EC7419A82351AB9D6D46FA7A5 SWAP1 PUSH1 0x60 ADD PUSH1 0x40 MLOAD DUP1 SWAP2 SUB SWAP1 LOG1 POP POP POP POP JUMP JUMPDEST DUP5 MLOAD DUP5 MLOAD DUP2 EQ ISZERO DUP1 PUSH2 0x2844 JUMPI POP DUP4 MLOAD DUP2 EQ ISZERO JUMPDEST DUP1 PUSH2 0x2850 JUMPI POP DUP3 MLOAD DUP2 EQ ISZERO JUMPDEST DUP1 PUSH2 0x285C JUMPI POP DUP2 MLOAD DUP2 EQ ISZERO JUMPDEST ISZERO PUSH2 0x287A JUMPI PUSH1 0x40 MLOAD PUSH4 0x93A83119 PUSH1 0xE0 SHL DUP2 MSTORE PUSH1 0x4 ADD PUSH1 0x40 MLOAD DUP1 SWAP2 SUB SWAP1 REVERT JUMPDEST PUSH0 JUMPDEST DUP2 DUP2 LT ISZERO PUSH2 0x2916 JUMPI PUSH2 0x290E DUP8 DUP3 DUP2 MLOAD DUP2 LT PUSH2 0x2899 JUMPI PUSH2 0x2899 PUSH2 0x54D4 JUMP JUMPDEST PUSH1 0x20 MUL PUSH1 0x20 ADD ADD MLOAD DUP8 DUP4 DUP2 MLOAD DUP2 LT PUSH2 0x28B3 JUMPI PUSH2 0x28B3 PUSH2 0x54D4 JUMP JUMPDEST PUSH1 0x20 MUL PUSH1 0x20 ADD ADD MLOAD DUP8 DUP5 DUP2 MLOAD DUP2 LT PUSH2 0x28CD JUMPI PUSH2 0x28CD PUSH2 0x54D4 JUMP JUMPDEST PUSH1 0x20 MUL PUSH1 0x20 ADD ADD MLOAD DUP8 DUP6 DUP2 MLOAD DUP2 LT PUSH2 0x28E7 JUMPI PUSH2 0x28E7 PUSH2 0x54D4 JUMP JUMPDEST PUSH1 0x20 MUL PUSH1 0x20 ADD ADD MLOAD DUP8 DUP7 DUP2 MLOAD DUP2 LT PUSH2 0x2901 JUMPI PUSH2 0x2901 PUSH2 0x54D4 JUMP JUMPDEST PUSH1 0x20 MUL PUSH1 0x20 ADD ADD MLOAD PUSH2 0x247C JUMP JUMPDEST PUSH1 0x1 ADD PUSH2 0x287C JUMP JUMPDEST POP POP POP POP POP POP POP JUMP JUMPDEST PUSH2 0x2927 PUSH2 0x3B83 JUMP JUMPDEST CALLVALUE ISZERO PUSH2 0x2946 JUMPI PUSH1 0x40 MLOAD PUSH4 0xF36BA737 PUSH1 0xE0 SHL DUP2 MSTORE PUSH1 0x4 ADD PUSH1 0x40 MLOAD DUP1 SWAP2 SUB SWAP1 REVERT JUMPDEST PUSH2 0x2950 DUP3 DUP3 PUSH2 0x4108 JUMP JUMPDEST POP POP JUMP JUMPDEST PUSH2 0x295C PUSH2 0x3B83 JUMP JUMPDEST PUSH1 0x40 MLOAD PUSH4 0x3B06CDDD PUSH1 0xE1 SHL DUP2 MSTORE PUSH1 0x1 PUSH1 0x1 PUSH1 0xA0 SHL SUB DUP7 AND SWAP1 PUSH4 0x760D9BBA SWAP1 PUSH2 0x2990 SWAP1 ADDRESS SWAP1 DUP9 SWAP1 DUP9 SWAP1 DUP9 SWAP1 DUP9 SWAP1 PUSH1 0x4 ADD PUSH2 0x560A JUMP JUMPDEST PUSH0 PUSH1 0x40 MLOAD DUP1 DUP4 SUB DUP2 PUSH0 DUP8 DUP1 EXTCODESIZE ISZERO DUP1 ISZERO PUSH2 0x29A7 JUMPI PUSH0 PUSH0 REVERT JUMPDEST POP GAS CALL ISZERO DUP1 ISZERO PUSH2 0x29B9 JUMPI RETURNDATASIZE PUSH0 PUSH0 RETURNDATACOPY RETURNDATASIZE PUSH0 REVERT JUMPDEST POP POP POP POP POP POP POP POP POP JUMP JUMPDEST PUSH2 0x29CC PUSH2 0x3B83 JUMP JUMPDEST PUSH1 0x15 SLOAD PUSH1 0xFF AND ISZERO PUSH2 0x2A15 JUMPI PUSH1 0x40 MLOAD PUSH3 0x461BCD PUSH1 0xE5 SHL DUP2 MSTORE PUSH1 0x20 PUSH1 0x4 DUP3 ADD MSTORE PUSH1 0x13 PUSH1 0x24 DUP3 ADD MSTORE PUSH19 0x105B1C9958591E481A5B9A5D1A585B1A5E9959 PUSH1 0x6A SHL PUSH1 0x44 DUP3 ADD MSTORE PUSH1 0x64 ADD PUSH2 0x3F2 JUMP JUMPDEST PUSH1 0x40 DUP1 MLOAD PUSH1 0xC0 DUP2 ADD DUP3 MSTORE PUSH1 0x4 PUSH1 0x80 DUP3 ADD SWAP1 DUP2 MSTORE PUSH4 0x72617265 PUSH1 0xE0 SHL PUSH1 0xA0 DUP4 ADD MSTORE DUP2 MSTORE PUSH1 0x2 PUSH1 0x20 DUP1 DUP4 ADD SWAP2 SWAP1 SWAP2 MSTORE PUSH10 0x152D02C7E14AF6800000 DUP3 DUP5 ADD MSTORE PUSH1 0x9 SLOAD PUSH1 0x1 PUSH1 0x1 PUSH1 0xA0 SHL SUB AND PUSH1 0x60 DUP4 ADD MSTORE DUP3 MLOAD DUP1 DUP5 ADD SWAP1 SWAP4 MSTORE PUSH1 0x6 DUP4 MSTORE PUSH6 0x706861736531 PUSH1 0xD0 SHL SWAP3 DUP2 ADD SWAP3 SWAP1 SWAP3 MSTORE PUSH32 0xC24CB111102D5AFFF3E7E3D2A419E43BFCFBD1644E722D97AE1DDE43689C692E PUSH0 MSTORE PUSH1 0x17 SWAP1 SWAP2 MSTORE DUP1 MLOAD PUSH32 0xA9AA1E8A189607E91597E27491857FBFC907EC595F9D9290325545157E276158 SWAP1 DUP2 SWAP1 PUSH2 0x2AD7 SWAP1 DUP3 PUSH2 0x5688 JUMP JUMPDEST POP PUSH1 0x20 DUP3 DUP2 ADD MLOAD PUSH1 0x1 DUP4 ADD SSTORE PUSH1 0x40 DUP1 DUP5 ADD MLOAD PUSH1 0x2 DUP1 DUP6 ADD SWAP2 SWAP1 SWAP2 SSTORE PUSH1 0x60 SWAP5 DUP6 ADD MLOAD PUSH1 0x3 SWAP1 SWAP5 ADD DUP1 SLOAD PUSH1 0x1 PUSH1 0x1 PUSH1 0xA0 SHL SUB NOT AND PUSH1 0x1 PUSH1 0x1 PUSH1 0xA0 SHL SUB SWAP6 DUP7 AND OR SWAP1 SSTORE DUP2 MLOAD PUSH1 0xC0 DUP2 ADD DUP4 MSTORE PUSH1 0x4 PUSH1 0x80 DUP3 ADD SWAP1 DUP2 MSTORE PUSH4 0x72617265 PUSH1 0xE0 SHL PUSH1 0xA0 DUP4 ADD MSTORE DUP2 MSTORE DUP1 DUP5 ADD SWAP2 SWAP1 SWAP2 MSTORE PUSH10 0x152D02C7E14AF6800000 DUP2 DUP4 ADD MSTORE PUSH1 0x9 SLOAD SWAP1 SWAP4 AND SWAP4 DUP4 ADD SWAP4 SWAP1 SWAP4 MSTORE DUP3 MLOAD DUP1 DUP5 ADD SWAP1 SWAP4 MSTORE PUSH1 0x6 DUP4 MSTORE PUSH6 0x383430B9B299 PUSH1 0xD1 SHL SWAP3 DUP2 ADD SWAP3 SWAP1 SWAP3 MSTORE PUSH32 0x31FF0D7509B9E31B70C2F6675EFCB36969AE2D4720759268C27A3C2D51C51BB8 PUSH0 MSTORE PUSH1 0x17 SWAP1 SWAP2 MSTORE DUP1 MLOAD PUSH32 0x2AAA4E2F7466E5EF9C5D95BFF4CB034A4C3D8B4E1E74B3E9921B58EEF6ACFA3C SWAP1 DUP2 SWAP1 PUSH2 0x2BCF SWAP1 DUP3 PUSH2 0x5688 JUMP JUMPDEST POP PUSH1 0x20 DUP3 DUP2 ADD MLOAD PUSH1 0x1 DUP4 ADD SSTORE PUSH1 0x40 DUP1 DUP5 ADD MLOAD PUSH1 0x2 DUP5 ADD SSTORE PUSH1 0x60 SWAP4 DUP5 ADD MLOAD PUSH1 0x3 SWAP1 SWAP4 ADD DUP1 SLOAD PUSH1 0x1 PUSH1 0x1 PUSH1 0xA0 SHL SUB NOT AND PUSH1 0x1 PUSH1 0x1 PUSH1 0xA0 SHL SUB SWAP1 SWAP5 AND SWAP4 SWAP1 SWAP4 OR SWAP1 SWAP3 SSTORE DUP2 MLOAD PUSH1 0xC0 DUP2 ADD DUP4 MSTORE PUSH1 0x6 PUSH1 0x80 DUP3 ADD DUP2 DUP2 MSTORE PUSH6 0x1B9BDC9B585B PUSH1 0xD2 SHL PUSH1 0xA0 DUP5 ADD MSTORE DUP3 MSTORE PUSH1 0x64 DUP3 DUP5 ADD MSTORE PUSH8 0x6F05B59D3B200000 DUP3 DUP6 ADD MSTORE PUSH0 SWAP5 DUP3 ADD DUP6 SWAP1 MSTORE DUP4 MLOAD DUP1 DUP6 ADD SWAP1 SWAP5 MSTORE DUP4 MSTORE PUSH6 0x706861736533 PUSH1 0xD0 SHL SWAP3 DUP3 ADD SWAP3 SWAP1 SWAP3 MSTORE PUSH32 0x937E1D94BC55FFEC9829015291A63BD3E70285CCC44E824A2122A581CECDCF1B SWAP1 SWAP3 MSTORE PUSH1 0x17 SWAP1 SWAP2 MSTORE DUP1 MLOAD PUSH32 0xA47A4634DE08D2D08FB56B3D6C50D18CFD4F4BFB89127F63AF8C8B5A73669892 SWAP1 DUP2 SWAP1 PUSH2 0x2CBF SWAP1 DUP3 PUSH2 0x5688 JUMP JUMPDEST POP PUSH1 0x20 DUP3 DUP2 ADD MLOAD PUSH1 0x1 DUP4 ADD SSTORE PUSH1 0x40 DUP1 DUP5 ADD MLOAD PUSH1 0x2 DUP5 ADD SSTORE PUSH1 0x60 SWAP4 DUP5 ADD MLOAD PUSH1 0x3 SWAP1 SWAP4 ADD DUP1 SLOAD PUSH1 0x1 PUSH1 0x1 PUSH1 0xA0 SHL SUB NOT AND PUSH1 0x1 PUSH1 0x1 PUSH1 0xA0 SHL SUB SWAP1 SWAP5 AND SWAP4 SWAP1 SWAP4 OR SWAP1 SWAP3 SSTORE DUP2 MLOAD PUSH1 0xC0 DUP2 ADD DUP4 MSTORE PUSH1 0x6 PUSH1 0x80 DUP3 ADD DUP2 DUP2 MSTORE PUSH6 0x1B9BDC9B585B PUSH1 0xD2 SHL PUSH1 0xA0 DUP5 ADD MSTORE DUP3 MSTORE PUSH2 0x3E8 DUP3 DUP5 ADD MSTORE PUSH8 0x8AC7230489E80000 DUP3 DUP6 ADD MSTORE PUSH0 SWAP5 DUP3 ADD DUP6 SWAP1 MSTORE DUP4 MLOAD DUP1 DUP6 ADD SWAP1 SWAP5 MSTORE DUP4 MSTORE PUSH6 0x1C1A185CD94D PUSH1 0xD2 SHL SWAP3 DUP3 ADD SWAP3 SWAP1 SWAP3 MSTORE PUSH32 0x4F02FF418B3AD3258827773457B6F51BF42CA59A1EDA9CAB03E6762A5C0CB47B SWAP1 SWAP3 MSTORE PUSH1 0x17 SWAP1 SWAP2 MSTORE DUP1 MLOAD PUSH32 0x814FCFF2C1C99D07F608F518B5C99B7A7D8D558A375C21C8A44B26E7FB5322AD SWAP1 DUP2 SWAP1 PUSH2 0x2DB0 SWAP1 DUP3 PUSH2 0x5688 JUMP JUMPDEST POP PUSH1 0x20 DUP3 DUP2 ADD MLOAD PUSH1 0x1 DUP4 DUP2 ADD SWAP2 SWAP1 SWAP2 SSTORE PUSH1 0x40 DUP1 DUP6 ADD MLOAD PUSH1 0x2 DUP6 ADD SSTORE PUSH1 0x60 SWAP1 SWAP5 ADD MLOAD PUSH1 0x3 SWAP1 SWAP4 ADD DUP1 SLOAD PUSH1 0x1 PUSH1 0x1 PUSH1 0xA0 SHL SUB NOT AND PUSH1 0x1 PUSH1 0x1 PUSH1 0xA0 SHL SUB SWAP1 SWAP5 AND SWAP4 SWAP1 SWAP4 OR SWAP1 SWAP3 SSTORE DUP3 MLOAD DUP1 DUP5 ADD SWAP1 SWAP4 MSTORE PUSH1 0x6 DUP4 MSTORE PUSH6 0x706861736531 PUSH1 0xD0 SHL SWAP3 DUP2 ADD SWAP3 SWAP1 SWAP3 MSTORE PUSH32 0xC24CB111102D5AFFF3E7E3D2A419E43BFCFBD1644E722D97AE1DDE43689C692E PUSH1 0x14 SSTORE PUSH1 0x1A SWAP1 SWAP2 MSTORE PUSH2 0x7D0 PUSH32 0xF88CD8D612926EBB404E40725C01084B6E9B3CE0344CDE068570342CBD448C61 SSTORE PUSH2 0x9C4 PUSH32 0x4C287B3E2C2CB129AE3BA596D613D760B15AFFDAC7242E12903C37A886EA1C4F SSTORE PUSH2 0xDAC PUSH32 0x4AC83FCA211703E3DDB90093CD219714E5E3715BF0B4FD15B0441390534A24E2 SSTORE PUSH2 0xFA0 PUSH32 0x6B28F262AD931A15C9E47271FC159A891B2BCB0DA2659CAC5BBFED4886CF26E SSTORE PUSH2 0x1388 PUSH32 0x82F07EDC09F3A46C1925D02252613A7FCC7BE7D03B538B0C268DF85F2F13A7AB DUP2 SWAP1 SSTORE PUSH32 0xE7513FCD4F864B78BAF560F46C15980B6AA41B90911EFC4CE7454B83CCE613B1 SSTORE PUSH2 0x61A8 PUSH32 0x2247382ACC746A936C6B9B694445E53B16CCCE9EBAA44DD1CE1D5F0641B0797B DUP2 SWAP1 SSTORE PUSH32 0x687151C9C7964C905D515053234445B7256D6EB52F0F0FB698AC00A08A410ABF SSTORE PUSH2 0xC350 PUSH32 0x3A9DCD6F76534B067931C1CC4A24CB9C117C7D95C716BCE6D59BB4825BC67133 SSTORE PUSH1 0xA PUSH0 MSTORE PUSH3 0x186A0 PUSH32 0xDBE7FF1220189DE7E6173DA9D377E212C5F94FD76A3505F188B6C362D3973D9D SSTORE PUSH1 0x15 DUP1 SLOAD PUSH1 0xFF NOT AND SWAP1 SWAP2 OR SWAP1 SSTORE JUMP JUMPDEST PUSH2 0x2FC6 PUSH2 0x3B83 JUMP JUMPDEST SELFBALANCE DUP1 PUSH2 0x3001 JUMPI PUSH1 0x40 MLOAD PUSH3 0x461BCD PUSH1 0xE5 SHL DUP2 MSTORE PUSH1 0x20 PUSH1 0x4 DUP3 ADD MSTORE PUSH1 0xA PUSH1 0x24 DUP3 ADD MSTORE PUSH10 0x4E6F2062616C616E6365 PUSH1 0xB0 SHL PUSH1 0x44 DUP3 ADD MSTORE PUSH1 0x64 ADD PUSH2 0x3F2 JUMP JUMPDEST PUSH0 DUP1 SLOAD PUSH1 0x40 MLOAD PUSH1 0x1 PUSH1 0x1 PUSH1 0xA0 SHL SUB SWAP1 SWAP2 AND SWAP1 DUP4 SWAP1 DUP4 DUP2 DUP2 DUP2 DUP6 DUP8 GAS CALL SWAP3 POP POP POP RETURNDATASIZE DUP1 PUSH0 DUP2 EQ PUSH2 0x304B JUMPI PUSH1 0x40 MLOAD SWAP2 POP PUSH1 0x1F NOT PUSH1 0x3F RETURNDATASIZE ADD AND DUP3 ADD PUSH1 0x40 MSTORE RETURNDATASIZE DUP3 MSTORE RETURNDATASIZE PUSH0 PUSH1 0x20 DUP5 ADD RETURNDATACOPY PUSH2 0x3050 JUMP JUMPDEST PUSH1 0x60 SWAP2 POP JUMPDEST POP POP SWAP1 POP DUP1 PUSH2 0x308A JUMPI PUSH1 0x40 MLOAD PUSH3 0x461BCD PUSH1 0xE5 SHL DUP2 MSTORE PUSH1 0x20 PUSH1 0x4 DUP3 ADD MSTORE PUSH1 0x6 PUSH1 0x24 DUP3 ADD MSTORE PUSH6 0x11985A5B1959 PUSH1 0xD2 SHL PUSH1 0x44 DUP3 ADD MSTORE PUSH1 0x64 ADD PUSH2 0x3F2 JUMP JUMPDEST PUSH0 SLOAD PUSH1 0x40 DUP1 MLOAD DUP5 DUP2 MSTORE TIMESTAMP PUSH1 0x20 DUP3 ADD MSTORE PUSH1 0x1 PUSH1 0x1 PUSH1 0xA0 SHL SUB SWAP1 SWAP3 AND SWAP2 PUSH32 0xDF273CB619D95419A9CD0EC88123A0538C85064229BAA6363788F743FFF90DEB SWAP2 ADD JUMPDEST PUSH1 0x40 MLOAD DUP1 SWAP2 SUB SWAP1 LOG2 POP POP JUMP JUMPDEST PUSH0 PUSH2 0x30DF DUP4 PUSH2 0x1C9B JUMP JUMPDEST SWAP1 POP PUSH1 0x1 PUSH1 0x1 PUSH1 0xA0 SHL SUB DUP2 AND CALLER EQ PUSH2 0x3122 JUMPI PUSH1 0x40 MLOAD PUSH4 0x2D938F51 PUSH1 0xE1 SHL DUP2 MSTORE PUSH1 0x1 PUSH1 0x1 PUSH1 0xA0 SHL SUB DUP3 AND PUSH1 0x4 DUP3 ADD MSTORE PUSH1 0x24 DUP2 ADD DUP5 SWAP1 MSTORE CALLER PUSH1 0x44 DUP3 ADD MSTORE PUSH1 0x64 ADD PUSH2 0x3F2 JUMP JUMPDEST PUSH1 0x1 PUSH1 0x1 PUSH1 0xA0 SHL SUB DUP5 AND PUSH2 0x3149 JUMPI PUSH1 0x40 MLOAD PUSH4 0x9577B8B3 PUSH1 0xE0 SHL DUP2 MSTORE PUSH1 0x4 ADD PUSH1 0x40 MLOAD DUP1 SWAP2 SUB SWAP1 REVERT JUMPDEST DUP4 PUSH1 0x1 PUSH1 0x1 PUSH1 0xA0 SHL SUB AND DUP2 PUSH1 0x1 PUSH1 0x1 PUSH1 0xA0 SHL SUB AND SUB PUSH2 0x317B JUMPI PUSH1 0x40 MLOAD PUSH4 0x44FED6B1 PUSH1 0xE1 SHL DUP2 MSTORE PUSH1 0x4 ADD PUSH1 0x40 MLOAD DUP1 SWAP2 SUB SWAP1 REVERT JUMPDEST PUSH0 DUP4 DUP2 MSTORE PUSH1 0x5 PUSH1 0x20 MSTORE PUSH1 0x40 DUP2 KECCAK256 PUSH2 0x3192 SWAP1 DUP7 PUSH2 0x4152 JUMP JUMPDEST SWAP1 POP DUP1 PUSH2 0x31C4 JUMPI PUSH1 0x40 MLOAD PUSH4 0x14EC4D6D PUSH1 0xE3 SHL DUP2 MSTORE PUSH1 0x1 PUSH1 0x1 PUSH1 0xA0 SHL SUB DUP7 AND PUSH1 0x4 DUP3 ADD MSTORE PUSH1 0x24 DUP2 ADD DUP6 SWAP1 MSTORE PUSH1 0x44 ADD PUSH2 0x3F2 JUMP JUMPDEST DUP4 DUP3 PUSH1 0x1 PUSH1 0x1 PUSH1 0xA0 SHL SUB AND DUP7 PUSH1 0x1 PUSH1 0x1 PUSH1 0xA0 SHL SUB AND PUSH32 0x1B1B58AA2EC0CEC2228B2D37124556D41F5A1F7B12F089171F896CC236671215 DUP7 PUSH1 0x40 MLOAD PUSH2 0x3208 SWAP2 SWAP1 PUSH2 0x498C JUMP JUMPDEST PUSH1 0x40 MLOAD DUP1 SWAP2 SUB SWAP1 LOG4 PUSH0 CALLER DUP6 PUSH1 0x1 DUP7 PUSH1 0x40 MLOAD PUSH1 0x20 ADD PUSH2 0x3229 SWAP5 SWAP4 SWAP3 SWAP2 SWAP1 PUSH2 0x5742 JUMP JUMPDEST PUSH1 0x40 MLOAD PUSH1 0x20 DUP2 DUP4 SUB SUB DUP2 MSTORE SWAP1 PUSH1 0x40 MSTORE SWAP1 POP PUSH2 0x3244 DUP7 DUP3 PUSH2 0x4166 JUMP JUMPDEST POP POP POP POP POP POP JUMP JUMPDEST PUSH2 0x3254 PUSH2 0x3B83 JUMP JUMPDEST PUSH1 0x16 DUP2 SWAP1 SSTORE PUSH1 0x40 MLOAD DUP2 DUP2 MSTORE PUSH32 0x816103AAC16CACFE1EBFFCBCAB87297D7AAD12D1AF1046D79A83AD3CC2607A52 SWAP1 PUSH1 0x20 ADD PUSH1 0x40 MLOAD DUP1 SWAP2 SUB SWAP1 LOG1 POP JUMP JUMPDEST PUSH2 0x3297 PUSH2 0x3B83 JUMP JUMPDEST CALLVALUE ISZERO PUSH2 0x32B6 JUMPI PUSH1 0x40 MLOAD PUSH4 0xF36BA737 PUSH1 0xE0 SHL DUP2 MSTORE PUSH1 0x4 ADD PUSH1 0x40 MLOAD DUP1 SWAP2 SUB SWAP1 REVERT JUMPDEST DUP1 MLOAD DUP3 MLOAD EQ PUSH2 0x32D8 JUMPI PUSH1 0x40 MLOAD PUSH4 0x3BCC8979 PUSH1 0xE0 SHL DUP2 MSTORE PUSH1 0x4 ADD PUSH1 0x40 MLOAD DUP1 SWAP2 SUB SWAP1 REVERT JUMPDEST DUP2 MLOAD PUSH0 SUB PUSH2 0x32F9 JUMPI PUSH1 0x40 MLOAD PUSH4 0x97DA5F95 PUSH1 0xE0 SHL DUP2 MSTORE PUSH1 0x4 ADD PUSH1 0x40 MLOAD DUP1 SWAP2 SUB SWAP1 REVERT JUMPDEST PUSH0 JUMPDEST DUP3 MLOAD DUP2 LT ISZERO PUSH2 0x3348 JUMPI PUSH2 0x3340 DUP4 DUP3 DUP2 MLOAD DUP2 LT PUSH2 0x3319 JUMPI PUSH2 0x3319 PUSH2 0x54D4 JUMP JUMPDEST PUSH1 0x20 MUL PUSH1 0x20 ADD ADD MLOAD DUP4 DUP4 DUP2 MLOAD DUP2 LT PUSH2 0x3333 JUMPI PUSH2 0x3333 PUSH2 0x54D4 JUMP JUMPDEST PUSH1 0x20 MUL PUSH1 0x20 ADD ADD MLOAD PUSH2 0x4108 JUMP JUMPDEST PUSH1 0x1 ADD PUSH2 0x32FB JUMP JUMPDEST POP POP POP JUMP JUMPDEST PUSH1 0x1 PUSH1 0x1 PUSH1 0xA0 SHL SUB DUP2 AND PUSH0 SWAP1 DUP2 MSTORE PUSH1 0x4 PUSH1 0x20 MSTORE PUSH1 0x40 SWAP1 KECCAK256 PUSH1 0x60 SWAP1 PUSH2 0xD5C SWAP1 PUSH2 0x3E0D JUMP JUMPDEST PUSH2 0x3378 PUSH2 0x3B83 JUMP JUMPDEST PUSH2 0x276E PUSH2 0x4191 JUMP JUMPDEST PUSH2 0x3388 PUSH2 0x3B83 JUMP JUMPDEST DUP2 MLOAD DUP4 MLOAD EQ ISZERO DUP1 PUSH2 0x339B JUMPI POP DUP1 MLOAD DUP3 MLOAD EQ ISZERO JUMPDEST ISZERO PUSH2 0x33B9 JUMPI PUSH1 0x40 MLOAD PUSH4 0x17D38EFF PUSH1 0xE1 SHL DUP2 MSTORE PUSH1 0x4 ADD PUSH1 0x40 MLOAD DUP1 SWAP2 SUB SWAP1 REVERT JUMPDEST DUP3 MLOAD PUSH0 SUB PUSH2 0x33DA JUMPI PUSH1 0x40 MLOAD PUSH4 0x80C98305 PUSH1 0xE0 SHL DUP2 MSTORE PUSH1 0x4 ADD PUSH1 0x40 MLOAD DUP1 SWAP2 SUB SWAP1 REVERT JUMPDEST PUSH0 JUMPDEST DUP4 MLOAD DUP2 LT ISZERO PUSH2 0x3443 JUMPI PUSH2 0x343B DUP5 DUP3 DUP2 MLOAD DUP2 LT PUSH2 0x33FA JUMPI PUSH2 0x33FA PUSH2 0x54D4 JUMP JUMPDEST PUSH1 0x20 MUL PUSH1 0x20 ADD ADD MLOAD DUP5 DUP4 DUP2 MLOAD DUP2 LT PUSH2 0x3414 JUMPI PUSH2 0x3414 PUSH2 0x54D4 JUMP JUMPDEST PUSH1 0x20 MUL PUSH1 0x20 ADD ADD MLOAD DUP5 DUP5 DUP2 MLOAD DUP2 LT PUSH2 0x342E JUMPI PUSH2 0x342E PUSH2 0x54D4 JUMP JUMPDEST PUSH1 0x20 MUL PUSH1 0x20 ADD ADD MLOAD PUSH2 0x3BBE JUMP JUMPDEST PUSH1 0x1 ADD PUSH2 0x33DC JUMP JUMPDEST POP POP POP POP JUMP JUMPDEST PUSH2 0x3451 PUSH2 0x3B83 JUMP JUMPDEST PUSH2 0x3348 DUP4 DUP4 DUP4 PUSH2 0x3BBE JUMP JUMPDEST PUSH2 0x3464 PUSH2 0x3B83 JUMP JUMPDEST PUSH1 0x40 DUP1 MLOAD PUSH1 0x80 DUP2 ADD DUP3 MSTORE DUP6 DUP2 MSTORE PUSH1 0x20 DUP1 DUP3 ADD DUP7 SWAP1 MSTORE DUP2 DUP4 ADD DUP6 SWAP1 MSTORE PUSH1 0x1 PUSH1 0x1 PUSH1 0xA0 SHL SUB DUP5 AND PUSH1 0x60 DUP4 ADD MSTORE PUSH0 DUP9 DUP2 MSTORE PUSH1 0x17 SWAP1 SWAP2 MSTORE SWAP2 SWAP1 SWAP2 KECCAK256 DUP2 MLOAD DUP2 SWAP1 PUSH2 0x34A9 SWAP1 DUP3 PUSH2 0x5688 JUMP JUMPDEST POP PUSH1 0x20 DUP3 ADD MLOAD PUSH1 0x1 DUP3 ADD SSTORE PUSH1 0x40 DUP1 DUP4 ADD MLOAD PUSH1 0x2 DUP4 ADD SSTORE PUSH1 0x60 SWAP1 SWAP3 ADD MLOAD PUSH1 0x3 SWAP1 SWAP2 ADD DUP1 SLOAD PUSH1 0x1 PUSH1 0x1 PUSH1 0xA0 SHL SUB NOT AND PUSH1 0x1 PUSH1 0x1 PUSH1 0xA0 SHL SUB SWAP1 SWAP3 AND SWAP2 SWAP1 SWAP2 OR SWAP1 SSTORE MLOAD DUP6 SWAP1 PUSH32 0x77C929EB8D84E64BD596235F9C891FDD7BFDAB5C78B3E9FFE8AB7D933B5815FB SWAP1 PUSH2 0x351D SWAP1 DUP8 SWAP1 DUP8 SWAP1 DUP8 SWAP1 DUP8 SWAP1 PUSH2 0x52D9 JUMP JUMPDEST PUSH1 0x40 MLOAD DUP1 SWAP2 SUB SWAP1 LOG2 POP POP POP POP POP JUMP JUMPDEST PUSH2 0x3534 PUSH2 0x3B83 JUMP JUMPDEST PUSH2 0x276E PUSH2 0x41E3 JUMP JUMPDEST PUSH1 0x17 PUSH1 0x20 MSTORE PUSH0 SWAP1 DUP2 MSTORE PUSH1 0x40 SWAP1 KECCAK256 DUP1 SLOAD DUP2 SWAP1 PUSH2 0x3556 SWAP1 PUSH2 0x5501 JUMP JUMPDEST DUP1 PUSH1 0x1F ADD PUSH1 0x20 DUP1 SWAP2 DIV MUL PUSH1 0x20 ADD PUSH1 0x40 MLOAD SWAP1 DUP2 ADD PUSH1 0x40 MSTORE DUP1 SWAP3 SWAP2 SWAP1 DUP2 DUP2 MSTORE PUSH1 0x20 ADD DUP3 DUP1 SLOAD PUSH2 0x3582 SWAP1 PUSH2 0x5501 JUMP JUMPDEST DUP1 ISZERO PUSH2 0x35CD JUMPI DUP1 PUSH1 0x1F LT PUSH2 0x35A4 JUMPI PUSH2 0x100 DUP1 DUP4 SLOAD DIV MUL DUP4 MSTORE SWAP2 PUSH1 0x20 ADD SWAP2 PUSH2 0x35CD JUMP JUMPDEST DUP3 ADD SWAP2 SWAP1 PUSH0 MSTORE PUSH1 0x20 PUSH0 KECCAK256 SWAP1 JUMPDEST DUP2 SLOAD DUP2 MSTORE SWAP1 PUSH1 0x1 ADD SWAP1 PUSH1 0x20 ADD DUP1 DUP4 GT PUSH2 0x35B0 JUMPI DUP3 SWAP1 SUB PUSH1 0x1F AND DUP3 ADD SWAP2 JUMPDEST POP POP POP POP PUSH1 0x1 DUP4 ADD SLOAD PUSH1 0x2 DUP5 ADD SLOAD PUSH1 0x3 SWAP1 SWAP5 ADD SLOAD SWAP3 SWAP4 SWAP1 SWAP3 SWAP1 SWAP2 POP PUSH1 0x1 PUSH1 0x1 PUSH1 0xA0 SHL SUB AND DUP5 JUMP JUMPDEST PUSH0 PUSH2 0x35FE DUP5 PUSH2 0x1C9B JUMP JUMPDEST SWAP1 POP CALLER PUSH1 0x1 PUSH1 0x1 PUSH1 0xA0 SHL SUB DUP3 AND EQ PUSH2 0x3651 JUMPI PUSH1 0x1 PUSH1 0x1 PUSH1 0xA0 SHL SUB DUP6 AND CALLER EQ PUSH2 0x3651 JUMPI PUSH1 0x40 MLOAD PUSH4 0x760B5ACD PUSH1 0xE0 SHL DUP2 MSTORE CALLER PUSH1 0x4 DUP3 ADD MSTORE PUSH1 0x1 PUSH1 0x1 PUSH1 0xA0 SHL SUB DUP3 AND PUSH1 0x24 DUP3 ADD MSTORE PUSH1 0x44 DUP2 ADD DUP6 SWAP1 MSTORE PUSH1 0x64 ADD PUSH2 0x3F2 JUMP JUMPDEST PUSH1 0x1 PUSH1 0x1 PUSH1 0xA0 SHL SUB DUP6 AND PUSH2 0x3678 JUMPI PUSH1 0x40 MLOAD PUSH4 0x9577B8B3 PUSH1 0xE0 SHL DUP2 MSTORE PUSH1 0x4 ADD PUSH1 0x40 MLOAD DUP1 SWAP2 SUB SWAP1 REVERT JUMPDEST DUP5 PUSH1 0x1 PUSH1 0x1 PUSH1 0xA0 SHL SUB AND DUP2 PUSH1 0x1 PUSH1 0x1 PUSH1 0xA0 SHL SUB AND SUB PUSH2 0x36AA JUMPI PUSH1 0x40 MLOAD PUSH4 0x44FED6B1 PUSH1 0xE1 SHL DUP2 MSTORE PUSH1 0x4 ADD PUSH1 0x40 MLOAD DUP1 SWAP2 SUB SWAP1 REVERT JUMPDEST PUSH2 0x36B7 DUP6 DUP3 DUP7 DUP7 DUP7 PUSH2 0x4220 JUMP JUMPDEST DUP3 ISZERO PUSH2 0x24B9 JUMPI PUSH0 DUP2 DUP6 PUSH0 DUP6 PUSH1 0x40 MLOAD PUSH1 0x20 ADD PUSH2 0x3229 SWAP5 SWAP4 SWAP3 SWAP2 SWAP1 PUSH2 0x5742 JUMP JUMPDEST PUSH1 0x60 DUP2 MLOAD PUSH1 0x1 PUSH1 0x1 PUSH1 0x40 SHL SUB DUP2 GT ISZERO PUSH2 0x36F0 JUMPI PUSH2 0x36F0 PUSH2 0x499E JUMP JUMPDEST PUSH1 0x40 MLOAD SWAP1 DUP1 DUP3 MSTORE DUP1 PUSH1 0x20 MUL PUSH1 0x20 ADD DUP3 ADD PUSH1 0x40 MSTORE DUP1 ISZERO PUSH2 0x3723 JUMPI DUP2 PUSH1 0x20 ADD JUMPDEST PUSH1 0x60 DUP2 MSTORE PUSH1 0x20 ADD SWAP1 PUSH1 0x1 SWAP1 SUB SWAP1 DUP2 PUSH2 0x370E JUMPI SWAP1 POP JUMPDEST POP SWAP1 POP PUSH0 JUMPDEST DUP3 MLOAD DUP2 LT ISZERO PUSH2 0x3778 JUMPI PUSH2 0x3753 DUP4 DUP3 DUP2 MLOAD DUP2 LT PUSH2 0x3746 JUMPI PUSH2 0x3746 PUSH2 0x54D4 JUMP JUMPDEST PUSH1 0x20 MUL PUSH1 0x20 ADD ADD MLOAD PUSH2 0x3FF5 JUMP JUMPDEST DUP3 DUP3 DUP2 MLOAD DUP2 LT PUSH2 0x3765 JUMPI PUSH2 0x3765 PUSH2 0x54D4 JUMP JUMPDEST PUSH1 0x20 SWAP1 DUP2 MUL SWAP2 SWAP1 SWAP2 ADD ADD MSTORE PUSH1 0x1 ADD PUSH2 0x3728 JUMP JUMPDEST POP SWAP2 SWAP1 POP JUMP JUMPDEST PUSH2 0x3786 PUSH2 0x3B83 JUMP JUMPDEST PUSH0 JUMPDEST DUP3 MLOAD DUP2 LT ISZERO PUSH2 0x3348 JUMPI PUSH0 DUP4 DUP3 DUP2 MLOAD DUP2 LT PUSH2 0x37A4 JUMPI PUSH2 0x37A4 PUSH2 0x54D4 JUMP JUMPDEST PUSH1 0x20 SWAP1 DUP2 MUL SWAP2 SWAP1 SWAP2 ADD ADD MLOAD SWAP1 POP DUP3 PUSH1 0x1 PUSH1 0x1 PUSH1 0xA0 SHL SUB DUP3 AND PUSH2 0x37D9 JUMPI PUSH1 0x40 MLOAD PUSH4 0xE6C4247B PUSH1 0xE0 SHL DUP2 MSTORE PUSH1 0x4 ADD PUSH1 0x40 MLOAD DUP1 SWAP2 SUB SWAP1 REVERT JUMPDEST PUSH1 0x1 PUSH1 0x1 PUSH1 0xA0 SHL SUB DUP3 AND PUSH0 DUP2 DUP2 MSTORE PUSH1 0x1C PUSH1 0x20 SWAP1 DUP2 MSTORE PUSH1 0x40 SWAP2 DUP3 SWAP1 KECCAK256 DUP1 SLOAD PUSH1 0xFF NOT AND PUSH1 0xFF DUP7 AND SWAP1 DUP2 OR SWAP1 SWAP2 SSTORE SWAP2 MLOAD SWAP2 DUP3 MSTORE PUSH32 0x7ED18AA59A2962897D3E7ED3DA887DFB6A03CCA6C3CFE8D74E55130F631791C8 SWAP2 ADD PUSH1 0x40 MLOAD DUP1 SWAP2 SUB SWAP1 LOG2 POP POP PUSH1 0x1 ADD PUSH2 0x3788 JUMP JUMPDEST PUSH2 0x3846 PUSH2 0x3B83 JUMP JUMPDEST PUSH1 0x1 PUSH1 0x1 PUSH1 0xA0 SHL SUB DUP2 AND PUSH2 0x386D JUMPI PUSH1 0x40 MLOAD PUSH4 0x6B620DB PUSH1 0xE2 SHL DUP2 MSTORE PUSH1 0x4 ADD PUSH1 0x40 MLOAD DUP1 SWAP2 SUB SWAP1 REVERT JUMPDEST PUSH2 0x3876 DUP2 PUSH2 0x409D JUMP JUMPDEST POP JUMP JUMPDEST PUSH0 DUP3 DUP2 MSTORE PUSH1 0x19 PUSH1 0x20 MSTORE PUSH1 0x40 DUP2 KECCAK256 PUSH1 0x1 DUP1 DUP3 ADD SLOAD SWAP2 SWAP3 SWAP2 PUSH2 0x389E SWAP2 PUSH1 0xFF SWAP1 SWAP2 AND SWAP1 PUSH2 0x556A JUMP JUMPDEST SWAP1 POP PUSH1 0xA DUP2 PUSH1 0xFF AND GT ISZERO PUSH2 0x38C5 JUMPI PUSH1 0x40 MLOAD PUSH4 0x921C7D5F PUSH1 0xE0 SHL DUP2 MSTORE PUSH1 0x4 ADD PUSH1 0x40 MLOAD DUP1 SWAP2 SUB SWAP1 REVERT JUMPDEST PUSH1 0xFF DUP2 AND PUSH0 SWAP1 DUP2 MSTORE PUSH1 0x1A PUSH1 0x20 MSTORE PUSH1 0x40 SWAP1 KECCAK256 SLOAD DUP3 SLOAD DUP2 DUP1 DUP3 LT ISZERO PUSH2 0x3904 JUMPI PUSH1 0x40 MLOAD PUSH4 0xDD100B93 PUSH1 0xE0 SHL DUP2 MSTORE PUSH1 0x4 DUP2 ADD SWAP3 SWAP1 SWAP3 MSTORE PUSH1 0x24 DUP3 ADD MSTORE PUSH1 0x44 ADD PUSH2 0x3F2 JUMP JUMPDEST POP POP PUSH1 0x9 SLOAD PUSH1 0x1 PUSH1 0x1 PUSH1 0xA0 SHL SUB AND PUSH4 0x760D9BBA CALLER ADDRESS DUP5 PUSH1 0x1 PUSH1 0x40 MLOAD DUP6 PUSH4 0xFFFFFFFF AND PUSH1 0xE0 SHL DUP2 MSTORE PUSH1 0x4 ADD PUSH2 0x393B SWAP5 SWAP4 SWAP3 SWAP2 SWAP1 PUSH2 0x5533 JUMP JUMPDEST PUSH0 PUSH1 0x40 MLOAD DUP1 DUP4 SUB DUP2 PUSH0 DUP8 DUP1 EXTCODESIZE ISZERO DUP1 ISZERO PUSH2 0x3952 JUMPI PUSH0 PUSH0 REVERT JUMPDEST POP GAS CALL ISZERO DUP1 ISZERO PUSH2 0x3964 JUMPI RETURNDATASIZE PUSH0 PUSH0 RETURNDATACOPY RETURNDATASIZE PUSH0 REVERT JUMPDEST POP POP POP POP PUSH2 0x3995 DUP6 PUSH32 0x9AFB95CACC9F95858EC44AA8C3B685511002E30AE54415823F406128B85B238E PUSH0 SHL DUP7 PUSH2 0x3BBE JUMP JUMPDEST DUP1 DUP4 PUSH0 ADD PUSH0 DUP3 DUP3 SLOAD PUSH2 0x39A7 SWAP2 SWAP1 PUSH2 0x577A JUMP JUMPDEST SWAP1 SWAP2 SSTORE POP POP POP PUSH1 0x1 SWAP2 SWAP1 SWAP2 ADD DUP1 SLOAD PUSH1 0xFF NOT AND PUSH1 0xFF SWAP1 SWAP3 AND SWAP2 SWAP1 SWAP2 OR SWAP1 SSTORE POP POP JUMP JUMPDEST PUSH0 DUP1 DUP1 PUSH2 0x39EC PUSH10 0x6773C5A04A6D4300884B PUSH1 0xB1 SHL PUSH1 0x1 PUSH1 0x1 PUSH1 0xE0 SHL SUB NOT DUP7 AND PUSH2 0x42BF JUMP JUMPDEST SWAP1 POP PUSH0 PUSH2 0x39F8 DUP3 PUSH2 0x3FF5 JUMP JUMPDEST SWAP1 POP DUP1 MLOAD PUSH1 0x14 EQ ISZERO DUP1 ISZERO PUSH2 0x3A0C JUMPI POP DUP1 MLOAD ISZERO ISZERO JUMPDEST ISZERO PUSH2 0x3A2C JUMPI DUP1 PUSH1 0x40 MLOAD PUSH4 0x42BFE79F PUSH1 0xE0 SHL DUP2 MSTORE PUSH1 0x4 ADD PUSH2 0x3F2 SWAP2 SWAP1 PUSH2 0x498C JUMP JUMPDEST PUSH2 0x3A35 DUP2 PUSH2 0x578D JUMP JUMPDEST PUSH1 0x60 SHR SWAP6 PUSH1 0x1 SWAP6 POP SWAP4 POP POP POP POP JUMP JUMPDEST PUSH0 PUSH1 0x1 PUSH1 0x1 PUSH1 0xE0 SHL SUB NOT DUP3 AND PUSH4 0xA918FA6B PUSH1 0xE0 SHL EQ DUP1 PUSH2 0xD5C JUMPI POP PUSH2 0xD5C DUP3 PUSH2 0x4312 JUMP JUMPDEST PUSH0 DUP1 PUSH2 0x3A7A PUSH4 0x1FFC9A7 PUSH1 0xE0 SHL PUSH2 0x39C8 JUMP JUMPDEST POP SWAP1 POP PUSH1 0x1 PUSH1 0x1 PUSH1 0xA0 SHL SUB DUP2 AND PUSH2 0x3A93 JUMPI POP PUSH0 SWAP3 SWAP2 POP POP JUMP JUMPDEST PUSH2 0x1BAE DUP2 DUP5 PUSH2 0x4346 JUMP JUMPDEST PUSH0 DUP3 DUP2 MSTORE PUSH1 0x6 PUSH1 0x20 SWAP1 DUP2 MSTORE PUSH1 0x40 DUP1 DUP4 KECCAK256 DUP5 DUP5 MSTORE SWAP1 SWAP2 MSTORE SWAP1 KECCAK256 DUP1 SLOAD PUSH1 0x60 SWAP2 SWAP1 PUSH2 0x3AC4 SWAP1 PUSH2 0x5501 JUMP JUMPDEST DUP1 PUSH1 0x1F ADD PUSH1 0x20 DUP1 SWAP2 DIV MUL PUSH1 0x20 ADD PUSH1 0x40 MLOAD SWAP1 DUP2 ADD PUSH1 0x40 MSTORE DUP1 SWAP3 SWAP2 SWAP1 DUP2 DUP2 MSTORE PUSH1 0x20 ADD DUP3 DUP1 SLOAD PUSH2 0x3AF0 SWAP1 PUSH2 0x5501 JUMP JUMPDEST DUP1 ISZERO PUSH2 0x3B3B JUMPI DUP1 PUSH1 0x1F LT PUSH2 0x3B12 JUMPI PUSH2 0x100 DUP1 DUP4 SLOAD DIV MUL DUP4 MSTORE SWAP2 PUSH1 0x20 ADD SWAP2 PUSH2 0x3B3B JUMP JUMPDEST DUP3 ADD SWAP2 SWAP1 PUSH0 MSTORE PUSH1 0x20 PUSH0 KECCAK256 SWAP1 JUMPDEST DUP2 SLOAD DUP2 MSTORE SWAP1 PUSH1 0x1 ADD SWAP1 PUSH1 0x20 ADD DUP1 DUP4 GT PUSH2 0x3B1E JUMPI DUP3 SWAP1 SUB PUSH1 0x1F AND DUP3 ADD SWAP2 JUMPDEST POP POP POP POP POP SWAP1 POP SWAP3 SWAP2 POP POP JUMP JUMPDEST PUSH0 PUSH2 0x3B52 DUP3 PUSH2 0x1C9B JUMP JUMPDEST PUSH1 0x1 PUSH1 0x1 PUSH1 0xA0 SHL SUB AND DUP4 PUSH1 0x1 PUSH1 0x1 PUSH1 0xA0 SHL SUB AND EQ DUP1 PUSH2 0x1BAE JUMPI POP PUSH0 DUP3 DUP2 MSTORE PUSH1 0x5 PUSH1 0x20 MSTORE PUSH1 0x40 SWAP1 KECCAK256 PUSH2 0x1BAE SWAP1 DUP5 PUSH2 0x43CC JUMP JUMPDEST CALLER PUSH2 0x3B95 PUSH0 SLOAD PUSH1 0x1 PUSH1 0x1 PUSH1 0xA0 SHL SUB AND SWAP1 JUMP JUMPDEST PUSH1 0x1 PUSH1 0x1 PUSH1 0xA0 SHL SUB AND EQ PUSH2 0x276E JUMPI PUSH1 0x40 MLOAD PUSH4 0xBF1169C5 PUSH1 0xE0 SHL DUP2 MSTORE CALLER PUSH1 0x4 DUP3 ADD MSTORE PUSH1 0x24 ADD PUSH2 0x3F2 JUMP JUMPDEST PUSH0 DUP4 DUP2 MSTORE PUSH1 0x6 PUSH1 0x20 SWAP1 DUP2 MSTORE PUSH1 0x40 DUP1 DUP4 KECCAK256 DUP6 DUP5 MSTORE SWAP1 SWAP2 MSTORE SWAP1 KECCAK256 PUSH2 0x3BE0 DUP3 DUP3 PUSH2 0x5688 JUMP JUMPDEST POP DUP2 DUP4 PUSH32 0xA6E4251F855F750545FE414F120DB91C76B88DEF14D120969E5BB2D3F05DEBBB DUP4 PUSH1 0x40 MLOAD PUSH2 0x3C12 SWAP2 SWAP1 PUSH2 0x498C JUMP JUMPDEST PUSH1 0x40 MLOAD DUP1 SWAP2 SUB SWAP1 LOG3 POP POP POP JUMP JUMPDEST PUSH1 0x2 PUSH1 0x8 SLOAD SUB PUSH2 0x3C42 JUMPI PUSH1 0x40 MLOAD PUSH4 0x3EE5AEB5 PUSH1 0xE0 SHL DUP2 MSTORE PUSH1 0x4 ADD PUSH1 0x40 MLOAD DUP1 SWAP2 SUB SWAP1 REVERT JUMPDEST PUSH1 0x2 PUSH1 0x8 SSTORE JUMP JUMPDEST PUSH1 0x7 SLOAD PUSH1 0xFF AND ISZERO PUSH2 0x276E JUMPI PUSH1 0x40 MLOAD PUSH4 0xD93C0665 PUSH1 0xE0 SHL DUP2 MSTORE PUSH1 0x4 ADD PUSH1 0x40 MLOAD DUP1 SWAP2 SUB SWAP1 REVERT JUMPDEST PUSH1 0x1 PUSH1 0x1 PUSH1 0xA0 SHL SUB DUP5 AND PUSH2 0x3C94 JUMPI PUSH1 0x40 MLOAD PUSH4 0x24ECEF4D PUSH1 0xE0 SHL DUP2 MSTORE PUSH1 0x4 ADD PUSH1 0x40 MLOAD DUP1 SWAP2 SUB SWAP1 REVERT JUMPDEST PUSH0 DUP4 DUP2 MSTORE PUSH1 0x3 PUSH1 0x20 MSTORE PUSH1 0x40 SWAP1 KECCAK256 SLOAD PUSH1 0x1 PUSH1 0x1 PUSH1 0xA0 SHL SUB AND ISZERO PUSH2 0x3CCC JUMPI PUSH1 0x40 MLOAD PUSH4 0x34C7B511 PUSH1 0xE0 SHL DUP2 MSTORE PUSH1 0x4 DUP2 ADD DUP5 SWAP1 MSTORE PUSH1 0x24 ADD PUSH2 0x3F2 JUMP JUMPDEST PUSH0 DUP4 DUP2 MSTORE PUSH1 0x3 PUSH1 0x20 MSTORE PUSH1 0x40 SWAP1 KECCAK256 SLOAD PUSH1 0x1 PUSH1 0x1 PUSH1 0xA0 SHL SUB AND ISZERO PUSH2 0x3D04 JUMPI PUSH1 0x40 MLOAD PUSH4 0x34C7B511 PUSH1 0xE0 SHL DUP2 MSTORE PUSH1 0x4 DUP2 ADD DUP5 SWAP1 MSTORE PUSH1 0x24 ADD PUSH2 0x3F2 JUMP JUMPDEST PUSH1 0x2 PUSH0 DUP2 SLOAD PUSH2 0x3D12 SWAP1 PUSH2 0x57DB JUMP JUMPDEST SWAP1 SWAP2 SSTORE POP PUSH1 0x1 PUSH1 0x1 PUSH1 0xA0 SHL SUB DUP5 AND PUSH0 SWAP1 DUP2 MSTORE PUSH1 0x4 PUSH1 0x20 MSTORE PUSH1 0x40 SWAP1 KECCAK256 PUSH2 0x3D37 SWAP1 DUP5 PUSH2 0x43ED JUMP JUMPDEST POP PUSH0 DUP4 DUP2 MSTORE PUSH1 0x3 PUSH1 0x20 MSTORE PUSH1 0x40 DUP1 DUP3 KECCAK256 DUP1 SLOAD PUSH1 0x1 PUSH1 0x1 PUSH1 0xA0 SHL SUB NOT AND PUSH1 0x1 PUSH1 0x1 PUSH1 0xA0 SHL SUB DUP9 AND SWAP1 DUP2 OR SWAP1 SWAP2 SSTORE SWAP1 MLOAD DUP6 SWAP3 SWAP1 PUSH32 0xB333C813A7426A7A11E2B190CAD52C44119421594B47F6F32ACE6D8C7207B2BF SWAP1 PUSH2 0x3D98 SWAP1 CALLER SWAP1 DUP9 SWAP1 DUP9 SWAP1 PUSH2 0x57F3 JUMP JUMPDEST PUSH1 0x40 MLOAD DUP1 SWAP2 SUB SWAP1 LOG4 PUSH0 CALLER PUSH0 DUP7 DUP7 DUP6 PUSH1 0x40 MLOAD PUSH1 0x20 ADD PUSH2 0x3DBA SWAP6 SWAP5 SWAP4 SWAP3 SWAP2 SWAP1 PUSH2 0x581E JUMP JUMPDEST PUSH1 0x40 MLOAD PUSH1 0x20 DUP2 DUP4 SUB SUB DUP2 MSTORE SWAP1 PUSH1 0x40 MSTORE SWAP1 POP PUSH2 0x24B9 DUP6 DUP5 DUP4 PUSH2 0x43F8 JUMP JUMPDEST PUSH0 DUP2 DUP2 MSTORE PUSH1 0x3 PUSH1 0x20 MSTORE PUSH1 0x40 SWAP1 KECCAK256 SLOAD PUSH1 0x1 PUSH1 0x1 PUSH1 0xA0 SHL SUB AND PUSH2 0x3876 JUMPI PUSH1 0x40 MLOAD PUSH4 0x5747CD1B PUSH1 0xE1 SHL DUP2 MSTORE PUSH1 0x4 DUP2 ADD DUP3 SWAP1 MSTORE PUSH1 0x24 ADD PUSH2 0x3F2 JUMP JUMPDEST PUSH1 0x60 PUSH0 PUSH2 0x1BAE DUP4 PUSH2 0x44FB JUMP JUMPDEST PUSH0 PUSH2 0x3E23 DUP5 PUSH2 0x1C9B JUMP JUMPDEST SWAP1 POP DUP6 PUSH1 0x1 PUSH1 0x1 PUSH1 0xA0 SHL SUB AND DUP2 PUSH1 0x1 PUSH1 0x1 PUSH1 0xA0 SHL SUB AND EQ PUSH2 0x3E71 JUMPI PUSH1 0x40 MLOAD PUSH4 0x2D938F51 PUSH1 0xE1 SHL DUP2 MSTORE PUSH1 0x1 PUSH1 0x1 PUSH1 0xA0 SHL SUB DUP1 DUP4 AND PUSH1 0x4 DUP4 ADD MSTORE PUSH1 0x24 DUP3 ADD DUP7 SWAP1 MSTORE DUP8 AND PUSH1 0x44 DUP3 ADD MSTORE PUSH1 0x64 ADD PUSH2 0x3F2 JUMP JUMPDEST PUSH1 0x1 PUSH1 0x1 PUSH1 0xA0 SHL SUB DUP6 AND PUSH2 0x3E98 JUMPI PUSH1 0x40 MLOAD PUSH4 0x24ECEF4D PUSH1 0xE0 SHL DUP2 MSTORE PUSH1 0x4 ADD PUSH1 0x40 MLOAD DUP1 SWAP2 SUB SWAP1 REVERT JUMPDEST PUSH0 PUSH2 0x3EA2 DUP6 PUSH2 0x1C9B JUMP JUMPDEST SWAP1 POP DUP1 PUSH1 0x1 PUSH1 0x1 PUSH1 0xA0 SHL SUB AND DUP3 PUSH1 0x1 PUSH1 0x1 PUSH1 0xA0 SHL SUB AND EQ PUSH2 0x3EF0 JUMPI PUSH1 0x40 MLOAD PUSH4 0x5A9C31D3 PUSH1 0xE0 SHL DUP2 MSTORE PUSH1 0x4 DUP2 ADD DUP7 SWAP1 MSTORE PUSH1 0x1 PUSH1 0x1 PUSH1 0xA0 SHL SUB DUP1 DUP5 AND PUSH1 0x24 DUP4 ADD MSTORE DUP3 AND PUSH1 0x44 DUP3 ADD MSTORE PUSH1 0x64 ADD PUSH2 0x3F2 JUMP JUMPDEST PUSH2 0x3EFA DUP8 DUP7 PUSH2 0x4553 JUMP JUMPDEST PUSH1 0x1 PUSH1 0x1 PUSH1 0xA0 SHL SUB DUP8 AND PUSH0 SWAP1 DUP2 MSTORE PUSH1 0x4 PUSH1 0x20 MSTORE PUSH1 0x40 SWAP1 KECCAK256 PUSH2 0x3F1B SWAP1 DUP7 PUSH2 0x45A6 JUMP JUMPDEST POP PUSH1 0x1 PUSH1 0x1 PUSH1 0xA0 SHL SUB DUP7 AND PUSH0 SWAP1 DUP2 MSTORE PUSH1 0x4 PUSH1 0x20 MSTORE PUSH1 0x40 SWAP1 KECCAK256 PUSH2 0x3F3D SWAP1 DUP7 PUSH2 0x43ED JUMP JUMPDEST POP PUSH0 DUP6 DUP2 MSTORE PUSH1 0x3 PUSH1 0x20 MSTORE PUSH1 0x40 SWAP1 DUP2 SWAP1 KECCAK256 DUP1 SLOAD PUSH1 0x1 PUSH1 0x1 PUSH1 0xA0 SHL SUB NOT AND PUSH1 0x1 PUSH1 0x1 PUSH1 0xA0 SHL SUB DUP10 DUP2 AND SWAP2 DUP3 OR SWAP1 SWAP3 SSTORE SWAP2 MLOAD DUP8 SWAP3 SWAP2 DUP11 AND SWAP1 PUSH32 0xB333C813A7426A7A11E2B190CAD52C44119421594B47F6F32ACE6D8C7207B2BF SWAP1 PUSH2 0x3FA3 SWAP1 CALLER SWAP1 DUP11 SWAP1 DUP11 SWAP1 PUSH2 0x57F3 JUMP JUMPDEST PUSH1 0x40 MLOAD DUP1 SWAP2 SUB SWAP1 LOG4 PUSH0 CALLER DUP9 DUP9 DUP9 DUP8 PUSH1 0x40 MLOAD PUSH1 0x20 ADD PUSH2 0x3FC5 SWAP6 SWAP5 SWAP4 SWAP3 SWAP2 SWAP1 PUSH2 0x581E JUMP JUMPDEST PUSH1 0x40 MLOAD PUSH1 0x20 DUP2 DUP4 SUB SUB DUP2 MSTORE SWAP1 PUSH1 0x40 MSTORE SWAP1 POP PUSH2 0x3FE0 DUP9 DUP3 PUSH2 0x45B1 JUMP JUMPDEST PUSH2 0x3FEB DUP8 DUP7 DUP4 PUSH2 0x43F8 JUMP JUMPDEST POP POP POP POP POP POP POP POP JUMP JUMPDEST PUSH0 DUP2 DUP2 MSTORE PUSH1 0x1 PUSH1 0x20 MSTORE PUSH1 0x40 SWAP1 KECCAK256 DUP1 SLOAD PUSH1 0x60 SWAP2 SWAP1 PUSH2 0x4011 SWAP1 PUSH2 0x5501 JUMP JUMPDEST DUP1 PUSH1 0x1F ADD PUSH1 0x20 DUP1 SWAP2 DIV MUL PUSH1 0x20 ADD PUSH1 0x40 MLOAD SWAP1 DUP2 ADD PUSH1 0x40 MSTORE DUP1 SWAP3 SWAP2 SWAP1 DUP2 DUP2 MSTORE PUSH1 0x20 ADD DUP3 DUP1 SLOAD PUSH2 0x403D SWAP1 PUSH2 0x5501 JUMP JUMPDEST DUP1 ISZERO PUSH2 0x4088 JUMPI DUP1 PUSH1 0x1F LT PUSH2 0x405F JUMPI PUSH2 0x100 DUP1 DUP4 SLOAD DIV MUL DUP4 MSTORE SWAP2 PUSH1 0x20 ADD SWAP2 PUSH2 0x4088 JUMP JUMPDEST DUP3 ADD SWAP2 SWAP1 PUSH0 MSTORE PUSH1 0x20 PUSH0 KECCAK256 SWAP1 JUMPDEST DUP2 SLOAD DUP2 MSTORE SWAP1 PUSH1 0x1 ADD SWAP1 PUSH1 0x20 ADD DUP1 DUP4 GT PUSH2 0x406B JUMPI DUP3 SWAP1 SUB PUSH1 0x1F AND DUP3 ADD SWAP2 JUMPDEST POP POP POP POP POP SWAP1 POP SWAP2 SWAP1 POP JUMP JUMPDEST PUSH0 PUSH2 0xD5C DUP3 SLOAD SWAP1 JUMP JUMPDEST PUSH0 SLOAD PUSH1 0x1 PUSH1 0x1 PUSH1 0xA0 SHL SUB DUP3 DUP2 AND SWAP2 AND EQ PUSH2 0x3876 JUMPI PUSH0 DUP1 SLOAD PUSH1 0x40 MLOAD PUSH1 0x1 PUSH1 0x1 PUSH1 0xA0 SHL SUB DUP1 DUP6 AND SWAP4 SWAP3 AND SWAP2 PUSH32 0x8BE0079C531659141344CD1FD0A4F28419497F9722A3DAAFE3B4186F6B6457E0 SWAP2 LOG3 PUSH0 DUP1 SLOAD PUSH1 0x1 PUSH1 0x1 PUSH1 0xA0 SHL SUB DUP4 AND PUSH1 0x1 PUSH1 0x1 PUSH1 0xA0 SHL SUB NOT SWAP1 SWAP2 AND OR SWAP1 SSTORE POP JUMP JUMPDEST PUSH32 0x98A16C9E50E3E99B3E797305C146898D294E5AEC55A47E213CB3611CCF17E73 DUP3 ADD PUSH2 0x4148 JUMPI PUSH1 0x40 MLOAD PUSH4 0x1B324005 PUSH1 0xE1 SHL DUP2 MSTORE PUSH1 0x4 ADD PUSH1 0x40 MLOAD DUP1 SWAP2 SUB SWAP1 REVERT JUMPDEST PUSH2 0x2950 DUP3 DUP3 PUSH2 0x45DC JUMP JUMPDEST PUSH0 PUSH2 0x1BAE DUP4 PUSH1 0x1 PUSH1 0x1 PUSH1 0xA0 SHL SUB DUP5 AND PUSH2 0x45E6 JUMP JUMPDEST PUSH2 0x2950 DUP3 PUSH32 0x8A1C15A8799F71B547E08E2BCB2E85257E81B0A07EEE2CE6712549EEF1F00970 DUP4 PUSH2 0x4632 JUMP JUMPDEST PUSH2 0x4199 PUSH2 0x467F JUMP JUMPDEST PUSH1 0x7 DUP1 SLOAD PUSH1 0xFF NOT AND SWAP1 SSTORE PUSH32 0x5DB9EE0A495BF2E6FF9C91A7834C1BA4FDD244A5E8AA4E537BD38AEAE4B073AA CALLER JUMPDEST PUSH1 0x40 MLOAD PUSH1 0x1 PUSH1 0x1 PUSH1 0xA0 SHL SUB SWAP1 SWAP2 AND DUP2 MSTORE PUSH1 0x20 ADD PUSH1 0x40 MLOAD DUP1 SWAP2 SUB SWAP1 LOG1 JUMP JUMPDEST PUSH2 0x41EB PUSH2 0x3C49 JUMP JUMPDEST PUSH1 0x7 DUP1 SLOAD PUSH1 0xFF NOT AND PUSH1 0x1 OR SWAP1 SSTORE PUSH32 0x62E78CEA01BEE320CD4E420270B5EA74000D11B0C9F74754EBDBFC544B05A258 PUSH2 0x41C6 CALLER SWAP1 JUMP JUMPDEST PUSH0 DUP4 DUP2 MSTORE PUSH1 0x5 PUSH1 0x20 MSTORE PUSH1 0x40 DUP2 KECCAK256 PUSH2 0x4237 SWAP1 DUP8 PUSH2 0x46A2 JUMP JUMPDEST SWAP1 POP DUP1 PUSH2 0x4269 JUMPI PUSH1 0x40 MLOAD PUSH4 0x12A8C6A3 PUSH1 0xE2 SHL DUP2 MSTORE PUSH1 0x1 PUSH1 0x1 PUSH1 0xA0 SHL SUB DUP8 AND PUSH1 0x4 DUP3 ADD MSTORE PUSH1 0x24 DUP2 ADD DUP6 SWAP1 MSTORE PUSH1 0x44 ADD PUSH2 0x3F2 JUMP JUMPDEST DUP4 DUP6 PUSH1 0x1 PUSH1 0x1 PUSH1 0xA0 SHL SUB AND DUP8 PUSH1 0x1 PUSH1 0x1 PUSH1 0xA0 SHL SUB AND PUSH32 0xC78CD419D6136F9F1C1C6AEC1D3FAE098CFFAF8BC86314A8F2685E32FE574E3C DUP7 DUP7 PUSH1 0x40 MLOAD PUSH2 0x42AF SWAP3 SWAP2 SWAP1 PUSH2 0x5858 JUMP JUMPDEST PUSH1 0x40 MLOAD DUP1 SWAP2 SUB SWAP1 LOG4 POP POP POP POP POP POP JUMP JUMPDEST PUSH1 0x40 DUP1 MLOAD PUSH1 0x1 PUSH1 0x1 PUSH1 0xB0 SHL SUB NOT DUP5 AND PUSH1 0x20 DUP3 ADD MSTORE PUSH0 PUSH1 0x2A DUP3 ADD DUP2 SWAP1 MSTORE PUSH1 0x1 PUSH1 0x1 PUSH1 0x60 SHL SUB NOT DUP5 AND PUSH1 0x2C DUP4 ADD MSTORE SWAP2 DUP3 SWAP2 ADD PUSH1 0x40 MLOAD PUSH1 0x20 DUP2 DUP4 SUB SUB DUP2 MSTORE SWAP1 PUSH1 0x40 MSTORE SWAP1 POP DUP1 PUSH2 0x430A SWAP1 PUSH2 0x5872 JUMP JUMPDEST SWAP5 SWAP4 POP POP POP POP JUMP JUMPDEST PUSH0 PUSH1 0x1 PUSH1 0x1 PUSH1 0xE0 SHL SUB NOT DUP3 AND PUSH4 0x18A6A9A5 PUSH1 0xE2 SHL EQ DUP1 PUSH2 0xD5C JUMPI POP PUSH4 0x1FFC9A7 PUSH1 0xE0 SHL PUSH1 0x1 PUSH1 0x1 PUSH1 0xE0 SHL SUB NOT DUP4 AND EQ PUSH2 0xD5C JUMP JUMPDEST PUSH1 0x40 MLOAD PUSH1 0x1 PUSH1 0x1 PUSH1 0xE0 SHL SUB NOT DUP3 AND PUSH1 0x24 DUP3 ADD MSTORE PUSH0 SWAP1 DUP2 SWAP1 PUSH1 0x44 ADD PUSH1 0x40 DUP1 MLOAD PUSH1 0x1F NOT DUP2 DUP5 SUB ADD DUP2 MSTORE SWAP2 SWAP1 MSTORE PUSH1 0x20 DUP1 DUP3 ADD DUP1 MLOAD PUSH1 0x1 PUSH1 0x1 PUSH1 0xE0 SHL SUB AND PUSH4 0x1FFC9A7 PUSH1 0xE0 SHL OR DUP2 MSTORE DUP3 MLOAD SWAP3 SWAP4 POP PUSH0 SWAP3 DUP4 SWAP3 DUP4 SWAP3 SWAP1 SWAP2 DUP4 SWAP2 DUP11 PUSH2 0x7530 STATICCALL SWAP3 POP RETURNDATASIZE SWAP2 POP PUSH0 MLOAD SWAP1 POP DUP3 DUP1 ISZERO PUSH2 0x43B6 JUMPI POP PUSH1 0x20 DUP3 LT ISZERO JUMPDEST DUP1 ISZERO PUSH2 0x43C1 JUMPI POP PUSH0 DUP2 GT JUMPDEST SWAP8 SWAP7 POP POP POP POP POP POP POP JUMP JUMPDEST PUSH1 0x1 PUSH1 0x1 PUSH1 0xA0 SHL SUB DUP2 AND PUSH0 SWAP1 DUP2 MSTORE PUSH1 0x1 DUP4 ADD PUSH1 0x20 MSTORE PUSH1 0x40 DUP2 KECCAK256 SLOAD ISZERO ISZERO PUSH2 0x1BAE JUMP JUMPDEST PUSH0 PUSH2 0x1BAE DUP4 DUP4 PUSH2 0x45E6 JUMP JUMPDEST PUSH2 0x4409 DUP4 PUSH4 0x1AED5A85 PUSH1 0xE2 SHL PUSH2 0x4346 JUMP JUMPDEST ISZERO PUSH2 0x449E JUMPI PUSH1 0x40 MLOAD PUSH4 0x1AED5A85 PUSH1 0xE2 SHL DUP2 MSTORE PUSH1 0x1 PUSH1 0x1 PUSH1 0xA0 SHL SUB DUP5 AND SWAP1 PUSH4 0x6BB56A14 SWAP1 PUSH2 0x445C SWAP1 PUSH32 0xB084A55EBF70FD3C06FD755269DAC2212C4D3F0F4D09079780BFA50C1B2984D SWAP1 DUP6 SWAP1 PUSH1 0x4 ADD PUSH2 0x5895 JUMP JUMPDEST PUSH0 PUSH1 0x40 MLOAD DUP1 DUP4 SUB DUP2 PUSH0 DUP8 GAS CALL ISZERO DUP1 ISZERO PUSH2 0x4477 JUMPI RETURNDATASIZE PUSH0 PUSH0 RETURNDATACOPY RETURNDATASIZE PUSH0 REVERT JUMPDEST POP POP POP POP PUSH1 0x40 MLOAD RETURNDATASIZE PUSH0 DUP3 RETURNDATACOPY PUSH1 0x1F RETURNDATASIZE SWAP1 DUP2 ADD PUSH1 0x1F NOT AND DUP3 ADD PUSH1 0x40 MSTORE PUSH2 0x3443 SWAP2 SWAP1 DUP2 ADD SWAP1 PUSH2 0x58AD JUMP JUMPDEST DUP2 PUSH2 0x3348 JUMPI PUSH1 0x1 PUSH1 0x1 PUSH1 0xA0 SHL SUB DUP4 AND EXTCODESIZE ISZERO PUSH2 0x44D7 JUMPI PUSH1 0x40 MLOAD PUSH4 0x4349776D PUSH1 0xE0 SHL DUP2 MSTORE PUSH1 0x1 PUSH1 0x1 PUSH1 0xA0 SHL SUB DUP5 AND PUSH1 0x4 DUP3 ADD MSTORE PUSH1 0x24 ADD PUSH2 0x3F2 JUMP JUMPDEST PUSH1 0x40 MLOAD PUSH4 0x3173137 PUSH1 0xE0 SHL DUP2 MSTORE PUSH1 0x1 PUSH1 0x1 PUSH1 0xA0 SHL SUB DUP5 AND PUSH1 0x4 DUP3 ADD MSTORE PUSH1 0x24 ADD PUSH2 0x3F2 JUMP JUMPDEST PUSH1 0x60 DUP2 PUSH0 ADD DUP1 SLOAD DUP1 PUSH1 0x20 MUL PUSH1 0x20 ADD PUSH1 0x40 MLOAD SWAP1 DUP2 ADD PUSH1 0x40 MSTORE DUP1 SWAP3 SWAP2 SWAP1 DUP2 DUP2 MSTORE PUSH1 0x20 ADD DUP3 DUP1 SLOAD DUP1 ISZERO PUSH2 0x4088 JUMPI PUSH1 0x20 MUL DUP3 ADD SWAP2 SWAP1 PUSH0 MSTORE PUSH1 0x20 PUSH0 KECCAK256 SWAP1 JUMPDEST DUP2 SLOAD DUP2 MSTORE PUSH1 0x20 ADD SWAP1 PUSH1 0x1 ADD SWAP1 DUP1 DUP4 GT PUSH2 0x4534 JUMPI POP POP POP POP POP SWAP1 POP SWAP2 SWAP1 POP JUMP JUMPDEST PUSH0 DUP2 DUP2 MSTORE PUSH1 0x5 PUSH1 0x20 MSTORE PUSH1 0x40 DUP2 KECCAK256 SWAP1 PUSH2 0x456A DUP3 PUSH2 0x4094 JUMP JUMPDEST SWAP1 POP PUSH0 PUSH0 JUMPDEST DUP3 DUP2 LT ISZERO PUSH2 0x3244 JUMPI PUSH2 0x4581 DUP5 PUSH0 PUSH2 0x46B6 JUMP JUMPDEST SWAP2 POP PUSH2 0x459E DUP3 DUP8 DUP8 PUSH0 PUSH1 0x40 MLOAD DUP1 PUSH1 0x20 ADD PUSH1 0x40 MSTORE DUP1 PUSH0 DUP2 MSTORE POP PUSH2 0x4220 JUMP JUMPDEST PUSH1 0x1 ADD PUSH2 0x456F JUMP JUMPDEST PUSH0 PUSH2 0x1BAE DUP4 DUP4 PUSH2 0x46C1 JUMP JUMPDEST PUSH2 0x2950 DUP3 PUSH32 0xB23EAE7E6D1564B295B4C3E3BE402D9A2F0776C57BDF365903496F6FA481AB00 DUP4 PUSH2 0x4632 JUMP JUMPDEST PUSH2 0x2950 DUP3 DUP3 PUSH2 0x47A4 JUMP JUMPDEST PUSH0 DUP2 DUP2 MSTORE PUSH1 0x1 DUP4 ADD PUSH1 0x20 MSTORE PUSH1 0x40 DUP2 KECCAK256 SLOAD PUSH2 0x462B JUMPI POP DUP2 SLOAD PUSH1 0x1 DUP2 DUP2 ADD DUP5 SSTORE PUSH0 DUP5 DUP2 MSTORE PUSH1 0x20 DUP1 DUP3 KECCAK256 SWAP1 SWAP4 ADD DUP5 SWAP1 SSTORE DUP5 SLOAD DUP5 DUP3 MSTORE DUP3 DUP7 ADD SWAP1 SWAP4 MSTORE PUSH1 0x40 SWAP1 KECCAK256 SWAP2 SWAP1 SWAP2 SSTORE PUSH2 0xD5C JUMP JUMPDEST POP PUSH0 PUSH2 0xD5C JUMP JUMPDEST PUSH2 0x464C PUSH1 0x1 PUSH1 0x1 PUSH1 0xA0 SHL SUB DUP5 AND PUSH4 0x1AED5A85 PUSH1 0xE2 SHL PUSH2 0x4346 JUMP JUMPDEST ISZERO PUSH2 0x3348 JUMPI PUSH1 0x40 MLOAD PUSH4 0x1AED5A85 PUSH1 0xE2 SHL DUP2 MSTORE PUSH1 0x1 PUSH1 0x1 PUSH1 0xA0 SHL SUB DUP5 AND SWAP1 PUSH4 0x6BB56A14 SWAP1 PUSH2 0x445C SWAP1 DUP6 SWAP1 DUP6 SWAP1 PUSH1 0x4 ADD PUSH2 0x5895 JUMP JUMPDEST PUSH1 0x7 SLOAD PUSH1 0xFF AND PUSH2 0x276E JUMPI PUSH1 0x40 MLOAD PUSH4 0x8DFC202B PUSH1 0xE0 SHL DUP2 MSTORE PUSH1 0x4 ADD PUSH1 0x40 MLOAD DUP1 SWAP2 SUB SWAP1 REVERT JUMPDEST PUSH0 PUSH2 0x1BAE DUP4 PUSH1 0x1 PUSH1 0x1 PUSH1 0xA0 SHL SUB DUP5 AND PUSH2 0x46C1 JUMP JUMPDEST PUSH0 PUSH2 0x1BAE DUP4 DUP4 PUSH2 0x48AC JUMP JUMPDEST PUSH0 DUP2 DUP2 MSTORE PUSH1 0x1 DUP4 ADD PUSH1 0x20 MSTORE PUSH1 0x40 DUP2 KECCAK256 SLOAD DUP1 ISZERO PUSH2 0x479B JUMPI PUSH0 PUSH2 0x46E3 PUSH1 0x1 DUP4 PUSH2 0x577A JUMP JUMPDEST DUP6 SLOAD SWAP1 SWAP2 POP PUSH0 SWAP1 PUSH2 0x46F6 SWAP1 PUSH1 0x1 SWAP1 PUSH2 0x577A JUMP JUMPDEST SWAP1 POP DUP1 DUP3 EQ PUSH2 0x4755 JUMPI PUSH0 DUP7 PUSH0 ADD DUP3 DUP2 SLOAD DUP2 LT PUSH2 0x4714 JUMPI PUSH2 0x4714 PUSH2 0x54D4 JUMP JUMPDEST SWAP1 PUSH0 MSTORE PUSH1 0x20 PUSH0 KECCAK256 ADD SLOAD SWAP1 POP DUP1 DUP8 PUSH0 ADD DUP5 DUP2 SLOAD DUP2 LT PUSH2 0x4734 JUMPI PUSH2 0x4734 PUSH2 0x54D4 JUMP JUMPDEST PUSH0 SWAP2 DUP3 MSTORE PUSH1 0x20 DUP1 DUP4 KECCAK256 SWAP1 SWAP2 ADD SWAP3 SWAP1 SWAP3 SSTORE SWAP2 DUP3 MSTORE PUSH1 0x1 DUP9 ADD SWAP1 MSTORE PUSH1 0x40 SWAP1 KECCAK256 DUP4 SWAP1 SSTORE JUMPDEST DUP6 SLOAD DUP7 SWAP1 DUP1 PUSH2 0x4766 JUMPI PUSH2 0x4766 PUSH2 0x5921 JUMP JUMPDEST PUSH1 0x1 SWAP1 SUB DUP2 DUP2 SWAP1 PUSH0 MSTORE PUSH1 0x20 PUSH0 KECCAK256 ADD PUSH0 SWAP1 SSTORE SWAP1 SSTORE DUP6 PUSH1 0x1 ADD PUSH0 DUP7 DUP2 MSTORE PUSH1 0x20 ADD SWAP1 DUP2 MSTORE PUSH1 0x20 ADD PUSH0 KECCAK256 PUSH0 SWAP1 SSTORE PUSH1 0x1 SWAP4 POP POP POP POP PUSH2 0xD5C JUMP JUMPDEST PUSH0 SWAP2 POP POP PUSH2 0xD5C JUMP JUMPDEST PUSH32 0x2145E1D6D074577DC71EF54C3807742B41B053A9352AE6B491331509ACB9750F DUP3 ADD PUSH2 0x47E4 JUMPI PUSH1 0x40 MLOAD PUSH4 0x85C169BD PUSH1 0xE0 SHL DUP2 MSTORE PUSH1 0x4 ADD PUSH1 0x40 MLOAD DUP1 SWAP2 SUB SWAP1 REVERT JUMPDEST PUSH32 0xD0F59754F88971FE6BC5A6618CC9D5F1E859C58D16B22D1C7B2D3E2B246CD8AA DUP3 ADD PUSH2 0x4824 JUMPI PUSH1 0x40 MLOAD PUSH4 0xECEAB67 PUSH1 0xE3 SHL DUP2 MSTORE PUSH1 0x4 ADD PUSH1 0x40 MLOAD DUP1 SWAP2 SUB SWAP1 REVERT JUMPDEST PUSH32 0x1FD9E056A24D14C4ABC642FCC325992A946906D0DBC57DD70278AAF12842024D DUP3 ADD PUSH2 0x4864 JUMPI PUSH1 0x40 MLOAD PUSH4 0x4EF6D7FB PUSH1 0xE0 SHL DUP2 MSTORE PUSH1 0x4 ADD PUSH1 0x40 MLOAD DUP1 SWAP2 SUB SWAP1 REVERT JUMPDEST PUSH0 DUP3 DUP2 MSTORE PUSH1 0x1 PUSH1 0x20 MSTORE PUSH1 0x40 SWAP1 KECCAK256 PUSH2 0x487B DUP3 DUP3 PUSH2 0x5688 JUMP JUMPDEST POP DUP2 PUSH32 0xECE574603820D07BC9B91F2A932BAADF4628AABCB8AFBA49776529C14A6104B2 DUP3 PUSH1 0x40 MLOAD PUSH2 0x30C9 SWAP2 SWAP1 PUSH2 0x498C JUMP JUMPDEST PUSH0 DUP3 PUSH0 ADD DUP3 DUP2 SLOAD DUP2 LT PUSH2 0x48C1 JUMPI PUSH2 0x48C1 PUSH2 0x54D4 JUMP JUMPDEST SWAP1 PUSH0 MSTORE PUSH1 0x20 PUSH0 KECCAK256 ADD SLOAD SWAP1 POP SWAP3 SWAP2 POP POP JUMP JUMPDEST PUSH1 0x20 DUP2 MSTORE DUP2 PUSH1 0x20 DUP3 ADD MSTORE DUP2 DUP4 PUSH1 0x40 DUP4 ADD CALLDATACOPY PUSH0 DUP2 DUP4 ADD PUSH1 0x40 SWAP1 DUP2 ADD SWAP2 SWAP1 SWAP2 MSTORE PUSH1 0x1F SWAP1 SWAP3 ADD PUSH1 0x1F NOT AND ADD ADD SWAP2 SWAP1 POP JUMP JUMPDEST PUSH0 PUSH1 0x20 DUP3 DUP5 SUB SLT ISZERO PUSH2 0x4910 JUMPI PUSH0 PUSH0 REVERT JUMPDEST DUP2 CALLDATALOAD PUSH1 0x1 PUSH1 0x1 PUSH1 0xE0 SHL SUB NOT DUP2 AND DUP2 EQ PUSH2 0x1BAE JUMPI PUSH0 PUSH0 REVERT JUMPDEST PUSH0 PUSH1 0x20 DUP3 DUP5 SUB SLT ISZERO PUSH2 0x4937 JUMPI PUSH0 PUSH0 REVERT JUMPDEST POP CALLDATALOAD SWAP2 SWAP1 POP JUMP JUMPDEST PUSH0 PUSH0 PUSH1 0x40 DUP4 DUP6 SUB SLT ISZERO PUSH2 0x494F JUMPI PUSH0 PUSH0 REVERT JUMPDEST POP POP DUP1 CALLDATALOAD SWAP3 PUSH1 0x20 SWAP1 SWAP2 ADD CALLDATALOAD SWAP2 POP JUMP JUMPDEST PUSH0 DUP2 MLOAD DUP1 DUP5 MSTORE DUP1 PUSH1 0x20 DUP5 ADD PUSH1 0x20 DUP7 ADD MCOPY PUSH0 PUSH1 0x20 DUP3 DUP7 ADD ADD MSTORE PUSH1 0x20 PUSH1 0x1F NOT PUSH1 0x1F DUP4 ADD AND DUP6 ADD ADD SWAP2 POP POP SWAP3 SWAP2 POP POP JUMP JUMPDEST PUSH1 0x20 DUP2 MSTORE PUSH0 PUSH2 0x1BAE PUSH1 0x20 DUP4 ADD DUP5 PUSH2 0x495E JUMP JUMPDEST PUSH4 0x4E487B71 PUSH1 0xE0 SHL PUSH0 MSTORE PUSH1 0x41 PUSH1 0x4 MSTORE PUSH1 0x24 PUSH0 REVERT JUMPDEST PUSH1 0x40 MLOAD PUSH2 0x140 DUP2 ADD PUSH1 0x1 PUSH1 0x1 PUSH1 0x40 SHL SUB DUP2 GT DUP3 DUP3 LT OR ISZERO PUSH2 0x49D5 JUMPI PUSH2 0x49D5 PUSH2 0x499E JUMP JUMPDEST PUSH1 0x40 MSTORE SWAP1 JUMP JUMPDEST PUSH1 0x40 MLOAD PUSH1 0x1F DUP3 ADD PUSH1 0x1F NOT AND DUP2 ADD PUSH1 0x1 PUSH1 0x1 PUSH1 0x40 SHL SUB DUP2 GT DUP3 DUP3 LT OR ISZERO PUSH2 0x4A03 JUMPI PUSH2 0x4A03 PUSH2 0x499E JUMP JUMPDEST PUSH1 0x40 MSTORE SWAP2 SWAP1 POP JUMP JUMPDEST PUSH0 PUSH1 0x1 PUSH1 0x1 PUSH1 0x40 SHL SUB DUP3 GT ISZERO PUSH2 0x4A23 JUMPI PUSH2 0x4A23 PUSH2 0x499E JUMP JUMPDEST POP PUSH1 0x5 SHL PUSH1 0x20 ADD SWAP1 JUMP JUMPDEST PUSH0 DUP3 PUSH1 0x1F DUP4 ADD SLT PUSH2 0x4A3C JUMPI PUSH0 PUSH0 REVERT JUMPDEST DUP2 CALLDATALOAD PUSH2 0x4A4F PUSH2 0x4A4A DUP3 PUSH2 0x4A0B JUMP JUMPDEST PUSH2 0x49DB JUMP JUMPDEST DUP1 DUP3 DUP3 MSTORE PUSH1 0x20 DUP3 ADD SWAP2 POP PUSH1 0x20 DUP4 PUSH1 0x5 SHL DUP7 ADD ADD SWAP3 POP DUP6 DUP4 GT ISZERO PUSH2 0x4A70 JUMPI PUSH0 PUSH0 REVERT JUMPDEST PUSH1 0x20 DUP6 ADD JUMPDEST DUP4 DUP2 LT ISZERO PUSH2 0x4A8D JUMPI DUP1 CALLDATALOAD DUP4 MSTORE PUSH1 0x20 SWAP3 DUP4 ADD SWAP3 ADD PUSH2 0x4A75 JUMP JUMPDEST POP SWAP6 SWAP5 POP POP POP POP POP JUMP JUMPDEST PUSH0 PUSH0 PUSH1 0x40 DUP4 DUP6 SUB SLT ISZERO PUSH2 0x4AA8 JUMPI PUSH0 PUSH0 REVERT JUMPDEST DUP3 CALLDATALOAD PUSH1 0x1 PUSH1 0x1 PUSH1 0x40 SHL SUB DUP2 GT ISZERO PUSH2 0x4ABD JUMPI PUSH0 PUSH0 REVERT JUMPDEST PUSH2 0x4AC9 DUP6 DUP3 DUP7 ADD PUSH2 0x4A2D JUMP JUMPDEST SWAP3 POP POP PUSH1 0x20 DUP4 ADD CALLDATALOAD PUSH1 0x1 PUSH1 0x1 PUSH1 0x40 SHL SUB DUP2 GT ISZERO PUSH2 0x4AE4 JUMPI PUSH0 PUSH0 REVERT JUMPDEST PUSH2 0x4AF0 DUP6 DUP3 DUP7 ADD PUSH2 0x4A2D JUMP JUMPDEST SWAP2 POP POP SWAP3 POP SWAP3 SWAP1 POP JUMP JUMPDEST PUSH0 PUSH1 0x20 DUP3 ADD PUSH1 0x20 DUP4 MSTORE DUP1 DUP5 MLOAD DUP1 DUP4 MSTORE PUSH1 0x40 DUP6 ADD SWAP2 POP PUSH1 0x40 DUP2 PUSH1 0x5 SHL DUP7 ADD ADD SWAP3 POP PUSH1 0x20 DUP7 ADD PUSH0 JUMPDEST DUP3 DUP2 LT ISZERO PUSH2 0x4B51 JUMPI PUSH1 0x3F NOT DUP8 DUP7 SUB ADD DUP5 MSTORE PUSH2 0x4B3C DUP6 DUP4 MLOAD PUSH2 0x495E JUMP JUMPDEST SWAP5 POP PUSH1 0x20 SWAP4 DUP5 ADD SWAP4 SWAP2 SWAP1 SWAP2 ADD SWAP1 PUSH1 0x1 ADD PUSH2 0x4B20 JUMP JUMPDEST POP SWAP3 SWAP7 SWAP6 POP POP POP POP POP POP JUMP JUMPDEST DUP1 CALLDATALOAD PUSH1 0x1 PUSH1 0x1 PUSH1 0xA0 SHL SUB DUP2 AND DUP2 EQ PUSH2 0x4B73 JUMPI PUSH0 PUSH0 REVERT JUMPDEST SWAP2 SWAP1 POP JUMP JUMPDEST PUSH0 PUSH0 PUSH1 0x40 DUP4 DUP6 SUB SLT ISZERO PUSH2 0x4B89 JUMPI PUSH0 PUSH0 REVERT JUMPDEST PUSH2 0x4B92 DUP4 PUSH2 0x4B5D JUMP JUMPDEST SWAP5 PUSH1 0x20 SWAP4 SWAP1 SWAP4 ADD CALLDATALOAD SWAP4 POP POP POP JUMP JUMPDEST PUSH0 PUSH2 0x140 DUP3 DUP5 SUB SLT DUP1 ISZERO PUSH2 0x4BB2 JUMPI PUSH0 PUSH0 REVERT JUMPDEST POP PUSH2 0x4BBB PUSH2 0x49B2 JUMP JUMPDEST PUSH2 0x4BC4 DUP4 PUSH2 0x4B5D JUMP JUMPDEST DUP2 MSTORE PUSH2 0x4BD2 PUSH1 0x20 DUP5 ADD PUSH2 0x4B5D JUMP JUMPDEST PUSH1 0x20 DUP3 ADD MSTORE PUSH2 0x4BE3 PUSH1 0x40 DUP5 ADD PUSH2 0x4B5D JUMP JUMPDEST PUSH1 0x40 DUP3 ADD MSTORE PUSH2 0x4BF4 PUSH1 0x60 DUP5 ADD PUSH2 0x4B5D JUMP JUMPDEST PUSH1 0x60 DUP3 ADD MSTORE PUSH2 0x4C05 PUSH1 0x80 DUP5 ADD PUSH2 0x4B5D JUMP JUMPDEST PUSH1 0x80 DUP3 ADD MSTORE PUSH2 0x4C16 PUSH1 0xA0 DUP5 ADD PUSH2 0x4B5D JUMP JUMPDEST PUSH1 0xA0 DUP3 ADD MSTORE PUSH2 0x4C27 PUSH1 0xC0 DUP5 ADD PUSH2 0x4B5D JUMP JUMPDEST PUSH1 0xC0 DUP3 ADD MSTORE PUSH2 0x4C38 PUSH1 0xE0 DUP5 ADD PUSH2 0x4B5D JUMP JUMPDEST PUSH1 0xE0 DUP3 ADD MSTORE PUSH2 0x4C4A PUSH2 0x100 DUP5 ADD PUSH2 0x4B5D JUMP JUMPDEST PUSH2 0x100 DUP3 ADD MSTORE PUSH2 0x4C5D PUSH2 0x120 DUP5 ADD PUSH2 0x4B5D JUMP JUMPDEST PUSH2 0x120 DUP3 ADD MSTORE SWAP4 SWAP3 POP POP POP JUMP JUMPDEST PUSH0 PUSH1 0x1 PUSH1 0x1 PUSH1 0x40 SHL SUB DUP3 GT ISZERO PUSH2 0x4C82 JUMPI PUSH2 0x4C82 PUSH2 0x499E JUMP JUMPDEST POP PUSH1 0x1F ADD PUSH1 0x1F NOT AND PUSH1 0x20 ADD SWAP1 JUMP JUMPDEST PUSH0 PUSH2 0x4C9D PUSH2 0x4A4A DUP5 PUSH2 0x4C6A JUMP JUMPDEST SWAP1 POP DUP3 DUP2 MSTORE DUP4 DUP4 DUP4 ADD GT ISZERO PUSH2 0x4CB0 JUMPI PUSH0 PUSH0 REVERT JUMPDEST DUP3 DUP3 PUSH1 0x20 DUP4 ADD CALLDATACOPY PUSH0 PUSH1 0x20 DUP5 DUP4 ADD ADD MSTORE SWAP4 SWAP3 POP POP POP JUMP JUMPDEST PUSH0 DUP3 PUSH1 0x1F DUP4 ADD SLT PUSH2 0x4CD5 JUMPI PUSH0 PUSH0 REVERT JUMPDEST PUSH2 0x1BAE DUP4 DUP4 CALLDATALOAD PUSH1 0x20 DUP6 ADD PUSH2 0x4C90 JUMP JUMPDEST PUSH0 PUSH0 PUSH1 0x40 DUP4 DUP6 SUB SLT ISZERO PUSH2 0x4CF5 JUMPI PUSH0 PUSH0 REVERT JUMPDEST DUP3 CALLDATALOAD SWAP2 POP PUSH1 0x20 DUP4 ADD CALLDATALOAD PUSH1 0x1 PUSH1 0x1 PUSH1 0x40 SHL SUB DUP2 GT ISZERO PUSH2 0x4D11 JUMPI PUSH0 PUSH0 REVERT JUMPDEST PUSH2 0x4AF0 DUP6 DUP3 DUP7 ADD PUSH2 0x4CC6 JUMP JUMPDEST PUSH0 PUSH1 0x20 DUP3 DUP5 SUB SLT ISZERO PUSH2 0x4D2D JUMPI PUSH0 PUSH0 REVERT JUMPDEST PUSH2 0x1BAE DUP3 PUSH2 0x4B5D JUMP JUMPDEST PUSH1 0x20 DUP1 DUP3 MSTORE DUP3 MLOAD DUP3 DUP3 ADD DUP2 SWAP1 MSTORE PUSH0 SWAP2 DUP5 ADD SWAP1 PUSH1 0x40 DUP5 ADD SWAP1 DUP4 JUMPDEST DUP2 DUP2 LT ISZERO PUSH2 0x4D76 JUMPI DUP4 MLOAD PUSH1 0x1 PUSH1 0x1 PUSH1 0xA0 SHL SUB AND DUP4 MSTORE PUSH1 0x20 SWAP4 DUP5 ADD SWAP4 SWAP1 SWAP3 ADD SWAP2 PUSH1 0x1 ADD PUSH2 0x4D4F JUMP JUMPDEST POP SWAP1 SWAP6 SWAP5 POP POP POP POP POP JUMP JUMPDEST DUP1 ISZERO ISZERO DUP2 EQ PUSH2 0x3876 JUMPI PUSH0 PUSH0 REVERT JUMPDEST PUSH0 PUSH0 PUSH0 PUSH0 PUSH0 PUSH1 0xA0 DUP7 DUP9 SUB SLT ISZERO PUSH2 0x4DA2 JUMPI PUSH0 PUSH0 REVERT JUMPDEST PUSH2 0x4DAB DUP7 PUSH2 0x4B5D JUMP JUMPDEST SWAP5 POP PUSH2 0x4DB9 PUSH1 0x20 DUP8 ADD PUSH2 0x4B5D JUMP JUMPDEST SWAP4 POP PUSH1 0x40 DUP7 ADD CALLDATALOAD SWAP3 POP PUSH1 0x60 DUP7 ADD CALLDATALOAD PUSH2 0x4DD0 DUP2 PUSH2 0x4D81 JUMP JUMPDEST SWAP2 POP PUSH1 0x80 DUP7 ADD CALLDATALOAD PUSH1 0x1 PUSH1 0x1 PUSH1 0x40 SHL SUB DUP2 GT ISZERO PUSH2 0x4DEA JUMPI PUSH0 PUSH0 REVERT JUMPDEST PUSH2 0x4DF6 DUP9 DUP3 DUP10 ADD PUSH2 0x4CC6 JUMP JUMPDEST SWAP2 POP POP SWAP3 SWAP6 POP SWAP3 SWAP6 SWAP1 SWAP4 POP JUMP JUMPDEST PUSH0 PUSH0 PUSH0 PUSH1 0x60 DUP5 DUP7 SUB SLT ISZERO PUSH2 0x4E15 JUMPI PUSH0 PUSH0 REVERT JUMPDEST DUP4 CALLDATALOAD SWAP3 POP PUSH1 0x20 DUP5 ADD CALLDATALOAD SWAP2 POP PUSH1 0x40 DUP5 ADD CALLDATALOAD PUSH1 0x1 PUSH1 0x1 PUSH1 0x40 SHL SUB DUP2 GT ISZERO PUSH2 0x4E38 JUMPI PUSH0 PUSH0 REVERT JUMPDEST PUSH2 0x4E44 DUP7 DUP3 DUP8 ADD PUSH2 0x4CC6 JUMP JUMPDEST SWAP2 POP POP SWAP3 POP SWAP3 POP SWAP3 JUMP JUMPDEST PUSH0 PUSH0 PUSH1 0x20 DUP4 DUP6 SUB SLT ISZERO PUSH2 0x4E5F JUMPI PUSH0 PUSH0 REVERT JUMPDEST DUP3 CALLDATALOAD PUSH1 0x1 PUSH1 0x1 PUSH1 0x40 SHL SUB DUP2 GT ISZERO PUSH2 0x4E74 JUMPI PUSH0 PUSH0 REVERT JUMPDEST DUP4 ADD PUSH1 0x1F DUP2 ADD DUP6 SGT PUSH2 0x4E84 JUMPI PUSH0 PUSH0 REVERT JUMPDEST DUP1 CALLDATALOAD PUSH1 0x1 PUSH1 0x1 PUSH1 0x40 SHL SUB DUP2 GT ISZERO PUSH2 0x4E99 JUMPI PUSH0 PUSH0 REVERT JUMPDEST DUP6 PUSH1 0x20 DUP3 PUSH1 0x5 SHL DUP5 ADD ADD GT ISZERO PUSH2 0x4EAD JUMPI PUSH0 PUSH0 REVERT JUMPDEST PUSH1 0x20 SWAP2 SWAP1 SWAP2 ADD SWAP6 SWAP1 SWAP5 POP SWAP3 POP POP POP JUMP JUMPDEST DUP1 CALLDATALOAD PUSH1 0xFF DUP2 AND DUP2 EQ PUSH2 0x4B73 JUMPI PUSH0 PUSH0 REVERT JUMPDEST PUSH0 PUSH0 PUSH0 PUSH1 0x60 DUP5 DUP7 SUB SLT ISZERO PUSH2 0x4EDF JUMPI PUSH0 PUSH0 REVERT JUMPDEST DUP4 CALLDATALOAD SWAP3 POP PUSH1 0x20 DUP5 ADD CALLDATALOAD SWAP2 POP PUSH2 0x4EF6 PUSH1 0x40 DUP6 ADD PUSH2 0x4EBD JUMP JUMPDEST SWAP1 POP SWAP3 POP SWAP3 POP SWAP3 JUMP JUMPDEST PUSH0 DUP3 PUSH1 0x1F DUP4 ADD SLT PUSH2 0x4F0E JUMPI PUSH0 PUSH0 REVERT JUMPDEST DUP2 CALLDATALOAD PUSH2 0x4F1C PUSH2 0x4A4A DUP3 PUSH2 0x4A0B JUMP JUMPDEST DUP1 DUP3 DUP3 MSTORE PUSH1 0x20 DUP3 ADD SWAP2 POP PUSH1 0x20 DUP4 PUSH1 0x5 SHL DUP7 ADD ADD SWAP3 POP DUP6 DUP4 GT ISZERO PUSH2 0x4F3D JUMPI PUSH0 PUSH0 REVERT JUMPDEST PUSH1 0x20 DUP6 ADD JUMPDEST DUP4 DUP2 LT ISZERO PUSH2 0x4A8D JUMPI PUSH2 0x4F53 DUP2 PUSH2 0x4B5D JUMP JUMPDEST DUP4 MSTORE PUSH1 0x20 SWAP3 DUP4 ADD SWAP3 ADD PUSH2 0x4F42 JUMP JUMPDEST PUSH0 DUP3 PUSH1 0x1F DUP4 ADD SLT PUSH2 0x4F70 JUMPI PUSH0 PUSH0 REVERT JUMPDEST DUP2 CALLDATALOAD PUSH2 0x4F7E PUSH2 0x4A4A DUP3 PUSH2 0x4A0B JUMP JUMPDEST DUP1 DUP3 DUP3 MSTORE PUSH1 0x20 DUP3 ADD SWAP2 POP PUSH1 0x20 DUP4 PUSH1 0x5 SHL DUP7 ADD ADD SWAP3 POP DUP6 DUP4 GT ISZERO PUSH2 0x4F9F JUMPI PUSH0 PUSH0 REVERT JUMPDEST PUSH1 0x20 DUP6 ADD JUMPDEST DUP4 DUP2 LT ISZERO PUSH2 0x4A8D JUMPI DUP1 CALLDATALOAD PUSH2 0x4FB7 DUP2 PUSH2 0x4D81 JUMP JUMPDEST DUP4 MSTORE PUSH1 0x20 SWAP3 DUP4 ADD SWAP3 ADD PUSH2 0x4FA4 JUMP JUMPDEST PUSH0 DUP3 PUSH1 0x1F DUP4 ADD SLT PUSH2 0x4FD4 JUMPI PUSH0 PUSH0 REVERT JUMPDEST DUP2 CALLDATALOAD PUSH2 0x4FE2 PUSH2 0x4A4A DUP3 PUSH2 0x4A0B JUMP JUMPDEST DUP1 DUP3 DUP3 MSTORE PUSH1 0x20 DUP3 ADD SWAP2 POP PUSH1 0x20 DUP4 PUSH1 0x5 SHL DUP7 ADD ADD SWAP3 POP DUP6 DUP4 GT ISZERO PUSH2 0x5003 JUMPI PUSH0 PUSH0 REVERT JUMPDEST PUSH1 0x20 DUP6 ADD JUMPDEST DUP4 DUP2 LT ISZERO PUSH2 0x4A8D JUMPI DUP1 CALLDATALOAD PUSH1 0x1 PUSH1 0x1 PUSH1 0x40 SHL SUB DUP2 GT ISZERO PUSH2 0x5025 JUMPI PUSH0 PUSH0 REVERT JUMPDEST PUSH2 0x5034 DUP9 PUSH1 0x20 DUP4 DUP11 ADD ADD PUSH2 0x4CC6 JUMP JUMPDEST DUP5 MSTORE POP PUSH1 0x20 SWAP3 DUP4 ADD SWAP3 ADD PUSH2 0x5008 JUMP JUMPDEST PUSH0 PUSH0 PUSH0 PUSH0 PUSH0 PUSH1 0xA0 DUP7 DUP9 SUB SLT ISZERO PUSH2 0x5057 JUMPI PUSH0 PUSH0 REVERT JUMPDEST DUP6 CALLDATALOAD PUSH1 0x1 PUSH1 0x1 PUSH1 0x40 SHL SUB DUP2 GT ISZERO PUSH2 0x506C JUMPI PUSH0 PUSH0 REVERT JUMPDEST PUSH2 0x5078 DUP9 DUP3 DUP10 ADD PUSH2 0x4EFF JUMP JUMPDEST SWAP6 POP POP PUSH1 0x20 DUP7 ADD CALLDATALOAD PUSH1 0x1 PUSH1 0x1 PUSH1 0x40 SHL SUB DUP2 GT ISZERO PUSH2 0x5093 JUMPI PUSH0 PUSH0 REVERT JUMPDEST PUSH2 0x509F DUP9 DUP3 DUP10 ADD PUSH2 0x4EFF JUMP JUMPDEST SWAP5 POP POP PUSH1 0x40 DUP7 ADD CALLDATALOAD PUSH1 0x1 PUSH1 0x1 PUSH1 0x40 SHL SUB DUP2 GT ISZERO PUSH2 0x50BA JUMPI PUSH0 PUSH0 REVERT JUMPDEST PUSH2 0x50C6 DUP9 DUP3 DUP10 ADD PUSH2 0x4A2D JUMP JUMPDEST SWAP4 POP POP PUSH1 0x60 DUP7 ADD CALLDATALOAD PUSH1 0x1 PUSH1 0x1 PUSH1 0x40 SHL SUB DUP2 GT ISZERO PUSH2 0x50E1 JUMPI PUSH0 PUSH0 REVERT JUMPDEST PUSH2 0x50ED DUP9 DUP3 DUP10 ADD PUSH2 0x4F61 JUMP JUMPDEST SWAP3 POP POP PUSH1 0x80 DUP7 ADD CALLDATALOAD PUSH1 0x1 PUSH1 0x1 PUSH1 0x40 SHL SUB DUP2 GT ISZERO PUSH2 0x5108 JUMPI PUSH0 PUSH0 REVERT JUMPDEST PUSH2 0x4DF6 DUP9 DUP3 DUP10 ADD PUSH2 0x4FC5 JUMP JUMPDEST PUSH0 PUSH0 PUSH0 PUSH1 0x60 DUP5 DUP7 SUB SLT ISZERO PUSH2 0x5126 JUMPI PUSH0 PUSH0 REVERT JUMPDEST PUSH2 0x512F DUP5 PUSH2 0x4B5D JUMP JUMPDEST SWAP3 POP PUSH1 0x20 DUP5 ADD CALLDATALOAD SWAP2 POP PUSH1 0x40 DUP5 ADD CALLDATALOAD PUSH1 0x1 PUSH1 0x1 PUSH1 0x40 SHL SUB DUP2 GT ISZERO PUSH2 0x4E38 JUMPI PUSH0 PUSH0 REVERT JUMPDEST PUSH0 PUSH0 PUSH1 0x40 DUP4 DUP6 SUB SLT ISZERO PUSH2 0x5161 JUMPI PUSH0 PUSH0 REVERT JUMPDEST DUP3 CALLDATALOAD PUSH1 0x1 PUSH1 0x1 PUSH1 0x40 SHL SUB DUP2 GT ISZERO PUSH2 0x5176 JUMPI PUSH0 PUSH0 REVERT JUMPDEST PUSH2 0x5182 DUP6 DUP3 DUP7 ADD PUSH2 0x4A2D JUMP JUMPDEST SWAP3 POP POP PUSH1 0x20 DUP4 ADD CALLDATALOAD PUSH1 0x1 PUSH1 0x1 PUSH1 0x40 SHL SUB DUP2 GT ISZERO PUSH2 0x519D JUMPI PUSH0 PUSH0 REVERT JUMPDEST PUSH2 0x4AF0 DUP6 DUP3 DUP7 ADD PUSH2 0x4FC5 JUMP JUMPDEST PUSH1 0x20 DUP1 DUP3 MSTORE DUP3 MLOAD DUP3 DUP3 ADD DUP2 SWAP1 MSTORE PUSH0 SWAP2 DUP5 ADD SWAP1 PUSH1 0x40 DUP5 ADD SWAP1 DUP4 JUMPDEST DUP2 DUP2 LT ISZERO PUSH2 0x4D76 JUMPI DUP4 MLOAD DUP4 MSTORE PUSH1 0x20 SWAP4 DUP5 ADD SWAP4 SWAP1 SWAP3 ADD SWAP2 PUSH1 0x1 ADD PUSH2 0x51C2 JUMP JUMPDEST PUSH0 PUSH0 PUSH0 PUSH1 0x60 DUP5 DUP7 SUB SLT ISZERO PUSH2 0x51F2 JUMPI PUSH0 PUSH0 REVERT JUMPDEST DUP4 CALLDATALOAD PUSH1 0x1 PUSH1 0x1 PUSH1 0x40 SHL SUB DUP2 GT ISZERO PUSH2 0x5207 JUMPI PUSH0 PUSH0 REVERT JUMPDEST PUSH2 0x5213 DUP7 DUP3 DUP8 ADD PUSH2 0x4A2D JUMP JUMPDEST SWAP4 POP POP PUSH1 0x20 DUP5 ADD CALLDATALOAD PUSH1 0x1 PUSH1 0x1 PUSH1 0x40 SHL SUB DUP2 GT ISZERO PUSH2 0x522E JUMPI PUSH0 PUSH0 REVERT JUMPDEST PUSH2 0x523A DUP7 DUP3 DUP8 ADD PUSH2 0x4A2D JUMP JUMPDEST SWAP3 POP POP PUSH1 0x40 DUP5 ADD CALLDATALOAD PUSH1 0x1 PUSH1 0x1 PUSH1 0x40 SHL SUB DUP2 GT ISZERO PUSH2 0x5255 JUMPI PUSH0 PUSH0 REVERT JUMPDEST PUSH2 0x4E44 DUP7 DUP3 DUP8 ADD PUSH2 0x4FC5 JUMP JUMPDEST PUSH0 PUSH0 PUSH0 PUSH0 PUSH0 PUSH1 0xA0 DUP7 DUP9 SUB SLT ISZERO PUSH2 0x5275 JUMPI PUSH0 PUSH0 REVERT JUMPDEST DUP6 CALLDATALOAD SWAP5 POP PUSH1 0x20 DUP7 ADD CALLDATALOAD PUSH1 0x1 PUSH1 0x1 PUSH1 0x40 SHL SUB DUP2 GT ISZERO PUSH2 0x5291 JUMPI PUSH0 PUSH0 REVERT JUMPDEST DUP7 ADD PUSH1 0x1F DUP2 ADD DUP9 SGT PUSH2 0x52A1 JUMPI PUSH0 PUSH0 REVERT JUMPDEST PUSH2 0x52B0 DUP9 DUP3 CALLDATALOAD PUSH1 0x20 DUP5 ADD PUSH2 0x4C90 JUMP JUMPDEST SWAP5 POP POP PUSH1 0x40 DUP7 ADD CALLDATALOAD SWAP3 POP PUSH1 0x60 DUP7 ADD CALLDATALOAD SWAP2 POP PUSH2 0x52CD PUSH1 0x80 DUP8 ADD PUSH2 0x4B5D JUMP JUMPDEST SWAP1 POP SWAP3 SWAP6 POP SWAP3 SWAP6 SWAP1 SWAP4 POP JUMP JUMPDEST PUSH1 0x80 DUP2 MSTORE PUSH0 PUSH2 0x52EB PUSH1 0x80 DUP4 ADD DUP8 PUSH2 0x495E JUMP JUMPDEST PUSH1 0x20 DUP4 ADD SWAP6 SWAP1 SWAP6 MSTORE POP PUSH1 0x40 DUP2 ADD SWAP3 SWAP1 SWAP3 MSTORE PUSH1 0x1 PUSH1 0x1 PUSH1 0xA0 SHL SUB AND PUSH1 0x60 SWAP1 SWAP2 ADD MSTORE SWAP2 SWAP1 POP JUMP JUMPDEST PUSH0 PUSH0 PUSH0 PUSH0 PUSH1 0x80 DUP6 DUP8 SUB SLT ISZERO PUSH2 0x5323 JUMPI PUSH0 PUSH0 REVERT JUMPDEST PUSH2 0x532C DUP6 PUSH2 0x4B5D JUMP JUMPDEST SWAP4 POP PUSH1 0x20 DUP6 ADD CALLDATALOAD SWAP3 POP PUSH1 0x40 DUP6 ADD CALLDATALOAD PUSH2 0x5343 DUP2 PUSH2 0x4D81 JUMP JUMPDEST SWAP2 POP PUSH1 0x60 DUP6 ADD CALLDATALOAD PUSH1 0x1 PUSH1 0x1 PUSH1 0x40 SHL SUB DUP2 GT ISZERO PUSH2 0x535D JUMPI PUSH0 PUSH0 REVERT JUMPDEST PUSH2 0x5369 DUP8 DUP3 DUP9 ADD PUSH2 0x4CC6 JUMP JUMPDEST SWAP2 POP POP SWAP3 SWAP6 SWAP2 SWAP5 POP SWAP3 POP JUMP JUMPDEST PUSH0 PUSH1 0x20 DUP3 DUP5 SUB SLT ISZERO PUSH2 0x5385 JUMPI PUSH0 PUSH0 REVERT JUMPDEST DUP2 CALLDATALOAD PUSH1 0x1 PUSH1 0x1 PUSH1 0x40 SHL SUB DUP2 GT ISZERO PUSH2 0x539A JUMPI PUSH0 PUSH0 REVERT JUMPDEST PUSH2 0x430A DUP5 DUP3 DUP6 ADD PUSH2 0x4A2D JUMP JUMPDEST PUSH0 PUSH0 PUSH1 0x40 DUP4 DUP6 SUB SLT ISZERO PUSH2 0x53B7 JUMPI PUSH0 PUSH0 REVERT JUMPDEST DUP3 CALLDATALOAD PUSH1 0x1 PUSH1 0x1 PUSH1 0x40 SHL SUB DUP2 GT ISZERO PUSH2 0x53CC JUMPI PUSH0 PUSH0 REVERT JUMPDEST PUSH2 0x53D8 DUP6 DUP3 DUP7 ADD PUSH2 0x4EFF JUMP JUMPDEST SWAP3 POP POP PUSH2 0x53E7 PUSH1 0x20 DUP5 ADD PUSH2 0x4EBD JUMP JUMPDEST SWAP1 POP SWAP3 POP SWAP3 SWAP1 POP JUMP JUMPDEST PUSH0 PUSH1 0x20 DUP3 DUP5 SUB SLT ISZERO PUSH2 0x5400 JUMPI PUSH0 PUSH0 REVERT JUMPDEST PUSH2 0x1BAE DUP3 PUSH2 0x4EBD JUMP JUMPDEST DUP4 DUP6 DUP3 CALLDATACOPY PUSH1 0x60 SWAP3 SWAP1 SWAP3 SHL PUSH1 0x1 PUSH1 0x1 PUSH1 0x60 SHL SUB NOT AND SWAP2 SWAP1 SWAP3 ADD SWAP1 DUP2 MSTORE PUSH1 0x14 DUP2 ADD SWAP2 SWAP1 SWAP2 MSTORE PUSH1 0x34 ADD SWAP2 SWAP1 POP JUMP JUMPDEST PUSH0 DUP3 MLOAD DUP1 PUSH1 0x20 DUP6 ADD DUP5 MCOPY PUSH0 SWAP3 ADD SWAP2 DUP3 MSTORE POP SWAP2 SWAP1 POP JUMP JUMPDEST PUSH4 0x4E487B71 PUSH1 0xE0 SHL PUSH0 MSTORE PUSH1 0x11 PUSH1 0x4 MSTORE PUSH1 0x24 PUSH0 REVERT JUMPDEST DUP1 DUP3 ADD DUP1 DUP3 GT ISZERO PUSH2 0xD5C JUMPI PUSH2 0xD5C PUSH2 0x544A JUMP JUMPDEST PUSH0 PUSH1 0x20 DUP3 DUP5 SUB SLT ISZERO PUSH2 0x5481 JUMPI PUSH0 PUSH0 REVERT JUMPDEST POP MLOAD SWAP2 SWAP1 POP JUMP JUMPDEST DUP1 DUP3 MUL DUP2 ISZERO DUP3 DUP3 DIV DUP5 EQ OR PUSH2 0xD5C JUMPI PUSH2 0xD5C PUSH2 0x544A JUMP JUMPDEST PUSH1 0x1 PUSH1 0x1 PUSH1 0xA0 SHL SUB SWAP3 DUP4 AND DUP2 MSTORE SWAP2 AND PUSH1 0x20 DUP3 ADD MSTORE PUSH1 0x40 ADD SWAP1 JUMP JUMPDEST PUSH0 PUSH1 0x20 DUP3 DUP5 SUB SLT ISZERO PUSH2 0x54C9 JUMPI PUSH0 PUSH0 REVERT JUMPDEST DUP2 MLOAD PUSH2 0x1BAE DUP2 PUSH2 0x4D81 JUMP JUMPDEST PUSH4 0x4E487B71 PUSH1 0xE0 SHL PUSH0 MSTORE PUSH1 0x32 PUSH1 0x4 MSTORE PUSH1 0x24 PUSH0 REVERT JUMPDEST PUSH1 0xFF DUP3 DUP2 AND DUP3 DUP3 AND SUB SWAP1 DUP2 GT ISZERO PUSH2 0xD5C JUMPI PUSH2 0xD5C PUSH2 0x544A JUMP JUMPDEST PUSH1 0x1 DUP2 DUP2 SHR SWAP1 DUP3 AND DUP1 PUSH2 0x5515 JUMPI PUSH1 0x7F DUP3 AND SWAP2 POP JUMPDEST PUSH1 0x20 DUP3 LT DUP2 SUB PUSH2 0x3778 JUMPI PUSH4 0x4E487B71 PUSH1 0xE0 SHL PUSH0 MSTORE PUSH1 0x22 PUSH1 0x4 MSTORE PUSH1 0x24 PUSH0 REVERT JUMPDEST PUSH1 0x1 PUSH1 0x1 PUSH1 0xA0 SHL SUB SWAP5 DUP6 AND DUP2 MSTORE SWAP3 SWAP1 SWAP4 AND PUSH1 0x20 DUP4 ADD MSTORE PUSH1 0x40 DUP3 ADD MSTORE SWAP1 ISZERO ISZERO PUSH1 0x60 DUP3 ADD MSTORE PUSH1 0xA0 PUSH1 0x80 DUP3 ADD DUP2 SWAP1 MSTORE PUSH0 SWAP1 DUP3 ADD MSTORE PUSH1 0xC0 ADD SWAP1 JUMP JUMPDEST PUSH1 0xFF DUP2 DUP2 AND DUP4 DUP3 AND ADD SWAP1 DUP2 GT ISZERO PUSH2 0xD5C JUMPI PUSH2 0xD5C PUSH2 0x544A JUMP JUMPDEST PUSH1 0x1 DUP1 PUSH1 0xA0 SHL SUB DUP5 AND DUP2 MSTORE DUP3 PUSH1 0x20 DUP3 ADD MSTORE PUSH1 0x60 PUSH1 0x40 DUP3 ADD MSTORE PUSH0 PUSH2 0x55A9 PUSH1 0x60 DUP4 ADD DUP5 PUSH2 0x495E JUMP JUMPDEST SWAP6 SWAP5 POP POP POP POP POP JUMP JUMPDEST PUSH0 PUSH0 DUP4 CALLDATALOAD PUSH1 0x1E NOT DUP5 CALLDATASIZE SUB ADD DUP2 SLT PUSH2 0x55C7 JUMPI PUSH0 PUSH0 REVERT JUMPDEST DUP4 ADD DUP1 CALLDATALOAD SWAP2 POP PUSH1 0x1 PUSH1 0x1 PUSH1 0x40 SHL SUB DUP3 GT ISZERO PUSH2 0x55E0 JUMPI PUSH0 PUSH0 REVERT JUMPDEST PUSH1 0x20 ADD SWAP2 POP CALLDATASIZE DUP2 SWAP1 SUB DUP3 SGT ISZERO PUSH2 0x55F4 JUMPI PUSH0 PUSH0 REVERT JUMPDEST SWAP3 POP SWAP3 SWAP1 POP JUMP JUMPDEST DUP2 DUP4 DUP3 CALLDATACOPY PUSH0 SWAP2 ADD SWAP1 DUP2 MSTORE SWAP2 SWAP1 POP JUMP JUMPDEST PUSH1 0x1 PUSH1 0x1 PUSH1 0xA0 SHL SUB DUP7 DUP2 AND DUP3 MSTORE DUP6 AND PUSH1 0x20 DUP3 ADD MSTORE PUSH1 0x40 DUP2 ADD DUP5 SWAP1 MSTORE DUP3 ISZERO ISZERO PUSH1 0x60 DUP3 ADD MSTORE PUSH1 0xA0 PUSH1 0x80 DUP3 ADD DUP2 SWAP1 MSTORE PUSH0 SWAP1 PUSH2 0x43C1 SWAP1 DUP4 ADD DUP5 PUSH2 0x495E JUMP JUMPDEST PUSH1 0x1F DUP3 GT ISZERO PUSH2 0x3348 JUMPI DUP1 PUSH0 MSTORE PUSH1 0x20 PUSH0 KECCAK256 PUSH1 0x1F DUP5 ADD PUSH1 0x5 SHR DUP2 ADD PUSH1 0x20 DUP6 LT ISZERO PUSH2 0x5669 JUMPI POP DUP1 JUMPDEST PUSH1 0x1F DUP5 ADD PUSH1 0x5 SHR DUP3 ADD SWAP2 POP JUMPDEST DUP2 DUP2 LT ISZERO PUSH2 0x24B9 JUMPI PUSH0 DUP2 SSTORE PUSH1 0x1 ADD PUSH2 0x5675 JUMP JUMPDEST DUP2 MLOAD PUSH1 0x1 PUSH1 0x1 PUSH1 0x40 SHL SUB DUP2 GT ISZERO PUSH2 0x56A1 JUMPI PUSH2 0x56A1 PUSH2 0x499E JUMP JUMPDEST PUSH2 0x56B5 DUP2 PUSH2 0x56AF DUP5 SLOAD PUSH2 0x5501 JUMP JUMPDEST DUP5 PUSH2 0x5644 JUMP JUMPDEST PUSH1 0x20 PUSH1 0x1F DUP3 GT PUSH1 0x1 DUP2 EQ PUSH2 0x56E7 JUMPI PUSH0 DUP4 ISZERO PUSH2 0x56D0 JUMPI POP DUP5 DUP3 ADD MLOAD JUMPDEST PUSH0 NOT PUSH1 0x3 DUP6 SWAP1 SHL SHR NOT AND PUSH1 0x1 DUP5 SWAP1 SHL OR DUP5 SSTORE PUSH2 0x24B9 JUMP JUMPDEST PUSH0 DUP5 DUP2 MSTORE PUSH1 0x20 DUP2 KECCAK256 PUSH1 0x1F NOT DUP6 AND SWAP2 JUMPDEST DUP3 DUP2 LT ISZERO PUSH2 0x5716 JUMPI DUP8 DUP6 ADD MLOAD DUP3 SSTORE PUSH1 0x20 SWAP5 DUP6 ADD SWAP5 PUSH1 0x1 SWAP1 SWAP3 ADD SWAP2 ADD PUSH2 0x56F6 JUMP JUMPDEST POP DUP5 DUP3 LT ISZERO PUSH2 0x5733 JUMPI DUP7 DUP5 ADD MLOAD PUSH0 NOT PUSH1 0x3 DUP8 SWAP1 SHL PUSH1 0xF8 AND SHR NOT AND DUP2 SSTORE JUMPDEST POP POP POP POP PUSH1 0x1 SWAP1 DUP2 SHL ADD SWAP1 SSTORE POP JUMP JUMPDEST PUSH1 0x1 DUP1 PUSH1 0xA0 SHL SUB DUP6 AND DUP2 MSTORE DUP4 PUSH1 0x20 DUP3 ADD MSTORE DUP3 ISZERO ISZERO PUSH1 0x40 DUP3 ADD MSTORE PUSH1 0x80 PUSH1 0x60 DUP3 ADD MSTORE PUSH0 PUSH2 0x5770 PUSH1 0x80 DUP4 ADD DUP5 PUSH2 0x495E JUMP JUMPDEST SWAP7 SWAP6 POP POP POP POP POP POP JUMP JUMPDEST DUP2 DUP2 SUB DUP2 DUP2 GT ISZERO PUSH2 0xD5C JUMPI PUSH2 0xD5C PUSH2 0x544A JUMP JUMPDEST DUP1 MLOAD PUSH1 0x20 DUP3 ADD MLOAD PUSH1 0x1 PUSH1 0x1 PUSH1 0x60 SHL SUB NOT DUP2 AND SWAP2 SWAP1 PUSH1 0x14 DUP3 LT ISZERO PUSH2 0x57D4 JUMPI PUSH12 0xFFFFFFFFFFFFFFFFFFFFFFFF NOT PUSH12 0xFFFFFFFFFFFFFFFFFFFFFFFF NOT DUP4 PUSH1 0x14 SUB PUSH1 0x3 SHL SHL DUP3 AND AND SWAP3 POP JUMPDEST POP POP SWAP2 SWAP1 POP JUMP JUMPDEST PUSH0 PUSH1 0x1 DUP3 ADD PUSH2 0x57EC JUMPI PUSH2 0x57EC PUSH2 0x544A JUMP JUMPDEST POP PUSH1 0x1 ADD SWAP1 JUMP JUMPDEST PUSH1 0x1 PUSH1 0x1 PUSH1 0xA0 SHL SUB DUP5 AND DUP2 MSTORE DUP3 ISZERO ISZERO PUSH1 0x20 DUP3 ADD MSTORE PUSH1 0x60 PUSH1 0x40 DUP3 ADD DUP2 SWAP1 MSTORE PUSH0 SWAP1 PUSH2 0x55A9 SWAP1 DUP4 ADD DUP5 PUSH2 0x495E JUMP JUMPDEST PUSH1 0x1 PUSH1 0x1 PUSH1 0xA0 SHL SUB DUP7 DUP2 AND DUP3 MSTORE DUP6 DUP2 AND PUSH1 0x20 DUP4 ADD MSTORE DUP5 AND PUSH1 0x40 DUP3 ADD MSTORE PUSH1 0x60 DUP2 ADD DUP4 SWAP1 MSTORE PUSH1 0xA0 PUSH1 0x80 DUP3 ADD DUP2 SWAP1 MSTORE PUSH0 SWAP1 PUSH2 0x43C1 SWAP1 DUP4 ADD DUP5 PUSH2 0x495E JUMP JUMPDEST DUP3 ISZERO ISZERO DUP2 MSTORE PUSH1 0x40 PUSH1 0x20 DUP3 ADD MSTORE PUSH0 PUSH2 0x430A PUSH1 0x40 DUP4 ADD DUP5 PUSH2 0x495E JUMP JUMPDEST DUP1 MLOAD PUSH1 0x20 DUP1 DUP4 ADD MLOAD SWAP2 SWAP1 DUP2 LT ISZERO PUSH2 0x3778 JUMPI PUSH0 NOT PUSH1 0x20 SWAP2 SWAP1 SWAP2 SUB PUSH1 0x3 SHL SHL AND SWAP2 SWAP1 POP JUMP JUMPDEST DUP3 DUP2 MSTORE PUSH1 0x40 PUSH1 0x20 DUP3 ADD MSTORE PUSH0 PUSH2 0x430A PUSH1 0x40 DUP4 ADD DUP5 PUSH2 0x495E JUMP JUMPDEST PUSH0 PUSH1 0x20 DUP3 DUP5 SUB SLT ISZERO PUSH2 0x58BD JUMPI PUSH0 PUSH0 REVERT JUMPDEST DUP2 MLOAD PUSH1 0x1 PUSH1 0x1 PUSH1 0x40 SHL SUB DUP2 GT ISZERO PUSH2 0x58D2 JUMPI PUSH0 PUSH0 REVERT JUMPDEST DUP3 ADD PUSH1 0x1F DUP2 ADD DUP5 SGT PUSH2 0x58E2 JUMPI PUSH0 PUSH0 REVERT JUMPDEST DUP1 MLOAD PUSH2 0x58F0 PUSH2 0x4A4A DUP3 PUSH2 0x4C6A JUMP JUMPDEST DUP2 DUP2 MSTORE DUP6 PUSH1 0x20 DUP4 DUP6 ADD ADD GT ISZERO PUSH2 0x5904 JUMPI PUSH0 PUSH0 REVERT JUMPDEST DUP2 PUSH1 0x20 DUP5 ADD PUSH1 0x20 DUP4 ADD MCOPY PUSH0 SWAP2 DUP2 ADD PUSH1 0x20 ADD SWAP2 SWAP1 SWAP2 MSTORE SWAP5 SWAP4 POP POP POP POP JUMP JUMPDEST PUSH4 0x4E487B71 PUSH1 0xE0 SHL PUSH0 MSTORE PUSH1 0x31 PUSH1 0x4 MSTORE PUSH1 0x24 PUSH0 REVERT INVALID LOG2 PUSH5 0x6970667358 0x22 SLT KECCAK256 0x22 0xAB DUP13 CODECOPY 0xD7 CALLDATACOPY CALL 0xB5 0xD0 PUSH20 0xE276EEF9A35DBFCA70A5F7B13E12309401E4F741 0xB9 BLOBBASEFEE PUSH5 0x736F6C6343 STOP ADDMOD 0x1E STOP CALLER "
		},
		"gasEstimates": {
			"creation": {
				"codeDepositCost": "4578200",
				"executionCost": "infinite",
				"totalCost": "infinite"
			},
			"external": {
				"": "infinite",
				"ARATTALABS()": "2448",
				"ARFI()": "2425",
				"DACHRIZ()": "2470",
				"FISH()": "2468",
				"FISHCAN()": "2469",
				"FOLLOWING()": "2403",
				"LUKSEALS()": "2404",
				"MADSKI()": "2449",
				"MAX_SUPPLY()": "329",
				"MEMBER_CARD()": "2470",
				"PHASE_ONE_TWO_SUPPLY_CAP()": "314",
				"PPT()": "2384",
				"RICH()": "2404",
				"VERSION()": "infinite",
				"activePhase()": "2408",
				"authorizeOperator(address,bytes32,bytes)": "infinite",
				"balanceOf(address)": "infinite",
				"batchCalls(bytes[])": "infinite",
				"burnFish(bytes32,uint256,bytes)": "infinite",
				"getData(bytes32)": "infinite",
				"getDataBatch(bytes32[])": "infinite",
				"getDataBatchForTokenIds(bytes32[],bytes32[])": "infinite",
				"getDataForTokenId(bytes32,bytes32)": "infinite",
				"getOperatorsOf(bytes32)": "infinite",
				"initialize()": "infinite",
				"initialized()": "2367",
				"isOperatorFor(address,bytes32)": "infinite",
				"lastTap(address)": "2606",
				"level(bytes32)": "4695",
				"levelDown(bytes32,bytes)": "infinite",
				"levelPrice(uint8)": "2637",
				"levelUp(bytes32,bytes)": "infinite",
				"mintCount(address,bytes32)": "2713",
				"mintWithMetadata(bytes32,bytes)": "infinite",
				"owner()": "2419",
				"pauseMinting()": "infinite",
				"paused()": "2382",
				"phases(bytes32)": "infinite",
				"renounceOwnership()": "infinite",
				"revokeOperator(address,bytes32,bool,bytes)": "infinite",
				"setData(bytes32,bytes)": "infinite",
				"setDataBatch(bytes32[],bytes[])": "infinite",
				"setDataBatchForTokenIds(bytes32[],bytes32[],bytes[])": "infinite",
				"setDataForTokenId(bytes32,bytes32,bytes)": "infinite",
				"supportsInterface(bytes4)": "infinite",
				"tapIt(bytes32)": "infinite",
				"tokenIdCounter()": "2387",
				"tokenIdsOf(address)": "infinite",
				"tokenOwnerOf(bytes32)": "2579",
				"totalSupply()": "2404",
				"transfer(address,address,bytes32,bool,bytes)": "infinite",
				"transferBatch(address[],address[],bytes32[],bool[],bytes[])": "infinite",
				"transferLSP7Token(address,address,uint256,bool,bytes)": "infinite",
				"transferOwnership(address)": "32688",
				"unpauseMinting()": "infinite",
				"updateActivePhase(bytes32)": "24587",
				"updateAddresses((address,address,address,address,address,address,address,address,address,address))": "infinite",
				"updatePPT(uint256)": "25695",
				"updatePhase(bytes32,string,uint256,uint256,address)": "infinite",
				"updatePoint(bytes32,uint256,uint8)": "55165",
				"updateWhitelist(address[],uint8)": "infinite",
				"whitelist(address)": "2643",
				"withdrawAll()": "infinite"
			}
		},
		"methodIdentifiers": {
			"ARATTALABS()": "5cb42de1",
			"ARFI()": "ac91e5a5",
			"DACHRIZ()": "961183c4",
			"FISH()": "ffcff32c",
			"FISHCAN()": "af6bb1e4",
			"FOLLOWING()": "ac7e0321",
			"LUKSEALS()": "605cb601",
			"MADSKI()": "83f63c97",
			"MAX_SUPPLY()": "32cb6b0c",
			"MEMBER_CARD()": "403e6fa6",
			"PHASE_ONE_TWO_SUPPLY_CAP()": "e3bc1cc3",
			"PPT()": "678b2012",
			"RICH()": "5a1da9a4",
			"VERSION()": "ffa1ad74",
			"activePhase()": "0e1b26c6",
			"authorizeOperator(address,bytes32,bytes)": "86a10ddd",
			"balanceOf(address)": "70a08231",
			"batchCalls(bytes[])": "6963d438",
			"burnFish(bytes32,uint256,bytes)": "5fa3c36d",
			"getData(bytes32)": "54f6127f",
			"getDataBatch(bytes32[])": "dedff9c6",
			"getDataBatchForTokenIds(bytes32[],bytes32[])": "1d26fce6",
			"getDataForTokenId(bytes32,bytes32)": "16e023b3",
			"getOperatorsOf(bytes32)": "49a6078d",
			"initialize()": "8129fc1c",
			"initialized()": "158ef93e",
			"isOperatorFor(address,bytes32)": "2a3654a4",
			"lastTap(address)": "369596d2",
			"level(bytes32)": "d34fbc9b",
			"levelDown(bytes32,bytes)": "343c71fb",
			"levelPrice(uint8)": "ecabdf79",
			"levelUp(bytes32,bytes)": "fabf4b16",
			"mintCount(address,bytes32)": "cb92337d",
			"mintWithMetadata(bytes32,bytes)": "3c20f76d",
			"owner()": "8da5cb5b",
			"pauseMinting()": "da8fbf2a",
			"paused()": "5c975abb",
			"phases(bytes32)": "dafe43f1",
			"renounceOwnership()": "715018a6",
			"revokeOperator(address,bytes32,bool,bytes)": "db8c9663",
			"setData(bytes32,bytes)": "7f23690c",
			"setDataBatch(bytes32[],bytes[])": "97902421",
			"setDataBatchForTokenIds(bytes32[],bytes32[],bytes[])": "be9f0e6f",
			"setDataForTokenId(bytes32,bytes32,bytes)": "d6c1407c",
			"supportsInterface(bytes4)": "01ffc9a7",
			"tapIt(bytes32)": "09edf481",
			"tokenIdCounter()": "98bdf6f5",
			"tokenIdsOf(address)": "a3b261f2",
			"tokenOwnerOf(bytes32)": "217b2270",
			"totalSupply()": "18160ddd",
			"transfer(address,address,bytes32,bool,bytes)": "511b6952",
			"transferBatch(address[],address[],bytes32[],bool[],bytes[])": "7e87632c",
			"transferLSP7Token(address,address,uint256,bool,bytes)": "802c90c8",
			"transferOwnership(address)": "f2fde38b",
			"unpauseMinting()": "ae200322",
			"updateActivePhase(bytes32)": "44ae035a",
			"updateAddresses((address,address,address,address,address,address,address,address,address,address))": "3087c08f",
			"updatePPT(uint256)": "8e1f845c",
			"updatePhase(bytes32,string,uint256,uint256,address)": "d764c173",
			"updatePoint(bytes32,uint256,uint8)": "72a591f0",
			"updateWhitelist(address[],uint8)": "e1660bc8",
			"whitelist(address)": "9b19251a",
			"withdrawAll()": "853828b6"
		}
	},
	"abi": [
		{
			"inputs": [
				{
					"components": [
						{
							"internalType": "address",
							"name": "fish",
							"type": "address"
						},
						{
							"internalType": "address",
							"name": "memberCard",
							"type": "address"
						},
						{
							"internalType": "address",
							"name": "rich",
							"type": "address"
						},
						{
							"internalType": "address",
							"name": "fishcan",
							"type": "address"
						},
						{
							"internalType": "address",
							"name": "arattalabs",
							"type": "address"
						},
						{
							"internalType": "address",
							"name": "lukseals",
							"type": "address"
						},
						{
							"internalType": "address",
							"name": "madski",
							"type": "address"
						},
						{
							"internalType": "address",
							"name": "dachriz",
							"type": "address"
						},
						{
							"internalType": "address",
							"name": "arfi",
							"type": "address"
						},
						{
							"internalType": "address",
							"name": "following",
							"type": "address"
						}
					],
					"internalType": "struct LukSeals.ContractAddresses",
					"name": "_defaultAddresses",
					"type": "tuple"
				},
				{
					"internalType": "address[]",
					"name": "_whitelistedAddrs",
					"type": "address[]"
				}
			],
			"stateMutability": "nonpayable",
			"type": "constructor"
		},
		{
			"inputs": [],
			"name": "AlreadyAtMinLevel",
			"type": "error"
		},
		{
			"inputs": [],
			"name": "CooldownPeriodNotPassed",
			"type": "error"
		},
		{
			"inputs": [],
			"name": "ERC725Y_DataKeysValuesEmptyArray",
			"type": "error"
		},
		{
			"inputs": [],
			"name": "ERC725Y_DataKeysValuesLengthMismatch",
			"type": "error"
		},
		{
			"inputs": [],
			"name": "ERC725Y_MsgValueDisallowed",
			"type": "error"
		},
		{
			"inputs": [],
			"name": "EnforcedPause",
			"type": "error"
		},
		{
			"inputs": [],
			"name": "ExpectedPause",
			"type": "error"
		},
		{
			"inputs": [
				{
					"internalType": "uint256",
					"name": "required",
					"type": "uint256"
				},
				{
					"internalType": "uint256",
					"name": "sent",
					"type": "uint256"
				}
			],
			"name": "InsufficientPayment",
			"type": "error"
		},
		{
			"inputs": [],
			"name": "InvalidAddress",
			"type": "error"
		},
		{
			"inputs": [
				{
					"internalType": "bytes",
					"name": "storedData",
					"type": "bytes"
				}
			],
			"name": "InvalidExtensionAddress",
			"type": "error"
		},
		{
			"inputs": [
				{
					"internalType": "bytes",
					"name": "data",
					"type": "bytes"
				}
			],
			"name": "InvalidFunctionSelector",
			"type": "error"
		},
		{
			"inputs": [],
			"name": "LSP4TokenNameNotEditable",
			"type": "error"
		},
		{
			"inputs": [],
			"name": "LSP4TokenSymbolNotEditable",
			"type": "error"
		},
		{
			"inputs": [],
			"name": "LSP4TokenTypeNotEditable",
			"type": "error"
		},
		{
			"inputs": [
				{
					"internalType": "uint256",
					"name": "callIndex",
					"type": "uint256"
				}
			],
			"name": "LSP8BatchCallFailed",
			"type": "error"
		},
		{
			"inputs": [],
			"name": "LSP8CannotSendToAddressZero",
			"type": "error"
		},
		{
			"inputs": [],
			"name": "LSP8CannotUseAddressZeroAsOperator",
			"type": "error"
		},
		{
			"inputs": [],
			"name": "LSP8InvalidTransferBatch",
			"type": "error"
		},
		{
			"inputs": [
				{
					"internalType": "bytes32",
					"name": "tokenId",
					"type": "bytes32"
				}
			],
			"name": "LSP8NonExistentTokenId",
			"type": "error"
		},
		{
			"inputs": [
				{
					"internalType": "address",
					"name": "operator",
					"type": "address"
				},
				{
					"internalType": "bytes32",
					"name": "tokenId",
					"type": "bytes32"
				}
			],
			"name": "LSP8NonExistingOperator",
			"type": "error"
		},
		{
			"inputs": [
				{
					"internalType": "bytes32",
					"name": "tokenId",
					"type": "bytes32"
				},
				{
					"internalType": "address",
					"name": "caller",
					"type": "address"
				}
			],
			"name": "LSP8NotTokenOperator",
			"type": "error"
		},
		{
			"inputs": [
				{
					"internalType": "address",
					"name": "tokenOwner",
					"type": "address"
				},
				{
					"internalType": "bytes32",
					"name": "tokenId",
					"type": "bytes32"
				},
				{
					"internalType": "address",
					"name": "caller",
					"type": "address"
				}
			],
			"name": "LSP8NotTokenOwner",
			"type": "error"
		},
		{
			"inputs": [
				{
					"internalType": "address",
					"name": "tokenReceiver",
					"type": "address"
				}
			],
			"name": "LSP8NotifyTokenReceiverContractMissingLSP1Interface",
			"type": "error"
		},
		{
			"inputs": [
				{
					"internalType": "address",
					"name": "tokenReceiver",
					"type": "address"
				}
			],
			"name": "LSP8NotifyTokenReceiverIsEOA",
			"type": "error"
		},
		{
			"inputs": [
				{
					"internalType": "address",
					"name": "operator",
					"type": "address"
				},
				{
					"internalType": "bytes32",
					"name": "tokenId",
					"type": "bytes32"
				}
			],
			"name": "LSP8OperatorAlreadyAuthorized",
			"type": "error"
		},
		{
			"inputs": [
				{
					"internalType": "address",
					"name": "caller",
					"type": "address"
				},
				{
					"internalType": "address",
					"name": "tokenOwner",
					"type": "address"
				},
				{
					"internalType": "bytes32",
					"name": "tokenId",
					"type": "bytes32"
				}
			],
			"name": "LSP8RevokeOperatorNotAuthorized",
			"type": "error"
		},
		{
			"inputs": [],
			"name": "LSP8TokenContractCannotHoldValue",
			"type": "error"
		},
		{
			"inputs": [
				{
					"internalType": "bytes32",
					"name": "tokenId",
					"type": "bytes32"
				}
			],
			"name": "LSP8TokenIdAlreadyMinted",
			"type": "error"
		},
		{
			"inputs": [],
			"name": "LSP8TokenIdFormatNotEditable",
			"type": "error"
		},
		{
			"inputs": [],
			"name": "LSP8TokenIdsDataEmptyArray",
			"type": "error"
		},
		{
			"inputs": [],
			"name": "LSP8TokenIdsDataLengthMismatch",
			"type": "error"
		},
		{
			"inputs": [],
			"name": "LSP8TokenOwnerCannotBeOperator",
			"type": "error"
		},
		{
			"inputs": [
				{
					"internalType": "bytes32",
					"name": "tokenId",
					"type": "bytes32"
				},
				{
					"internalType": "address",
					"name": "oldOwner",
					"type": "address"
				},
				{
					"internalType": "address",
					"name": "newOwner",
					"type": "address"
				}
			],
			"name": "LSP8TokenOwnerChanged",
			"type": "error"
		},
		{
			"inputs": [],
			"name": "MaxLevelReached",
			"type": "error"
		},
		{
			"inputs": [],
			"name": "MaxMintExceeded",
			"type": "error"
		},
		{
			"inputs": [],
			"name": "MaxMintPerWalletExceeded",
			"type": "error"
		},
		{
			"inputs": [],
			"name": "MaxSupplyExceeded",
			"type": "error"
		},
		{
			"inputs": [
				{
					"internalType": "bytes4",
					"name": "functionSelector",
					"type": "bytes4"
				}
			],
			"name": "NoExtensionFoundForFunctionSelector",
			"type": "error"
		},
		{
			"inputs": [],
			"name": "NotAMemberCardHolder",
			"type": "error"
		},
		{
			"inputs": [
				{
					"internalType": "uint256",
					"name": "requiredXP",
					"type": "uint256"
				},
				{
					"internalType": "uint256",
					"name": "currentXP",
					"type": "uint256"
				}
			],
			"name": "NotEnoughXP",
			"type": "error"
		},
		{
			"inputs": [],
			"name": "NotWhitelisted",
			"type": "error"
		},
		{
			"inputs": [
				{
					"internalType": "address",
					"name": "callerAddress",
					"type": "address"
				}
			],
			"name": "OwnableCallerNotTheOwner",
			"type": "error"
		},
		{
			"inputs": [],
			"name": "OwnableCannotSetZeroAddressAsOwner",
			"type": "error"
		},
		{
			"inputs": [],
			"name": "PhaseNotActive",
			"type": "error"
		},
		{
			"inputs": [],
			"name": "PhaseSupplyExceeded",
			"type": "error"
		},
		{
			"inputs": [],
			"name": "ReentrancyGuardReentrantCall",
			"type": "error"
		},
		{
			"anonymous": false,
			"inputs": [
				{
					"indexed": true,
					"internalType": "address",
					"name": "fish",
					"type": "address"
				},
				{
					"indexed": true,
					"internalType": "address",
					"name": "memberCard",
					"type": "address"
				},
				{
					"indexed": true,
					"internalType": "address",
					"name": "rich",
					"type": "address"
				},
				{
					"indexed": false,
					"internalType": "address",
					"name": "fishcan",
					"type": "address"
				},
				{
					"indexed": false,
					"internalType": "address",
					"name": "arattalabs",
					"type": "address"
				},
				{
					"indexed": false,
					"internalType": "address",
					"name": "lukseals",
					"type": "address"
				},
				{
					"indexed": false,
					"internalType": "address",
					"name": "madski",
					"type": "address"
				},
				{
					"indexed": false,
					"internalType": "address",
					"name": "dachriz",
					"type": "address"
				},
				{
					"indexed": false,
					"internalType": "address",
					"name": "arfi",
					"type": "address"
				},
				{
					"indexed": false,
					"internalType": "address",
					"name": "following",
					"type": "address"
				}
			],
			"name": "AddressesUpdated",
			"type": "event"
		},
		{
			"anonymous": false,
			"inputs": [
				{
					"indexed": true,
					"internalType": "bytes32",
					"name": "dataKey",
					"type": "bytes32"
				},
				{
					"indexed": false,
					"internalType": "bytes",
					"name": "dataValue",
					"type": "bytes"
				}
			],
			"name": "DataChanged",
			"type": "event"
		},
		{
			"anonymous": false,
			"inputs": [
				{
					"indexed": false,
					"internalType": "bytes32",
					"name": "_tokenId",
					"type": "bytes32"
				},
				{
					"indexed": false,
					"internalType": "uint256",
					"name": "_point",
					"type": "uint256"
				},
				{
					"indexed": false,
					"internalType": "uint8",
					"name": "_level",
					"type": "uint8"
				}
			],
			"name": "LevelUpdated",
			"type": "event"
		},
		{
			"anonymous": false,
			"inputs": [
				{
					"indexed": true,
					"internalType": "address",
					"name": "recipient",
					"type": "address"
				},
				{
					"indexed": true,
					"internalType": "bytes32",
					"name": "tokenId",
					"type": "bytes32"
				},
				{
					"indexed": false,
					"internalType": "uint256",
					"name": "timestamp",
					"type": "uint256"
				}
			],
			"name": "Minted",
			"type": "event"
		},
		{
			"anonymous": false,
			"inputs": [
				{
					"indexed": true,
					"internalType": "address",
					"name": "operator",
					"type": "address"
				},
				{
					"indexed": true,
					"internalType": "address",
					"name": "tokenOwner",
					"type": "address"
				},
				{
					"indexed": true,
					"internalType": "bytes32",
					"name": "tokenId",
					"type": "bytes32"
				},
				{
					"indexed": false,
					"internalType": "bytes",
					"name": "operatorNotificationData",
					"type": "bytes"
				}
			],
			"name": "OperatorAuthorizationChanged",
			"type": "event"
		},
		{
			"anonymous": false,
			"inputs": [
				{
					"indexed": true,
					"internalType": "address",
					"name": "operator",
					"type": "address"
				},
				{
					"indexed": true,
					"internalType": "address",
					"name": "tokenOwner",
					"type": "address"
				},
				{
					"indexed": true,
					"internalType": "bytes32",
					"name": "tokenId",
					"type": "bytes32"
				},
				{
					"indexed": false,
					"internalType": "bool",
					"name": "notified",
					"type": "bool"
				},
				{
					"indexed": false,
					"internalType": "bytes",
					"name": "operatorNotificationData",
					"type": "bytes"
				}
			],
			"name": "OperatorRevoked",
			"type": "event"
		},
		{
			"anonymous": false,
			"inputs": [
				{
					"indexed": true,
					"internalType": "address",
					"name": "previousOwner",
					"type": "address"
				},
				{
					"indexed": true,
					"internalType": "address",
					"name": "newOwner",
					"type": "address"
				}
			],
			"name": "OwnershipTransferred",
			"type": "event"
		},
		{
			"anonymous": false,
			"inputs": [
				{
					"indexed": false,
					"internalType": "uint256",
					"name": "newValue",
					"type": "uint256"
				}
			],
			"name": "PPTUpdated",
			"type": "event"
		},
		{
			"anonymous": false,
			"inputs": [
				{
					"indexed": false,
					"internalType": "address",
					"name": "account",
					"type": "address"
				}
			],
			"name": "Paused",
			"type": "event"
		},
		{
			"anonymous": false,
			"inputs": [
				{
					"indexed": true,
					"internalType": "bytes32",
					"name": "phaseName",
					"type": "bytes32"
				},
				{
					"indexed": false,
					"internalType": "string",
					"name": "newBackground",
					"type": "string"
				},
				{
					"indexed": false,
					"internalType": "uint256",
					"name": "newMaxMint",
					"type": "uint256"
				},
				{
					"indexed": false,
					"internalType": "uint256",
					"name": "newPrice",
					"type": "uint256"
				},
				{
					"indexed": false,
					"internalType": "address",
					"name": "newTokenAddress",
					"type": "address"
				}
			],
			"name": "PhaseUpdated",
			"type": "event"
		},
		{
			"anonymous": false,
			"inputs": [
				{
					"indexed": true,
					"internalType": "bytes32",
					"name": "tokenId",
					"type": "bytes32"
				},
				{
					"indexed": true,
					"internalType": "bytes32",
					"name": "dataKey",
					"type": "bytes32"
				},
				{
					"indexed": false,
					"internalType": "bytes",
					"name": "dataValue",
					"type": "bytes"
				}
			],
			"name": "TokenIdDataChanged",
			"type": "event"
		},
		{
			"anonymous": false,
			"inputs": [
				{
					"indexed": false,
					"internalType": "address",
					"name": "operator",
					"type": "address"
				},
				{
					"indexed": true,
					"internalType": "address",
					"name": "from",
					"type": "address"
				},
				{
					"indexed": true,
					"internalType": "address",
					"name": "to",
					"type": "address"
				},
				{
					"indexed": true,
					"internalType": "bytes32",
					"name": "tokenId",
					"type": "bytes32"
				},
				{
					"indexed": false,
					"internalType": "bool",
					"name": "force",
					"type": "bool"
				},
				{
					"indexed": false,
					"internalType": "bytes",
					"name": "data",
					"type": "bytes"
				}
			],
			"name": "Transfer",
			"type": "event"
		},
		{
			"anonymous": false,
			"inputs": [
				{
					"indexed": false,
					"internalType": "address",
					"name": "account",
					"type": "address"
				}
			],
			"name": "Unpaused",
			"type": "event"
		},
		{
			"anonymous": false,
			"inputs": [
				{
					"indexed": true,
					"internalType": "address",
					"name": "whitelistedAddress",
					"type": "address"
				},
				{
					"indexed": false,
					"internalType": "uint8",
					"name": "newCount",
					"type": "uint8"
				}
			],
			"name": "WhitelistUpdated",
			"type": "event"
		},
		{
			"anonymous": false,
			"inputs": [
				{
					"indexed": true,
					"internalType": "address",
					"name": "recipient",
					"type": "address"
				},
				{
					"indexed": false,
					"internalType": "uint256",
					"name": "amount",
					"type": "uint256"
				},
				{
					"indexed": false,
					"internalType": "uint256",
					"name": "timestamp",
					"type": "uint256"
				}
			],
			"name": "Withdrawal",
			"type": "event"
		},
		{
			"stateMutability": "payable",
			"type": "fallback"
		},
		{
			"inputs": [],
			"name": "ARATTALABS",
			"outputs": [
				{
					"internalType": "address",
					"name": "",
					"type": "address"
				}
			],
			"stateMutability": "view",
			"type": "function"
		},
		{
			"inputs": [],
			"name": "ARFI",
			"outputs": [
				{
					"internalType": "address",
					"name": "",
					"type": "address"
				}
			],
			"stateMutability": "view",
			"type": "function"
		},
		{
			"inputs": [],
			"name": "DACHRIZ",
			"outputs": [
				{
					"internalType": "address",
					"name": "",
					"type": "address"
				}
			],
			"stateMutability": "view",
			"type": "function"
		},
		{
			"inputs": [],
			"name": "FISH",
			"outputs": [
				{
					"internalType": "address",
					"name": "",
					"type": "address"
				}
			],
			"stateMutability": "view",
			"type": "function"
		},
		{
			"inputs": [],
			"name": "FISHCAN",
			"outputs": [
				{
					"internalType": "address",
					"name": "",
					"type": "address"
				}
			],
			"stateMutability": "view",
			"type": "function"
		},
		{
			"inputs": [],
			"name": "FOLLOWING",
			"outputs": [
				{
					"internalType": "address",
					"name": "",
					"type": "address"
				}
			],
			"stateMutability": "view",
			"type": "function"
		},
		{
			"inputs": [],
			"name": "LUKSEALS",
			"outputs": [
				{
					"internalType": "address",
					"name": "",
					"type": "address"
				}
			],
			"stateMutability": "view",
			"type": "function"
		},
		{
			"inputs": [],
			"name": "MADSKI",
			"outputs": [
				{
					"internalType": "address",
					"name": "",
					"type": "address"
				}
			],
			"stateMutability": "view",
			"type": "function"
		},
		{
			"inputs": [],
			"name": "MAX_SUPPLY",
			"outputs": [
				{
					"internalType": "uint256",
					"name": "",
					"type": "uint256"
				}
			],
			"stateMutability": "view",
			"type": "function"
		},
		{
			"inputs": [],
			"name": "MEMBER_CARD",
			"outputs": [
				{
					"internalType": "address",
					"name": "",
					"type": "address"
				}
			],
			"stateMutability": "view",
			"type": "function"
		},
		{
			"inputs": [],
			"name": "PHASE_ONE_TWO_SUPPLY_CAP",
			"outputs": [
				{
					"internalType": "uint32",
					"name": "",
					"type": "uint32"
				}
			],
			"stateMutability": "view",
			"type": "function"
		},
		{
			"inputs": [],
			"name": "PPT",
			"outputs": [
				{
					"internalType": "uint256",
					"name": "",
					"type": "uint256"
				}
			],
			"stateMutability": "view",
			"type": "function"
		},
		{
			"inputs": [],
			"name": "RICH",
			"outputs": [
				{
					"internalType": "address",
					"name": "",
					"type": "address"
				}
			],
			"stateMutability": "view",
			"type": "function"
		},
		{
			"inputs": [],
			"name": "VERSION",
			"outputs": [
				{
					"internalType": "bytes",
					"name": "",
					"type": "bytes"
				}
			],
			"stateMutability": "view",
			"type": "function"
		},
		{
			"inputs": [],
			"name": "activePhase",
			"outputs": [
				{
					"internalType": "bytes32",
					"name": "",
					"type": "bytes32"
				}
			],
			"stateMutability": "view",
			"type": "function"
		},
		{
			"inputs": [
				{
					"internalType": "address",
					"name": "operator",
					"type": "address"
				},
				{
					"internalType": "bytes32",
					"name": "tokenId",
					"type": "bytes32"
				},
				{
					"internalType": "bytes",
					"name": "operatorNotificationData",
					"type": "bytes"
				}
			],
			"name": "authorizeOperator",
			"outputs": [],
			"stateMutability": "nonpayable",
			"type": "function"
		},
		{
			"inputs": [
				{
					"internalType": "address",
					"name": "tokenOwner",
					"type": "address"
				}
			],
			"name": "balanceOf",
			"outputs": [
				{
					"internalType": "uint256",
					"name": "",
					"type": "uint256"
				}
			],
			"stateMutability": "view",
			"type": "function"
		},
		{
			"inputs": [
				{
					"internalType": "bytes[]",
					"name": "data",
					"type": "bytes[]"
				}
			],
			"name": "batchCalls",
			"outputs": [
				{
					"internalType": "bytes[]",
					"name": "results",
					"type": "bytes[]"
				}
			],
			"stateMutability": "nonpayable",
			"type": "function"
		},
		{
			"inputs": [
				{
					"internalType": "bytes32",
					"name": "_tokenId",
					"type": "bytes32"
				},
				{
					"internalType": "uint256",
					"name": "_amount",
					"type": "uint256"
				},
				{
					"internalType": "bytes",
					"name": "_data",
					"type": "bytes"
				}
			],
			"name": "burnFish",
			"outputs": [],
			"stateMutability": "nonpayable",
			"type": "function"
		},
		{
			"inputs": [
				{
					"internalType": "bytes32",
					"name": "dataKey",
					"type": "bytes32"
				}
			],
			"name": "getData",
			"outputs": [
				{
					"internalType": "bytes",
					"name": "dataValue",
					"type": "bytes"
				}
			],
			"stateMutability": "view",
			"type": "function"
		},
		{
			"inputs": [
				{
					"internalType": "bytes32[]",
					"name": "dataKeys",
					"type": "bytes32[]"
				}
			],
			"name": "getDataBatch",
			"outputs": [
				{
					"internalType": "bytes[]",
					"name": "dataValues",
					"type": "bytes[]"
				}
			],
			"stateMutability": "view",
			"type": "function"
		},
		{
			"inputs": [
				{
					"internalType": "bytes32[]",
					"name": "tokenIds",
					"type": "bytes32[]"
				},
				{
					"internalType": "bytes32[]",
					"name": "dataKeys",
					"type": "bytes32[]"
				}
			],
			"name": "getDataBatchForTokenIds",
			"outputs": [
				{
					"internalType": "bytes[]",
					"name": "dataValues",
					"type": "bytes[]"
				}
			],
			"stateMutability": "view",
			"type": "function"
		},
		{
			"inputs": [
				{
					"internalType": "bytes32",
					"name": "tokenId",
					"type": "bytes32"
				},
				{
					"internalType": "bytes32",
					"name": "dataKey",
					"type": "bytes32"
				}
			],
			"name": "getDataForTokenId",
			"outputs": [
				{
					"internalType": "bytes",
					"name": "dataValue",
					"type": "bytes"
				}
			],
			"stateMutability": "view",
			"type": "function"
		},
		{
			"inputs": [
				{
					"internalType": "bytes32",
					"name": "tokenId",
					"type": "bytes32"
				}
			],
			"name": "getOperatorsOf",
			"outputs": [
				{
					"internalType": "address[]",
					"name": "",
					"type": "address[]"
				}
			],
			"stateMutability": "view",
			"type": "function"
		},
		{
			"inputs": [],
			"name": "initialize",
			"outputs": [],
			"stateMutability": "nonpayable",
			"type": "function"
		},
		{
			"inputs": [],
			"name": "initialized",
			"outputs": [
				{
					"internalType": "bool",
					"name": "",
					"type": "bool"
				}
			],
			"stateMutability": "view",
			"type": "function"
		},
		{
			"inputs": [
				{
					"internalType": "address",
					"name": "operator",
					"type": "address"
				},
				{
					"internalType": "bytes32",
					"name": "tokenId",
					"type": "bytes32"
				}
			],
			"name": "isOperatorFor",
			"outputs": [
				{
					"internalType": "bool",
					"name": "",
					"type": "bool"
				}
			],
			"stateMutability": "view",
			"type": "function"
		},
		{
			"inputs": [
				{
					"internalType": "address",
					"name": "",
					"type": "address"
				}
			],
			"name": "lastTap",
			"outputs": [
				{
					"internalType": "uint256",
					"name": "",
					"type": "uint256"
				}
			],
			"stateMutability": "view",
			"type": "function"
		},
		{
			"inputs": [
				{
					"internalType": "bytes32",
					"name": "",
					"type": "bytes32"
				}
			],
			"name": "level",
			"outputs": [
				{
					"internalType": "uint256",
					"name": "xp",
					"type": "uint256"
				},
				{
					"internalType": "uint8",
					"name": "level",
					"type": "uint8"
				}
			],
			"stateMutability": "view",
			"type": "function"
		},
		{
			"inputs": [
				{
					"internalType": "bytes32",
					"name": "_tokenId",
					"type": "bytes32"
				},
				{
					"internalType": "bytes",
					"name": "_metadata",
					"type": "bytes"
				}
			],
			"name": "levelDown",
			"outputs": [],
			"stateMutability": "nonpayable",
			"type": "function"
		},
		{
			"inputs": [
				{
					"internalType": "uint8",
					"name": "",
					"type": "uint8"
				}
			],
			"name": "levelPrice",
			"outputs": [
				{
					"internalType": "uint256",
					"name": "",
					"type": "uint256"
				}
			],
			"stateMutability": "view",
			"type": "function"
		},
		{
			"inputs": [
				{
					"internalType": "bytes32",
					"name": "_tokenId",
					"type": "bytes32"
				},
				{
					"internalType": "bytes",
					"name": "_metadata",
					"type": "bytes"
				}
			],
			"name": "levelUp",
			"outputs": [],
			"stateMutability": "nonpayable",
			"type": "function"
		},
		{
			"inputs": [
				{
					"internalType": "address",
					"name": "",
					"type": "address"
				},
				{
					"internalType": "bytes32",
					"name": "",
					"type": "bytes32"
				}
			],
			"name": "mintCount",
			"outputs": [
				{
					"internalType": "uint8",
					"name": "",
					"type": "uint8"
				}
			],
			"stateMutability": "view",
			"type": "function"
		},
		{
			"inputs": [
				{
					"internalType": "bytes32",
					"name": "_phaseName",
					"type": "bytes32"
				},
				{
					"internalType": "bytes",
					"name": "_metadata",
					"type": "bytes"
				}
			],
			"name": "mintWithMetadata",
			"outputs": [
				{
					"internalType": "bytes32",
					"name": "",
					"type": "bytes32"
				}
			],
			"stateMutability": "payable",
			"type": "function"
		},
		{
			"inputs": [],
			"name": "owner",
			"outputs": [
				{
					"internalType": "address",
					"name": "",
					"type": "address"
				}
			],
			"stateMutability": "view",
			"type": "function"
		},
		{
			"inputs": [],
			"name": "pauseMinting",
			"outputs": [],
			"stateMutability": "nonpayable",
			"type": "function"
		},
		{
			"inputs": [],
			"name": "paused",
			"outputs": [
				{
					"internalType": "bool",
					"name": "",
					"type": "bool"
				}
			],
			"stateMutability": "view",
			"type": "function"
		},
		{
			"inputs": [
				{
					"internalType": "bytes32",
					"name": "",
					"type": "bytes32"
				}
			],
			"name": "phases",
			"outputs": [
				{
					"internalType": "string",
					"name": "background",
					"type": "string"
				},
				{
					"internalType": "uint256",
					"name": "maxMintPerWallet",
					"type": "uint256"
				},
				{
					"internalType": "uint256",
					"name": "price",
					"type": "uint256"
				},
				{
					"internalType": "address",
					"name": "tokenAddress",
					"type": "address"
				}
			],
			"stateMutability": "view",
			"type": "function"
		},
		{
			"inputs": [],
			"name": "renounceOwnership",
			"outputs": [],
			"stateMutability": "nonpayable",
			"type": "function"
		},
		{
			"inputs": [
				{
					"internalType": "address",
					"name": "operator",
					"type": "address"
				},
				{
					"internalType": "bytes32",
					"name": "tokenId",
					"type": "bytes32"
				},
				{
					"internalType": "bool",
					"name": "notify",
					"type": "bool"
				},
				{
					"internalType": "bytes",
					"name": "operatorNotificationData",
					"type": "bytes"
				}
			],
			"name": "revokeOperator",
			"outputs": [],
			"stateMutability": "nonpayable",
			"type": "function"
		},
		{
			"inputs": [
				{
					"internalType": "bytes32",
					"name": "dataKey",
					"type": "bytes32"
				},
				{
					"internalType": "bytes",
					"name": "dataValue",
					"type": "bytes"
				}
			],
			"name": "setData",
			"outputs": [],
			"stateMutability": "payable",
			"type": "function"
		},
		{
			"inputs": [
				{
					"internalType": "bytes32[]",
					"name": "dataKeys",
					"type": "bytes32[]"
				},
				{
					"internalType": "bytes[]",
					"name": "dataValues",
					"type": "bytes[]"
				}
			],
			"name": "setDataBatch",
			"outputs": [],
			"stateMutability": "payable",
			"type": "function"
		},
		{
			"inputs": [
				{
					"internalType": "bytes32[]",
					"name": "tokenIds",
					"type": "bytes32[]"
				},
				{
					"internalType": "bytes32[]",
					"name": "dataKeys",
					"type": "bytes32[]"
				},
				{
					"internalType": "bytes[]",
					"name": "dataValues",
					"type": "bytes[]"
				}
			],
			"name": "setDataBatchForTokenIds",
			"outputs": [],
			"stateMutability": "nonpayable",
			"type": "function"
		},
		{
			"inputs": [
				{
					"internalType": "bytes32",
					"name": "tokenId",
					"type": "bytes32"
				},
				{
					"internalType": "bytes32",
					"name": "dataKey",
					"type": "bytes32"
				},
				{
					"internalType": "bytes",
					"name": "dataValue",
					"type": "bytes"
				}
			],
			"name": "setDataForTokenId",
			"outputs": [],
			"stateMutability": "nonpayable",
			"type": "function"
		},
		{
			"inputs": [
				{
					"internalType": "bytes4",
					"name": "interfaceId",
					"type": "bytes4"
				}
			],
			"name": "supportsInterface",
			"outputs": [
				{
					"internalType": "bool",
					"name": "",
					"type": "bool"
				}
			],
			"stateMutability": "view",
			"type": "function"
		},
		{
			"inputs": [
				{
					"internalType": "bytes32",
					"name": "_tokenId",
					"type": "bytes32"
				}
			],
			"name": "tapIt",
			"outputs": [],
			"stateMutability": "nonpayable",
			"type": "function"
		},
		{
			"inputs": [],
			"name": "tokenIdCounter",
			"outputs": [
				{
					"internalType": "uint256",
					"name": "_value",
					"type": "uint256"
				}
			],
			"stateMutability": "view",
			"type": "function"
		},
		{
			"inputs": [
				{
					"internalType": "address",
					"name": "tokenOwner",
					"type": "address"
				}
			],
			"name": "tokenIdsOf",
			"outputs": [
				{
					"internalType": "bytes32[]",
					"name": "",
					"type": "bytes32[]"
				}
			],
			"stateMutability": "view",
			"type": "function"
		},
		{
			"inputs": [
				{
					"internalType": "bytes32",
					"name": "tokenId",
					"type": "bytes32"
				}
			],
			"name": "tokenOwnerOf",
			"outputs": [
				{
					"internalType": "address",
					"name": "",
					"type": "address"
				}
			],
			"stateMutability": "view",
			"type": "function"
		},
		{
			"inputs": [],
			"name": "totalSupply",
			"outputs": [
				{
					"internalType": "uint256",
					"name": "",
					"type": "uint256"
				}
			],
			"stateMutability": "view",
			"type": "function"
		},
		{
			"inputs": [
				{
					"internalType": "address",
					"name": "from",
					"type": "address"
				},
				{
					"internalType": "address",
					"name": "to",
					"type": "address"
				},
				{
					"internalType": "bytes32",
					"name": "tokenId",
					"type": "bytes32"
				},
				{
					"internalType": "bool",
					"name": "force",
					"type": "bool"
				},
				{
					"internalType": "bytes",
					"name": "data",
					"type": "bytes"
				}
			],
			"name": "transfer",
			"outputs": [],
			"stateMutability": "nonpayable",
			"type": "function"
		},
		{
			"inputs": [
				{
					"internalType": "address[]",
					"name": "from",
					"type": "address[]"
				},
				{
					"internalType": "address[]",
					"name": "to",
					"type": "address[]"
				},
				{
					"internalType": "bytes32[]",
					"name": "tokenId",
					"type": "bytes32[]"
				},
				{
					"internalType": "bool[]",
					"name": "force",
					"type": "bool[]"
				},
				{
					"internalType": "bytes[]",
					"name": "data",
					"type": "bytes[]"
				}
			],
			"name": "transferBatch",
			"outputs": [],
			"stateMutability": "nonpayable",
			"type": "function"
		},
		{
			"inputs": [
				{
					"internalType": "address",
					"name": "_LSP7Token",
					"type": "address"
				},
				{
					"internalType": "address",
					"name": "_to",
					"type": "address"
				},
				{
					"internalType": "uint256",
					"name": "_amount",
					"type": "uint256"
				},
				{
					"internalType": "bool",
					"name": "_force",
					"type": "bool"
				},
				{
					"internalType": "bytes",
					"name": "_data",
					"type": "bytes"
				}
			],
			"name": "transferLSP7Token",
			"outputs": [],
			"stateMutability": "nonpayable",
			"type": "function"
		},
		{
			"inputs": [
				{
					"internalType": "address",
					"name": "newOwner",
					"type": "address"
				}
			],
			"name": "transferOwnership",
			"outputs": [],
			"stateMutability": "nonpayable",
			"type": "function"
		},
		{
			"inputs": [],
			"name": "unpauseMinting",
			"outputs": [],
			"stateMutability": "nonpayable",
			"type": "function"
		},
		{
			"inputs": [
				{
					"internalType": "bytes32",
					"name": "_phaseName",
					"type": "bytes32"
				}
			],
			"name": "updateActivePhase",
			"outputs": [],
			"stateMutability": "nonpayable",
			"type": "function"
		},
		{
			"inputs": [
				{
					"components": [
						{
							"internalType": "address",
							"name": "fish",
							"type": "address"
						},
						{
							"internalType": "address",
							"name": "memberCard",
							"type": "address"
						},
						{
							"internalType": "address",
							"name": "rich",
							"type": "address"
						},
						{
							"internalType": "address",
							"name": "fishcan",
							"type": "address"
						},
						{
							"internalType": "address",
							"name": "arattalabs",
							"type": "address"
						},
						{
							"internalType": "address",
							"name": "lukseals",
							"type": "address"
						},
						{
							"internalType": "address",
							"name": "madski",
							"type": "address"
						},
						{
							"internalType": "address",
							"name": "dachriz",
							"type": "address"
						},
						{
							"internalType": "address",
							"name": "arfi",
							"type": "address"
						},
						{
							"internalType": "address",
							"name": "following",
							"type": "address"
						}
					],
					"internalType": "struct LukSeals.ContractAddresses",
					"name": "_newAddresses",
					"type": "tuple"
				}
			],
			"name": "updateAddresses",
			"outputs": [],
			"stateMutability": "nonpayable",
			"type": "function"
		},
		{
			"inputs": [
				{
					"internalType": "uint256",
					"name": "_newValue",
					"type": "uint256"
				}
			],
			"name": "updatePPT",
			"outputs": [],
			"stateMutability": "nonpayable",
			"type": "function"
		},
		{
			"inputs": [
				{
					"internalType": "bytes32",
					"name": "_phaseName",
					"type": "bytes32"
				},
				{
					"internalType": "string",
					"name": "_background",
					"type": "string"
				},
				{
					"internalType": "uint256",
					"name": "_maxMintPerWallet",
					"type": "uint256"
				},
				{
					"internalType": "uint256",
					"name": "_price",
					"type": "uint256"
				},
				{
					"internalType": "address",
					"name": "_tokenAddress",
					"type": "address"
				}
			],
			"name": "updatePhase",
			"outputs": [],
			"stateMutability": "nonpayable",
			"type": "function"
		},
		{
			"inputs": [
				{
					"internalType": "bytes32",
					"name": "_tokenId",
					"type": "bytes32"
				},
				{
					"internalType": "uint256",
					"name": "_point",
					"type": "uint256"
				},
				{
					"internalType": "uint8",
					"name": "_level",
					"type": "uint8"
				}
			],
			"name": "updatePoint",
			"outputs": [],
			"stateMutability": "nonpayable",
			"type": "function"
		},
		{
			"inputs": [
				{
					"internalType": "address[]",
					"name": "_addrs",
					"type": "address[]"
				},
				{
					"internalType": "uint8",
					"name": "_count",
					"type": "uint8"
				}
			],
			"name": "updateWhitelist",
			"outputs": [],
			"stateMutability": "nonpayable",
			"type": "function"
		},
		{
			"inputs": [
				{
					"internalType": "address",
					"name": "",
					"type": "address"
				}
			],
			"name": "whitelist",
			"outputs": [
				{
					"internalType": "uint8",
					"name": "",
					"type": "uint8"
				}
			],
			"stateMutability": "view",
			"type": "function"
		},
		{
			"inputs": [],
			"name": "withdrawAll",
			"outputs": [],
			"stateMutability": "nonpayable",
			"type": "function"
		},
		{
			"stateMutability": "payable",
			"type": "receive"
		}
	]
}