{
	"data": {
		"bytecode": {
			"linkReferences": {},
			"object": "608060405269021e19e0c9bab240000060035534801561001d575f80fd5b50604051611d6e380380611d6e833981810160405281019061003f9190610413565b335f73ffffffffffffffffffffffffffffffffffffffff168173ffffffffffffffffffffffffffffffffffffffff16036100b0575f6040517f1e4fbdf70000000000000000000000000000000000000000000000000000000081526004016100a7919061044d565b60405180910390fd5b6100bf8161014960201b60201c565b505f8060146101000a81548160ff0219169083151502179055508060025f6101000a81548173ffffffffffffffffffffffffffffffffffffffff021916908373ffffffffffffffffffffffffffffffffffffffff160217905550610142600342610129919061049c565b610e1042610137919061049c565b61020a60201b60201c565b5050610631565b5f805f9054906101000a900473ffffffffffffffffffffffffffffffffffffffff169050815f806101000a81548173ffffffffffffffffffffffffffffffffffffffff021916908373ffffffffffffffffffffffffffffffffffffffff1602179055508173ffffffffffffffffffffffffffffffffffffffff168173ffffffffffffffffffffffffffffffffffffffff167f8be0079c531659141344cd1fd0a4f28419497f9722a3daafe3b4186f6b6457e060405160405180910390a35050565b5f6102196102ee60201b60201c565b42831161025b576040517f08c379a00000000000000000000000000000000000000000000000000000000081526004016102529061054f565b60405180910390fd5b82821161029d576040517f08c379a0000000000000000000000000000000000000000000000000000000008152600401610294906105dd565b60405180910390fd5b82600481905550816005819055507f0d11d4857e2a1e57763b1e82593ab10724d8921ab26f0c8945e4bee89dfb187283836040516102dc92919061060a565b60405180910390a16001905092915050565b6102fc61038760201b60201c565b73ffffffffffffffffffffffffffffffffffffffff1661032061038e60201b60201c565b73ffffffffffffffffffffffffffffffffffffffff16146103855761034961038760201b60201c565b6040517f118cdaa700000000000000000000000000000000000000000000000000000000815260040161037c919061044d565b60405180910390fd5b565b5f33905090565b5f805f9054906101000a900473ffffffffffffffffffffffffffffffffffffffff16905090565b5f80fd5b5f73ffffffffffffffffffffffffffffffffffffffff82169050919050565b5f6103e2826103b9565b9050919050565b6103f2816103d8565b81146103fc575f80fd5b50565b5f8151905061040d816103e9565b92915050565b5f60208284031215610428576104276103b5565b5b5f610435848285016103ff565b91505092915050565b610447816103d8565b82525050565b5f6020820190506104605f83018461043e565b92915050565b5f819050919050565b7f4e487b71000000000000000000000000000000000000000000000000000000005f52601160045260245ffd5b5f6104a682610466565b91506104b183610466565b92508282019050808211156104c9576104c861046f565b5b92915050565b5f82825260208201905092915050565b7f53746172742074696d65206d7573742062652067726561746572207468616e205f8201527f63757272656e742074696d650000000000000000000000000000000000000000602082015250565b5f610539602c836104cf565b9150610544826104df565b604082019050919050565b5f6020820190508181035f8301526105668161052d565b9050919050565b7f456e642074696d65206d7573742062652067726561746572207468616e2073745f8201527f6172742074696d65000000000000000000000000000000000000000000000000602082015250565b5f6105c76028836104cf565b91506105d28261056d565b604082019050919050565b5f6020820190508181035f8301526105f4816105bb565b9050919050565b61060481610466565b82525050565b5f60408201905061061d5f8301856105fb565b61062a60208301846105fb565b9392505050565b6117308061063e5f395ff3fe608060405234801561000f575f80fd5b506004361061012a575f3560e01c806368226a78116100ab578063a37b06d41161006f578063a37b06d4146102f8578063b8de434314610328578063e20d810f14610344578063f2fde38b14610364578063fb2228fe146103805761012a565b806368226a7814610266578063715018a6146102965780638456cb59146102a05780638da5cb5b146102aa578063a2b26dfe146102c85761012a565b80632f8bc0ef116100f25780632f8bc0ef146101e85780633ccfd60b146102185780633f4ba83a1461022257806356a6d9ef1461022c5780635c975abb146102485761012a565b806303a1f5221461012e57806312065fe01461015e57806316ada5471461017c5780631c719d8b1461019a5780632830d69f146101b8575b5f80fd5b61014860048036038101906101439190610ebb565b61039e565b6040516101559190610f00565b60405180910390f35b6101666103f7565b6040516101739190610f28565b60405180910390f35b6101846103fe565b6040516101919190610f28565b60405180910390f35b6101a2610405565b6040516101af9190610f80565b60405180910390f35b6101d260048036038101906101cd9190610fc3565b61042a565b6040516101df9190610f00565b60405180910390f35b61020260048036038101906101fd9190611154565b6104b3565b60405161020f9190610f00565b60405180910390f35b61022061075a565b005b61022a610819565b005b610246600480360381019061024191906111e9565b61082b565b005b6102506108e0565b60405161025d9190610f00565b60405180910390f35b610280600480360381019061027b9190610fc3565b6108f5565b60405161028d9190610f28565b60405180910390f35b61029e61090a565b005b6102a861091d565b005b6102b261092f565b6040516102bf9190610f80565b60405180910390f35b6102e260048036038101906102dd9190611227565b610956565b6040516102ef9190610f00565b60405180910390f35b610312600480360381019061030d9190611227565b610a34565b60405161031f9190610f28565b60405180910390f35b610342600480360381019061033d9190611265565b610a6d565b005b61034c610aea565b60405161035b939291906112f8565b60405180910390f35b61037e60048036038101906103799190610fc3565b610b41565b005b610388610bc5565b6040516103959190610f28565b60405180910390f35b5f6103a7610bd0565b816003819055507fa2d24afdf596fd587984cd4bdc1940b8b777107510813b4d99d10725231a9f2b826103d8610c57565b6040516103e692919061132d565b60405180910390a160019050919050565b5f47905090565b5f42905090565b60025f9054906101000a900473ffffffffffffffffffffffffffffffffffffffff1681565b5f610433610bd0565b8160025f6101000a81548173ffffffffffffffffffffffffffffffffffffffff021916908373ffffffffffffffffffffffffffffffffffffffff1602179055507fe2f132523adf4305409802cb06662e9e8c1785842fc4ac0db0c39b86b2be542c826040516104a29190610f80565b60405180910390a160019050919050565b5f6104bc610c5e565b426005541015610505576005546040517f691e56820000000000000000000000000000000000000000000000000000000081526004016104fc9190610f28565b60405180910390fd5b5f60065f610511610c57565b73ffffffffffffffffffffffffffffffffffffffff1673ffffffffffffffffffffffffffffffffffffffff1681526020019081526020015f205411801561059d575060045460065f610561610c57565b73ffffffffffffffffffffffffffffffffffffffff1673ffffffffffffffffffffffffffffffffffffffff1681526020019081526020015f2054115b156106235760065f6105ad610c57565b73ffffffffffffffffffffffffffffffffffffffff1673ffffffffffffffffffffffffffffffffffffffff1681526020019081526020015f20546040517f8bd6eb1a00000000000000000000000000000000000000000000000000000000815260040161061a9190610f28565b60405180910390fd5b61062d6001610c9f565b4260065f610639610c57565b73ffffffffffffffffffffffffffffffffffffffff1673ffffffffffffffffffffffffffffffffffffffff1681526020019081526020015f208190555060025f9054906101000a900473ffffffffffffffffffffffffffffffffffffffff1673ffffffffffffffffffffffffffffffffffffffff1663760d9bba306106bc610c57565b60035487876040518663ffffffff1660e01b81526004016106e19594939291906113b4565b5f604051808303815f87803b1580156106f8575f80fd5b505af115801561070a573d5f803e3d5ffd5b505050507fd8138f8a3f377c5259ca548e70e4c2de94f129f5a11036a15b69513cba2b426a610737610c57565b60035460405161074892919061140c565b60405180910390a16001905092915050565b610762610bd0565b5f4790505f61076f61092f565b73ffffffffffffffffffffffffffffffffffffffff168260405161079290611460565b5f6040518083038185875af1925050503d805f81146107cc576040519150601f19603f3d011682016040523d82523d5f602084013e6107d1565b606091505b5050905080610815576040517f08c379a000000000000000000000000000000000000000000000000000000000815260040161080c906114ce565b60405180910390fd5b5050565b610821610bd0565b610829610cb3565b565b610833610bd0565b5f8273ffffffffffffffffffffffffffffffffffffffff168260405161085890611460565b5f6040518083038185875af1925050503d805f8114610892576040519150601f19603f3d011682016040523d82523d5f602084013e610897565b606091505b50509050806108db576040517f08c379a00000000000000000000000000000000000000000000000000000000081526004016108d2906114ce565b60405180910390fd5b505050565b5f8060149054906101000a900460ff16905090565b6006602052805f5260405f205f915090505481565b610912610bd0565b61091b5f610d14565b565b610925610bd0565b61092d610dd5565b565b5f805f9054906101000a900473ffffffffffffffffffffffffffffffffffffffff16905090565b5f61095f610bd0565b4283116109a1576040517f08c379a00000000000000000000000000000000000000000000000000000000081526004016109989061155c565b60405180910390fd5b8282116109e3576040517f08c379a00000000000000000000000000000000000000000000000000000000081526004016109da906115ea565b60405180910390fd5b82600481905550816005819055507f0d11d4857e2a1e57763b1e82593ab10724d8921ab26f0c8945e4bee89dfb18728383604051610a22929190611608565b60405180910390a16001905092915050565b5f60648284610a43919061165c565b1015610a4d575f80fd5b60648284610a5b919061165c565b610a6591906116ca565b905092915050565b610a75610bd0565b8473ffffffffffffffffffffffffffffffffffffffff1663760d9bba30868686866040518663ffffffff1660e01b8152600401610ab69594939291906113b4565b5f604051808303815f87803b158015610acd575f80fd5b505af1158015610adf573d5f803e3d5ffd5b505050505050505050565b5f805f610af5610c5e565b426004541115610b11575f600454600554925092509250610b3c565b426005541015610b2d575f600454600554925092509250610b3c565b60016004546005549250925092505b909192565b610b49610bd0565b5f73ffffffffffffffffffffffffffffffffffffffff168173ffffffffffffffffffffffffffffffffffffffff1603610bb9575f6040517f1e4fbdf7000000000000000000000000000000000000000000000000000000008152600401610bb09190610f80565b60405180910390fd5b610bc281610d14565b50565b6001805f0154905081565b610bd8610c57565b73ffffffffffffffffffffffffffffffffffffffff16610bf661092f565b73ffffffffffffffffffffffffffffffffffffffff1614610c5557610c19610c57565b6040517f118cdaa7000000000000000000000000000000000000000000000000000000008152600401610c4c9190610f80565b60405180910390fd5b565b5f33905090565b610c666108e0565b15610c9d576040517fd93c066500000000000000000000000000000000000000000000000000000000815260040160405180910390fd5b565b6001815f015f828254019250508190555050565b610cbb610e37565b5f8060146101000a81548160ff0219169083151502179055507f5db9ee0a495bf2e6ff9c91a7834c1ba4fdd244a5e8aa4e537bd38aeae4b073aa610cfd610c57565b604051610d0a9190610f80565b60405180910390a1565b5f805f9054906101000a900473ffffffffffffffffffffffffffffffffffffffff169050815f806101000a81548173ffffffffffffffffffffffffffffffffffffffff021916908373ffffffffffffffffffffffffffffffffffffffff1602179055508173ffffffffffffffffffffffffffffffffffffffff168173ffffffffffffffffffffffffffffffffffffffff167f8be0079c531659141344cd1fd0a4f28419497f9722a3daafe3b4186f6b6457e060405160405180910390a35050565b610ddd610c5e565b60015f60146101000a81548160ff0219169083151502179055507f62e78cea01bee320cd4e420270b5ea74000d11b0c9f74754ebdbfc544b05a258610e20610c57565b604051610e2d9190610f80565b60405180910390a1565b610e3f6108e0565b610e75576040517f8dfc202b00000000000000000000000000000000000000000000000000000000815260040160405180910390fd5b565b5f604051905090565b5f80fd5b5f80fd5b5f819050919050565b610e9a81610e88565b8114610ea4575f80fd5b50565b5f81359050610eb581610e91565b92915050565b5f60208284031215610ed057610ecf610e80565b5b5f610edd84828501610ea7565b91505092915050565b5f8115159050919050565b610efa81610ee6565b82525050565b5f602082019050610f135f830184610ef1565b92915050565b610f2281610e88565b82525050565b5f602082019050610f3b5f830184610f19565b92915050565b5f73ffffffffffffffffffffffffffffffffffffffff82169050919050565b5f610f6a82610f41565b9050919050565b610f7a81610f60565b82525050565b5f602082019050610f935f830184610f71565b92915050565b610fa281610f60565b8114610fac575f80fd5b50565b5f81359050610fbd81610f99565b92915050565b5f60208284031215610fd857610fd7610e80565b5b5f610fe584828501610faf565b91505092915050565b610ff781610ee6565b8114611001575f80fd5b50565b5f8135905061101281610fee565b92915050565b5f80fd5b5f80fd5b5f601f19601f8301169050919050565b7f4e487b71000000000000000000000000000000000000000000000000000000005f52604160045260245ffd5b61106682611020565b810181811067ffffffffffffffff8211171561108557611084611030565b5b80604052505050565b5f611097610e77565b90506110a3828261105d565b919050565b5f67ffffffffffffffff8211156110c2576110c1611030565b5b6110cb82611020565b9050602081019050919050565b828183375f83830152505050565b5f6110f86110f3846110a8565b61108e565b9050828152602081018484840111156111145761111361101c565b5b61111f8482856110d8565b509392505050565b5f82601f83011261113b5761113a611018565b5b813561114b8482602086016110e6565b91505092915050565b5f806040838503121561116a57611169610e80565b5b5f61117785828601611004565b925050602083013567ffffffffffffffff81111561119857611197610e84565b5b6111a485828601611127565b9150509250929050565b5f6111b882610f41565b9050919050565b6111c8816111ae565b81146111d2575f80fd5b50565b5f813590506111e3816111bf565b92915050565b5f80604083850312156111ff576111fe610e80565b5b5f61120c858286016111d5565b925050602061121d85828601610ea7565b9150509250929050565b5f806040838503121561123d5761123c610e80565b5b5f61124a85828601610ea7565b925050602061125b85828601610ea7565b9150509250929050565b5f805f805f60a0868803121561127e5761127d610e80565b5b5f61128b88828901610faf565b955050602061129c88828901610faf565b94505060406112ad88828901610ea7565b93505060606112be88828901611004565b925050608086013567ffffffffffffffff8111156112df576112de610e84565b5b6112eb88828901611127565b9150509295509295909350565b5f60608201905061130b5f830186610ef1565b6113186020830185610f19565b6113256040830184610f19565b949350505050565b5f6040820190506113405f830185610f19565b61134d6020830184610f71565b9392505050565b5f81519050919050565b5f82825260208201905092915050565b8281835e5f83830152505050565b5f61138682611354565b611390818561135e565b93506113a081856020860161136e565b6113a981611020565b840191505092915050565b5f60a0820190506113c75f830188610f71565b6113d46020830187610f71565b6113e16040830186610f19565b6113ee6060830185610ef1565b8181036080830152611400818461137c565b90509695505050505050565b5f60408201905061141f5f830185610f71565b61142c6020830184610f19565b9392505050565b5f81905092915050565b50565b5f61144b5f83611433565b91506114568261143d565b5f82019050919050565b5f61146a82611440565b9150819050919050565b5f82825260208201905092915050565b7f4661696c656400000000000000000000000000000000000000000000000000005f82015250565b5f6114b8600683611474565b91506114c382611484565b602082019050919050565b5f6020820190508181035f8301526114e5816114ac565b9050919050565b7f53746172742074696d65206d7573742062652067726561746572207468616e205f8201527f63757272656e742074696d650000000000000000000000000000000000000000602082015250565b5f611546602c83611474565b9150611551826114ec565b604082019050919050565b5f6020820190508181035f8301526115738161153a565b9050919050565b7f456e642074696d65206d7573742062652067726561746572207468616e2073745f8201527f6172742074696d65000000000000000000000000000000000000000000000000602082015250565b5f6115d4602883611474565b91506115df8261157a565b604082019050919050565b5f6020820190508181035f830152611601816115c8565b9050919050565b5f60408201905061161b5f830185610f19565b6116286020830184610f19565b9392505050565b7f4e487b71000000000000000000000000000000000000000000000000000000005f52601160045260245ffd5b5f61166682610e88565b915061167183610e88565b925082820261167f81610e88565b915082820484148315176116965761169561162f565b5b5092915050565b7f4e487b71000000000000000000000000000000000000000000000000000000005f52601260045260245ffd5b5f6116d482610e88565b91506116df83610e88565b9250826116ef576116ee61169d565b5b82820490509291505056fea264697066735822122020db1ede9d1d59633422819b1682b73a85f0fb3079a711a04a27b451b8a8f7eb64736f6c634300081a0033",
			"opcodes": "PUSH1 0x80 PUSH1 0x40 MSTORE PUSH10 0x21E19E0C9BAB2400000 PUSH1 0x3 SSTORE CALLVALUE DUP1 ISZERO PUSH2 0x1D JUMPI PUSH0 DUP1 REVERT JUMPDEST POP PUSH1 0x40 MLOAD PUSH2 0x1D6E CODESIZE SUB DUP1 PUSH2 0x1D6E DUP4 CODECOPY DUP2 DUP2 ADD PUSH1 0x40 MSTORE DUP2 ADD SWAP1 PUSH2 0x3F SWAP2 SWAP1 PUSH2 0x413 JUMP JUMPDEST CALLER PUSH0 PUSH20 0xFFFFFFFFFFFFFFFFFFFFFFFFFFFFFFFFFFFFFFFF AND DUP2 PUSH20 0xFFFFFFFFFFFFFFFFFFFFFFFFFFFFFFFFFFFFFFFF AND SUB PUSH2 0xB0 JUMPI PUSH0 PUSH1 0x40 MLOAD PUSH32 0x1E4FBDF700000000000000000000000000000000000000000000000000000000 DUP2 MSTORE PUSH1 0x4 ADD PUSH2 0xA7 SWAP2 SWAP1 PUSH2 0x44D JUMP JUMPDEST PUSH1 0x40 MLOAD DUP1 SWAP2 SUB SWAP1 REVERT JUMPDEST PUSH2 0xBF DUP2 PUSH2 0x149 PUSH1 0x20 SHL PUSH1 0x20 SHR JUMP JUMPDEST POP PUSH0 DUP1 PUSH1 0x14 PUSH2 0x100 EXP DUP2 SLOAD DUP2 PUSH1 0xFF MUL NOT AND SWAP1 DUP4 ISZERO ISZERO MUL OR SWAP1 SSTORE POP DUP1 PUSH1 0x2 PUSH0 PUSH2 0x100 EXP DUP2 SLOAD DUP2 PUSH20 0xFFFFFFFFFFFFFFFFFFFFFFFFFFFFFFFFFFFFFFFF MUL NOT AND SWAP1 DUP4 PUSH20 0xFFFFFFFFFFFFFFFFFFFFFFFFFFFFFFFFFFFFFFFF AND MUL OR SWAP1 SSTORE POP PUSH2 0x142 PUSH1 0x3 TIMESTAMP PUSH2 0x129 SWAP2 SWAP1 PUSH2 0x49C JUMP JUMPDEST PUSH2 0xE10 TIMESTAMP PUSH2 0x137 SWAP2 SWAP1 PUSH2 0x49C JUMP JUMPDEST PUSH2 0x20A PUSH1 0x20 SHL PUSH1 0x20 SHR JUMP JUMPDEST POP POP PUSH2 0x631 JUMP JUMPDEST PUSH0 DUP1 PUSH0 SWAP1 SLOAD SWAP1 PUSH2 0x100 EXP SWAP1 DIV PUSH20 0xFFFFFFFFFFFFFFFFFFFFFFFFFFFFFFFFFFFFFFFF AND SWAP1 POP DUP2 PUSH0 DUP1 PUSH2 0x100 EXP DUP2 SLOAD DUP2 PUSH20 0xFFFFFFFFFFFFFFFFFFFFFFFFFFFFFFFFFFFFFFFF MUL NOT AND SWAP1 DUP4 PUSH20 0xFFFFFFFFFFFFFFFFFFFFFFFFFFFFFFFFFFFFFFFF AND MUL OR SWAP1 SSTORE POP DUP2 PUSH20 0xFFFFFFFFFFFFFFFFFFFFFFFFFFFFFFFFFFFFFFFF AND DUP2 PUSH20 0xFFFFFFFFFFFFFFFFFFFFFFFFFFFFFFFFFFFFFFFF AND PUSH32 0x8BE0079C531659141344CD1FD0A4F28419497F9722A3DAAFE3B4186F6B6457E0 PUSH1 0x40 MLOAD PUSH1 0x40 MLOAD DUP1 SWAP2 SUB SWAP1 LOG3 POP POP JUMP JUMPDEST PUSH0 PUSH2 0x219 PUSH2 0x2EE PUSH1 0x20 SHL PUSH1 0x20 SHR JUMP JUMPDEST TIMESTAMP DUP4 GT PUSH2 0x25B JUMPI PUSH1 0x40 MLOAD PUSH32 0x8C379A000000000000000000000000000000000000000000000000000000000 DUP2 MSTORE PUSH1 0x4 ADD PUSH2 0x252 SWAP1 PUSH2 0x54F JUMP JUMPDEST PUSH1 0x40 MLOAD DUP1 SWAP2 SUB SWAP1 REVERT JUMPDEST DUP3 DUP3 GT PUSH2 0x29D JUMPI PUSH1 0x40 MLOAD PUSH32 0x8C379A000000000000000000000000000000000000000000000000000000000 DUP2 MSTORE PUSH1 0x4 ADD PUSH2 0x294 SWAP1 PUSH2 0x5DD JUMP JUMPDEST PUSH1 0x40 MLOAD DUP1 SWAP2 SUB SWAP1 REVERT JUMPDEST DUP3 PUSH1 0x4 DUP2 SWAP1 SSTORE POP DUP2 PUSH1 0x5 DUP2 SWAP1 SSTORE POP PUSH32 0xD11D4857E2A1E57763B1E82593AB10724D8921AB26F0C8945E4BEE89DFB1872 DUP4 DUP4 PUSH1 0x40 MLOAD PUSH2 0x2DC SWAP3 SWAP2 SWAP1 PUSH2 0x60A JUMP JUMPDEST PUSH1 0x40 MLOAD DUP1 SWAP2 SUB SWAP1 LOG1 PUSH1 0x1 SWAP1 POP SWAP3 SWAP2 POP POP JUMP JUMPDEST PUSH2 0x2FC PUSH2 0x387 PUSH1 0x20 SHL PUSH1 0x20 SHR JUMP JUMPDEST PUSH20 0xFFFFFFFFFFFFFFFFFFFFFFFFFFFFFFFFFFFFFFFF AND PUSH2 0x320 PUSH2 0x38E PUSH1 0x20 SHL PUSH1 0x20 SHR JUMP JUMPDEST PUSH20 0xFFFFFFFFFFFFFFFFFFFFFFFFFFFFFFFFFFFFFFFF AND EQ PUSH2 0x385 JUMPI PUSH2 0x349 PUSH2 0x387 PUSH1 0x20 SHL PUSH1 0x20 SHR JUMP JUMPDEST PUSH1 0x40 MLOAD PUSH32 0x118CDAA700000000000000000000000000000000000000000000000000000000 DUP2 MSTORE PUSH1 0x4 ADD PUSH2 0x37C SWAP2 SWAP1 PUSH2 0x44D JUMP JUMPDEST PUSH1 0x40 MLOAD DUP1 SWAP2 SUB SWAP1 REVERT JUMPDEST JUMP JUMPDEST PUSH0 CALLER SWAP1 POP SWAP1 JUMP JUMPDEST PUSH0 DUP1 PUSH0 SWAP1 SLOAD SWAP1 PUSH2 0x100 EXP SWAP1 DIV PUSH20 0xFFFFFFFFFFFFFFFFFFFFFFFFFFFFFFFFFFFFFFFF AND SWAP1 POP SWAP1 JUMP JUMPDEST PUSH0 DUP1 REVERT JUMPDEST PUSH0 PUSH20 0xFFFFFFFFFFFFFFFFFFFFFFFFFFFFFFFFFFFFFFFF DUP3 AND SWAP1 POP SWAP2 SWAP1 POP JUMP JUMPDEST PUSH0 PUSH2 0x3E2 DUP3 PUSH2 0x3B9 JUMP JUMPDEST SWAP1 POP SWAP2 SWAP1 POP JUMP JUMPDEST PUSH2 0x3F2 DUP2 PUSH2 0x3D8 JUMP JUMPDEST DUP2 EQ PUSH2 0x3FC JUMPI PUSH0 DUP1 REVERT JUMPDEST POP JUMP JUMPDEST PUSH0 DUP2 MLOAD SWAP1 POP PUSH2 0x40D DUP2 PUSH2 0x3E9 JUMP JUMPDEST SWAP3 SWAP2 POP POP JUMP JUMPDEST PUSH0 PUSH1 0x20 DUP3 DUP5 SUB SLT ISZERO PUSH2 0x428 JUMPI PUSH2 0x427 PUSH2 0x3B5 JUMP JUMPDEST JUMPDEST PUSH0 PUSH2 0x435 DUP5 DUP3 DUP6 ADD PUSH2 0x3FF JUMP JUMPDEST SWAP2 POP POP SWAP3 SWAP2 POP POP JUMP JUMPDEST PUSH2 0x447 DUP2 PUSH2 0x3D8 JUMP JUMPDEST DUP3 MSTORE POP POP JUMP JUMPDEST PUSH0 PUSH1 0x20 DUP3 ADD SWAP1 POP PUSH2 0x460 PUSH0 DUP4 ADD DUP5 PUSH2 0x43E JUMP JUMPDEST SWAP3 SWAP2 POP POP JUMP JUMPDEST PUSH0 DUP2 SWAP1 POP SWAP2 SWAP1 POP JUMP JUMPDEST PUSH32 0x4E487B7100000000000000000000000000000000000000000000000000000000 PUSH0 MSTORE PUSH1 0x11 PUSH1 0x4 MSTORE PUSH1 0x24 PUSH0 REVERT JUMPDEST PUSH0 PUSH2 0x4A6 DUP3 PUSH2 0x466 JUMP JUMPDEST SWAP2 POP PUSH2 0x4B1 DUP4 PUSH2 0x466 JUMP JUMPDEST SWAP3 POP DUP3 DUP3 ADD SWAP1 POP DUP1 DUP3 GT ISZERO PUSH2 0x4C9 JUMPI PUSH2 0x4C8 PUSH2 0x46F JUMP JUMPDEST JUMPDEST SWAP3 SWAP2 POP POP JUMP JUMPDEST PUSH0 DUP3 DUP3 MSTORE PUSH1 0x20 DUP3 ADD SWAP1 POP SWAP3 SWAP2 POP POP JUMP JUMPDEST PUSH32 0x53746172742074696D65206D7573742062652067726561746572207468616E20 PUSH0 DUP3 ADD MSTORE PUSH32 0x63757272656E742074696D650000000000000000000000000000000000000000 PUSH1 0x20 DUP3 ADD MSTORE POP JUMP JUMPDEST PUSH0 PUSH2 0x539 PUSH1 0x2C DUP4 PUSH2 0x4CF JUMP JUMPDEST SWAP2 POP PUSH2 0x544 DUP3 PUSH2 0x4DF JUMP JUMPDEST PUSH1 0x40 DUP3 ADD SWAP1 POP SWAP2 SWAP1 POP JUMP JUMPDEST PUSH0 PUSH1 0x20 DUP3 ADD SWAP1 POP DUP2 DUP2 SUB PUSH0 DUP4 ADD MSTORE PUSH2 0x566 DUP2 PUSH2 0x52D JUMP JUMPDEST SWAP1 POP SWAP2 SWAP1 POP JUMP JUMPDEST PUSH32 0x456E642074696D65206D7573742062652067726561746572207468616E207374 PUSH0 DUP3 ADD MSTORE PUSH32 0x6172742074696D65000000000000000000000000000000000000000000000000 PUSH1 0x20 DUP3 ADD MSTORE POP JUMP JUMPDEST PUSH0 PUSH2 0x5C7 PUSH1 0x28 DUP4 PUSH2 0x4CF JUMP JUMPDEST SWAP2 POP PUSH2 0x5D2 DUP3 PUSH2 0x56D JUMP JUMPDEST PUSH1 0x40 DUP3 ADD SWAP1 POP SWAP2 SWAP1 POP JUMP JUMPDEST PUSH0 PUSH1 0x20 DUP3 ADD SWAP1 POP DUP2 DUP2 SUB PUSH0 DUP4 ADD MSTORE PUSH2 0x5F4 DUP2 PUSH2 0x5BB JUMP JUMPDEST SWAP1 POP SWAP2 SWAP1 POP JUMP JUMPDEST PUSH2 0x604 DUP2 PUSH2 0x466 JUMP JUMPDEST DUP3 MSTORE POP POP JUMP JUMPDEST PUSH0 PUSH1 0x40 DUP3 ADD SWAP1 POP PUSH2 0x61D PUSH0 DUP4 ADD DUP6 PUSH2 0x5FB JUMP JUMPDEST PUSH2 0x62A PUSH1 0x20 DUP4 ADD DUP5 PUSH2 0x5FB JUMP JUMPDEST SWAP4 SWAP3 POP POP POP JUMP JUMPDEST PUSH2 0x1730 DUP1 PUSH2 0x63E PUSH0 CODECOPY PUSH0 RETURN INVALID PUSH1 0x80 PUSH1 0x40 MSTORE CALLVALUE DUP1 ISZERO PUSH2 0xF JUMPI PUSH0 DUP1 REVERT JUMPDEST POP PUSH1 0x4 CALLDATASIZE LT PUSH2 0x12A JUMPI PUSH0 CALLDATALOAD PUSH1 0xE0 SHR DUP1 PUSH4 0x68226A78 GT PUSH2 0xAB JUMPI DUP1 PUSH4 0xA37B06D4 GT PUSH2 0x6F JUMPI DUP1 PUSH4 0xA37B06D4 EQ PUSH2 0x2F8 JUMPI DUP1 PUSH4 0xB8DE4343 EQ PUSH2 0x328 JUMPI DUP1 PUSH4 0xE20D810F EQ PUSH2 0x344 JUMPI DUP1 PUSH4 0xF2FDE38B EQ PUSH2 0x364 JUMPI DUP1 PUSH4 0xFB2228FE EQ PUSH2 0x380 JUMPI PUSH2 0x12A JUMP JUMPDEST DUP1 PUSH4 0x68226A78 EQ PUSH2 0x266 JUMPI DUP1 PUSH4 0x715018A6 EQ PUSH2 0x296 JUMPI DUP1 PUSH4 0x8456CB59 EQ PUSH2 0x2A0 JUMPI DUP1 PUSH4 0x8DA5CB5B EQ PUSH2 0x2AA JUMPI DUP1 PUSH4 0xA2B26DFE EQ PUSH2 0x2C8 JUMPI PUSH2 0x12A JUMP JUMPDEST DUP1 PUSH4 0x2F8BC0EF GT PUSH2 0xF2 JUMPI DUP1 PUSH4 0x2F8BC0EF EQ PUSH2 0x1E8 JUMPI DUP1 PUSH4 0x3CCFD60B EQ PUSH2 0x218 JUMPI DUP1 PUSH4 0x3F4BA83A EQ PUSH2 0x222 JUMPI DUP1 PUSH4 0x56A6D9EF EQ PUSH2 0x22C JUMPI DUP1 PUSH4 0x5C975ABB EQ PUSH2 0x248 JUMPI PUSH2 0x12A JUMP JUMPDEST DUP1 PUSH4 0x3A1F522 EQ PUSH2 0x12E JUMPI DUP1 PUSH4 0x12065FE0 EQ PUSH2 0x15E JUMPI DUP1 PUSH4 0x16ADA547 EQ PUSH2 0x17C JUMPI DUP1 PUSH4 0x1C719D8B EQ PUSH2 0x19A JUMPI DUP1 PUSH4 0x2830D69F EQ PUSH2 0x1B8 JUMPI JUMPDEST PUSH0 DUP1 REVERT JUMPDEST PUSH2 0x148 PUSH1 0x4 DUP1 CALLDATASIZE SUB DUP2 ADD SWAP1 PUSH2 0x143 SWAP2 SWAP1 PUSH2 0xEBB JUMP JUMPDEST PUSH2 0x39E JUMP JUMPDEST PUSH1 0x40 MLOAD PUSH2 0x155 SWAP2 SWAP1 PUSH2 0xF00 JUMP JUMPDEST PUSH1 0x40 MLOAD DUP1 SWAP2 SUB SWAP1 RETURN JUMPDEST PUSH2 0x166 PUSH2 0x3F7 JUMP JUMPDEST PUSH1 0x40 MLOAD PUSH2 0x173 SWAP2 SWAP1 PUSH2 0xF28 JUMP JUMPDEST PUSH1 0x40 MLOAD DUP1 SWAP2 SUB SWAP1 RETURN JUMPDEST PUSH2 0x184 PUSH2 0x3FE JUMP JUMPDEST PUSH1 0x40 MLOAD PUSH2 0x191 SWAP2 SWAP1 PUSH2 0xF28 JUMP JUMPDEST PUSH1 0x40 MLOAD DUP1 SWAP2 SUB SWAP1 RETURN JUMPDEST PUSH2 0x1A2 PUSH2 0x405 JUMP JUMPDEST PUSH1 0x40 MLOAD PUSH2 0x1AF SWAP2 SWAP1 PUSH2 0xF80 JUMP JUMPDEST PUSH1 0x40 MLOAD DUP1 SWAP2 SUB SWAP1 RETURN JUMPDEST PUSH2 0x1D2 PUSH1 0x4 DUP1 CALLDATASIZE SUB DUP2 ADD SWAP1 PUSH2 0x1CD SWAP2 SWAP1 PUSH2 0xFC3 JUMP JUMPDEST PUSH2 0x42A JUMP JUMPDEST PUSH1 0x40 MLOAD PUSH2 0x1DF SWAP2 SWAP1 PUSH2 0xF00 JUMP JUMPDEST PUSH1 0x40 MLOAD DUP1 SWAP2 SUB SWAP1 RETURN JUMPDEST PUSH2 0x202 PUSH1 0x4 DUP1 CALLDATASIZE SUB DUP2 ADD SWAP1 PUSH2 0x1FD SWAP2 SWAP1 PUSH2 0x1154 JUMP JUMPDEST PUSH2 0x4B3 JUMP JUMPDEST PUSH1 0x40 MLOAD PUSH2 0x20F SWAP2 SWAP1 PUSH2 0xF00 JUMP JUMPDEST PUSH1 0x40 MLOAD DUP1 SWAP2 SUB SWAP1 RETURN JUMPDEST PUSH2 0x220 PUSH2 0x75A JUMP JUMPDEST STOP JUMPDEST PUSH2 0x22A PUSH2 0x819 JUMP JUMPDEST STOP JUMPDEST PUSH2 0x246 PUSH1 0x4 DUP1 CALLDATASIZE SUB DUP2 ADD SWAP1 PUSH2 0x241 SWAP2 SWAP1 PUSH2 0x11E9 JUMP JUMPDEST PUSH2 0x82B JUMP JUMPDEST STOP JUMPDEST PUSH2 0x250 PUSH2 0x8E0 JUMP JUMPDEST PUSH1 0x40 MLOAD PUSH2 0x25D SWAP2 SWAP1 PUSH2 0xF00 JUMP JUMPDEST PUSH1 0x40 MLOAD DUP1 SWAP2 SUB SWAP1 RETURN JUMPDEST PUSH2 0x280 PUSH1 0x4 DUP1 CALLDATASIZE SUB DUP2 ADD SWAP1 PUSH2 0x27B SWAP2 SWAP1 PUSH2 0xFC3 JUMP JUMPDEST PUSH2 0x8F5 JUMP JUMPDEST PUSH1 0x40 MLOAD PUSH2 0x28D SWAP2 SWAP1 PUSH2 0xF28 JUMP JUMPDEST PUSH1 0x40 MLOAD DUP1 SWAP2 SUB SWAP1 RETURN JUMPDEST PUSH2 0x29E PUSH2 0x90A JUMP JUMPDEST STOP JUMPDEST PUSH2 0x2A8 PUSH2 0x91D JUMP JUMPDEST STOP JUMPDEST PUSH2 0x2B2 PUSH2 0x92F JUMP JUMPDEST PUSH1 0x40 MLOAD PUSH2 0x2BF SWAP2 SWAP1 PUSH2 0xF80 JUMP JUMPDEST PUSH1 0x40 MLOAD DUP1 SWAP2 SUB SWAP1 RETURN JUMPDEST PUSH2 0x2E2 PUSH1 0x4 DUP1 CALLDATASIZE SUB DUP2 ADD SWAP1 PUSH2 0x2DD SWAP2 SWAP1 PUSH2 0x1227 JUMP JUMPDEST PUSH2 0x956 JUMP JUMPDEST PUSH1 0x40 MLOAD PUSH2 0x2EF SWAP2 SWAP1 PUSH2 0xF00 JUMP JUMPDEST PUSH1 0x40 MLOAD DUP1 SWAP2 SUB SWAP1 RETURN JUMPDEST PUSH2 0x312 PUSH1 0x4 DUP1 CALLDATASIZE SUB DUP2 ADD SWAP1 PUSH2 0x30D SWAP2 SWAP1 PUSH2 0x1227 JUMP JUMPDEST PUSH2 0xA34 JUMP JUMPDEST PUSH1 0x40 MLOAD PUSH2 0x31F SWAP2 SWAP1 PUSH2 0xF28 JUMP JUMPDEST PUSH1 0x40 MLOAD DUP1 SWAP2 SUB SWAP1 RETURN JUMPDEST PUSH2 0x342 PUSH1 0x4 DUP1 CALLDATASIZE SUB DUP2 ADD SWAP1 PUSH2 0x33D SWAP2 SWAP1 PUSH2 0x1265 JUMP JUMPDEST PUSH2 0xA6D JUMP JUMPDEST STOP JUMPDEST PUSH2 0x34C PUSH2 0xAEA JUMP JUMPDEST PUSH1 0x40 MLOAD PUSH2 0x35B SWAP4 SWAP3 SWAP2 SWAP1 PUSH2 0x12F8 JUMP JUMPDEST PUSH1 0x40 MLOAD DUP1 SWAP2 SUB SWAP1 RETURN JUMPDEST PUSH2 0x37E PUSH1 0x4 DUP1 CALLDATASIZE SUB DUP2 ADD SWAP1 PUSH2 0x379 SWAP2 SWAP1 PUSH2 0xFC3 JUMP JUMPDEST PUSH2 0xB41 JUMP JUMPDEST STOP JUMPDEST PUSH2 0x388 PUSH2 0xBC5 JUMP JUMPDEST PUSH1 0x40 MLOAD PUSH2 0x395 SWAP2 SWAP1 PUSH2 0xF28 JUMP JUMPDEST PUSH1 0x40 MLOAD DUP1 SWAP2 SUB SWAP1 RETURN JUMPDEST PUSH0 PUSH2 0x3A7 PUSH2 0xBD0 JUMP JUMPDEST DUP2 PUSH1 0x3 DUP2 SWAP1 SSTORE POP PUSH32 0xA2D24AFDF596FD587984CD4BDC1940B8B777107510813B4D99D10725231A9F2B DUP3 PUSH2 0x3D8 PUSH2 0xC57 JUMP JUMPDEST PUSH1 0x40 MLOAD PUSH2 0x3E6 SWAP3 SWAP2 SWAP1 PUSH2 0x132D JUMP JUMPDEST PUSH1 0x40 MLOAD DUP1 SWAP2 SUB SWAP1 LOG1 PUSH1 0x1 SWAP1 POP SWAP2 SWAP1 POP JUMP JUMPDEST PUSH0 SELFBALANCE SWAP1 POP SWAP1 JUMP JUMPDEST PUSH0 TIMESTAMP SWAP1 POP SWAP1 JUMP JUMPDEST PUSH1 0x2 PUSH0 SWAP1 SLOAD SWAP1 PUSH2 0x100 EXP SWAP1 DIV PUSH20 0xFFFFFFFFFFFFFFFFFFFFFFFFFFFFFFFFFFFFFFFF AND DUP2 JUMP JUMPDEST PUSH0 PUSH2 0x433 PUSH2 0xBD0 JUMP JUMPDEST DUP2 PUSH1 0x2 PUSH0 PUSH2 0x100 EXP DUP2 SLOAD DUP2 PUSH20 0xFFFFFFFFFFFFFFFFFFFFFFFFFFFFFFFFFFFFFFFF MUL NOT AND SWAP1 DUP4 PUSH20 0xFFFFFFFFFFFFFFFFFFFFFFFFFFFFFFFFFFFFFFFF AND MUL OR SWAP1 SSTORE POP PUSH32 0xE2F132523ADF4305409802CB06662E9E8C1785842FC4AC0DB0C39B86B2BE542C DUP3 PUSH1 0x40 MLOAD PUSH2 0x4A2 SWAP2 SWAP1 PUSH2 0xF80 JUMP JUMPDEST PUSH1 0x40 MLOAD DUP1 SWAP2 SUB SWAP1 LOG1 PUSH1 0x1 SWAP1 POP SWAP2 SWAP1 POP JUMP JUMPDEST PUSH0 PUSH2 0x4BC PUSH2 0xC5E JUMP JUMPDEST TIMESTAMP PUSH1 0x5 SLOAD LT ISZERO PUSH2 0x505 JUMPI PUSH1 0x5 SLOAD PUSH1 0x40 MLOAD PUSH32 0x691E568200000000000000000000000000000000000000000000000000000000 DUP2 MSTORE PUSH1 0x4 ADD PUSH2 0x4FC SWAP2 SWAP1 PUSH2 0xF28 JUMP JUMPDEST PUSH1 0x40 MLOAD DUP1 SWAP2 SUB SWAP1 REVERT JUMPDEST PUSH0 PUSH1 0x6 PUSH0 PUSH2 0x511 PUSH2 0xC57 JUMP JUMPDEST PUSH20 0xFFFFFFFFFFFFFFFFFFFFFFFFFFFFFFFFFFFFFFFF AND PUSH20 0xFFFFFFFFFFFFFFFFFFFFFFFFFFFFFFFFFFFFFFFF AND DUP2 MSTORE PUSH1 0x20 ADD SWAP1 DUP2 MSTORE PUSH1 0x20 ADD PUSH0 KECCAK256 SLOAD GT DUP1 ISZERO PUSH2 0x59D JUMPI POP PUSH1 0x4 SLOAD PUSH1 0x6 PUSH0 PUSH2 0x561 PUSH2 0xC57 JUMP JUMPDEST PUSH20 0xFFFFFFFFFFFFFFFFFFFFFFFFFFFFFFFFFFFFFFFF AND PUSH20 0xFFFFFFFFFFFFFFFFFFFFFFFFFFFFFFFFFFFFFFFF AND DUP2 MSTORE PUSH1 0x20 ADD SWAP1 DUP2 MSTORE PUSH1 0x20 ADD PUSH0 KECCAK256 SLOAD GT JUMPDEST ISZERO PUSH2 0x623 JUMPI PUSH1 0x6 PUSH0 PUSH2 0x5AD PUSH2 0xC57 JUMP JUMPDEST PUSH20 0xFFFFFFFFFFFFFFFFFFFFFFFFFFFFFFFFFFFFFFFF AND PUSH20 0xFFFFFFFFFFFFFFFFFFFFFFFFFFFFFFFFFFFFFFFF AND DUP2 MSTORE PUSH1 0x20 ADD SWAP1 DUP2 MSTORE PUSH1 0x20 ADD PUSH0 KECCAK256 SLOAD PUSH1 0x40 MLOAD PUSH32 0x8BD6EB1A00000000000000000000000000000000000000000000000000000000 DUP2 MSTORE PUSH1 0x4 ADD PUSH2 0x61A SWAP2 SWAP1 PUSH2 0xF28 JUMP JUMPDEST PUSH1 0x40 MLOAD DUP1 SWAP2 SUB SWAP1 REVERT JUMPDEST PUSH2 0x62D PUSH1 0x1 PUSH2 0xC9F JUMP JUMPDEST TIMESTAMP PUSH1 0x6 PUSH0 PUSH2 0x639 PUSH2 0xC57 JUMP JUMPDEST PUSH20 0xFFFFFFFFFFFFFFFFFFFFFFFFFFFFFFFFFFFFFFFF AND PUSH20 0xFFFFFFFFFFFFFFFFFFFFFFFFFFFFFFFFFFFFFFFF AND DUP2 MSTORE PUSH1 0x20 ADD SWAP1 DUP2 MSTORE PUSH1 0x20 ADD PUSH0 KECCAK256 DUP2 SWAP1 SSTORE POP PUSH1 0x2 PUSH0 SWAP1 SLOAD SWAP1 PUSH2 0x100 EXP SWAP1 DIV PUSH20 0xFFFFFFFFFFFFFFFFFFFFFFFFFFFFFFFFFFFFFFFF AND PUSH20 0xFFFFFFFFFFFFFFFFFFFFFFFFFFFFFFFFFFFFFFFF AND PUSH4 0x760D9BBA ADDRESS PUSH2 0x6BC PUSH2 0xC57 JUMP JUMPDEST PUSH1 0x3 SLOAD DUP8 DUP8 PUSH1 0x40 MLOAD DUP7 PUSH4 0xFFFFFFFF AND PUSH1 0xE0 SHL DUP2 MSTORE PUSH1 0x4 ADD PUSH2 0x6E1 SWAP6 SWAP5 SWAP4 SWAP3 SWAP2 SWAP1 PUSH2 0x13B4 JUMP JUMPDEST PUSH0 PUSH1 0x40 MLOAD DUP1 DUP4 SUB DUP2 PUSH0 DUP8 DUP1 EXTCODESIZE ISZERO DUP1 ISZERO PUSH2 0x6F8 JUMPI PUSH0 DUP1 REVERT JUMPDEST POP GAS CALL ISZERO DUP1 ISZERO PUSH2 0x70A JUMPI RETURNDATASIZE PUSH0 DUP1 RETURNDATACOPY RETURNDATASIZE PUSH0 REVERT JUMPDEST POP POP POP POP PUSH32 0xD8138F8A3F377C5259CA548E70E4C2DE94F129F5A11036A15B69513CBA2B426A PUSH2 0x737 PUSH2 0xC57 JUMP JUMPDEST PUSH1 0x3 SLOAD PUSH1 0x40 MLOAD PUSH2 0x748 SWAP3 SWAP2 SWAP1 PUSH2 0x140C JUMP JUMPDEST PUSH1 0x40 MLOAD DUP1 SWAP2 SUB SWAP1 LOG1 PUSH1 0x1 SWAP1 POP SWAP3 SWAP2 POP POP JUMP JUMPDEST PUSH2 0x762 PUSH2 0xBD0 JUMP JUMPDEST PUSH0 SELFBALANCE SWAP1 POP PUSH0 PUSH2 0x76F PUSH2 0x92F JUMP JUMPDEST PUSH20 0xFFFFFFFFFFFFFFFFFFFFFFFFFFFFFFFFFFFFFFFF AND DUP3 PUSH1 0x40 MLOAD PUSH2 0x792 SWAP1 PUSH2 0x1460 JUMP JUMPDEST PUSH0 PUSH1 0x40 MLOAD DUP1 DUP4 SUB DUP2 DUP6 DUP8 GAS CALL SWAP3 POP POP POP RETURNDATASIZE DUP1 PUSH0 DUP2 EQ PUSH2 0x7CC JUMPI PUSH1 0x40 MLOAD SWAP2 POP PUSH1 0x1F NOT PUSH1 0x3F RETURNDATASIZE ADD AND DUP3 ADD PUSH1 0x40 MSTORE RETURNDATASIZE DUP3 MSTORE RETURNDATASIZE PUSH0 PUSH1 0x20 DUP5 ADD RETURNDATACOPY PUSH2 0x7D1 JUMP JUMPDEST PUSH1 0x60 SWAP2 POP JUMPDEST POP POP SWAP1 POP DUP1 PUSH2 0x815 JUMPI PUSH1 0x40 MLOAD PUSH32 0x8C379A000000000000000000000000000000000000000000000000000000000 DUP2 MSTORE PUSH1 0x4 ADD PUSH2 0x80C SWAP1 PUSH2 0x14CE JUMP JUMPDEST PUSH1 0x40 MLOAD DUP1 SWAP2 SUB SWAP1 REVERT JUMPDEST POP POP JUMP JUMPDEST PUSH2 0x821 PUSH2 0xBD0 JUMP JUMPDEST PUSH2 0x829 PUSH2 0xCB3 JUMP JUMPDEST JUMP JUMPDEST PUSH2 0x833 PUSH2 0xBD0 JUMP JUMPDEST PUSH0 DUP3 PUSH20 0xFFFFFFFFFFFFFFFFFFFFFFFFFFFFFFFFFFFFFFFF AND DUP3 PUSH1 0x40 MLOAD PUSH2 0x858 SWAP1 PUSH2 0x1460 JUMP JUMPDEST PUSH0 PUSH1 0x40 MLOAD DUP1 DUP4 SUB DUP2 DUP6 DUP8 GAS CALL SWAP3 POP POP POP RETURNDATASIZE DUP1 PUSH0 DUP2 EQ PUSH2 0x892 JUMPI PUSH1 0x40 MLOAD SWAP2 POP PUSH1 0x1F NOT PUSH1 0x3F RETURNDATASIZE ADD AND DUP3 ADD PUSH1 0x40 MSTORE RETURNDATASIZE DUP3 MSTORE RETURNDATASIZE PUSH0 PUSH1 0x20 DUP5 ADD RETURNDATACOPY PUSH2 0x897 JUMP JUMPDEST PUSH1 0x60 SWAP2 POP JUMPDEST POP POP SWAP1 POP DUP1 PUSH2 0x8DB JUMPI PUSH1 0x40 MLOAD PUSH32 0x8C379A000000000000000000000000000000000000000000000000000000000 DUP2 MSTORE PUSH1 0x4 ADD PUSH2 0x8D2 SWAP1 PUSH2 0x14CE JUMP JUMPDEST PUSH1 0x40 MLOAD DUP1 SWAP2 SUB SWAP1 REVERT JUMPDEST POP POP POP JUMP JUMPDEST PUSH0 DUP1 PUSH1 0x14 SWAP1 SLOAD SWAP1 PUSH2 0x100 EXP SWAP1 DIV PUSH1 0xFF AND SWAP1 POP SWAP1 JUMP JUMPDEST PUSH1 0x6 PUSH1 0x20 MSTORE DUP1 PUSH0 MSTORE PUSH1 0x40 PUSH0 KECCAK256 PUSH0 SWAP2 POP SWAP1 POP SLOAD DUP2 JUMP JUMPDEST PUSH2 0x912 PUSH2 0xBD0 JUMP JUMPDEST PUSH2 0x91B PUSH0 PUSH2 0xD14 JUMP JUMPDEST JUMP JUMPDEST PUSH2 0x925 PUSH2 0xBD0 JUMP JUMPDEST PUSH2 0x92D PUSH2 0xDD5 JUMP JUMPDEST JUMP JUMPDEST PUSH0 DUP1 PUSH0 SWAP1 SLOAD SWAP1 PUSH2 0x100 EXP SWAP1 DIV PUSH20 0xFFFFFFFFFFFFFFFFFFFFFFFFFFFFFFFFFFFFFFFF AND SWAP1 POP SWAP1 JUMP JUMPDEST PUSH0 PUSH2 0x95F PUSH2 0xBD0 JUMP JUMPDEST TIMESTAMP DUP4 GT PUSH2 0x9A1 JUMPI PUSH1 0x40 MLOAD PUSH32 0x8C379A000000000000000000000000000000000000000000000000000000000 DUP2 MSTORE PUSH1 0x4 ADD PUSH2 0x998 SWAP1 PUSH2 0x155C JUMP JUMPDEST PUSH1 0x40 MLOAD DUP1 SWAP2 SUB SWAP1 REVERT JUMPDEST DUP3 DUP3 GT PUSH2 0x9E3 JUMPI PUSH1 0x40 MLOAD PUSH32 0x8C379A000000000000000000000000000000000000000000000000000000000 DUP2 MSTORE PUSH1 0x4 ADD PUSH2 0x9DA SWAP1 PUSH2 0x15EA JUMP JUMPDEST PUSH1 0x40 MLOAD DUP1 SWAP2 SUB SWAP1 REVERT JUMPDEST DUP3 PUSH1 0x4 DUP2 SWAP1 SSTORE POP DUP2 PUSH1 0x5 DUP2 SWAP1 SSTORE POP PUSH32 0xD11D4857E2A1E57763B1E82593AB10724D8921AB26F0C8945E4BEE89DFB1872 DUP4 DUP4 PUSH1 0x40 MLOAD PUSH2 0xA22 SWAP3 SWAP2 SWAP1 PUSH2 0x1608 JUMP JUMPDEST PUSH1 0x40 MLOAD DUP1 SWAP2 SUB SWAP1 LOG1 PUSH1 0x1 SWAP1 POP SWAP3 SWAP2 POP POP JUMP JUMPDEST PUSH0 PUSH1 0x64 DUP3 DUP5 PUSH2 0xA43 SWAP2 SWAP1 PUSH2 0x165C JUMP JUMPDEST LT ISZERO PUSH2 0xA4D JUMPI PUSH0 DUP1 REVERT JUMPDEST PUSH1 0x64 DUP3 DUP5 PUSH2 0xA5B SWAP2 SWAP1 PUSH2 0x165C JUMP JUMPDEST PUSH2 0xA65 SWAP2 SWAP1 PUSH2 0x16CA JUMP JUMPDEST SWAP1 POP SWAP3 SWAP2 POP POP JUMP JUMPDEST PUSH2 0xA75 PUSH2 0xBD0 JUMP JUMPDEST DUP5 PUSH20 0xFFFFFFFFFFFFFFFFFFFFFFFFFFFFFFFFFFFFFFFF AND PUSH4 0x760D9BBA ADDRESS DUP7 DUP7 DUP7 DUP7 PUSH1 0x40 MLOAD DUP7 PUSH4 0xFFFFFFFF AND PUSH1 0xE0 SHL DUP2 MSTORE PUSH1 0x4 ADD PUSH2 0xAB6 SWAP6 SWAP5 SWAP4 SWAP3 SWAP2 SWAP1 PUSH2 0x13B4 JUMP JUMPDEST PUSH0 PUSH1 0x40 MLOAD DUP1 DUP4 SUB DUP2 PUSH0 DUP8 DUP1 EXTCODESIZE ISZERO DUP1 ISZERO PUSH2 0xACD JUMPI PUSH0 DUP1 REVERT JUMPDEST POP GAS CALL ISZERO DUP1 ISZERO PUSH2 0xADF JUMPI RETURNDATASIZE PUSH0 DUP1 RETURNDATACOPY RETURNDATASIZE PUSH0 REVERT JUMPDEST POP POP POP POP POP POP POP POP POP JUMP JUMPDEST PUSH0 DUP1 PUSH0 PUSH2 0xAF5 PUSH2 0xC5E JUMP JUMPDEST TIMESTAMP PUSH1 0x4 SLOAD GT ISZERO PUSH2 0xB11 JUMPI PUSH0 PUSH1 0x4 SLOAD PUSH1 0x5 SLOAD SWAP3 POP SWAP3 POP SWAP3 POP PUSH2 0xB3C JUMP JUMPDEST TIMESTAMP PUSH1 0x5 SLOAD LT ISZERO PUSH2 0xB2D JUMPI PUSH0 PUSH1 0x4 SLOAD PUSH1 0x5 SLOAD SWAP3 POP SWAP3 POP SWAP3 POP PUSH2 0xB3C JUMP JUMPDEST PUSH1 0x1 PUSH1 0x4 SLOAD PUSH1 0x5 SLOAD SWAP3 POP SWAP3 POP SWAP3 POP JUMPDEST SWAP1 SWAP2 SWAP3 JUMP JUMPDEST PUSH2 0xB49 PUSH2 0xBD0 JUMP JUMPDEST PUSH0 PUSH20 0xFFFFFFFFFFFFFFFFFFFFFFFFFFFFFFFFFFFFFFFF AND DUP2 PUSH20 0xFFFFFFFFFFFFFFFFFFFFFFFFFFFFFFFFFFFFFFFF AND SUB PUSH2 0xBB9 JUMPI PUSH0 PUSH1 0x40 MLOAD PUSH32 0x1E4FBDF700000000000000000000000000000000000000000000000000000000 DUP2 MSTORE PUSH1 0x4 ADD PUSH2 0xBB0 SWAP2 SWAP1 PUSH2 0xF80 JUMP JUMPDEST PUSH1 0x40 MLOAD DUP1 SWAP2 SUB SWAP1 REVERT JUMPDEST PUSH2 0xBC2 DUP2 PUSH2 0xD14 JUMP JUMPDEST POP JUMP JUMPDEST PUSH1 0x1 DUP1 PUSH0 ADD SLOAD SWAP1 POP DUP2 JUMP JUMPDEST PUSH2 0xBD8 PUSH2 0xC57 JUMP JUMPDEST PUSH20 0xFFFFFFFFFFFFFFFFFFFFFFFFFFFFFFFFFFFFFFFF AND PUSH2 0xBF6 PUSH2 0x92F JUMP JUMPDEST PUSH20 0xFFFFFFFFFFFFFFFFFFFFFFFFFFFFFFFFFFFFFFFF AND EQ PUSH2 0xC55 JUMPI PUSH2 0xC19 PUSH2 0xC57 JUMP JUMPDEST PUSH1 0x40 MLOAD PUSH32 0x118CDAA700000000000000000000000000000000000000000000000000000000 DUP2 MSTORE PUSH1 0x4 ADD PUSH2 0xC4C SWAP2 SWAP1 PUSH2 0xF80 JUMP JUMPDEST PUSH1 0x40 MLOAD DUP1 SWAP2 SUB SWAP1 REVERT JUMPDEST JUMP JUMPDEST PUSH0 CALLER SWAP1 POP SWAP1 JUMP JUMPDEST PUSH2 0xC66 PUSH2 0x8E0 JUMP JUMPDEST ISZERO PUSH2 0xC9D JUMPI PUSH1 0x40 MLOAD PUSH32 0xD93C066500000000000000000000000000000000000000000000000000000000 DUP2 MSTORE PUSH1 0x4 ADD PUSH1 0x40 MLOAD DUP1 SWAP2 SUB SWAP1 REVERT JUMPDEST JUMP JUMPDEST PUSH1 0x1 DUP2 PUSH0 ADD PUSH0 DUP3 DUP3 SLOAD ADD SWAP3 POP POP DUP2 SWAP1 SSTORE POP POP JUMP JUMPDEST PUSH2 0xCBB PUSH2 0xE37 JUMP JUMPDEST PUSH0 DUP1 PUSH1 0x14 PUSH2 0x100 EXP DUP2 SLOAD DUP2 PUSH1 0xFF MUL NOT AND SWAP1 DUP4 ISZERO ISZERO MUL OR SWAP1 SSTORE POP PUSH32 0x5DB9EE0A495BF2E6FF9C91A7834C1BA4FDD244A5E8AA4E537BD38AEAE4B073AA PUSH2 0xCFD PUSH2 0xC57 JUMP JUMPDEST PUSH1 0x40 MLOAD PUSH2 0xD0A SWAP2 SWAP1 PUSH2 0xF80 JUMP JUMPDEST PUSH1 0x40 MLOAD DUP1 SWAP2 SUB SWAP1 LOG1 JUMP JUMPDEST PUSH0 DUP1 PUSH0 SWAP1 SLOAD SWAP1 PUSH2 0x100 EXP SWAP1 DIV PUSH20 0xFFFFFFFFFFFFFFFFFFFFFFFFFFFFFFFFFFFFFFFF AND SWAP1 POP DUP2 PUSH0 DUP1 PUSH2 0x100 EXP DUP2 SLOAD DUP2 PUSH20 0xFFFFFFFFFFFFFFFFFFFFFFFFFFFFFFFFFFFFFFFF MUL NOT AND SWAP1 DUP4 PUSH20 0xFFFFFFFFFFFFFFFFFFFFFFFFFFFFFFFFFFFFFFFF AND MUL OR SWAP1 SSTORE POP DUP2 PUSH20 0xFFFFFFFFFFFFFFFFFFFFFFFFFFFFFFFFFFFFFFFF AND DUP2 PUSH20 0xFFFFFFFFFFFFFFFFFFFFFFFFFFFFFFFFFFFFFFFF AND PUSH32 0x8BE0079C531659141344CD1FD0A4F28419497F9722A3DAAFE3B4186F6B6457E0 PUSH1 0x40 MLOAD PUSH1 0x40 MLOAD DUP1 SWAP2 SUB SWAP1 LOG3 POP POP JUMP JUMPDEST PUSH2 0xDDD PUSH2 0xC5E JUMP JUMPDEST PUSH1 0x1 PUSH0 PUSH1 0x14 PUSH2 0x100 EXP DUP2 SLOAD DUP2 PUSH1 0xFF MUL NOT AND SWAP1 DUP4 ISZERO ISZERO MUL OR SWAP1 SSTORE POP PUSH32 0x62E78CEA01BEE320CD4E420270B5EA74000D11B0C9F74754EBDBFC544B05A258 PUSH2 0xE20 PUSH2 0xC57 JUMP JUMPDEST PUSH1 0x40 MLOAD PUSH2 0xE2D SWAP2 SWAP1 PUSH2 0xF80 JUMP JUMPDEST PUSH1 0x40 MLOAD DUP1 SWAP2 SUB SWAP1 LOG1 JUMP JUMPDEST PUSH2 0xE3F PUSH2 0x8E0 JUMP JUMPDEST PUSH2 0xE75 JUMPI PUSH1 0x40 MLOAD PUSH32 0x8DFC202B00000000000000000000000000000000000000000000000000000000 DUP2 MSTORE PUSH1 0x4 ADD PUSH1 0x40 MLOAD DUP1 SWAP2 SUB SWAP1 REVERT JUMPDEST JUMP JUMPDEST PUSH0 PUSH1 0x40 MLOAD SWAP1 POP SWAP1 JUMP JUMPDEST PUSH0 DUP1 REVERT JUMPDEST PUSH0 DUP1 REVERT JUMPDEST PUSH0 DUP2 SWAP1 POP SWAP2 SWAP1 POP JUMP JUMPDEST PUSH2 0xE9A DUP2 PUSH2 0xE88 JUMP JUMPDEST DUP2 EQ PUSH2 0xEA4 JUMPI PUSH0 DUP1 REVERT JUMPDEST POP JUMP JUMPDEST PUSH0 DUP2 CALLDATALOAD SWAP1 POP PUSH2 0xEB5 DUP2 PUSH2 0xE91 JUMP JUMPDEST SWAP3 SWAP2 POP POP JUMP JUMPDEST PUSH0 PUSH1 0x20 DUP3 DUP5 SUB SLT ISZERO PUSH2 0xED0 JUMPI PUSH2 0xECF PUSH2 0xE80 JUMP JUMPDEST JUMPDEST PUSH0 PUSH2 0xEDD DUP5 DUP3 DUP6 ADD PUSH2 0xEA7 JUMP JUMPDEST SWAP2 POP POP SWAP3 SWAP2 POP POP JUMP JUMPDEST PUSH0 DUP2 ISZERO ISZERO SWAP1 POP SWAP2 SWAP1 POP JUMP JUMPDEST PUSH2 0xEFA DUP2 PUSH2 0xEE6 JUMP JUMPDEST DUP3 MSTORE POP POP JUMP JUMPDEST PUSH0 PUSH1 0x20 DUP3 ADD SWAP1 POP PUSH2 0xF13 PUSH0 DUP4 ADD DUP5 PUSH2 0xEF1 JUMP JUMPDEST SWAP3 SWAP2 POP POP JUMP JUMPDEST PUSH2 0xF22 DUP2 PUSH2 0xE88 JUMP JUMPDEST DUP3 MSTORE POP POP JUMP JUMPDEST PUSH0 PUSH1 0x20 DUP3 ADD SWAP1 POP PUSH2 0xF3B PUSH0 DUP4 ADD DUP5 PUSH2 0xF19 JUMP JUMPDEST SWAP3 SWAP2 POP POP JUMP JUMPDEST PUSH0 PUSH20 0xFFFFFFFFFFFFFFFFFFFFFFFFFFFFFFFFFFFFFFFF DUP3 AND SWAP1 POP SWAP2 SWAP1 POP JUMP JUMPDEST PUSH0 PUSH2 0xF6A DUP3 PUSH2 0xF41 JUMP JUMPDEST SWAP1 POP SWAP2 SWAP1 POP JUMP JUMPDEST PUSH2 0xF7A DUP2 PUSH2 0xF60 JUMP JUMPDEST DUP3 MSTORE POP POP JUMP JUMPDEST PUSH0 PUSH1 0x20 DUP3 ADD SWAP1 POP PUSH2 0xF93 PUSH0 DUP4 ADD DUP5 PUSH2 0xF71 JUMP JUMPDEST SWAP3 SWAP2 POP POP JUMP JUMPDEST PUSH2 0xFA2 DUP2 PUSH2 0xF60 JUMP JUMPDEST DUP2 EQ PUSH2 0xFAC JUMPI PUSH0 DUP1 REVERT JUMPDEST POP JUMP JUMPDEST PUSH0 DUP2 CALLDATALOAD SWAP1 POP PUSH2 0xFBD DUP2 PUSH2 0xF99 JUMP JUMPDEST SWAP3 SWAP2 POP POP JUMP JUMPDEST PUSH0 PUSH1 0x20 DUP3 DUP5 SUB SLT ISZERO PUSH2 0xFD8 JUMPI PUSH2 0xFD7 PUSH2 0xE80 JUMP JUMPDEST JUMPDEST PUSH0 PUSH2 0xFE5 DUP5 DUP3 DUP6 ADD PUSH2 0xFAF JUMP JUMPDEST SWAP2 POP POP SWAP3 SWAP2 POP POP JUMP JUMPDEST PUSH2 0xFF7 DUP2 PUSH2 0xEE6 JUMP JUMPDEST DUP2 EQ PUSH2 0x1001 JUMPI PUSH0 DUP1 REVERT JUMPDEST POP JUMP JUMPDEST PUSH0 DUP2 CALLDATALOAD SWAP1 POP PUSH2 0x1012 DUP2 PUSH2 0xFEE JUMP JUMPDEST SWAP3 SWAP2 POP POP JUMP JUMPDEST PUSH0 DUP1 REVERT JUMPDEST PUSH0 DUP1 REVERT JUMPDEST PUSH0 PUSH1 0x1F NOT PUSH1 0x1F DUP4 ADD AND SWAP1 POP SWAP2 SWAP1 POP JUMP JUMPDEST PUSH32 0x4E487B7100000000000000000000000000000000000000000000000000000000 PUSH0 MSTORE PUSH1 0x41 PUSH1 0x4 MSTORE PUSH1 0x24 PUSH0 REVERT JUMPDEST PUSH2 0x1066 DUP3 PUSH2 0x1020 JUMP JUMPDEST DUP2 ADD DUP2 DUP2 LT PUSH8 0xFFFFFFFFFFFFFFFF DUP3 GT OR ISZERO PUSH2 0x1085 JUMPI PUSH2 0x1084 PUSH2 0x1030 JUMP JUMPDEST JUMPDEST DUP1 PUSH1 0x40 MSTORE POP POP POP JUMP JUMPDEST PUSH0 PUSH2 0x1097 PUSH2 0xE77 JUMP JUMPDEST SWAP1 POP PUSH2 0x10A3 DUP3 DUP3 PUSH2 0x105D JUMP JUMPDEST SWAP2 SWAP1 POP JUMP JUMPDEST PUSH0 PUSH8 0xFFFFFFFFFFFFFFFF DUP3 GT ISZERO PUSH2 0x10C2 JUMPI PUSH2 0x10C1 PUSH2 0x1030 JUMP JUMPDEST JUMPDEST PUSH2 0x10CB DUP3 PUSH2 0x1020 JUMP JUMPDEST SWAP1 POP PUSH1 0x20 DUP2 ADD SWAP1 POP SWAP2 SWAP1 POP JUMP JUMPDEST DUP3 DUP2 DUP4 CALLDATACOPY PUSH0 DUP4 DUP4 ADD MSTORE POP POP POP JUMP JUMPDEST PUSH0 PUSH2 0x10F8 PUSH2 0x10F3 DUP5 PUSH2 0x10A8 JUMP JUMPDEST PUSH2 0x108E JUMP JUMPDEST SWAP1 POP DUP3 DUP2 MSTORE PUSH1 0x20 DUP2 ADD DUP5 DUP5 DUP5 ADD GT ISZERO PUSH2 0x1114 JUMPI PUSH2 0x1113 PUSH2 0x101C JUMP JUMPDEST JUMPDEST PUSH2 0x111F DUP5 DUP3 DUP6 PUSH2 0x10D8 JUMP JUMPDEST POP SWAP4 SWAP3 POP POP POP JUMP JUMPDEST PUSH0 DUP3 PUSH1 0x1F DUP4 ADD SLT PUSH2 0x113B JUMPI PUSH2 0x113A PUSH2 0x1018 JUMP JUMPDEST JUMPDEST DUP2 CALLDATALOAD PUSH2 0x114B DUP5 DUP3 PUSH1 0x20 DUP7 ADD PUSH2 0x10E6 JUMP JUMPDEST SWAP2 POP POP SWAP3 SWAP2 POP POP JUMP JUMPDEST PUSH0 DUP1 PUSH1 0x40 DUP4 DUP6 SUB SLT ISZERO PUSH2 0x116A JUMPI PUSH2 0x1169 PUSH2 0xE80 JUMP JUMPDEST JUMPDEST PUSH0 PUSH2 0x1177 DUP6 DUP3 DUP7 ADD PUSH2 0x1004 JUMP JUMPDEST SWAP3 POP POP PUSH1 0x20 DUP4 ADD CALLDATALOAD PUSH8 0xFFFFFFFFFFFFFFFF DUP2 GT ISZERO PUSH2 0x1198 JUMPI PUSH2 0x1197 PUSH2 0xE84 JUMP JUMPDEST JUMPDEST PUSH2 0x11A4 DUP6 DUP3 DUP7 ADD PUSH2 0x1127 JUMP JUMPDEST SWAP2 POP POP SWAP3 POP SWAP3 SWAP1 POP JUMP JUMPDEST PUSH0 PUSH2 0x11B8 DUP3 PUSH2 0xF41 JUMP JUMPDEST SWAP1 POP SWAP2 SWAP1 POP JUMP JUMPDEST PUSH2 0x11C8 DUP2 PUSH2 0x11AE JUMP JUMPDEST DUP2 EQ PUSH2 0x11D2 JUMPI PUSH0 DUP1 REVERT JUMPDEST POP JUMP JUMPDEST PUSH0 DUP2 CALLDATALOAD SWAP1 POP PUSH2 0x11E3 DUP2 PUSH2 0x11BF JUMP JUMPDEST SWAP3 SWAP2 POP POP JUMP JUMPDEST PUSH0 DUP1 PUSH1 0x40 DUP4 DUP6 SUB SLT ISZERO PUSH2 0x11FF JUMPI PUSH2 0x11FE PUSH2 0xE80 JUMP JUMPDEST JUMPDEST PUSH0 PUSH2 0x120C DUP6 DUP3 DUP7 ADD PUSH2 0x11D5 JUMP JUMPDEST SWAP3 POP POP PUSH1 0x20 PUSH2 0x121D DUP6 DUP3 DUP7 ADD PUSH2 0xEA7 JUMP JUMPDEST SWAP2 POP POP SWAP3 POP SWAP3 SWAP1 POP JUMP JUMPDEST PUSH0 DUP1 PUSH1 0x40 DUP4 DUP6 SUB SLT ISZERO PUSH2 0x123D JUMPI PUSH2 0x123C PUSH2 0xE80 JUMP JUMPDEST JUMPDEST PUSH0 PUSH2 0x124A DUP6 DUP3 DUP7 ADD PUSH2 0xEA7 JUMP JUMPDEST SWAP3 POP POP PUSH1 0x20 PUSH2 0x125B DUP6 DUP3 DUP7 ADD PUSH2 0xEA7 JUMP JUMPDEST SWAP2 POP POP SWAP3 POP SWAP3 SWAP1 POP JUMP JUMPDEST PUSH0 DUP1 PUSH0 DUP1 PUSH0 PUSH1 0xA0 DUP7 DUP9 SUB SLT ISZERO PUSH2 0x127E JUMPI PUSH2 0x127D PUSH2 0xE80 JUMP JUMPDEST JUMPDEST PUSH0 PUSH2 0x128B DUP9 DUP3 DUP10 ADD PUSH2 0xFAF JUMP JUMPDEST SWAP6 POP POP PUSH1 0x20 PUSH2 0x129C DUP9 DUP3 DUP10 ADD PUSH2 0xFAF JUMP JUMPDEST SWAP5 POP POP PUSH1 0x40 PUSH2 0x12AD DUP9 DUP3 DUP10 ADD PUSH2 0xEA7 JUMP JUMPDEST SWAP4 POP POP PUSH1 0x60 PUSH2 0x12BE DUP9 DUP3 DUP10 ADD PUSH2 0x1004 JUMP JUMPDEST SWAP3 POP POP PUSH1 0x80 DUP7 ADD CALLDATALOAD PUSH8 0xFFFFFFFFFFFFFFFF DUP2 GT ISZERO PUSH2 0x12DF JUMPI PUSH2 0x12DE PUSH2 0xE84 JUMP JUMPDEST JUMPDEST PUSH2 0x12EB DUP9 DUP3 DUP10 ADD PUSH2 0x1127 JUMP JUMPDEST SWAP2 POP POP SWAP3 SWAP6 POP SWAP3 SWAP6 SWAP1 SWAP4 POP JUMP JUMPDEST PUSH0 PUSH1 0x60 DUP3 ADD SWAP1 POP PUSH2 0x130B PUSH0 DUP4 ADD DUP7 PUSH2 0xEF1 JUMP JUMPDEST PUSH2 0x1318 PUSH1 0x20 DUP4 ADD DUP6 PUSH2 0xF19 JUMP JUMPDEST PUSH2 0x1325 PUSH1 0x40 DUP4 ADD DUP5 PUSH2 0xF19 JUMP JUMPDEST SWAP5 SWAP4 POP POP POP POP JUMP JUMPDEST PUSH0 PUSH1 0x40 DUP3 ADD SWAP1 POP PUSH2 0x1340 PUSH0 DUP4 ADD DUP6 PUSH2 0xF19 JUMP JUMPDEST PUSH2 0x134D PUSH1 0x20 DUP4 ADD DUP5 PUSH2 0xF71 JUMP JUMPDEST SWAP4 SWAP3 POP POP POP JUMP JUMPDEST PUSH0 DUP2 MLOAD SWAP1 POP SWAP2 SWAP1 POP JUMP JUMPDEST PUSH0 DUP3 DUP3 MSTORE PUSH1 0x20 DUP3 ADD SWAP1 POP SWAP3 SWAP2 POP POP JUMP JUMPDEST DUP3 DUP2 DUP4 MCOPY PUSH0 DUP4 DUP4 ADD MSTORE POP POP POP JUMP JUMPDEST PUSH0 PUSH2 0x1386 DUP3 PUSH2 0x1354 JUMP JUMPDEST PUSH2 0x1390 DUP2 DUP6 PUSH2 0x135E JUMP JUMPDEST SWAP4 POP PUSH2 0x13A0 DUP2 DUP6 PUSH1 0x20 DUP7 ADD PUSH2 0x136E JUMP JUMPDEST PUSH2 0x13A9 DUP2 PUSH2 0x1020 JUMP JUMPDEST DUP5 ADD SWAP2 POP POP SWAP3 SWAP2 POP POP JUMP JUMPDEST PUSH0 PUSH1 0xA0 DUP3 ADD SWAP1 POP PUSH2 0x13C7 PUSH0 DUP4 ADD DUP9 PUSH2 0xF71 JUMP JUMPDEST PUSH2 0x13D4 PUSH1 0x20 DUP4 ADD DUP8 PUSH2 0xF71 JUMP JUMPDEST PUSH2 0x13E1 PUSH1 0x40 DUP4 ADD DUP7 PUSH2 0xF19 JUMP JUMPDEST PUSH2 0x13EE PUSH1 0x60 DUP4 ADD DUP6 PUSH2 0xEF1 JUMP JUMPDEST DUP2 DUP2 SUB PUSH1 0x80 DUP4 ADD MSTORE PUSH2 0x1400 DUP2 DUP5 PUSH2 0x137C JUMP JUMPDEST SWAP1 POP SWAP7 SWAP6 POP POP POP POP POP POP JUMP JUMPDEST PUSH0 PUSH1 0x40 DUP3 ADD SWAP1 POP PUSH2 0x141F PUSH0 DUP4 ADD DUP6 PUSH2 0xF71 JUMP JUMPDEST PUSH2 0x142C PUSH1 0x20 DUP4 ADD DUP5 PUSH2 0xF19 JUMP JUMPDEST SWAP4 SWAP3 POP POP POP JUMP JUMPDEST PUSH0 DUP2 SWAP1 POP SWAP3 SWAP2 POP POP JUMP JUMPDEST POP JUMP JUMPDEST PUSH0 PUSH2 0x144B PUSH0 DUP4 PUSH2 0x1433 JUMP JUMPDEST SWAP2 POP PUSH2 0x1456 DUP3 PUSH2 0x143D JUMP JUMPDEST PUSH0 DUP3 ADD SWAP1 POP SWAP2 SWAP1 POP JUMP JUMPDEST PUSH0 PUSH2 0x146A DUP3 PUSH2 0x1440 JUMP JUMPDEST SWAP2 POP DUP2 SWAP1 POP SWAP2 SWAP1 POP JUMP JUMPDEST PUSH0 DUP3 DUP3 MSTORE PUSH1 0x20 DUP3 ADD SWAP1 POP SWAP3 SWAP2 POP POP JUMP JUMPDEST PUSH32 0x4661696C65640000000000000000000000000000000000000000000000000000 PUSH0 DUP3 ADD MSTORE POP JUMP JUMPDEST PUSH0 PUSH2 0x14B8 PUSH1 0x6 DUP4 PUSH2 0x1474 JUMP JUMPDEST SWAP2 POP PUSH2 0x14C3 DUP3 PUSH2 0x1484 JUMP JUMPDEST PUSH1 0x20 DUP3 ADD SWAP1 POP SWAP2 SWAP1 POP JUMP JUMPDEST PUSH0 PUSH1 0x20 DUP3 ADD SWAP1 POP DUP2 DUP2 SUB PUSH0 DUP4 ADD MSTORE PUSH2 0x14E5 DUP2 PUSH2 0x14AC JUMP JUMPDEST SWAP1 POP SWAP2 SWAP1 POP JUMP JUMPDEST PUSH32 0x53746172742074696D65206D7573742062652067726561746572207468616E20 PUSH0 DUP3 ADD MSTORE PUSH32 0x63757272656E742074696D650000000000000000000000000000000000000000 PUSH1 0x20 DUP3 ADD MSTORE POP JUMP JUMPDEST PUSH0 PUSH2 0x1546 PUSH1 0x2C DUP4 PUSH2 0x1474 JUMP JUMPDEST SWAP2 POP PUSH2 0x1551 DUP3 PUSH2 0x14EC JUMP JUMPDEST PUSH1 0x40 DUP3 ADD SWAP1 POP SWAP2 SWAP1 POP JUMP JUMPDEST PUSH0 PUSH1 0x20 DUP3 ADD SWAP1 POP DUP2 DUP2 SUB PUSH0 DUP4 ADD MSTORE PUSH2 0x1573 DUP2 PUSH2 0x153A JUMP JUMPDEST SWAP1 POP SWAP2 SWAP1 POP JUMP JUMPDEST PUSH32 0x456E642074696D65206D7573742062652067726561746572207468616E207374 PUSH0 DUP3 ADD MSTORE PUSH32 0x6172742074696D65000000000000000000000000000000000000000000000000 PUSH1 0x20 DUP3 ADD MSTORE POP JUMP JUMPDEST PUSH0 PUSH2 0x15D4 PUSH1 0x28 DUP4 PUSH2 0x1474 JUMP JUMPDEST SWAP2 POP PUSH2 0x15DF DUP3 PUSH2 0x157A JUMP JUMPDEST PUSH1 0x40 DUP3 ADD SWAP1 POP SWAP2 SWAP1 POP JUMP JUMPDEST PUSH0 PUSH1 0x20 DUP3 ADD SWAP1 POP DUP2 DUP2 SUB PUSH0 DUP4 ADD MSTORE PUSH2 0x1601 DUP2 PUSH2 0x15C8 JUMP JUMPDEST SWAP1 POP SWAP2 SWAP1 POP JUMP JUMPDEST PUSH0 PUSH1 0x40 DUP3 ADD SWAP1 POP PUSH2 0x161B PUSH0 DUP4 ADD DUP6 PUSH2 0xF19 JUMP JUMPDEST PUSH2 0x1628 PUSH1 0x20 DUP4 ADD DUP5 PUSH2 0xF19 JUMP JUMPDEST SWAP4 SWAP3 POP POP POP JUMP JUMPDEST PUSH32 0x4E487B7100000000000000000000000000000000000000000000000000000000 PUSH0 MSTORE PUSH1 0x11 PUSH1 0x4 MSTORE PUSH1 0x24 PUSH0 REVERT JUMPDEST PUSH0 PUSH2 0x1666 DUP3 PUSH2 0xE88 JUMP JUMPDEST SWAP2 POP PUSH2 0x1671 DUP4 PUSH2 0xE88 JUMP JUMPDEST SWAP3 POP DUP3 DUP3 MUL PUSH2 0x167F DUP2 PUSH2 0xE88 JUMP JUMPDEST SWAP2 POP DUP3 DUP3 DIV DUP5 EQ DUP4 ISZERO OR PUSH2 0x1696 JUMPI PUSH2 0x1695 PUSH2 0x162F JUMP JUMPDEST JUMPDEST POP SWAP3 SWAP2 POP POP JUMP JUMPDEST PUSH32 0x4E487B7100000000000000000000000000000000000000000000000000000000 PUSH0 MSTORE PUSH1 0x12 PUSH1 0x4 MSTORE PUSH1 0x24 PUSH0 REVERT JUMPDEST PUSH0 PUSH2 0x16D4 DUP3 PUSH2 0xE88 JUMP JUMPDEST SWAP2 POP PUSH2 0x16DF DUP4 PUSH2 0xE88 JUMP JUMPDEST SWAP3 POP DUP3 PUSH2 0x16EF JUMPI PUSH2 0x16EE PUSH2 0x169D JUMP JUMPDEST JUMPDEST DUP3 DUP3 DIV SWAP1 POP SWAP3 SWAP2 POP POP JUMP INVALID LOG2 PUSH5 0x6970667358 0x22 SLT KECCAK256 KECCAK256 0xDB 0x1E 0xDE SWAP14 SAR MSIZE PUSH4 0x3422819B AND DUP3 0xB7 GASPRICE DUP6 CREATE 0xFB ADDRESS PUSH26 0xA711A04A27B451B8A8F7EB64736F6C634300081A003300000000 "
		},
		"gasEstimates": {
			"creation": {
				"codeDepositCost": "1187200",
				"executionCost": "infinite",
				"totalCost": "infinite"
			},
			"external": {
				"LSP7Token()": "2598",
				"_claimCounter()": "2548",
				"calcPercentage(uint256,uint256)": "infinite",
				"claim(bool,bytes)": "infinite",
				"getBalance()": "380",
				"isAirdropActive()": "infinite",
				"owner()": "2604",
				"pause()": "infinite",
				"paused()": "2635",
				"permission(address)": "2825",
				"renounceOwnership()": "infinite",
				"time()": "399",
				"transferBalance(address,uint256)": "infinite",
				"transferOwnership(address)": "infinite",
				"unpause()": "infinite",
				"updateDate(uint256,uint256)": "infinite",
				"updateLSP7Token(address)": "infinite",
				"updateclaimAmount(uint256)": "infinite",
				"withdraw()": "infinite",
				"withdrawLSP7(address,address,uint256,bool,bytes)": "infinite"
			}
		},
		"methodIdentifiers": {
			"LSP7Token()": "1c719d8b",
			"_claimCounter()": "fb2228fe",
			"calcPercentage(uint256,uint256)": "a37b06d4",
			"claim(bool,bytes)": "2f8bc0ef",
			"getBalance()": "12065fe0",
			"isAirdropActive()": "e20d810f",
			"owner()": "8da5cb5b",
			"pause()": "8456cb59",
			"paused()": "5c975abb",
			"permission(address)": "68226a78",
			"renounceOwnership()": "715018a6",
			"time()": "16ada547",
			"transferBalance(address,uint256)": "56a6d9ef",
			"transferOwnership(address)": "f2fde38b",
			"unpause()": "3f4ba83a",
			"updateDate(uint256,uint256)": "a2b26dfe",
			"updateLSP7Token(address)": "2830d69f",
			"updateclaimAmount(uint256)": "03a1f522",
			"withdraw()": "3ccfd60b",
			"withdrawLSP7(address,address,uint256,bool,bytes)": "b8de4343"
		}
	},
	"abi": [
		{
			"inputs": [
				{
					"internalType": "address",
					"name": "_airdrioToken",
					"type": "address"
				}
			],
			"stateMutability": "nonpayable",
			"type": "constructor"
		},
		{
			"inputs": [],
			"name": "EnforcedPause",
			"type": "error"
		},
		{
			"inputs": [],
			"name": "ExpectedPause",
			"type": "error"
		},
		{
			"inputs": [
				{
					"internalType": "address",
					"name": "owner",
					"type": "address"
				}
			],
			"name": "OwnableInvalidOwner",
			"type": "error"
		},
		{
			"inputs": [
				{
					"internalType": "address",
					"name": "account",
					"type": "address"
				}
			],
			"name": "OwnableUnauthorizedAccount",
			"type": "error"
		},
		{
			"inputs": [
				{
					"internalType": "uint256",
					"name": "",
					"type": "uint256"
				}
			],
			"name": "TooLate",
			"type": "error"
		},
		{
			"inputs": [
				{
					"internalType": "uint256",
					"name": "lastTimeClaimed",
					"type": "uint256"
				}
			],
			"name": "UserClaimedAlready",
			"type": "error"
		},
		{
			"anonymous": false,
			"inputs": [
				{
					"indexed": false,
					"internalType": "address",
					"name": "addr",
					"type": "address"
				},
				{
					"indexed": false,
					"internalType": "uint256",
					"name": "totalClimedToken",
					"type": "uint256"
				}
			],
			"name": "Claimed",
			"type": "event"
		},
		{
			"anonymous": false,
			"inputs": [
				{
					"indexed": false,
					"internalType": "address",
					"name": "_newLSP7Token",
					"type": "address"
				}
			],
			"name": "LSP7TokenUpdated",
			"type": "event"
		},
		{
			"anonymous": false,
			"inputs": [
				{
					"indexed": true,
					"internalType": "address",
					"name": "previousOwner",
					"type": "address"
				},
				{
					"indexed": true,
					"internalType": "address",
					"name": "newOwner",
					"type": "address"
				}
			],
			"name": "OwnershipTransferred",
			"type": "event"
		},
		{
			"anonymous": false,
			"inputs": [
				{
					"indexed": false,
					"internalType": "address",
					"name": "account",
					"type": "address"
				}
			],
			"name": "Paused",
			"type": "event"
		},
		{
			"anonymous": false,
			"inputs": [
				{
					"indexed": false,
					"internalType": "address",
					"name": "account",
					"type": "address"
				}
			],
			"name": "Unpaused",
			"type": "event"
		},
		{
			"anonymous": false,
			"inputs": [
				{
					"indexed": false,
					"internalType": "uint256",
					"name": "startDate",
					"type": "uint256"
				},
				{
					"indexed": false,
					"internalType": "uint256",
					"name": "endDate",
					"type": "uint256"
				}
			],
			"name": "airdropDateUpdated",
			"type": "event"
		},
		{
			"anonymous": false,
			"inputs": [
				{
					"indexed": false,
					"internalType": "uint256",
					"name": "",
					"type": "uint256"
				},
				{
					"indexed": false,
					"internalType": "address",
					"name": "",
					"type": "address"
				}
			],
			"name": "claimAmountUpdated",
			"type": "event"
		},
		{
			"inputs": [],
			"name": "LSP7Token",
			"outputs": [
				{
					"internalType": "address",
					"name": "",
					"type": "address"
				}
			],
			"stateMutability": "view",
			"type": "function"
		},
		{
			"inputs": [],
			"name": "_claimCounter",
			"outputs": [
				{
					"internalType": "uint256",
					"name": "_value",
					"type": "uint256"
				}
			],
			"stateMutability": "view",
			"type": "function"
		},
		{
			"inputs": [
				{
					"internalType": "uint256",
					"name": "amount",
					"type": "uint256"
				},
				{
					"internalType": "uint256",
					"name": "bps",
					"type": "uint256"
				}
			],
			"name": "calcPercentage",
			"outputs": [
				{
					"internalType": "uint256",
					"name": "",
					"type": "uint256"
				}
			],
			"stateMutability": "pure",
			"type": "function"
		},
		{
			"inputs": [
				{
					"internalType": "bool",
					"name": "_force",
					"type": "bool"
				},
				{
					"internalType": "bytes",
					"name": "_data",
					"type": "bytes"
				}
			],
			"name": "claim",
			"outputs": [
				{
					"internalType": "bool",
					"name": "",
					"type": "bool"
				}
			],
			"stateMutability": "nonpayable",
			"type": "function"
		},
		{
			"inputs": [],
			"name": "getBalance",
			"outputs": [
				{
					"internalType": "uint256",
					"name": "",
					"type": "uint256"
				}
			],
			"stateMutability": "view",
			"type": "function"
		},
		{
			"inputs": [],
			"name": "isAirdropActive",
			"outputs": [
				{
					"internalType": "bool",
					"name": "",
					"type": "bool"
				},
				{
					"internalType": "uint256",
					"name": "",
					"type": "uint256"
				},
				{
					"internalType": "uint256",
					"name": "",
					"type": "uint256"
				}
			],
			"stateMutability": "view",
			"type": "function"
		},
		{
			"inputs": [],
			"name": "owner",
			"outputs": [
				{
					"internalType": "address",
					"name": "",
					"type": "address"
				}
			],
			"stateMutability": "view",
			"type": "function"
		},
		{
			"inputs": [],
			"name": "pause",
			"outputs": [],
			"stateMutability": "nonpayable",
			"type": "function"
		},
		{
			"inputs": [],
			"name": "paused",
			"outputs": [
				{
					"internalType": "bool",
					"name": "",
					"type": "bool"
				}
			],
			"stateMutability": "view",
			"type": "function"
		},
		{
			"inputs": [
				{
					"internalType": "address",
					"name": "",
					"type": "address"
				}
			],
			"name": "permission",
			"outputs": [
				{
					"internalType": "uint256",
					"name": "",
					"type": "uint256"
				}
			],
			"stateMutability": "view",
			"type": "function"
		},
		{
			"inputs": [],
			"name": "renounceOwnership",
			"outputs": [],
			"stateMutability": "nonpayable",
			"type": "function"
		},
		{
			"inputs": [],
			"name": "time",
			"outputs": [
				{
					"internalType": "uint256",
					"name": "",
					"type": "uint256"
				}
			],
			"stateMutability": "view",
			"type": "function"
		},
		{
			"inputs": [
				{
					"internalType": "address payable",
					"name": "_to",
					"type": "address"
				},
				{
					"internalType": "uint256",
					"name": "_amount",
					"type": "uint256"
				}
			],
			"name": "transferBalance",
			"outputs": [],
			"stateMutability": "nonpayable",
			"type": "function"
		},
		{
			"inputs": [
				{
					"internalType": "address",
					"name": "newOwner",
					"type": "address"
				}
			],
			"name": "transferOwnership",
			"outputs": [],
			"stateMutability": "nonpayable",
			"type": "function"
		},
		{
			"inputs": [],
			"name": "unpause",
			"outputs": [],
			"stateMutability": "nonpayable",
			"type": "function"
		},
		{
			"inputs": [
				{
					"internalType": "uint256",
					"name": "_startTime",
					"type": "uint256"
				},
				{
					"internalType": "uint256",
					"name": "_endTime",
					"type": "uint256"
				}
			],
			"name": "updateDate",
			"outputs": [
				{
					"internalType": "bool",
					"name": "",
					"type": "bool"
				}
			],
			"stateMutability": "nonpayable",
			"type": "function"
		},
		{
			"inputs": [
				{
					"internalType": "address",
					"name": "_newToken",
					"type": "address"
				}
			],
			"name": "updateLSP7Token",
			"outputs": [
				{
					"internalType": "bool",
					"name": "",
					"type": "bool"
				}
			],
			"stateMutability": "nonpayable",
			"type": "function"
		},
		{
			"inputs": [
				{
					"internalType": "uint256",
					"name": "_newVal",
					"type": "uint256"
				}
			],
			"name": "updateclaimAmount",
			"outputs": [
				{
					"internalType": "bool",
					"name": "",
					"type": "bool"
				}
			],
			"stateMutability": "nonpayable",
			"type": "function"
		},
		{
			"inputs": [],
			"name": "withdraw",
			"outputs": [],
			"stateMutability": "nonpayable",
			"type": "function"
		},
		{
			"inputs": [
				{
					"internalType": "address",
					"name": "_LSP7Token",
					"type": "address"
				},
				{
					"internalType": "address",
					"name": "_to",
					"type": "address"
				},
				{
					"internalType": "uint256",
					"name": "_amount",
					"type": "uint256"
				},
				{
					"internalType": "bool",
					"name": "_force",
					"type": "bool"
				},
				{
					"internalType": "bytes",
					"name": "_data",
					"type": "bytes"
				}
			],
			"name": "withdrawLSP7",
			"outputs": [],
			"stateMutability": "nonpayable",
			"type": "function"
		}
	]
}